:100000000C94DC020C9404030C9404030C9404037D
:100010000C9404030C9404030C9404030C94040344
:100020000C9404030C9404030C9404030C94040334
:100030000C9404030C9404030C9404030C94040324
:100040000C94E5170C9404030C9404030C9404031F
:100050000C9404030C9404030C9404030C94040304
:100060000C942F180C94040300407A10F35A00A04B
:10007000724E18090010A5D4E80000E87648170071
:1000800000E40B54020000CA9A3B000000E1F505B1
:10009000000080969800000040420F000000A086FB
:1000A00001000000102700000000E803000000002D
:1000B0006400000000000A000000000001000000D1
:1000C00000002C76D888DC674F0823DFC1DFAE59EB
:1000D000E1B1B796E5E3E453C63AE651997696E87E
:1000E000E6C28426EB898C9B62ED407C6FFCEFBC02
:1000F0009C9F40F2BAA56FA5F490055A2AF75C932D
:100100006B6CF9676DC11BFCE0E40D47FEF520E662
:10011000B500D0ED902E0300943577050080841E45
:10012000080000204E0A000000C80C333333330FA0
:10013000986E12831141EF8D2114893BE65516CF3D
:10014000FEE6DB18D1844B381BF77C1D901DA4BB49
:10015000E424203284725E228100C9F124ECA1E5FE
:100160003D2753455420746F207265737461727417
:1001700000726573746F72696E672030780049325F
:1001800043204552524F52004932432046414C4C85
:100190004241434B0053595354454D205345545409
:1001A000494E475300515549434B204D454E55004C
:1001B00056434F2053455454494E475300524543EC
:1001C000414C4C204D454D4F5259003C3C003E3E69
:1001D0000020004C4F434B200053455420746F20A7
:1001E00073656C656374006E6F2000796573003E03
:1001F0002000464143544F52592052455345540024
:10020000434C45415220414C4C20444154413F0015
:1002100053455420746F2073656C656374006F667A
:1002200066006F6E20003E200053484F57204D451A
:100230004E55205449544C450053455420746F206A
:1002400073656C656374006F6666006F6E20003EB8
:1002500020004241434B4C494748542044494D4DAE
:1002600045520053455420746F20656469740053EF
:10027000544154494F4E204E414D45005345542062
:10028000746F2073656C656374006E6F6E650050EB
:100290000052462064726976653A20006E6F6E6582
:1002A000005000756E6C6F636B65643A20006E6F72
:1002B0006E650050006C6F636B65643A20003E20F1
:1002C00000504F5254204D415050494E4700534525
:1002D0005420746F2073656C656374006869676887
:1002E0000064697361626C6564006C6F7720003E26
:1002F00020004348415247452050554D500053453A
:100300005420746F2073656C65637400204D487AC7
:10031000002E003E20005854414C20465245515575
:10032000454E43590053455420746F2073656C65E6
:100330006374003E203078004932432041444452E7
:100340004553530053455420746F2073656C6563A7
:10035000740020646563696D616C7300206465637B
:10036000696D616C003E2000505245434953494F2E
:100370004E0053455420746F2073656C65637400A0
:10038000204D487A002D003E2000465245515545EB
:100390004E43592042414E440053455420746F202F
:1003A00070726F6365656400455849542053455425
:1003B00054494E47530053455420746F20656E7462
:1003C00065720047454E4552414C205345545449AF
:1003D0004E47530053455420746F20656E74657208
:1003E00000504C4C2053455454494E4753005345FC
:1003F0005420746F20656E7465720056434F20530D
:10040000455454494E4753003C656D7074793E0025
:100410003A003E204D003E204D003E4D00204D480C
:100420007A0020003A003E2072657475726E0043B7
:100430004C454152204D454D4F525900204D487A70
:1004400000534156452000524543414C4C204D45F8
:100450004D4F52590053455420746F2073656C659D
:1004600063740053455420746F20636F6E66697225
:100470006D0053455420746F20746F67676C65007E
:100480004558495420515549434B204D454E550040
:100490004C4344204F4646004F4646004F4E0052C4
:1004A000462044524956453A2000434C454152208B
:1004B0004D454D4F52590053415645204D454D4FE6
:1004C000525900524543414C4C204D454D4F5259D5
:1004D0000063616E63656C006469736361726400DC
:1004E00073617665206368616E676573003E200006
:1004F000455849542053455454494E475300204DC4
:10050000487A0053455420005246204452495645EB
:100510003A204F464600204D487A00284329323081
:100520003236204C6F656E69650056342E330020DC
:1005300000504C4C20436F6E74726F6C00534554E6
:1005400020746F20636F6E6669726D00524554555A
:10055000524E20544F204D454E55000000000024BF
:100560000027002A0000000000250028002B0000C2
:1005700000000023002600290004040404040404ED
:100580000402020202020203030303030301020442
:100590000810204080010204081020010204081005
:1005A0002000000008000201000003040700000012
:1005B0000000000000004E1911241FBECFEFD8E04C
:1005C000DEBFCDBF11E0A0E0B1E0E6E5FDE402C092
:1005D00005900D92A838B107D9F722E0A8E8B1E05C
:1005E00001C01D92AD3FB207E1F712E0CCEDD2E0C1
:1005F00004C02197FE010E945126CB3DD107C9F7C7
:100600000E9481190C94A9260C940000833081F07B
:1006100028F4813099F08230A9F008958730A9F04C
:100620008830C9F08430B1F4809180008F7D03C0A0
:10063000809180008F7780938000089584B58F77B4
:1006400084BD089584B58F7DFBCF8091B0008F77F6
:100650008093B00008958091B0008F7DF9CFCF9343
:10066000DF93282F30E0F901EF55FA4F8491F9011B
:10067000E357FA4FD491F901E758FA4FC491CC23CC
:10068000A1F081110E940603EC2FF0E0EE0FFF1F96
:10069000E159FA4FA591B491EC91ED2381E090E0FE
:1006A00009F480E0DF91CF91089580E090E0FACFE7
:1006B0001F93CF93DF93282F30E0F901EF55FA4FC6
:1006C0008491F901E357FA4FD491F901E758FA4FB1
:1006D000C491CC23A9F0162F81110E940603EC2FA0
:1006E000F0E0EE0FFF1FEB59FA4FA591B4918FB7D1
:1006F000F894EC91111108C0D095DE23DC938FBFE4
:10070000DF91CF911F910895DE2BF8CFCF93DF9328
:1007100090E0FC01E357FA4F249187589A4FFC016F
:1007200084918823D1F090E0880F991FFC01E55A4D
:10073000FA4FA591B491FC01EB59FA4FC591D491B0
:10074000623071F49FB7F8943C91822F8095832397
:100750008C93E8812E2B28839FBFDF91CF91089542
:100760008FB7F894EC912E2B2C938FBFF6CFCF93AD
:10077000DF93EC0161E086E00E948603209731F46C
:1007800060E086E0DF91CF910C945803CF3FD10514
:1007900011F461E0F6CFE7EAF5E0E491E33029F106
:1007A00040F4E130B1F0E230D9F0C038D1058CF737
:1007B000E7CFE73021F1E83051F1E430B1F7809133
:1007C0008000806280938000D0938B00C0938A0069
:1007D00004C084B5806884BDC7BDDF91CF91089502
:1007E00084B5806284BDC8BDF8CF809180008068E8
:1007F00080938000D0938900C0938800EECF8091D1
:10080000B00080688093B000C093B300E6CF8091C1
:10081000B00080628093B000C093B400DECF3FB7D9
:10082000F8948091CF029091D002A091D102B09122
:10083000D20226B5A89B05C02F3F19F00196A11D35
:10084000B11D3FBFBA2FA92F982F8827BC01CD011A
:10085000620F711D811D911D42E0660F771F881F79
:10086000991F4A95D1F708958F929F92AF92BF92A8
:10087000CF92DF92EF92FF924B015C010E940F0436
:100880006B017C010E940F046C197D098E099F0980
:10089000683E734081059105A8F321E0821A910812
:1008A000A108B10888EEC80E83E0D81EE11CF11C37
:1008B00081149104A104B10429F7FF90EF90DF9017
:1008C000CF90BF90AF909F908F9008952FB7F894DE
:1008D0006091CB027091CC028091CD029091CE02BA
:1008E0002FBF0895CF92DF92EF92FF920F931F9345
:1008F0000E9466040091D4021091D5022091D60284
:100900003091D7026B017C01C01AD10AE20AF30AC6
:10091000970186010A3F110521053105B8F0609362
:10092000D4027093D5028093D6029093D70260913F
:10093000D30281E068276093D30285E01F910F9175
:10094000FF90EF90DF90CF900C9458031F910F9180
:10095000FF90EF90DF90CF90089508950895AF92A3
:10096000BF92CF92DF92EF92FF920F931F93CF939C
:10097000DF936C017B018B01040F151FEB015E01FE
:10098000AE18BF08C017D10759F06991D601ED9193
:10099000FC910190F081E02DC6010995892B79F732
:1009A000C501DF91CF911F910F91FF90EF90DF90E4
:1009B000CF90BF90AF900895089520910402260F24
:1009C0003327331F21323105ECF420912802FC013A
:1009D00090E080E0243069F082E00895A091040264
:1009E0002191AC014C515E4FA40FB52FB11D2C933A
:1009F0000196861798F380910402680F60930402B1
:100A000080E0089581E008951092280281E08093AB
:100A10002A021092290261E082E10E94580361E0FB
:100A200083E10E945803E9EBF0E080818E7F8083B0
:100A300080818D7F808388E48093B80085E48093F3
:100A4000BC000895CF93DF9391E090935B028823DD
:100A5000B9F0C091B800D091BA008091BC008A7BF7
:100A60008093BC0060E082E10E94580360E083E173
:100A70000E9458030E940405D093BA00C093B800A6
:100A8000DF91CF9108950895E0915502809154022D
:100A9000E81730F4F0E0EC53FE4F808190E00895C9
:100AA0008FEF9FEF089590915502809154022FEFA0
:100AB0003FEF981748F4E92FF0E0EC53FE4F208108
:100AC00030E09F5F90935502C901089580915402D0
:100AD00090915502891B990B0895CF92DF92EF9266
:100AE000FF920F931F93CF93DF937C01CB018A0179
:100AF0002091C301222389F0EB016B01C40ED51EA6
:100B0000CC15DD0569F06991D701ED91FC9101905B
:100B1000F081E02DC7010995F3CF642F0E94DD0419
:100B2000C801DF91CF911F910F91FF90EF90DF905F
:100B3000CF900895CF93DF931F92CDB7DEB769832F
:100B40002091C3012223F9F020915202203258F063
:100B500021E030E0FC013383228390E080E00F90BD
:100B6000DF91CF91089580915302E82FF0E0ED5589
:100B7000FE4F998190838F5F80935302809352023E
:100B800081E090E0ECCF61E0CE0101960E94DD04AF
:100B9000F7CF90E080E0089520910401422F50E0CB
:100BA000FA01E958FD4F208130E0220F331F240F56
:100BB000351F96E0929FA001939F500D112490E065
:100BC00080589F4F840F951F880F991F880F991F7A
:100BD00008950F931F93182F0E946604112371F03C
:100BE00010926D021092890110928A0110928B016D
:100BF00010928C011092880180E02DC020916D022E
:100C00003091C002332351F121110CC021E0209317
:100C10006D026093890170938A0180938B01909398
:100C20008C01E8CF209188012111E6CF0091890144
:100C300010918A0120918B0130918C01601B710B06
:100C4000820B930B6032734081059105A8F281E01D
:100C50008093880182E01F910F910895222361F211
:100C60008091880110926D021092890110928A0180
:100C700010928B0110928C011092880191E08927CB
:100C8000EACFE0910401E23028F4F0E0E35FFE4FA8
:100C90008081089582E00895E091040184E0E89F56
:100CA000F0011124E15FFE4F6081718182819381A7
:100CB00023E0660F771F881F991F2A95D1F739E027
:100CC00096958795779567953A95D1F708958F9280
:100CD0009F92AF92BF92CF92DF92EF92FF92CF930B
:100CE0000E944106C09103018C1708F4C82F80E4CC
:100CF000C82E82E4D82E8FE0E82EF12C9AE0892EBF
:100D0000912CA12CB12CCC2351F0C701B601A50127
:100D100094010E942F2669017A01C150F4CF0E94EC
:100D20004C069B01AC01C20ED31EE41EF51EC7018A
:100D3000B60161507109810991090E942F26822F05
:100D4000CF91FF90EF90DF90CF90BF90AF909F90AA
:100D50008F9008954F925F926F927F928F929F92A1
:100D6000AF92BF92CF92DF92EF92FF921F93CF93F9
:100D7000DF93982E5B01142FE9010E9466046B013A
:100D80007C01F501992009F4BDC08081811124C046
:100D9000C0929101D0929201E0929301F09294015D
:100DA000C0928D01D0928E01E0928F01F09290015D
:100DB00081E08083812FFE01DF91CF911F91FF9011
:100DC000EF90DF90CF90BF90AF909F908F907F90EB
:100DD0006F905F904F900994809191019091920152
:100DE000A0919301B091940146015701881A990A84
:100DF000AA0ABB0A80916E02882309F466C0F8EE45
:100E00008F16F3E09F06A104B10408F44EC00E94BF
:100E10006706782E0E944C069B01AC01A72DB0E01E
:100E20000E9457260E947D2520E030E04AEF53E4DF
:100E30000E94DC242B013C01C501B401685E7340B3
:100E4000810991090E947D2520E030E04AE754E4C1
:100E50000E94DC2423E333E343E35FE30E94702436
:100E60009B01AC01C301B2010E94DC240E944E250B
:100E700080908D0190908E01A0908F01B090900194
:100E8000A7019601281939094A095B0949015A0144
:100E900086169706A806B90640F02091B90230914F
:100EA000C9023323F1F021111EC0DF91CF911F91B0
:100EB000FF90EF90DF90CF90BF90AF909F908F907A
:100EC0007F906F905F904F90089528EE821623E0F8
:100ED0009206A104B10448F360E570E080E090E080
:100EE000C7CF222331F038EC83169104A104B1045A
:100EF000E0F2C0928D01D0928E01E0928F01F092CB
:100F0000900158CF1082D1CF4F925F926F927F9213
:100F10008F929F92AF92BF92CF92DF92EF92FF9209
:100F2000CF93DF932B013C01D42FC22F0E944C069C
:100F30004B015C017C016B01481459046A047B0479
:100F400078F0AFEFBFE7AC019B010E9457266B0121
:100F50007C014C145D046E047F0410F47301620183
:100F600061E070E080E090E0DD2331F00E946706F0
:100F7000682F70E090E080E0A50194010E940B26AC
:100F80004B015C01C13011F581E0C81AD108E108BC
:100F9000F108C701B601680D791D8A1D9B1DA501C9
:100FA00094010E942F26C501B4010E940B26DF91F7
:100FB000CF91FF90EF90DF90CF90BF90AF909F9038
:100FC0008F907F906F905F904F900895C701B6010A
:100FD000CF3F29F3C501B40196958795779567951D
:100FE0006C0D7D1D8E1D9F1DDACF20918302E8E0E0
:100FF000F1E0222331F0E6E0F1E0213011F4E7E006
:10100000F1E039E048E057E090818F3F11F59830EA
:10101000C9F4508390819830A0F4222331F060917C
:101020000801961761F0213031F0609107019617A1
:1010300031F0223031F060910601961302C0315038
:1010400019F70895911102C04083E4CF9150908325
:10105000E1CF983011F41082DDCF9730A9F39F5F74
:10106000F6CF8F929F92AF92BF920F931F93CF9321
:10107000DF93CDB7DEB7A1970FB6F894DEBF0FBEF2
:10108000CDBF19A2423008F44AE08E010F5D1F4F18
:10109000842E912CB12CA12CA50194010E942F2605
:1010A000E62FB901CA01EA3044F5E05DD801EE93BC
:1010B0008D01232B242B252B79F790E080E01097CE
:1010C00069F0FD0101900020E9F73197AF014A1B5B
:1010D0005B0BBD0185EE92E00E94AF04A1960FB6B6
:1010E000F894DEBF0FBECDBFDF91CF911F910F915E
:1010F000BF90AF909F908F900895E95CD7CFFC018F
:1011000001900020E9F73197AF01481B590BBC0152
:1011100085EE92E00C94AF04EF92FF920F931F9331
:10112000CF93DF937C018C01CAE0D0E0CE010E9416
:101130002224F80181938F012196CB31D105B1F79B
:10114000C701DF91CF911F910F91FF90EF9008950C
:10115000CF92DF92EF92FF920F931F93CF93DF9383
:10116000EB017B0124E0E20EF11C8B016C01C61A3D
:10117000D70AC601800F911F0E942224F801819393
:101180008F01EE15FF05A9F7CE01DF91CF911F91D9
:101190000F91FF90EF90DF90CF900895CF93DF9362
:1011A000863050F5EB010E94CC05BE010E94A808D4
:1011B00088819981AA81BB818F3F2FEF9207A20777
:1011C000B207D1F04091990150919A0160919B0131
:1011D00070919C0184179507A607B70768F04091A6
:1011E000950150919601609197017091980148176F
:1011F00059076A077B0720F480E0DF91CF910895BB
:1012000081E0FBCF0C9422244F925F926F927F92E9
:101210008F929F92AF92BF92CF92DF92EF92FF9206
:101220000F931F93CF93DF9300D000D0CDB7DEB7DD
:101230008CE390E00E940209873008F082E08093FE
:1012400077028DE390E00E940209873008F082E087
:101250008093780290900401A92CB12CF501E958F3
:10126000FD4F8080082D10E0C80143E0880F991FD2
:101270004A95E1F79C01295E3E4F3901F9016081F1
:1012800071818281938121E041E00E9484076B019A
:101290007C01C0929901D0929A01E0929B01F09258
:1012A0009C01F30164817581868197812FEF41E074
:1012B0000E9484072B013C014092950150929601B7
:1012C0006092970170929801F6E0F81508F445C015
:1012D00021E0291508F441C0C801880F991F8A0D23
:1012E0009B1D880F991F880F991FBE016F5F7F4F4D
:1012F000865A9F4F0E94A80869817A818B819C81C0
:101300006C157D058E059F0558F046165706680634
:10131000790630F020E040E00E9484076B017C01F8
:10132000C0927C02D0927D02E0927E02F0927F0217
:101330000F900F900F900F90DF91CF911F910F9111
:10134000FF90EF90DF90CF90BF90AF909F908F90E5
:101350007F906F905F904F900895C114D104E10485
:10136000F104F1F660E070E0CB01D4CFCF93DF93CE
:10137000EC0160E08E810E94580361E08E810E9442
:10138000580360E08E810E9458038BE891E001973A
:10139000F1F7DF91CF910895CF92DF92EF92FF9214
:1013A0000F931F93CF93DF936C017C0187E0E80ECE
:1013B000F11CD0E0C0E0062F10E0B8010C2E02C0F6
:1013C000759567950A94E2F76170F70181917F0145
:1013D0000E9458032196C430D10579F7C601DF91E8
:1013E000CF911F910F91FF90EF90DF90CF900C94D1
:1013F000B609CF92DF92EF92FF920F931F93CF9394
:10140000DF93EC01F62E642F8C810E9458038D81AE
:101410008F3F19F060E00E9458030F2D10E08F8578
:1014200084FF25C06E0187E0C80ED11CF12CE12C91
:10143000B8010E2C02C0759567950A94E2F76170A9
:10144000F60181916F010E945803FFEFEF1AFF0A26
:1014500088E0E816F10461F7CE01DF91CF911F918A
:101460000F91FF90EF90DF90CF900C94B609B801E8
:1014700084E0759567958A95E1F7CE010E94CC09C5
:101480006F2DCE01DF91CF911F910F91FF90EF90C3
:10149000DF90CF900C94CC0940E0682F85EE92E06D
:1014A0000C94F90981E00E944C0A8BE39FE10197BB
:1014B000F1F70895CF93DF93823029F49091F402ED
:1014C00098609093F4028093F8021092F90280E4FD
:1014D0008093FA0280E18093FB0280E58093FC0216
:1014E00061E08091E9020E9486038091EA028F3FC9
:1014F00019F061E00E94860361E08091EB020E9496
:101500008603C5EED2E09E01255E32408091F40252
:1015100084FD0BC084E090E021962817390744F43D
:1015200061E08E810E948603EECF88E090E0F4CFE8
:101530008BE39DE00197F1F760E08091E9020E9462
:10154000580360E08091EB020E9458038091EA0208
:101550008F3F19F060E00E9458038091F40284FDEF
:1015600034C063E085EE92E00E94CC09CBE4D6E47F
:10157000CE010197F1F763E085EE92E00E94CC097D
:101580002197F1F763E085EE92E00E94CC0983E5B4
:1015900092E00197F1F762E085EE92E00E94CC09BB
:1015A0008091F40280620E944C0A84E08093F502EC
:1015B0008CE00E944C0A0E94520A82E08093F6025C
:1015C00086E0DF91CF910C944C0A80620E944C0A15
:1015D0008BE496E40197F1F78091F40280620E9417
:1015E0004C0A83E592E00197F1F78091F402806262
:1015F0000E944C0AD5CF9091F802691710F06FEF56
:10160000690FE62FF0E0EB51FD4F9489890F806858
:101610000C944C0ACF93DF93EB01682F80E00E947B
:10162000FB0ACE01DF91CF910C947F0841E00E942C
:10163000F90981E090E008950F931F93CF93DF9312
:101640008C01D0E0C0E0F801EC0FFD1F649166232F
:1016500039F041E085EE92E00E94F9092196F3CF3E
:10166000CE01DF91CF911F910F9108958CE495E009
:101670000E941C0B61E080E00E94FB0A8DE395E074
:101680000C941C0BBC01990F880B990B4AE00C942D
:101690003108CF93DF9386E490E00E940209811124
:1016A00081E08093040188E290E00E940209C82F43
:1016B0000E9441069C2F8C1708F4982F90930301E9
:1016C0000E94040980E590E00E940209843008F03D
:1016D00081E080930C0182E390E00E940209833054
:1016E00008F081E08093050186E590E00E94020900
:1016F000C82F87E590E00E940209D82F88E590E086
:101700000E940209CF3F09F04BC0DF3F09F04AC0F9
:101710008F3F09F047C085E08093080186E0809301
:10172000070182E08093060184E892E00E948C0821
:101730009091940210929402E4E8F2E024E932E0FD
:10174000819180528F3528F42E173F07C9F79923CE
:1017500081F040E150E06FE471E084E892E00E94A3
:101760009A2644E050E060E270E080E992E00E9456
:1017700085268EE190E00E94020991E0811101C06E
:1017800090E09093090183E290E00E94020991E0C9
:10179000811101C090E090930A01DF91CF910895EB
:1017A000C83008F0C8E0C0930801D83008F0D8E08D
:1017B000D0930701883008F088E080930601D83084
:1017C00029F0CD1303C098E090930701883009F405
:1017D000ABCFC81721F0909107018913A5CF88E0FE
:1017E000A1CF85ED8093BC00809157029091580263
:1017F000A0915902B0915A020796A11DB11D23E094
:10180000B695A795979587952A95D1F72091BC0015
:1018100024FD03C010922802089540915702509170
:1018200058026091590270915A02452B462B472B62
:1018300069F30097A105B10541F02AE22A95F1F775
:1018400000C00197A109B109E1CF809156020C9423
:101850002205FF920F931F93CF93DF93EC018B012F
:10186000F42E40E150E060E270E00E948526188A84
:10187000C8010E94E221813108F080E1482F50E048
:1018800080E0FF2031F080E190E0841B950B95957E
:101890008795B8018C0F9D2F911DDF91CF911F91DE
:1018A0000F91FF900C94D9219F92AF92BF92CF924B
:1018B000DF92EF92FF920F931F93CF93DF93CDB7F9
:1018C000DEB729970FB6F894DEBF0FBECDBF982EB6
:1018D00059016801CB01BA010E947D2520E034E264
:1018E00044E759E40E94DC249E012F5F3F4F7901B9
:1018F00089012091030148E00E94BB21F70101907A
:101900000020E9F731978F010E191F09C6010E94C7
:10191000E221800F10E1181BA114B10439F0692DE8
:1019200080E00E94FB0AC5010E941C0B692D812FDB
:101930000E94FB0AC7010E947F08C6010E941C0B7F
:1019400029960FB6F894DEBF0FBECDBFDF91CF91C1
:101950001F910F91FF90EF90DF90CF90BF90AF90CD
:101960009F9008954F925F926F927F928F929F9275
:10197000AF92BF92CF92DF92EF92FF920F931F939D
:10198000CF93DF93CDB7DEB7E3970FB6F894DEBF02
:101990000FBECDBF182F843009F4E1C38091F5024A
:1019A0008D7F8093F50288600E944C0A1150183098
:1019B00070F4E12FF0E0E152F34F0C945126FE0C4D
:1019C000500D6B0DAF10C61025119911A7110E9473
:1019D000520A81E395E00E941C0B8FE295E00E9481
:1019E0001C0B8AE295E00E941C0B61E080E00E94E3
:1019F000FB0A8BE195E00E941C0B3BC040917C02EE
:101A000050917D0260917E0270917F0206E115E0A7
:101A100030E020E080E00E94540C61E080E00E9411
:101A2000FB0A80910B01811120C00E94660428EE00
:101A300033E040E050E00E942F2620FF16C040E136
:101A400050E060E270E0CE0101960E948526198A7E
:101A5000BE016F5F7F4F81E00E940A0B61E080E072
:101A60000E94FB0A88E095E0C6CF84E892E00E94DD
:101A70007F08E3960FB6F894DEBF0FBECDBFDF91AF
:101A8000CF911F910F91FF90EF90DF90CF90BF907B
:101A9000AF909F908F907F906F905F904F90089540
:101AA00080916E02811107C061E00E94FB0A83E011
:101AB00095E00E941C0B40917C0250917D02609148
:101AC0007E0270917F020EEF14E030E020E081E0B2
:101AD0000E94540CCECF0E94520A8091BB028823F0
:101AE00009F160E080E00E94FB0A80EF94E00E9430
:101AF0001C0B61E080E00E94FB0A8DEE94E00E94E6
:101B00001C0B8091AA02813051F030F0823009F034
:101B1000B0CF81ED94E06FCF80EE94E06CCF88ED94
:101B200094E069CF8091BA028430F1F51091AA0255
:101B3000123031F1C0F4112301F187EB94E0113040
:101B4000C9F061E080E00E94FB0A82E794E0133074
:101B500009F451CF145083E694E0123008F44BCFCF
:101B600085E594E048CF1430E1F068F080E894E037
:101B7000153039F70E941C0BE4CF83EC94E0FACFC8
:101B80008AEA94E0F7CF8FE994E00E941C0B8091E1
:101B90000B01811103C088E994E0ECCF8CE994E05B
:101BA000E9CF80E994E0E6CF853009F098C08091D4
:101BB000A602813009F46AC008F463C0823009F4D7
:101BC00075C061E080E00E94FB0A1091AA0286E2E3
:101BD00094E0163009F40FCF1A8A1B8A1C8A1D8ADA
:101BE000BE016E5E7F4F812F0E94CE08882309F4CC
:101BF00062C06A897B898C899D8920E041E00E94CE
:101C000084076A8B7B8B8C8B9D8B0E947D2520E0CB
:101C100034E244E759E40E94DC249E012F5F3F4FE9
:101C2000790189012091030140E00E94BB21F70165
:101C300001900020E9F7EE19ED5FE031D0F51FE0EB
:101C40001E1B86E194E0153010F48AE194E00E94B6
:101C50001C0B8091AA0290E001960E94420B84E244
:101C600094E00E941C0B61E0812F0E94FB0A82E23B
:101C700094E00E941C0BC7010E947F088DE194E054
:101C8000BACE87E494E00E941C0B9BCF4091730274
:101C90005091740260917502709176020CE314E029
:101CA00021E434E080E00E94540C8BCF8FE294E07A
:101CB000EACF10E0CACF82E194E00E941C0B812F92
:101CC00090E001960E94420B80E194E00E941C0B80
:101CD00061E089E00E94FB0A88E094E08CCE8111EB
:101CE00036C08091AA028130E1F080F0823021F18B
:101CF000833009F0BECE88EA93E00E941C0B61E0BD
:101D000080E00E94FB0A89E993E075CE8BEF93E0B7
:101D10000E941C0B61E080E00E94FB0A8EEE93E0C3
:101D20006ACE81EE93E00E941C0B61E080E00E948D
:101D3000FB0A84ED93E05FCE83EC93E00E941C0BE2
:101D400061E080E00E94FB0A86EB93E054CE813094
:101D500009F08BC08091AA02813009F461C030F093
:101D6000823009F086CE0E94360B83CE8AE893E05B
:101D70000E941C0B61E080E00E94FB0A8091A90296
:101D8000882309F44AC0E0910401F0E0E958FD4FCE
:101D9000008138E0039F80011124095E1E4FF80185
:101DA000608171818281938121E041E00E948407FA
:101DB0002B013C01F80164817581868197812FEFA9
:101DC00041E00E9484074B015C0187E893E00E9498
:101DD0001C0B30E4C32E32E4D32E3FE0E32EF12C73
:101DE000C301B201A70196010E942F26CA01B901C1
:101DF0004AE00E94310885E893E00E941C0BC5016F
:101E0000B401A70196010E942F26CA01B9014AE038
:101E10000E94310880E893E0EECD82E793E0EBCDBD
:101E200088E693E00E941C0B61E080E00E94FB0AC0
:101E30008091A9028823B1F085E693E00E941C0BF3
:101E40006091030170E090E080E04AE00E94310878
:101E500080910301813019F082E593E0CCCD8CE5CF
:101E600093E0C9CD84E493E0C6CD823009F0FCC094
:101E70008091AA02823009F47FC008F055C08823FF
:101E800009F459C0813009F0F4CD86E193E00E9455
:101E90001C0B61E080E00E94FB0A8091A90288236C
:101EA00009F467C083E193E00E941C0BE0910401F8
:101EB00024E0E29FF0011124E15FFE4F6081718117
:101EC0008281938120E4C22E22E4D22E2FE0E22EE2
:101ED000F12CA70196010E942F26CA01B9014AE000
:101EE0000E94310881E193E00E941C0BE091040103
:101EF00034E0E39FF0011124E15FFE4F60817181C6
:101F000082819381A70196010E942F2620EA36E85C
:101F100041E050E00E942F26CA01B9014AE00E9428
:101F200031088CE093E067CD833009F447C08430FA
:101F300009F419CF9ECD88E393E00E941C0B61E069
:101F400080E00E94FB0A8091A902882379F083E354
:101F500093E00E941C0BE091E402F0E0EA59FE4F8E
:101F6000608170E090E080E040E14FC085E293E066
:101F700042CD8EEF92E03FCD82EF92E00E941C0BAB
:101F800061E080E00E94FB0A8091A902882399F019
:101F90008FEE92E00E941C0B80910501882329F0AE
:101FA000813031F081EE92E026CD8AEE92E023CDB1
:101FB0008CED92E020CD8EEC92E01DCD81EC92E094
:101FC0000E941C0B61E080E00E94FB0A8091A90244
:101FD000882309F446C08EEB92E00E941C0B80918E
:101FE0008302811118C085EB92E00E941C0B809146
:101FF0000801883068F483EB92E00E941C0B60912A
:10200000080170E090E080E04AE00E94310831CDA4
:102010008EEA92E0F0CC813091F483EA92E00E9463
:102020001C0B80910701883038F481EA92E00E940D
:102030001C0B60910701E5CF8CE992E0DCCC81E9D3
:1020400092E00E941C0B80910601883038F48FE8E2
:1020500092E00E941C0B60910601D3CF8AE892E0C7
:10206000CACC8CE792E0C7CC833009F002CD8091D6
:10207000AA02823009F44DC0E0F48823C9F181300E
:1020800009F0F7CC82E592E00E941C0B61E080E051
:102090000E94FB0A8091A9028823C1F18FE492E09B
:1020A0000E941C0B8091090181112DC087E492E0F0
:1020B000A2CC833009F03BCF8091A702811146C0AA
:1020C00082EF91E00E941C0B61E080E00E94FB0A1D
:1020D0008091A902882309F43FC08FEE91E00E940D
:1020E0001C0B8091A802811134C087EE91E083CC53
:1020F0008FE692E00E941C0B61E080E00E94FB0AE8
:1021000083E692E078CC8BE492E075CC89E392E0B0
:1021100072CC89E292E00E941C0B61E080E00E9498
:10212000FB0A8091A902882371F086E292E00E9466
:102130001C0B80910A01811103C08EE192E05BCCFF
:1021400082E292E058CC80E192E055CC80E092E0CF
:10215000B9CF8BEE91E04FCC89ED91E04CCC61E0B2
:1021600080E00E94FB0A85E992E00E947F0861E01E
:10217000809179020E94FB0A8091F502982F92606B
:102180009093F5028A600E944C0A73CC60E080E074
:102190000E94FB0A8091C302882319F083ED91E02D
:1021A0002ACC0E94660400919F011091A001209109
:1021B000A1013091A2016B017C01C01AD10AE20A8F
:1021C000F30A970186010A3F11052105310508F43C
:1021D00050CC60939F017093A0018093A1019093D4
:1021E000A20181ED91E00E941C0B81ED91E00E9423
:1021F0001C0B81ED91E00E941C0B81ED91E00E948F
:102200001C0B81ED91E00E941C0B10919E0160E07F
:10221000812F0E94FB0A009100018BEC91E00023CA
:1022200011F08EEC91E00E941C0B8FEF011181E008
:10223000810F80939E01882319F0833009F019CC17
:1022400081E008270093000114CC80910A018823C3
:1022500009F40FCC8091BA020DEB11E065EA71E050
:10226000843020F400EB11E065E971E07E0123E2A7
:10227000E20EF11C41E0C7010E94290C6E0132E11F
:10228000C30ED11C40E0B801C6010E94290C0E9477
:10229000520AB70180E00E940A0B68EE73E080E00A
:1022A00090E00E94340411E0BE2CAF2CCE010196C8
:1022B0007C0100E281E1EB2DFA2DD70101900D9216
:1022C0008A95E1F7212F193008F028E0C701D701DE
:1022D000F70101931F960C931F9711973E2F3E19FC
:1022E0003217B8F31430B8F04DEF410FD701960113
:1022F000B601FB015191BF01FC015193CF01F901DE
:1023000057851F965C931F97215031091197562FBF
:102310005C19541770F3B70180E00E940A0B66E461
:1023200070E080E090E00E9434041F5F1C3011F6E2
:10233000A0CB8091AF02882319F00E94520A99CB5A
:1023400081E00E94B20C85E00E94B20C92CB8FEF2C
:1023500090E00E94B7030E94520A10917B028EE720
:1023600091E0112311F088E891E00E941C0B61E0DC
:1023700080E00E94FB0A82E691E0112309F43BCB46
:1023800081E791E00E941C0BE0910C01E6CD809169
:10239000B90281112AC08091A902882359F01092B4
:1023A000A902109283021092A8021092A70283E061
:1023B0000C94B20C8091BB02882341F01092BB02B6
:1023C0001092BA0283E08093AA02F1CF8091BA0200
:1023D000811106C081E08093BB021092AA02E7CF70
:1023E0001092BA0280917A02EECF08951092C9023B
:1023F0001092A9021092BB021092B9021092BA0276
:102400001092AA021092A6020E9466046093B5027E
:102410007093B6028093B7029093B80281E08093E4
:10242000B4020E94B20C85E00C94B20C8091BA0206
:10243000853051F484E08093BA028091A6028093A3
:10244000AA0283E00C94B20C0C94F6112F923F92E6
:102450004F925F926F927F928F929F92AF92BF92B4
:10246000CF92DF92EF92FF920F931F93CF93DF9360
:1024700000D01F92CDB7DEB7D82EF62E042FE52E52
:102480002B83862F880F89831AE088248A9485EE0F
:10249000982E95ECC92EA22EB12C922F91509A8392
:1024A000DD2009F4F0C00E940F042B013C01809153
:1024B0002802811165C0E1E0E0932802E0932A023E
:1024C0008092270210924C02FA81F0934B02E09323
:1024D0004D0280914D029981892B80934D0280910C
:1024E0002902813009F08BC0109229020E940F044A
:1024F0002B013C0180914D028093BB0080915702DB
:1025000090915802A0915902B0915A02892B8A2BBE
:102510008B2BA1F00E940F0420915702309158029A
:102520004091590250915A02641975098609970918
:10253000261737074807590708F443C08091BC00A5
:1025400083FDD8CFC092BC000E940F042B013C0138
:1025500080912802813009F455C080914C02EB81B2
:102560008E1708F071C080914C02EBE2F2E0A4EC0F
:10257000B1E090E0981751F121912D939F5FFACF30
:102580008091570290915802A0915902B0915A023D
:10259000892B8A2B8B2B09F48ACF0E940F04209160
:1025A0005702309158024091590250915A026419D1
:1025B000750986099709261737074807590708F04C
:1025C00076CF809156020E94220580E0109255023B
:1025D00080935402FB81F81339C00983C02EDE2C8E
:1025E0008C2D9981891BEB818E1708F007C188ED2E
:1025F00092E00E945305F60181936F01F1CF909212
:10260000BC00A2CF8091570290915802A09159022C
:10261000B0915A02892B8A2B8B2B09F499CF0E94F7
:102620000F04209157023091580240915902509165
:102630005A0264197509860997092617370748074A
:10264000590708F085CFBDCF8B818FCF62E370E053
:1026500080E090E00E943404115009F021CF809175
:10266000C90281112FC160E085E00E94580388E013
:102670000E94B20C83E00E942F03892B09F004C151
:102680000E947204F7CFF1E0F093C301F0929D0134
:1026900010925302109252028B81882339F0A501C7
:1026A000602F7E2D88ED92E00E946D0530905202E1
:1026B00090E281E0931508F499C020909D010E945A
:1026C0000F042B013C0180912802811169C0E2E0D6
:1026D000E0932802F1E0F0932A0280922702109200
:1026E0004C0230924B02E3EAF1E0ABE2B2E0381286
:1026F0009CC010924D0280914D02220C282A2092FB
:102700004D0280912902813009F093C01092290274
:102710000E940F042B013C0180914D028093BB006D
:102720008091570290915802A0915902B0915A029B
:10273000892B8A2B8B2BA1F00E940F04209157022A
:10274000309158024091590250915A02641975090A
:1027500086099709261737074807590708F441C023
:102760008091BC0083FDD8CFC092BC000E940F04B2
:102770002B013C0180912802823009F45DC08091D8
:1027800027028F3F09F47AC080912702803209F432
:1027900077C080912702803309F474C084E026C09A
:1027A0008091570290915802A0915902B0915A021B
:1027B000892B8A2B8B2B09F486CF0E940F04209142
:1027C0005702309158024091590250915A026419AF
:1027D000750986099709261737074807590708F02A
:1027E00072CF809156020E94220585E0109253021A
:1027F000109252021092C301811128CF81E00F90F4
:102800000F900F90DF91CF911F910F91FF90EF905C
:10281000DF90CF90BF90AF909F908F907F906F9000
:102820005F904F903F902F90089591919D938F5F6F
:102830005ECF9092BC009ACF80915702909158023F
:10284000A0915902B0915A02892B8A2B8B2B09F443
:1028500091CF0E940F04209157023091580240916D
:10286000590250915A026419750986099709261769
:1028700037074807590708F07DCFB3CF80E0B6CFC0
:1028800082E0B4CF83E0B2CF0E94720483E00E9462
:102890002F03892BC9F783E00E942F03892B19F49A
:1028A0000E947204F8CF60E085E00E94580388E13E
:1028B00098E00FB6F894A895809360000FBE9093AF
:1028C0006000FFCF80E09BCFCF93DF9300D0CDB7E8
:1028D000DEB78091C302882391F19091080180E0D6
:1028E000983028F481E001C0880F9A95EAF790911A
:1028F0000601983058F420910B01222339F021E091
:1029000030E001C0220F9A95EAF7822B2091050151
:102910002130D1F091E0223009F090E02EE8922BA6
:1029200099838A83E0910C01F0E0EA59FE4F22E09E
:10293000AE014F5F5F4F608180E00E9426120F90D2
:102940000F90DF91CF9108952EEC90E0E8CFCF92D9
:10295000DF92EF92FF92CF938823F1F0E09179021A
:10296000F0E0EB56FD4F8081082E000C990B80970C
:10297000860F911D67FD9A95815A9F4F6FE570E014
:102980000E941B26805E808384E0CF91FF90EF90B1
:10299000DF90CF900C94B20CC42F0E9466046B01A0
:1029A0007C01C11104C0809179028F3040F11092F6
:1029B000B902109279021092A9021092BB021092F1
:1029C000A50240E150E065E972E084E892E00E94EF
:1029D0009A261092940283E00E94B20CC092B50233
:1029E000D092B602E092B702F092B80281E08093F2
:1029F000B402CF91FF90EF90DF90CF9008958F5F5A
:102A000080937902C1CF40E0682F81E00C94A71435
:102A10000E94490B60917C0270917D0280917E0240
:102A200090917F0220E041E00E94840760937C0245
:102A300070937D0280937E0290937F021092BB027E
:102A40001092A8021092A7021092C9021092BA0224
:102A50000E9466046093B5027093B6028093B70239
:102A60009093B80281E08093B4020E94B20C85E09A
:102A70000C94B20C81E08093A80283E00C94B20C19
:102A80001092A80283E00C94B20C81E080930A01BA
:102A900083E00C94B20C10920A0183E00C94B20C07
:102AA00081E08093090183E00C94B20C109209013B
:102AB00083E00C94B20C81E00E94F50783E00C9453
:102AC000B20C8FEF0E94F50783E00C94B20C80915A
:102AD0000501813029F41092050183E00C94B20CB9
:102AE0008111FBCF82E080930501F7CF8091050132
:102AF000823029F41092050183E00C94B20C81110C
:102B0000FBCF81E080930501F7CF80910401811113
:102B100003C081E0809304010E9441068093030179
:102B200083E00C94B20C80910401882319F0815049
:102B3000809304010E9441068093030183E00C947A
:102B4000B20C8091E402833018F48F5F8093E4022A
:102B500083E00C94B20C8091E402882319F0815038
:102B60008093E40283E00C94B20C0E9441069091A1
:102B70000301981718F49F5F9093030183E00C946E
:102B8000B20C80910301882319F0815080930301D6
:102B900083E00C94B20CE0910401F0E0E958FD4FA1
:102BA0008081863028F48F5F808383E00C94B20CA0
:102BB00080E0FACFE0910401F0E0E958FD4F808118
:102BC000882329F08150808383E00C94B20C86E046
:102BD000FACF8091AA02823030F48F5F8093AA02EC
:102BE00083E00C94B20C08958091AA02882331F0FE
:102BF00081508093AA0283E00C94B20C0895E09176
:102C0000BA028091AA02E53051F4863010F48F5F49
:102C100001C080E08093AA0283E00C94B20CF0E043
:102C2000E05AFE4F20812150330B821713067CF3AC
:102C300008958091AA029091BA02953051F48823A8
:102C400011F0815001C086E08093AA0283E00C94C9
:102C5000B20C8111F6CF08954F925F926F927F92DE
:102C60008F929F92AF92BF92CF92DF92EF92FF929C
:102C7000CF93DF9300D000D000D0CDB7DEB78D83E7
:102C80004090950150909601609097017090980146
:102C9000C0909901D0909A01E0909B01F0909C0126
:102CA00080916E028823C9F180907C0290907D0211
:102CB000A0907E02B0907F020E9467068E830E94E1
:102CC0004C069B01AC01D301C2018C199D09AE09D0
:102CD000BF0989839A83AB83BC839E81A92FB0E00F
:102CE0000E94572629813A814B815C81261737073C
:102CF0004807590710F4CA01B9013D8113160CF0B9
:102D000043C0860E971EA81EB91E80927C02909228
:102D10007D02A0927E02B0927F0280917C0290910F
:102D20007D02A0917E02B0917F028C159D05AE05BB
:102D3000BF0578F1481659066A067B0610F06C014B
:102D40007D01C0927C02D0927D02E0927E02F092E0
:102D50007F0282E00E94B20C81E080936E02269690
:102D60000FB6F894DEBF0FBECDBFDF91CF91FF90BD
:102D7000EF90DF90CF90BF90AF909F908F907F901B
:102D80006F905F904F900895861A970AA80AB90A23
:102D9000BCCF73016201D5CFFF920F931F93CF93E6
:102DA000DF93EC01F62E08811981C8010E942224CC
:102DB000F81621F06F2DC8010E942A24CE01DF9160
:102DC000CF911F910F91FF900895AF92BF92CF9234
:102DD000DF92EF92FF920F931F93CF93DF9300D078
:102DE000CDB7DEB78B016B0124E0C20ED11C7B0195
:102DF0005C01A61AB70AC5018E0D9F1D9A838983AF
:102E0000F70161917F01CE0101960E94CC16EC146E
:102E1000FD0489F7C8010F900F90DF91CF911F91AA
:102E20000F91FF90EF90DF90CF90BF90AF900895FB
:102E3000CF92DF92EF92FF92CF93DF93CDB7DEB7C1
:102E400028970FB6F894DEBF0FBECDBF60917C020D
:102E500070917D0280917E0290917F0220E041E09E
:102E60000E9484076B017C01C0927C02D0927D029B
:102E7000E0927E02F0927F02809173029091740240
:102E8000A0917502B0917602C816D906EA06FB0633
:102E900029F48091C902882309F477C00E944C0666
:102EA0009B01AC01C701B6010E942F263D832E83F2
:102EB00080910501823009F075C09EE881E0892B80
:102EC0008F839091070180E0983028F481E001C061
:102ED000880F9A95EAF78887E0910C01F0E0EA59AB
:102EE000FE4F24E0AE014B5F5F4F608180E00E94A7
:102EF0002612882309F449C040917C0250917D023A
:102F000060917E0270917F0280910401282F30E051
:102F1000F901E958FD4F908149835A836B837C8383
:102F2000973000F58230F0F4C0907302D0907402B4
:102F3000E0907502F09076024C155D056E057F05F8
:102F400089F0892F90E0880F991F820F931F880FB7
:102F5000991F880F991FBE016F5F7F4F865A9F4F41
:102F60000E94E51680917C0290917D02A0917E02E4
:102F7000B0917F028093730290937402A0937502C4
:102F8000B093760281E08093C40228960FB6F8943D
:102F9000DEBF0FBECDBFDF91CF91FF90EF90DF90EE
:102FA000CF9008959EEC80E08ACFCF93DF9300D03E
:102FB000CDB7DEB79A838983CE0101960E94CC16E5
:102FC0000F900F90DF91CF9108951F920F920FB63F
:102FD0000F9211242F933F938F939F93AF93BF939F
:102FE0008091CB029091CC02A091CD02B091CE0203
:102FF0003091CA0223E0230F2D3758F50196A11D09
:10300000B11D2093CA028093CB029093CC02A0936F
:10301000CD02B093CE028091CF029091D002A091C8
:10302000D102B091D2020196A11DB11D8093CF02B1
:103030009093D002A093D102B093D202BF91AF91EE
:103040009F918F913F912F910F900FBE0F901F90E6
:10305000189526E8230F0296A11DB11DD2CF1F920D
:103060000F920FB60F9211242F933F934F935F93BC
:103070006F937F938F939F93AF93BF93EF93FF9340
:103080008091B900887F803609F44AC0F0F5883213
:1030900009F4A7C018F5803109F49BC0B8F488235F
:1030A00009F4F9C0883009F494C0FF91EF91BF9101
:1030B000AF919F918F917F916F915F914F913F91D0
:1030C0002F910F900FBE0F901F901895883109F423
:1030D00088C0803251F78093270214C0803409F4ED
:1030E0009DC040F48033B9F38833F9F6809327020A
:1030F00085ECB0C0803509F485C0883509F496C0E8
:10310000883499F60E94F10BD0CF883909F48CC02D
:1031100038F5883729F050F4883611F0803729F6D1
:1031200083E0809328021092260257C0883809F461
:103130007BC0803919F0803809F0B7CF8091260222
:10314000803208F071C0E091260281E08E0F8093FA
:1031500026028091BB00F0E0EA5FFD4F80833DC016
:10316000803B39F0E0F4803A09F479C0883A09F0FC
:103170009CCF84E0809328021092050210920402F2
:10318000E0915002F0915102099580910402811161
:103190000FC081E0809304021092E40109C0803CDA
:1031A00009F4A6CF883C09F4A3CF883B09F07DCF72
:1031B000E091050281E08E0F80930502F0E0EC5172
:1031C000FE4F80818093BB009091050280910402A4
:1031D00029C080914D028093BB0085EC8093BC0098
:1031E00064CF90914C0280914B02981758F5E09172
:1031F0004C0281E08E0F80934C02F0E0E55DFD4FC4
:103200008081E9CFE0914C0281E08E0F80934C02E7
:103210008091BB00F0E0E55DFD4F808390914C0212
:1032200080914B029817C8F285E8D8CFE0914C0204
:1032300081E08E0F80934C028091BB00F0E0E55D51
:10324000FD4F808380912A0281115CCF81E08093C1
:10325000290284EA8093BC001092280226CF85ECD4
:103260008093BC001092280280912602803230F4B4
:10327000E0912602F0E0EA5FFD4F108260912602A5
:1032800070E0E0914E02F0914F0286E092E00995E5
:10329000109226020ACF1092270234CFE8EDF2E016
:1032A0001382128288EE93E0A0E0B0E084839583DD
:1032B000A683B7838EE691E091838083E5EEF2E00A
:1032C0001382128280E891E09183808388E0848376
:1032D0008FEF858389E086838AE087838BE0808710
:1032E0008CE081878DE0828713861486158616868A
:1032F000178681E00E945A0A80910C018093E402B3
:103300000895CF93DF93CDB7DEB763970FB6F894E8
:10331000DEBF0FBECDBF789484B5826084BD84B516
:10332000816084BD85B5826085BD85B5816085BDC0
:1033300080916E00816080936E0010928100809178
:103340008100826080938100809181008160809300
:103350008100809180008160809380008091B10025
:1033600084608093B1008091B00081608093B00050
:1033700080917A00846080937A0080917A008260E4
:1033800080937A0080917A00816080937A008091A6
:103390007A00806880937A001092C10062E082E037
:1033A0000E94860362E083E00E94860362E084E07C
:1033B0000E94860361E085E00E94860361E085E06B
:1033C0000E94860361E086E00E9486031092550207
:1033D0001092540210925302109252020E9404055D
:1033E0008DEA94E090935102809350028EEA94E02B
:1033F00090934F0280934E0282EF8093B800109218
:103400005B0288E893E1A0E0B0E0809357029093DC
:103410005802A0935902B0935A0211E01093560239
:1034200082E00E945A0A8FEF90E00E94B70380E08A
:103430000E94B20C64EC79E080E090E00E943404D9
:1034400083E00E942F03892BB1F410930C0161E0FB
:1034500080E590E00E94D51710937B0288E00E94DF
:10346000B20C10927B0264EC79E080E090E00E9464
:1034700034041093B4020E94490B0E94181781E093
:103480000E94B20C85E00E94B20C3324339424E9EC
:10349000C22E22E0D22E3EEC432E55245A94652CA7
:1034A000752C11E022242A940E9466044B015C01D1
:1034B00082E00E942F03FF24F394892B09F0F12C62
:1034C000F092C20283E00E942F0301E0892B09F0F1
:1034D00000E00093C00284E00E942F0321E0892BCA
:1034E00009F020E02093C102F00E2F0D223010F0E1
:1034F0001093600290916002992309F4DBC010924E
:10350000C1021092C0021092C20210928102109267
:103510006D021092820221110AC010926002809204
:103520005C0290925D02A0925E02B0925F02809176
:103530008002882309F4E0C01092800290E080E0CD
:103540000E94B7031093AF0287E00E94B20C83E0A1
:103550000E942F03892BD9F310926D021092C002A2
:103560008091C902811167C0F090C202F1100CC0B5
:103570008091C002811108C08091C102811104C0F4
:1035800080910201811157C00E9466044B015C01C9
:103590002CE236E14FEF62E872E08F2D0E94AA061E
:1035A0002CE236E141E061E872E08091C1020E94C4
:1035B000AA068091C202811104C08091C1028823B1
:1035C00051F080926F0290927002A0927102B092BC
:1035D00072021092020180916E02882361F180E0F4
:1035E0000E94E905082F8091C002882351F0809243
:1035F0006F0290927002A0927102B09272021093C8
:10360000B402013009F076C10E9466044B015C01EE
:103610000E94181710926E028092B5029092B60224
:10362000A092B702B092B8020093B40281E00E9467
:10363000B20C009302010E9466044B015C01F09001
:10364000C202F11008C08091C102811104C08091B2
:10365000C002882341F08092BC029092BD02A092E9
:10366000BE02B092BF022091C902222309F479C19F
:103670008091BB02811175C14091BC025091BD0285
:103680006091BE027091BF02D501C401841B950BED
:10369000A60BB70BAC01BD0141325E44610571055B
:1036A00008F45FC18091BA02843008F448C10E94D6
:1036B000F61165C180915C0290915D02A0915E025D
:1036C000B0915F02A5019401281B390B4A0B5B0BDB
:1036D000DA01C901C297A105B10508F028CF1092FF
:1036E000C1021092C0021092C20210928102109286
:1036F0006D02109282021BCF80916E02811104C074
:103700008091C902882349F01092690210926A02DE
:1037100010926B0210926C0223CFF090C2020E94B2
:1037200066044B015C01F11008C08091C002811158
:1037300004C08091C102882389F1209201018FEF9A
:1037400090E00E94B7038091AF028823F9F01092B5
:10375000AF0287E00E94B20C8091C20202E08111A8
:1037600006C08091C10204E0811101C003E0802FF6
:103770000E942F03892BD9F3033009F453C004307E
:1037800009F44BC0109282021092C2028092690228
:1037900090926A02A0926B02B0926C0280910B012F
:1037A000811145C01092690210926A0210926B0258
:1037B00010926C028091AF028111D2CE80910101F2
:1037C0008F3F31F0209201018FEF90E00E94B7030C
:1037D0008091650290916602A0916702B0916802A3
:1037E000A5019401281B390B4A0B5B0BDA01C901B7
:1037F000883E9340A105B10508F4B2CE80926502DF
:1038000090926602A0926702B092680281E00E94E4
:10381000B20C85E00E94B20CA3CE109281021092ED
:10382000C102B4CF10926D021092C002AFCF80914E
:10383000C302882309F468CF8091690290916A02DB
:10384000A0916B02B0916C02892B8A2B8B2B41F4D7
:103850008092690290926A02A0926B02B0926C020E
:1038600080910901882309F47BCE809169029091AF
:103870006A02A0916B02B0916C02A5019401281B11
:10388000390B4A0B5B0BDA01C901853C9940A10554
:10389000B10508F465CE8091AF02811161CE20910F
:1038A00001012F3108F45CCE409161025091620217
:1038B0006091630270916402D501C401841B950B71
:1038C000A60BB70BAC01BD01473051056105710571
:1038D00008F446CE8FEF820F8093010190E00E94A2
:1038E000B7038092610290926202A0926302B0924A
:1038F000640236CE023009F09CC410926E028091B0
:10390000730290917402A0917502B0917602809337
:103910007C0290937D02A0937E02B0937F028092FE
:10392000B5029092B602A092B702B092B80210937C
:10393000B4021093020181E00E94B20C7CCE10927E
:10394000B9020E94081585E00E94B20C8092B5026F
:103950009092B602A092B702B092B8021093B4024D
:103960000EC08091B402882309F470C08091C00217
:10397000811105C01092B40281E00E94E905809196
:10398000C402882351F1E0910C01F0E0EA59FE4FA6
:1039900021E0AE014F5F5F4F608181E00E942612FF
:1039A0008823D9F0898186FB882780F98093C30218
:1039B0008091C902811103C085E00E94B20C809100
:1039C000C302882329F00E94641481111092C4025A
:1039D0006091C30285E00E9458038091C902811161
:1039E0002DC00E9466048090C5029090C602A090EF
:1039F000C702B090C8029B01AC01281939094A09D5
:103A00005B0949015A0130ED831637E09306A104A2
:103A1000B104A0F06093C5027093C6028093C70200
:103A20009093C802E0910C01F0E0EA59FE4F20E0CB
:103A300050E040E0608180E00E94261240E050E0CB
:103A4000452B09F431CD0E9400002CCD8091B902A4
:103A5000211184C0811193CF8091B5029091B6025B
:103A6000A091B702B091B802A5019401281B390BAF
:103A70004A0B5B0BDA01C9018E359140A105B105F6
:103A800008F47DCF8091B0029091B102A091B20272
:103A9000B091B3022091C002222309F4FFC3892B05
:103AA0008A2B8B2B41F48092B0029092B102A092AB
:103AB000B202B092B3028091B0029091B102A09193
:103AC000B202B091B3020097A105B10509F457CF36
:103AD000881A990AAA0ABB0A41E2841643E09406AE
:103AE000A104B10408F44BCF8091AF02811147CFFC
:103AF0001092B0021092B1021092B2021092B30270
:103B00001092AB021092AC021092AD021092AE0273
:103B10001093C90284E08093BA021092AA02109214
:103B2000A9021092BB021092B9021092A802109240
:103B3000A7021092A60286E00E94B20C83E00E94C7
:103B4000B20C1093B4020E9466046093BC0270939E
:103B5000BD028093BE029093BF0211CF882301F172
:103B600023E035E14FEF62E872E08F2D0E94AA0654
:103B700023E035E141E061E872E08091C1020E94FA
:103B8000AA0680E00E94E90540E0813021F0823001
:103B900009F0F5CE41E060E080E00E94A714EFCE8E
:103BA00080E00E94E905082FE091BA02E43008F4B1
:103BB000A9C029E136E14FEF62E872E08F2D0E9443
:103BC000AA062FEF35E141E061E872E08091C10281
:103BD0000E94AA06023019F40E941612D0CE0130BB
:103BE00009F0CDCE8091BA02843009F03FC08091B7
:103BF000AA02833030F48093A60285E08093BA0253
:103C000070C18330B9F480910B01E82EE026E09278
:103C10000B018091C302882359F00E946414811122
:103C200007C080910B01832580930B010E946414CF
:103C300083E0D9C1843009F03ACD1092C9021092C4
:103C4000A9021092BB021092BA021092AA0210921C
:103C5000A602109380020E9466046093B5027093DE
:103C6000B6028093B7029093B80278CE853009F0FF
:103C700086CE8091AA02863009F4AECF9091A6023A
:103C8000911116C0BE016F5F7F4F0E94CE0888233E
:103C900079F289819A81AB81BC8180937C02909377
:103CA0007D02A0937E02B0937F020E941817FFCC82
:103CB000913081F4863030F40E94CC0563E772E0E5
:103CC0000E94E51684E08093BA028091A602809358
:103CD000AA02AECF923009F052CE863098F70E94F9
:103CE000CC055C01F12CE12C6FEFC5018E0D9F1D01
:103CF0000E94D5174FEFE41AF40A54E0E516F104D8
:103D000099F7E0CF8091BB02882309F4EDC024EF3E
:103D100035E14FEF62E872E08F2D0E94AA0629EE8E
:103D200035E141E061E872E08091C1020E94AA069B
:103D3000023019F40E94C71122CE013009F01FCEC3
:103D40008091AA028111C6C08091B902811139C047
:103D500040E150E065E972E084E892E00E949A2632
:103D60001092940294E8A92E92E0B92EF501819167
:103D700080528F3508F0EEC2CE16DF06C1F7CE01B5
:103D800001960E948C0841E150E0BE016F5F7F4FB9
:103D900084E892E00E948C26892B99F08AE0E82E34
:103DA000F12CFB8AEA8AD5016D915D01CE01429624
:103DB0000E94CC16BFEFEB1AFB0AEBE1EE16F10402
:103DC00081F7F0900C01E091E402FE1689F0F0E03A
:103DD000EA59FE4F20E050E040E0608180E00E9420
:103DE0002612882309F456C08091E40280930C01C6
:103DF000609177028CE390E00E94D5176091780281
:103E00008DE390E00E94D5176091030188E290E075
:103E10000E94D51760910C0180E590E00E94D517B3
:103E20006091040186E490E00E94D517609105013D
:103E300082E390E00E94D51760910801683008F095
:103E400068E086E590E00E94D51760910701683030
:103E500008F068E087E590E00E94D51760910601C0
:103E6000683008F068E088E590E00E94D51760911E
:103E700009018EE190E00E94D51760910A0183E26A
:103E800090E00E94D5170E9404090E9418170E9412
:103E9000081575CDF0920C0110937B0288E00E940A
:103EA000B20C10927B020E9466044B015C010E94DE
:103EB0006604681979098A099B09643C794081057F
:103EC000910518F40E947204F2CF60E085E00E9430
:103ED00058038ECF8130D9F2823009F050CD109244
:103EE000BB021092AA02A4CE8091A902811187C0C0
:103EF000F0E0E05AFE4FB080FF2009F43FC080910F
:103F0000820281110CC0109382028091AA02882340
:103F100019F081508093AA0283E00E94B20C809134
:103F2000C102882371F180918102811110C0109328
:103F300081028091AA024B2D4150550B8417150622
:103F40001CF48F5F8093AA0283E00E94B20C0230BF
:103F500009F4F0CE013009F012CD9091BA028091AF
:103F6000AA0291111EC08130A1F070F08230A9F038
:103F7000833009F05DCE0093BB02B3CF1092820272
:103F8000CECF10928102E3CF10927A020093BA0250
:103F9000A8CF00937A0282E031CE80937A0283E048
:103FA0002DCEE92FF0E0E05AFE4F20812150330B57
:103FB0008217130629F41092BA0280917A0287CEF2
:103FC0009330D1F4811112C0109279020093B9029A
:103FD00040E150E064E872E085E992E00E949A26B0
:103FE0001092A50284E00E94B20CC9CC833021F467
:103FF0001092A8021092A7021093A90219CEE130E4
:10400000E1F58091AA028823D9F0813059F102307C
:1040100009F490CE013009F0B2CC8091BA0282301E
:1040200009F095C08091AA02833009F08DC080917B
:104030008302823008F086C08F5F80938302F8CDC0
:104040002AED35E14FEF62E872E08F2D0E94AA065B
:104050002BEC35E141E061E872E08091C1020E9401
:10406000AA06D5CF21EC35E14FEF62E872E08F2D43
:104070000E94AA0625EB35E1EDCFE230B1F5809143
:10408000AA028130E1F080F0823021F1833009F022
:10409000BECF21E635E14FEF62E872E08F2D0E943E
:1040A000AA062BE535E1D6CF2BEA35E14FEF62E8E2
:1040B00072E08F2D0E94AA0621EA35E1CBCF23E9D9
:1040C00035E14FEF62E872E08F2D0E94AA0625E8E5
:1040D00035E1C0CF26E735E14FEF62E872E08F2D82
:1040E0000E94AA0627E635E1B5CFE33009F08FCF6D
:1040F0008091AA02823081F08330C9F0813009F0CA
:1041000086CF26E535E14FEF62E872E08F2D0E9401
:10411000AA0620E535E19ECF2BE435E14FEF62E8BA
:1041200072E08F2D0E94AA0625E435E193CF20E4AA
:1041300035E14FEF62E872E08F2D0E94AA062AE374
:1041400035E188CF109283021092A90271CD83309D
:10415000D9F78091AA028330B9F78091A802882309
:1041600009F464C08091A702882309F45AC0F12C95
:10417000E12C6FEFC7010E94D5175FEFE51AF50A32
:10418000E11484E0F806A9F70E94490B60917C02D3
:1041900070917D0280917E0290917F0220E041E04B
:1041A0000E94840760937C0270937D0280937E025C
:1041B00090937F0280910C018093E40240E150E0F3
:1041C00064E872E085E992E00E949A261092A502C6
:1041D0001092830210930B01109280020E94181714
:1041E0001092C9021092A9021092BB021092A8026A
:1041F0001092A7021092BA021092AA020E946604BC
:104200006093B5027093B6028093B7029093B802A0
:104210001093B40281E00E94B20C85E00E94B20CBF
:104220001ACD0093A7021092A80202CD1092A70205
:104230008BCF80916F0290917002A0917102B0912A
:104240007202A5019401281B390B4A0B5B0BDA01A2
:10425000C90189389341A105B10508F4ECC9109250
:104260006E0281E00E94E905809102018111E3C99B
:104270008091730290917402A0917502B0917602C0
:1042800080937C0290937D02A0937E02B0937F0284
:1042900081E00E94B20C10930201CDC90097A105E4
:1042A000B10509F46CCB1092B0021092B1021092D9
:1042B000B2021092B302A5019401281B390B4A0BDC
:1042C0005B0BDA01C9018E359140A105B10508F0FB
:1042D00056CB8091AB029091AC02A091AD02B0910F
:1042E000AE02A3019201281B390B4A0B5B0BDA01CA
:1042F000C901880D991DAA1DBB1D8092AB02909229
:10430000AC02A092AD02B092AE028C329140A105F7
:10431000B10508F034CB1093C9021092BA02109282
:10432000AA021092A9021092BB021092A802109247
:10433000A70280910C018093E40240E150E064E820
:1043400072E085E992E00E949A261092A5021092EE
:104350008302F1CB40E150E06FE471E084E892E049
:104360000E949A2644E050E060E270E080E992E02A
:104370000E94852604CDEF920F931F93CF93DF9376
:10438000E80134E047FD34E1042E000C550B57FFE3
:1043900003C0519541955109E32E022F242FAE0100
:1043A0000E94EB21CE01DF91CF911F910F91EF90F1
:1043B0000895FB01DC0102C005900D924150504070
:1043C000D8F70895FC0105900020E9F780959095B5
:1043D0008E0F9F1F0895A9E0B0E0E1EFF1E20C9489
:1043E0003E246A01F22EB02E102FFBE3AF2EA01652
:1043F00008F41BE31F5F012F27E0AE014F5F5F4F03
:104400000E944A23BC018981982F9970913009F448
:104410003FC09BE2E1FC04C09E2D9170E0FC3AC0DD
:104420005E2D5071E82FE87083FF46C084E0911143
:1044300001C083E0EF2DE81B8F1508F0E0E0D60106
:104440008E2F20E2552351F1992329F0D6019C9318
:10445000C60101966C0196012D5F3F4FE2FE24C01C
:104460008EE4D6018C9391E411969C931197129649
:104470008C93D9018E2F90E281111BC0E20FF32F94
:10448000F11D10828EEF9FEF2996ECE00C945A24D8
:104490009DE2C6CF90E2C4CF2D9381508111FCCF15
:1044A000CE0ED11CE0E0D0CF8EE6D6018C9391E603
:1044B000DBCF9D938150E0CF482F447082FF3DC0F9
:1044C00084E0911101C083E08F1510F4EF2DE81BFB
:1044D000D6018E2F20E2552309F1992329F0D60128
:1044E0009C93C60101966C0196012D5F3F4FE2FE41
:1044F0001BC089E4D6018C938EE411968C9311979E
:1045000086E412968C93D9018E2F90E2882309F4C9
:10451000B5CF9D938150FACF2D9381508111FCCF5F
:10452000CE0ED11CE0E0D9CF89E6D6018C938EE681
:1045300011968C93119786E6E4CF9B0177FF02C01A
:1045400030E020E0A1E0B0E0911102C0B0E0A0E0D6
:10455000F9013196AE0FBF1F8B2C912CBB2009F4B3
:1045600061C05401EFEFAE1ABE0AAA0DBB1DFA16C8
:104570001B0619F014F04F2D4A1B511188C0E3FCA3
:1045800059C07601A42FB0E2A1114FC0C40ED11CB6
:10459000992309F45BC040E0D6011196F60190839F
:1045A0006D01552309F448C0012F060F9A81582F39
:1045B000507184FF03C0913309F4015010160CF0C0
:1045C00047C0093008F008E0EEE2FE2E5B01A01AB9
:1045D000B10885019194819491082F3F320729F405
:1045E000D601FC92F60131966F016217730794F1C0
:1045F000021713077CF5DB01A21BB30BAA24A394BB
:10460000B12CAC0EBD1EAA0DBB1D11968C91215074
:104610003109D601119628153905F4F0F601808389
:104620006D01DBCFB12CA12CA0CFF701B1937F019D
:10463000A150AACF9111B0CFD601942F50E302C060
:104640005D9391509111FCCFC40ED11C40E0ACCFD2
:1046500001E0BACF80E3DBCF6217730731F4963302
:1046600088F4953311F4552369F0F6018083FD0138
:10467000842F90E2811108C0A40FB11D1C9290E01C
:1046800080E002CF81E3F1CF91938150F3CF91117C
:1046900083CF8ACF283008F027E03327DA01990F3B
:1046A000311D87FD916000966105710539F4326016
:1046B0002E5F3D9330E32A95E1F708959F3F30F058
:1046C00080387105610509F03C5F3C5F3D93913096
:1046D00008F08068911DDF93CF931F930F93FF9293
:1046E000EF92192F987F9695E92F96959695E90F59
:1046F000FF27EE53FF4F99273327EE24FF24A7010E
:10470000E70105900894079428F4360FE71EF81E79
:10471000491F511D660F771F881F991F0694A1F727
:104720000590079428F4E70EF81E491F561FC11D77
:10473000770F881F991F661F0694A1F705900794AD
:1047400028F4F80E491F561FC71FD11D880F991F47
:10475000661F771F0694A1F70590079420F4490F70
:10476000561FC71FD81F990F661F771F881F0694F3
:10477000A9F784911095177041F0D695C795579574
:104780004795F794E7941A95C1F7E8E6F0E0689446
:104790001590159135916591959105907FE27395EE
:1047A000E118F10A430B560BC90BD009C0F7E10C15
:1047B000F11E431F561FC91FD01D7EF4703311F424
:1047C0008A95E6CFE894015030F0080F0AF40027EC
:1047D000021708F4202F2395022F7A3328F079E36B
:1047E0007D932A95E9F710C07D932A9589F6069462
:1047F00097956795379517951794E118F10A430B2C
:10480000560BC90BD00998F023957E9173957A3396
:1048100008F070E37C932013B8F77E9170617D936C
:1048200030F0839571E37D9370E32A95E1F71124CD
:10483000EF90FF900F911F91CF91DF91992787FD06
:1048400090950895F999FECF92BD81BDF89A992768
:1048500080B50895262FF999FECF1FBA92BD81BD6C
:1048600020BD0FB6F894FA9AF99A0FBE01960895F2
:104870002F923F924F925F926F927F928F929F9270
:10488000AF92BF92CF92DF92EF92FF920F931F935E
:10489000CF93DF93CDB7DEB7CA1BDB0B0FB6F8940F
:1048A000DEBF0FBECDBF09942A88398848885F844F
:1048B0006E847D848C849B84AA84B984C884DF80C0
:1048C000EE80FD800C811B81AA81B981CE0FD11DA4
:1048D0000FB6F894DEBF0FBECDBFED01089550585E
:1048E000BB27AA270E9487240C94D1250E94C325A8
:1048F00038F00E94CA2520F039F49F3F19F426F4BD
:104900000C94C0250EF4E095E7FB0C94BA25E92F32
:104910000E94E22558F3BA176207730784079507C8
:1049200020F079F4A6F50C9404260EF4E0950B2EF5
:10493000BA2FA02D0B01B90190010C01CA01A001F1
:104940001124FF27591B99F0593F50F4503E68F14C
:104950001A16F040A22F232F342F4427585FF3CF8D
:10496000469537952795A795F0405395C9F77EF45E
:104970001F16BA0B620B730B840BBAF09150A1F0A7
:10498000FF0FBB1F661F771F881FC2F70EC0BA0F2D
:10499000621F731F841F48F4879577956795B795B5
:1049A000F7959E3F08F0B0CF9395880F08F09927B0
:1049B000EE0F9795879508950E94F0240C94D125C9
:1049C0000E94CA2558F00E94C32540F029F45F3F99
:1049D00029F00C94BA2551110C9405260C94C0258D
:1049E0000E94E22568F39923B1F3552391F3951BB7
:1049F000550BBB27AA2762177307840738F09F5F00
:104A00005F4F220F331F441FAA1FA9F335D00E2E6C
:104A10003AF0E0E832D091505040E695001CCAF7D9
:104A20002BD0FE2F29D0660F771F881FBB1F26179C
:104A300037074807AB07B0E809F0BB0B802DBF0173
:104A4000FF2793585F4F3AF09E3F510578F00C9442
:104A5000BA250C9405265F3FE4F3983ED4F386957F
:104A600077956795B795F7959F5FC9F7880F911D63
:104A70009695879597F90895E1E0660F771F881F4F
:104A8000BB1F621773078407BA0720F0621B730B02
:104A9000840BBA0BEE1F88F7E09508950E94EA2573
:104AA00088F09F5798F0B92F9927B751B0F0E1F0EF
:104AB000660F771F881F991F1AF0BA95C9F714C09F
:104AC000B13091F00E940426B1E008950C940426C0
:104AD000672F782F8827B85F39F0B93FCCF38695D8
:104AE00077956795B395D9F73EF490958095709535
:104AF00061957F4F8F4F9F4F0895E89409C097FBB2
:104B00003EF490958095709561957F4F8F4F9F4FA4
:104B10009923A9F0F92F96E9BB279395F6958795E8
:104B200077956795B795F111F8CFFAF4BB0F11F4AB
:104B300060FF1BC06F5F7F4F8F4F9F4F16C0882352
:104B400011F096E911C0772321F09EE8872F762F88
:104B500005C0662371F096E8862F70E060E02AF0C9
:104B60009A95660F771F881FDAF7880F96958795B5
:104B700097F9089597F99F6780E870E060E00895DD
:104B80009FEF80EC089500240A9416161706180665
:104B90000906089500240A94121613061406050641
:104BA0000895092E0394000C11F4882352F0BB0FD2
:104BB00040F4BF2B11F460FF04C06F5F7F4F8F4F35
:104BC0009F4F089557FD9058440F551F59F05F3F70
:104BD00071F04795880F97FB991F61F09F3F79F01F
:104BE00087950895121613061406551FF2CF4695A1
:104BF000F1DF08C0161617061806991FF1CF869523
:104C00007105610508940895E894BB276627772706
:104C1000CB0197F90895DB018F939F930E9457264C
:104C2000BF91AF91A29F800D911DA39F900DB29F48
:104C3000900D1124089597FB072E16F4009407D0C9
:104C400077FD09D00E94622607FC05D03EF49095BE
:104C500081959F4F0895709561957F4F0895A1E2CA
:104C60001A2EAA1BBB1BFD010DC0AA1FBB1FEE1FE6
:104C7000FF1FA217B307E407F50720F0A21BB30B31
:104C8000E40BF50B661F771F881F991F1A9469F7AD
:104C900060957095809590959B01AC01BD01CF0109
:104CA0000895EE0FFF1F0590F491E02D09940E94E6
:104CB0007626A59F900DB49F900DA49F800D911D09
:104CC00011240895AA1BBB1B51E107C0AA1FBB1FDB
:104CD000A617B70710F0A61BB70B881F991F5A9588
:104CE000A9F780959095BC01CD010895A29FB001D0
:104CF000B39FC001A39F700D811D1124911DB29F10
:104D0000700D811D1124911D0895DC0101C06D936A
:104D100041505040E0F70895FB01DC014150504004
:104D200030F08D910190801919F40020B9F7881B9B
:104D3000990B0895FB01DC014150504048F001906F
:104D40000D920020C9F701C01D9241505040E0F77C
:064D50000895F894FFCF66
:104D560001FF010201010206050101010103020032
:104D66006A180000D430004007EC0380266904006E
:104D7600AB8704C095A905C0832F0500F36F060015
:104D8600449508004DD20800B108198074D21A80E3
:104D9600A1031C801361330090D003006D7C4D533A
:104DA600746174696F6E204E616D650000000000CD
:104DB60004030505060760616263000000009A05AA
:104DC6006D05C90543056605530544050000000049
:084DD600160BAF04C905DC0453
:00000001FF
