:100000000C9420010C9448010C9448010C94480174
:100010000C9448010C9448010C9448010C9448013C
:100020000C9448010C9448010C9448010C9448012C
:100030000C9448010C9448010C9448010C9448011C
:100040000C94B0120C9448010C9448010C94480193
:100050000C9448010C9448010C9448010C944801FC
:100060000C94FA120C94480107634236B79BD8A748
:100070001A39685618AEBAAB558C1D3CB7CC5763CD
:10008000BD6DEDFD753EF6177231BF000000803F7B
:1000900008000000BE922449123EABAAAA2ABECD97
:1000A000CCCC4C3E00000080BEABAAAAAA3E000009
:1000B0000000BF000000803F000000000008417801
:1000C000D3BB4387D1133D190E3CC3BD4282AD2B38
:1000D0003E68EC8276BED98FE1A93E4C80EFFFBE30
:1000E00001C4FF7F3F000000000000407A10F35A77
:1000F00000A0724E18090010A5D4E80000E8764868
:10010000170000E40B54020000CA9A3B000000E113
:10011000F505000080969800000040420F000000A6
:10012000A08601000000102700000000E803000086
:1001300000006400000000000A0000000000010050
:10014000000000002C76D888DC674F0823DFC1DF71
:10015000AE59E1B1B796E5E3E453C63AE651997674
:1001600096E8E6C28426EB898C9B62ED407C6FFCAE
:10017000EFBC9C9F40F2BAA56FA5F490055A2AF7F0
:100180005C936B6CF9676DC11BFCE0E40D47FEF5F9
:1001900020E6B500D0ED902E030094357705008061
:1001A000841E080000204E0A000000C80C333333C0
:1001B000330F986E12831141EF8D2114893BE65560
:1001C00016CFFEE6DB18D1844B381BF77C1D901D43
:1001D000A4BBE424203284725E228100C9F124ECA5
:1001E000A1E53D2700000000240027002A000000B0
:1001F0000000250028002B0000000000230026003E
:100200002900040404040404040402020202020299
:1002100003030303030301020408102040800102CA
:100220000408102001020408102000000008000249
:100230000100000304070000000000000000191482
:1002400011241FBECFEFD8E0DEBFCDBF13E0A0E08A
:10025000B1E0E4EEF1E402C005900D92A632B107E0
:10026000D9F724E0A6E2B3E001C01D92A739B20796
:10027000E1F711E0C0E2D1E004C02197FE010E9445
:100280009020CF31D107C9F70E9452140C94F0206E
:100290000C940000833081F028F4813099F0823092
:1002A000A9F008958730A9F08830C9F08430B1F4FE
:1002B000809180008F7D03C0809180008F77809334
:1002C0008000089584B58F7784BD089584B58F7DAF
:1002D000FBCF8091B0008F778093B000089580911C
:1002E000B0008F7DF9CFCF93DF93282F30E0F90155
:1002F000E65DFD4F8491F901EA5EFD4FD491F9016D
:10030000EE5FFD4FC491CC23A1F081110E944A0100
:10031000EC2FF0E0EE0FFF1FE850FE4FA591B491D7
:10032000EC91ED2381E090E009F480E0DF91CF9142
:10033000089580E090E0FACF1F93CF93DF93282FAA
:1003400030E0F901E65DFD4F8491F901EA5EFD4F71
:10035000D491F901EE5FFD4FC491CC23A9F0162F83
:1003600081110E944A01EC2FF0E0EE0FFF1FE251D5
:10037000FE4FA591B4918FB7F894EC91111108C07C
:10038000D095DE23DC938FBFDF91CF911F9108952D
:10039000DE2BF8CFCF93DF9390E0FC01EA5EFD4FB8
:1003A00024918E5F9D4FFC0184918823D1F090E0D1
:1003B000880F991FFC01EC51FE4FA591B491FC01EF
:1003C000E251FE4FC591D491623071F49FB7F89419
:1003D0003C91822F809583238C93E8812E2B288358
:1003E0009FBFDF91CF9108958FB7F894EC912E2B9A
:1003F0002C938FBFF6CFCF93DF93EC0161E086E0C3
:100400000E94CA01209731F460E086E0DF91CF912D
:100410000C949C01CF3FD10511F461E0F6CFE0E3ED
:10042000F2E0E491E33029F140F4E130B1F0E23060
:10043000D9F0C038D1058CF7E7CFE73021F1E830AB
:1004400051F1E430B1F780918000806280938000A8
:10045000D0938B00C0938A0004C084B5806884BDAB
:10046000C7BDDF91CF91089584B5806284BDC8BDBA
:10047000F8CF80918000806880938000D0938900BD
:10048000C0938800EECF8091B00080688093B00068
:10049000C093B300E6CF8091B00080628093B0003B
:1004A000C093B400DECF3FB7F89480916804909178
:1004B0006904A0916A04B0916B0426B5A89B05C09D
:1004C0002F3F19F00196A11DB11D3FBFBA2FA92FD3
:1004D000982F8827BC01CD01620F711D811D911DD0
:1004E00042E0660F771F881F991F4A95D1F708953C
:1004F0008F929F92AF92BF92CF92DF92EF92FF9234
:100500004B015C010E9453026B017C010E9453026B
:100510006C197D098E099F09683E7340810591051C
:10052000A8F321E0821A9108A108B10888EEC80E4C
:1005300083E0D81EE11CF11C81149104A104B104D4
:1005400029F7FF90EF90DF90CF90BF90AF909F90F2
:100550008F9008952FB7F8946091640470916504AA
:1005600080916604909167042FBF0895CF92DF9227
:10057000EF92FF920F931F930E94AA0200916D04C5
:1005800010916E0420916F04309170046B017C0116
:10059000C01AD10AE20AF30A970186010A3F11053F
:1005A00021053105B8F060936D0470936E0480935B
:1005B0006F049093700460916C0481E068276093ED
:1005C0006C0485E01F910F91FF90EF90DF90CF902A
:1005D0000C949C011F910F91FF90EF90DF90CF90B2
:1005E000089508950895AF92BF92CF92DF92EF924F
:1005F000FF920F931F93CF93DF936C017B018B01CD
:10060000040F151FEB015E01AE18BF08C017D1071C
:1006100059F06991D601ED91FC910190F081E02DA6
:10062000C6010995892B79F7C501DF91CF911F91FB
:100630000F91FF90EF90DF90CF90BF90AF90089513
:1006400008952091A403260F3327331F213231054B
:10065000ECF42091C803FC0190E080E0243069F0C4
:1006600082E00895A091A4032191AC014C575C4F06
:10067000A40FB52FB11D2C930196861798F3809186
:10068000A403680F6093A40380E0089581E00895B7
:100690001092C80381E08093CA031092C90361E0FD
:1006A00082E10E949C0161E083E10E949C01E9EBF0
:1006B000F0E080818E7F808380818D7F808388E4DD
:1006C0008093B80085E48093BC000895CF93DF93B6
:1006D00091E09093FB038823B9F0C091B800D091CA
:1006E000BA008091BC008A7B8093BC0060E082E10C
:1006F0000E949C0160E083E10E949C010E944803EB
:10070000D093BA00C093B800DF91CF9108950895B7
:10071000E091F5038091F403E81730F4F0E0EC5930
:10072000FC4F808190E008958FEF9FEF08959091A6
:10073000F5038091F4032FEF3FEF981748F4E92F6A
:10074000F0E0EC59FC4F208130E09F5F9093F5037F
:10075000C90108958091F4039091F503891B990BC9
:100760000895CF92DF92EF92FF920F931F93CF9352
:10077000DF937C01CB018A0120916303222389F05E
:10078000EB016B01C40ED51ECC15DD0569F0699136
:10079000D701ED91FC910190F081E02DC701099501
:1007A000F3CF642F0E942103C801DF91CF911F91E5
:1007B0000F91FF90EF90DF90CF900895CF93DF934C
:1007C0001F92CDB7DEB76983209163032223F9F02E
:1007D0002091F203203258F021E030E0FC01338315
:1007E000228390E080E00F90DF91CF910895809177
:1007F000F303E82FF0E0ED5BFC4F998190838F5F6E
:100800008093F3038093F20381E090E0ECCF61E00A
:10081000CE0101960E942103F7CF90E080E0089579
:10082000E091010184E0E89FF0011124E85FFE4FB0
:10083000608171818281938129E096958795779572
:1008400067952A95D1F733E0660F771F881F991FA8
:100850003A95D1F708958F929F92AF92BF920F93DE
:100860001F93CF93DF93CDB7DEB7A1970FB6F89460
:10087000DEBF0FBECDBF19A2423008F44AE08E01A0
:100880000F5D1F4F842E912CB12CA12CA50194013A
:100890000E944F20E62FB901CA01EA3044F5E05D1D
:1008A000D801EE938D01232B242B252B79F790E093
:1008B00080E0109769F0FD0101900020E9F7319781
:1008C000AF014A1B5B0BBD018FE794E00E94F3026E
:1008D000A1960FB6F894DEBF0FBECDBFDF91CF91CA
:1008E0001F910F91BF90AF909F908F900895E95CFA
:1008F000D7CF009769F0FC0101900020E9F731970C
:10090000AF01481B590BBC018FE794E00C94F30234
:1009100090E080E00895EF92FF920F931F93CF93A2
:10092000DF937C018C01CAE0D0E0CE010E94D61B8F
:10093000F80181938F012196CB31D105B1F7C70121
:10094000DF91CF911F910F91FF90EF900895CF927B
:10095000DF92EF92FF920F931F93CF93DF9300D01C
:1009600000D0CDB7DEB794E0899F700111248701D4
:10097000065A1F4FFE0131966F01FEE5EF0EF11C86
:10098000C8010E94D61BF60181936F010F5F1F4FB4
:10099000E016F106A9F769817A818B819C810F901D
:1009A0000F900F900F90DF91CF911F910F91FF90BB
:1009B000EF90DF90CF9008950C94D61BCF93DF93E8
:1009C000EC0160E08E810E949C0161E08E810E94BA
:1009D0009C0160E08E810E949C018BE891E0019770
:1009E000F1F7DF91CF910895CF92DF92EF92FF92CE
:1009F0000F931F93CF93DF936C017C0187E0E80E88
:100A0000F11CD0E0C0E0062F10E0B8010C2E02C0AF
:100A1000759567950A94E2F76170F70181917F01FE
:100A20000E949C012196C430D10579F7C601DF915F
:100A3000CF911F910F91FF90EF90DF90CF900C948A
:100A4000DE04CF92DF92EF92FF920F931F93CF932A
:100A5000DF93EC01F62E642F8C810E949C018D8126
:100A60008F3F19F060E00E949C010F2D10E08F85F0
:100A700084FF25C06E0187E0C80ED11CF12CE12C4B
:100A8000B8010E2C02C0759567950A94E2F7617063
:100A9000F60181916F010E949C01FFEFEF1AFF0A9E
:100AA00088E0E816F10461F7CE01DF91CF911F9144
:100AB0000F91FF90EF90DF90CF900C94DE04B8017F
:100AC00084E0759567958A95E1F7CE010E94F4045C
:100AD0006F2DCE01DF91CF911F910F91FF90EF907D
:100AE000DF90CF900C94F40440E0682F8FE794E0FF
:100AF0000C94210581E00E9474058BE39FE101972E
:100B0000F1F70895CF93DF93823029F490918E040A
:100B1000986090938E04809392041092930480E4E2
:100B20008093940480E18093950480E580939604FB
:100B300061E0809183040E94CA01809184048F3F08
:100B400019F061E00E94CA0161E0809185040E9471
:100B5000CA01CFE7D4E09E012F57344080918E0424
:100B600084FD0BC084E090E021962817390744F4F7
:100B700061E08E810E94CA01EECF88E090E0F4CF60
:100B80008BE39DE00197F1F760E0809183040E9480
:100B90009C0160E0809185040E949C018091840406
:100BA0008F3F19F060E00E949C0180918E0484FDCB
:100BB00034C063E08FE794E00E94F404CBE4D6E411
:100BC000CE010197F1F763E08FE794E00E94F4040F
:100BD0002197F1F763E08FE794E00E94F40483E546
:100BE00092E00197F1F762E08FE794E00E94F4044D
:100BF00080918E0480620E94740584E080938F044B
:100C00008CE00E9474050E947A0582E08093900433
:100C100086E0DF91CF910C94740580620E94740588
:100C20008BE496E40197F1F780918E0480620E9434
:100C3000740583E592E00197F1F780918E0480625C
:100C40000E947405D5CF90919204691710F06FEF50
:100C5000690FE62FF0E0E158FB4F9489890F806817
:100C60000C94740541E00E94210581E090E0089514
:100C7000CF92DF92EF92FF9297FF18C06B017C0139
:100C800041E06DE28FE794E00E9421056627772717
:100C9000CB016C197D098E099F094AE00E942B0443
:100CA0000196FF90EF90DF90CF9008954AE0FF907B
:100CB000EF90DF90CF900C942B0485ED8093BC00D7
:100CC0008091F7039091F803A091F903B091FA0392
:100CD0000796A11DB11D23E0B695A7959795879519
:100CE0002A95D1F72091BC0024FD03C01092C803BF
:100CF00008954091F7035091F8036091F9037091C2
:100D0000FA03452B462B472B69F30097A105B10544
:100D100041F02AE22A95F1F700C00197A109B10933
:100D2000E1CF8091F6030C946603BF92CF92DF92DD
:100D3000EF92FF920F931F93CF93DF93CDB7DEB760
:100D40002A970FB6F894DEBF0FBECDBFB82E8091A4
:100D50000201C82E843010F043E0C42E24EAE22EB3
:100D600021E0F22E38E0D32E833030F085EAE82EF1
:100D700081E0F82E99E0D92E609115047091160447
:100D800080911704909118040E94511D20E034E2D4
:100D900044E759E40E94A71C8E010F5F1F4F2C2DC2
:100DA0004D2D0E9481196B2D84E00E942306C801FD
:100DB0000E947904C7010E9479042A960FB6F8941C
:100DC000DEBF0FBECDBFDF91CF911F910F91FF907E
:100DD000EF90DF90CF90BF9008958F929F92AF9247
:100DE000BF92CF92DF92EF92FF920E9410046B01AC
:100DF0007C0160910201643008F063E070E071955D
:100E000061957109072E000C880B990B0E94511DEA
:100E10009B01AC0160E070E080E291E40E94231E3F
:100E20004B015C01C701B6010E944F1D20E034E276
:100E300044E759E40E94A71C9B01AC01C501B40121
:100E40000E94A71C0E94901C0E94201D862FFF90CC
:100E5000EF90DF90CF90BF90AF909F908F900895CC
:100E60008F929F92AF92BF92CF92DF92EF92FF92BA
:100E70000F931F93CF93DF934B015C010E941004EB
:100E80006B017C010E944F1D8B01D82FC92F94014B
:100E9000A5010E941E1E1816BCF0AFEFBFE7A70108
:100EA00096010E9496200E944F1D8B01D82FC92FBA
:100EB0009B01482F592FB401C5010E941E1E181610
:100EC0001CF08401DA2DCB2D0E94ED06A82FB0E096
:100ED000A70196010E9496206B017C010E944F1D84
:100EE0009B01AC01B8018D2F9C2F0E94A71C4B01C8
:100EF0005C0120E030E0A9010E941E1E20E030E0ED
:100F000040E05FE387FD19C0C501B4010E94241CC5
:100F10000E94191D9B01AC01C701B6010E942B2044
:100F2000DF91CF911F910F91FF90EF90DF90CF90C5
:100F3000BF90AF909F908F900895C501B4010E941B
:100F4000231CE6CF4F925F926F927F928F929F9277
:100F5000AF92BF92CF92DF92EF92FF92CF93DF9347
:100F60008150873068F4E82FF0E0E754F84F0C9494
:100F70009020E407EE070B089F09290A120A350A98
:100F80000E947A058FEC91E00E94790487E093E05B
:100F90000E9479048BED91E00E94790461E080E089
:100FA0000E94230680EE91E0DF91CF91FF90EF90B9
:100FB000DF90CF90BF90AF909F908F907F906F9079
:100FC0005F904F900C94790480E00E94950661E058
:100FD00080E00E94230683E294E0E6CF809119042A
:100FE000811107C061E00E9423068FEE91E00E940C
:100FF000790481E00E949506DF91CF91FF90EF90F8
:10100000DF90CF90BF90AF909F908F907F906F9028
:101010005F904F90089580918F048D7F80938F040F
:1010200088600E9474050E947A0580915B04882381
:10103000E1F060E080E00E94230684EF91E00E94EE
:10104000790461E080E00E942306809146048130AB
:1010500049F028F0823081F687E192E0A5CF8EEF4B
:1010600091E0A2CF8DE092E09FCF80914704811163
:101070004DC080914604823021F140F48823B1F0C4
:10108000813009F0B9CF89E392E012C0833021F1B9
:10109000843009F0B1CF84EF91E00E94790461E0DF
:1010A00080E00E94230682E792E07ECF80E292E019
:1010B0000E94790461E080E00E9423068CE292E0C5
:1010C00073CF85E492E00E94790461E080E00E94A1
:1010D000230682E592E068CF8EE592E00E947904D3
:1010E00061E080E00E94230680914504882389F313
:1010F0008FE692E00E94790480910604811103C07A
:1011000082E891E051CF8EE791E04ECF813009F037
:1011100079C080914604813009F451C030F08230AA
:1011200009F06ACF8CE992E0B8CF81E892E00E94A2
:10113000790461E080E00E942306809145048823C1
:1011400041F2C091420328E0C29FE0011124CF5D2B
:10115000DE4F688179818A819B810E9430074B0133
:101160005C016C817D818E819F810E9430072B0103
:101170003C018FE692E00E94790480E4C82E82E46C
:10118000D82E8FE0E82EF12CC501B401A7019601FD
:101190000E947120CA01B9010E94380680E992E0DC
:1011A0000E947904C301B201A70196010E94712037
:1011B000CA01B9010E94380684EA91E0F5CE82E9BD
:1011C00092E00E94790461E080E00E942306809111
:1011D0004504882309F47DCF8FE692E00E947904CC
:1011E0006091020170E090E080E04AE00E942B04F0
:1011F00080910201813019F08FE891E0D5CE86E828
:1012000091E0D2CE823009F0F7CE80914604823050
:1012100009F453C0E8F4882311F1813009F0ECCED1
:101220008AEB92E00E94790461E080E00E9423064C
:1012300080914504882309F44CCF8FE692E00E9408
:101240007904809101018823A9F181EA91E0ACCE73
:10125000833009F44DC0843009F464CFCDCE89EADF
:1012600092E00E94790461E080E00E942306809170
:101270004504882309F42DCF85EB92E00E94790480
:10128000E0917E04F0E0E658FE4F608170E090E06F
:1012900080E040E1DF91CF91FF90EF90DF90CF9021
:1012A000BF90AF909F908F907F906F905F904F9086
:1012B0000C942B0489E991E077CE89EC92E00E94AE
:1012C000790461E080E00E94230680914504882330
:1012D00009F4FFCE8FE692E00E9479048091060126
:1012E000811103C089EA91E05FCE8DEE92E05CCE81
:1012F00085ED92E00E94790461E080E00E9423067F
:1013000080914504882309F4E4CE8FE692E00E94A0
:10131000790480910501813061F040F0823061F004
:10132000833009F069CE82EF92E03ECE82EE92E009
:101330003BCE8AEE92E038CE85EF92E035CE0E9429
:101340007A0585E492E00E94790461E080E00E94E1
:10135000230684E394E00E94790461E080914103D4
:101360000E94230680918F04982F926090938F049F
:101370008A60DF91CF91FF90EF90DF90CF90BF9088
:10138000AF909F908F907F906F905F904F900C9454
:1013900074050E94AA02C0903D03D0903E03E090E5
:1013A0003F03F09040039B01AC012C193D094E090D
:1013B0005F0969017A013AEFC316D104E104F1042F
:1013C00008F41ACE60933D0370933E0380933F036D
:1013D0009093400383E093E00E94790460E0809161
:1013E0003C030E94230680910001811118C081EB0B
:1013F00091E00E947904909100018FEF911181E0BA
:1014000020913C03820F80933C03882319F08330A2
:1014100009F0F2CD81E0982790930001EDCD8EEA9E
:1014200091E0E7CF80910704882381F0DF91CF918D
:10143000FF90EF90DF90CF90BF90AF909F908F90F4
:101440007F906F905F904F900C947A0581E00E949E
:10145000A20760E080E00E94230680915C0488235C
:1014600009F497CF8DEF92E09FCD61E086E00E9476
:101470009C010E947A058091FC03811113C085ECC8
:1014800091E00E94790461E080E00E94230680914F
:10149000FC03882351F089E093E00E947904609175
:1014A0007D04F4CE84EB91E0ECCF86E193E07CCD3B
:1014B0002F923F924F925F926F927F928F929F9264
:1014C000AF92BF92CF92DF92EF92FF920F931F9352
:1014D000CF93DF9300D01F92CDB7DEB7D82EF62E74
:1014E000042FE52E2B83862F880F89831AE088240A
:1014F0008A9485EE982E95ECC92EA22EB12C922FAF
:1015000091509A83DD2009F4F0C00E9453022B0110
:101510003C018091C803811165C0E1E0E093C803FC
:10152000E093CA038092C7031092EC03FA81F09310
:10153000EB03E093ED038091ED039981892B809378
:10154000ED038091C903813009F08BC01092C9036B
:101550000E9453022B013C018091ED038093BB005C
:101560008091F7039091F803A091F903B091FA03E9
:10157000892B8A2B8B2BA1F00E9453022091F70319
:101580003091F8034091F9035091FA0364197509F9
:1015900086099709261737074807590708F443C0F3
:1015A0008091BC0083FDD8CFC092BC000E94530242
:1015B0002B013C018091C803813009F455C0809112
:1015C000EC03EB818E1708F071C08091EC03EBEC1B
:1015D000F3E0A4E6B3E090E0981751F121912D9348
:1015E0009F5FFACF8091F7039091F803A091F903E0
:1015F000B091FA03892B8A2B8B2B09F48ACF0E9496
:1016000053022091F7033091F8034091F903509170
:10161000FA036419750986099709261737074807D9
:10162000590708F076CF8091F6030E94660380E0A8
:101630001092F5038093F403FB81F81339C00983FA
:10164000C02EDE2C8C2D9981891BEB818E1708F022
:1016500007C181E794E00E949703F60181936F012F
:10166000F1CF9092BC00A2CF8091F7039091F80344
:10167000A091F903B091FA03892B8A2B8B2B09F4E3
:1016800099CF0E9453022091F7033091F8034091C3
:10169000F9035091FA036419750986099709261709
:1016A00037074807590708F085CFBDCF8B818FCF0B
:1016B00062E370E080E090E00E947802115009F04F
:1016C00021CF8091620481112FC160E085E00E94EA
:1016D0009C0187E00E94A20783E00E947301892B8E
:1016E00009F004C10E94B602F7CFF1E0F093630362
:1016F000F0923B031092F3031092F2038B81882344
:1017000039F0A501602F7E2D81E794E00E94B1039E
:101710003090F20390E281E0931508F499C0209094
:101720003B030E9453022B013C018091C8038111AD
:1017300069C0E2E0E093C803F1E0F093CA0380924D
:10174000C7031092EC033092EB03E3E4F3E0ABEC5D
:10175000B3E038129CC01092ED038091ED03220C8F
:10176000282A2092ED038091C903813009F093C0AB
:101770001092C9030E9453022B013C018091ED039A
:101780008093BB008091F7039091F803A091F90337
:10179000B091FA03892B8A2B8B2BA1F00E94530264
:1017A0002091F7033091F8034091F9035091FA0327
:1017B00064197509860997092617370748075907D5
:1017C00008F441C08091BC0083FDD8CFC092BC001A
:1017D0000E9453022B013C018091C803823009F41E
:1017E0005DC08091C7038F3F09F47AC08091C70321
:1017F000803209F477C08091C703803309F474C044
:1018000084E026C08091F7039091F803A091F9033A
:10181000B091FA03892B8A2B8B2B09F486CF0E9477
:1018200053022091F7033091F8034091F90350914E
:10183000FA036419750986099709261737074807B7
:10184000590708F072CF8091F6030E94660385E085
:101850001092F3031092F20310926303811128CFC8
:1018600081E00F900F900F90DF91CF911F910F911A
:10187000FF90EF90DF90CF90BF90AF909F908F90B0
:101880007F906F905F904F903F902F90089591912F
:101890009D938F5F5ECF9092BC009ACF8091F703AB
:1018A0009091F803A091F903B091FA03892B8A2B48
:1018B0008B2B09F491CF0E9453022091F7033091B2
:1018C000F8034091F9035091FA03641975098609E8
:1018D0009709261737074807590708F07DCFB3CF78
:1018E00080E0B6CF82E0B4CF83E0B2CF0E94B602F0
:1018F00083E00E947301892BC9F783E00E94730182
:10190000892B19F40E94B602F8CF60E085E00E94AE
:101910009C0188E198E00FB6F894A8958093600048
:101920000FBE90936000FFCF80E09BCFCF92DF92FD
:10193000EF92FF920E94AA026B017C018091410309
:101940008F30A8F110925604109241031092450472
:1019500010925B041092440440E150E064E374E0B0
:1019600083E294E00E94E12010923304C092570475
:10197000D0925804E0925904F0925A0483E00E94F5
:10198000A2078CE2C80E81E0D81EE11CF11CC092B7
:101990005204D0925304E0925404F092550481E032
:1019A00080935104FF90EF90DF90CF9008958F5F68
:1019B0008093410384E0FF90EF90DF90CF900C94F0
:1019C000A207E0914103F0E0EC5CFB4F2081022E86
:1019D000000C330B20523109A901480F511D87FD1E
:1019E0005A95CA01805A9F4F60E670E00E943B20E2
:1019F000805E808384E00C94A2071092450483E00B
:101A00000C94A20780910501833018F48F5F8093B6
:101A1000050183E00C94A20780910501882319F049
:101A200081508093050183E00C94A2078091060405
:101A300091E089278093060483E00C94A2078091AB
:101A4000060191E089278093060183E00C94A207A8
:101A50008091060191E089278093060183E00C9430
:101A6000A20781E08093010182E08093020183E07C
:101A70000C94A2071092010180910201833018F4A6
:101A800083E08093020183E00C94A20780917E049E
:101A9000833018F48F5F80937E0483E00C94A20758
:101AA00080917E04882319F0815080937E0483E026
:101AB0000C94A20780910201282F30E0909101013F
:101AC000992339F0223031053CF082E006C083E0F2
:101AD00004C023303105DCF78F5F8093020183E07F
:101AE0000C94A20780910201882361F08150990B28
:101AF00020910101222359F022E030E02817390714
:101B00000CF4C9018093020183E00C94A20723E046
:101B100030E0F4CF80914203863018F48F5F8093D9
:101B2000420383E00C94A20780914203882319F0BA
:101B300081508093420383E00C94A20780910604B5
:101B400091E089278093060483E00C94A20780919A
:101B50004704811133C0809146048230E9F030F4AB
:101B6000882361F0813081F083E026C08330C9F1A1
:101B70008430D1F781E080935B040BC010922E0378
:101B800081E080934704F0CF80932E0382E080931E
:101B9000470410924604E8CF1092410381E08093FD
:101BA000560440E150E063E274E084E394E00E9474
:101BB000E1201092440484E00C94A207813059F48F
:101BC00080914604823069F41092470480912E037C
:101BD00080934604C9CF823021F48091460484303A
:101BE00099F381E080934504BFCF80914604823011
:101BF00030F48F5F8093460483E00C94A20708952D
:101C000080914604882331F081508093460483E01C
:101C10000C94A20708958F929F92AF92BF92CF9299
:101C2000DF92EF92FF921F93CF93DF938CE390E0CC
:101C30000E94D61B80934203873018F082E0809385
:101C400042031091420388E0189FE0011124CF5D08
:101C5000DE4F688179818A819B810E9430076B0108
:101C60007C01C0922A03D0922B03E0922C03F092C5
:101C70002D036C817D818E819F810E9430074B01F5
:101C80005C018092260390922703A0922803B092D1
:101C9000290360E070E0CB01173018F4812F0E9417
:101CA000A7046C157D058E059F0558F086169706CE
:101CB000A806B90630F00E94511D0E9430076B0142
:101CC0007C01C0921504D0921604E0921704F092A1
:101CD000180488E290E00E94DC04843010F48093C1
:101CE000020180E590E00E94DC04843008F081E08D
:101CF00080930701E82FF0E0E658FE4F8081809343
:101D00007D0486E490E00E94DC04811181E08093F0
:101D1000010182E390E00E94DC0491E0811101C0A6
:101D200090E09093060185E590E00E94DC04843009
:101D300008F083E08093050183E294E00E948B0425
:101D4000109233048AE190E00E94DC04E3E2F4E0C4
:101D500023E334E0919190322CF02E173F07D1F716
:101D6000882381F040E150E060E171E083E294E09B
:101D70000E94E12044E050E060E270E08FE294E0F5
:101D80000E94CC208EE190E00E94DC0491E0811161
:101D900001C090E090930604DF91CF911F91FF90D6
:101DA000EF90DF90CF90BF90AF909F908F9008956D
:101DB0000E940B0E60911504709116048091170417
:101DC000909118040E94511D0E94300760931504E1
:101DD00070931604809317049093180410925B0478
:101DE000109262041092470481E00C94A2074F9273
:101DF0005F926F927F928F929F92AF92BF92CF929B
:101E0000DF92EF92FF921F93CF93DF93982E5B01A7
:101E1000142FE9010E94AA026B017C01F5019920AF
:101E200009F4DEC0808181112CC0C0923703D092AA
:101E30003803E0923903F0923A03C0923303D09210
:101E40003403E0923503F0923603C0922F03D09210
:101E50003003E0923103F092320381E08083812FDE
:101E6000FE01DF91CF911F91FF90EF90DF90CF9017
:101E7000BF90AF909F908F907F906F905F904F90AA
:101E800009948091370390913803A0913903B09160
:101E90003A0346015701881A990AAA0ABB0A809197
:101EA0001904882309F468C0F8EE8F16F3E09F0642
:101EB000A104B10408F450C00E94ED06782E0E94DF
:101EC00010049B01AC01A72DB0E00E9496200E9457
:101ED0004F1D20E030E04AEF53E40E94A71C2B0185
:101EE0003C01C501B401685E73408109910928EE87
:101EF00033E040E050E00E944F20CA01B9010E9447
:101F00004F1D23E333E343E35FE30E94241C9B0163
:101F1000AC01C301B2010E94A71C0E94201D809049
:101F2000330390903403A0903503B0903603A7019B
:101F30009601281939094A095B0949015A0186168F
:101F40009706A806B90640F0809156049091620465
:101F50009923F1F081111EC0DF91CF911F91FF9065
:101F6000EF90DF90CF90BF90AF909F908F907F9039
:101F70006F905F904F90089528EE821623E09206AE
:101F8000A104B10448F360E570E080E090E0C7CFC1
:101F90008823A9F080912F0390913003A091310301
:101FA000B0913203A7019601281B390B4A0B5B0B3A
:101FB000DA01C901883C9105A105B10568F2C0921A
:101FC0003303D0923403E0923503F0923603C0928B
:101FD0002F03D0923003E0923103F09232033FCFCF
:101FE0001082BACF4F925F926F927F928F929F92A0
:101FF000AF92BF92CF92DF92EF92FF92CF93DF9397
:1020000000D000D000D0CDB7DEB78D83C0902603BE
:10201000D0902703E0902803F090290380902A03B2
:1020200090902B03A0902C03B0902D038091190465
:102030008823E9F18091150490911604A09117046A
:10204000B091180489839A83AB83BC830E94ED0608
:102050008E830E9410049B01AC01260137014818B1
:1020600059086A087B089E81A92FB0E00E9496203B
:102070009B01AC01421653066406750610F4A301D9
:1020800092018D81A82F880FBB0B0E94A12049804F
:102090005A806B807C80460E571E681E791E4092C7
:1020A00015045092160460921704709218048091DF
:1020B000150490911604A0911704B0911804881586
:1020C0009905AA05BB0550F1C816D906EA06FB0614
:1020D00010F4D501C4018093150490931604A093C5
:1020E0001704B093180482E00E94A20781E0809355
:1020F000190426960FB6F894DEBF0FBECDBFDF9150
:10210000CF91FF90EF90DF90CF90BF90AF909F90D6
:102110008F907F906F905F904F900895D701C60188
:10212000DACFFF920F931F93CF93DF93EC01F62E3C
:1021300008811981C8010E94D61BF81621F06F2D65
:10214000C8010E94DE1BCE01DF91CF911F910F913C
:10215000FF900895CF92DF92EF92FF920F931F931B
:10216000CF93DF93CDB7DEB72A970FB6F894DEBFD3
:102170000FBECDBFC0901504D0901604E090170498
:10218000F09018048091110490911204A09113040E
:10219000B0911404C816D906EA06FB0629F480910A
:1021A0006204882309F469C00E9410049B01AC01F9
:1021B000C701B6010E944F203D832E838EEC8F8392
:1021C000188624E0AE014B5F5F4F60917D0480E094
:1021D0000E94580A882309F450C040911504509178
:1021E000160460911704709118048091420349838A
:1021F0005A836B837C839091FD03992359F1873037
:1022000048F50091110410911204209113043091AB
:1022100014044017510762077307E1F094E0899FA7
:10222000800111247801EAE5EE0EF11CCE01019641
:102230006C01025A1F4FFA86E986F60161916F011F
:10224000CE0109960E949110FFEFEF1AFF0AE016E7
:10225000F10689F78091150490911604A091170456
:10226000B09118048093110490931204A093130466
:10227000B093140481E080935D042A960FB6F8941D
:10228000DEBF0FBECDBFDF91CF911F910F91FF90A9
:10229000EF90DF90CF9008954F925F926F927F9270
:1022A000BF92CF92DF92EF92FF920F931F93CF9343
:1022B000DF93CDB7DEB763970FB6F894DEBF0FBEDE
:1022C000CDBF80914604811129C1809156048111AE
:1022D00037C040E150E064E374E083E294E00E94A0
:1022E000E1201092330483E2E82E84E0F82E83E3A9
:1022F00094E0F701219120320CF421C18E179F0741
:10230000C9F7CE0101960E948B0441E150E0BE0165
:102310006F5F7F4F83E294E00E94D320892B81F08E
:102320000AE010E01B8B0A8BF70161917F01CE015F
:1023300042960E9491100F5F1F4F0B31110591F7CC
:1023400010910701E0917E041E17B9F0F0E0E65805
:10235000FE4F20E050E040E0608180E00E94580A9B
:10236000882309F4B3C0E0917E04E0930701F0E014
:10237000E658FE4F808180937D04609142038CE398
:1023800090E09A838983CE0101960E94911060911A
:10239000020188E290E09A838983CE0101960E942F
:1023A00091106091070180E590E09A838983CE01C6
:1023B00001960E9491106091010186E490E09A8359
:1023C0008983CE0101960E9491106091060182E3FB
:1023D00090E09A838983CE0101960E9491106091CA
:1023E000050185E590E09A838983CE0101960E94DC
:1023F0009110609106048EE190E09A838983CE016A
:1024000001960E949110B090420328E0B29E800194
:1024100011240F5D1E4FF8016081718182819381CB
:102420000E9430076B017C01C0922A03D0922B03DB
:10243000E0922C03F0922D03F8016481758186816E
:1024400097810E9430072B013C0140922603509255
:1024500027036092280370922903F6E060E070E0A1
:10246000CB01FB1518F08B2D0E94A7046C157D0580
:102470008E059F0558F0461657066806790630F017
:102480000E94511D0E9430076B017C01C09215040F
:10249000D0921604E0921704F09218040E94AA1039
:1024A0000E94D80E63960FB6F894DEBF0FBECDBF64
:1024B000DF91CF911F910F91FF90EF90DF90CF9020
:1024C000BF907F906F905F904F9008951093070199
:1024D000E12FF0E0E658FE4F808180937D0481E09B
:1024E0008093FC0387E00E94A2071092FC030E94E5
:1024F000AA026B017C010E94AA026C197D098E0957
:102500009F09643C79408105910518F40E94B60248
:10251000F2CF60E085E00E949C012FCF813021F452
:1025200085E00E94A207BCCF823009F0BBCF109299
:102530005B041092460483E00E94A207B3CF40E1FF
:1025400050E060E171E083E294E00E94E12044E029
:1025500050E060E270E08FE294E00E94CC20D1CEA7
:102560001F920F920FB60F9211242F933F938F93C8
:102570009F93AF93BF938091640490916504A09161
:102580006604B09167043091630423E0230F2D3774
:1025900058F50196A11DB11D209363048093640436
:1025A00090936504A0936604B093670480916804D7
:1025B00090916904A0916A04B0916B040196A11DE9
:1025C000B11D8093680490936904A0936A04B0934A
:1025D0006B04BF91AF919F918F913F912F910F907D
:1025E0000FBE0F901F90189526E8230F0296A11D8D
:1025F000B11DD2CF1F920F920FB60F9211242F93BD
:102600003F934F935F936F937F938F939F93AF937A
:10261000BF93EF93FF938091B900887F803609F4D0
:102620004AC0F0F5883209F4A7C018F5803109F4E2
:102630009BC0B8F4882309F4F9C0883009F494C029
:10264000FF91EF91BF91AF919F918F917F916F918A
:102650005F914F913F912F910F900FBE0F901F9060
:102660001895883109F488C0803251F78093C703E8
:1026700014C0803409F49DC040F48033B9F388332A
:10268000F9F68093C70385ECB0C0803509F485C0A6
:10269000883509F496C0883499F60E945D06D0CF3B
:1026A000883909F48CC038F5883729F050F4883619
:1026B00011F0803729F683E08093C8031092C60397
:1026C00057C0883809F47BC0803919F0803809F088
:1026D000B7CF8091C603803208F071C0E091C60385
:1026E00081E08E0F8093C6038091BB00F0E0EA5535
:1026F000FC4F80833DC0803B39F0E0F4803A09F420
:1027000079C0883A09F09CCF84E08093C803109286
:10271000A5031092A403E091F003F091F103099551
:102720008091A40381110FC081E08093A4031092D3
:10273000840309C0803C09F4A6CF883C09F4A3CFE8
:10274000883B09F07DCFE091A50381E08E0F809357
:10275000A503F0E0EC57FC4F80818093BB00909183
:10276000A5038091A40329C08091ED038093BB0051
:1027700085EC8093BC0064CF9091EC038091EB03D7
:10278000981758F5E091EC0381E08E0F8093EC03ED
:10279000F0E0E553FC4F8081E9CFE091EC0381E06C
:1027A0008E0F8093EC038091BB00F0E0E553FC4F6B
:1027B00080839091EC038091EB039817C8F285E831
:1027C000D8CFE091EC0381E08E0F8093EC038091F1
:1027D000BB00F0E0E553FC4F80838091CA03811178
:1027E0005CCF81E08093C90384EA8093BC0010929F
:1027F000C80326CF85EC8093BC001092C80380915B
:10280000C603803230F4E091C603F0E0EA55FC4F95
:1028100010826091C60370E0E091EE03F091EF0347
:1028200086EA93E009951092C6030ACF1092C70377
:1028300034CFE1E7F4E01382128288EE93E0A0E067
:10284000B0E084839583A683B78380E691E091838B
:102850008083EFE7F4E01382128282E791E09183B4
:10286000808388E084838FEF858389E086838AE094
:1028700087838BE080878CE081878DE08287138659
:10288000148615861686178681E00E948205E091DF
:102890000701E0937E04F0E0E658FE4F80818093CC
:1028A0007D040895CF93DF9300D01F92CDB7DEB79C
:1028B000789484B5826084BD84B5816084BD85B51B
:1028C000826085BD85B5816085BD80916E00816027
:1028D00080936E00109281008091810082608093CD
:1028E00081008091810081608093810080918000CF
:1028F0008160809380008091B10084608093B100FA
:102900008091B00081608093B00080917A008460F3
:1029100080937A0080917A00826080937A0080911F
:102920007A00816080937A0080917A008068809339
:102930007A001092C1000FB6F894A89580916000BB
:10294000886180936000109260000FBE62E082E0B8
:102950000E94CA0162E083E00E94CA0162E084E052
:102960000E94CA0161E085E00E94CA0161E085E041
:102970000E94CA0161E086E00E94CA011092F5033C
:102980001092F4031092F3031092F2030E94480392
:1029900081EF92E09093F1038093F00382EF92E055
:1029A0009093EF038093EE0382EF8093B800109230
:1029B000FB0388E893E1A0E0B0E08093F7039093F5
:1029C000F803A093F903B093FA0311E01093F60310
:1029D00082E00E9482058FEF90E00E94FB0180E080
:1029E0000E94A20764EC79E080E090E00E94780207
:1029F00083E00E947301892BD9F41093070181E6CB
:102A000080937D0480E590E09A83898361E0CE0124
:102A100001960E9491101093FC0387E00E94A20788
:102A20001092FC0364EC79E080E090E00E94780270
:102A30000E940B0E0E94AA1081E00E94A20785E06E
:102A40000E94A20781E08093FD032EEC422E5524C4
:102A50005A94652C752C30E0A32E30E0B32E11E093
:102A600099249A9484E2882E90E2292E0E94AA0248
:102A70006B017C0182E00E94730133243394892B23
:102A800009F0312C3092220483E00E94730101E0AE
:102A9000892B09F000E00093500484E00E94730148
:102AA00021E0892B09F020E020932004432D400FE2
:102AB0005527551FCA01820F911D02970CF4EDC0D6
:102AC000109220041092500410922204C092FE032F
:102AD000D092FF03E0920004F09201048091190467
:102AE000811108C080916204811104C080915C044E
:102AF0008111EDC0109210048091620481115CC0BC
:102B00003090220431100CC080915004811108C013
:102B100080912004811104C08091040181114CC076
:102B20000E94AA026B017C0122EF3FE04FEF61E2BD
:102B300074E0832D0E94F70E22EF3FE041E06FE149
:102B400074E0809120040E94F70E8091220481118C
:102B500004C080912004882351F0C0921A04D092BE
:102B60001B04E0921C04F0921D0410920401809159
:102B70001904882309F4A0C180915004882309F422
:102B80009BC10E94AA026B017C010E94AA101092B4
:102B900019049CE2C90E91E0D91EE11CF11CC092FF
:102BA0005204D0925304E0925404F092550481E010
:102BB0000E94A207109304010E94AA026B017C01EB
:102BC00020916204222309F4A2C180915B04811147
:102BD0009EC14091570450915804609159047091DE
:102BE0005A04D701C601841B950BA60BB70BAC0189
:102BF000BD0141325E446105710508F488C110923F
:102C0000560485E00E94A2070E94D80EACE2CA0ECC
:102C1000A1E0DA1EE11CF11CC0925204D0925304D0
:102C2000E0925404F09255041093510480915D0495
:102C3000882309F4CAC221E0AE014D5F5F4F609165
:102C40007D0481E00E94580A882309F4BEC28B816A
:102C500086FB882780F980935C048091620481114F
:102C600003C085E00E94A20780915C0460E0882395
:102C700009F4A8C280910601882309F493C28EEC5E
:102C8000898380910501813009F4D3C208F48CC294
:102C9000823009F4D1C28A8288C28091FE03909169
:102CA000FF03A0910004B0910104C81AD90AEA0AEE
:102CB000FB0A52E3C516D104E104F10408F00ECF7B
:102CC00010922004109250041092220407CF0E9408
:102CD000AA026B017C0180911004811119C083E06C
:102CE0000E947301892B51F482E00E947301892BA9
:102CF00029F084E00E947301892B89F71093100456
:102D0000C0920C04D0920D04E0920E04F0920F04D5
:102D100020915004222309F4BCC040910804509132
:102D2000090460910A0470910B0441155105610575
:102D3000710509F08DC0C0920804D0920904E09298
:102D40000A04F0920B0490912204911106C0211103
:102D500004C080912004882389F1909203018FEFB1
:102D600090E00E94FB01809107048823F9F0109203
:102D7000070486E00E94A2078091220402E08111EC
:102D800006C08091200404E0811101C003E0802F7F
:102D90000E947301892BD9F3033009F488C00430F1
:102DA00009F480C01092210410922204C0920C04F5
:102DB000D0920D04E0920E04F0920F04809106046C
:102DC000882309F499CE80910C0490910D04A09170
:102DD0000E04B0910F04A7019601281B390B4A0B72
:102DE0005B0BDA01C901853C9940A105B10508F4E6
:102DF00083CE8091070481117FCE209103012F3172
:102E000008F47ACE409102045091030460910404C6
:102E100070910504D701C601841B950BA60BB70B57
:102E2000AC01BD01473051056105710508F464CE60
:102E30008FEF820F8093030190E00E94FB01C0920C
:102E40000204D0920304E0920404F092050454CEEC
:102E5000D701C601841B950BA60BB70BAC01BD01B6
:102E60004D3D55406105710508F46DCF9091070403
:102E7000911169CF90E080E00E94FB01109307045C
:102E800086E00E94A20783E00E947301892BD9F398
:102E900033CE109208041092090410920A04109282
:102EA0000B0451CF10921F04109220047FCF109278
:102EB0001E04109250047ACF80911A0490911B0442
:102EC000A0911C04B0911D04C81AD90AEA0AFB0A91
:102ED000A9E8CA16A3E1DA06E104F10408F46CCE0D
:102EE0001092190480910401811166CE8091110421
:102EF00090911204A0911304B091140480931504CE
:102F000090931604A0931704B093180450CE8091A8
:102F10005104882339F080915004811187CE10929A
:102F2000510484CE8091560421112BC081117ECE94
:102F30008091520490915304A0915404B09155048F
:102F4000C816D906EA06FB0608F470CE80914C0438
:102F500090914D04A0914E04B0914F0420915004E3
:102F6000222309F46BC1892B8A2B8B2B09F05ECEAF
:102F7000C0924C04D0924D04E0924E04F0924F0463
:102F800055CE8823E1F021EE3CE04FEF61E274E0A2
:102F9000809122040E94F70E21EE3CE041E06FE1B7
:102FA00074E0809120040E94F70E26E93CE040E0A6
:102FB0006EE174E0809150040E94F70E37CE80914C
:102FC0005B048823E1F020E03EE04FEF61E274E033
:102FD000809122040E94F70E25EF3DE041E06FE171
:102FE00074E0809120040E94F70E2CE431E140E06F
:102FF0006EE174E0809150040E94F70E79C1E09177
:1030000047048091450481114DC0F0E0E75AFE4F1E
:10301000308080912204882309F43EC080912104ED
:1030200081110CC01093210480914604882319F06B
:1030300081508093460483E00E94A207809120047F
:10304000882369F180911F04811110C010931F041F
:1030500080914604432D4150550B841715061CF4EE
:103060008F5F8093460483E00E94A20727EA3DE039
:1030700040E06EE174E0809150040E94F70E809170
:103080002204811135C180912004811131C18091C8
:10309000500481112DC1CACD10922104CFCF1092BE
:1030A0001F04E4CFE11116C080914604833091F4EF
:1030B00026E13DE040E061E274E0809122040E945C
:1030C000F70E2EE93DE040E06FE174E080912004CE
:1030D0000E94F70E80914704813011F580914604DB
:1030E000882329F0813081F02DEF3CE0C1CF24E925
:1030F0003DE04FEF61E274E0809122040E94F70E00
:103100002AE83DE041E047C022E73DE04FEF61E2C1
:1031100074E0809122040E94F70E2AE53DE0F2CF90
:10312000823011F7809146048130E9F080F08230DE
:1031300031F18330C9F62CE03DE04FEF61E274E0FD
:10314000809122040E94F70E22E03DE0DBCF20E5D3
:103150003DE04FEF61E274E0809122040E94F70E9F
:1031600026E43DE0CFCF2AE33DE04FEF61E274E09B
:10317000809122040E94F70E21E33DE0C3CF28E2B4
:103180003DE040E061E274E0809122040E94F70E8D
:103190002FE13DE040E06FE174E0809120040E9467
:1031A000F70EA2CF8EE86CCD1A8222E0AE014F5FFF
:1031B0005F4F60917D0480E00E94580A8111109257
:1031C0005D0461E085E00E949C01809162048111B0
:1031D00029C00E94AA02C0905E04D0905F04E090D3
:1031E0006004F09061049B01AC012C193D094E096B
:1031F0005F0969017A0130EDC31637E0D306E104B7
:10320000F10480F060935E0470935F048093600427
:103210009093610420E050E040E060917D0480E004
:103220000E94580AA114B10409F420CC0E940000A5
:1032300019CC84E08A83B9CF2A82B7CF0097A10541
:10324000B10509F4F3CC10924C0410924D04109285
:103250004E0410924F04A7019601281B390B4A0B0C
:103260005B0BDA01C9018C329140A105B10508F070
:10327000DDCC8091480490914904A0914A04B0911A
:103280004B04A3019201281B390B4A0B5B0BDA019B
:10329000C9018C0D9D1DAE1DBF1DC0924804D0926A
:1032A0004904E0924A04F0924B048A3F9105A1053B
:1032B000B10508F0BBCC1093620410924704109241
:1032C00046041092450410925B048091070180939C
:1032D0007E0440E150E063E274E084E394E00E9405
:1032E000E1201092440483E00E94A207109351044D
:1032F000C0925704D0925804E0925904F0925A04B4
:1033000095CCEF920F931F93CF93DF93E80134E0B6
:1033100047FD34E1042E000C550B57FF03C05195B7
:1033200041955109E32E022F242FAE010E949F19CF
:10333000CE01DF91CF911F910F91EF900895A9E0F9
:10334000B0E0E5EAF9E10C94F21B6A01F22EB02E2E
:10335000102FFBE3AF2EA01608F41BE31F5F012F15
:1033600027E0AE014F5F5F4F0E94FE1ABC018981CA
:10337000982F9970913009F43FC09BE2E1FC04C0A2
:103380009E2D9170E0FC3AC05E2D5071E82FE870E0
:1033900083FF46C084E0911101C083E0EF2DE81B5C
:1033A0008F1508F0E0E0D6018E2F20E2552351F171
:1033B000992329F0D6019C93C60101966C019601D0
:1033C0002D5F3F4FE2FE24C08EE4D6018C9391E442
:1033D00011969C93119712968C93D9018E2F90E29F
:1033E00081111BC0E20FF32FF11D10828EEF9FEFB2
:1033F0002996ECE00C940E1C9DE2C6CF90E2C4CF5F
:103400002D9381508111FCCFCE0ED11CE0E0D0CFA6
:103410008EE6D6018C9391E6DBCF9D938150E0CF71
:10342000482F447082FF3DC084E0911101C083E0C9
:103430008F1510F4EF2DE81BD6018E2F20E25523B7
:1034400009F1992329F0D6019C93C60101966C01DC
:1034500096012D5F3F4FE2FE1BC089E4D6018C939D
:103460008EE411968C93119786E412968C93D90171
:103470008E2F90E2882309F4B5CF9D938150FACF27
:103480002D9381508111FCCFCE0ED11CE0E0D9CF1D
:1034900089E6D6018C938EE611968C93119786E679
:1034A000E4CF9B0177FF02C030E020E0A1E0B0E074
:1034B000911102C0B0E0A0E0F9013196AE0FBF1F3C
:1034C0008B2C912CBB2009F461C05401EFEFAE1A94
:1034D000BE0AAA0DBB1DFA161B0619F014F04F2DDB
:1034E0004A1B511188C0E3FC59C07601A42FB0E2F9
:1034F000A1114FC0C40ED11C992309F45BC040E058
:10350000D6011196F60190836D01552309F448C048
:10351000012F060F9A81582F507184FF03C09133F9
:1035200009F4015010160CF047C0093008F008E00B
:10353000EEE2FE2E5B01A01AB10885019194819400
:1035400091082F3F320729F4D601FC92F6013196FB
:103550006F016217730794F1021713077CF5DB0103
:10356000A21BB30BAA24A394B12CAC0EBD1EAA0DB2
:10357000BB1D11968C9121503109D6011196281549
:103580003905F4F0F60180836D01DBCFB12CA12C5D
:10359000A0CFF701B1937F01A150AACF9111B0CF75
:1035A000D601942F50E302C05D9391509111FCCF4E
:1035B000C40ED11C40E0ACCF01E0BACF80E3DBCF3A
:1035C0006217730731F4963388F4953311F4552359
:1035D00069F0F6018083FD01842F90E2811108C01B
:1035E000A40FB11D1C9290E080E002CF81E3F1CFE7
:1035F00091938150F3CF911183CF8ACF283008F077
:1036000027E03327DA01990F311D87FD916000967D
:103610006105710539F432602E5F3D9330E32A95E0
:10362000E1F708959F3F30F080387105610509F09A
:103630003C5F3C5F3D93913008F08068911DDF93C3
:10364000CF931F930F93FF92EF92192F987F969528
:10365000E92F96959695E90FFF27EC5BFE4F99278A
:103660003327EE24FF24A701E7010590089407946F
:1036700028F4360FE71EF81E491F511D660F771FED
:10368000881F991F0694A1F70590079428F4E70E68
:10369000F81E491F561FC11D770F881F991F661FEF
:1036A0000694A1F70590079428F4F80E491F561FB9
:1036B000C71FD11D880F991F661F771F0694A1F79A
:1036C0000590079420F4490F561FC71FD81F990F64
:1036D000661F771F881F0694A9F7849110951770AD
:1036E00041F0D695C79557954795F794E7941A9565
:1036F000C1F7EAEEF0E06894159015913591659167
:10370000959105907FE27395E118F10A430B560BF2
:10371000C90BD009C0F7E10CF11E431F561FC91F8A
:10372000D01D7EF4703311F48A95E6CFE8940150F1
:1037300030F0080F0AF40027021708F4202F239511
:10374000022F7A3328F079E37D932A95E9F710C0A8
:103750007D932A9589F606949795679537951795E1
:103760001794E118F10A430B560BC90BD00998F0D6
:1037700023957E9173957A3308F070E37C93201340
:10378000B8F77E9170617D9330F0839571E37D93FE
:1037900070E32A95E1F71124EF90FF900F911F91AC
:1037A000CF91DF91992787FD90950895F999FECFE4
:1037B00092BD81BDF89A992780B50895262FF99971
:1037C000FECF1FBA92BD81BD20BD0FB6F894FA9A04
:1037D000F99A0FBE019608952F923F924F925F92F1
:1037E0006F927F928F929F92AF92BF92CF92DF9211
:1037F000EF92FF920F931F93CF93DF93CDB7DEB776
:10380000CA1BDB0B0FB6F894DEBF0FBECDBF099409
:103810002A88398848885F846E847D848C849B8460
:10382000AA84B984C884DF80EE80FD800C811B816E
:10383000AA81B981CE0FD11D0FB6F894DEBF0FBE9D
:10384000CDBFED0108955058BB27AA270E943B1C0D
:103850000C94CC1D0E94BE1D38F00E94C51D20F0A6
:1038600039F49F3F19F426F40C94BB1D0EF4E09537
:10387000E7FB0C948C1DE92F0E94DD1D58F3BA174D
:10388000620773078407950720F079F4A6F50C9476
:10389000171E0EF4E0950B2EBA2FA02D0B01B901C7
:1038A00090010C01CA01A0011124FF27591B99F0B6
:1038B000593F50F4503E68F11A16F040A22F232FC2
:1038C000342F4427585FF3CF469537952795A79512
:1038D000F0405395C9F77EF41F16BA0B620B730BB9
:1038E000840BBAF09150A1F0FF0FBB1F661F771F2A
:1038F000881FC2F70EC0BA0F621F731F841F48F4DF
:10390000879577956795B795F7959E3F08F0B0CF67
:103910009395880F08F09927EE0F9795879508954E
:103920000E94FF1D90F09F3748F4911116F40C94FB
:10393000181E60E070E080E89FE3089526F01B16F3
:10394000611D711D811D0C94921D0C94AD1D0E9472
:10395000BB1C0C94CC1D0E94C51D58F00E94BE1DBE
:1039600040F029F45F3F29F00C948C1D51110C9408
:10397000181E0C94BB1D0E94DD1D68F39923B1F342
:10398000552391F3951B550BBB27AA276217730785
:10399000840738F09F5F5F4F220F331F441FAA1F19
:1039A000A9F335D00E2E3AF0E0E832D091505040D5
:1039B000E695001CCAF72BD0FE2F29D0660F771F83
:1039C000881FBB1F261737074807AB07B0E809F069
:1039D000BB0B802DBF01FF2793585F4F3AF09E3FEE
:1039E000510578F00C948C1D0C94181E5F3FE4F385
:1039F000983ED4F3869577956795B795F7959F5F31
:103A0000C9F7880F911D9695879597F90895E1E07C
:103A1000660F771F881FBB1F621773078407BA07DB
:103A200020F0621B730B840BBA0BEE1F88F7E09536
:103A300008950E94201D6894B1110C94181E0895D9
:103A40000E94E51D88F09F5798F0B92F9927B7512C
:103A5000B0F0E1F0660F771F881F991F1AF0BA9532
:103A6000C9F714C0B13091F00E94171EB1E008955B
:103A70000C94171E672F782F8827B85F39F0B93F4D
:103A8000CCF3869577956795B395D9F73EF49095E5
:103A90008095709561957F4F8F4F9F4F0895E89463
:103AA00009C097FB3EF490958095709561957F4F86
:103AB0008F4F9F4F9923A9F0F92F96E9BB27939534
:103AC000F695879577956795B795F111F8CFFAF444
:103AD000BB0F11F460FF1BC06F5F7F4F8F4F9F4F75
:103AE00016C0882311F096E911C0772321F09EE8D3
:103AF000872F762F05C0662371F096E8862F70E039
:103B000060E02AF09A95660F771F881FDAF7880F12
:103B10009695879597F9089597F99F6780E870E0E3
:103B200060E00895882371F4772321F09850872B63
:103B3000762F07C0662311F499270DC09051862B6C
:103B400070E060E02AF09A95660F771F881FDAF719
:103B5000880F9695879597F908959F3F31F091507A
:103B600020F4879577956795B795880F911D969561
:103B7000879597F908959FEF80EC089500240A94A3
:103B80001616170618060906089500240A94121638
:103B90001306140605060895092E0394000C11F46B
:103BA000882352F0BB0F40F4BF2B11F460FF04C018
:103BB0006F5F7F4F8F4F9F4F089557FD9058440F71
:103BC000551F59F05F3F71F04795880F97FB991F7C
:103BD00061F09F3F79F08795089512161306140639
:103BE000551FF2CF4695F1DF08C0161617061806C6
:103BF000991FF1CF869571056105089408950E947B
:103C0000E51DA0F0BEE7B91788F4BB279F3860F424
:103C10001616B11D672F782F8827985FF7CF8695E6
:103C200077956795B11D93959639C8F30895E894F3
:103C3000BB2766277727CB0197F908950E94AD1E11
:103C400008F48FEF0895FA01EE0FFF1F309621055B
:103C50003105A1F16115710561F48038BFE39B075F
:103C600049F168949038810561F08038BFEF9B0777
:103C700041F099234AF5FF3FE1053105210519F18E
:103C8000E8940894E795D901AA2329F4AB2FBE2F15
:103C9000F85FD0F310C0FF5F70F4A695E0F7F73936
:103CA00050F019F0FF3A38F49F779F930DD00F90A2
:103CB00007FC9058089546F00C94BB1D60E070E03E
:103CC00080E89FE308954FE79F775F934F933F937B
:103CD0002F930E94421F2F913F914F915F910E941D
:103CE000BE1F0C947B1E29F416F00C948C1D0C94B2
:103CF000171E0C94BB1D0E94E51DA8F39638A0F773
:103D000007F80F92E8942BE33AEA48EB5FE70E944A
:103D1000D41F0F920F920F924DB75EB70F920E9471
:103D20008A1FE8E6F0E00E94D11E4F915F91EF916B
:103D3000FF91E595EE1FFF1F49F0FE57E06844270D
:103D4000EE0F441FFA95E1F74195550B0E94041FB1
:103D50000F9007FE0C94F81E0895990F0008550F58
:103D6000AA0BE0E8FEEF16161706E807F907C0F001
:103D700012161306E407F50798F0621B730B840B09
:103D8000950B39F40A2661F0232B242B252B21F4E3
:103D900008950A2609F4A140A6958FEF811D811D83
:103DA0000895DF93CF931F930F93FF92EF92DF92CB
:103DB0007B018C01689406C0DA2EEF010E94D11FAE
:103DC000FE01E894A5912591359145915591A6F371
:103DD000EF010E943B1CFE019701A801DA9469F7EC
:103DE000DF90EF90FF900F911F91CF91DF91089599
:103DF0009B01AC0160E070E080E89FE30C94A71C9D
:103E00000C948C1D0C94AD1D0E94E51DD8F39923D4
:103E1000C9F3940F511DA3F39150504094F059F001
:103E2000882332F0660F771F881F91505040C1F7EA
:103E30009E3F51052CF7880F911D9695879597F910
:103E400008955F3FACF0983E9CF0BB278695779530
:103E50006795B79508F4B1609395C1F7BB0F58F714
:103E600011F460FFE8CF6F5F7F4F8F4F9F4FE3CF1D
:103E70000C94181E16F00C94AD1D0C94BB1D689488
:103E80000C948C1D0E94E51DA8F39923C1F3AEF399
:103E9000DF93CF931F930F93FF92C92FDD278823C2
:103EA0002AF02197660F771F881FDAF720E030E0AD
:103EB00040E85FEB9FE3883920F0803E38F02196A0
:103EC0008F770E94241CE0E9F0E004C00E94241CCB
:103ED000EDEBF0E00E94D11E8B01BE01EC01FB2E48
:103EE0006F5771097595771F880B990B0E94511DAB
:103EF00028E132E741E35FE30E94D11FAF2D980133
:103F0000AE01FF900F911F91CF91DF910E943B1C5A
:103F10000C94CC1DFA01DC01AA0FBB1F9B01AC0164
:103F2000BF5728F4222733274427507820C0B751A1
:103F300090F4AB2F0024469537952795011CA39547
:103F4000D2F3002071F0220F331F441FB395DAF330
:103F50000ED00C94231C61307105A0E88A07B94685
:103F600030F49B01AC01662777278827907830963C
:103F700021F0208331834283538308950E94D11F0F
:103F80000C94CC1D0E94BE1D38F00E94C51D20F06F
:103F9000952311F00C948C1D0C94BB1D11240C94D2
:103FA000181E0E94DD1D70F3959FC1F3950F50E020
:103FB000551F629FF001729FBB27F00DB11D639FDB
:103FC000AA27F00DB11DAA1F649F6627B00DA11D81
:103FD000661F829F2227B00DA11D621F739FB00D27
:103FE000A11D621F839FA00D611D221F749F332797
:103FF000A00D611D231F849F600D211D822F762F30
:104000006A2F11249F5750409AF0F1F088234AF00C
:10401000EE0FFF1FBB1F661F771F881F9150504078
:10402000A9F79E3F510580F00C948C1D0C94181E2E
:104030005F3FE4F3983ED4F3869577956795B795FF
:10404000F795E7959F5FC1F7FE2B880F911D969519
:10405000879597F90895DB018F939F930E9496208F
:10406000BF91AF91A29F800D911DA39F900DB29F14
:10407000900D1124089597FB072E16F4009407D095
:1040800077FD09D00E94A92007FC05D03EF4909549
:1040900081959F4F0895709561957F4F0895A1E296
:1040A0001A2EAA1BBB1BFD010DC0AA1FBB1FEE1FB2
:1040B000FF1FA217B307E407F50720F0A21BB30BFD
:1040C000E40BF50B661F771F881F991F1A9469F779
:1040D00060957095809590959B01AC01BD01CF01D5
:1040E0000895052E97FB1EF400940E94882057FD2A
:1040F00007D00E944F2007FC03D04EF40C94882078
:1041000050954095309521953F4F4F4F5F4F089503
:1041100090958095709561957F4F8F4F9F4F089533
:10412000EE0FFF1F0590F491E02D09940E94BD2031
:10413000A59F900DB49F900DA49F800D911D1124FB
:104140000895B7FF0C9496200E949620821B930B33
:104150000895AA1BBB1B51E107C0AA1FBB1FA617CE
:10416000B70710F0A61BB70B881F991F5A95A9F720
:1041700080959095BC01CD010895A29FB001B39F99
:10418000C001A39F700D811D1124911DB29F700D60
:10419000811D1124911D0895DC0101C06D934150D2
:1041A0005040E0F70895FB01DC014150504030F0F1
:1041B0008D910190801919F40020B9F7881B990B93
:1041C0000895FB01DC014150504048F001900D92F0
:1041D0000020C9F701C01D9241505040E0F70895FA
:0441E000F894FFCF81
:1041E400010102FF01030101006A180000D430003C
:1041F40053746174696F6E204E616D650000000038
:104204000028A07A4CD0248D4C60F5904CB832B57F
:104214004C78F0A54C60FECD4C4054094DD0240D93
:104224004D8845C84DA493D64D0C1DE04D4E844D8C
:104234004E0024744CDAF89A4E0503050000000081
:10424400DE03B1030D048703AA0397038803000068
:1042540000003206F3020D042003606162636F6E96
:1042640020006F66660020646563696D616C0020E0
:10427400646563696D616C7300312E36204D487A34
:1042840000332E32204D487A006C6F7720003E3E7A
:10429400003C3C00493243205341464520444546B6
:1042A40041554C5400493243204552524F5200501C
:1042B4004C4C20436F6E74726F6C0056322E31007A
:1042C40028432932303235204C6F656E69650053BE
:1042D4004554200045584954204D454E55003E2034
:1042E40073617665206368616E676573003E206460
:1042F400697363617264003E2063616E63656C0080
:1043040056434F205355424D454E55005345542076
:10431400746F20656E74657200504C4C2053554286
:104324004D454E550053544154494F4E204E414D36
:10433400450053455420746F2065646974004241FC
:10434400434B4C494748542044494D4D4552003E47
:10435400200053455420746F20636F6E6669726D3C
:10436400004652455155454E43592042414E440062
:104374002D00505245434953494F4E004558495426
:10438400205355424D454E55004932432041444443
:1043940052455353003E203078005854414C204637
:1043A40052455155454E43590043484152474520D3
:1043B40050554D50004F555450555420504F525461
:1043C4005300616C6C206C6F770050322068696711
:1043D400680050322F50352068696768004C4F439D
:1043E4004B2000202020202000726573746F7269B6
:1043F4006E672030780053455420746F20726573C3
:06440400746172740000F7
:00000001FF
