:100000000C9420010C9448010C9448010C94480174
:100010000C9448010C9448010C9448010C9448013C
:100020000C9448010C9448010C9448010C9448012C
:100030000C9448010C9448010C9448010C9448011C
:100040000C94BC120C9448010C9448010C94480187
:100050000C9448010C9448010C9448010C944801FC
:100060000C9406130C94480107634236B79BD8A73B
:100070001A39685618AEBAAB558C1D3CB7CC5763CD
:10008000BD6DEDFD753EF6177231BF000000803F7B
:1000900008000000BE922449123EABAAAA2ABECD97
:1000A000CCCC4C3E00000080BEABAAAAAA3E000009
:1000B0000000BF000000803F000000000008417801
:1000C000D3BB4387D1133D190E3CC3BD4282AD2B38
:1000D0003E68EC8276BED98FE1A93E4C80EFFFBE30
:1000E00001C4FF7F3F000000000000407A10F35A77
:1000F00000A0724E18090010A5D4E80000E8764868
:10010000170000E40B54020000CA9A3B000000E113
:10011000F505000080969800000040420F000000A6
:10012000A08601000000102700000000E803000086
:1001300000006400000000000A0000000000010050
:10014000000000002C76D888DC674F0823DFC1DF71
:10015000AE59E1B1B796E5E3E453C63AE651997674
:1001600096E8E6C28426EB898C9B62ED407C6FFCAE
:10017000EFBC9C9F40F2BAA56FA5F490055A2AF7F0
:100180005C936B6CF9676DC11BFCE0E40D47FEF5F9
:1001900020E6B500D0ED902E030094357705008061
:1001A000841E080000204E0A000000C80C333333C0
:1001B000330F986E12831141EF8D2114893BE65560
:1001C00016CFFEE6DB18D1844B381BF77C1D901D43
:1001D000A4BBE424203284725E228100C9F124ECA5
:1001E000A1E53D2700000000240027002A000000B0
:1001F0000000250028002B0000000000230026003E
:100200002900040404040404040402020202020299
:1002100003030303030301020408102040800102CA
:100220000408102001020408102000000008000249
:100230000100000304070000000000000000251476
:1002400011241FBECFEFD8E0DEBFCDBF13E0A0E08A
:10025000B1E0EAEBF1E402C005900D92A235B107DE
:10026000D9F724E0A2E5B3E001C01D92A33CB20798
:10027000E1F711E0C0E2D1E004C02197FE010E9445
:100280007B20CF31D107C9F70E945E140C94DB208C
:100290000C940000833081F028F4813099F0823092
:1002A000A9F008958730A9F08830C9F08430B1F4FE
:1002B000809180008F7D03C0809180008F77809334
:1002C0008000089584B58F7784BD089584B58F7DAF
:1002D000FBCF8091B0008F778093B000089580911C
:1002E000B0008F7DF9CFCF93DF93282F30E0F90155
:1002F000E65DFD4F8491F901EA5EFD4FD491F9016D
:10030000EE5FFD4FC491CC23A1F081110E944A0100
:10031000EC2FF0E0EE0FFF1FE850FE4FA591B491D7
:10032000EC91ED2381E090E009F480E0DF91CF9142
:10033000089580E090E0FACF1F93CF93DF93282FAA
:1003400030E0F901E65DFD4F8491F901EA5EFD4F71
:10035000D491F901EE5FFD4FC491CC23A9F0162F83
:1003600081110E944A01EC2FF0E0EE0FFF1FE251D5
:10037000FE4FA591B4918FB7F894EC91111108C07C
:10038000D095DE23DC938FBFDF91CF911F9108952D
:10039000DE2BF8CFCF93DF9390E0FC01EA5EFD4FB8
:1003A00024918E5F9D4FFC0184918823D1F090E0D1
:1003B000880F991FFC01EC51FE4FA591B491FC01EF
:1003C000E251FE4FC591D491623071F49FB7F89419
:1003D0003C91822F809583238C93E8812E2B288358
:1003E0009FBFDF91CF9108958FB7F894EC912E2B9A
:1003F0002C938FBFF6CFCF93DF93EC0161E086E0C3
:100400000E94CA01209731F460E086E0DF91CF912D
:100410000C949C01CF3FD10511F461E0F6CFE0E3ED
:10042000F2E0E491E33029F140F4E130B1F0E23060
:10043000D9F0C038D1058CF7E7CFE73021F1E830AB
:1004400051F1E430B1F780918000806280938000A8
:10045000D0938B00C0938A0004C084B5806884BDAB
:10046000C7BDDF91CF91089584B5806284BDC8BDBA
:10047000F8CF80918000806880938000D0938900BD
:10048000C0938800EECF8091B00080688093B00068
:10049000C093B300E6CF8091B00080628093B0003B
:1004A000C093B400DECF3FB7F8948091940490914C
:1004B0009504A0919604B091970426B5A89B05C019
:1004C0002F3F19F00196A11DB11D3FBFBA2FA92FD3
:1004D000982F8827BC01CD01620F711D811D911DD0
:1004E00042E0660F771F881F991F4A95D1F708953C
:1004F0008F929F92AF92BF92CF92DF92EF92FF9234
:100500004B015C010E9453026B017C010E9453026B
:100510006C197D098E099F09683E7340810591051C
:10052000A8F321E0821A9108A108B10888EEC80E4C
:1005300083E0D81EE11CF11C81149104A104B104D4
:1005400029F7FF90EF90DF90CF90BF90AF909F90F2
:100550008F9008952FB7F894609190047091910452
:1005600080919204909193042FBF0895CF92DF92CF
:10057000EF92FF920F931F930E94AA020091990499
:1005800010919A0420919B0430919C046B017C0192
:10059000C01AD10AE20AF30A970186010A3F11053F
:1005A00021053105B8F06093990470939A04809303
:1005B0009B0490939C046091980481E06827609369
:1005C000980485E01F910F91FF90EF90DF90CF90FE
:1005D0000C949C011F910F91FF90EF90DF90CF90B2
:1005E000089508950895AF92BF92CF92DF92EF924F
:1005F000FF920F931F93CF93DF936C017B018B01CD
:10060000040F151FEB015E01AE18BF08C017D1071C
:1006100059F06991D601ED91FC910190F081E02DA6
:10062000C6010995892B79F7C501DF91CF911F91FB
:100630000F91FF90EF90DF90CF90BF90AF90089513
:1006400008952091D003260F3327331F213231051F
:10065000ECF42091F403FC0190E080E0243069F098
:1006600082E00895A091D0032191AC0140555C4FE8
:10067000A40FB52FB11D2C930196861798F3809186
:10068000D003680F6093D00380E0089581E008955F
:100690001092F40381E08093F6031092F50361E079
:1006A00082E10E949C0161E083E10E949C01E9EBF0
:1006B000F0E080818E7F808380818D7F808388E4DD
:1006C0008093B80085E48093BC000895CF93DF93B6
:1006D00091E0909327048823B9F0C091B800D0919D
:1006E000BA008091BC008A7B8093BC0060E082E10C
:1006F0000E949C0160E083E10E949C010E944803EB
:10070000D093BA00C093B800DF91CF9108950895B7
:10071000E091210480912004E81730F4F0E0E057E4
:10072000FC4F808190E008958FEF9FEF08959091A6
:100730002104809120042FEF3FEF981748F4E92F10
:10074000F0E0E057FC4F208130E09F5F9093210460
:10075000C90108958091200490912104891B990B6F
:100760000895CF92DF92EF92FF920F931F93CF9352
:10077000DF937C01CB018A0120918F03222389F032
:10078000EB016B01C40ED51ECC15DD0569F0699136
:10079000D701ED91FC910190F081E02DC701099501
:1007A000F3CF642F0E942103C801DF91CF911F91E5
:1007B0000F91FF90EF90DF90CF900895CF93DF934C
:1007C0001F92CDB7DEB7698320918F032223F9F002
:1007D00020911E04203258F021E030E0FC013383E8
:1007E000228390E080E00F90DF91CF910895809177
:1007F0001F04E82FF0E0E159FC4F998190838F5F4F
:1008000080931F0480931E0481E090E0ECCF61E0B0
:10081000CE0101960E942103F7CF90E080E0089579
:10082000E091010184E0E89FF0011124E85FFE4FB0
:10083000608171818281938129E096958795779572
:1008400067952A95D1F733E0660F771F881F991FA8
:100850003A95D1F708958F929F92AF92BF920F93DE
:100860001F93CF93DF93CDB7DEB7A1970FB6F89460
:10087000DEBF0FBECDBF19A2423008F44AE08E01A0
:100880000F5D1F4F842E912CB12CA12CA50194013A
:100890000E943A20E62FB901CA01EA3044F5E05D32
:1008A000D801EE938D01232B242B252B79F790E093
:1008B00080E0109769F0FD0101900020E9F7319781
:1008C000AF014A1B5B0BBD018BEA94E00E94F3026F
:1008D000A1960FB6F894DEBF0FBECDBFDF91CF91CA
:1008E0001F910F91BF90AF909F908F900895E95CFA
:1008F000D7CFFC0101900020E9F73197AF01481BE9
:10090000590BBC018BEA94E00C94F302EF92FF9236
:100910000F931F93CF93DF937C018C01CAE0D0E04B
:10092000CE010E94BC1BF80181938F012196CB312F
:10093000D105B1F7C701DF91CF911F910F91FF90C2
:10094000EF900895CF92DF92EF92FF920F931F9353
:10095000CF93DF9300D000D0CDB7DEB794E0899F6E
:10096000700111248701065A1F4FFE0131966F0155
:10097000FEE5EF0EF11CC8010E94BC1BF60181933D
:100980006F010F5F1F4FE016F106A9F769817A81A9
:100990008B819C810F900F900F900F90DF91CF91E2
:1009A0001F910F91FF90EF90DF90CF9008950C94DE
:1009B000BC1BCF93DF93EC0160E08E810E949C0111
:1009C00061E08E810E949C0160E08E810E949C010A
:1009D0008BE891E00197F1F7DF91CF910895CF92E5
:1009E000DF92EF92FF920F931F93CF93DF936C01EF
:1009F0007C0187E0E80EF11CD0E0C0E0062F10E09B
:100A0000B8010C2E02C0759567950A94E2F76170E3
:100A1000F70181917F010E949C012196C430D1058C
:100A200079F7C601DF91CF911F910F91FF90EF9061
:100A3000DF90CF900C94D904CF92DF92EF92FF9287
:100A40000F931F93CF93DF93EC01F62E642F8C81CD
:100A50000E949C018D818F3F19F060E00E949C01F3
:100A60000F2D10E08F8584FF25C06E0187E0C80E32
:100A7000D11CF12CE12CB8010E2C02C075956795A4
:100A80000A94E2F76170F60181916F010E949C0166
:100A9000FFEFEF1AFF0A88E0E816F10461F7CE01D4
:100AA000DF91CF911F910F91FF90EF90DF90CF904A
:100AB0000C94D904B80184E0759567958A95E1F79F
:100AC000CE010E94EF046F2DCE01DF91CF911F91D7
:100AD0000F91FF90EF90DF90CF900C94EF0440E0E7
:100AE000682F8BEA94E00C941C0581E00E946F054E
:100AF0008BE39FE10197F1F70895CF93DF93823065
:100B000029F49091BA0498609093BA048093BE043B
:100B10001092BF0480E48093C00480E18093C104FC
:100B200080E58093C20461E08091AF040E94CA0115
:100B30008091B0048F3F19F061E00E94CA0161E02A
:100B40008091B1040E94CA01CBEAD4E09E012B5AE5
:100B500034408091BA0484FD0BC084E090E021967B
:100B60002817390744F461E08E810E94CA01EECF54
:100B700088E090E0F4CF8BE39DE00197F1F760E02F
:100B80008091AF040E949C0160E08091B1040E94BA
:100B90009C018091B0048F3F19F060E00E949C019D
:100BA0008091BA0484FD34C063E08BEA94E00E9433
:100BB000EF04CBE4D6E4CE010197F1F763E08BEAD2
:100BC00094E00E94EF042197F1F763E08BEA94E050
:100BD0000E94EF0483E592E00197F1F762E08BEA6F
:100BE00094E00E94EF048091BA0480620E946F0535
:100BF00084E08093BB048CE00E946F050E94750521
:100C000082E08093BC0486E0DF91CF910C946F0565
:100C100080620E946F058BE496E40197F1F7809162
:100C2000BA0480620E946F0583E592E00197F1F7B4
:100C30008091BA0480620E946F05D5CF9091BE0466
:100C4000691710F06FEF690FE62FF0E0E555FB4FE5
:100C50009489890F80680C946F0541E00E941C05FF
:100C600081E090E00895CF92DF92EF92FF9297FF9C
:100C700018C06B017C0141E06DE28BEA94E00E94B8
:100C80001C0566277727CB016C197D098E099F0902
:100C90004AE00E942B040196FF90EF90DF90CF90E6
:100CA00008954AE0FF90EF90DF90CF900C942B04D2
:100CB00085ED8093BC008091230490912404A09141
:100CC0002504B09126040796A11DB11D23E0B69519
:100CD000A795979587952A95D1F72091BC0024FD7B
:100CE00003C01092F403089540912304509124040A
:100CF0006091250470912604452B462B472B69F300
:100D00000097A105B10541F02AE22A95F1F700C04C
:100D10000197A109B109E1CF809122040C946603E7
:100D2000DF92EF92FF920F931F93CF93DF93CDB794
:100D3000DEB729970FB6F894DEBF0FBECDBFD82E11
:100D40006091410470914204809143049091440465
:100D50000E943C1D20E034E244E759E40E94921CCA
:100D60009E012F5F3F4F790189012091020148E0E8
:100D70000E946719F70101900020E9F78E2D8E1B64
:100D80006D2D835F0E941E06C7010E9479048DE9C4
:100D900091E00E94790429960FB6F894DEBF0FBE49
:100DA000CDBFDF91CF911F910F91FF90EF90DF901A
:100DB00008958F929F92AF92BF92CF92DF92EF925F
:100DC000FF920E9410046B017C016091020164306B
:100DD00008F063E070E0719561957109072E000CD1
:100DE000880B990B0E943C1D9B01AC0160E070E0F8
:100DF00080E291E40E94321E4B015C01C701B60102
:100E00000E943A1D20E034E244E759E40E94921C1B
:100E10009B01AC01C501B4010E94921C0E94761C8A
:100E20000E940B1D862FFF90EF90DF90CF90BF9018
:100E3000AF909F908F9008954F925F926F927F92A4
:100E40008F929F92AF92BF92CF92DF92EF92FF92DA
:100E50001F93CF93DF93982E5B01142FE9010E941B
:100E6000AA026B017C01F501992009F4DEC08081A2
:100E700081112CC0C0926303D0926403E092650399
:100E8000F0926603C0925F03D0926003E092610328
:100E9000F0926203C0925B03D0925C03E0925D0328
:100EA000F0925E0381E08083812FFE01DF91CF917C
:100EB0001F91FF90EF90DF90CF90BF90AF909F90E9
:100EC0008F907F906F905F904F9009948091630313
:100ED00090916403A0916503B091660346015701A8
:100EE000881A990AAA0ABB0A80914504882309F442
:100EF00068C0F8EE8F16F3E09F06A104B10408F471
:100F000050C00E94D906782E0E9410049B01AC01AB
:100F1000A72DB0E00E9481200E943A1D20E030E021
:100F20004AEF53E40E94921C2B013C01C501B4011D
:100F3000685E73408109910928EE33E040E050E09B
:100F40000E943A20CA01B9010E943A1D23E333E30B
:100F500043E35FE30E940A1C9B01AC01C301B201A1
:100F60000E94921C0E940B1D80905F039090600372
:100F7000A0906103B0906203A70196012819390976
:100F80004A095B0949015A0186169706A806B9065F
:100F900040F080917F0490918E049923F1F08111AB
:100FA0001EC0DF91CF911F91FF90EF90DF90CF9007
:100FB000BF90AF909F908F907F906F905F904F9079
:100FC000089528EE821623E09206A104B10448F3A6
:100FD00060E570E080E090E0C7CF8823A9F08091C1
:100FE0005B0390915C03A0915D03B0915E03A70148
:100FF0009601281B390B4A0B5B0BDA01C901883CAF
:101000009105A105B10568F2C0925F03D09260031B
:10101000E0926103F0926203C0925B03D0925C03A2
:10102000E0925D03F0925E033FCF1082BACF7F92D1
:101030008F929F92AF92BF92CF92DF92EF92FF92E8
:101040000F931F93CF93DF934B015C01742E0E948B
:1010500010046B017C010E943A1D8B01D82FC92F0F
:101060009401A5010E942D1E1816A4F0AFEFBFE752
:10107000A70196010E9481200E943A1D8B01D82F62
:10108000C92F9401A5010E948D1C87FD03C0840116
:10109000DA2DCB2D61E070E080E090E0772031F038
:1010A0000E94D906682F70E090E080E0A7019601C9
:1010B0000E9416206B017C010E943A1D9B01AC012D
:1010C000B8018D2F9C2F0E94921C4B015C0120E0E7
:1010D00030E0A9010E942D1E20E030E040E05FE3F7
:1010E00087FD1AC0C501B4010E940A1C0E94041D9C
:1010F0009B01AC01C701B6010E941620DF91CF9180
:101100001F910F91FF90EF90DF90CF90BF90AF9025
:101110009F908F907F900895C501B4010E94091C93
:10112000E5CF4F925F926F927F928F929F92AF9294
:10113000BF92CF92DF92EF92FF92CF93DF93C82FAF
:10114000843009F405C28091BB048D7F8093BB0479
:1011500088600E946F05C150C73068F4EC2FF0E042
:10116000EC54F74F0C947B20DF08E9080609A80A25
:10117000CC0A200B390B0E94750580ED91E00E948E
:10118000790483E393E00E9479048CED91E00E945E
:10119000790461E080E00E941E0681EE91E0DF911B
:1011A000CF91FF90EF90DF90CF90BF90AF909F9046
:1011B0008F907F906F905F904F900C94790480E0B7
:1011C0000E94900661E080E00E941E068DE494E09B
:1011D000E6CF80914504811107C061E00E941E06A0
:1011E00080EF91E00E94790481E00E949006DF91F7
:1011F000CF91FF90EF90DF90CF90BF90AF909F90F6
:101200008F907F906F905F904F9008950E9475052A
:1012100080918004882301F160E080E00E941E0636
:1012200085EF91E00E94790461E080E00E941E0653
:101230008FEF91E00E94790480917004813049F031
:1012400028F08230A1F687E192E0A9CF82E092E017
:10125000A6CF8FE092E0A3CF80917104811126C0C8
:10126000809170048130E1F080F08230E1F08330D1
:1012700009F0BDCF85EF91E00E94790461E080E044
:101280000E941E0686E592E08ACF8EE192E00E94DF
:10129000790461E080E00E941E068BE292E07FCF3D
:1012A00088E392E0F4CF85E492E0F1CF813009F059
:1012B0007CC080917004813009F455C020F08230E8
:1012C00009F49FC094CF85E692E00E94790461E022
:1012D00080E00E941E0680916F04882309F440C0BC
:1012E000C0916E0328E0C29FE0011124CF5DDE4F64
:1012F000688179818A819B8141E00E9417082B01D6
:101300003C016C817D818E819F8141E00E941708A4
:101310004B015C018FEF91E00E94790480E4C82EBC
:1013200082E4D82E8FE0E82EF12CC301B201A70190
:1013300096010E945C20CA01B9010E94330684E72D
:1013400092E00E947904C501B401A70196010E94B0
:101350005C20CA01B9010E9433068DE991E01FCFDC
:1013600086E792E01CCF84E892E00E94790461E075
:1013700080E00E941E0680916F04882389F38FEF1E
:1013800091E00E9479046091020170E090E080E0B9
:101390004AE00E942B0480910201813019F088E814
:1013A00091E0FDCE8FE791E0FACE823009F0A1C046
:1013B00080917004823009F45DC0E8F4882361F103
:1013C000813009F014CF8CEB92E00E94790461E047
:1013D00080E00E941E0680916F04882309F28FEF3F
:1013E00091E00E94790480910101882309F43FC0B3
:1013F0008AE991E0D4CE833009F457C0843009F0F3
:10140000F6CE8EE892E00E94790461E080E00E94CE
:101410001E068CE992E0C3CE8BEA92E00E9479042A
:1014200061E080E00E941E0680916F04882309F429
:1014300097CF87EB92E00E947904E091AA04F0E054
:10144000E558FE4F608170E090E080E040E1DF9180
:10145000CF91FF90EF90DF90CF90BF90AF909F9093
:101460008F907F906F905F904F900C942B0482E947
:1014700091E095CE8BEC92E00E94790461E080E0EF
:101480000E941E0680916F04882309F469CF8FEFB4
:1014900091E00E94790480910601811103C082EAE3
:1014A00091E07DCE8FEE92E07ACE87ED92E00E94C1
:1014B000790461E080E00E941E0680916F04882319
:1014C00009F44ECF8FEF91E00E94790480910501DD
:1014D000813049F028F0823049F084EF92E05FCE0D
:1014E00084EE92E05CCE8CEE92E059CE87EF92E0F3
:1014F00056CE833009F07BCE80917004813069F044
:1015000008F0DDCE8FEF92E00E94790461E080E088
:101510000E941E068CE093E042CE88E193E00E9498
:10152000790461E080E00E941E0680916F048823A8
:1015300009F416CF8FEF91E00E9479048091320474
:10154000811103C08BEA91E02ACE87EA91E027CE91
:1015500061E080E00E941E068EE594E00E9479041E
:1015600061E080916D030E941E068091BB04982F5C
:1015700092609093BB048A60DF91CF91FF90EF90CF
:10158000DF90CF90BF90AF909F908F907F906F90A3
:101590005F904F900C946F0560E080E00E941E0603
:1015A00080918804882319F089E293E0F8CD0E94A5
:1015B000AA02C0906903D0906A03E0906B03F09098
:1015C0006C039B01AC012C193D094E095F096901AF
:1015D0007A013AEFC316D104E104F10408F407CE0E
:1015E0006093690370936A0380936B0390936C0319
:1015F0008FE293E00E94790460E0809168030E948A
:101600001E0680910001811118C082EB91E00E94BA
:101610007904909100018FEF911181E0209168038E
:10162000820F80936803882319F0833009F0DFCD9F
:1016300081E0982790930001DACD8FEA91E0E7CF1F
:1016400080913304882381F0DF91CF91FF90EF9058
:10165000DF90CF90BF90AF909F908F907F906F90D2
:101660005F904F900C94750581E00E949108C5E051
:101670006ACD61E086E00E949C010E947505809120
:101680002804811113C086EC91E00E94790461E086
:1016900080E00E941E0680912804882351F085E393
:1016A00093E00E9479046091A904CDCE85EB91E08E
:1016B000ECCF82E493E073CD2F923F924F925F92F2
:1016C0006F927F928F929F92AF92BF92CF92DF9252
:1016D000EF92FF920F931F93CF93DF9300D01F924F
:1016E000CDB7DEB7D82EF62E042FE52E2B83862F0E
:1016F000880F89831AE088248A9485EE982E95ECC9
:10170000C92EA22EB12C922F91509A83DD2009F47C
:10171000F0C00E9453022B013C018091F40381111F
:1017200065C0E1E0E093F403E093F6038092F303F5
:1017300010921804FA81F0931704E0931904809131
:1017400019049981892B809319048091F5038130C4
:1017500009F08BC01092F5030E9453022B013C014B
:10176000809119048093BB008091230490912404FC
:10177000A0912504B0912604892B8A2B8B2BA1F0F4
:101780000E945302209123043091240440912504A7
:101790005091260464197509860997092617370799
:1017A0004807590708F443C08091BC0083FDD8CF97
:1017B000C092BC000E9453022B013C018091F403B3
:1017C000813009F455C080911804EB818E1708F020
:1017D00071C080911804E7EFF3E0A0E9B3E090E076
:1017E000981751F121912D939F5FFACF8091230497
:1017F00090912404A0912504B0912604892B8A2B72
:101800008B2B09F48ACF0E9453022091230430913C
:101810002404409125045091260464197509860911
:101820009709261737074807590708F076CF8091A0
:1018300022040E94660380E0109221048093200419
:10184000FB81F81339C00983C02EDE2C8C2D9981C1
:10185000891BEB818E1708F007C18DE994E00E9487
:101860009703F60181936F01F1CF9092BC00A2CF54
:101870008091230490912404A0912504B091260422
:10188000892B8A2B8B2B09F499CF0E94530220912C
:1018900023043091240440912504509126046419B6
:1018A000750986099709261737074807590708F069
:1018B00085CFBDCF8B818FCF62E370E080E090E079
:1018C0000E947802115009F021CF80918E0481117D
:1018D0002FC160E085E00E949C0187E00E94910892
:1018E00083E00E947301892B09F004C10E94B602B3
:1018F000F7CFF1E0F0938F03F092670310921F048B
:1019000010921E048B81882339F0A501602F7E2D53
:101910008DE994E00E94B10330901E0490E281E0D2
:10192000931508F499C0209067030E9453022B017D
:101930003C018091F403811169C0E2E0E093F4037B
:10194000F1E0F093F6038092F303109218043092C2
:101950001704EFE6F3E0A7EFB3E038129CC0109253
:10196000190480911904220C282A209219048091CC
:10197000F503813009F093C01092F5030E945302E1
:101980002B013C01809119048093BB0080912304BA
:1019900090912404A0912504B0912604892B8A2BD0
:1019A0008B2BA1F00E945302209123043091240438
:1019B00040912504509126046419750986099709F8
:1019C000261737074807590708F441C08091BC0023
:1019D00083FDD8CFC092BC000E9453022B013C0172
:1019E0008091F403823009F45DC08091F3038F3F4E
:1019F00009F47AC08091F303803209F477C08091B2
:101A0000F303803309F474C084E026C0809123047A
:101A100090912404A0912504B0912604892B8A2B4F
:101A20008B2B09F486CF0E9453022091230430911E
:101A300024044091250450912604641975098609EF
:101A40009709261737074807590708F072CF809182
:101A500022040E94660385E010921F0410921E0467
:101A600010928F03811128CF81E00F900F900F907B
:101A7000DF91CF911F910F91FF90EF90DF90CF906A
:101A8000BF90AF909F908F907F906F905F904F909E
:101A90003F902F90089591919D938F5F5ECF90928C
:101AA000BC009ACF8091230490912404A091250436
:101AB000B0912604892B8A2B8B2B09F491CF0E949D
:101AC0005302209123043091240440912504509125
:101AD00026046419750986099709261737074807E8
:101AE000590708F07DCFB3CF80E0B6CF82E0B4CF06
:101AF00083E0B2CF0E94B60283E00E947301892B7B
:101B0000C9F783E00E947301892B19F40E94B60281
:101B1000F8CF60E085E00E949C0188E198E00FB674
:101B2000F894A895809360000FBE90936000FFCF5B
:101B300080E09BCFCF92DF92EF92FF920E94AA02A9
:101B40006B017C0180916D038F3068F110927F04EE
:101B500010926D0310926F041092800410926E0424
:101B600040E150E06EE574E08DE494E00E94CC200A
:101B700010925D0483E00E9491088CE2C80E81E01F
:101B8000D81EE11CF11CC0927B04D0927C04E09230
:101B90007D04F0927E0481E080937A04FF90EF90C0
:101BA000DF90CF9008958F5F80936D0384E0FF9066
:101BB000EF90DF90CF900C949108E0916D03F0E0EE
:101BC000E25AFB4F2081022E000C330B20523109C8
:101BD000A901480F511D87FD5A95CA01805A9F4F90
:101BE00060E670E00E942620805E808384E00C9492
:101BF000910810926F0483E00C9491088091060183
:101C000091E089278093060183E00C9491088091EC
:101C1000320491E089278093320483E00C94910888
:101C20008091320491E089278093320483E00C9400
:101C3000910880910501833018F48F5F809305012E
:101C400083E00C94910880910501882319F081505C
:101C50008093050183E00C9491088091060191E046
:101C600089278093060183E00C94910881E080939A
:101C7000010182E08093020183E00C9491081092AC
:101C8000010180910201833018F483E08093020106
:101C900083E00C9491088091AA04833018F48F5F3C
:101CA0008093AA0483E00C9491088091AA0488236D
:101CB00019F081508093AA0483E00C9491088091DC
:101CC0000201282F30E090910101992339F0223050
:101CD00031053CF082E006C083E004C023303105CA
:101CE000DCF78F5F8093020183E00C949108809170
:101CF0000201882361F08150990B20910101222378
:101D000059F022E030E0281739070CF4C90180931C
:101D1000020183E00C94910823E030E0F4CF80913D
:101D20006E03863018F48F5F80936E0383E00C940B
:101D3000910880916E03882319F0815080936E037F
:101D400083E00C9491088091710481111FC08091EF
:101D50007004813079F030F0823081F0833091F07E
:101D600083E043C010925A0381E080937104109283
:101D70007004F6CF80935A0382E0F7CF80935A0322
:101D800083E0F3CF81E080938004F1CF813059F478
:101D900080917004823069F41092710480915A032A
:101DA00080937004DDCF823041F4809170048430E0
:101DB00099F381E080936F04D3CF8330D1F7809182
:101DC0007004823049F38111F4CF10926D0381E0E9
:101DD00080937F0440E150E06DE474E08EE594E090
:101DE0000E94CC2010926E0484E00C9491088091A3
:101DF0007004823030F48F5F8093700483E00C9421
:101E00009108089580917004882331F08150809367
:101E1000700483E00C94910808954F925F926F9242
:101E20007F928F929F92AF92BF92CF92DF92EF926A
:101E3000FF92CF93DF9300D000D000D0CDB7DEB7B4
:101E40008D83C0905203D0905303E0905403F090E0
:101E500055038090560390905703A0905803B0907C
:101E60005903809145048823E9F1809141049091C0
:101E70004204A0914304B091440489839A83AB83C4
:101E8000BC830E94D9068E830E9410049B01AC0182
:101E900026013701481859086A087B089E81A92F36
:101EA000B0E00E9481209B01AC01421653066406FB
:101EB000750610F4A30192018D81A82F880FBB0B2A
:101EC0000E948C2049805A806B807C80460E571E71
:101ED000681E791E4092410450924204609243046D
:101EE000709244048091410490914204A091430473
:101EF000B091440488159905AA05BB0550F1C81690
:101F0000D906EA06FB0610F4D501C401809341040A
:101F100090934204A0934304B093440482E00E944F
:101F2000910881E08093450426960FB6F894DEBFB1
:101F30000FBECDBFDF91CF91FF90EF90DF90CF909C
:101F4000BF90AF909F908F907F906F905F904F90D9
:101F50000895D701C601DACF8F929F92AF92BF92B8
:101F6000CF92DF92EF92FF921F93CF93DF938CE398
:101F700090E00E94BC1B80936E03873018F082E0D3
:101F800080936E0310916E0388E0189FE001112486
:101F9000CF5DDE4F688179818A819B8141E00E941B
:101FA00017086B017C01C0925603D0925703E09250
:101FB0005803F09259036C817D818E819F8141E0AD
:101FC0000E9417084B015C018092520390925303C8
:101FD000A0925403B092550360E070E0CB0117303B
:101FE00018F4812F0E94A2046C157D058E059F05B3
:101FF00060F086169706A806B90638F00E943C1DC8
:1020000040E00E9417086B017C01C0924104D0920D
:102010004204E0924304F092440488E290E00E947B
:10202000D704843010F48093020180E590E00E9490
:10203000D704843008F081E080930701E82FF0E0B6
:10204000E558FE4F80818093A90486E490E00E94C9
:10205000D704811181E08093010182E390E00E9426
:10206000D70491E0811101C090E09093060185E5CD
:1020700090E00E94D704843008F083E0809305014B
:102080008DE494E00E94860480915D0410925D04CA
:10209000EDE4F4E02DE534E0919190322CF02E1730
:1020A0003F07D1F7882381F040E150E060E171E023
:1020B0008DE494E00E94CC2044E050E060E270E0C7
:1020C00089E594E00E94B7208EE190E00E94D70459
:1020D00091E0811101C090E090933204DF91CF91A3
:1020E0001F91FF90EF90DF90CF90BF90AF909F90A7
:1020F0008F9008950E94AC0F60914104709142044A
:1021000080914304909144040E943C1D41E00E9450
:1021100017086093410470934204809343049093A2
:1021200044041092800410928E041092710481E095
:102130000C949108FF920F931F93CF93DF93EC01C0
:10214000F62E08811981C8010E94BC1BF81621F0E7
:102150006F2DC8010E94C41BCE01DF91CF911F914A
:102160000F91FF900895CF92DF92EF92FF920F931D
:102170001F93CF93DF93CDB7DEB72A970FB6F894AE
:10218000DEBF0FBECDBFC0904104D0904204E090AE
:102190004304F090440480913D0490913E04A0914A
:1021A0003F04B0914004C816D906EA06FB0629F49C
:1021B00080918E04882309F469C00E9410049B0159
:1021C000AC01C701B6010E943A203D832E838EECFC
:1021D0008F83188624E0AE014B5F5F4F6091A904A6
:1021E00080E00E945C0B882309F450C040914104B8
:1021F00050914204609143047091440480916E03B5
:1022000049835A836B837C8390912904992359F1E4
:10221000873048F500913D0410913E0420913F0421
:10222000309140044017510762077307E1F094E0D2
:10223000899F800111247801EAE5EE0EF11CCE01A0
:1022400001966C01025A1F4FFA86E986F6016191E8
:102250006F01CE0109960E949A10FFEFEF1AFF0A54
:10226000E016F10689F78091410490914204A09113
:102270004304B091440480933D0490933E04A093A2
:102280003F04B093400481E0809389042A960FB6FE
:10229000F894DEBF0FBECDBFDF91CF911F910F919C
:1022A000FF90EF90DF90CF9008954F925F926F92E2
:1022B0007F92BF92CF92DF92EF92FF920F931F9384
:1022C000CF93DF93CDB7DEB763970FB6F894DEBF39
:1022D0000FBECDBF8091700481112CC180917F040D
:1022E000811137C040E150E06EE574E08DE494E088
:1022F0000E94CC2010925D048DE4E82E84E0F82E3C
:102300008DE594E0F701219120320CF424C18E1761
:102310009F07C9F7CE0101960E94860441E150E073
:10232000BE016F5F7F4F8DE494E00E94BE20892B39
:1023300081F00AE010E01B8B0A8BF70161917F01AD
:10234000CE0142960E949A100F5F1F4F0B3111056C
:1023500091F710910701E091AA041E17B9F0F0E07F
:10236000E558FE4F20E050E040E0608180E00E94B0
:102370005C0B882309F4B6C0E091AA04E09307013E
:10238000F0E0E558FE4F80818093A90460916E03D0
:102390008CE390E09A838983CE0101960E949A1083
:1023A0006091020188E290E09A838983CE010196D0
:1023B0000E949A106091070180E590E09A838983DA
:1023C000CE0101960E949A106091010186E490E08E
:1023D0009A838983CE0101960E949A10609106012A
:1023E00082E390E09A838983CE0101960E949A103D
:1023F0006091050185E590E09A838983CE0101967D
:102400000E949A10609132048EE190E09A83898351
:10241000CE0101960E949A10B0906E0328E0B29E01
:10242000800111240F5D1E4FF8016081718182814E
:10243000938141E00E9417086B017C01C092560312
:10244000D0925703E0925803F0925903F801648147
:1024500075818681978141E00E9417082B013C011C
:10246000409252035092530360925403709255036A
:10247000F6E060E070E0CB01FB1518F08B2D0E94B8
:10248000A2046C157D058E059F0560F04616570663
:102490006806790638F00E943C1D41E00E9417084A
:1024A0006B017C01C0924104D0924204E09243044B
:1024B000F09244040E94B3100E947A1063960FB603
:1024C000F894DEBF0FBECDBFDF91CF911F910F916A
:1024D000FF90EF90DF90CF90BF907F906F905F90D4
:1024E0004F90089510930701E12FF0E0E558FE4F5B
:1024F00080818093A90481E08093280487E00E9472
:102500009108109228040E94AA026B017C010E948B
:10251000AA026C197D098E099F09643C79408105E6
:10252000910518F40E94B602F2CF60E085E00E94A7
:102530009C012CCF813021F485E00E949108BCCF12
:10254000823009F0BBCF109280041092700483E0B7
:102550000E949108B3CF40E150E060E171E08DE46A
:1025600094E00E94CC2044E050E060E270E089E515
:1025700094E00E94B720CECE1F920F920FB60F921A
:1025800011242F933F938F939F93AF93BF93809189
:10259000900490919104A0919204B0919304309191
:1025A0008F0423E0230F2D3758F50196A11DB11D8F
:1025B00020938F048093900490939104A0939204AD
:1025C000B09393048091940490919504A091960403
:1025D000B09197040196A11DB11D8093940490932E
:1025E0009504A0939604B0939704BF91AF919F91E7
:1025F0008F913F912F910F900FBE0F901F901895C4
:1026000026E8230F0296A11DB11DD2CF1F920F9273
:102610000FB60F9211242F933F934F935F936F93B5
:102620007F938F939F93AF93BF93EF93FF9380918B
:10263000B900887F803609F44AC0F0F5883209F481
:10264000A7C018F5803109F49BC0B8F4882309F4B9
:10265000F9C0883009F494C0FF91EF91BF91AF9118
:102660009F918F917F916F915F914F913F912F91AA
:102670000F900FBE0F901F901895883109F488C0F5
:10268000803251F78093F30314C0803409F49DC065
:1026900040F48033B9F38833F9F68093F30385EC83
:1026A000B0C0803509F485C0883509F496C08834F7
:1026B00099F60E945806D0CF883909F48CC038F5B5
:1026C000883729F050F4883611F0803729F683E0F6
:1026D0008093F4031092F20357C0883809F47BC04A
:1026E000803919F0803809F0B7CF8091F203803239
:1026F00008F071C0E091F20381E08E0F8093F20345
:102700008091BB00F0E0EE52FC4F80833DC0803BE7
:1027100039F0E0F4803A09F479C0883A09F09CCFA6
:1027200084E08093F4031092D1031092D003E091DF
:102730001C04F0911D0409958091D00381110FC0F4
:1027400081E08093D0031092B00309C0803C09F46B
:10275000A6CF883C09F4A3CF883B09F07DCFE09158
:10276000D10381E08E0F8093D103F0E0E055FC4F60
:1027700080818093BB009091D1038091D00329C0C8
:10278000809119048093BB0085EC8093BC0064CFDA
:102790009091180480911704981758F5E091180447
:1027A00081E08E0F80931804F0E0E950FC4F8081A7
:1027B000E9CFE091180481E08E0F80931804809196
:1027C000BB00F0E0E950FC4F8083909118048091A9
:1027D00017049817C8F285E8D8CFE091180481E073
:1027E0008E0F809318048091BB00F0E0E950FC4FFD
:1027F00080838091F60381115CCF81E08093F503A3
:1028000084EA8093BC001092F40326CF85EC809379
:10281000BC001092F4038091F203803230F4E09116
:10282000F203F0E0EE52FC4F10826091F20370E090
:10283000E0911A04F0911B0482ED93E00995109247
:10284000F2030ACF1092F30334CFEDE9F4E01382E0
:10285000128288EE93E0A0E0B0E084839583A683A3
:10286000B78381E691E091838083EBEAF4E0138201
:10287000128283E791E09183808388E084838FEFE5
:10288000858389E086838AE087838BE080878CE07C
:1028900081878DE0828713861486158616861786B3
:1028A00081E00E947D05E0910701E093AA04F0E039
:1028B000E558FE4F80818093A9040895CF93DF935C
:1028C00000D000D000D01F92CDB7DEB7789484B589
:1028D000826084BD84B5816084BD85B5826085BD1C
:1028E00085B5816085BD80916E00816080936E00AA
:1028F000109281008091810082608093810080919C
:10290000810081608093810080918000816080934C
:1029100080008091B10084608093B1008091B0000C
:1029200081608093B00080917A00846080937A0007
:1029300080917A00826080937A0080917A00816031
:1029400080937A0080917A00806880937A00109258
:10295000C1000FB6F894A8958091600088618093BB
:102960006000109260000FBE62E082E00E94CA0127
:1029700062E083E00E94CA0162E084E00E94CA0132
:1029800061E085E00E94CA0161E085E00E94CA0121
:1029900061E086E00E94CA01109221041092200496
:1029A00010921F0410921E040E94480381EF92E0CF
:1029B00090931D0480931C0482EF92E090931B047B
:1029C00080931A0482EF8093B8001092270488E85D
:1029D00093E1A0E0B0E08093230490932404A093BB
:1029E0002504B093260411E01093220482E00E9493
:1029F0007D058FEF90E00E94FB0180E00E9491082E
:102A000064EC79E080E090E00E94780283E00E942C
:102A10007301892BD9F41093070181E68093A904EF
:102A200080E590E09A83898361E0CE0101960E945F
:102A30009A101093280487E00E94910810922804AD
:102A400064EC79E080E090E00E9478020E94AC0F94
:102A50000E94B31081E00E94910885E00E949108D5
:102A600081E0809329049EEC492E55245A94652CCC
:102A7000752C11E080E2282E0E94AA026B017C01D5
:102A800082E00E94730133243394892B09F0312CA6
:102A90003092870483E00E94730101E0892B09F0E2
:102AA00000E00093850484E00E94730121E0892BFB
:102AB00009F020E020938604832C800E9924991C31
:102AC000C401820F911D02970CF400C1109286047C
:102AD0001092850410928704C0922A04D0922B048D
:102AE000E0922C04F0922D0480914504811108C0DD
:102AF00080918E04811104C080918804811100C1ED
:102B000010923C0480918E0481115CC03090870447
:102B100031100CC080918504811108C08091860419
:102B2000811104C08091040181114CC00E94AA024D
:102B30006B017C012DE03FE04FEF6CE474E0832DEE
:102B40000E941C072DE03FE041E06BE474E08091BF
:102B500086040E941C0780918704811104C0809123
:102B60008604882351F0C0924604D0924704E09234
:102B70004804F0924904109204018091450488238E
:102B800009F4B4C180918504882309F4AFC10E947F
:102B9000AA026B017C010E94B310109245049CE2D2
:102BA000C90E91E0D91EE11CF11CC0927B04D092A9
:102BB0007C04E0927D04F0927E0481E00E94910802
:102BC000109304010E94AA026B017C01809187048A
:102BD000811108C090918604911104C090918504E0
:102BE000992341F0C0928104D0928204E092830440
:102BF000F092840420918E04222309F4A2C19091C2
:102C0000800491119EC18090810490908204A090D4
:102C10008304B0908404B701A601481959096A09D0
:102C20007B0941325E446105710508F48AC1109246
:102C30007F0485E00E9491080E947A10ACE2CA0EDF
:102C4000A1E0DA1EE11CF11CC0927B04D0927C044E
:102C5000E0927D04F0927E0410937A0480918904BE
:102C6000882309F497C221E0AE014D5F5F4F609168
:102C7000A90481E00E945C0B882309F48BC28B813C
:102C800086FB882780F98093880480918E048111C7
:102C900003C085E00E9491088091880460E0882349
:102CA00009F475C280910601882309F460C28EEC94
:102CB000898380910501813009F4A1C208F459C2C9
:102CC000823009F49FC274E27A8354C280912A044C
:102CD00090912B04A0912C04B0912D04C81AD90A0C
:102CE000EA0AFB0A22E3C216D104E104F10408F067
:102CF000FBCE109286041092850410928704F4CEC5
:102D00000E94AA026B017C0180913C04811119C0D0
:102D100083E00E947301892B51F482E00E947301C9
:102D2000892B29F084E00E947301892B89F7109385
:102D30003C04C0923804D0923904E0923A04F092F4
:102D40003B0420918504222309F4BDC04091340442
:102D50005091350460913604709137044115510546
:102D60006105710509F08EC0C0923404D09235041B
:102D7000E0923604F092370490918704911106C0D6
:102D8000211104C080918604882391F1AFEFA093B4
:102D900003018FEF90E00E94FB01809133048823B0
:102DA000F9F01092330486E00E9491088091870424
:102DB00002E0811106C08091860404E0811101C007
:102DC00003E0802F0E947301892BD9F3033009F4AB
:102DD00088C0043009F480C010924C04109287041B
:102DE000C0923804D0923904E0923A04F0923B0445
:102DF00080913204882309F485CE80913804909123
:102E00003904A0913A04B0913B0446015701881A55
:102E1000990AAA0ABB0AD501C401853C9940A105BB
:102E2000B10508F46FCE8091330481116BCE2091EF
:102E300003012F3108F466CE40912E0450912F04E7
:102E40006091300470913104D701C601841B950B49
:102E5000A60BB70BAC01BD014730510561057105EB
:102E600008F450CE8FEF820F8093030190E00E9410
:102E7000FB01C0922E04D0922F04E0923004F09215
:102E8000310440CED701C601841B950BA60BB70BAE
:102E9000AC01BD014D3D55406105710508F46CCF95
:102EA00090913304911168CF90E080E00E94FB0183
:102EB0001093330486E00E94910883E00E9473011E
:102EC000892BD9F31FCE109234041092350410923E
:102ED00036041092370450CF10924B04109286049F
:102EE0007FCF10924A04109285047ACF80914604D5
:102EF00090914704A0914804B0914904C81AD90A96
:102F0000EA0AFB0AA9E8CA16A3E1DA06E104F10419
:102F100008F458CE1092450480910401811152CEDC
:102F200080913D0490913E04A0913F04B0914004F3
:102F30008093410490934204A0934304B0934404CB
:102F40003CCE90917A04992339F0809185048111C7
:102F500085CE10927A0482CE90917F0421112BC0ED
:102F600091117CCE80917B0490917C04A0917D0492
:102F7000B0917E04C816D906EA06FB0608F46ECEA8
:102F80008091760490917704A0917804B0917904AF
:102F900020918504222309F437C1892B8A2B8B2B9E
:102FA00009F05CCEC0927604D0927704E092780467
:102FB000F092790453CE9923D1F02DED3DE04FEFFF
:102FC0006CE474E00E941C072DED3DE041E06BE4F1
:102FD00074E0809186040E941C072AE93DE040E0ED
:102FE0006AE474E0809185040E941C0737CE9091BA
:102FF0008004992399F022E03FE04FEF6CE474E005
:103000000E941C0727EF3EE041E06BE474E08091F2
:1030100086040E941C0725E531E1E1CFE0917104AF
:1030200090916F04911137C0F0E0E75AFE4FF080A5
:10303000882359F180914C0481110CC010934C04E9
:1030400080917004882319F081508093700483E08C
:103050000E949108809186048823D1F080914B04CE
:10306000811110C010934B04809170046F2D61503A
:10307000770B861717061CF48F5F8093700483E02C
:103080000E94910823EA3EE0AACF10924C04E2CFBE
:1030900010924B04F7CFE13021F590917004992301
:1030A00029F09130A1F029EF3DE099CF29E93EE0E8
:1030B0004FEF6CE474E00E941C072FE83EE041E013
:1030C0006BE474E0809186040E941C07ECCF27E734
:1030D0003EE04FEF6CE474E00E941C072FE53EE0F9
:1030E000EECFE23091F5909170049130C9F070F01C
:1030F000923001F19330B9F623E23EE04FEF6CE4F9
:1031000074E00E941C0729E13EE0D9CF25E53EE0AE
:103110004FEF6CE474E00E941C072BE43EE0CFCF3D
:103120002FE33EE04FEF6CE474E00E941C0726E3BF
:103130003EE0C5CF2EEF3DE040E06CE474E00E943D
:103140001C072DE23EE040E0BBCFE33009F0ABCFFF
:1031500090917004913009F0A6CF20E13EE040E06C
:103160006CE474E00E941C0727E03EE0ECCF8EE8A0
:103170009FCD1A8222E0AE014F5F5F4F6091A9049C
:1031800080E00E945C0B81111092890461E085E06F
:103190000E949C0180918E04811129C00E94AA0284
:1031A000C0908A04D0908B04E0908C04F0908D0441
:1031B0004B015C018C189D08AE08BF0875016401C5
:1031C00020EDC21627E0D206E104F10480F06093FE
:1031D0008A0470938B0480938C0490938D0420E078
:1031E00050E040E06091A90480E00E945C0B40E068
:1031F00050E0452B09F440CC0E9400003BCC84E019
:103200008A83B8CF2A82B6CF0097A105B10509F409
:1032100025CD1092760410927704109278041092C3
:10322000790446015701881A990AAA0ABB0AD501EE
:10323000C4018C329140A105B10508F00FCD8091F9
:10324000720490917304A0917404B0917504B30159
:10325000A201481B590B6A0B7B0BDB01CA018C0DC9
:103260009D1DAE1DBF1DC0927204D0927304E092EA
:103270007404F09275048A3F9105A105B10508F028
:10328000EDCC10938E041092710410927004109281
:103290006F0410928004809107018093AA0440E19A
:1032A00050E06DE474E08EE594E00E94CC20109232
:1032B0006E0483E00E94910810937A04C092810406
:1032C000D0928204E0928304F0928404C7CCEF92FF
:1032D0000F931F93CF93DF93E80134E047FD34E170
:1032E000042E000C550B57FF03C051954195510911
:1032F000E32E022F242FAE010E948519CE01DF910B
:10330000CF911F910F91EF900895A9E0B0E0EBE805
:10331000F9E10C94D81B6A01F22EB02E102FFBE3BA
:10332000AF2EA01608F41BE31F5F012F27E0AE01AC
:103330004F5F5F4F0E94E41ABC018981982F9970FA
:10334000913009F43FC09BE2E1FC04C09E2D9170D6
:10335000E0FC3AC05E2D5071E82FE87083FF46C054
:1033600084E0911101C083E0EF2DE81B8F1508F078
:10337000E0E0D6018E2F20E2552351F1992329F068
:10338000D6019C93C60101966C0196012D5F3F4FBB
:10339000E2FE24C08EE4D6018C9391E411969C93B6
:1033A000119712968C93D9018E2F90E281111BC038
:1033B000E20FF32FF11D10828EEF9FEF2996ECE0C4
:1033C0000C94F41B9DE2C6CF90E2C4CF2D938150A4
:1033D0008111FCCFCE0ED11CE0E0D0CF8EE6D6011D
:1033E0008C9391E6DBCF9D938150E0CF482F4470C2
:1033F00082FF3DC084E0911101C083E08F1510F47D
:10340000EF2DE81BD6018E2F20E2552309F19923D9
:1034100029F0D6019C93C60101966C0196012D5F9F
:103420003F4FE2FE1BC089E4D6018C938EE41196D7
:103430008C93119786E412968C93D9018E2F90E28B
:10344000882309F4B5CF9D938150FACF2D938150F5
:103450008111FCCFCE0ED11CE0E0D9CF89E6D60198
:103460008C938EE611968C93119786E6E4CF9B01A0
:1034700077FF02C030E020E0A1E0B0E0911102C08F
:10348000B0E0A0E0F9013196AE0FBF1F8B2C912C5C
:10349000BB2009F461C05401EFEFAE1ABE0AAA0DB9
:1034A000BB1DFA161B0619F014F04F2D4A1B5111C3
:1034B00088C0E3FC59C07601A42FB0E2A1114FC02F
:1034C000C40ED11C992309F45BC040E0D6011196CB
:1034D000F60190836D01552309F448C0012F060FB2
:1034E0009A81582F507184FF03C0913309F4015021
:1034F00010160CF047C0093008F008E0EEE2FE2E8E
:103500005B01A01AB10885019194819491082F3F25
:10351000320729F4D601FC92F60131966F01621749
:10352000730794F1021713077CF5DB01A21BB30BA1
:10353000AA24A394B12CAC0EBD1EAA0DBB1D1196DE
:103540008C9121503109D601119628153905F4F0D6
:10355000F60180836D01DBCFB12CA12CA0CFF70148
:10356000B1937F01A150AACF9111B0CFD601942F72
:1035700050E302C05D9391509111FCCFC40ED11C59
:1035800040E0ACCF01E0BACF80E3DBCF6217730736
:1035900031F4963388F4953311F4552369F0F6012C
:1035A0008083FD01842F90E2811108C0A40FB11D1A
:1035B0001C9290E080E002CF81E3F1CF91938150A3
:1035C000F3CF911183CF8ACF283008F027E033273B
:1035D000DA01990F311D87FD916000966105710533
:1035E00039F432602E5F3D9330E32A95E1F7089578
:1035F0009F3F30F080387105610509F03C5F3C5F0A
:103600003D93913008F08068911DDF93CF931F9315
:103610000F93FF92EF92192F987F9695E92F969529
:103620009695E90FFF27EC5BFE4F99273327EE2491
:10363000FF24A701E70105900894079428F4360FAA
:10364000E71EF81E491F511D660F771F881F991F1F
:103650000694A1F70590079428F4E70EF81E491F79
:10366000561FC11D770F881F991F661F0694A1F76B
:103670000590079428F4F80E491F561FC71FD11D47
:10368000880F991F661F771F0694A1F7059007946E
:1036900020F4490F561FC71FD81F990F661F771FA9
:1036A000881F0694A9F784911095177041F0D6955C
:1036B000C79557954795F794E7941A95C1F7EAEEA1
:1036C000F0E068941590159135916591959105906C
:1036D0007FE27395E118F10A430B560BC90BD00931
:1036E000C0F7E10CF11E431F561FC91FD01D7EF409
:1036F000703311F48A95E6CFE894015030F0080F4A
:103700000AF40027021708F4202F2395022F7A339A
:1037100028F079E37D932A95E9F710C07D932A95E7
:1037200089F6069497956795379517951794E1183C
:10373000F10A430B560BC90BD00998F023957E91E3
:1037400073957A3308F070E37C932013B8F77E9179
:1037500070617D9330F0839571E37D9370E32A95DA
:10376000E1F71124EF90FF900F911F91CF91DF911E
:10377000992787FD90950895F999FECF92BD81BD57
:10378000F89A992780B50895262FF999FECF1FBA88
:1037900092BD81BD20BD0FB6F894FA9AF99A0FBE7A
:1037A000019608952F923F924F925F926F927F926F
:1037B0008F929F92AF92BF92CF92DF92EF92FF9241
:1037C0000F931F93CF93DF93CDB7DEB7CA1BDB0BED
:1037D0000FB6F894DEBF0FBECDBF09942A88398892
:1037E00048885F846E847D848C849B84AA84B98499
:1037F000C884DF80EE80FD800C811B81AA81B981A5
:10380000CE0FD11D0FB6F894DEBF0FBECDBFED01B8
:1038100008955058BB27AA270E94211C0C94DB1D39
:103820000E94CD1D38F00E94D41D20F039F49F3F36
:1038300019F426F40C94CA1D0EF4E095E7FB0C94E1
:103840009B1DE92F0E94EC1D58F3BA1762077307FE
:103850008407950720F079F4A6F50C94261E0EF443
:10386000E0950B2EBA2FA02D0B01B90190010C0190
:10387000CA01A0011124FF27591B99F0593F50F4A8
:10388000503E68F11A16F040A22F232F342F442700
:10389000585FF3CF469537952795A795F0405395F8
:1038A000C9F77EF41F16BA0B620B730B840BBAF0C8
:1038B0009150A1F0FF0FBB1F661F771F881FC2F733
:1038C0000EC0BA0F621F731F841F48F48795779547
:1038D0006795B795F7959E3F08F0B0CF9395880F01
:1038E00008F09927EE0F9795879508950E940E1E70
:1038F00090F09F3748F4911116F40C94271E60E065
:1039000070E080E89FE3089526F01B16611D711D8D
:10391000811D0C94A11D0C94BC1D0E94771D08F400
:1039200081E008950E94A61C0C94DB1D0E94D41D0A
:1039300058F00E94CD1D40F029F45F3F29F00C940F
:103940009B1D51110C94271E0C94CA1D0E94EC1D46
:1039500068F39923B1F3552391F3951B550BBB27BE
:10396000AA2762177307840738F09F5F5F4F220F03
:10397000331F441FAA1FA9F335D00E2E3AF0E0E8FA
:1039800032D091505040E695001CCAF72BD0FE2F44
:1039900029D0660F771F881FBB1F261737074807D8
:1039A000AB07B0E809F0BB0B802DBF01FF27935890
:1039B0005F4F3AF09E3F510578F00C949B1D0C949C
:1039C000271E5F3FE4F3983ED4F38695779567957D
:1039D000B795F7959F5FC9F7880F911D96958795C5
:1039E00097F90895E1E0660F771F881FBB1F6217E4
:1039F00073078407BA0720F0621B730B840BBA0BA2
:103A0000EE1F88F7E09508950E940B1D6894B11190
:103A10000C94271E08950E94F41D88F09F5798F07B
:103A2000B92F9927B751B0F0E1F0660F771F881FC3
:103A3000991F1AF0BA95C9F714C0B13091F00E94DD
:103A4000261EB1E008950C94261E672F782F882734
:103A5000B85F39F0B93FCCF3869577956795B39504
:103A6000D9F73EF490958095709561957F4F8F4F73
:103A70009F4F0895E89409C097FB3EF49095809578
:103A8000709561957F4F8F4F9F4F9923A9F0F92F24
:103A900096E9BB279395F695879577956795B795A2
:103AA000F111F8CFFAF4BB0F11F460FF1BC06F5F88
:103AB0007F4F8F4F9F4F16C0882311F096E911C09A
:103AC000772321F09EE8872F762F05C0662371F0BB
:103AD00096E8862F70E060E02AF09A95660F771FCF
:103AE000881FDAF7880F9695879597F90895990FAB
:103AF0000008550FAA0BE0E8FEEF16161706E807B8
:103B0000F907C0F012161306E407F50798F0621BD8
:103B1000730B840B950B39F40A2661F0232B242BAD
:103B2000252B21F408950A2609F4A140A6958FEFCC
:103B3000811D811D089597F99F6780E870E060E01E
:103B40000895882371F4772321F09850872B762FDE
:103B500007C0662311F499270DC09051862B70E0A1
:103B600060E02AF09A95660F771F881FDAF7880FB2
:103B70009695879597F908959F3F31F0915020F4DD
:103B8000879577956795B795880F911D9695879539
:103B900097F908959FEF80EC089500240A94161673
:103BA000170618060906089500240A94121613062B
:103BB000140605060895092E0394000C11F48823B9
:103BC00052F0BB0F40F4BF2B11F460FF04C06F5FD5
:103BD0007F4F8F4F9F4F089557FD9058440F551FAB
:103BE00059F05F3F71F04795880F97FB991F61F07F
:103BF0009F3F79F087950895121613061406551FF6
:103C0000F2CF4695F1DF08C0161617061806991F61
:103C1000F1CF869571056105089408950E94F41D01
:103C2000A0F0BEE7B91788F4BB279F3860F41616DA
:103C3000B11D672F782F8827985FF7CF86957795E6
:103C40006795B11D93959639C8F30895E894BB27FD
:103C500066277727CB0197F908950E94771D08F40E
:103C60008FEF0895FA01EE0FFF1F30962105310501
:103C7000A1F16115710561F48038BFE39B0749F13B
:103C800068949038810561F08038BFEF9B0741F060
:103C900099234AF5FF3FE1053105210519F1E89423
:103CA0000894E795D901AA2329F4AB2FBE2FF85F1A
:103CB000D0F310C0FF5F70F4A695E0F7F73950F02D
:103CC00019F0FF3A38F49F779F930DD00F9007FCBF
:103CD0009058089546F00C94CA1D60E070E080E8AA
:103CE0009FE308954FE79F775F934F933F932F9301
:103CF0000E942D1F2F913F914F915F910E94A91F0C
:103D00000C948A1E29F416F00C949B1D0C94261E0C
:103D10000C94CA1D0E94F41DA8F39638A0F707F86A
:103D20000F92E8942BE33AEA48EB5FE70E94BF1F4B
:103D30000F920F920F924DB75EB70F920E94751FB0
:103D4000E8E6F0E00E94BC1E4F915F91EF91FF9179
:103D5000E595EE1FFF1F49F0FE57E0684427EE0F80
:103D6000441FFA95E1F74195550B0E94EF1E0F9005
:103D700007FE0C94E31E0895DF93CF931F930F93D8
:103D8000FF92EF92DF927B018C01689406C0DA2EDD
:103D9000EF010E94BC1FFE01E894A5912591359189
:103DA00045915591A6F3EF010E94211CFE01970158
:103DB000A801DA9469F7DF90EF90FF900F911F91BF
:103DC000CF91DF9108959B01AC0160E070E080E845
:103DD0009FE30C94921C0C949B1D0C94BC1D0E94A0
:103DE000F41DD8F39923C9F3940F511DA3F39150F7
:103DF000504094F059F0882332F0660F771F881FE7
:103E000091505040C1F79E3F51052CF7880F911DEE
:103E10009695879597F908955F3FACF0983E9CF092
:103E2000BB27869577956795B79508F4B16093950C
:103E3000C1F7BB0F58F711F460FFE8CF6F5F7F4FFA
:103E40008F4F9F4FE3CF0C94271E16F00C94BC1D90
:103E50000C94CA1D68940C949B1D0E94F41DA8F339
:103E60009923C1F3AEF3DF93CF931F930F93FF9288
:103E7000C92FDD2788232AF02197660F771F881F17
:103E8000DAF720E030E040E85FEB9FE3883920F08C
:103E9000803E38F021968F770E940A1CE0E9F0E01E
:103EA00004C00E940A1CEDEBF0E00E94BC1E8B01D6
:103EB000BE01EC01FB2E6F5771097595771F880BBA
:103EC000990B0E943C1D28E132E741E35FE30E9429
:103ED000BC1FAF2D9801AE01FF900F911F91CF91A4
:103EE000DF910E94211C0C94DB1DFA01DC01AA0F5A
:103EF000BB1F9B01AC01BF5728F42227332744275F
:103F0000507820C0B75190F4AB2F002446953795D8
:103F10002795011CA395D2F3002071F0220F331FC7
:103F2000441FB395DAF30ED00C94091C613071056F
:103F3000A0E88A07B94630F49B01AC0166277727D1
:103F400088279078309621F02083318342835383F1
:103F500008950E94BC1F0C94DB1D0E94CD1D38F0FB
:103F60000E94D41D20F0952311F00C949B1D0C94FD
:103F7000CA1D11240C94271E0E94EC1D70F3959FFE
:103F8000C1F3950F50E0551F629FF001729FBB2750
:103F9000F00DB11D639FAA27F00DB11DAA1F649FEC
:103FA0006627B00DA11D661F829F2227B00DA11D9F
:103FB000621F739FB00DA11D621F839FA00D611D25
:103FC000221F749F3327A00D611D231F849F600D46
:103FD000211D822F762F6A2F11249F5750409AF06F
:103FE000F1F088234AF0EE0FFF1FBB1F661F771FFB
:103FF000881F91505040A9F79E3F510580F00C94C6
:104000009B1D0C94271E5F3FE4F3983ED4F38695E6
:1040100077956795B795F795E7959F5FC1F7FE2B65
:10402000880F911D9695879597F90895DB018F93D9
:104030009F930E948120BF91AF91A29F800D911DFF
:10404000A39F900DB29F900D1124089597FB072E0A
:1040500016F4009407D077FD09D00E94942007FC45
:1040600005D03EF4909581959F4F08957095619588
:104070007F4F0895A1E21A2EAA1BBB1BFD010DC0A4
:10408000AA1FBB1FEE1FFF1FA217B307E407F50708
:1040900020F0A21BB30BE40BF50B661F771F881FE4
:1040A000991F1A9469F760957095809590959B017A
:1040B000AC01BD01CF010895052E97FB1EF40094BD
:1040C0000E94732057FD07D00E943A2007FC03D0BE
:1040D0004EF40C94732050954095309521953F4FA8
:1040E0004F4F5F4F089590958095709561957F4FE4
:1040F0008F4F9F4F0895EE0FFF1F0590F491E02D15
:1041000009940E94A820A59F900DB49F900DA49F94
:10411000800D911D11240895B7FF0C9481200E94F9
:104120008120821B930B0895AA1BBB1B51E107C082
:10413000AA1FBB1FA617B70710F0A61BB70B881F37
:10414000991F5A95A9F780959095BC01CD010895C6
:10415000A29FB001B39FC001A39F700D811D1124C8
:10416000911DB29F700D811D1124911D0895DC01D8
:1041700001C06D9341505040E0F70895FB01DC0110
:104180004150504030F08D910190801919F4002079
:10419000B9F7881B990B0895FB01DC014150504091
:1041A00048F001900D920020C9F701C01D924150C6
:0A41B0005040E0F70895F894FFCFA7
:1041BA00010102FF01030101006A180000D4300066
:1041CA0053746174696F6E204E616D650000000062
:1041DA000028A07A4CD0248D4C60F5904CB832B5AA
:1041EA004C78F0A54C60FECD4C4054094DD0240DBE
:1041FA004D8845C84DA493D64D0C1DE04D4E844DB7
:10420A004E0024744CDAF89A4E04030503000000A9
:10421A0000DE03B1030D048703AA03970388030092
:10422A000000002D06F3020D042003606162632082
:10423A00646563696D616C0020646563696D616CB6
:10424A007300312E36204D487A00332E32204D48E5
:10425A007A006C6F7720006F6E20006F6666003EF2
:10426A003E003C3C004932432053414645204445E8
:10427A004641554C5400493243204552524F520050
:10428A00504C4C20436F6E74726F6C0056322E3253
:10429A000028432932303235204C6F656E6965003B
:1042AA00534554200045584954204D454E55003E2B
:1042BA00200073617665206368616E6765730064C8
:1042CA006973636172640063616E63656C0056436F
:1042DA004F2053455454494E475300534554207474
:1042EA006F20656E74657200504C4C2053455454CF
:1042FA00494E47530047454E4552414C2053455479
:10430A0054494E47530053455420746F2070726FBE
:10431A0063656564004652455155454E43592042EE
:10432A00414E44002D0053455420746F2073656C30
:10433A0065637400505245434953494F4E004558EE
:10434A0049542053455454494E4753005345542029
:10435A00746F20636F6E6669726D00493243204143
:10436A00444452455353003E203078005854414C3F
:10437A00204652455155454E4359004348415247FC
:10438A00452050554D50004F555450555420504FCC
:10439A0052545300616C6C206C6F77005032206865
:1043AA006967680050322F50352068696768005382
:1043BA00544154494F4E204E414D450053455420D7
:1043CA00746F2065646974004241434B4C49474805
:1043DA00542044494D4D4552004C4F434B20002038
:1043EA002020202000726573746F72696E67203016
:1043FA00780053455420746F207265737461727427
:02440A000000B0
:00000001FF
