:100000000C9465020C948D020C948D020C948D025C
:100010000C948D020C948D020C948D020C948D0224
:100020000C948D020C948D020C948D020C948D0214
:100030000C948D020C948D020C948D020C948D0204
:100040000C94DF270C948D020C948D020C948D027D
:100050000C948D020C948D020C948D020C948D02E4
:100060000C9429280C948D0253746174696F6E206E
:100070004E616D65002020007265747279696E674B
:100080002E2E2E00726573746F72696E6720307841
:1000900000493243204552524F52007265736574D5
:1000A00074696E672E2E2E00515549434B204D45E5
:1000B0004E550053595354454D204D454E55005310
:1000C000455256494345204D454E55003C3C003E67
:1000D0003E004C4F434B200053484F57204D454E58
:1000E00055205449544C45006F6666006F6E2000E1
:1000F0004241434B4C494748542044494D4D455299
:100100000053544154494F4E204E414D45005246F4
:100110002064726976653A2000756E6C6F636B655A
:10012000643A20006C6F636B65643A2000504F5254
:1001300054204D415050494E47006869676800643B
:10014000697361626C6564006C6F7720004348419D
:100150005247452050554D50005854414C2046526E
:10016000455155454E4359003E2030780020646586
:1001700063696D616C730020646563696D616C0017
:10018000505245434953494F4E0036342D31333098
:1001900030204D487A0055484600373020636D00C6
:1001A00032206D00464D20576F726C6400464D2022
:1001B0004A6170616E00464D204F495254005345CC
:1001C0005420746F2065646974004652455155454A
:1001D0004E43592042414E440053595354454D20FB
:1001E000555054494D4500636F756E743A2000496F
:1001F0003243205245434F5645524945530063759B
:100200007272656E743A203078004932432041445E
:1002100044524553530050372E2E50302000504F3B
:10022000525420434D4420307800504F52542043C4
:100230004D4400203078004E3A00504C4C20444948
:100240005649534F52003E393939392073006C6F8B
:10025000636B656420696E006C6F636B696E672009
:1002600020003C756E6B6E6F776E3E006E6F742073
:10027000696E697469616C697A656400504C4C20E0
:100280004C4F434B2054494D45002D2D2D002D2022
:10029000202D20202D20202D2D2D005037205035B1
:1002A0002050342050360039392B0020504F522036
:1002B000636E743A00464C3A00504C4C2053544103
:1002C00054555300464143544F52592052455345CB
:1002D0005400434C45415220444154413F006E6F0D
:1002E0002000796573004932432046414C4C42411D
:1002F000434B0053455420746F2076696577005353
:10030000595354454D20494E464F00284329323019
:100310003236204C6F656E69650046573A20563577
:100320002E322E3300444941474E4F5354494353D4
:100330000053455420746F2070726F6365656400CC
:1003400047454E4552414C2053455454494E47531E
:1003500000504C4C2053455454494E47530053458C
:100360005420746F20656E7465720056434F20539D
:10037000455454494E4753003C656D7074793E00B6
:100380003E204D003E4D003E2072657475726E0039
:1003900053415645200053455420746F2073656CBB
:1003A0006563740053455420746F20746F67676CE5
:1003B00065004C4344204F4646004F4646004F4E92
:1003C0000052462044524956453A2000434C45418C
:1003D00052204D454D4F52590053415645204D45F1
:1003E0004D4F525900524543414C4C204D454D4FC5
:1003F00052590063616E63656C0064697363617276
:10040000640073617665206368616E676573003EA2
:10041000200045584954204D454E55005345542021
:100420000052462044524956453A204F464600560F
:10043000352E322E3300504C4C20434F4E54524FE9
:100440004C4C45520053455420746F20636F6E66C8
:1004500069726D0052455455524E20544F204D45FF
:100460004E5500204D487A006E6F6E65000000000A
:1004700000240027002A0000000000250028002B8F
:1004800000000000002300260029000404040404E6
:100490000404040202020202020303030303030131
:1004A0000204081020408001020408102001020408
:1004B00008102000000008000201000003040700EB
:1004C0000000000000000000EB2A11241FBECFEF47
:1004D000D8E0DEBFCDBF11E0A0E0B1E0EAE8F0E691
:1004E00002C005900D92A837B107D9F723E0A8E71D
:1004F000B1E001C01D92AF32B207E1F712E0C5E6EC
:10050000D2E004C02197FE010E94F22FC436D10729
:10051000C9F70E94192B0C9443300C9400008330CF
:1005200081F028F4813099F08230A9F00895873065
:10053000A9F08830C9F08430B1F4809180008F7DBB
:1005400003C0809180008F7780938000089584B5E8
:100550008F7784BD089584B58F7DFBCF8091B000E7
:100560008F778093B00008958091B0008F7DF9CF90
:10057000CF93DF93282F30E0F901ED54FB4F8491A6
:10058000F901E156FB4FD491F901E557FB4FC491B6
:10059000CC23A1F081110E948F02EC2FF0E0EE0F2E
:1005A000FF1FEF57FB4FA591B491EC91ED2381E034
:1005B00090E009F480E0DF91CF91089580E090E031
:1005C000FACF1F93CF93DF93282F30E0F901ED543A
:1005D000FB4F8491F901E156FB4FD491F901E557A6
:1005E000FB4FC491CC23A9F0162F81110E948F02DA
:1005F000EC2FF0E0EE0FFF1FE958FB4FA591B491EF
:100600008FB7F894EC91111108C0D095DE23DC93DC
:100610008FBFDF91CF911F910895DE2BF8CFCF933D
:10062000DF9390E0FC01E156FB4F249185579B4FEF
:10063000FC0184918823D1F090E0880F991FFC0180
:10064000E359FB4FA591B491FC01E958FB4FC591CB
:10065000D491623071F49FB7F8943C91822F8095C9
:1006600083238C93E8812E2B28839FBFDF91CF912A
:1006700008958FB7F894EC912E2B2C938FBFF6CF63
:10068000CF93DF93EC0161E086E00E940F03209797
:1006900031F460E086E0DF91CF910C94E102CF3F2E
:1006A000D10511F461E0F6CFE9EBF4E0E491E33039
:1006B00029F140F4E130B1F0E230D9F0C038D10591
:1006C0008CF7E7CFE73021F1E83051F1E430B1F7B2
:1006D00080918000806280938000D0938B00C093D3
:1006E0008A0004C084B5806884BDC7BDDF91CF9106
:1006F000089584B5806284BDC8BDF8CF8091800024
:10070000806880938000D0938900C0938800EECFEA
:100710008091B00080688093B000C093B300E6CFB2
:100720008091B00080628093B000C093B400DECFAF
:100730003FB7F8948091030390910403A0910503BF
:10074000B091060326B5A89B05C02F3F19F001966E
:10075000A11DB11D3FBFBA2FA92F982F8827BC011B
:10076000CD01620F711D811D911D42E0660F771F43
:10077000881F991F4A95D1F708958F929F92AF9243
:10078000BF92CF92DF92EF92FF924B015C010E94E9
:1007900098036B017C010E9498036C197D098E09F6
:1007A0009F09683E734081059105A8F321E0821AF4
:1007B0009108A108B10888EEC80E83E0D81EE11C9C
:1007C000F11C81149104A104B10429F7FF90EF906A
:1007D000DF90CF90BF90AF909F908F9008952FB7EC
:1007E000F8946091FF027091000380910103909151
:1007F00002032FBF0895CF92DF92EF92FF920F93E3
:100800001F930E94EF0300910703109108032091AA
:10081000090330910A036B017C01C01AD10AE20A74
:10082000F30A970186010A3F110521053105C0F041
:1008300060930703709308038093090390930A035E
:1008400085E00E94B80261E0892B09F060E085E054
:100850001F910F91FF90EF90DF90CF900C94E102E9
:100860001F910F91FF90EF90DF90CF900895089522
:100870000895AF92BF92CF92DF92EF92FF920F93C3
:100880001F93CF93DF936C017B018B01040F151F26
:10089000EB015E01AE18BF08C017D10759F069918E
:1008A000D601ED91FC910190F081E02DC6010995F2
:1008B000892B79F7C501DF91CF911F910F91FF909F
:1008C000EF90DF90CF90BF90AF9008950895209162
:1008D0006C02260F3327331F21323105ECF42091AF
:1008E0009002FC0190E080E0243069F082E00895FD
:1008F000A0916C022191AC01445B5D4FA40FB52F18
:10090000B11D2C930196861798F380916C02680FA5
:1009100060936C0280E0089581E008951092900247
:1009200081E0809392021092910261E082E10E9444
:10093000E10261E083E10E94E102E9EBF0E0808105
:100940008E7F808380818D7F808388E48093B80050
:1009500085E48093BC000895CF93DF9391E090935A
:10096000C3028823B9F0C091B800D091BA00809139
:10097000BC008A7B8093BC0060E082E10E94E102BF
:1009800060E083E10E94E1020E948E04D093BA00ED
:10099000C093B800DF91CF9108950895E091BD0212
:1009A0008091BC02E81730F4F0E0E45DFD4F8081F7
:1009B00090E008958FEF9FEF08959091BD02809190
:1009C000BC022FEF3FEF981748F4E92FF0E0E45D09
:1009D000FD4F208130E09F5F9093BD02C9010895D3
:1009E0008091BC029091BD02891B990B0895CF9212
:1009F000DF92EF92FF920F931F93CF93DF937C01CF
:100A0000CB018A0120912B02222389F0EB016B019B
:100A1000C40ED51ECC15DD0569F06991D701ED91A5
:100A2000FC910190F081E02DC7010995F3CF642F6F
:100A30000E946704C801DF91CF911F910F91FF9031
:100A4000EF90DF90CF900895CF93DF931F92CDB7B3
:100A5000DEB7698320912B022223F9F02091BA029C
:100A6000203258F021E030E0FC013383228390E013
:100A700080E00F90DF91CF9108958091BB02E82F25
:100A8000F0E0E55FFD4F998190838F5F8093BB021B
:100A90008093BA0281E090E0ECCF61E0CE01019654
:100AA0000E946704F7CF90E080E008952091040150
:100AB000422F50E0FA01E955FE4F208130E0220F2D
:100AC000331F240F351F96E0929FA001939F500D76
:100AD000112490E080589F4F840F951F880F991F15
:100AE000880F991F08950F931F93182F0E94EF03EB
:100AF000112371F01092D602109296011092970174
:100B000010929801109299011092950180E02DC0E9
:100B10002091D6023091F802332351F121110CC0FB
:100B200021E02093D6026093960170939701809301
:100B3000980190939901E8CF209195012111E6CF7A
:100B4000009196011091970120919801309199019F
:100B5000601B710B820B930B603273408105910512
:100B6000A8F281E08093950182E01F910F91089592
:100B7000222361F2809195011092D6021092960183
:100B8000109297011092980110929901109295017C
:100B900091E08927EACFCF92DF92EF92FF92CF9335
:100BA000DF930E94EF036B017C0182E00E94B80298
:100BB000C1E0892B09F0C0E0C093F90283E00E94F4
:100BC000B802D1E0892B09F0D0E0D093F80284E09C
:100BD0000E94B80221E0892B09F020E02093F7025F
:100BE000CD0FC20FC23018F081E080938801809150
:100BF00088018823F9F01092F7021092F8021092FF
:100C0000F9021092F6021092D6021092F502C1116A
:100C10000AC010928801C0928401D0928501E092AE
:100C20008601F0928701DF91CF91FF90EF90DF90E6
:100C3000CF9008958091840190918501A0918601C3
:100C4000B0918701C81AD90AEA0AFB0A82E3C816DA
:100C5000D104E104F10438F71092F7021092F8027F
:100C60001092F9021092F6021092D6021092F5023A
:100C7000DACFE091040184E0E89FF0011124E25B07
:100C8000FE4F608171818281938123E0660F771F1F
:100C9000881F991F2A95D1F739E096958795779502
:100CA00067953A95D1F708958F929F92AF92BF9230
:100CB000CF92DF92EF92FF92CF93E091040182E016
:100CC000E23020F4F0E0E45BFE4F8081C091070148
:100CD0008C1708F4C82F80E4C82E82E4D82E8FE049
:100CE000E82EF12C9AE0892E912CA12CB12CCC234A
:100CF00051F0C701B601A50194010E94D02F6901EE
:100D00007A01C150F4CF0E9439064B015C016C0D91
:100D10007D1D8E1D9F1D6150710981099109A501DD
:100D200094010E94D02FC22FAC2FB0E0A5019401F6
:100D30000E94F82FA70196010E94D02F672B682BE5
:100D4000692B11F0CF5FF0CF8C2FCF91FF90EF90F8
:100D5000DF90CF90BF90AF909F908F9008958F922B
:100D60009F92AF92BF92CF92DF92EF92FF920F933A
:100D70001F93CF93DF93082F5B01142FE9010E948B
:100D8000EF036B017C01F501002309F4B2C08081FF
:100D9000811121C0C0929E01D0929F01E092A001DA
:100DA000F092A101C0929A01D0929B01E0929C0125
:100DB000F0929D0181E08083812FFE01DF91CF9130
:100DC0001F910F91FF90EF90DF90CF90BF90AF9069
:100DD0009F908F90099480919E0190919F01A09186
:100DE000A001B091A10146015701881A990AAA0AE7
:100DF000BB0A8091FA02882309F453C0F8EE8F16DB
:100E0000F3E09F06A104B10408F456C00E94540602
:100E1000082F0E9439069B01AC01A8EEB3E00E94A6
:100E2000F82F9B01AC01A02FB0E00E94F82F24EF17
:100E300031E040E050E00E94D02F8CE2881A81E03F
:100E4000980AA108B108CA01B901A50194010E943C
:100E5000D02F2115310541055105D9F180919A0115
:100E600090919B01A0919C01B0919D014601570179
:100E7000881A990AAA0ABB0AD501C40182179307E6
:100E8000A407B507C8F02091ED023091FD0233238D
:100E900029F1222389F0883C9105A105B10560F074
:100EA0001FC020E530E040E050E0E8EE8E16E3E0C1
:100EB0009E06A104B10490F6DF91CF911F910F918E
:100EC000FF90EF90DF90CF90BF90AF909F908F906A
:100ED000089521E030E040E050E0C0CF2111DBCFA9
:100EE000C0929A01D0929B01E0929C01F0929D01E8
:100EF00063CF1082E1CF4F925F926F927F928F9279
:100F00009F92AF92BF92CF92DF92EF92FF92CF93D8
:100F1000DF932B013C01D42FC22F0E9439064B01D5
:100F20005C017C016B01481459046A047B0478F06D
:100F3000AFEFBFE7AC019B010E94F82F6B017C0172
:100F40004C145D046E047F0410F47301620161E0CF
:100F500070E080E090E0DD2331F00E945406682FBD
:100F600070E090E080E0A50194010E94A02F4B0169
:100F70005C01C13011F581E0C81AD108E108F1081F
:100F8000C701B601680D791D8A1D9B1DA50194013D
:100F90000E94D02FC501B4010E94A02FDF91CF91F4
:100FA000FF90EF90DF90CF90BF90AF909F908F9089
:100FB0007F906F905F904F900895C701B601CF3F2B
:100FC00029F3C501B40196958795779567956C0DC2
:100FD0007D1D8E1D9F1DDACF2091E401ECEFF1E025
:100FE000222331F0EEEFF1E0213011F4EDEFF1E0EA
:100FF00039E048E057E090818F3F11F59830C9F40F
:10100000508390819830A0F4222331F06091FC014C
:10101000961761F0213031F06091FD01961731F0A3
:10102000223031F06091FE01961302C0315019F761
:101030000895911102C04083E4CF91509083E1CF95
:10104000983011F41082DDCF9730A9F39F5FF6CF6F
:10105000CF92DF92EF92FF920F931F930E94EF03C4
:101060008B019C0180917C0190917D01A0917E017A
:10107000B0917F01C0908001D0908101E090820109
:10108000F09083018C199D09AE09BF09BC01CD0107
:10109000600F711F821F931F60937C0170937D010D
:1010A00080937E0190937F010093800110938101D2
:1010B0002093820130938301683E23E0720781050B
:1010C000910510F128EE33E040E050E00E94D02F6F
:1010D000C0907801D0907901E0907A01F0907B0186
:1010E0002C0D3D1D4E1D5F1D20937801309379011D
:1010F00040937A0150937B0160937C0170937D0152
:1011000080937E0190937F016091780170917901C5
:1011100080917A0190917B011F910F91FF90EF9048
:10112000DF90CF9008958F929F92AF92BF920F93CE
:101130001F93CF93DF93CDB7DEB7A1970FB6F89487
:10114000DEBF0FBECDBF19A2423008F44AE08E01C7
:101150000F5D1F4F842E912CB12CA12CA501940161
:101160000E94D02FE62FB901CA01EA3044F5E05DB4
:10117000D801EE938D01232B242B252B79F790E0BA
:1011800080E0109769F0FD0101900020E9F73197A8
:10119000AF014A1B5B0BBD0187E193E00E9439045C
:1011A000A1960FB6F894DEBF0FBECDBFDF91CF91F1
:1011B0001F910F91BF90AF909F908F900895E95C21
:1011C000D7CFFC0101900020E9F73197AF01481B10
:1011D000590BBC0187E193E00C943904CF93DF9362
:1011E000EC0160E08E810E94E10261E08E810E944C
:1011F000E10260E08E810E94E1028BE891E00197BC
:10120000F1F7DF91CF910895CF92DF92EF92FF92A5
:101210000F931F93CF93DF936C017C0187E0E80E5F
:10122000F11CD0E0C0E0062F10E0B8010C2E02C087
:10123000759567950A94E2F76170F70181917F01D6
:101240000E94E1022196C430D10579F7C601DF91F1
:10125000CF911F910F91FF90EF90DF90CF900C9462
:10126000EE08CF92DF92EF92FF920F931F93CF93EE
:10127000DF93EC01F62E642F8C810E94E1028D81B8
:101280008F3F19F060E00E94E1020F2D10E08F8582
:1012900084FF25C06E0187E0C80ED11CF12CE12C23
:1012A000B8010E2C02C0759567950A94E2F761703B
:1012B000F60181916F010E94E102FFEFEF1AFF0A30
:1012C00088E0E816F10461F7CE01DF91CF911F911C
:1012D0000F91FF90EF90DF90CF900C94EE08B80143
:1012E00084E0759567958A95E1F7CE010E9404091F
:1012F0006F2DCE01DF91CF911F910F91FF90EF9055
:10130000DF90CF900C94040941E00E94310981E004
:1013100090E008950F931F93CF93DF938C01D0E05B
:10132000C0E0F801EC0FFD1F6491662339F041E045
:1013300087E193E00E9431092196F3CFCE01DF913E
:10134000CF911F910F91089541E0682F87E193E0BD
:101350000E94310981E090E00895BC01990F880B4B
:10136000990B4AE00C94930840E0682F87E193E0E2
:101370000C94310981E00E94B4098BE39FE101974D
:10138000F1F70895CF93DF93823029F490912603EB
:1013900098609093260380932A0310922B0380E495
:1013A00080932C0380E180932D0380E580932E03AE
:1013B00061E080911B030E940F0380911C038F3F0B
:1013C00019F061E00E940F0361E080911D030E940B
:1013D0000F03C7E1D3E09E012751334080912603DC
:1013E00084FD0BC084E090E021962817390744F46F
:1013F00061E08E810E940F03EECF88E090E0F4CF91
:101400008BE39DE00197F1F760E080911B030E9460
:10141000E10260E080911D030E94E10280911C03C3
:101420008F3F19F060E00E94E1028091260384FD65
:1014300034C063E087E193E00E940409CBE4D6E482
:10144000CE010197F1F763E087E193E00E94040980
:101450002197F1F763E087E193E00E94040983E5B7
:1014600092E00197F1F762E087E193E00E940409BE
:101470008091260380620E94B40984E08093270350
:101480008CE00E94B4090E94BA0982E0809328038C
:1014900086E0DF91CF910C94B40980620E94B40978
:1014A0008BE496E40197F1F78091260380620E9415
:1014B000B40983E592E00197F1F7809126038062F9
:1014C0000E94B409D5CF90912A03691710F06FEFED
:1014D000690FE62FF0E0E95EFC4F9489890F806880
:1014E0000C94B409CF93C82F60E08FE00E94630A88
:1014F0008C2FCF910C94A409CF93DF93982F862F34
:10150000D42FC22F692F0E94630ACD1728F480E2DE
:101510000E94A409CF5FF9CFDF91CF910895CF93B7
:10152000DF93EB01682F80E00E94630ACE01DF9118
:10153000CF910C94E10885ED8093BC008091BF02AF
:101540009091C002A091C102B091C2020796A11D64
:10155000B11D23E0B695A795979587952A95D1F764
:101560002091BC0024FD03C0109290020895409188
:10157000BF025091C0026091C1027091C202452B1E
:10158000462B472B69F30097A105B10541F02AE2EC
:101590002A95F1F700C00197A109B109E1CF809127
:1015A000BE020C94AC04CF92DF92EF92FF920F93A5
:1015B0001F93CF93DF93EB017B0124E0E20EF11C3C
:1015C0008B016C01C61AD70AC601800F911F0E94B9
:1015D0008A2FF80181938F01EE15FF05A9F7CE013F
:1015E000DF91CF911F910F91FF90EF90DF90CF90FF
:1015F0000895CF92DF92EF92FF920F931F93CF93B4
:10160000DF93863010F020E04AC0EB010E945605BF
:10161000BE010E94D30AC880D980EA80FB808FEF88
:10162000C816D806E806F80671F3E0910401F0E068
:10163000E955FE4FC08188E0C89FE0011124CC5ECF
:10164000DE4F88819981AA81BB81C816D906EA0636
:10165000FB06C8F20E9439069B01AC01AFEFBFE761
:101660000E94F82F0C811D812E813F816017710728
:101670008207930710F48B019C010C151D052E05A4
:101680003F0508F220E040E0C701B6010E947B0759
:1016900021E0C616D706E806F90609F0B4CF822F76
:1016A000DF91CF911F910F91FF90EF90DF90CF903E
:1016B00008950C948A2F2F923F924F925F926F92CF
:1016C0007F928F929F92AF92BF92CF92DF92EF92D2
:1016D000FF920F931F93CF93DF93CDB7DEB72A9777
:1016E0000FB6F894DEBF0FBECDBF8CE390E00E9432
:1016F000590B873008F082E08093A7018DE390E0DA
:101700000E94590B873008F082E08093A8018091F5
:1017100004018987882E912CF401E955FE4F9081B0
:101720009A87A92EB12C850143E0000F111F4A951D
:10173000E1F70C5E1E4FD8018D919D910D90BC91EB
:10174000A02D8D839E83AF83B88721E041E0BC014B
:10175000CD010E947B076B017C01C0920302D092F5
:101760000402E0920502F0920602F80144805580DE
:10177000668077802FEF41E0C301B2010E947B07B2
:101780001B018C01609307023092080280930902CA
:1017900010930A02FA85F73008F075C08985823007
:1017A00008F071C0C501880F991F880D991D880F19
:1017B000991F880F991FBE016F5F7F4F865A9F4FF9
:1017C0000E94D30A89809A80AB80BC808D819E81E3
:1017D000AF81B88588169906AA06BB0698F10E94C3
:1017E00039069B01AC01AFEFBFE70E94F82F461608
:1017F00057066806790610F4C301B2016815790529
:101800008A059B05F8F020E040E0C501B4010E9484
:101810007B07681579058A059B05A1F420E041E066
:10182000C501B4010E947B076C157D058E059F05DF
:1018300048F0610178016C157D058E059F0510F457
:101840006B017C01C092DC02D092DD02E092DE02EC
:10185000F092DF022A960FB6F894DEBF0FBECDBF1E
:10186000DF91CF911F910F91FF90EF90DF90CF907C
:10187000BF90AF909F908F907F906F905F904F90B0
:101880003F902F9008958D819E81AF81B885892BDF
:101890008A2B8B2BB9F6812C912C5401B4CF4F920B
:1018A0005F926F927F928F929F92AF92BF92CF92F0
:1018B000DF92EF92FF920F931F93CF93DF938C01F0
:1018C0002A013B01C22FD0E030E4832E32E4932E74
:1018D0003FE0A32EB12CC12CD12C7601C394DC1790
:1018E000A1F0AAE0B0E0A70196010E94F82F6B01D9
:1018F0007C01C501B4012AE030E040E050E00E94E4
:10190000D02F49015A01DF5FEACFC501B401969596
:10191000879577956795640D751D861D971DA501A3
:1019200094010E94D02FCA01B901A70196010E941B
:10193000D02F29013A014B015C012AE0A801C30123
:10194000B2010E94582FF80101900020E9F7319769
:10195000E01BF10BDD2389F1E801CE0FDF1F8EE2E2
:101960008993C701B6012AE030E040E050E00E94D0
:10197000D02F69017A018AE0482E512C612C712CFC
:10198000C114D104E104F104B9F0C501B401A70107
:1019900096010E94D02FCA01B901A30192010E94B1
:1019A000D02F605D6993C701B601A30192010E9427
:1019B000D02F69017A01E4CF1882DF91CF911F9176
:1019C0000F91FF90EF90DF90CF90BF90AF909F90DE
:1019D0008F907F906F905F904F900895CF92DF929D
:1019E000FF920F931F93CF93DF93CDB7DEB7299765
:1019F0000FB6F894DEBF0FBECDBFF82E690120915F
:101A000007018E010F5F1F4FC8010E944F0CC114C8
:101A1000D10439F06F2D80E00E94630AC6010E9454
:101A20008A09F80101900020E9F731979F01201BF6
:101A3000310B48E064E08F2D0E947C0AC8010E94AF
:101A4000E10883E694E00E948A0929960FB6F8948B
:101A5000DEBF0FBECDBFDF91CF911F910F91FF90E1
:101A6000DF90CF900895EF92FF920F931F93CF9343
:101A7000DF9386E490E00E94590BC82F8111C1E0EA
:101A8000C093040188E290E00E94590BEC2FF0E033
:101A9000E45BFE4F9081891708F4982F909307011B
:101AA0000E945B0B80E590E00E94590B843008F0A7
:101AB00081E08093080182E390E00E94590B83301B
:101AC00008F081E08093030186E590E00E94590BC5
:101AD000C82F87E590E00E94590BD82F88E590E049
:101AE0000E94590BCF3F09F05BC0DF3F09F05AC09D
:101AF0008F3F09F057C085E08093010186E0809315
:101B0000020182E0809300010BEC11E07801CAE051
:101B1000D0E0CE010E948A2FF70181937F012196A8
:101B2000CB31D105B1F79091DB011092DB01F801C7
:101B300081918F0180528F3530F4F1E00B3D1F070A
:101B4000B1F7992391F04CE050E068E670E08BEC3F
:101B500091E00E94462F44E050E060E270E087EDA3
:101B600091E00E943C301092DB018EE190E00E94F7
:101B7000590B91E0811101C090E09093090183E23B
:101B800090E00E94590B91E0811101C090E0909388
:101B90000501DF91CF911F910F91FF90EF90089574
:101BA000C83008F0C8E0C0930101D83008F0D8E090
:101BB000D0930201883008F088E080930001D8308B
:101BC00029F0CD1303C098E090930201883009F406
:101BD0009BCFC81721F090910201891395CF88E01F
:101BE00091CFFF920F931F93CF93DF93EC018B0163
:101BF000F42E40E150E060E270E00E943C30188A30
:101C0000C8010E944F2F813108F080E1482F50E039
:101C100080E0FF2031F080E190E0841B950B9595EA
:101C20008795B8018C0F9D2F911DDF91CF911F914A
:101C30000F91FF900C94462FCF93C091FD02CC23BF
:101C400009F451C08091EF02843008F04BC09091AC
:101C5000F90180910801981346C09091FA01809192
:101C60000401981340C09091FB01809103019813E7
:101C70003AC09091FC0180910101981334C0909179
:101C8000FD018091020198132EC09091FE01809178
:101C90000001981328C09091FF01809107019813CB
:101CA00022C042E050E067EA71E087EF91E00E94D5
:101CB0002630892BC1F4909100028091090198137C
:101CC00012C0909101028091050198130CC041E16E
:101CD00050E06BEC71E086EE91E00E942630C1E0AE
:101CE000892B09F4C0E08C2FCF9108952F923F9259
:101CF0004F925F926F927F928F929F92AF92BF921C
:101D0000CF92DF92EF92FF920F931F93CF93DF93C7
:101D1000CDB7DEB7EB970FB6F894DEBF0FBECDBFE1
:101D2000082F162FE090E402EE2009F446C0893017
:101D300009F447C08B30A1F08A3009F442C0809189
:101D4000FD02882309F4D1C08091EF0284508230D3
:101D500008F0CBC0033009F434C0063009F0C5C028
:101D60008091E1018823A1F0809127038D7F8093EA
:101D7000270388600E94B4091092DD011092DE01F1
:101D80001092DF011092E0011092E1011092DC014B
:101D900001500B3008F04DC0E02FF0E0EE52F14F53
:101DA0000C94F22F2C0F8E0FA70FE60E6D16CC168B
:101DB000A017AF17C617B4172E16863089F28B30CE
:101DC00079F21092E201043009F0CACF0091E101EA
:101DD000112309F452C71091020261E0812F0E9481
:101DE000630A011142C761E080E00E94630A86EE47
:101DF00091E00E94E10861E0809102020E94630A82
:101E00000E94EF036093DD017093DE018093DF0198
:101E10009093E00181E08093E1018093DC01809167
:101E20002703982F9260909327038A600E94B40939
:101E30004EC00E94BA0960E081E00E94630A86E316
:101E400094E00E948A0961E085E00E94630A8FE2C3
:101E500094E00E948A093BC0112369F04091DC02A2
:101E60005091DD026091DE027091DF0230E020E0EF
:101E700080E00E94EE0C61E080E00E94630A8091A5
:101E80000A01811120C00E94EF0328EE33E040E0F8
:101E900050E00E94D02F20FF16C040E150E060E2E9
:101EA00070E0CE0101960E943C30198ABE016F5F3E
:101EB0007F4F81E00E948F0A61E080E00E94630A08
:101EC00081E294E0C6CF8BEC91E00E94E108809122
:101ED000EF028450823008F42BC28091C50288231F
:101EE00021F08091C402811128C2EB960FB6F894BC
:101EF000DEBF0FBECDBFDF91CF911F910F91FF903D
:101F0000EF90DF90CF90BF90AF909F908F907F9099
:101F10006F905F904F903F902F9008958091FA02BC
:101F2000811107C061E00E94630A8CE194E00E9485
:101F30008A094091DC025091DD026091DE027091CD
:101F4000DF0230E020E081E00E94EE0CC0CF1111F2
:101F50000E94BA0960E080E00E94630A0091EC02EE
:101F6000002309F160E080E00E94630A82E194E0CE
:101F70000E948A0961E080E00E94630A8FE094E099
:101F80000E948A098091EE02813051F030F0823057
:101F900009F09DCF83EF93E05CCF82E094E059CFCE
:101FA0008AEF93E056CF8091EF028630F1F51091E1
:101FB000EE02123019F1A8F41123E9F089ED93E053
:101FC0001130B1F061E080E00E94630A84EA93E09E
:101FD000133009F43ECF1450123020F585E494E01C
:101FE00038CF1430E1F068F082E194E0153051F719
:101FF0000E948A09E7CF85EE93E0FACF8CEC93E05C
:10200000F7CF81EC93E00E948A0980910A0188232E
:1020100019F08EEB93E0ECCF8AEB93E0E9CF82EB03
:1020200093E0E6CF86E993E014CF873009F0B5C09E
:102030008091E301813009F456C008F44FC082302A
:1020400009F45FC061E080E00E94630A1091EE0233
:1020500087E893E0163009F4FCCE1A8A1B8A1C8AA2
:102060001D8ABE016E5E7F4F812F0E94F90A882370
:1020700009F480C04A885B886C887D8800910401DF
:10208000802F90E010E020E4C22E22E4D22E2FE038
:10209000E22EF12C9C01245B3E4F19013AE0832E85
:1020A000912CA12CB12C82E0023010F4F10180813E
:1020B000181750F5C301B201A70196010E94D02F55
:1020C000672B682B692B01F1C701B601A5019401AB
:1020D0000E94D02F69017A011F5FE5CF85EE93E062
:1020E0000E948A09AFCF4091E0025091E1026091D5
:1020F000E2027091E30220E933E080E00E94EE0CFE
:10210000A1CF8CEC93E0ECCF20910701211708F4CC
:10211000212FB301A201CE0101967C010E944F0C38
:10212000F70101900020E9F7EE19ED5FE03100F5CD
:102130001FE01E1B80E893E0153010F484E893E064
:102140000E948A098091EE0290E001960E94AD09FA
:102150008AE30E94A40961E0812F0E94630A80E261
:102160000E94A409C7010E94E10883E694E071CEB1
:1021700010E0E4CF80E893E00E948A09812F90E08C
:1021800001960E94AD098AE30E94A40961E089E0FA
:102190000E94630A88E793E05CCE81112DC0809194
:1021A000EE02813019F1B8F0823019F1833009F074
:1021B0008ECE82E194E00E948A090E941C0E882340
:1021C00019F08AE20E94720A61E080E00E94630ACC
:1021D00081E393E03ECE8BE693E00E948A0961E0C2
:1021E00080E00E94630A8EE593E033CE81E593E0C0
:1021F000F4CF80E493E0F1CF843009F05AC08091AD
:10220000EE02823089F1A0F4882301F1813009F0D7
:102210005ECE8091EB028823E1F08AE193E00E9498
:102220008A0961E080E00E94630A8BE093E011CEAE
:10223000833091F1843009F04ACE82E194E00E942B
:102240008A0961E080E00E94630AC8CE85E293E0DB
:10225000C4CF8FEF92E00E948A0961E080E00E9483
:10226000630A83EF92E0F5CD86EE92E00E948A0940
:1022700061E080E00E94630A8091EB02882309F408
:10228000D1CE8FE094E00E948A098091E9028823F0
:1022900069F082EE92E0DDCD8091EA02882319F0A8
:1022A00082ED92E0E3CF84EC92E0E0CF8EED92E01D
:1022B000D0CD853009F043C3E091EE02E93008F05B
:1022C00006CEF0E0EA59FE4E0C94F22F6F11D711B2
:1022D0004C122D138013DD13EF132014AB14F09068
:1022E000C702FF2071F1E1102EC08091C502882342
:1022F00021F08091C4028A3030F50091C80206FBBB
:10230000002700F9111121C08091CA018F1121C04D
:10231000FF2041F081E09091C901911101C080E05E
:10232000801317C09091C6028091C801981311C004
:102330008091E402882309F4D0CD81E20E94720AE0
:10234000D4CD00E0DFCFF12CDDCF89EB92E00E940D
:102350008A0961E080E00E94630A85EB92E00E94B6
:102360008A09FF20D9F0802F90E00E94AD098BEA06
:1023700092E00E948A096091C602643698F470E087
:1023800090E080E04AE00E949308F092CA01009336
:10239000C9018091C6028093C80199CD8DE20E9447
:1023A000A409E5CF87EA92E00E948A09EECF009166
:1023B000C7028091C502002351F0E11007C08823B5
:1023C00031F001E09091C4029A3008F000E0909161
:1023D000C8029BA3811145C08091C7018A8B11114E
:1023E00042C02091CA0120130CC0002309F46FCD14
:1023F0002091C901921305C09091C801981709F462
:1024000066CD61E080E00E94630A8EE892E00023DE
:10241000E9F0CE0142969A83898341969C838B830F
:1024200045E067E082970E94692944E065E0CE01BB
:1024300001960E94692943E064E0CE0101960E9462
:1024400069298A8986FF14C08AE892E00E948A0975
:102450008BA18093C9018A898093C8010093CA0126
:1024600036CD80E0BBCF8BE992E00E948A09C9CFCC
:1024700082E0E82EF12C8BA190E00E2C02C0959505
:1024800087950A94E2F7817099270E94AD0991E03F
:10249000E91AF10880F7DCCF8091C502882391F01A
:1024A000112309F414CD8CE792E00E948A0961E0BF
:1024B00080E00E94630A8CE692E00E948A091092F2
:1024C000BF0105CDE1100EC08090BB019090BC0112
:1024D000A090BD01B090BE01FFEF8F169F06AF0622
:1024E000BF0671F4112309F4F2CC8CE792E00E944C
:1024F0008A0961E080E00E94630A82E692E0DDCF13
:102500000091B901112309F45EC58CE792E00E94A5
:102510008A0961E080E00E94630A88E592E0011187
:1025200002C08EE492E00E948A090093BA01B0EAE8
:102530004B2EB6E85B2E66246394712C002389F041
:102540000E94EF032B013C01481859086A087B08D8
:102550005301420100E4402E02E4502E0FE0602EB1
:10256000712C9E012F5F3F4F690130E8831636E9D9
:10257000930638E9A306B10408F067C0C501B401A9
:1025800028EE33E040E050E00E94D02F2CAB3DAB72
:102590004EAB5FAB68AF79AF8AAF9BAF2AE0A601C5
:1025A0006CA97DA98EA99FA90E94582FF6010190C0
:1025B0000020E9F7AF01415051097A0184149504D4
:1025C000A604B704A0F48EE2FA01808368AD79AD69
:1025D0008AAD9BAD24E630E040E050E00E94D02F71
:1025E000205DF701218397012E5F3F4F790180E243
:1025F000F701808383E781831282F6010190002036
:10260000E9F731977F01EC18FD085701BB24FFEF74
:10261000AF1ABF0A111109C0A5016FEB71E0C60125
:102620000E942630892B09F452CC2E2D47E069E018
:1026300081E00E947C0AC6010E94E108A501B60162
:102640008FEB91E00E94333042CC48E050E066E4EA
:1026500072E0C6010E94462FD0CF112309F468CE44
:102660008AE392E00E948A0961E080E00E94630AA6
:102670008091C50281110DC0C090E002D090E102AE
:10268000E090E202F090E302C114D104E104F1040D
:1026900019F48CE692E0DDCB0E9439069B01AC0177
:1026A000C701B6010E94D02F69017A01890187E331
:1026B00092E00E948A09EE24FF244AE0C701B60195
:1026C0000E94930883E392E00E948A09011520E1A9
:1026D000120780F480E30E94A4090F3F110509F05E
:1026E00048F480E30E94A4090031110518F480E346
:1026F0000E94A40940E1C701B6010E949308E7CBFC
:102700008091C50281110CC08091E0029091E1029C
:10271000A091E202B091E302892B8A2B8B2B61F40A
:10272000112309F405CE8AE292E00E948A0961E051
:1027300080E00E94630AADCF0091C701111130C043
:102740008091C901801709F4F3CD60E08BE00E940D
:10275000630A003118F480E30E94A409602F70E03E
:1027600090E080E040E10E94930861E087E00E94F1
:10277000630A07E010E08091C70190E0002E02C0DC
:10278000959587950A94E2F7817099270E94AD0983
:102790000150110980F78091C7018093C90197CB3F
:1027A0008EE192E00E948A0961E080E00E94630A63
:1027B00086E192E00E948A09C8CF112309F4B8CDBE
:1027C0008AE092E00E948A0961E080E00E94630A48
:1027D0008EEF91E00E948A09E091080191C1009179
:1027E000B801111110C08091C801801709F4A0CD63
:1027F00020E043E067E081E00E947C0A61E087E03E
:102800000E94630A0CC08FEE91E00E948A0961E089
:1028100080E00E94630A87EE91E00E948A090436F4
:1028200050F4602F70E090E080E04AE00E9493084E
:102830008091B801B0CD87EA92E00E948A09F8CF72
:102840000E9428082B013C01111127C08091B4017E
:102850009091B501A091B601B091B701841595058D
:10286000A605B70509F433CBB301A201CE01429608
:102870000E94C7291123B1F061E080E00E94630A41
:10288000CE0142960E94E1084092B4015092B501F7
:102890006092B6017092B7011ACB89ED91E00E9467
:1028A0008A09E2CF4091B4015091B5016091B6011F
:1028B0007091B701CE0101960E94C72910E0812FC7
:1028C00090E0A2E1CA2ED12CCC0EDD1EC80ED91E7E
:1028D00041E050E04C0F5D1F840F951FF6012081F1
:1028E000FC018081EE24E394E10E281304C01E2D28
:1028F000103128F3C9CF61E0812F0E94630AF12CC7
:10290000F2E1AF2EB12CAC0EBD1EAE0CBF1C21E00F
:1029100030E02C0F3D1FE20EF31E1F5FF601819188
:102920006F010E94A409103108F0AECFF50191911A
:102930005F01F70181917F019813EFCFC0CF813004
:1029400009F068C08091EE02813009F441C030F096
:10295000823009F0BCCA0E948C29B9CA8AEC91E085
:102960000E948A0961E080E00E94630A8091EB0284
:10297000811103C08EEB91E06CCA8FE094E00E945D
:102980008A09E091FA01F0E0EA51FE4F8189823034
:10299000B1F038F4882369F0813071F08AE891E071
:1029A00058CA843091F070F08530C1F786E991E023
:1029B00050CA86EB91E04DCA8DEA91E04ACA84EA9A
:1029C00091E047CA80EA91E044CA8AE991E041CAAD
:1029D00080E891E00E948A0961E080E00E94630A39
:1029E0008091EB02882331F28FE094E00E948A0903
:1029F0006091FF0170E090E080E04AE00E9493085F
:102A00008091FF01813019F487E791E022CA8DE6B9
:102A100091E01FCA823009F0DBC08091EE02823063
:102A200009F477C008F052C0882309F456C08130F9
:102A300009F04DCA89E591E00E948A0961E080E0D1
:102A40000E94630A8091EB02882309F493CF8FE000
:102A500094E00E948A09E091FA0124E0E29FF001EB
:102A60001124E25BFE4F6081718182819381E0E4F9
:102A7000CE2EE2E4DE2EEFE0EE2EF12CA701960141
:102A80000E94D02FCA01B9014AE00E9493088EE249
:102A90000E94A409E091FA0134E0E39FF0011124BF
:102AA000E25BFE4F6081718182819381A701960173
:102AB0000E94D02F20EA36E841E050E00E94D02F5B
:102AC000CA01B9014AE00E9493084FCB833009F450
:102AD00040C0843009F43FCFFAC98AE092E00E94F6
:102AE0008A0961E080E00E94630A8091EB028823FA
:102AF00009F440CF88E691E00E948A09E091F9014B
:102B0000F0E0EA5AFE4F608170E090E080E040E142
:102B1000F4CD8DE491E00E948A0961E080E00E949A
:102B2000630A8091EB02882309F424CF8FE094E0BC
:102B30000E948A098091FB01882329F0813031F4B9
:102B40008AE391E086C988E491E083C98FE391E04C
:102B500080C98DE291E00E948A098091EB0261E0D8
:102B6000882309F449C080E20E94A4098091E4010D
:102B700090E001960E94AD098FE20E94A40983E0D3
:102B800090E00E94AD0961E080E00E94630A8FE05E
:102B900094E00E948A098091E401811109C084E2D5
:102BA00091E00E948A098091FC010E9498298FC9B6
:102BB000813039F489E191E00E948A098091FD0118
:102BC000F4CF8EE091E00E948A098091FE01EDCF62
:102BD000833009F07CC98091EE02813081F030F0C1
:102BE000823029F1833009F4B6CE71C981E091E0D9
:102BF0000E948A0961E080E00E94630ABBCE80EFF8
:102C000090E00E948A0961E080E00E94630A80915E
:102C1000EB02882309F4AECE8FE094E00E948A098B
:102C2000809100028823B9F08CEE90E012C988ED03
:102C300090E00E948A0961E080E00E94630A80912E
:102C4000EB02882309F496CE8FE094E00E948A0973
:102C500080910102E7CF88EE90E0FBC881E211117C
:102C600001C080E20E94720A32C9E12FF0E0EA510D
:102C7000FE4F80810E94A409BEC8002309F427C921
:102C80000E94EF030091DD011091DE012091DF0130
:102C90003091E001601B710B820B930B6039714026
:102CA0008105910508F413C90E94EF036093DD01CB
:102CB0007093DE018093DF019093E0019091DC013D
:102CC00081E098279093DC01809127039111A9C896
:102CD0008D7F809327038860A9C88091CD028823C7
:102CE00039F060E080E00E94630A82ED90E0B1C8B4
:102CF0000E94EF030091B0011091B1012091B20147
:102D00003091B3012B013C01401A510A620A730A47
:102D1000930182010A3F11052105310508F4D7C846
:102D20006093B0017093B1018093B2019093B301AD
:102D300060E080E00E94630A80E20E94A40980E2D1
:102D40000E94A40980E20E94A40980E20E94A409D2
:102D500080E20E94A4091091AF0160E0812F0E94DF
:102D6000630A009106018FEC90E0011102C08CEC27
:102D700090E00E948A0981E0011101C08FEF810F6C
:102D80008093AF01882319F0833009F0A0C881E057
:102D90000827009306019BC88091050181110AC094
:102DA0001092E201112309F492C861E083E00E94CD
:102DB000760E8DC8111105C08091E201882309F4B7
:102DC00086C88091EF022FEBE22E20E0F22E35E252
:102DD000C32E33E0D32E843091F043EBE42E40E059
:102DE000F42E5BE6C52E53E0D52E863040F088EAFF
:102DF000E82E80E0F82E95EEC92E93E0D92E0E94A1
:102E0000EF034B015C011123D1F041E0B701CE018A
:102E100001960E94F10D0E94BA09BE016F5F7F4FBB
:102E200080E00E948F0A8092AB019092AC01A09248
:102E3000AD01B092AE0181E08093E20148C81091EB
:102E4000E20188EE93E0A0E0B0E0113021F086E4EA
:102E500090E0A0E0B0E04091AB015091AC016091F6
:102E6000AD017091AE0124013501441A550A660A7C
:102E7000770AB301A201481759076A077B0708F4CC
:102E800026C88092AB019092AC01A092AD01B092A5
:102E9000AE011C3058F01092E2018092E50290924F
:102EA000E602A092E702B092E8027FCF81E0810FB4
:102EB0008093E20141E0B701CE0183960E94F10DBB
:102EC0007E0122E1E20EF11C40E0B601C7010E9442
:102ED000F10D81E1FE01B396BE016F5F7F4FDB0113
:102EE00001900D928A95E1F7912F193008F098E042
:102EF0009B01FB01DB0180E231974A2F461B4917FA
:102F000018F48D93808BF8CF1430A8F01350DB01A8
:102F1000C7016701F60141916F01F90141939F01DA
:102F2000FC0147851F964C931F97019711974C2DD5
:102F30004E19411778F380E00E948F0A0C94670FB6
:102F40008091F402882321F00E94BA090C94670F43
:102F500061E081E00E94760E61E085E028CF82E0AA
:102F60000E94C2090C94670F8FEF90E00E9440030B
:102F70000E94BA0984EC92E00E948A0961E080E034
:102F80000E94630A8BE990E00C94290F8FEF90E088
:102F90000E9440030E94BA091091AA0186EE92E0B5
:102FA000111102C081E990E00E948A0961E080E08D
:102FB0000E94630A112319F084E890E00BCC88E7A3
:102FC00090E00C94290F8091BA018013A2CAAFCA75
:102FD0004F925F926F927F928F929F92AF92BF9229
:102FE000CF92DF92EF92FF92CF93DF9300D000D089
:102FF00000D0CDB7DEB78D83C0900702D090080215
:10300000E0900902F0900A0280900302909004027E
:10301000A0900502B09006028091FA028823C9F1BF
:103020004090DC025090DD026090DE027090DF0282
:103030000E9454068E830E9439069B01AC01D70181
:10304000C60188199909AA09BB0989839A83AB83A8
:10305000BC839E81A92FB0E00E94F82F29813A817C
:103060004B815C81261737074807590710F4CA01BE
:10307000B9013D8113160CF044C0460E571E681E60
:10308000791E4092DC025092DD026092DE02709264
:10309000DF028091DC029091DD02A091DE02B0910E
:1030A000DF0288159905AA05BB0580F1C816D90667
:1030B000EA06FB0610F4D501C4018093DC0290936C
:1030C000DD02A093DE02B093DF0261E082E00E94A5
:1030D000760E81E08093FA0226960FB6F894DEBF52
:1030E0000FBECDBFDF91CF91FF90EF90DF90CF90DB
:1030F000BF90AF909F908F907F906F905F904F9018
:103100000895461A570A680A790ABBCFD701C60143
:10311000D4CF0C94E8171092ED0210920202109294
:10312000F60161E083E00E94760E81E08093FB026D
:1031300008958091C502882339F01092C5028091CC
:10314000F8028093FB0208951092FD021092EB02A8
:103150001092EC021092ED021092EF021092EE0229
:103160001092E3010E94EF036093D8027093D9029A
:103170008093DA029093DB0281E08093FB028091DE
:10318000E40261E0882319F089E00C94760E81E076
:103190000E94760E61E085E0F8CF2091ED022111CA
:1031A00033C02091EB02222361F01092EB021092C7
:1031B000E4011092E9021092EA0261E083E00C94CB
:1031C000760E2091EC02222341F01092EC02109234
:1031D000EF0283E08093EE02F0CF2091EF02211105
:1031E0000EC0DC01ED91FC918081811102C00C9434
:1031F000991881E08093EC021092EE02DECF1092DB
:10320000EF028091E501E6CF08958091EF028730CB
:1032100059F486E08093EF028091E3018093EE02FF
:1032200061E083E00C94760E0C949918E091020210
:10323000F0E0EA51FE4F2081022E000C330B2052A9
:103240003109A901480F511D87FD5A95CA01815ABC
:103250009F4F6FE570E00E94BC2F805E808361E02D
:1032600084E00C94760E0E94330D1092ED021092C1
:10327000EC021092EB021092FD021092E902109201
:10328000EA021092EF020E94EF036093D80270935B
:10329000D9028093DA029093DB0281E08093FB02F3
:1032A00061E00E94760E61E085E00C94760E2F922C
:1032B0003F924F925F926F927F928F929F92AF92C6
:1032C000BF92CF92DF92EF92FF920F931F93CF9313
:1032D000DF9300D000D01F92CDB7DEB7D82EF62EE8
:1032E000E42EC52E2C83011180C08AE08D83EF2D42
:1032F000EE0FE98311E022242A9485EE482E95EC06
:10330000592EFC816F2E712CF150FB83DD2009F4C6
:10331000EFC00E9498034B015C01809190028111E3
:1033200067C0109390021093920220928F02109225
:10333000B4028B818093B3021093B5028091B502E1
:103340009981892B8093B50280919102813009F097
:10335000A0C0109291020E9498034B015C018091E1
:10336000B5028093BB008091BF029091C002A091F2
:10337000C102B091C202892B8A2B8B2BA1F00E9433
:1033800098032091BF023091C0024091C102509138
:10339000C202681979098A099B0926173707480765
:1033A000590708F446C08091BC0083FDD8CF5092E5
:1033B000BC000E9498034B015C0180919002813017
:1033C00009F46AC08091B402EC818E1708F086C0BF
:1033D0008091B402E3E9F2E0ACE2B2E090E0981749
:1033E00069F121912D939F5FFACF91E09D837FCF6B
:1033F0008091BF029091C002A091C102B091C2021F
:10340000892B8A2B8B2B09F488CF0E94980320915B
:10341000BF023091C0024091C1025091C2026819AE
:1034200079098A099B09261737074807590708F0C1
:1034300074CF8091BE020E94AC0480E01092BD0265
:103440008093BC02FC81F8130EC1E9820E2D1C2D65
:10345000802F9981891BEC818E1708F441C001E00F
:10346000802F0F900F900F900F900F90DF91CF91C2
:103470001F910F91FF90EF90DF90CF90BF90AF9092
:103480009F908F907F906F905F904F903F902F9084
:1034900008954092BC008DCF8091BF029091C002F0
:1034A000A091C102B091C202892B8A2B8B2B09F407
:1034B00084CF0E9498032091BF023091C0024091B6
:1034C000C1025091C202681979098A099B0926171D
:1034D00037074807590708F070CFABCF8C817ACFF8
:1034E0008BE093E00E94DD04F80181938F01B0CF5F
:1034F00010932B02F092A9011092BB021092BA0213
:10350000FC81FF2339F0A3016E2D7C2D8BE093E02D
:103510000E94F7043090BA0280E2831508F414C1C7
:103520009091A9019A830E9498034B015C018091BC
:103530009002811169C0E2E0E09390021093920240
:1035400020928F021092B4023092B302ABE0B2E04C
:10355000E3E9F2E03812CFC01092B5029091B502C3
:103560008A81880F892B8093B502809191028130E6
:1035700009F0C5C0109291020E9498034B015C01B2
:103580008091B5028093BB008091BF029091C002F0
:10359000A091C102B091C202892B8A2B8B2BA1F082
:1035A0000E9498032091BF023091C0024091C10255
:1035B0005091C202681979098A099B0926173707B1
:1035C0004807590708F441C08091BC0083FDD8CF5B
:1035D0005092BC000E9498034B015C0180919002C4
:1035E000823009F48FC080918F028F3F09F4AEC002
:1035F00080918F02803209F4ABC080918F028033BA
:1036000009F4A8C084E026C08091BF029091C00256
:10361000A091C102B091C202892B8A2B8B2B09F495
:1036200086CF0E9498032091BF023091C002409142
:10363000C1025091C202681979098A099B092617AB
:1036400037074807590708F072CF8091BE020E94E1
:10365000AC0485E01092BB021092BA0210922B02C9
:10366000882309F4FCCE8D81813031F062E370E073
:1036700080E090E00E94BD03FD81F150FD83F111D7
:1036800045CE01117BC0E0910801F0E0EA5AFE4FFF
:1036900080818F11E5CE8091FD028983882341F0DE
:1036A0008091EF028450823018F00E943319198201
:1036B000D11052C09C81992309F44EC082E08093BE
:1036C000E4021092B9011092CD021092FA02E9813F
:1036D000E093FD021092F4021092D70260E085E0C0
:1036E0000E94E102F98161E0FF2309F444C083E014
:1036F0000E94760EB5CE9D9191938F5F2BCF409215
:10370000BC0068CF8091BF029091C002A091C1021D
:10371000B091C202892B8A2B8B2B09F45FCF0E94B8
:1037200098032091BF023091C0024091C102509194
:10373000C202681979098A099B09261737074807C1
:10374000590708F04BCF81CF81E084CF80E082CF52
:1037500082E080CF83E07ECF81E08093E4028FEF30
:103760009FEFDC018093BB019093BC01A093BD014E
:10377000B093BE01A8CF89E00E94760E00E070CE23
:103780000F93CF93DF9300D0CDB7DEB7882369F0D6
:103790009091CD0220910101911109C080E00F901C
:1037A0000F90DF91CF910F91089520910201909198
:1037B00003019230A9F18823A9F1913099F19EE893
:1037C000998390E0283028F491E001C0990F2A9560
:1037D000EAF79A83882381F080910001883060F4B1
:1037E00020910A01222341F021E030E001C0220FA4
:1037F0008A95EAF7922B9A83E0910801F0E0EA5A61
:10380000FE4F00E022E0AE014F5F5F4F608180E03D
:103810000E945719882311F29A819093C701BFCF54
:103820009FE8CECF9EECCCCF81E08093010261E097
:1038300083E00C94760E1092010261E083E00C9418
:10384000760E81E08093000261E083E00C94760EB6
:103850001092000261E083E00C94760E81E00E94F9
:10386000EC0761E083E00C94760E8FEF0E94EC078A
:1038700061E083E00C94760E8091FB01813031F49D
:103880001092FB0161E083E00C94760E8111FACF77
:1038900082E08093FB01F6CF8091FB01823031F40E
:1038A0001092FB0161E083E00C94760E8111FACF57
:1038B00081E08093FB01F6CF8091FA01811106C06F
:1038C00081E08093FA0182E08093FF0161E083E070
:1038D0000C94760EE091FA01EE2349F0E150E0936A
:1038E000FA01F0E0E45BFE4F80818093FF0161E02C
:1038F00083E00C94760E8091F901833018F48F5F89
:103900008093F90161E083E00C94760E8091F901D7
:10391000882319F081508093F90161E083E00C94D1
:10392000760E8091FF01E091FA01F0E0E45BFE4F3A
:103930009081891718F48F5F8093FF0161E083E025
:103940000C94760E8091FF01882319F081508093AA
:10395000FF0161E083E00C94760EE091FA01F0E063
:10396000EA51FE4F8189863030F48F5F818B61E0B0
:1039700083E00C94760E80E0F9CFE091FA01F0E05C
:10398000EA51FE4F8189882331F08150818B61E0BB
:1039900083E00C94760E86E0F9CF8091EE028230BF
:1039A00038F48F5F8093EE0261E083E00C94760E32
:1039B00008958091EE02882339F081508093EE02C1
:1039C00061E083E00C94760E0895E091EF0280911F
:1039D000EE02E73059F4863010F48F5F01C080E0CA
:1039E0008093EE0261E083E00C94760EF0E0E45FF9
:1039F000FE4F20812150330B8217130674F3089574
:103A00008091EE029091EF02973059F4882311F0E3
:103A1000815001C086E08093EE0261E083E00C9467
:103A2000760E8111F5CF089581E08093E90261E07F
:103A300083E00C94760E1092E90261E083E00C942E
:103A4000760EFF920F931F93CF93DF93EC01F62E28
:103A500008811981C8010E948A2FF81621F06F2D64
:103A6000C8010E94922FCE01DF91CF911F910F913B
:103A7000FF900895AF92BF92CF92DF92EF92FF92A4
:103A80000F931F93CF93DF9300D0CDB7DEB78B0199
:103A90006B0124E0C20ED11C7B015C01A61AB70A9F
:103AA000C5018E0D9F1D9A838983F70161917F0166
:103AB000CE0101960E94211DEC14FD0489F7C80176
:103AC0000F900F90DF91CF911F910F91FF90EF908A
:103AD000DF90CF90BF90AF900895CF92DF92EF929A
:103AE000FF920F931F93CF93DF93CDB7DEB7289745
:103AF0000FB6F894DEBF0FBECDBF182F6091DC0269
:103B00007091DD028091DE029091DF0220E041E0C1
:103B10000E947B076B017C01C092DC02D092DD0227
:103B2000E092DE02F092DF028091E0029091E102E9
:103B3000A091E202B091E302C816D906EA06FB069C
:103B400019F4112309F48AC00E9439069B01AC01C3
:103B5000C701B6010E94D02F3D832E8380910301BF
:103B6000823009F48AC08EEC8F839091020180E04C
:103B7000983028F481E001C0880F9A95EAF7888789
:103B8000E0910801F0E0EA5AFE4F00E024E0AE01C7
:103B90004B5F5F4F608180E00E945719882309F4D2
:103BA0005DC00E94EF036F3F2FEF720782079207FD
:103BB00009F465C06093BB017093BC018093BD01A3
:103BC0009093BE0188858093C7014091DC0250919B
:103BD000DD026091DE027091DF0280910401282FE6
:103BE00030E0F901E955FE4F908149835A836B8398
:103BF0007C83973000F58230F0F4C090E002D090E2
:103C0000E102E090E202F090E3024C155D056E05E2
:103C10007F0589F0892F90E0880F991F820F931FED
:103C2000880F991F880F991FBE016F5F7F4F865ABB
:103C30009F4F0E943A1D8091DC029091DD02A0917D
:103C4000DE02B091DF028093E0029093E102A09344
:103C5000E202B093E30281E08093B90128960FB6A7
:103C6000F894DEBF0FBECDBFDF91CF911F910F91B2
:103C7000FF90EF90DF90CF9008958FE875CF8EEF93
:103C80009FEFAFEFBFEF8093BB019093BC01A09378
:103C9000BD01B093BE0196CF8F929F92AF92BF921B
:103CA000CF92DF92EF92FF920F931F93CF93DF9308
:103CB0001F92CDB7DEB70E94EF036B017C0110911C
:103CC000FD02112349F08091EF02012F853029F088
:103CD00011E0843009F010E000E0A090C40280916F
:103CE000C502882309F473C0A1100E94FB038091D0
:103CF000A3019091A401A091A501B091A601460154
:103D00005701881A990AAA0ABB0AD501C401C297A9
:103D1000A105B10508F443C0C092A301D092A4014B
:103D2000E092A501F092A601E0910801F0E0EA5AC4
:103D3000FE4F01E021E0AE014F5F5F4F608181E007
:103D40000E9457199091C4028823B9F19A3038F033
:103D50008091B801843618F48F5F8093B801809108
:103D6000C702882351F0898187FF07C08091C6026E
:103D7000843618F48F5F8093C602992331F0109235
:103D8000C40260E08BE00E94760E60E085E00E9455
:103D9000E10289818093C80281E08093C7020F907D
:103DA000DF91CF911F910F91FF90EF90DF90CF9017
:103DB000BF90AF909F908F9008959A3018F49F5FB6
:103DC0009093C40261E08BE00E94760EE8CFB09041
:103DD000E402B1100E94FB03A1100DC08091A2016A
:103DE000811109C0B1108CC08091B901811184C0CA
:103DF000002309F485C082E390E0A0E0B0E04091A8
:103E0000A3015091A4016091A5017091A601460102
:103E10005701841A950AA60AB70AB501A4014817E2
:103E200059076A077B0708F4BACFC092A301D09262
:103E3000A401E092A501F092A601E0910801F0E052
:103E4000EA5AFE4F01E021E0AE014F5F5F4F608113
:103E500081E00E945719811158C08091C4028F5F80
:103E60008093C4028A3008F49ACF1092A201109273
:103E7000C4028091E402811192CF8091FA028823DA
:103E800081F08091E0029091E102A091E202B09174
:103E9000E3028093DC029093DD02A093DE02B093F4
:103EA000DF028091FD02882321F0111102C00E94DF
:103EB000331981E08093E4028FEF9FEFDC01809360
:103EC000BB019093BC01A093BD01B093BE011092C1
:103ED000CD021092FA021093FD021092F402109299
:103EE000D70260E085E00E94E10261E089E01123F1
:103EF00009F46ACF83E068CF80E090E0DC017FCFF7
:103F000080ED97E0A0E0B0E07ACF1092C402898102
:103F10009091C702992349F087FF07C09091C6028C
:103F2000943618F49F5F9093C6028093C80291E084
:103F30009093C7022091E402213009F46EC01092E0
:103F4000A201211102C087FFCFC08091FA0288230D
:103F500081F08091E0029091E102A091E202B091A3
:103F6000E3028093DC029093DD02A093DE02B09323
:103F7000DF028091FD02882321F0111102C00E940E
:103F800033191092FA021093FD020091E40210928C
:103F9000E4021092CD0260E085E00E94E10260E060
:103FA00085E00E94E102023019F0898187FF46C056
:103FB00081E00E946D1D8091E4028111F0CE00230A
:103FC00059F08091B801843618F48F5F8093B8015E
:103FD00061E088E00E94760E6091CD0285E00E944B
:103FE000E102112309F479C08091F9028093F5026E
:103FF0008091F7028093F6028091F8028093FB0291
:1040000081E00E947305C092E502D092E602E09240
:10401000E702F092E80261E06DCF9091B901911151
:104020008ECF982F907C09F08ACF9091A2019F5F4C
:104030009093A2019A3008F4B2CE81CF86FB8827F4
:1040400080F98093CD029091B9018917D9F08091C0
:10405000CD029091B90181111AC091110EC02FEFBC
:10406000C216D206E206F20699F1C092BB01D092C6
:10407000BC01E092BD01F092BE0191E089278093DE
:10408000B9019DCF0E94C01B8111E1CF88CE992339
:10409000A1F34091BB015091BC016091BD017091B1
:1040A000BE014F3F2FEF52076207720731F34601FF
:1040B0005701841A950AA60AB70AB501A4014093CC
:1040C000BB015093BC016093BD017093BE01D5CF7D
:1040D0004EEF5FEF6FEF7FEFF2CF61E081E00E9484
:1040E000760E61E085E070CE9091B901992309F4D4
:1040F00056CE86FB882780F98093CD028091FD0201
:10410000811104C061E085E00E94760E8091CD02AD
:10411000882309F181E00E94C01B8823E1F080918F
:10412000BB019091BC01A091BD01B091BE018F3F38
:104130003FEF9307A307B30761F0C81AD90AEA0A49
:10414000FB0AC092BB01D092BC01E092BD01F0928B
:10415000BE011092B9016091CD0285E00E94E1029A
:104160001ECE2F923F924F925F926F927F928F92CC
:104170009F92AF92BF92CF92DF92EF92FF920F93F6
:104180001F93CF93DF93CDB7DEB72A970FB6F8947E
:10419000DEBF0FBECDBF0E94EF036B017C0180919B
:1041A000FD029091E402992361F1882389F08091C6
:1041B000EF028450823060F48091ED02811123C0BF
:1041C00060E086E00E94760E8091E2018823D9F0BB
:1041D0002A960FB6F894DEBF0FBECDBFDF91CF9108
:1041E0001F910F91FF90EF90DF90CF90BF90AF9015
:1041F0009F908F907F906F905F904F903F902F9007
:1042000008958111D9CF0091F9028091FB028111AB
:1042100071C00E941C0E898780919101909192013A
:10422000A0919301B09194010097A105B105A9F067
:10423000A7019601281B390B4A0B5B0BDA01C90158
:104240008E359140A105B10540F010929101109278
:1042500092011092930110929401CE0109969E83CF
:104260008D83019698878F83011108C08091F70292
:10427000811104C08091F802882341F0C092E502C8
:10428000D092E602E092E702F092E802B090C50216
:104290009091FD02B1106CC0992309F469C080911E
:1042A000EC02811165C04091E5025091E6026091F7
:1042B000E7027091E80226013701441A550A660A9E
:1042C000770A8091EF022CEF280F40EE53E964E06B
:1042D00070E0223020F040E25EE460E070E04415DF
:1042E00055056605770508F043C08430B0F10E949B
:1042F00099186ECF01116CCF8091F802811168CFAF
:104300008091F702811164CF82E00E94B802892B6C
:1043100009F45ECF83E00E94B802892B09F458CFDC
:1043200084E00E94B802892B09F452CF1092FB025C
:104330001092F6021092F50281E00E9473058091BE
:10434000FD02882309F444CFC092E502D092E60230
:10435000E092E702F092E8023BCF0E943319C0924C
:10436000D802D092D902E092DA02F092DB0230CF8A
:104370008091ED0291118CC081112ACF8091D802D9
:104380009091D902A091DA02B091DB02B701A601A7
:10439000481B590B6A0B7B0BDB01CA018E35914020
:1043A000A105B10508F414CF2091F80280918D0188
:1043B00090918E01A0918F01B0919001222309F478
:1043C0005BC5892B8A2B8B2B41F4C0928D01D09237
:1043D0008E01E0928F01F092900180918D01909179
:1043E0008E01A0918F01B09190010097A105B105B8
:1043F00009F4EECEC81AD90AEA0AFB0A61E2C61627
:1044000063E0D606E104F10408F4E2CE8091F40200
:104410008111DECE10928D0110928E0110928F01CB
:1044200010929001109291011092920110929301BA
:104430001092940111E01093FD0286E08093EF0248
:104440001092EE021092EB021092EC021092ED022A
:104450001092E9021092EA021092E30161E00E94D8
:10446000760E1093FB020E94EF036093E5027093B7
:10447000E6028093E7029093E802AACE21E0C12CE5
:10448000D12C760133C5CC24CA94DC2C76012EC500
:10449000882361F160E084E00E94760E26E139E134
:1044A0004FEF65EF72E08091F9020E94AF0626E1BE
:1044B00039E141E066EF72E08091F7020E94AF06B9
:1044C00080E00E947305813069F4809102028F3090
:1044D00018F00E948B187CCE8F5F8093020261E0FF
:1044E00084E0CAC0823009F073CEF3CF80E00E942E
:1044F0007305182F8091EF02843009F02FC180914D
:10450000EB02882309F4C7C08091EE02813041F4A8
:104510001150123008F05CCE1092EB0261E08BC1BA
:104520002BE13DE14FEF65EF72E0802F0E94AF0677
:1045300024E13DE141E066EF72E08091F7020E94E4
:10454000AF06123029F41092EB021092EA02A0C0DA
:10455000113009F03DCE8091E9028823A1F38091CA
:10456000EE02823089F51092EB021092E90210936C
:10457000080161E080E590E00E94DB2A1093AA0127
:1045800061E089E00E94760E0E94EF036B017C01DE
:104590000E94EF036C197D098E099F09643C7940E4
:1045A0008105910538F48091C402882389F30E9423
:1045B000FB03EECF1092AA0161E083E00E94760E29
:1045C00081E08093FB0204CE8091EA02882309F403
:1045D0005CC00E94EF036B017C0161E08AE00E94F5
:1045E000760E10E000E06FEFC8010E94DB2A0F5F3B
:1045F0001F4F011564E01607B1F70E94330D1092AA
:10460000E40181E080930A011092D7020E94EF0337
:104610006C197D098E099F096E3E724081059105D6
:10462000A8F38091C502882319F01092C502D0CD5D
:1046300081E00E946D1D1092FD021092EB0210921B
:10464000EC021092E9021092EA021092EF0210922C
:10465000EE020E94EF036093D8027093D902809318
:10466000DA029093DB0281E08093FB028091E40206
:1046700061E0882321F089E00E94760EA9CD81E0D7
:104680000E94760E61E085E0F7CF81E08093EA0238
:104690001092E90243CF002309F453C08091F50240
:1046A000811114C091E09093F5028091EE0288236D
:1046B00049F081508093EE02B11004C0823011F4B1
:1046C0009093EE0261E083E00E94760E8091F70203
:1046D0008823D1F18091F602811122C081E080937C
:1046E000F6028091EE02E091EF02F0E0E45FFE4F0F
:1046F00020812150330B821713061CF48F5F8093A7
:10470000EE028091C502811107C08091EE028230D5
:1047100019F483E08093EE0261E083E00E94760E5C
:10472000123009F4E4CD113009F052CD8091EE023F
:10473000843009F4DCCD81110AC085E08093EF025A
:10474000EDCE1092F502C2CF1092F602E9CF10938F
:10475000EB028250823008F0E1CEF7CE853009F0CE
:104760006FC00023E9F18091F50281110EC081E054
:104770008093F5028091EE02882319F08150809396
:10478000EE0261E083E00E94760E8091F7028823BA
:1047900051F18091F602811117C081E08093F602F9
:1047A0008091EE02E091EF02F0E0E45FFE4F2081A5
:1047B0002150330B821713061CF48F5F8093EE0297
:1047C00061E083E00E94760E123031F08091EE02BB
:1047D000113061F4883051F484E08093EF022EC2EE
:1047E0001092F502D2CF1092F602EECF9091E40231
:1047F000992319F1873009F0EBCC809189019091D0
:104800008A01A0918B01B0918C01A7019601281B10
:10481000390B4A0B5B0BDA01C901C297A105B1053F
:1048200008F4D6CCC0928901D0928A01E0928B0123
:10483000F0928C0160E083E01FCF8830F1F6C8CCA5
:10484000863008F4F1C020E03DE14FEF65EF72E003
:10485000802F0E94AF0625EE3CE141E066EF72E05A
:104860008091F7020E94AF06123019F40E940519D8
:10487000AFCC113009F0ACCC8091EF02863009F05A
:1048800042C08091EE02833020F48093E30187E000
:10489000A4CF8330C9F480910A0111E0812780936D
:1048A0000A018091CD02882309F438CE81E00E946C
:1048B000C01B811133CE80910A01812780930A01A8
:1048C00081E00E94C01B2ACE843009F010CD1092E6
:1048D000FD021092EB021092EC021092EF02109285
:1048E000EE021092E30111E01093D7020E94EF0351
:1048F0006093D8027093D9028093DA029093DB021E
:104900001093FB0265CC873009F062CC8091EE02F7
:10491000863009F4ABCF1091E30111115DC0BE01E7
:104920006F5F7F4F0E94F90A882309F4F7CD8980D1
:104930009A80AB80BC8000910401802F90E020E43D
:10494000C22E22E4D22E2FE0E22EF12CAC01445BE9
:104950005E4F1A013AE0432E512C612C712C82E0FB
:10496000023010F4F10180811817A0F4C501B401E0
:10497000A70196010E94D02F672B682B692B51F05D
:10498000C701B601A30192010E94D02F69017A01EB
:104990001F5FE5CF80910701811720F41093070175
:1049A0000E945B0B89819A81AB81BC818093DC0280
:1049B0009093DD02A093DE02B093DF0280E00E94BC
:1049C0006D1D8091E402811192CC6091070188E213
:1049D00090E00E94DB2A8BCC113081F4863030F4D9
:1049E0000E94560560EE72E00E943A1D86E08093B8
:1049F000EF028091E3018093EE0290CD123009F036
:104A0000E7CB863098F70E9456057C0110E000E065
:104A10006FEFC8018E0D9F1D0E94DB2A0F5F1F4F95
:104A200004301105A9F7E2CF9091EC02992309F423
:104A300008C129ED3CE14FEF65EF72E0802F0E9445
:104A4000AF062DEC3CE141E066EF72E08091F702A9
:104A50000E94AF06123029F4CE0105960E94CD18AF
:104A6000B7CB113009F0B4CB8091EE028111DFC0D9
:104A7000E091F90180910801E81781F1F0E0EA5A2C
:104A8000FE4F00E020E050E040E0608180E00E94C6
:104A90005719811123C0809108018093F90181E0A9
:104AA0008093AA0161E089E00E94760E1092AA012B
:104AB0000E94EF036B017C010E94EF036C197D09DA
:104AC0008E099F09643C79408105910518F40E9484
:104AD000FB03F2CF60E085E00E94E1028091F901E2
:104AE000809308018091FA01809304018091FB0179
:104AF000809303018091FC01809301018091FD016D
:104B0000809302018091FE01809300018091FF015A
:104B1000809307018091F7019091F8019093A8018B
:104B20008093A70180910002809309018091010286
:104B30008093050181E1E6EEF1E0ABECB1E001909C
:104B40000D928A95E1F71092DB018BECE82E81E063
:104B5000F82E2BED31E0F701819180528F3508F06E
:104B60001BC22E173F07C1F70AE010E01A83098322
:104B7000F70161917F01CE0101960E94211D0F5F17
:104B80001F4F0B31110591F76091A7018CE390E065
:104B90000E94DB2A6091A8018DE390E00E94DB2A4D
:104BA0006091070188E290E00E94DB2A6091080191
:104BB00080E590E00E94DB2A6091040186E490E0A9
:104BC0000E94DB2A6091030182E390E00E94DB2ACD
:104BD00060910101683008F068E086E590E00E948D
:104BE000DB2A60910201683008F068E087E590E018
:104BF0000E94DB2A60910001683008F068E088E5D7
:104C000090E00E94DB2A609109018EE190E00E9411
:104C1000DB2A6091050183E290E00E94DB2A0E947A
:104C20005B0B81E00E946D1D0E943319D1CA813057
:104C3000D9F3823009F0CCCA1092EC021092EE0245
:104C40006DCC9091EB0291117EC0002309F44CC011
:104C50008091F50281110EC081E08093F502809170
:104C6000EE02882319F081508093EE0261E083E028
:104C70000E94760E8091F7028823C9F18091F60296
:104C8000811117C081E08093F6028091EE02E091DD
:104C9000EF02F0E0E45FFE4F20812150330B8217DA
:104CA00013061CF48F5F8093EE0261E083E00E94A4
:104CB000760E123009F4D0CE113009F089CA9091E5
:104CC000EF028091EE02911122C08130C1F090F08C
:104CD0008230C9F0833009F021CC8985882309F41A
:104CE00006CB1093EC02AACF1092F502C3CF10921C
:104CF000F602DFCF1092E5011093EF029FCF1093E1
:104D0000E50182E06ACD8093E50183E066CDE92F7D
:104D1000F0E0E45FFE4F20812150330B8217130631
:104D200029F41092EF028091E50165CE933039F4B9
:104D3000811105C0109202021093ED02D0CB81E0E8
:104D40008093EB02EBCB8130E1F58091EE0288237A
:104D5000D9F0813059F1123009F47ECE113009F0CA
:104D600037CA8091EF02823009F0D6CB8091EE02F3
:104D7000833009F0D1CB8091E401823008F079C012
:104D80008F5F8093E401CACB2DEB3CE14FEF65EFE1
:104D900072E0802F0E94AF062DEA3CE141E066EF11
:104DA00072E08091F7020E94AF06D5CF22EA3CE183
:104DB0004FEF65EF72E0802F0E94AF0621E93CE1E2
:104DC000EDCF8230B1F58091EE028130E1F080F0DC
:104DD000823021F1833009F0BECF25E33CE14FEF73
:104DE00065EF72E0802F0E94AF062EE23CE1D6CF45
:104DF00026E83CE14FEF65EF72E0802F0E94AF069E
:104E00002BE73CE1CBCF2AE63CE14FEF65EF72E0C8
:104E1000802F0E94AF062CE53CE1C0CF2CE43CE1A2
:104E20004FEF65EF72E0802F0E94AF062CE33CE16C
:104E3000B5CF833009F08FCF8091EE02813071F0D1
:104E4000823009F088CF2BE13CE14FEF65EF72E053
:104E5000802F0E94AF0624E13CE1A0CF28E23CE194
:104E60004FEF65EF72E0802F0E94AF0621E23CE138
:104E700095CF1092E40150CB0097A105B10509F43C
:104E8000A7C910928D0110928E0110928F0110927D
:104E90009001B701A601481B590B6A0B7B0BDB0184
:104EA000CA018E359140A105B10508F091C98091E4
:104EB000910190919201A0919301B091940100977A
:104EC000A105B10569F0B701A601481B590B6A0B92
:104ED0007B0BDB01CA01C297A105B10508F0CECA60
:104EE000C114D104E104F10409F4CDCAC0929101C6
:104EF000D0929201E0929301F0929401222309F45E
:104F000067C911E01093FD021092EF021092EE02B9
:104F10001092EB021092EC021092ED021092E90254
:104F20001092EA02809108018093F90180910401B6
:104F30008093FA01809103018093FB01809101012C
:104F40008093FC01809102018093FD01809100011A
:104F50008093FE01809107018093FF018091A7015A
:104F60009091A8019093F8018093F7018091090135
:104F700080930002809105018093010281E1EBECB6
:104F8000F1E0A6EEB1E001900D928A95E1F7109262
:104F9000E40161E086E063CA4CE050E068E670E05E
:104FA0008BEC91E00E94462F44E050E060E270E01C
:104FB00087ED91E00E943C301092DB01D5CD1F922D
:104FC0000F920FB60F9211242F933F938F939F93BD
:104FD000AF93BF938091FF0290910003A0910103D2
:104FE000B09102033091FE0223E0230F2D3758F5D4
:104FF0000196A11DB11D2093FE028093FF029093A4
:105000000003A0930103B0930203809103039091E6
:105010000403A0910503B09106030196A11DB11DE3
:105020008093030390930403A0930503B0930603B6
:10503000BF91AF919F918F913F912F910F900FBE94
:105040000F901F90189526E8230F0296A11DB11D01
:10505000D2CF1F920F920FB60F9211242F933F932E
:105060004F935F936F937F938F939F93AF93BF9370
:10507000EF93FF938091B900887F803609F44AC08E
:10508000F0F5883209F4A7C018F5803109F49BC007
:10509000B8F4882309F4F9C0883009F494C0FF916A
:1050A000EF91BF91AF919F918F917F916F915F91A0
:1050B0004F913F912F910F900FBE0F901F90189519
:1050C000883109F488C0803251F780938F0214C070
:1050D000803409F49DC040F48033B9F38833F9F685
:1050E00080938F0285ECB0C0803509F485C0883587
:1050F00009F496C0883499F60E949B0AD0CF88396B
:1051000009F48CC038F5883729F050F4883611F04E
:10511000803729F683E08093900210928E0257C068
:10512000883809F47BC0803919F0803809F0B7CF8E
:1051300080918E02803208F071C0E0918E0281E091
:105140008E0F80938E028091BB00F0E0E259FD4FFC
:1051500080833DC0803B39F0E0F4803A09F479C0A7
:10516000883A09F09CCF84E08093900210926D02FF
:1051700010926C02E091B802F091B9020995809109
:105180006C0281110FC081E080936C0210924C027E
:1051900009C0803C09F4A6CF883C09F4A3CF883B22
:1051A00009F07DCFE0916D0281E08E0F80936D025A
:1051B000F0E0E45BFD4F80818093BB0090916D0235
:1051C00080916C0229C08091B5028093BB0085EC70
:1051D0008093BC0064CF9091B4028091B302981781
:1051E00058F5E091B40281E08E0F8093B402F0E0B4
:1051F000ED56FD4F8081E9CFE091B40281E08E0F42
:105200008093B4028091BB00F0E0ED56FD4F8083A7
:105210009091B4028091B3029817C8F285E8D8CF74
:10522000E091B40281E08E0F8093B4028091BB00C4
:10523000F0E0ED56FD4F80838091920281115CCFAA
:1052400081E08093910284EA8093BC0010929002E6
:1052500026CF85EC8093BC001092900280918E0244
:10526000803230F4E0918E02F0E0E259FD4F10827E
:1052700060918E0270E0E091B602F091B7028EE686
:1052800092E0099510928E020ACF10928F0234CFCD
:10529000CF93DF93FC01862FC081D181A881B98192
:1052A0009D012F5F3F4F398328836AE00E94B02F12
:1052B000805D8C93A081B181ED91FC9111979F014C
:1052C0002F5F3F4F2D933C93905D9083DF91CF9163
:1052D0000895DC01ED91FC911197208130E002C02E
:1052E000359527956A95E2F720FF07C08DE20E9469
:1052F000A40985E790E00C948A091296ED91FC913F
:10530000808190E002C0959587954A95E2F781707B
:1053100099270E94AD09EDCF84E594E00E948A09A7
:1053200061E080E00E94630A85E494E00C948A09BD
:10533000CF93883060F4C82F80E50E94A4096C2FB9
:1053400070E090E080E04AE0CF910C94930888E60A
:1053500094E0CF910C948A09CF93DF93EC01CB01B9
:10536000BA01E881F981408151812AE00E94582FD9
:10537000E881F98180819181DC010D900020E9F7BD
:10538000CD01019791838083DF91CF9108954F9252
:105390005F926F927F928F929F92AF92BF92CF92C5
:1053A000DF92EF92FF920F931F93CF93DF93CDB7CE
:1053B000DEB72A970FB6F894DEBF0FBECDBF5C01F3
:1053C0006A017B0140E150E060E270E00E943C3005
:1053D000F501108ABA82A982CE0101969C838B8343
:1053E0009E838D83FCE3CF16D104E104F10440F5E4
:1053F000B701A60102960E94AC29E981FA81CF018A
:1054000001969A83898380E28083E981FA8183E728
:1054100080832A960FB6F894DEBF0FBECDBFDF9112
:10542000CF911F910F91FF90EF90DF90CF90BF90A1
:10543000AF909F908F907F906F905F904F90089566
:105440008CE3482E512C612C712CC701B601A301AD
:1054500092010E94D02F2F83388749875A87162FB1
:1054600080E1C8168EE0D806E104F104E0F4BA0148
:10547000A901CE0103960E94AC29E981FA81CF01EE
:1054800001969A8389838DE68083E981FA81CF0131
:1054900001969A83898380E28083612FCE010596ED
:1054A0000E944829B2CFC701B60120E13EE040E0AA
:1054B00050E00E94D02F49015A016F81788589857B
:1054C0009A85A30192010E94D02F762EE0E8CE1695
:1054D000E1E5DE06E1E0EE06F10458F5B501A401D0
:1054E000CE0103960E94AC29E981FA81CF01019691
:1054F0009A83898388E68083E981FA81CF010196C6
:105500009A83898300E20083672DCE0105960E946D
:105510004829E981FA81CF0101969A8389838DE632
:105520008083E981FA81CF0101969A838983008380
:10553000B4CFC701B60120E831E541E050E00E9458
:10554000D02FBA01A901CE0103960E94AC29E981AE
:10555000FA81CF0101969A83898384E68083E98169
:10556000FA81CF0101969A83898310E21083C501E5
:10557000B40128E130E040E050E00E94D02FCE019D
:1055800005960E944829E981FA81CF0101969A8304
:10559000898388E68083E981FA81CF0101969A8325
:1055A00089831083672DCE0105960E944829E981E1
:1055B000FA818DE62DCFCF93DF9300D0CDB7DEB744
:1055C0009A838983CE0101960E94211D0F900F902E
:1055D000DF91CF910895EBE0F3E01382128288EE21
:1055E00093E0A0E0B0E084839583A683B7838EE543
:1055F00091E091838083E7E1F3E01382128280E7F8
:1056000091E09183808388E084838FEF858389E0B4
:1056100086838AE087838BE080878CE081878DE0BA
:1056200082871386148615861686178681E00C9469
:10563000C209789484B5826084BD84B5816084BDDC
:1056400085B5826085BD85B5816085BD80916E0020
:10565000816080936E001092810080918100826051
:10566000809381008091810081608093810080918E
:1056700080008160809380008091B100846080937D
:10568000B1008091B00081608093B00080917A0079
:10569000846080937A0080917A00826080937A009F
:1056A00080917A00816080937A0080917A0080688E
:1056B00080937A001092C10062E082E00E940F03A2
:1056C00062E083E00E940F0362E084E00E940F0327
:1056D00061E085E00E940F0361E085E00E940F0316
:1056E00061E086E00E940F031092BD021092BC029E
:1056F0001092BB021092BA020E948E0487E394E0DB
:105700009093B9028093B80288E394E09093B70233
:105710008093B60282EF8093B8001092C30288E8AB
:1057200093E1A0E0B0E08093BF029093C002A09309
:10573000C102B093C202C1E0C093BE0261E088E042
:105740000E94760E8FEF90E00E94400361E080E0BF
:105750000E94760E64EC79E080E090E00E94BD0348
:105760000E94330D83E00E94B802892B09F04AC0E1
:10577000C093FD02C093C50284E08093EF021092B3
:10578000EE021092ED021092EC021092EB021092D7
:10579000EA021092E90261E086E00E94760EC09370
:1057A000FB020E94EF036093E5027093E602809390
:1057B000E7029093E8028091C502882369F00E9475
:1057C00028080E94CB050E94B1208091C502882341
:1057D00091F30E944C1EEFCF1092C40260E085E06E
:1057E0000E94E1021092ED021092EC021092EB0284
:1057F0001092FD021092EA021092E9021092EF025A
:105800001092EE02E0910801F0E0EA5AFE4F00E04B
:1058100021E048EC52E0608181E00E945719882322
:1058200091F08091C702882359F08091C80287FFC8
:1058300007C08091C602843618F48F5F8093C60239
:1058400081E08093C70280E00E946D1D61E081E0ED
:105850000E94760E61E085E00E94760EC0E0D0E006
:10586000BB24BA940E9428080E94CB058091E402D0
:105870008823B1F0B0920B018FEF90E00E944003BB
:105880008091FD02882309F423C11092FC020E943A
:10589000B1200E944C1E209729F30E940000E2CF05
:1058A0008091D7028823F9F01092D70280910B01E2
:1058B000882369F0815080930B0190E00E9440039F
:1058C00061E070E080E090E00E94BD03EFCF81E0F6
:1058D0008093F40261E087E00E94760E1092D60277
:1058E0001092F802CDCF8091FA02811104C080910C
:1058F000FD02882349F01092D2021092D302109236
:10590000D4021092D502BCCF0E94EF036B017C0140
:1059100082E00E94B802892B49F5B0920B018FEF0B
:1059200090E00E9440038091F402882309F465C04E
:105930001092F40261E087E00E94760E81E080938D
:10594000FB021092F7021092F8021092F9021092E4
:10595000F6021092D6021092F502C092D202D092B4
:10596000D302E092D402F092D5028ACF83E00E9463
:10597000B802892B91F284E00E94B802892B69F267
:1059800080910A01811142C01092D2021092D3027A
:105990001092D4021092D5028091F402811170CF3E
:1059A00080910B018F3F31F0B0920B018FEF90E0AF
:1059B0000E9440038091CE029091CF02A091D0022C
:1059C000B091D102A7019601281B390B4A0B5B0B42
:1059D000DA01C901883E9340A105B10508F450CF12
:1059E000C092CE02D092CF02E092D002F092D102C9
:1059F00060E081E00E94760E43CFC092D202D09246
:105A0000D302E092D402F092D502BACF8091CD02B7
:105A1000882309F470CF8091D2029091D302A09193
:105A2000D402B091D502892B8A2B8B2B41F4C092E2
:105A3000D202D092D302E092D402F092D5028091A9
:105A40000901882309F41CCF8091D2029091D302DE
:105A5000A091D402B091D50297018601081B190BC1
:105A60002A0B3B0BD901C801853C9940A105B10522
:105A700008F406CF8091F402811102CF80910B01CE
:105A80008F3108F4FDCE4091C9025091CA02609155
:105A9000CB027091CC0297018601041B150B260BDB
:105AA000370BB901A801473051056105710508F4AC
:105AB000E7CE815080930B0190E00E944003C0929A
:105AC000C902D092CA02E092CB02F092CC02D8CEA8
:105AD0001091FA028091FB02882361F111112AC012
