:100000000C94DA020C9402030C9402030C94020385
:100010000C9402030C9402030C9402030C9402034C
:100020000C9402030C9402030C9402030C9402033C
:100030000C9402030C9402030C9402030C9402032C
:100040000C941F180C9402030C9402030C940203EA
:100050000C9402030C9402030C9402030C9402030C
:100060000C9469180C94020300407A10F35A00A013
:10007000724E18090010A5D4E80000E87648170071
:1000800000E40B54020000CA9A3B000000E1F505B1
:10009000000080969800000040420F000000A086FB
:1000A00001000000102700000000E803000000002D
:1000B0006400000000000A000000000001000000D1
:1000C00000002C76D888DC674F0823DFC1DFAE59EB
:1000D000E1B1B796E5E3E453C63AE651997696E87E
:1000E000E6C28426EB898C9B62ED407C6FFCEFBC02
:1000F0009C9F40F2BAA56FA5F490055A2AF75C932D
:100100006B6CF9676DC11BFCE0E40D47FEF520E662
:10011000B500D0ED902E0300943577050080841E45
:10012000080000204E0A000000C80C333333330FA0
:10013000986E12831141EF8D2114893BE65516CF3D
:10014000FEE6DB18D1844B381BF77C1D901DA4BB49
:10015000E424203284725E228100C9F124ECA1E5FE
:100160003D277265747279696E672E2E2E00726556
:1001700073746F72696E672030780049324320458E
:1001800052524F52004932432046414C4C42414367
:100190004B0053595354454D2053455454494E47F1
:1001A0005300515549434B204D454E550056434F42
:1001B0002053455454494E475300524543414C4CFB
:1001C000204D454D4F5259003C3C003E3E00200022
:1001D0004C4F434B200053455420746F2073656C83
:1001E000656374006E6F2000796573003E200046E1
:1001F0004143544F525920524553455400434C45B6
:10020000415220414C4C20444154413F00534554FD
:1002100020746F2073656C656374006F6666006F91
:100220006E20003E200053484F57204D454E55202C
:100230005449544C450053455420746F2073656CE9
:10024000656374006F6666006F6E20003E2000429A
:1002500041434B4C494748542044494D4D45520079
:1002600053455420746F206564697400535441549D
:10027000494F4E204E414D450053455420746F2048
:1002800073656C656374006E6F6E65005000524656
:100290002064726976653A20006E6F6E65005000CA
:1002A000756E6C6F636B65643A20006E6F6E6500EF
:1002B00050006C6F636B65643A20003E2000504F25
:1002C0005254204D415050494E47005345542074DC
:1002D0006F2073656C6563740064697361626C653B
:1002E000640068696768006C6F7720003E200043F7
:1002F00048415247452050554D50005345542074B5
:100300006F2073656C65637400204D487A002E0081
:100310003E20005854414C204652455155454E43CD
:10032000590053455420746F2073656C65637400E5
:100330003E203078004932432041444452455353D3
:100340000053455420746F2073656C6563740020FE
:10035000646563696D616C730020646563696D61D8
:100360006C003E2000505245434953494F4E0053C4
:10037000455420746F2073656C65637400204D488C
:100380007A002D003E20004652455155454E4359B6
:100390002042414E440053455420746F2070726FC8
:1003A0006365656400455849542053455454494E8B
:1003B00047530053455420746F20656E7465720076
:1003C00047454E4552414C2053455454494E47539E
:1003D0000053455420746F20656E74657200504C54
:1003E0004C2053455454494E4753005345542074B0
:1003F0006F20656E7465720056434F205345545408
:10040000494E4753003C656D7074793E003A003E9A
:10041000204D003E204D003E4D00204D487A0020EA
:10042000003A003E2072657475726E00434C45417F
:1004300052204D454D4F525900204D487A005341AE
:1004400056452000524543414C4C204D454D4F529E
:10045000590053455420746F2073656C65637400B4
:1004600053455420746F20636F6E6669726D00533C
:10047000455420746F20746F67676C650045584958
:100480005420515549434B204D454E55004C434453
:10049000204F4646004F4646004F4E0052462044ED
:1004A000524956453A2000434C454152204D454D56
:1004B0004F52590053415645204D454D4F5259001A
:1004C000524543414C4C204D454D4F5259006361BC
:1004D0006E63656C00646973636172640073617656
:1004E00065206368616E676573003E20004558496A
:1004F000542053455454494E475300204D487A00E8
:10050000534554200052462044524956453A204F04
:10051000464600204D487A002843293230323620A2
:100520004C6F656E69650056342E36002000504CC5
:100530004C20436F6E74726F6C0053455420746F7F
:1005400020636F6E6669726D0052455455524E209D
:10055000544F204D454E5500000000002400270058
:100560002A0000000000250028002B0000000000E9
:1005700023002600290004040404040404040202E5
:100580000202020203030303030301020408102012
:10059000408001020408102001020408102000001D
:1005A0000008000201000003040700000000000032
:1005B0000000881911241FBECFEFD8E0DEBFCDBFE9
:1005C00011E0A0E0B1E0ECE6FFE402C005900D927E
:1005D000A838B107D9F722E0A8E8B1E001C01D9220
:1005E000AF3FB207E1F712E0CAEDD2E004C02197B5
:1005F000FE010E945C27C93DD107C9F70E94BB19C3
:100600000C94B4270C940000833081F028F48130DE
:1006100099F08230A9F008958730A9F08830C9F0A8
:100620008430B1F4809180008F7D03C08091800080
:100630008F7780938000089584B58F7784BD089567
:1006400084B58F7DFBCF8091B0008F778093B00011
:1006500008958091B0008F7DF9CFCF93DF93282F3D
:1006600030E0F901E256FA4F8491F901E657FA4F6A
:10067000D491F901EA58FA4FC491CC23A1F0811129
:100680000E940403EC2FF0E0EE0FFF1FE459FA4F35
:10069000A591B491EC91ED2381E090E009F480E024
:1006A000DF91CF91089580E090E0FACF1F93CF9330
:1006B000DF93282F30E0F901E256FA4F8491F901D7
:1006C000E657FA4FD491F901EA58FA4FC491CC2376
:1006D000A9F0162F81110E940403EC2FF0E0EE0F19
:1006E000FF1FEE59FA4FA591B4918FB7F894EC9192
:1006F000111108C0D095DE23DC938FBFDF91CF911D
:100700001F910895DE2BF8CFCF93DF9390E0FC018B
:10071000E657FA4F24918A589A4FFC018491882316
:10072000D1F090E0880F991FFC01E85AFA4FA5918B
:10073000B491FC01EE59FA4FC591D491623071F435
:100740009FB7F8943C91822F809583238C93E88106
:100750002E2B28839FBFDF91CF9108958FB7F894F8
:10076000EC912E2B2C938FBFF6CFCF93DF93EC0120
:1007700061E086E00E948403209731F460E086E027
:10078000DF91CF910C945603CF3FD10511F461E076
:10079000F6CFE4EAF5E0E491E33029F140F4E1300A
:1007A000B1F0E230D9F0C038D1058CF7E7CFE730AF
:1007B00021F1E83051F1E430B1F78091800080629E
:1007C00080938000D0938B00C0938A0004C084B5CE
:1007D000806884BDC7BDDF91CF91089584B58062E4
:1007E00084BDC8BDF8CF8091800080688093800070
:1007F000D0938900C0938800EECF8091B0008068CC
:100800008093B000C093B300E6CF8091B0008062C7
:100810008093B000C093B400DECF3FB7F8948091CE
:10082000D1029091D202A091D302B091D40226B508
:10083000A89B05C02F3F19F00196A11DB11D3FBF18
:10084000BA2FA92F982F8827BC01CD01620F711DE7
:10085000811D911D42E0660F771F881F991F4A95E1
:10086000D1F708958F929F92AF92BF92CF92DF926D
:10087000EF92FF924B015C010E940D046B017C0121
:100880000E940D046C197D098E099F09683E734012
:1008900081059105A8F321E0821A9108A108B10809
:1008A00088EEC80E83E0D81EE11CF11C811491046F
:1008B000A104B10429F7FF90EF90DF90CF90BF9093
:1008C000AF909F908F9008952FB7F8946091CD02CC
:1008D0007091CE028091CF029091D0022FBF0895E7
:1008E000CF92DF92EF92FF920F931F930E946404C6
:1008F0000091D6021091D7022091D8023091D902EE
:100900006B017C01C01AD10AE20AF30A9701860141
:100910000A3F110521053105B8F06093D6027093A6
:10092000D7028093D8029093D9026091D50281E0DA
:1009300068276093D50285E01F910F91FF90EF909B
:10094000DF90CF900C9456031F910F91FF90EF9082
:10095000DF90CF90089508950895AF92BF92CF92FF
:10096000DF92EF92FF920F931F93CF93DF936C016F
:100970007B018B01040F151FEB015E01AE18BF0850
:10098000C017D10759F06991D601ED91FC91019002
:10099000F081E02DC6010995892B79F7C501DF911A
:1009A000CF911F910F91FF90EF90DF90CF90BF906C
:1009B000AF900895089520910402260F3327331F26
:1009C00021323105ECF420912802FC0190E080E016
:1009D000243069F082E00895A09104022191AC01D5
:1009E0004C515E4FA40FB52FB11D2C930196861765
:1009F00098F380910402680F6093040280E00895E8
:100A000081E008951092280281E080932A021092DA
:100A1000290261E082E10E94560361E083E10E94C5
:100A20005603E9EBF0E080818E7F808380818D7FAB
:100A3000808388E48093B80085E48093BC000895A7
:100A4000CF93DF9391E090935B028823B9F0C0913C
:100A5000B800D091BA008091BC008A7B8093BC0022
:100A600060E082E10E94560360E083E10E94560349
:100A70000E940205D093BA00C093B800DF91CF91D5
:100A800008950895E091550280915402E81730F4DA
:100A9000F0E0EC53FE4F808190E008958FEF9FEFE0
:100AA000089590915502809154022FEF3FEF9817CF
:100AB00048F4E92FF0E0EC53FE4F208130E09F5FD7
:100AC00090935502C9010895809154029091550266
:100AD000891B990B0895CF92DF92EF92FF920F93AB
:100AE0001F93CF93DF937C01CB018A012091C30137
:100AF000222389F0EB016B01C40ED51ECC15DD0558
:100B000069F06991D701ED91FC910190F081E02DA0
:100B1000C7010995F3CF642F0E94DB04C801DF9160
:100B2000CF911F910F91FF90EF90DF90CF9008959C
:100B3000CF93DF931F92CDB7DEB769832091C301B6
:100B40002223F9F020915202203258F021E030E0C7
:100B5000FC013383228390E080E00F90DF91CF91FE
:100B6000089580915302E82FF0E0ED55FE4F9981F2
:100B700090838F5F809353028093520281E090E0D4
:100B8000ECCF61E0CE0101960E94DB04F7CF90E04C
:100B900080E0089520910301422F50E0FA01EE58C1
:100BA000FD4F208130E0220F331F240F351F96E0C8
:100BB000929FA001939F500D112490E080589F4F69
:100BC000840F951F880F991F880F991F08950F9301
:100BD0001F93182F0E946404112371F010926D026C
:100BE0001092890110928A0110928B0110928C014F
:100BF0001092880180E02DC020916D023091B102E9
:100C0000332351F121110CC021E020936D02609338
:100C1000890170938A0180938B0190938C01E8CFB6
:100C2000209188012111E6CF0091890110918A015C
:100C300020918B0130918C01601B710B820B930B07
:100C40006032734081059105A8F281E080938801AC
:100C500082E01F910F910895222361F28091880113
:100C600010926D021092890110928A0110928B01EC
:100C700010928C011092880191E08927EACFE091CF
:100C80000301E23028F4F0E0E45FFE4F8081089534
:100C900082E00895E091030184E0E89FF0011124CF
:100CA000E25FFE4F608171818281938123E0660F54
:100CB000771F881F991F2A95D1F739E09695879558
:100CC000779567953A95D1F708958F929F92AF9255
:100CD000BF92CF92DF92EF92FF92CF930E943F0696
:100CE000C09102018C1708F4C82F80E4C82E82E45A
:100CF000D82E8FE0E82EF12C9AE0892E912CA12C91
:100D0000B12CCC2351F0C701B601A50194010E947A
:100D10003A2769017A01C150F4CF0E944A069B012B
:100D2000AC01C20ED31EE41EF51EC701B601615010
:100D30007109810991090E943A27822FCF91FF9072
:100D4000EF90DF90CF90BF90AF909F908F900895DD
:100D50004F925F926F927F928F929F92AF92BF92CB
:100D6000CF92DF92EF92FF921F93CF93DF93982E53
:100D70005B01142FE9010E9464046B017C01F50101
:100D8000992009F4BDC08081811124C0C0929101D5
:100D9000D0929201E0929301F0929401C0928D0161
:100DA000D0928E01E0928F01F092900181E08083D9
:100DB000812FFE01DF91CF911F91FF90EF90DF9087
:100DC000CF90BF90AF909F908F907F906F905F90EB
:100DD0004F9009948091910190919201A09193017B
:100DE000B091940146015701881A990AAA0ABB0AD0
:100DF0008091C402882309F466C0F8EE8F16F3E0F0
:100E00009F06A104B10408F44EC00E946506782E26
:100E10000E944A069B01AC01A72DB0E00E94622708
:100E20000E94882620E030E04AEF53E40E94E72544
:100E30002B013C01C501B401685E73408109910931
:100E40000E94882620E030E04AE754E40E94E7252B
:100E500023E333E343E35FE30E947B259B01AC0183
:100E6000C301B2010E94E7250E94592680908D019E
:100E700090908E01A0908F01B0909001A7019601F3
:100E8000281939094A095B0949015A01861697064A
:100E9000A806B90640F02091AA023091BB02332384
:100EA000F1F021111EC0DF91CF911F91FF90EF90C3
:100EB000DF90CF90BF90AF909F908F907F906F907A
:100EC0005F904F90089528EE821623E09206A104C9
:100ED000B10448F360E570E080E090E0C7CF2223E2
:100EE00031F038EC83169104A104B104E0F2C09211
:100EF0008D01D0928E01E0928F01F092900158CF37
:100F00001082D1CF4F925F926F927F928F929F9279
:100F1000AF92BF92CF92DF92EF92FF92CF93DF9387
:100F20002B013C01D42FC22F0E944A064B015C01C9
:100F30007C016B01481459046A047B0478F0AFEF1C
:100F4000BFE7AC019B010E9462276B017C014C143E
:100F50005D046E047F0410F47301620161E070E0CF
:100F600080E090E0DD2331F00E946506682F70E09C
:100F700090E080E0A50194010E9416274B015C01DE
:100F8000C13011F581E0C81AD108E108F108C701A4
:100F9000B601680D791D8A1D9B1DA50194010E9453
:100FA0003A27C501B4010E941627DF91CF91FF9027
:100FB000EF90DF90CF90BF90AF909F908F907F90F9
:100FC0006F905F904F900895C701B601CF3F29F30E
:100FD000C501B40196958795779567956C0D7D1D34
:100FE0008E1D9F1DDACF20917902E7E0F1E02223E8
:100FF00031F0E5E0F1E0213011F4E6E0F1E039E034
:1010000048E057E090818F3F11F59830C9F4508344
:1010100090819830A0F4222331F060910701961757
:1010200061F0213031F060910601961731F02230E5
:1010300031F060910501961302C0315019F70895FF
:10104000911102C04083E4CF91509083E1CF98305A
:1010500011F41082DDCF9730A9F39F5FF6CF8F9206
:101060009F92AF92BF920F931F93CF93DF93CDB711
:10107000DEB7A1970FB6F894DEBF0FBECDBF19A2A1
:10108000423008F44AE08E010F5D1F4F842E912CF0
:10109000B12CA12CA50194010E943A27E62FB90199
:1010A000CA01EA3044F5E05DD801EE938D01232BAF
:1010B000242B252B79F790E080E0109769F0FD0153
:1010C00001900020E9F73197AF014A1B5B0BBD018E
:1010D00087EE92E00E94AD04A1960FB6F894DEBFB1
:1010E0000FBECDBFDF91CF911F910F91BF90AF90F9
:1010F0009F908F900895E95CD7CFFC01019000206C
:10110000E9F73197AF01481B590BBC0187EE92E01C
:101110000C94AD04EF92FF920F931F93CF93DF9344
:101120007C018C01CAE0D0E0CE010E942D25F8019F
:1011300081938F012196CB31D105B1F7C701DF91A2
:10114000CF911F910F91FF90EF900895CF92DF9272
:10115000EF92FF920F931F93CF93DF93EB017B01ED
:1011600024E0E20EF11C8B016C01C61AD70AC601FD
:10117000800F911F0E942D25F80181938F01EE159C
:10118000FF05A9F7CE01DF91CF911F910F91FF903D
:10119000EF90DF90CF900895CF93DF93863050F596
:1011A000EB010E94CA05BE010E94A60888819981B0
:1011B000AA81BB818F3F2FEF9207A207B207D1F020
:1011C0004091990150919A0160919B0170919C010D
:1011D00084179507A607B70768F0409195015091CD
:1011E00096016091970170919801481759076A0715
:1011F0007B0720F480E0DF91CF91089581E0FBCF61
:101200000C942D254F925F926F927F928F929F92B6
:10121000AF92BF92CF92DF92EF92FF920F931F9304
:10122000CF93DF9300D000D0CDB7DEB78CE390E052
:101230000E940009873008F082E0809372028DE3FB
:1012400090E00E940009873008F082E080937302EA
:1012500090900301A92CB12CF501EE58FD4F808030
:10126000082D10E0C80143E0880F991F4A95E1F767
:101270009C012A5E3E4F3901F901608171818281B2
:10128000938121E041E00E9482076B017C01C092C2
:101290009901D0929A01E0929B01F0929C01F30196
:1012A00064817581868197812FEF41E00E948207DA
:1012B0002B013C014092950150929601609297015A
:1012C00070929801F6E0F81508F445C021E0291560
:1012D00008F441C0C801880F991F8A0D9B1D880F13
:1012E000991F880F991FBE016F5F7F4F865A9F4FCE
:1012F0000E94A60869817A818B819C816C157D058D
:101300008E059F0558F0461657066806790630F098
:1013100020E040E00E9482076B017C01C092BC0289
:10132000D092BD02E092BE02F092BF020F900F90E9
:101330000F900F90DF91CF911F910F91FF90EF9041
:10134000DF90CF90BF90AF909F908F907F906F90E5
:101350005F904F900895C114D104E104F104F1F6B7
:1013600060E070E0CB01D4CFCF93DF93EC0160E07D
:101370008E810E94560361E08E810E94560360E0D8
:101380008E810E9456038BE891E00197F1F7DF917F
:10139000CF910895CF92DF92EF92FF920F931F9318
:1013A000CF93DF936C017C0187E0E80EF11CD0E065
:1013B000C0E0062F10E0B8010C2E02C075956795AD
:1013C0000A94E2F76170F70181917F010E94560350
:1013D0002196C430D10579F7C601DF91CF911F91D5
:1013E0000F91FF90EF90DF90CF900C94B409CF92C3
:1013F000DF92EF92FF920F931F93CF93DF93EC0155
:10140000F62E642F8C810E9456038D818F3F19F038
:1014100060E00E9456030F2D10E08F8584FF25C0E9
:101420006E0187E0C80ED11CF12CE12CB8010E2C06
:1014300002C0759567950A94E2F76170F601819193
:101440006F010E945603FFEFEF1AFF0A88E0E816CB
:10145000F10461F7CE01DF91CF911F910F91FF90C1
:10146000EF90DF90CF900C94B409B80184E07595AB
:1014700067958A95E1F7CE010E94CA096F2DCE01CA
:10148000DF91CF911F910F91FF90EF90DF90CF9060
:101490000C94CA0940E0682F87EE92E00C94F7099B
:1014A00081E00E944A0A8BE39FE10197F1F70895DA
:1014B000CF93DF93823029F49091F6029860909355
:1014C000F6028093FA021092FB0280E48093FC0201
:1014D00080E18093FD0280E58093FE0261E08091CF
:1014E000EB020E9484038091EC028F3F19F061E0CF
:1014F0000E94840361E08091ED020E948403C7EEA4
:10150000D2E09E01275E32408091F60284FD0BC03E
:1015100084E090E021962817390744F461E08E8139
:101520000E948403EECF88E090E0F4CF8BE39DE04F
:101530000197F1F760E08091EB020E94560360E0B2
:101540008091ED020E9456038091EC028F3F19F0CA
:1015500060E00E9456038091F60284FD34C063E08F
:1015600087EE92E00E94CA09CBE4D6E4CE0101974F
:10157000F1F763E087EE92E00E94CA092197F1F744
:1015800063E087EE92E00E94CA0983E592E001974A
:10159000F1F762E087EE92E00E94CA098091F602BC
:1015A00080620E944A0A84E08093F7028CE00E94E5
:1015B0004A0A0E94500A82E08093F80286E0DF9196
:1015C000CF910C944A0A80620E944A0A8BE496E406
:1015D0000197F1F78091F60280620E944A0A83E542
:1015E00092E00197F1F78091F60280620E944A0A28
:1015F000D5CF9091FA02691710F06FEF690FE62FBF
:10160000F0E0E951FD4F9489890F80680C944A0AF3
:10161000CF93DF93EB01682F80E00E94F90ACE019F
:10162000DF91CF910C947D0841E00E94F70981E0A1
:1016300090E008950F931F93CF93DF938C01D0E038
:10164000C0E0F801EC0FFD1F6491662339F041E022
:1016500087EE92E00E94F7092196F3CFCE01DF9149
:10166000CF911F910F91089589E495E00E941A0B84
:1016700061E080E00E94F90A8AE395E00C941A0B7D
:10168000CF92DF92EF92FF926C01990FEE08FF0864
:10169000F7FE16C041E06DE287EE92E00E94F70986
:1016A00066277727CB016C197D098E099F094AE0CF
:1016B0000E942F080196FF90EF90DF90CF90089541
:1016C0004AE0C701B601FF90EF90DF90CF900C94F5
:1016D0002F08CF93DF9386E490E00E9400098111E8
:1016E00081E08093030188E290E00E940009C82F06
:1016F0000E943F069C2F8C1708F4982F90930201AC
:101700000E94020980E590E00E940009843008F000
:1017100081E080930B0182E390E00E940009833016
:1017200008F081E08093040186E590E00E940009C2
:10173000C82F87E590E00E940009D82F88E590E047
:101740000E940009CF3F09F04BC0DF3F09F04AC0BB
:101750008F3F09F047C085E08093070186E08093C2
:10176000060182E0809305018AE792E00E948A08E0
:1017700090918A0210928A02EAE7F2E02AE832E0C7
:10178000819180528F3528F42E173F07C9F799238E
:1017900081F040E150E06EE471E08AE792E00E945F
:1017A000A52744E050E060E270E086E892E00E9405
:1017B00090278EE190E00E94000991E0811101C024
:1017C00090E09093080183E290E00E94000991E08C
:1017D000811101C090E090930901DF91CF910895AC
:1017E000C83008F0C8E0C0930701D83008F0D8E04E
:1017F000D0930601883008F088E080930501D83046
:1018000029F0CD1303C098E090930601883009F4C5
:10181000ABCFC81721F0909106018913A5CF88E0BE
:10182000A1CF85ED8093BC00809157029091580222
:10183000A0915902B0915A020796A11DB11D23E053
:10184000B695A795979587952A95D1F72091BC00D5
:1018500024FD03C010922802089540915702509130
:1018600058026091590270915A02452B462B472B22
:1018700069F30097A105B10541F02AE22A95F1F735
:1018800000C00197A109B109E1CF809156020C94E3
:101890002005FF920F931F93CF93DF93EC018B01F1
:1018A000F42E40E150E060E270E00E949027188A38
:1018B000C8010E94ED22813108F080E1482F50E0FC
:1018C00080E0FF2031F080E190E0841B950B95953E
:1018D0008795B8018C0F9D2F911DDF91CF911F919E
:1018E0000F91FF900C94E4229F92AF92BF92CF92FF
:1018F000DF92EF92FF920F931F93CF93DF93CDB7B9
:10190000DEB729970FB6F894DEBF0FBECDBF982E75
:1019100059016801CB01BA010E94882620E034E217
:1019200044E759E40E94E7259E012F5F3F4F79016C
:1019300089012091020148E00E94C622F70101902E
:101940000020E9F731978F010E191F09C6010E9487
:10195000ED22800F10E1181BA114B10439F0692D9C
:1019600080E00E94F90AC5010E941A0B692D812F9F
:101970000E94F90AC7010E947D08C6010E941A0B45
:1019800029960FB6F894DEBF0FBECDBFDF91CF9181
:101990001F910F91FF90EF90DF90CF90BF90AF908D
:1019A0009F9008954F925F926F927F928F929F9235
:1019B000AF92BF92CF92DF92EF92FF920F931F935D
:1019C000CF93DF93CDB7DEB7E3970FB6F894DEBFC2
:1019D0000FBECDBF182F8091CB028823E1F01830C5
:1019E00009F084C08091F7028D7F8093F7028860B0
:1019F0000E944A0A1150183038F5E12FF0E0ED5FEF
:101A0000F24F0C945C273B0D8D0DA80D0D0DEC10C5
:101A10004B11BF11CD11143029F761E080E00E9415
:101A2000F90A8BE892E00E947D0861E080917402DF
:101A30000E94F90A8091F702982F92609093F70222
:101A40008A600E944A0A52C00E94500A8EE295E0C3
:101A50000E941A0B8CE295E00E941A0B87E295E037
:101A60000E941A0B61E080E00E94F90A88E195E08B
:101A70000E941A0B3BC04091BC025091BD02609184
:101A8000BE027091BF0203E115E030E020E080E08B
:101A90000E94740C61E080E00E94F90A80910A01C2
:101AA000811120C00E94640428EE33E040E050E041
:101AB0000E943A2720FF16C040E150E060E270E04B
:101AC000CE0101960E949027198ABE016F5F7F4F59
:101AD00081E00E94080B61E080E00E94F90A85E045
:101AE00095E0C6CF8AE792E00E947D08E3960FB6A4
:101AF000F894DEBF0FBECDBFDF91CF911F910F9144
:101B0000FF90EF90DF90CF90BF90AF909F908F901D
:101B10007F906F905F904F9008958091C4028111E3
:101B200007C061E00E94F90A80E095E00E941A0B6C
:101B30004091BC025091BD026091BE027091BF0203
:101B40000BEF14E030E020E081E00E94740CCECF77
:101B50000E94500A8091AC02882309F160E080E085
:101B60000E94F90A8DEE94E00E941A0B61E080E079
:101B70000E94F90A8AEE94E00E941A0B8091A0025A
:101B8000813051F030F0823009F0B0CF8EEC94E02B
:101B90006FCF8DED94E06CCF85ED94E069CF8091AF
:101BA000AB028430F1F51091A002123031F1C0F493
:101BB000112301F184EB94E01130C9F061E080E081
:101BC0000E94F90A8FE694E0133009F451CF1450C3
:101BD00080E694E0123008F44BCF82E594E048CFE1
:101BE0001430E1F068F08DE794E0153039F70E9489
:101BF0001A0BE4CF80EC94E0FACF87EA94E0F7CFB9
:101C00008CE994E00E941A0B80910A01811103C0B3
:101C100085E994E0ECCF89E994E0E9CF8DE894E0A0
:101C2000E6CF853009F098C080919C02813009F49C
:101C30006AC008F463C0823009F475C061E080E0D6
:101C40000E94F90A1091A00283E294E0163009F490
:101C50000FCF1A8A1B8A1C8A1D8ABE016E5E7F4FB7
:101C6000812F0E94CC08882309F462C06A897B898D
:101C70008C899D8920E041E00E9482076A8B7B8BE2
:101C80008C8B9D8B0E94882620E034E244E759E447
:101C90000E94E7259E012F5F3F4F79018901209126
:101CA000020140E00E94C622F70101900020E9F7FE
:101CB000EE19ED5FE031D0F51FE01E1B83E194E0EB
:101CC000153010F487E194E00E941A0B8091A00275
:101CD00090E001960E94400B81E294E00E941A0B72
:101CE00061E0812F0E94F90A8FE194E00E941A0BB3
:101CF000C7010E947D088AE194E0BACE84E494E0B2
:101D00000E941A0B9BCF4091C0025091C10260917A
:101D1000C2027091C30209E314E02EE334E080E0D4
:101D20000E94740C8BCF8CE294E0EACF10E0CACF13
:101D30008FE094E00E941A0B812F90E001960E94A0
:101D4000400B8DE094E00E941A0B61E089E00E9454
:101D5000F90A85E094E08CCE811136C08091A00212
:101D60008130E1F080F0823021F1833009F0BECE85
:101D700085EA93E00E941A0B61E080E00E94F90A74
:101D800086E993E075CE88EF93E00E941A0B61E03C
:101D900080E00E94F90A8BEE93E06ACE8EED93E02C
:101DA0000E941A0B61E080E00E94F90A81ED93E045
:101DB0005FCE80EC93E00E941A0B61E080E00E940D
:101DC000F90A83EB93E054CE813009F08BC0809107
:101DD000A002813009F461C030F0823009F086CE73
:101DE0000E94340B83CE87E893E00E941A0B61E0D7
:101DF00080E00E94F90A80919F02882309F44AC07A
:101E0000E0910301F0E0EE58FD4F008138E0039FC0
:101E1000800111240A5E1E4FF80160817181828168
:101E2000938121E041E00E9482072B013C01F801EF
:101E300064817581868197812FEF41E00E9482073E
:101E40004B015C0184E893E00E941A0B30E4C32E3E
:101E500032E4D32E3FE0E32EF12CC301B201A701FF
:101E600096010E943A27CA01B9014AE00E942F0850
:101E700082E893E00E941A0BC501B401A701960104
:101E80000E943A27CA01B9014AE00E942F088DE753
:101E900093E0EECD8FE693E0EBCD85E693E00E94F4
:101EA0001A0B61E080E00E94F90A80919F0288236A
:101EB000B1F082E693E00E941A0B6091020170E09B
:101EC00090E080E04AE00E942F088091020181307A
:101ED00019F08FE493E0CCCD89E593E0C9CD81E49E
:101EE00093E0C6CD823009F0FCC08091A002823020
:101EF00009F47FC008F055C0882309F459C0813027
:101F000009F0F4CD83E193E00E941A0B61E080E0D8
:101F10000E94F90A80919F02882309F467C080E13A
:101F200093E00E941A0BE091030124E0E29FF0018C
:101F30001124E25FFE4F608171818281938120E4F0
:101F4000C22E22E4D22E2FE0E22EF12CA701960120
:101F50000E943A27CA01B9014AE00E942F088EE088
:101F600093E00E941A0BE091030134E0E39FF0013B
:101F70001124E25FFE4F6081718182819381A7010C
:101F800096010E943A2720EA36E841E050E00E949C
:101F90003A27CA01B9014AE00E942F0889E093E07C
:101FA00067CD833009F447C0843009F419CF9ECD42
:101FB00085E393E00E941A0B61E080E00E94F90A39
:101FC00080919F02882379F080E393E00E941A0BAE
:101FD000E091E602F0E0EB59FE4F608170E090E0A6
:101FE00080E040E14FC082E293E042CD8BEF92E08F
:101FF0003FCD8FEE92E00E941A0B61E080E00E94DC
:10200000F90A80919F02882399F08CEE92E00E9459
:102010001A0B80910401882329F0813031F089ED79
:1020200092E026CD87EE92E023CD82EE92E020CDA5
:102030008BEC92E01DCD8EEB92E00E941A0B61E0DA
:1020400080E00E94F90A80919F02882309F446C02B
:102050008BEB92E00E941A0B80917902811118C0DB
:1020600082EB92E00E941A0B80910701883068F49D
:1020700080EB92E00E941A0B6091070170E090E003
:1020800080E04AE00E942F0831CD8BEA92E0F0CC4C
:10209000813091F480EA92E00E941A0B809106014F
:1020A000883038F48EE992E00E941A0B60910601A4
:1020B000E5CF89E992E0DCCC8EE892E00E941A0B31
:1020C00080910501883038F48CE892E00E941A0B68
:1020D00060910501D3CF87E892E0CACC89E792E00E
:1020E000C7CC833009F002CD8091A002823009F480
:1020F0004DC0E0F48823C9F1813009F0F7CC8FE4BA
:1021000092E00E941A0B61E080E00E94F90A80913F
:102110009F028823C1F18CE492E00E941A0B809107
:10212000080181112DC084E492E0A2CC833009F033
:102130003BCF80919D02811146C08FEE91E00E94BD
:102140001A0B61E080E00E94F90A80919F028823C7
:1021500009F43FC08CEE91E00E941A0B80919E0220
:10216000811134C084EE91E083CC8CE692E00E9431
:102170001A0B61E080E00E94F90A80E692E078CCD8
:1021800088E492E075CC86E392E072CC86E292E03D
:102190000E941A0B61E080E00E94F90A80919F0280
:1021A000882371F083E292E00E941A0B809109016A
:1021B000811103C08BE192E05BCC8FE192E058CCBF
:1021C0008DE092E055CC8DEF91E0B9CF88EE91E0B3
:1021D0004FCC86ED91E04CCC60E080E00E94F90AA3
:1021E0008091BA02882319F080ED91E041CC0E94E1
:1021F000640400919F011091A0012091A1013091F0
:10220000A2016B017C01C01AD10AE20AF30A97010C
:1022100086010A3F11052105310508F467CC60935A
:102220009F017093A0018093A1019093A2018EEC75
:1022300091E00E941A0B8EEC91E00E941A0B8EEC3A
:1022400091E00E941A0B8EEC91E00E941A0B8EEC2A
:1022500091E00E941A0B10919E0160E0812F0E9474
:10226000F90A0091000188EC91E0002311F08BEC59
:1022700091E00E941A0B8FEF011181E0810F809392
:102280009E01882319F0833009F030CC81E00827C3
:10229000009300012BCC80910901882309F426CCFE
:1022A0008091AB020DEA11E062E971E0843020F028
:1022B0000AEB11E062EA71E07E0123E2E20EF11C1A
:1022C00041E0C7010E94490C6E0132E1C30ED11CEE
:1022D00040E0B801C6010E94490C0E94500AB701B3
:1022E00080E00E94080B68EE73E080E090E00E94BE
:1022F000320411E0BE2CAF2CCE0101967C0100E22D
:1023000081E1EB2DFA2DD70101900D928A95E1F72D
:10231000212F193008F028E0C701D701F7010193F8
:102320001F960C931F9711973E2F3E193217B8F343
:102330001430B8F04DEF410FD7019601B601FB0103
:102340005191BF01FC015193CF01F90157851F96AF
:102350005C931F97215031091197562F5C19541720
:1023600070F3B70180E00E94080B66E470E080E043
:1023700090E00E9432041F5F1C3011F6B7CB8091B1
:10238000B902882319F00E94500AB0CB81E00E9464
:10239000D20C85E00E94D20CA9CB8FEF90E00E9476
:1023A000B5030E94500A109176028BE791E0112349
:1023B00011F085E891E00E941A0B61E080E00E9434
:1023C000F90A112339F08EE691E00E941A0BE09190
:1023D0000B0100CE82E691E04BCB8091AA028111E5
:1023E0002AC080919F02882359F010929F02109278
:1023F000790210929E0210929D0283E00C94D20CFE
:102400008091AC02882341F01092AC021092AB0292
:1024100083E08093A002F1CF8091AB02811106C0CE
:1024200081E08093AC021092A002E7CF1092AB0241
:1024300080917502EECF08951092BB0210929F0218
:102440001092AC021092AA021092AB021092A0025B
:1024500010929C020E9464046093A6027093A702EB
:102460008093A8029093A90281E08093A5020E9424
:10247000D20C85E00C94D20C8091AB02853051F4E3
:1024800084E08093AB0280919C028093A00283E061
:102490000C94D20C0C941C12CF92DF92EF92FF920C
:1024A000CF938823F1F0E0917402F0E0E557FD4FFF
:1024B0008081082E000C990B8097860F911D67FD77
:1024C0009A95815A9F4F6FE570E00E942627805EA3
:1024D000808384E0CF91FF90EF90DF90CF900C94B9
:1024E000D20CC42F0E9464046B017C01C11104C092
:1024F000809174028F3040F11092AA0210927402FF
:1025000010929F021092AC0210929B0240E150E0A8
:102510006BE872E08AE792E00E94A52710928A0297
:1025200083E00E94D20CC092A602D092A702E09251
:10253000A802F092A90281E08093A502CF91FF90BA
:10254000EF90DF90CF9008958F5F80937402C1CF9A
:1025500040E0682F81E00C944C120E94690B60915E
:10256000BC027091BD028091BE029091BF0220E03A
:1025700041E00E9482076093BC027093BD02809389
:10258000BE029093BF021092AA021092AC02109267
:102590009F021092BB0210929E0210929D02109216
:1025A000AB020E9464046093A6027093A70280931A
:1025B000A8029093A90281E08093A5020E94D20C08
:1025C00085E00C94D20C2F923F924F925F926F92C3
:1025D0007F928F929F92AF92BF92CF92DF92EF92B3
:1025E000FF920F931F93CF93DF9300D000D01F92E1
:1025F000CDB7DEB7C82EF62EE42ED52E2C830111D2
:1026000080C08AE08D83EF2DEE0FE98311E0222454
:102610002A9485EE882E95EC992EFC81AF2EB12C54
:10262000F150FB83CC2009F4EFC00E940D042B0174
:102630003C0180912802811167C0109328021093F9
:102640002A022092270210924C028B8180934B0227
:1026500010934D0280914D029981892B80934D02F8
:1026600080912902813009F0A0C0109229020E94B5
:102670000D042B013C0180914D028093BB008091A1
:10268000570290915802A0915902B0915A02892B99
:102690008A2B8B2BA1F00E940D04209157023091C0
:1026A00058024091590250915A02641975098609DD
:1026B0009709261737074807590708F446C080913D
:1026C000BC0083FDD8CF9092BC000E940D042B016A
:1026D0003C0180912802813009F46AC080914C024B
:1026E000EC818E1708F086C080914C02ABE2B2E01C
:1026F000E4ECF1E090E0981769F12D9121939F5F50
:10270000FACF91E09D837FCF80915702909158023C
:10271000A0915902B0915A02892B8A2B8B2B09F474
:1027200088CF0E940D0420915702309158024091A9
:10273000590250915A02641975098609970926179A
:1027400037074807590708F074CF809156020E9456
:10275000200580E01092550280935402FC81F8130A
:102760000EC1E9820E2D1D2D802F9981891BEC81D0
:102770008E1708F441C001E0802F0F900F900F904A
:102780000F900F90DF91CF911F910F91FF90EF90DD
:10279000DF90CF90BF90AF909F908F907F906F9081
:1027A0005F904F903F902F9008958092BC008DCF06
:1027B0008091570290915802A0915902B0915A020B
:1027C000892B8A2B8B2B09F484CF0E940D04209136
:1027D0005702309158024091590250915A0264199F
:1027E000750986099709261737074807590708F01A
:1027F00070CFABCF8C817ACF8AED92E00E945105E9
:10280000F80181938F01B0CF1093C301F0929D0125
:102810001092530210925202FC81FF2339F0A5015D
:102820006E2D7D2D8AED92E00E946B053090520254
:1028300080E2831508F400C190919D019A830E9463
:102840000D042B013C0180912802811169C0E2E056
:10285000E093280210932A022092270210924C0241
:1028600030924B02E3EAF1E0ABE2B2E03812BBC0D7
:1028700010924D0290914D028A81880F892B80938E
:102880004D0280912902813009F0B1C010922902D5
:102890000E940D042B013C0180914D028093BB00EE
:1028A0008091570290915802A0915902B0915A021A
:1028B000892B8A2B8B2BA1F00E940D0420915702AB
:1028C000309158024091590250915A026419750989
:1028D00086099709261737074807590708F441C0A2
:1028E0008091BC0083FDD8CF9092BC000E940D0463
:1028F0002B013C0180912802823009F47BC0809139
:1029000027028F3F09F49AC080912702803209F490
:1029100097C080912702803309F494C084E026C0D8
:102920008091570290915802A0915902B0915A0299
:10293000892B8A2B8B2B09F486CF0E940D042091C2
:102940005702309158024091590250915A0264192D
:10295000750986099709261737074807590708F0A8
:1029600072CF809156020E94200585E0109253029A
:10297000109252021092C301882309F4FCCE8D817B
:10298000813031F062E370E080E090E00E94320438
:10299000FD81F150FD83F11145CE011155C0E0914B
:1029A0000B01F0E0EB59FE4F80818F11E5CE809155
:1029B000BB0281110E94AD1281E08093CB02109284
:1029C000C9021092BA021092BB021092C402109275
:1029D000B9021092B80260E085E00E94560388E0D8
:1029E0000E94D20CC9CE91919D938F5F3FCF809270
:1029F000BC007CCF8091570290915802A09159025F
:102A0000B0915A02892B8A2B8B2B09F473CF0E9429
:102A10000D04209157023091580240915902509173
:102A20005A02641975098609970926173707480756
:102A3000590708F05FCF95CF81E098CF80E096CF1F
:102A400082E094CF83E092CF00E096CE0F93CF93B5
:102A5000DF9300D0CDB7DEB78091BA02882399F119
:102A60009091070180E0983028F481E001C0880F40
:102A70009A95EAF790910501983058F420910A014F
:102A8000222339F021E030E001C0220F9A95EAF7C5
:102A9000822B209104012130E1F091E0223009F0F5
:102AA00090E02EE8922B99838A83E0910B01F0E06D
:102AB000EB59FE4F00E022E0AE014F5F5F4F6081B7
:102AC00080E00E94E3120F900F90DF91CF910F9161
:102AD00008952EEC90E0E6CF81E080939E0283E0A3
:102AE0000C94D20C10929E0283E00C94D20C81E0E4
:102AF0008093090183E00C94D20C1092090183E0C9
:102B00000C94D20C81E08093080183E00C94D20CE9
:102B10001092080183E00C94D20C81E00E94F3072C
:102B200083E00C94D20C8FEF0E94F30783E00C94A7
:102B3000D20C80910401813029F41092040183E0C9
:102B40000C94D20C8111FBCF82E080930401F7CF6B
:102B500080910401823029F41092040183E00C94E6
:102B6000D20C8111FBCF81E080930401F7CF8091DB
:102B70000301811103C081E0809303010E943F069D
:102B80008093020183E00C94D20C8091030188238E
:102B900019F08150809303010E943F068093020147
:102BA00083E00C94D20C8091E602833018F48F5F9E
:102BB0008093E60283E00C94D20C8091E602882395
:102BC00019F081508093E60283E00C94D20C0E94AD
:102BD0003F0690910201981718F49F5F90930201AD
:102BE00083E00C94D20C80910201882319F081506B
:102BF0008093020183E00C94D20CE0910301F0E099
:102C0000EE58FD4F8081863028F48F5F808383E00B
:102C10000C94D20C80E0FACFE0910301F0E0EE5882
:102C2000FD4F8081882329F08150808383E00C94BC
:102C3000D20C86E0FACF8091A002823030F48F5F10
:102C40008093A00283E00C94D20C08958091A0029E
:102C5000882331F081508093A00283E00C94D20C41
:102C60000895E091AB028091A002E53051F48630E6
:102C700010F48F5F01C080E08093A00283E00C9489
:102C8000D20CF0E0E15AFE4F20812150330B821725
:102C900013067CF308958091A0029091AB029530C9
:102CA00051F4882311F0815001C086E08093A00286
:102CB00083E00C94D20C8111F6CF08954F925F926D
:102CC0006F927F928F929F92AF92BF92CF92DF923C
:102CD000EF92FF92CF93DF9300D000D000D0CDB71A
:102CE000DEB78D83409095015090960160909701DA
:102CF00070909801C0909901D0909A01E0909B014A
:102D0000F0909C018091C4028823C9F18090BC029C
:102D10009090BD02A090BE02B090BF020E946506D6
:102D20008E830E944A069B01AC01D301C2018C191B
:102D30009D09AE09BF0989839A83AB83BC839E81B9
:102D4000A92FB0E00E94622729813A814B815C81E2
:102D5000261737074807590710F4CA01B9013D8102
:102D600013160CF043C0860E971EA81EB91E809243
:102D7000BC029092BD02A092BE02B092BF028091AE
:102D8000BC029091BD02A091BE02B091BF028C1511
:102D90009D05AE05BF0578F1481659066A067B0603
:102DA00010F06C017D01C092BC02D092BD02E09295
:102DB000BE02F092BF0282E00E94D20C81E08093BA
:102DC000C40226960FB6F894DEBF0FBECDBFDF91CA
:102DD000CF91FF90EF90DF90CF90BF90AF909F90FA
:102DE0008F907F906F905F904F900895861A970A0A
:102DF000A80AB90ABCCF73016201D5CFFF920F9325
:102E00001F93CF93DF93EC01F62E08811981C8013F
:102E10000E942D25F81621F06F2DC8010E9435253E
:102E2000CE01DF91CF911F910F91FF900895AF9246
:102E3000BF92CF92DF92EF92FF920F931F93CF93A7
:102E4000DF9300D0CDB7DEB78B016B0124E0C20E5B
:102E5000D11C7B015C01A61AB70AC5018E0D9F1D0E
:102E60009A838983F70161917F01CE0101960E94C7
:102E7000FE16EC14FD0489F7C8010F900F90DF9146
:102E8000CF911F910F91FF90EF90DF90CF90BF9067
:102E9000AF900895CF92DF92EF92FF920F931F931E
:102EA000CF93DF93CDB7DEB728970FB6F894DEBF88
:102EB0000FBECDBF182F6091BC027091BD028091F2
:102EC000BE029091BF0220E041E00E9482076B01A8
:102ED0007C01C092BC02D092BD02E092BE02F09290
:102EE000BF028091C0029091C102A091C202B09134
:102EF000C302C816D906EA06FB0639F48091BB0264
:102F0000811103C0112309F478C00E944A069B0175
:102F1000AC01C701B6010E943A273D832E83809100
:102F20000401823009F478C09EEC80E0892B8F8305
:102F30009091060180E0983028F481E001C0880F6C
:102F40009A95EAF78887E0910B01F0E0EB59FE4F84
:102F500000E024E0AE014B5F5F4F608180E00E94A3
:102F6000E312882309F449C04091BC025091BD028C
:102F70006091BE027091BF0280910301282F30E062
:102F8000F901EE58FD4F908149835A836B837C830E
:102F9000973000F58230F0F4C090C002D090C102AA
:102FA000E090C202F090C3024C155D056E057F05EE
:102FB00089F0892F90E0880F991F820F931F880F47
:102FC000991F880F991FBE016F5F7F4F865A9F4FD1
:102FD0000E9417178091BC029091BD02A091BE0281
:102FE000B091BF028093C0029093C102A093C2022D
:102FF000B093C30281E08093C90228960FB6F8947B
:10300000DEBF0FBECDBFDF91CF911F910F91FF901B
:10301000EF90DF90CF9008959EE881E087CFCF9327
:10302000DF9300D0CDB7DEB79A838983CE010196B6
:103030000E94FE160F900F90DF91CF9108951F927E
:103040000F920FB60F9211242F933F938F939F935C
:10305000AF93BF938091CD029091CE02A091CF0209
:10306000B091D0023091CC0223E0230F2D3758F5D8
:103070000196A11DB11D2093CC028093CD029093A7
:10308000CE02A093CF02B093D0028091D102909152
:10309000D202A091D302B091D4020196A11DB11D1C
:1030A0008093D1029093D202A093D302B093D40222
:1030B000BF91AF919F918F913F912F910F900FBE34
:1030C0000F901F90189526E8230F0296A11DB11DA1
:1030D000D2CF1F920F920FB60F9211242F933F93CE
:1030E0004F935F936F937F938F939F93AF93BF9310
:1030F000EF93FF938091B900887F803609F44AC02E
:10310000F0F5883209F4A7C018F5803109F49BC0A6
:10311000B8F4882309F4F9C0883009F494C0FF9109
:10312000EF91BF91AF919F918F917F916F915F913F
:103130004F913F912F910F900FBE0F901F901895B8
:10314000883109F488C0803251F78093270214C077
:10315000803409F49DC040F48033B9F38833F9F624
:103160008093270285ECB0C0803509F485C088358E
:1031700009F496C0883499F60E94110CD0CF883992
:1031800009F48CC038F5883729F050F4883611F0EE
:10319000803729F683E0809328021092260257C0D8
:1031A000883809F47BC0803919F0803809F0B7CF2E
:1031B00080912602803208F071C0E091260281E001
:1031C0008E0F809326028091BB00F0E0EA5FFD4FF6
:1031D00080833DC0803B39F0E0F4803A09F479C047
:1031E000883A09F09CCF84E080932802109205026F
:1031F00010920402E0915002F091510209958091E1
:10320000040281110FC081E0809304021092E40156
:1032100009C0803C09F4A6CF883C09F4A3CF883BC1
:1032200009F07DCFE091050281E08E0F80930502C9
:10323000F0E0EC51FE4F80818093BB00909105023D
:103240008091040229C080914D028093BB0085ECDF
:103250008093BC0064CF90914C0280914B029817F0
:1032600058F5E0914C0281E08E0F80934C02F0E023
:10327000E55DFD4F8081E9CFE0914C0281E08E0F4A
:1032800080934C028091BB00F0E0E55DFD4F8083B0
:1032900090914C0280914B029817C8F285E8D8CFE4
:1032A000E0914C0281E08E0F80934C028091BB0034
:1032B000F0E0E55DFD4F808380912A0281115CCFB3
:1032C00081E08093290284EA8093BC001092280256
:1032D00026CF85EC8093BC001092280280912602B4
:1032E000803230F4E0912602F0E0EA5FFD4F108278
:1032F0006091260270E0E0914E02F0914F0286E06C
:1033000092E00995109226020ACF1092270234CF3C
:10331000EAEDF2E01382128288EE93E0A0E0B0E0E2
:1033200084839583A683B7838DE691E09183808320
:10333000E7EEF2E0138212828FE791E091838083BF
:1033400088E084838FEF858389E086838AE08783A2
:103350008BE080878CE081878DE0828713861486DE
:1033600015861686178681E00E94580A80910B0107
:103370008093E6020895CF93DF93CDB7DEB76797CA
:103380000FB6F894DEBF0FBECDBF789484B58260CF
:1033900084BD84B5816084BD85B5826085BD85B5F9
:1033A000816085BD80916E00816080936E00109277
:1033B00081008091810082608093810080918100F2
:1033C0008160809381008091800081608093800083
:1033D0008091B10084608093B1008091B0008160E1
:1033E0008093B00080917A00846080937A0080910D
:1033F0007A00826080937A0080917A008160809365
:103400007A0080917A00806880937A001092C100DF
:1034100062E082E00E94840362E083E00E94840311
:1034200062E084E00E94840361E085E00E948403FE
:1034300061E085E00E94840361E086E00E948403ED
:10344000109255021092540210925302109252029E
:103450000E9402058BEA94E09093510280935002FF
:103460008CEA94E090934F0280934E0282EF809317
:10347000B80010925B0288E893E1A0E0B0E080938E
:10348000570290935802A0935902B0935A0211E048
:103490001093560282E00E94580A8FEF90E00E943B
:1034A000B50380E00E94D20C64EC79E080E090E00B
:1034B0000E94320483E00E942D03892BB1F4109303
:1034C0000B0161E080E590E00E940F1810937602F6
:1034D00088E00E94D20C1092760264EC79E080E0E1
:1034E00090E00E9432041093A5020E94690BE091C3
:1034F0000B01F0E0EB59FE4F00E021E0AE014F5F21
:103500005F4F608181E00E94E31280E00E944A17D1
:1035100081E00E94D20C85E00E94D20C33243394C7
:1035200022242A944AE8842E42E0942E50E0A52ECC
:1035300050E0B52E11E00E9464042B013C0182E0B2
:103540000E942D0301E0892B09F000E00093B302F3
:1035500083E00E942D03FF24F394892B09F0F12CC2
:10356000F092B10284E00E942D0321E0892B09F042
:1035700020E02093B2020F0D020F023010F01093E2
:10358000600280916002882309F4F4C01092B202B4
:103590001092B1021092B3021092770210926D0253
:1035A0001092780201110AC01092600240925C02EF
:1035B00050925D0260925E0270925F028091CB0237
:1035C000882309F4F7C0209201018FEF90E00E9458
:1035D000B5038091BB02811169C08091CB0281113A
:1035E0004DC20091B30201110DC08091B102811151
:1035F00009C08091B202811105C08091C402882364
:1036000009F458C00E9464042B013C012EE536E108
:103610004FEF68E772E0802F0E94A8062EE536E1A2
:1036200041E067E772E08091B2020E94A8068091B3
:10363000B302811104C08091B202882341F040920C
:103640006E0250926F0260927002709271028091CD
:10365000C402882359F180E00E94E705082F809179
:10366000B102882351F040926E0250926F02609234
:103670007002709271021093A502013009F0BEC170
:103680000E9464042B013C0180E00E944A171092C2
:10369000C4024092A6025092A7026092A8027092C1
:1036A000A9020093A50281E00E94D20C8091CB0276
:1036B0008111E4C10E9464042B013C018091B40299
:1036C0009091B502A091B602B091B7020097A10502
:1036D000B105A9F073016201C81AD90AEA0AFB0A06
:1036E000D701C6018E359140A105B10540F0109279
:1036F000B4021092B5021092B6021092B702F09086
:10370000B302F11008C08091B202811104C080910F
:10371000B102882341F04092AD025092AE02609215
:10372000AF027092B0022091BB02222309F498C12B
:103730008091AC02811194C14091AD025091AE02D2
:103740006091AF027091B002D301C201841B950B4E
:10375000A60BB70BAC01BD0141325E44610571059A
:1037600008F47EC18091AB02843008F467C10E94E6
:103770001C1284C180915C0290915D02A0915E0256
:10378000B0915F02481A590A6A0A7B0A22E342167C
:1037900051046104710408F011CF1092B20210922A
:1037A000B1021092B3021092770210926D02109241
:1037B000780204CF8091B802882311F11092B802E8
:1037C00080910101882369F081508093010190E08C
:1037D0000E94B50361E070E080E090E00E94320456
:1037E000EFCF1093B90287E00E94D20C83E00E94D1
:1037F0002D03892BD9F310926D021092B102E9CEFC
:103800008091C402811104C08091BB02882349F0D9
:103810001092690210926A0210926B0210926C026E
:10382000D8CE0E9464042B013C018091B302811127
:1038300008C08091B102811104C08091B202882336
:1038400089F1209201018FEF90E00E94B5038091F1
:10385000B9028823F9F01092B90287E00E94D20CD5
:103860008091B30202E0811106C08091B20204E0AF
:10387000811101C003E0802F0E942D03892BD9F311
:10388000033009F453C0043009F44BC0109278029D
:103890001092B3024092690250926A0260926B02E7
:1038A00070926C0280910A01811145C010926902E8
:1038B00010926A0210926B0210926C028091B9020F
:1038C000811187CE809101018F3F31F0209201015B
:1038D0008FEF90E00E94B50380916502909166029F
:1038E000A0916702B0916802B301A201481B590B75
:1038F0006A0B7B0BDB01CA01883E9340A105B10531
:1039000008F467CE409265025092660260926702A8
:103910007092680281E00E94D20C85E00E94D20C75
:1039200058CE109277021092B202B4CF10926D026C
:103930001092B102AFCF8091BA02882309F468CF08
:103940008091690290916A02A0916B02B0916C0221
:10395000892B8A2B8B2B41F44092690250926A0288
:1039600060926B0270926C0280910801882309F4C6
:1039700030CE8091690290916A02A0916B02B09161
:103980006C02B301A201481B590B6A0B7B0BDB01D4
:10399000CA01853C9940A105B10508F41ACE809171
:1039A000B902811116CE209101012F3108F411CEF8
:1039B00040916102509162026091630270916402D1
:1039C000D301C201841B950BA60BB70BAC01BD0143
:1039D000473051056105710508F4FBCD8FEF820F6B
:1039E0008093010190E00E94B503409261025092E1
:1039F00062026092630270926402EBCD023009F0C1
:103A000024C51092C4028091C0029091C102A0917D
:103A1000C202B091C3028093BC029093BD02A093F6
:103A2000BE02B093BF024092A6025092A7026092DB
:103A3000A8027092A9021093A50235CE1092AA0294
:103A40000E94AD1285E00E94D20C4092A6025092D4
:103A5000A7026092A8027092A9021093A5020EC05C
:103A60008091A502882309F458C08091B102811188
:103A700005C01092A50281E00E94E7050E9464043F
:103A80002B013C018091CB0281110E947004809136
:103A9000CA02811141C48091C902882309F441C43A
:103AA00080E090E0DC01C090C502D090C602E090BA
:103AB000C702F090C802A30192012C193D094E09DA
:103AC0005F09281739074A075B0700F14092C502D2
:103AD0005092C6026092C7027092C802E0910B0138
:103AE000F0E0EB59FE4F01E021E0AE014F5F5F4F88
:103AF000608181E00E94E31281114DC48091CA026D
:103B00008F5F8A3008F012C48093CA02A114B104F6
:103B100009F411CD0E9400000ECD8091AA0221115E
:103B20008EC08111ABCF8091A6029091A702A09187
:103B3000A802B091A90273016201C81AD90AEA0A5F
:103B4000FB0AD701C6018E359140A105B10508F4E5
:103B500095CF2091B1028091A1029091A202A091F3
:103B6000A302B091A402222309F499C4892B8A2BC1
:103B70008B2B41F44092A1025092A2026092A302C8
:103B80007092A4028091A1029091A202A091A3023E
:103B9000B091A4020097A105B10509F46FCF481AAE
:103BA000590A6A0A7B0A31E2431633E0530661047C
:103BB000710408F463CF8091B90281115FCF109234
:103BC000A1021092A2021092A3021092A4021092DB
:103BD000B4021092B5021092B6021092B70210937E
:103BE000BB0284E08093AB021092A00210929F026D
:103BF0001092AC021092AA0210929E0210929D02A4
:103C000010929C0286E00E94D20C83E00E94D20CAB
:103C10001093A5020E9464046093AD027093AE02FB
:103C20008093AF029093B00229CF21E0412C512C18
:103C300032016FC444244A94542C32016AC488234C
:103C400001F128EA32E14FEF68E772E08F2D0E9420
:103C5000A80628EA32E141E067E772E08091B2020B
:103C60000E94A80680E00E94E70540E0813021F034
:103C7000823009F003CF41E060E080E00E944C1206
:103C8000FDCE80E00E94E705082FE091AB02E43012
:103C900008F4A8C02BE436E14FEF68E772E08F2DFF
:103CA0000E94A80621E336E141E067E772E08091D7
:103CB000B2020E94A806023019F40E943C12DECE25
:103CC000013009F0DBCE8091AB028430F1F58091B8
:103CD000A002833030F480939C0285E08093AB0295
:103CE00072C18330B1F480910A01082700930A0160
:103CF0008091BA02882359F00E942615811107C0CD
:103D000080910A01832580930A010E94261583E091
:103D1000DCC1843009F02BCD1092BB0210929F02BF
:103D20001092AC021092AB021092A00210929C0270
:103D30001093B8020E9464046093A6027093A702D5
:103D40008093A8029093A90288CE853009F096CE80
:103D50008091A002863009F4B0CF90919C0291111D
:103D600017C0BE016F5F7F4F0E94CC08882379F295
:103D700089819A81AB81BC818093BC029093BD0202
:103D8000A093BE02B093BF0280E00E944A17EFCC1E
:103D9000913081F4863030F40E94CA0560EC72E004
:103DA0000E94171784E08093AB0280919C0280935D
:103DB000A002ADCF923009F061CE863098F70E9414
:103DC000CA053C01F12CE12C6FEFC3018E0D9F1D44
:103DD0000E940F182FEFE21AF20A34E0E316F10402
:103DE00099F7E0CF8091AC02882309F4EFC026E276
:103DF00036E14FEF68E772E08F2D0E94A8062BE1B5
:103E000036E141E067E772E08091B2020E94A806C5
:103E1000023019F40E94ED1131CE013009F02ECE9E
:103E20008091A0028111C8C08091AA02811139C07D
:103E300040E150E06BE872E08AE792E00E94A5273B
:103E400010928A029AE7692E92E0792EF30181910D
:103E500080528F3508F089C38E169F06C1F7CE01B8
:103E600001960E948A0841E150E0BE016F5F7F4FDA
:103E70008AE792E00E949727892B99F08AE0E82E42
:103E8000F12CFB8AEA8AD3016D913D01CE01429665
:103E90000E94FE16BFEFEB1AFB0AEBE1EE16F104EF
:103EA00081F7F0900B01E091E602FE1691F0F0E050
:103EB000EB59FE4F00E020E050E040E0608180E000
:103EC0000E94E312882309F457C08091E602809390
:103ED0000B01609172028CE390E00E940F186091D8
:103EE00073028DE390E00E940F186091020188E256
:103EF00090E00E940F1860910B0180E590E00E9415
:103F00000F186091030186E490E00E940F18609101
:103F1000040182E390E00E940F186091070168306D
:103F200008F068E086E590E00E940F1860910601B5
:103F3000683008F068E087E590E00E940F18609113
:103F40000501683008F068E088E590E00E940F18ED
:103F5000609108018EE190E00E940F1860910901C4
:103F600083E290E00E940F180E94020980E00E9404
:103F70004A170E94AD1282CDF0920B011093760287
:103F800088E00E94D20C109276020E9464042B01F9
:103F90003C010E9464046419750986099709643C10
:103FA00079408105910518F40E947004F2CF60E019
:103FB00085E00E9456038DCF8130D9F2823009F01E
:103FC0005DCD1092AC021092A002A1CE80919F0212
:103FD000811187C0F0E0E15AFE4FE080FF2009F434
:103FE0003FC08091780281110CC0109378028091BB
:103FF000A002882319F081508093A00283E00E94E0
:10400000D20C8091B202882371F1809177028111E4
:1040100010C0109377028091A0024E2D4150550B95
:10402000841715061CF48F5F8093A00283E00E9422
:10403000D20C023009F4EECE013009F01FCD909180
:10404000AB028091A00291111EC08130A1F070F0EE
:104050008230A9F0833009F05ACE0093AC02B3CF7E
:1040600010927802CECF10927702E3CF10927502B1
:104070000093AB02A8CF0093750282E02FCE80930D
:10408000750283E02BCEE92FF0E0E15AFE4F20814C
:104090002150330B8217130629F41092AB02809142
:1040A000750285CE9330D1F4811112C01092740242
:1040B0000093AA0240E150E06AE772E08BE892E0E8
:1040C0000E94A52710929B0284E00E94D20CD6CCBD
:1040D000833021F410929E0210929D0210939F0251
:1040E00016CEE130E1F58091A0028823D9F081302D
:1040F00059F1023009F48ECE013009F0BFCC809125
:10410000AB02823009F095C08091A002833009F0A3
:104110008DC080917902823008F086C08F5F8093D5
:104120007902F5CD2CE036E14FEF68E772E08F2D94
:104130000E94A8062DEF35E141E067E772E080912B
:10414000B2020E94A806D5CF23EF35E14FEF68E712
:1041500072E08F2D0E94A80627EE35E1EDCFE23008
:10416000B1F58091A0028130E1F080F0823021F140
:10417000833009F0BECF23E935E14FEF68E772E005
:104180008F2D0E94A8062DE835E1D6CF2DED35E123
:104190004FEF68E772E08F2D0E94A80623ED35E10E
:1041A000CBCF25EC35E14FEF68E772E08F2D0E9411
:1041B000A80627EB35E1C0CF28EA35E14FEF68E7E5
:1041C00072E08F2D0E94A80629E935E1B5CFE330D2
:1041D00009F08FCF8091A002823081F08330C9F046
:1041E000813009F086CF28E835E14FEF68E772E0CB
:1041F0008F2D0E94A80622E835E19ECF2DE735E1FC
:104200004FEF68E772E08F2D0E94A80627E735E19F
:1042100093CF22E735E14FEF68E772E08F2D0E94E0
:10422000A8062CE635E188CF1092790210929F0201
:104230006ECD8330D9F78091A0028330B9F7809199
:104240009E02882309F465C080919D02882309F4A9
:104250005BC0F12CE12C6FEFC7010E940F185FEFDC
:10426000E51AF50AE11464E0F606A9F70E94690B65
:104270006091BC027091BD028091BE029091BF021C
:1042800020E041E00E9482076093BC027093BD026F
:104290008093BE029093BF0280910B018093E6024F
:1042A00040E150E06AE772E08BE892E00E94A527C7
:1042B00010929B021092790210930A011092B80298
:1042C00080E00E944A171092BB0210929F02109247
:1042D000AC0210929E0210929D021092AB021092BC
:1042E000A0020E9464046093A6027093A7028093C8
:1042F000A8029093A9021093A50281E00E94D20C1B
:1043000085E00E94D20C16CD00939D0210929E0271
:10431000FECC10929D028ACF82E390E0A0E0B0E054
:10432000C2CB80ED97E0A0E0B0E0BDCB1092CA0216
:104330008091CB028111EACB8091C402882381F065
:104340008091C0029091C102A091C202B091C302BB
:104350008093BC029093BD02A093BE02B093BF02B3
:104360008091BB0281110E94AD121093CB0210927A
:10437000C9021092BA021092BB021092C4021092AB
:10438000B9021092B80260E085E00E94560388E00E
:104390000E94D20CBBCB1092CA028091CB02811139
:1043A00003C0898187FF31C08091C402882381F0D6
:1043B0008091C0029091C102A091C202B091C3024B
:1043C0008093BC029093BD02A093BE02B093BF0243
:1043D0008091BB0281110E94AD121092BB0210921B
:1043E000C4021092CB021092BA0260E085E00E94F3
:1043F000560360E085E00E94560381E00E944A1760
:1044000081E00E94D20C85E0C3CF9091C90299232C
:1044100009F47CCB86FB882780F98093BA028091CF
:10442000BB02811103C085E00E94D20C8091BA02C8
:10443000882329F00E94261581111092C9026091EB
:10444000BA0285E00E94560361CB80916E02909182
:104450006F02A0917002B0917102481A590A6A0A5B
:104460007B0A69E8461663E156066104710408F4A4
:104470001DC91092C40281E00E94E7058091C0022C
:104480009091C102A091C202B091C3028093BC027C
:104490009093BD02A093BE02B093BF0204C90097DF
:1044A000A105B10509F4EACA1092A1021092A20274
:1044B0001092A3021092A402B301A201481B590B4F
:1044C0006A0B7B0BDB01CA018E359140A105B1055A
:1044D00008F0D4CA8091B4029091B502A091B602BE
:1044E000B091B7020097A105B10569F073016201AF
:1044F000C81AD90AEA0AFB0AD701C601C297A10560
:10450000B10508F092CB411451046104710409F41F
:1045100091CB4092B4025092B5026092B602709272
:10452000B702222309F4AACA1093BB021092AB026D
:104530001092A00210929F021092AC021092AA0256
:1045400010929E0210929D0280910B018093E602D0
:1045500040E150E06AE772E08BE892E00E94A52714
:1045600010929B02109279024DCB40E150E06EE434
:1045700071E08AE792E00E94A52744E050E060E203
:1045800070E086E892E00E94902769CCEF920F934A
:104590001F93CF93DF93E80134E047FD34E1042E0D
:1045A000000C550B57FF03C0519541955109E32E5F
:1045B000022F242FAE010E94F622CE01DF91CF916F
:1045C0001F910F91EF900895FB01DC0102C005904F
:1045D0000D9241505040D8F70895FC0105900020FD
:1045E000E9F7809590958E0F9F1F0895A9E0B0E0A0
:1045F000ECEFF2E20C9449256A01F22EB02E102F56
:10460000FBE3AF2EA01608F41BE31F5F012F27E08A
:10461000AE014F5F5F4F0E945524BC018981982FE6
:104620009970913009F43FC09BE2E1FC04C09E2DDB
:104630009170E0FC3AC05E2D5071E82FE87083FF66
:1046400046C084E0911101C083E0EF2DE81B8F1577
:1046500008F0E0E0D6018E2F20E2552351F1992396
:1046600029F0D6019C93C60101966C0196012D5F3D
:104670003F4FE2FE24C08EE4D6018C9391E4119664
:104680009C93119712968C93D9018E2F90E28111F1
:104690001BC0E20FF32FF11D10828EEF9FEF2996C2
:1046A000ECE00C9465259DE2C6CF90E2C4CF2D933B
:1046B00081508111FCCFCE0ED11CE0E0D0CF8EE630
:1046C000D6018C9391E6DBCF9D938150E0CF482FAC
:1046D000447082FF3DC084E0911101C083E08F15DA
:1046E00010F4EF2DE81BD6018E2F20E2552309F19F
:1046F000992329F0D6019C93C60101966C0196017D
:104700002D5F3F4FE2FE1BC089E4D6018C938EE4FF
:1047100011968C93119786E412968C93D9018E2F63
:1047200090E2882309F4B5CF9D938150FACF2D9361
:1047300081508111FCCFCE0ED11CE0E0D9CF89E6AB
:10474000D6018C938EE611968C93119786E6E4CF72
:104750009B0177FF02C030E020E0A1E0B0E09111C2
:1047600002C0B0E0A0E0F9013196AE0FBF1F8B2C64
:10477000912CBB2009F461C05401EFEFAE1ABE0AC0
:10478000AA0DBB1DFA161B0619F014F04F2D4A1B7B
:10479000511188C0E3FC59C07601A42FB0E2A111E9
:1047A0004FC0C40ED11C992309F45BC040E0D60170
:1047B0001196F60190836D01552309F448C0012F2D
:1047C000060F9A81582F507184FF03C0913309F46A
:1047D000015010160CF047C0093008F008E0EEE276
:1047E000FE2E5B01A01AB108850191948194910875
:1047F0002F3F320729F4D601FC92F60131966F0162
:104800006217730794F1021713077CF5DB01A21BF3
:10481000B30BAA24A394B12CAC0EBD1EAA0DBB1DD4
:1048200011968C9121503109D60111962815390520
:10483000F4F0F60180836D01DBCFB12CA12CA0CF69
:10484000F701B1937F01A150AACF9111B0CFD6014A
:10485000942F50E302C05D9391509111FCCFC40E90
:10486000D11C40E0ACCF01E0BACF80E3DBCF6217D0
:10487000730731F4963388F4953311F4552369F0B6
:10488000F6018083FD01842F90E2811108C0A40FFE
:10489000B11D1C9290E080E002CF81E3F1CF9193B3
:1048A0008150F3CF911183CF8ACF283008F027E0D1
:1048B0003327DA01990F311D87FD9160009661055C
:1048C000710539F432602E5F3D9330E32A95E1F7AC
:1048D00008959F3F30F080387105610509F03C5F15
:1048E0003C5F3D93913008F08068911DDF93CF933A
:1048F0001F930F93FF92EF92192F987F9695E92FB0
:1049000096959695E90FFF27EE53FF4F992733278A
:10491000EE24FF24A701E70105900894079428F4EA
:10492000360FE71EF81E491F511D660F771F881F9F
:10493000991F0694A1F70590079428F4E70EF81E36
:10494000491F561FC11D770F881F991F661F0694A8
:10495000A1F70590079428F4F80E491F561FC71FAA
:10496000D11D880F991F661F771F0694A1F7059028
:10497000079420F4490F561FC71FD81F990F661FB1
:10498000771F881F0694A9F784911095177041F03E
:10499000D695C79557954795F794E7941A95C1F71B
:1049A000E8E6F0E068941590159135916591959140
:1049B00005907FE27395E118F10A430B560BC90B82
:1049C000D009C0F7E10CF11E431F561FC91FD01DAF
:1049D0007EF4703311F48A95E6CFE894015030F0FC
:1049E000080F0AF40027021708F4202F2395022F3E
:1049F0007A3328F079E37D932A95E9F710C07D9307
:104A00002A9589F606949795679537951795179483
:104A1000E118F10A430B560BC90BD00998F0239506
:104A20007E9173957A3308F070E37C932013B8F786
:104A30007E9170617D9330F0839571E37D9370E397
:104A40002A95E1F71124EF90FF900F911F91CF91DC
:104A5000DF91992787FD90950895F999FECF92BD32
:104A600081BDF89A992780B50895262FF999FECF30
:104A70001FBA92BD81BD20BD0FB6F894FA9AF99A7B
:104A80000FBE019608952F923F924F925F926F92C0
:104A90007F928F929F92AF92BF92CF92DF92EF92CE
:104AA000FF920F931F93CF93DF93CDB7DEB7CA1B4F
:104AB000DB0B0FB6F894DEBF0FBECDBF09942A887A
:104AC000398848885F846E847D848C849B84AA8422
:104AD000B984C884DF80EE80FD800C811B81AA81AF
:104AE000B981CE0FD11D0FB6F894DEBF0FBECDBF7A
:104AF000ED0108955058BB27AA270E9492250C94D7
:104B0000DC260E94CE2638F00E94D52620F039F40B
:104B10009F3F19F426F40C94CB260EF4E095E7FBA6
:104B20000C94C526E92F0E94ED2658F3BA176207A8
:104B300073078407950720F079F4A6F50C940F27E6
:104B40000EF4E0950B2EBA2FA02D0B01B9019001A8
:104B50000C01CA01A0011124FF27591B99F0593FEC
:104B600050F4503E68F11A16F040A22F232F342F34
:104B70004427585FF3CF469537952795A795F04082
:104B80005395C9F77EF41F16BA0B620B730B840B97
:104B9000BAF09150A1F0FF0FBB1F661F771F881F4F
:104BA000C2F70EC0BA0F621F731F841F48F48795A7
:104BB00077956795B795F7959E3F08F0B0CF939599
:104BC000880F08F09927EE0F9795879508950E9412
:104BD000FB250C94DC260E94D52658F00E94CE2698
:104BE00040F029F45F3F29F00C94C52651110C9434
:104BF00010270C94CB260E94ED2668F39923B1F37D
:104C0000552391F3951B550BBB27AA2762177307F2
:104C1000840738F09F5F5F4F220F331F441FAA1F86
:104C2000A9F335D00E2E3AF0E0E832D09150504042
:104C3000E695001CCAF72BD0FE2F29D0660F771FF0
:104C4000881FBB1F261737074807AB07B0E809F0D6
:104C5000BB0B802DBF01FF2793585F4F3AF09E3F5B
:104C6000510578F00C94C5260C9410275F3FE4F3AF
:104C7000983ED4F3869577956795B795F7959F5F9E
:104C8000C9F7880F911D9695879597F90895E1E0EA
:104C9000660F771F881FBB1F621773078407BA0749
:104CA00020F0621B730B840BBA0BEE1F88F7E095A4
:104CB00008950E94F52688F09F5798F0B92F9927FC
:104CC000B751B0F0E1F0660F771F881F991F1AF0F7
:104CD000BA95C9F714C0B13091F00E940F27B1E026
:104CE00008950C940F27672F782F8827B85F39F025
:104CF000B93FCCF3869577956795B395D9F73EF490
:104D000090958095709561957F4F8F4F9F4F089537
:104D1000E89409C097FB3EF4909580957095619555
:104D20007F4F8F4F9F4F9923A9F0F92F96E9BB270B
:104D30009395F695879577956795B795F111F8CF87
:104D4000FAF4BB0F11F460FF1BC06F5F7F4F8F4FF2
:104D50009F4F16C0882311F096E911C0772321F0E8
:104D60009EE8872F762F05C0662371F096E8862F80
:104D700070E060E02AF09A95660F771F881FDAF7D7
:104D8000880F9695879597F9089597F99F6780E81A
:104D900070E060E008959FEF80EC089500240A948D
:104DA0001616170618060906089500240A94121606
:104DB0001306140605060895092E0394000C11F439
:104DC000882352F0BB0F40F4BF2B11F460FF04C0E6
:104DD0006F5F7F4F8F4F9F4F089557FD9058440F3F
:104DE000551F59F05F3F71F04795880F97FB991F4A
:104DF00061F09F3F79F08795089512161306140607
:104E0000551FF2CF4695F1DF08C016161706180693
:104E1000991FF1CF86957105610508940895E8946E
:104E2000BB2766277727CB0197F90895DB018F937E
:104E30009F930E946227BF91AF91A29F800D911D09
:104E4000A39F900DB29F900D1124089597FB072EFC
:104E500016F4009407D077FD09D00E946D2707FC57
:104E600005D03EF4909581959F4F0895709561957A
:104E70007F4F0895A1E21A2EAA1BBB1BFD010DC096
:104E8000AA1FBB1FEE1FFF1FA217B307E407F507FA
:104E900020F0A21BB30BE40BF50B661F771F881FD6
:104EA000991F1A9469F760957095809590959B016C
:104EB000AC01BD01CF010895EE0FFF1F0590F491E5
:104EC000E02D09940E948127A59F900DB49F900D1D
:104ED000A49F800D911D11240895AA1BBB1B51E1B5
:104EE00007C0AA1FBB1FA617B70710F0A61BB70B5A
:104EF000881F991F5A95A9F780959095BC01CD01FF
:104F00000895A29FB001B39FC001A39F700D811DA2
:104F10001124911DB29F700D811D1124911D0895C2
:104F2000DC0101C06D9341505040E0F70895FB0152
:104F3000DC014150504030F08D910190801919F4FE
:104F40000020B9F7881B990B0895FB01DC01415043
:104F5000504048F001900D920020C9F701C01D9209
:0C4F600041505040E0F70895F894FFCF56
:104F6C0001FF020101020605010101010302006AB1
:104F7C00180000D430004007EC038026690400AB15
:104F8C008704C095A905C0832F0500F36F06004464
:104F9C009508004DD20800B108198074D21A80A16E
:104FAC00031C801361330090D003006D7C4D53744F
:104FBC006174696F6E204E616D6500000000000425
:104FCC000305050607606162630000000098056B2D
:104FDC0005C7054105640551054205000000001494
:084FEC000BAD04C705DA040057
:00000001FF
