:100000000C94DA020C9402030C9402030C94020385
:100010000C9402030C9402030C9402030C9402034C
:100020000C9402030C9402030C9402030C9402033C
:100030000C9402030C9402030C9402030C9402032C
:100040000C94A6180C9402030C9402030C94020363
:100050000C9402030C9402030C9402030C9402030C
:100060000C94F0180C94020300407A10F35A00A08C
:10007000724E18090010A5D4E80000E87648170071
:1000800000E40B54020000CA9A3B000000E1F505B1
:10009000000080969800000040420F000000A086FB
:1000A00001000000102700000000E803000000002D
:1000B0006400000000000A000000000001000000D1
:1000C00000002C76D888DC674F0823DFC1DFAE59EB
:1000D000E1B1B796E5E3E453C63AE651997696E87E
:1000E000E6C28426EB898C9B62ED407C6FFCEFBC02
:1000F0009C9F40F2BAA56FA5F490055A2AF75C932D
:100100006B6CF9676DC11BFCE0E40D47FEF520E662
:10011000B500D0ED902E0300943577050080841E45
:10012000080000204E0A000000C80C333333330FA0
:10013000986E12831141EF8D2114893BE65516CF3D
:10014000FEE6DB18D1844B381BF77C1D901DA4BB49
:10015000E424203284725E228100C9F124ECA1E5FE
:100160003D277265747279696E672E2E2E00726556
:1001700073746F72696E672030780049324320458E
:1001800052524F52004932432046414C4C42414367
:100190004B0053595354454D2053455454494E47F1
:1001A0005300515549434B204D454E550056434F42
:1001B0002053455454494E475300524543414C4CFB
:1001C000204D454D4F5259003C3C003E3E00200022
:1001D0004C4F434B200053455420746F2073656C83
:1001E000656374006E6F2000796573003E200046E1
:1001F0004143544F525920524553455400434C45B6
:10020000415220414C4C20444154413F00534554FD
:1002100020746F2073656C656374006F6666006F91
:100220006E20003E200053484F57204D454E55202C
:100230005449544C450053455420746F2073656CE9
:10024000656374006F6666006F6E20003E2000429A
:1002500041434B4C494748542044494D4D45520079
:1002600053455420746F206564697400535441549D
:10027000494F4E204E414D450053455420746F2048
:1002800073656C656374006E6F6E65005000524656
:100290002064726976653A20006E6F6E65005000CA
:1002A000756E6C6F636B65643A20006E6F6E6500EF
:1002B00050006C6F636B65643A20003E2000504F25
:1002C0005254204D415050494E47005345542074DC
:1002D0006F2073656C6563740064697361626C653B
:1002E000640068696768006C6F7720003E200043F7
:1002F00048415247452050554D50005345542074B5
:100300006F2073656C65637400204D487A002E0081
:100310003E20005854414C204652455155454E43CD
:10032000590053455420746F2073656C65637400E5
:100330003E203078004932432041444452455353D3
:100340000053455420746F2073656C6563740020FE
:10035000646563696D616C730020646563696D61D8
:100360006C003E2000505245434953494F4E0053C4
:10037000455420746F2073656C65637400204D488C
:100380007A002D003E20004652455155454E4359B6
:100390002042414E440053455420746F2070726FC8
:1003A0006365656400455849542053455454494E8B
:1003B00047530053455420746F20656E7465720076
:1003C00047454E4552414C2053455454494E47539E
:1003D0000053455420746F20656E74657200504C54
:1003E0004C2053455454494E4753005345542074B0
:1003F0006F20656E7465720056434F205345545408
:10040000494E4753003C656D7074793E003A003E9A
:10041000204D003E204D003E4D00204D487A0020EA
:10042000003A003E2072657475726E00434C45417F
:1004300052204D454D4F525900204D487A005341AE
:1004400056452000524543414C4C204D454D4F529E
:10045000590053455420746F2073656C65637400B4
:1004600053455420746F20636F6E6669726D00533C
:10047000455420746F20746F67676C650045584958
:100480005420515549434B204D454E55004C434453
:10049000204F4646004F4646004F4E0052462044ED
:1004A000524956453A2000434C454152204D454D56
:1004B0004F52590053415645204D454D4F5259001A
:1004C000524543414C4C204D454D4F5259006361BC
:1004D0006E63656C00646973636172640073617656
:1004E00065206368616E676573003E20004558496A
:1004F000542053455454494E475300204D487A00E8
:10050000534554200052462044524956453A204F04
:10051000464600204D487A002843293230323620A2
:100520004C6F656E69650056342E39002000504CC2
:100530004C20436F6E74726F6C0053455420746F7F
:1005400020636F6E6669726D0052455455524E209D
:10055000544F204D454E5500000000002400270058
:100560002A0000000000250028002B0000000000E9
:1005700023002600290004040404040404040202E5
:100580000202020203030303030301020408102012
:10059000408001020408102001020408102000001D
:1005A0000008000201000003040700000000000032
:1005B00000000F1A11241FBECFEFD8E0DEBFCDBF61
:1005C00011E0A0E0B1E0EEE2F1E502C005900D928D
:1005D000A838B107D9F723E0A8E8B1E001C01D921F
:1005E000A630B207E1F712E0CAEDD2E004C02197CD
:1005F000FE010E943D28C93DD107C9F70E94421A59
:100600000C9495280C940000833081F028F48130FC
:1006100099F08230A9F008958730A9F08830C9F0A8
:100620008430B1F4809180008F7D03C08091800080
:100630008F7780938000089584B58F7784BD089567
:1006400084B58F7DFBCF8091B0008F778093B00011
:1006500008958091B0008F7DF9CFCF93DF93282F3D
:1006600030E0F901E256FA4F8491F901E657FA4F6A
:10067000D491F901EA58FA4FC491CC23A1F0811129
:100680000E940403EC2FF0E0EE0FFF1FE459FA4F35
:10069000A591B491EC91ED2381E090E009F480E024
:1006A000DF91CF91089580E090E0FACF1F93CF9330
:1006B000DF93282F30E0F901E256FA4F8491F901D7
:1006C000E657FA4FD491F901EA58FA4FC491CC2376
:1006D000A9F0162F81110E940403EC2FF0E0EE0F19
:1006E000FF1FEE59FA4FA591B4918FB7F894EC9192
:1006F000111108C0D095DE23DC938FBFDF91CF911D
:100700001F910895DE2BF8CFCF93DF9390E0FC018B
:10071000E657FA4F24918A589A4FFC018491882316
:10072000D1F090E0880F991FFC01E85AFA4FA5918B
:10073000B491FC01EE59FA4FC591D491623071F435
:100740009FB7F8943C91822F809583238C93E88106
:100750002E2B28839FBFDF91CF9108958FB7F894F8
:10076000EC912E2B2C938FBFF6CFCF93DF93EC0120
:1007700061E086E00E948403209731F460E086E027
:10078000DF91CF910C945603CF3FD10511F461E076
:10079000F6CFE4EAF5E0E491E33029F140F4E1300A
:1007A000B1F0E230D9F0C038D1058CF7E7CFE730AF
:1007B00021F1E83051F1E430B1F78091800080629E
:1007C00080938000D0938B00C0938A0004C084B5CE
:1007D000806884BDC7BDDF91CF91089584B58062E4
:1007E00084BDC8BDF8CF8091800080688093800070
:1007F000D0938900C0938800EECF8091B0008068CC
:100800008093B000C093B300E6CF8091B0008062C7
:100810008093B000C093B400DECF3FB7F8948091CE
:10082000D8029091D902A091DA02B091DB0226B5EC
:10083000A89B05C02F3F19F00196A11DB11D3FBF18
:10084000BA2FA92F982F8827BC01CD01620F711DE7
:10085000811D911D42E0660F771F881F991F4A95E1
:10086000D1F708958F929F92AF92BF92CF92DF926D
:10087000EF92FF924B015C010E940D046B017C0121
:100880000E940D046C197D098E099F09683E734012
:1008900081059105A8F321E0821A9108A108B10809
:1008A00088EEC80E83E0D81EE11CF11C811491046F
:1008B000A104B10429F7FF90EF90DF90CF90BF9093
:1008C000AF909F908F9008952FB7F8946091D402C5
:1008D0007091D5028091D6029091D7022FBF0895D2
:1008E000CF92DF92EF92FF920F931F930E946404C6
:1008F0000091DD021091DE022091DF023091E002D2
:100900006B017C01C01AD10AE20AF30A9701860141
:100910000A3F110521053105B8F06093DD0270939F
:10092000DE028093DF029093E0026091DC0281E0BE
:1009300068276093DC0285E01F910F91FF90EF9094
:10094000DF90CF900C9456031F910F91FF90EF9082
:10095000DF90CF90089508950895AF92BF92CF92FF
:10096000DF92EF92FF920F931F93CF93DF936C016F
:100970007B018B01040F151FEB015E01AE18BF0850
:10098000C017D10759F06991D601ED91FC91019002
:10099000F081E02DC6010995892B79F7C501DF911A
:1009A000CF911F910F91FF90EF90DF90CF90BF906C
:1009B000AF900895089520910A02260F3327331F20
:1009C00021323105ECF420912E02FC0190E080E010
:1009D000243069F082E00895A0910A022191AC01CF
:1009E00046515E4FA40FB52FB11D2C93019686176B
:1009F00098F380910A02680F60930A0280E00895DC
:100A000081E0089510922E0281E0809330021092CE
:100A10002F0261E082E10E94560361E083E10E94BF
:100A20005603E9EBF0E080818E7F808380818D7FAB
:100A3000808388E48093B80085E48093BC000895A7
:100A4000CF93DF9391E0909361028823B9F0C09136
:100A5000B800D091BA008091BC008A7B8093BC0022
:100A600060E082E10E94560360E083E10E94560349
:100A70000E940205D093BA00C093B800DF91CF91D5
:100A800008950895E0915B0280915A02E81730F4CE
:100A9000F0E0E653FE4F808190E008958FEF9FEFE6
:100AA000089590915B0280915A022FEF3FEF9817C3
:100AB00048F4E92FF0E0E653FE4F208130E09F5FDD
:100AC00090935B02C901089580915A0290915B0254
:100AD000891B990B0895CF92DF92EF92FF920F93AB
:100AE0001F93CF93DF937C01CB018A012091C90131
:100AF000222389F0EB016B01C40ED51ECC15DD0558
:100B000069F06991D701ED91FC910190F081E02DA0
:100B1000C7010995F3CF642F0E94DB04C801DF9160
:100B2000CF911F910F91FF90EF90DF90CF9008959C
:100B3000CF93DF931F92CDB7DEB769832091C901B0
:100B40002223F9F020915802203258F021E030E0C1
:100B5000FC013383228390E080E00F90DF91CF91FE
:100B6000089580915902E82FF0E0E755FE4F9981F2
:100B700090838F5F809359028093580281E090E0C8
:100B8000ECCF61E0CE0101960E94DB04F7CF90E04C
:100B900080E0089520910301422F50E0FA01E858C7
:100BA000FD4F208130E0220F331F240F351F96E0C8
:100BB000929FA001939F500D112490E080589F4F69
:100BC000840F951F880F991F880F991F08950F9301
:100BD0001F93182F0E946404112371F01092730266
:100BE0001092890110928A0110928B0110928C014F
:100BF0001092880180E02DC0209173023091B702DD
:100C0000332351F121110CC021E020937302609332
:100C1000890170938A0180938B0190938C01E8CFB6
:100C2000209188012111E6CF0091890110918A015C
:100C300020918B0130918C01601B710B820B930B07
:100C40006032734081059105A8F281E080938801AC
:100C500082E01F910F910895222361F28091880113
:100C6000109273021092890110928A0110928B01E6
:100C700010928C011092880191E08927EACFE091CF
:100C80000301E23028F4F0E0E45FFE4F8081089534
:100C900082E00895E091030184E0E89FF0011124CF
:100CA000E25FFE4F608171818281938123E0660F54
:100CB000771F881F991F2A95D1F739E09695879558
:100CC000779567953A95D1F708958F929F92AF9255
:100CD000BF92CF92DF92EF92FF92CF930E943F0696
:100CE000C09102018C1708F4C82F80E4C82E82E45A
:100CF000D82E8FE0E82EF12C9AE0892E912CA12C91
:100D0000B12CCC2351F0C701B601A50194010E947A
:100D10001B2869017A01C150F4CF0E944A069B0149
:100D2000AC01C20ED31EE41EF51EC701B601615010
:100D30007109810991090E941B28822FCF91FF9090
:100D4000EF90DF90CF90BF90AF909F908F900895DD
:100D50004F925F926F927F928F929F92AF92BF92CB
:100D6000CF92DF92EF92FF921F93CF93DF93982E53
:100D70005B01142FE9010E9464046B017C01F50101
:100D8000992009F4BDC08081811124C0C0929101D5
:100D9000D0929201E0929301F0929401C0928D0161
:100DA000D0928E01E0928F01F092900181E08083D9
:100DB000812FFE01DF91CF911F91FF90EF90DF9087
:100DC000CF90BF90AF909F908F907F906F905F90EB
:100DD0004F9009948091910190919201A09193017B
:100DE000B091940146015701881A990AAA0ABB0AD0
:100DF0008091CA02882309F466C0F8EE8F16F3E0EA
:100E00009F06A104B10408F44EC00E946506782E26
:100E10000E944A069B01AC01A72DB0E00E94432826
:100E20000E94692720E030E04AEF53E40E94C82680
:100E30002B013C01C501B401685E73408109910931
:100E40000E94692720E030E04AE754E40E94C82667
:100E500023E333E343E35FE30E945C269B01AC01A1
:100E6000C301B2010E94C8260E943A2780908D01DA
:100E700090908E01A0908F01B0909001A7019601F3
:100E8000281939094A095B0949015A01861697064A
:100E9000A806B90640F02091B0023091C102332378
:100EA000F1F021111EC0DF91CF911F91FF90EF90C3
:100EB000DF90CF90BF90AF909F908F907F906F907A
:100EC0005F904F90089528EE821623E09206A104C9
:100ED000B10448F360E570E080E090E0C7CF2223E2
:100EE00031F038EC83169104A104B104E0F2C09211
:100EF0008D01D0928E01E0928F01F092900158CF37
:100F00001082D1CF4F925F926F927F928F929F9279
:100F1000AF92BF92CF92DF92EF92FF92CF93DF9387
:100F20002B013C01D42FC22F0E944A064B015C01C9
:100F30007C016B01481459046A047B0478F0AFEF1C
:100F4000BFE7AC019B010E9443286B017C014C145C
:100F50005D046E047F0410F47301620161E070E0CF
:100F600080E090E0DD2331F00E946506682F70E09C
:100F700090E080E0A50194010E94F7274B015C01FD
:100F8000C13011F581E0C81AD108E108F108C701A4
:100F9000B601680D791D8A1D9B1DA50194010E9453
:100FA0001B28C501B4010E94F727DF91CF91FF9064
:100FB000EF90DF90CF90BF90AF909F908F907F90F9
:100FC0006F905F904F900895C701B601CF3F29F30E
:100FD000C501B40196958795779567956C0D7D1D34
:100FE0008E1D9F1DDACF20917F02E7E0F1E02223E2
:100FF00031F0E5E0F1E0213011F4E6E0F1E039E034
:1010000048E057E090818F3F11F59830C9F4508344
:1010100090819830A0F4222331F060910701961757
:1010200061F0213031F060910601961731F02230E5
:1010300031F060910501961302C0315019F70895FF
:10104000911102C04083E4CF91509083E1CF98305A
:1010500011F41082DDCF9730A9F39F5FF6CF8F9206
:101060009F92AF92BF920F931F93CF93DF93CDB711
:10107000DEB7A1970FB6F894DEBF0FBECDBF19A2A1
:10108000423008F44AE08E010F5D1F4F842E912CF0
:10109000B12CA12CA50194010E941B28E62FB901B7
:1010A000CA01EA3044F5E05DD801EE938D01232BAF
:1010B000242B252B79F790E080E0109769F0FD0153
:1010C00001900020E9F73197AF014A1B5B0BBD018E
:1010D0008EEE92E00E94AD04A1960FB6F894DEBFAA
:1010E0000FBECDBFDF91CF911F910F91BF90AF90F9
:1010F0009F908F900895E95CD7CFFC01019000206C
:10110000E9F73197AF01481B590BBC018EEE92E015
:101110000C94AD04EF92FF920F931F93CF93DF9344
:101120007C018C01CAE0D0E0CE010E940E26F801BD
:1011300081938F012196CB31D105B1F7C701DF91A2
:10114000CF911F910F91FF90EF900895CF92DF9272
:10115000EF92FF920F931F93CF93DF93EB017B01ED
:1011600024E0E20EF11C8B016C01C61AD70AC601FD
:10117000800F911F0E940E26F80181938F01EE15BA
:10118000FF05A9F7CE01DF91CF911F910F91FF903D
:10119000EF90DF90CF900895CF93DF93863050F596
:1011A000EB010E94CA05BE010E94A60888819981B0
:1011B000AA81BB818F3F2FEF9207A207B207D1F020
:1011C0004091990150919A0160919B0170919C010D
:1011D00084179507A607B70768F0409195015091CD
:1011E00096016091970170919801481759076A0715
:1011F0007B0720F480E0DF91CF91089581E0FBCF61
:101200000C940E264F925F926F927F928F929F92D4
:10121000AF92BF92CF92DF92EF92FF920F931F9304
:10122000CF93DF9300D000D0CDB7DEB78CE390E052
:101230000E940009873008F082E0809378028DE3F5
:1012400090E00E940009873008F082E080937902E4
:1012500090900301A92CB12CF501E858FD4F808036
:10126000082D10E0C80143E0880F991F4A95E1F767
:101270009C012A5E3E4F3901F901608171818281B2
:10128000938121E041E00E9482076B017C01C092C2
:101290009901D0929A01E0929B01F0929C01F30196
:1012A00064817581868197812FEF41E00E948207DA
:1012B0002B013C014092950150929601609297015A
:1012C00070929801F6E0F81508F445C021E0291560
:1012D00008F441C0C801880F991F8A0D9B1D880F13
:1012E000991F880F991FBE016F5F7F4F865A9F4FCE
:1012F0000E94A60869817A818B819C816C157D058D
:101300008E059F0558F0461657066806790630F098
:1013100020E040E00E9482076B017C01C092C20283
:10132000D092C302E092C402F092C5020F900F90D7
:101330000F900F90DF91CF911F910F91FF90EF9041
:10134000DF90CF90BF90AF909F908F907F906F90E5
:101350005F904F900895C114D104E104F104F1F6B7
:1013600060E070E0CB01D4CFCF93DF93EC0160E07D
:101370008E810E94560361E08E810E94560360E0D8
:101380008E810E9456038BE891E00197F1F7DF917F
:10139000CF910895CF92DF92EF92FF920F931F9318
:1013A000CF93DF936C017C0187E0E80EF11CD0E065
:1013B000C0E0062F10E0B8010C2E02C075956795AD
:1013C0000A94E2F76170F70181917F010E94560350
:1013D0002196C430D10579F7C601DF91CF911F91D5
:1013E0000F91FF90EF90DF90CF900C94B409CF92C3
:1013F000DF92EF92FF920F931F93CF93DF93EC0155
:10140000F62E642F8C810E9456038D818F3F19F038
:1014100060E00E9456030F2D10E08F8584FF25C0E9
:101420006E0187E0C80ED11CF12CE12CB8010E2C06
:1014300002C0759567950A94E2F76170F601819193
:101440006F010E945603FFEFEF1AFF0A88E0E816CB
:10145000F10461F7CE01DF91CF911F910F91FF90C1
:10146000EF90DF90CF900C94B409B80184E07595AB
:1014700067958A95E1F7CE010E94CA096F2DCE01CA
:10148000DF91CF911F910F91FF90EF90DF90CF9060
:101490000C94CA0940E0682F8EEE92E00C94F70994
:1014A00081E00E944A0A8BE39FE10197F1F70895DA
:1014B000CF93DF93823029F49091FD02986090934E
:1014C000FD02809301031092020380E480930303E2
:1014D00080E18093040380E58093050361E08091BF
:1014E000F2020E9484038091F3028F3F19F061E0C1
:1014F0000E94840361E08091F4020E948403CEEE96
:10150000D2E09E012E5E32408091FD0284FD0BC030
:1015100084E090E021962817390744F461E08E8139
:101520000E948403EECF88E090E0F4CF8BE39DE04F
:101530000197F1F760E08091F2020E94560360E0AB
:101540008091F4020E9456038091F3028F3F19F0BC
:1015500060E00E9456038091FD0284FD34C063E088
:101560008EEE92E00E94CA09CBE4D6E4CE01019748
:10157000F1F763E08EEE92E00E94CA092197F1F73D
:1015800063E08EEE92E00E94CA0983E592E0019743
:10159000F1F762E08EEE92E00E94CA098091FD02AE
:1015A00080620E944A0A84E08093FE028CE00E94DE
:1015B0004A0A0E94500A82E08093FF0286E0DF918F
:1015C000CF910C944A0A80620E944A0A8BE496E406
:1015D0000197F1F78091FD0280620E944A0A83E53B
:1015E00092E00197F1F78091FD0280620E944A0A21
:1015F000D5CF90910103691710F06FEF690FE62FB7
:10160000F0E0E251FD4F9489890F80680C944A0AFA
:10161000CF93DF93EB01682F80E00E94F90ACE019F
:10162000DF91CF910C947D0841E00E94F70981E0A1
:1016300090E008950F931F93CF93DF938C01D0E038
:10164000C0E0F801EC0FFD1F6491662339F041E022
:101650008EEE92E00E94F7092196F3CFCE01DF9142
:10166000CF911F910F91089589E495E00E941A0B84
:1016700061E080E00E94F90A8AE395E00C941A0B7D
:10168000CF92DF92EF92FF926C01990FEE08FF0864
:10169000F7FE16C041E06DE28EEE92E00E94F7097F
:1016A00066277727CB016C197D098E099F094AE0CF
:1016B0000E942F080196FF90EF90DF90CF90089541
:1016C0004AE0C701B601FF90EF90DF90CF900C94F5
:1016D0002F08CF93DF9386E490E00E9400098111E8
:1016E00081E08093030188E290E00E940009C82F06
:1016F0000E943F069C2F8C1708F4982F90930201AC
:101700000E94020980E590E00E940009843008F000
:1017100081E080930B0182E390E00E940009833016
:1017200008F081E08093040186E590E00E940009C2
:10173000C82F87E590E00E940009D82F88E590E047
:101740000E940009CF3F09F04AC0DF3F09F049C0BD
:101750008F3F09F046C085E08093070186E08093C3
:10176000060182E08093050180E892E00E948A08E9
:101770009091900210929002E0E8F2E08191805204
:101780008F3530F482E0E039F807C1F7992381F012
:1017900040E150E06EE471E080E892E00E9486282B
:1017A00044E050E060E270E08CE892E00E94712832
:1017B0008EE190E00E94000991E0811101C090E06B
:1017C0009093080183E290E00E94000991E081116A
:1017D00001C090E090930901DF91CF910895C83046
:1017E00008F0C8E0C0930701D83008F0D8E0D093E3
:1017F0000601883008F088E080930501D83029F090
:10180000CD1303C098E090930601883009F4ACCF63
:10181000C81721F0909106018913A6CF88E0A2CFC6
:1018200085ED8093BC0080915D0290915E02A09155
:101830005F02B09160020796A11DB11D23E0B6952D
:10184000A795979587952A95D1F72091BC0024FDFF
:1018500003C010922E02089540915D0250915E02E5
:1018600060915F0270916002452B462B472B69F314
:101870000097A105B10541F02AE22A95F1F700C0D1
:101880000197A109B109E1CF80915C020C94200578
:10189000FF920F931F93CF93DF93EC018B01F42EF4
:1018A00040E150E060E270E00E947128188AC801AF
:1018B0000E94CE23813108F080E1482F50E080E083
:1018C000FF2031F080E190E0841B950B9595879582
:1018D000B8018C0F9D2F911DDF91CF911F910F911A
:1018E000FF900C94C5239F92AF92BF92CF92DF924C
:1018F000EF92FF920F931F93CF93DF93CDB7DEB795
:1019000029970FB6F894DEBF0FBECDBF982E5901B0
:101910006801CB01BA010E94692720E034E244E764
:1019200059E40E94C8269E012F5F3F4F790189012B
:101930002091020148E00E94A723F70101900020B6
:10194000E9F731978F010E191F09C6010E94CE23B6
:10195000800F10E1181BA114B10439F0692D80E04B
:101960000E94F90AC5010E941A0B692D812F0E945D
:10197000F90AC7010E947D08C6010E941A0B299628
:101980000FB6F894DEBF0FBECDBFDF91CF911F9190
:101990000F91FF90EF90DF90CF90BF90AF909F900E
:1019A00008954F925F926F927F928F929F92AF9223
:1019B000BF92CF92DF92EF92FF920F931F93CF933C
:1019C000DF93CDB7DEB7E3970FB6F894DEBF0FBE57
:1019D000CDBF182F062F8091D202882369F11830CD
:1019E00009F0A7C08091A8018823A1F08091FE0290
:1019F0008D7F8093FE0288600E944A0A1092A401A3
:101A00001092A5011092A6011092A7011092A801B0
:101A10001092A3011150183008F039C0E12FF0E006
:101A2000EC5EF24F0C943D285E0DB00DCB0D1E0DFB
:101A30004111A011141224121430A1F6002309F44C
:101A4000EEC361E080E00E94F90A81E992E00E9421
:101A50007D0861E080917A020E94F90A0E94640484
:101A60006093A4017093A5018093A6019093A701B0
:101A700081E08093A8018093A3018091FE02982FBA
:101A800092609093FE028A600E944A0A52C00E94AD
:101A9000500A8EE295E00E941A0B8CE295E00E94BB
:101AA0001A0B87E295E00E941A0B61E080E00E9429
:101AB000F90A88E195E00E941A0B3BC04091C202EE
:101AC0005091C3026091C4027091C50203E115E018
:101AD00030E020E080E00E94730C61E080E00E9432
:101AE000F90A80910A01811120C00E94640428EE45
:101AF00033E040E050E00E941B2820FF16C040E188
:101B000050E060E270E0CE0101960E947128198ACF
:101B1000BE016F5F7F4F81E00E94080B61E080E0B3
:101B20000E94F90A85E095E0C6CF80E892E00E9425
:101B30007D08E3960FB6F894DEBF0FBECDBFDF91F0
:101B4000CF911F910F91FF90EF90DF90CF90BF90BA
:101B5000AF909F908F907F906F905F904F9008957F
:101B60008091CA02811107C061E00E94F90A80E0F9
:101B700095E00E941A0B4091C2025091C3026091FD
:101B8000C4027091C5020BEF14E030E020E081E068
:101B90000E94730CCECF0E94500A8091B20288231B
:101BA00009F160E080E00E94F90A8DEE94E00E9465
:101BB0001A0B61E080E00E94F90A8AEE94E00E942C
:101BC0001A0B8091A602813051F030F0823009F07A
:101BD000B0CF8EEC94E06FCF8DED94E06CCF85EDBF
:101BE00094E069CF8091B1028430F1F51091A602A2
:101BF000123031F1C0F4112301F184EB94E0113083
:101C0000C9F061E080E00E94F90A8FE694E01330A9
:101C100009F451CF145080E694E0123008F44BCF11
:101C200082E594E048CF1430E1F068F08DE794E06D
:101C3000153039F70E941A0BE4CF80EC94E0FACF0C
:101C400087EA94E0F7CF8CE994E00E941A0B809128
:101C50000A01811103C085E994E0ECCF89E994E0A1
:101C6000E9CF8DE894E0E6CF853009F098C0809107
:101C7000A202813009F46AC008F463C0823009F41A
:101C800075C061E080E00E94F90A1091A60283E22B
:101C900094E0163009F40FCF1A8A1B8A1C8A1D8A19
:101CA000BE016E5E7F4F812F0E94CC08882309F40D
:101CB00062C06A897B898C899D8920E041E00E940D
:101CC00082076A8B7B8B8C8B9D8B0E94692720E01F
:101CD00034E244E759E40E94C8269E012F5F3F4F3B
:101CE000790189012091020140E00E94A723F701B8
:101CF00001900020E9F7EE19ED5FE031D0F51FE02B
:101D00001E1B83E194E0153010F487E194E00E94FB
:101D10001A0B8091A60290E001960E94400B81E28E
:101D200094E00E941A0B61E0812F0E94F90A8FE172
:101D300094E00E941A0BC7010E947D088AE194E09A
:101D4000BACE84E494E00E941A0B9BCF4091C60265
:101D50005091C7026091C8027091C90209E314E072
:101D60002EE334E080E00E94730C8BCF8CE294E091
:101D7000EACF10E0CACF8FE094E00E941A0B812FC7
:101D800090E001960E94400B8DE094E00E941A0BB7
:101D900061E089E00E94F90A85E094E08CCE81112F
:101DA00036C08091A6028130E1F080F0823021F1CE
:101DB000833009F0BECE85EA93E00E941A0B61E001
:101DC00080E00E94F90A86E993E075CE88EF93E0FF
:101DD0000E941A0B61E080E00E94F90A8BEE93E00A
:101DE0006ACE8EED93E00E941A0B61E080E00E94C3
:101DF000F90A81ED93E05FCE80EC93E00E941A0B2C
:101E000061E080E00E94F90A83EB93E054CE8130D8
:101E100009F08BC08091A602813009F461C030F0D6
:101E2000823009F086CE0E94340B83CE87E893E09F
:101E30000E941A0B61E080E00E94F90A8091A502DD
:101E4000882309F44AC0E0910301F0E0E858FD4F0F
:101E5000008138E0039F800111240A5E1E4FF801C3
:101E6000608171818281938121E041E00E9482073B
:101E70002B013C01F80164817581868197812FEFE8
:101E800041E00E9482074B015C0184E893E00E94DC
:101E90001A0B30E4C32E32E4D32E3FE0E32EF12CB4
:101EA000C301B201A70196010E941B28CA01B90112
:101EB0004AE00E942F0882E893E00E941A0BC501B5
:101EC000B401A70196010E941B28CA01B9014AE08A
:101ED0000E942F088DE793E0EECD8FE693E0EBCDE7
:101EE00085E693E00E941A0B61E080E00E94F90A07
:101EF0008091A5028823B1F082E693E00E941A0B3C
:101F00006091020170E090E080E04AE00E942F08BA
:101F100080910201813019F08FE493E0CCCD89E506
:101F200093E0C9CD81E493E0C6CD823009F0FCC0D6
:101F30008091A602823009F47FC008F055C0882342
:101F400009F459C0813009F0F4CD83E193E00E9497
:101F50001A0B61E080E00E94F90A8091A5028823B3
:101F600009F467C080E193E00E941A0BE09103013D
:101F700024E0E29FF0011124E25FFE4F6081718155
:101F80008281938120E4C22E22E4D22E2FE0E22E21
:101F9000F12CA70196010E941B28CA01B9014AE051
:101FA0000E942F088EE093E00E941A0BE09103013B
:101FB00034E0E39FF0011124E25FFE4F6081718104
:101FC00082819381A70196010E941B2820EA36E8AE
:101FD00041E050E00E941B28CA01B9014AE00E947A
:101FE0002F0889E093E067CD833009F447C084303F
:101FF00009F419CF9ECD85E393E00E941A0B61E0AE
:1020000080E00E94F90A8091A502882379F080E39C
:1020100093E00E941A0BE091ED02F0E0EB59FE4FC5
:10202000608170E090E080E040E14FC082E293E0A8
:1020300042CD8BEF92E03FCD8FEE92E00E941A0BE3
:1020400061E080E00E94F90A8091A502882399F05E
:102050008CEE92E00E941A0B80910401882329F0F3
:10206000813031F089ED92E026CD87EE92E023CDEC
:1020700082EE92E020CD8BEC92E01DCD8EEB92E0D3
:102080000E941A0B61E080E00E94F90A8091A5028B
:10209000882309F446C08BEB92E00E941A0B8091D2
:1020A0007F02811118C082EB92E00E941A0B80918E
:1020B0000701883068F480EB92E00E941A0B60916F
:1020C000070170E090E080E04AE00E942F0831CDE7
:1020D0008BEA92E0F0CC813091F480EA92E00E94A9
:1020E0001A0B80910601883038F48EE992E00E9444
:1020F0001A0B60910601E5CF89E992E0DCCC8EE80D
:1021000092E00E941A0B80910501883038F48CE827
:1021100092E00E941A0B60910501D3CF87E892E00C
:10212000CACC89E792E0C7CC833009F002CD809118
:10213000A602823009F44DC0E0F48823C9F1813051
:1021400009F0F7CC8FE492E00E941A0B61E080E086
:102150000E94F90A8091A5028823C1F18CE492E0E3
:102160000E941A0B8091080181112DC084E492E035
:10217000A2CC833009F03BCF8091A302811146C0ED
:102180008FEE91E00E941A0B61E080E00E94F90A54
:102190008091A502882309F43FC08CEE91E00E9453
:1021A0001A0B8091A402811134C084EE91E083CC9B
:1021B0008CE692E00E941A0B61E080E00E94F90A2E
:1021C00080E692E078CC88E492E075CC86E392E0F9
:1021D00072CC86E292E00E941A0B61E080E00E94DD
:1021E000F90A8091A502882371F083E292E00E94AF
:1021F0001A0B80910901811103C08BE192E05BCC45
:102200008FE192E058CC8DE092E055CC8DEF91E0DB
:10221000B9CF88EE91E04FCC86ED91E04CCC809127
:10222000A801882309F485CC0E9464040091A401CC
:102230001091A5012091A6013091A701601B710B9F
:10224000820B930B603971408105910508F471CCC4
:102250000E9464046093A4017093A5018093A60179
:102260009093A7019091A30181E098279093A301F7
:102270008091FE02911103CC8D7F8093FE028860D5
:1022800003CC60E080E00E94F90A8091C0028823BC
:1022900019F080ED91E00FCC0E94640400919F0141
:1022A0001091A0012091A1013091A2016B017C014C
:1022B000C01AD10AE20AF30A970186010A3F110502
:1022C0002105310508F435CC60939F017093A0017E
:1022D0008093A1019093A2018EEC91E00E941A0BD1
:1022E0008EEC91E00E941A0B8EEC91E00E941A0B8A
:1022F0008EEC91E00E941A0B8EEC91E00E941A0B7A
:1023000010919E0160E0812F0E94F90A0091000166
:1023100088EC91E0002311F08BEC91E00E941A0B05
:102320008FEF011181E0810F80939E01882319F0C6
:10233000833009F0FECB81E0082700930001F9CB40
:1023400080910901882309F4F4CB8091B1020DEA50
:1023500011E062E971E0843020F00AEB11E062EAFA
:1023600071E07E0123E2E20EF11C41E0C7010E9410
:10237000480C6E0132E1C30ED11C40E0B801C60129
:102380000E94480C0E94500AB70180E00E94080B8E
:1023900068EE73E080E090E00E94320411E0BE2C11
:1023A000AF2CCE0101967C0100E281E1EB2DFA2DEC
:1023B000D70101900D928A95E1F7212F193008F08D
:1023C00028E0C701D701F70101931F960C931F97CF
:1023D00011973E2F3E193217B8F31430B8F04DEF75
:1023E000410FD7019601B601FB015191BF01FC01DC
:1023F0005193CF01F90157851F965C931F97215088
:1024000031091197562F5C19541770F3B70180E00A
:102410000E94080B66E470E080E090E00E943204C5
:102420001F5F1C3011F685CB8091BF02882319F005
:102430000E94500A7ECB61E081E00E94D10C61E0F5
:1024400085E00E94D10C75CB8FEF90E00E94B50320
:102450000E94500A10917C028BE791E0112311F049
:1024600085E891E00E941A0B61E080E00E94F90A81
:10247000112339F08EE691E00E941A0BE0910B01D6
:10248000CCCD82E691E017CB8091B00281112BC0B8
:102490008091A502882361F01092A50210927F021C
:1024A0001092A4021092A30261E083E00C94D10C7C
:1024B0008091B202882341F01092B2021092B102D0
:1024C00083E08093A602F0CF8091B102811106C013
:1024D00081E08093B2021092A602E6CF1092B10280
:1024E00080917B02EECF08951092C1021092A50256
:1024F0001092B2021092B0021092B1021092A60293
:102500001092A2020E9464046093AC027093AD0228
:102510008093AE029093AF0281E08093AB0261E0C2
:102520000E94D10C61E085E00C94D10C8091B10245
:10253000853059F484E08093B1028091A2028093A7
:10254000A60261E083E00C94D10C0C947412CF923B
:10255000DF92EF92FF92CF938823F9F0E0917A0215
:10256000F0E0EF56FD4F8081082E000C990B80970C
:10257000860F911D67FD9A95815A9F4F6FE570E018
:102580000E940728805E808361E084E0CF91FF9005
:10259000EF90DF90CF900C94D10CC42F0E94640474
:1025A0006B017C01C11104C080917A028F3048F127
:1025B0001092B00210927A021092A5021092B2020A
:1025C0001092A10240E150E061E972E080E892E0FF
:1025D0000E9486281092900261E083E00E94D10C54
:1025E000C092AC02D092AD02E092AE02F092AF0285
:1025F00081E08093AB02CF91FF90EF90DF90CF907E
:1026000008958F5F80937A02BFCF40E0682F81E00A
:102610000C94A7120E94690B6091C2027091C302D0
:102620008091C4029091C50220E041E00E9482079F
:102630006093C2027093C3028093C4029093C50258
:102640001092B0021092B2021092A5021092C10232
:102650001092A4021092A3021092B1020E9464048C
:102660006093AC027093AD028093AE029093AF0280
:1026700081E08093AB0261E00E94D10C61E085E0D3
:102680000C94D10C2F923F924F925F926F927F9257
:102690008F929F92AF92BF92CF92DF92EF92FF9272
:1026A0000F931F93CF93DF9300D000D01F92CDB72D
:1026B000DEB7D82EF62EE42EC52E2C83011180C055
:1026C0008AE08D83EF2DEE0FE98311E022242A9416
:1026D00085EE482E95EC592EFC816F2E712CF15011
:1026E000FB83DD2009F4EFC00E940D044B015C0167
:1026F00080912E02811167C010932E021093300238
:1027000020922D02109252028B81809351021093DD
:102710005302809153029981892B809353028091B7
:102720002F02813009F0A0C010922F020E940D04E8
:102730004B015C01809153028093BB0080915D024C
:1027400090915E02A0915F02B0916002892B8A2B6A
:102750008B2BA1F00E940D0420915D0230915E024E
:1027600040915F0250916002681979098A099B09BA
:10277000261737074807590708F446C08091BC0060
:1027800083FDD8CF5092BC000E940D044B015C0128
:1027900080912E02813009F46AC080915202EC814E
:1027A0008E1708F086C080915202A1E3B2E0EAECF5
:1027B000F1E090E0981769F12D9121939F5FFACF96
:1027C00091E09D837FCF80915D0290915E02A09108
:1027D0005F02B0916002892B8A2B8B2B09F488CF82
:1027E0000E940D0420915D0230915E0240915F02D3
:1027F00050916002681979098A099B0926173707E1
:102800004807590708F074CF80915C020E942005A8
:1028100080E010925B0280935A02FC81F8130EC193
:10282000E9820E2D1C2D802F9981891BEC818E173A
:1028300008F441C001E0802F0F900F900F900F908F
:102840000F90DF91CF911F910F91FF90EF90DF904C
:10285000CF90BF90AF909F908F907F906F905F9040
:102860004F903F902F9008954092BC008DCF809163
:102870005D0290915E02A0915F02B0916002892B8F
:102880008A2B8B2B09F484CF0E940D0420915D02CA
:1028900030915E0240915F0250916002681979099F
:1028A0008A099B09261737074807590708F070CF90
:1028B000ABCF8C817ACF81EE92E00E945105F80176
:1028C00081938F01B0CF1093C901F0929D011092B6
:1028D000590210925802FC81FF2339F0A3016E2D9A
:1028E0007C2D81EE92E00E946B053090580280E2D0
:1028F000831508F407C190919D019A830E940D04ED
:102900004B015C0180912E02811169C0E2E0E093ED
:102910002E021093300220922D0210925202309219
:102920005102E9EAF1E0A1E3B2E03812C2C010922C
:102930005302909153028A81880F892B809353020E
:1029400080912F02813009F0B8C010922F020E94AE
:102950000D044B015C01809153028093BB00809178
:102960005D0290915E02A0915F02B0916002892B9E
:102970008A2B8B2BA1F00E940D0420915D023091D7
:102980005E0240915F0250916002681979098A09DC
:102990009B09261737074807590708F441C080915B
:1029A000BC0083FDD8CF5092BC000E940D044B01A7
:1029B0005C0180912E02823009F482C080912D0248
:1029C0008F3F09F4A1C080912D02803209F49EC08E
:1029D00080912D02803309F49BC084E026C0809151
:1029E0005D0290915E02A0915F02B0916002892B1E
:1029F0008A2B8B2B09F486CF0E940D0420915D0257
:102A000030915E0240915F0250916002681979092D
:102A10008A099B09261737074807590708F072CF1C
:102A200080915C020E94200585E01092590210926C
:102A300058021092C901882309F4FCCE8D8181309F
:102A400031F062E370E080E090E00E943204FD81AA
:102A5000F150FD83F11145CE011160C0E0910B01F1
:102A6000F0E0EB59FE4F80818F11E5CE8091C102DD
:102A700081110E940A13D1104DC08C81882309F462
:102A800049C082E08093D2021092CF021092C0021D
:102A90001092C1021092CA021092BF021092BE029E
:102AA00060E085E00E94560361E088E00E94D10C5E
:102AB000C2CE91919D938F5F38CF4092BC0075CF6D
:102AC00080915D0290915E02A0915F02B0916002E0
:102AD000892B8A2B8B2B09F46CCF0E940D0420913B
:102AE0005D0230915E0240915F0250916002681970
:102AF00079098A099B09261737074807590708F0FB
:102B000058CF8ECF81E091CF80E08FCF82E08DCF04
:102B100083E08BCF81E08093D202B8CF00E08BCEF0
:102B20000F93CF93DF9300D0CDB7DEB7282F882344
:102B300009F43FC08091C0028823A9F18091070168
:102B4000909104019230C1F12223C1F19130B1F191
:102B50009EE8998390E0883028F491E001C0990FB5
:102B60008A95EAF79A83222381F0809105018830C3
:102B700060F420910A01222341F021E030E001C0FD
:102B8000220F8A95EAF7922B9A83E0910B01F0E0ED
:102B9000EB59FE4F00E022E0AE014F5F5F4F6081D6
:102BA00080E00E9442130F900F90DF91CF910F9120
:102BB000089580910601C4CF9FE8CBCF9EECC9CF8A
:102BC00081E08093A40261E083E00C94D10C109228
:102BD000A40261E083E00C94D10C81E080930901B0
:102BE00061E083E00C94D10C1092090161E083E074
:102BF0000C94D10C81E08093080161E083E00C9497
:102C0000D10C1092080161E083E00C94D10C81E0BA
:102C10000E94F30761E083E00C94D10C8FEF0E94D7
:102C2000F30761E083E00C94D10C809104018130C2
:102C300031F41092040161E083E00C94D10C811115
:102C4000FACF82E080930401F6CF809104018230B4
:102C500031F41092040161E083E00C94D10C8111F5
:102C6000FACF81E080930401F6CF809103018111B6
:102C700003C081E0809303010E943F06809302011C
:102C800061E083E00C94D10C80910301882319F05A
:102C90008150809303010E943F068093020161E00E
:102CA00083E00C94D10C8091ED02833018F48F5F97
:102CB0008093ED0261E083E00C94D10C8091ED02F1
:102CC000882319F081508093ED0261E083E00C9439
:102CD000D10C0E943F0690910201981718F49F5F53
:102CE0009093020161E083E00C94D10C8091020189
:102CF000882319F081508093020161E083E00C94F5
:102D0000D10CE0910301F0E0E858FD4F808186305E
:102D100030F48F5F808361E083E00C94D10C80E01D
:102D2000F9CFE0910301F0E0E858FD4F808188235E
:102D300031F08150808361E083E00C94D10C86E017
:102D4000F9CF8091A602823038F48F5F8093A6027B
:102D500061E083E00C94D10C08958091A602882351
:102D600039F081508093A60261E083E00C94D10C8D
:102D70000895E091B1028091A602E53059F48630C1
:102D800010F48F5F01C080E08093A60261E083E0D1
:102D90000C94D10CF0E0E15AFE4F20812150330B0E
:102DA0008217130674F308958091A6029091B102E0
:102DB000953059F4882311F0815001C086E080934A
:102DC000A60261E083E00C94D10C8111F5CF089547
:102DD0004F925F926F927F928F929F92AF92BF922B
:102DE000CF92DF92EF92FF92CF93DF9300D000D08B
:102DF00000D0CDB7DEB78D834090950150909601FD
:102E00006090970170909801C0909901D0909A01BC
:102E1000E0909B01F0909C018091CA028823C9F147
:102E20008090C2029090C302A090C402B090C502EC
:102E30000E9465068E830E944A069B01AC01D30165
:102E4000C2018C199D09AE09BF0989839A83AB839E
:102E5000BC839E81A92FB0E00E94432829813A813A
:102E60004B815C81261737074807590710F4CA01C0
:102E7000B9013D8113160CF044C0860E971EA81EA2
:102E8000B91E8092C2029092C302A092C402B09274
:102E9000C5028091C2029091C302A091C402B09178
:102EA000C5028C159D05AE05BF0580F14816590673
:102EB0006A067B0610F06C017D01C092C202D092BE
:102EC000C302E092C402F092C50261E082E00E9477
:102ED000D10C81E08093CA0226960FB6F894DEBF2B
:102EE0000FBECDBFDF91CF91FF90EF90DF90CF90DD
:102EF000BF90AF909F908F907F906F905F904F901A
:102F00000895861A970AA80AB90ABBCF730162010D
:102F1000D4CFFF920F931F93CF93DF93EC01F62E44
:102F200008811981C8010E940E26F81621F06F2D24
:102F3000C8010E941626CE01DF91CF911F910F91FB
:102F4000FF900895AF92BF92CF92DF92EF92FF92DF
:102F50000F931F93CF93DF9300D0CDB7DEB78B01D4
:102F60006B0124E0C20ED11C7B015C01A61AB70ADA
:102F7000C5018E0D9F1D9A838983F70161917F01A1
:102F8000CE0101960E948917EC14FD0489F7C8014F
:102F90000F900F90DF91CF911F910F91FF90EF90C5
:102FA000DF90CF90BF90AF900895CF92DF92EF92D5
:102FB000FF920F931F93CF93DF93CDB7DEB7289780
:102FC0000FB6F894DEBF0FBECDBF182F6091C202BE
:102FD0007091C3028091C4029091C50220E041E04B
:102FE0000E9482076B017C01C092C202D092C30290
:102FF000E092C402F092C5028091C6029091C7028D
:10300000A091C802B091C902C816D906EA06FB060B
:1030100019F4112309F478C00E944A069B01AC01FF
:10302000C701B6010E941B283D832E8380910401B5
:10303000823009F078C09EE881E0892B8F839091DF
:10304000060180E0983028F481E001C0880F9A954D
:10305000EAF78887E0910B01F0E0EB59FE4F00E0C2
:1030600024E0AE014B5F5F4F608180E00E9442131D
:10307000882309F449C04091C2025091C302609173
:10308000C4027091C50280910301282F30E0F9013C
:10309000E858FD4F908149835A836B837C83973036
:1030A00000F58230F0F4C090C602D090C702E090E4
:1030B000C802F090C9024C155D056E057F0589F0C8
:1030C000892F90E0880F991F820F931F880F991FF7
:1030D000880F991FBE016F5F7F4F865A9F4F0E94D6
:1030E000A2178091C2029091C302A091C402B09134
:1030F000C5028093C6029093C702A093C802B09302
:10310000C90281E08093CF0228960FB6F894DEBF03
:103110000FBECDBFDF91CF911F910F91FF90EF9028
:10312000DF90CF9008959EEC80E087CFCF93DF9320
:1031300000D0CDB7DEB79A838983CE0101960E9475
:1031400089170F900F90DF91CF9108951F920F92E2
:103150000FB60F9211242F933F938F939F93AF93AA
:10316000BF938091D4029091D502A091D602B091E4
:10317000D7023091D30223E0230F2D3758F5019663
:10318000A11DB11D2093D3028093D4029093D50248
:10319000A093D602B093D7028091D8029091D90221
:1031A000A091DA02B091DB020196A11DB11D8093BE
:1031B000D8029093D902A093DA02B093DB02BF91B8
:1031C000AF919F918F913F912F910F900FBE0F90D4
:1031D0001F90189526E8230F0296A11DB11DD2CF8E
:1031E0001F920F920FB60F9211242F933F934F937C
:1031F0005F936F937F938F939F93AF93BF93EF935F
:10320000FF938091B900887F803609F44AC0F0F5B9
:10321000883209F4A7C018F5803109F49BC0B8F4CE
:10322000882309F4F9C0883009F494C0FF91EF9124
:10323000BF91AF919F918F917F916F915F914F91CE
:103240003F912F910F900FBE0F901F9018958831CE
:1032500009F488C0803251F780932D0214C0803465
:1032600009F49DC040F48033B9F38833F9F68093B4
:103270002D0285ECB0C0803509F485C0883509F48D
:1032800096C0883499F60E94100CD0CF883909F482
:103290008CC038F5883729F050F4883611F0803723
:1032A00029F683E080932E0210922C0257C08838B2
:1032B00009F47BC0803919F0803809F0B7CF8091CC
:1032C0002C02803208F071C0E0912C0281E08E0F58
:1032D00080932C028091BB00F0E0E45FFD4F80837F
:1032E0003DC0803B39F0E0F4803A09F479C0883A77
:1032F00009F09CCF84E080932E0210920B02109272
:103300000A02E0915602F0915702099580910A0253
:1033100081110FC081E080930A021092EA0109C076
:10332000803C09F4A6CF883C09F4A3CF883B09F080
:103330007DCFE0910B0281E08E0F80930B02F0E0D5
:10334000E651FE4F80818093BB0090910B028091EB
:103350000A0229C0809153028093BB0085EC8093C0
:10336000BC0064CF9091520280915102981758F599
:10337000E091520281E08E0F80935202F0E0EF5C08
:10338000FD4F8081E9CFE091520281E08E0F809362
:1033900052028091BB00F0E0EF5CFD4F8083909182
:1033A0005202809151029817C8F285E8D8CFE09177
:1033B000520281E08E0F809352028091BB00F0E0B8
:1033C000EF5CFD4F80838091300281115CCF81E002
:1033D00080932F0284EA8093BC0010922E0226CFA5
:1033E00085EC8093BC0010922E0280912C028032DA
:1033F00030F4E0912C02F0E0E45FFD4F1082609128
:103400002C0270E0E0915402F09155028CE092E0C1
:10341000099510922C020ACF10922D0234CFE1EEC2
:10342000F2E01382128288EE93E0A0E0B0E08483A1
:103430009583A683B7838DE691E091838083EEEE3A
:10344000F2E0138212828FE791E09183808388E01B
:1034500084838FEF858389E086838AE087838BE08E
:1034600080878CE081878DE082871386148615869D
:103470001686178681E00E94580A80910B0180937E
:10348000ED020895CF93DF93CDB7DEB767970FB600
:10349000F894DEBF0FBECDBF789484B5826084BD42
:1034A00084B5816084BD85B5826085BD85B5816048
:1034B00085BD80916E00816080936E0010928100C6
:1034C0008091810082608093810080918100816081
:1034D0008093810080918000816080938000809142
:1034E000B10084608093B1008091B00081608093CE
:1034F000B00080917A00846080937A0080917A0095
:10350000826080937A0080917A00816080937A0053
:1035100080917A00806880937A001092C10062E006
:1035200082E00E94840362E083E00E94840362E000
:1035300084E00E94840361E085E00E94840361E0EE
:1035400085E00E94840361E086E00E94840310927B
:103550005B0210925A0210925902109258020E9475
:1035600002058BEA94E090935702809356028CEA0E
:1035700094E0909355028093540282EF8093B800B8
:103580001092610288E893E1A0E0B0E080935D02D0
:1035900090935E02A0935F02B093600211E01093DB
:1035A0005C0282E00E94580A8FEF90E00E94B5030F
:1035B00061E080E00E94D10C64EC79E080E090E072
:1035C0000E94320483E00E942D03892BB9F41093EA
:1035D0000B0161E080E590E00E94961810937C0258
:1035E00061E088E00E94D10C10927C0264EC79E0EA
:1035F00080E090E00E9432041093AB020E94690BBD
:10360000E0910B01F0E0EB59FE4F00E021E0AE014C
:103610004F5F5F4F608181E00E94421380E00E9413
:10362000D51761E081E00E94D10C61E085E00E9445
:10363000D10CCC24C39440E0242E40E0342E11E081
:10364000DD24DA940E9464042B013C0182E00E9494
:103650002D0301E0892B09F000E00093B90283E01B
:103660000E942D03FF24F394892B09F0F12CF09292
:10367000B70284E00E942D0321E0892B09F020E0AD
:103680002093B8020F0D020F023010F01093660263
:1036900080916602882309F4F5C01092B802109256
:1036A000B7021092B90210927D021092730210922A
:1036B0007E0201110AC0109266024092620250928C
:1036C000630260926402709265028091D202882344
:1036D00009F4F8C0D09201018FEF90E00E94B50389
:1036E0008091C10281116AC08091D202811152C2BF
:1036F0000091B90201110DC08091B702811109C07A
:103700008091B802811105C08091CA02882309F412
:1037100059C00E9464042B013C0128EE36E14FEFB2
:103720006EE772E0802F0E94A80628EE36E141E0A5
:103730006DE772E08091B8020E94A8068091B902FC
:10374000811104C08091B802882341F04092740234
:103750005092750260927602709277028091CA024E
:10376000882361F180E00E94E705082F8091B7026D
:10377000882351F040927402509275026092760252
:10378000709277021093AB02013009F0C3C10E941E
:1037900064042B013C0180E00E94D5171092CA02FC
:1037A0004092AC025092AD026092AE027092AF02B3
:1037B0000093AB0261E081E00E94D10C8091D202C3
:1037C0008111E8C10E9464042B013C018091BA027E
:1037D0009091BB02A091BC02B091BD020097A105DF
:1037E000B105A9F053014201881A990AAA0ABB0A35
:1037F000D501C4018E359140A105B10540F010926C
:10380000BA021092BB021092BC021092BD02F0905C
:10381000B902F11008C08091B802811104C08091F2
:10382000B702882341F04092B3025092B4026092F2
:10383000B5027092B6022091C102222309F49DC103
:103840008091B202811199C14091B3025091B402AA
:103850006091B5027091B602D301C201841B950B31
:10386000A60BB70BAC01BD0141325E446105710589
:1038700008F483C18091B102843008F46BC10E94C6
:10388000741288C18091620290916302A0916402D7
:10389000B0916502481A590A6A0A7B0A22E3421665
:1038A00051046104710408F010CF1092B802109214
:1038B000B7021092B90210927D0210927302109218
:1038C0007E0203CF8091BE02882319F11092BE02BE
:1038D00080910101882369F081508093010190E07B
:1038E0000E94B50361E070E080E090E00E94320445
:1038F000EFCF1093BF0261E087E00E94D10C83E01C
:103900000E942D03892BD9F3109273021092B702F3
:10391000E7CE8091CA02811104C08091C102882340
:1039200049F010926F021092700210927102109280
:103930007202D6CE0E9464042B013C018091B90230
:10394000811108C08091B702811104C08091B80232
:10395000882391F1D09201018FEF90E00E94B5038E
:103960008091BF02882301F11092BF0261E087E0DD
:103970000E94D10C8091B90202E0811106C08091B1
:10398000B80204E0811101C003E0802F0E942D03E2
:10399000892BD9F3033009F455C0043009F44DC024
:1039A00010927E021092B90240926F025092700201
:1039B000609271027092720280910A01811147C077
:1039C00010926F02109270021092710210927202A5
:1039D0008091BF02811184CE809101018F3F31F02F
:1039E000D09201018FEF90E00E94B50380916B02AD
:1039F00090916C02A0916D02B0916E02B301A20190
:103A0000481B590B6A0B7B0BDB01CA01883E9340B4
:103A1000A105B10508F464CE40926B0250926C028D
:103A200060926D0270926E0261E081E00E94D10CA2
:103A300061E085E00E94D10C53CE10927D0210927D
:103A4000B802B2CF109273021092B702ADCF80913C
:103A5000C002882309F465CF80916F0290917002B3
:103A6000A0917102B0917202892B8A2B8B2B41F4A9
:103A700040926F02509270026092710270927202D4
:103A800080910801882309F42BCE80916F029091D8
:103A90007002A0917102B0917202B301A201481BA1
:103AA000590B6A0B7B0BDB01CA01853C9940A105D0
:103AB000B10508F415CE8091BF02811111CE20917D
:103AC00001012F3108F40CCE409167025091680239
:103AD0006091690270916A02D301C201841B950B47
:103AE000A60BB70BAC01BD0147305105610571054F
:103AF00008F4F6CD8FEF820F8093010190E00E94D1
:103B0000B503409267025092680260926902709217
:103B10006A02E6CD023009F079C51092CA0280919E
:103B2000C6029091C702A091C802B091C9028093C9
:103B3000C2029093C302A093C402B093C502409204
:103B4000AC025092AD026092AE027092AF0210933E
:103B5000AB0230CE1092B0020E940A1361E085E001
:103B60000E94D10C4092AC025092AD026092AE0223
:103B70007092AF021093AB020DC08091AB0288230C
:103B800029F18091B702811105C01092AB0281E04A
:103B90000E94E7050E9464042B013C010091D202BF
:103BA00001110E9470048091D102811120C4809182
:103BB000D00281111CC4011104C08091CF02811177
:103BC00084C480ED97E0A0E0B0E015C48091B0021D
:103BD00021118FC08111DECF8091AC029091AD0296
:103BE000A091AE02B091AF0253014201881A990A26
:103BF000AA0ABB0AD501C4018E359140A105B105C1
:103C000048F22091B7028091A7029091A802A0915A
:103C1000A902B091AA02222309F422C5892B8A2B7A
:103C20008B2B41F44092A7025092A8026092A90205
:103C30007092AA028091A7029091A802A091A90275
:103C4000B091AA020097A105B10509F4A3CF481AC3
:103C5000590A6A0A7B0A31E2431633E053066104CB
:103C6000710408F497CF8091BF02811193CF109215
:103C7000A7021092A8021092A9021092AA02109212
:103C8000BA021092BB021092BC021092BD021093B5
:103C9000C10284E08093B1021092A6021092A502A4
:103CA0001092B2021092B0021092A4021092A302DB
:103CB0001092A20261E086E00E94D10C61E083E0F4
:103CC0000E94D10C1093AB020E9464046093B30273
:103CD0007093B4028093B5029093B6025BCF21E05B
:103CE000412C512C3201F6C444244A94542C320104
:103CF000F1C4882329F160E084E00E94D10C25E022
:103D000033E14FEF6EE772E08091B9020E94A8069E
:103D100025E033E141E06DE772E08091B8020E9456
:103D2000A80680E00E94E70540E0813021F0823063
:103D300009F030CF41E060E080E00E94A7122ACF76
:103D400080E00E94E705082FE091B102E43008F41A
:103D5000ACC024ED36E14FEF6EE772E08F2D0E948C
:103D6000A80629EB36E141E06DE772E08091B802E8
:103D70000E94A806023019F40E9496120BCF01305F
:103D800009F008CF8091B102843009F041C08091E0
:103D9000A602833030F48093A20285E08093B102C2
:103DA00078C18330C9F480910A01082700930A0181
:103DB0008091C002882369F081E00E9490158111F2
:103DC00008C080910A018C2580930A0181E00E943D
:103DD000901561E083E0E2C1843009F050CD10928B
:103DE000C1021092A5021092B2021092B10210927A
:103DF000A6021092A2021093BE020E946404609375
:103E0000AC027093AD028093AE029093AF02B2CE3B
:103E1000853009F0BFCE8091A602863009F4ACCF80
:103E20009091A202911117C0BE016F5F7F4F0E9457
:103E3000CC08882371F289819A81AB81BC818093FF
:103E4000C2029093C302A093C402B093C50280E063
:103E50000E94D51714CD913081F4863030F40E9441
:103E6000CA0566EC72E00E94A21784E08093B1025A
:103E70008091A2028093A602ACCF923009F08ACE44
:103E8000863098F70E94CA053C01F12CE12C6FEFB7
:103E9000C3018E0D9F1D0E9496182FEFE21AF20AA1
:103EA00034E0E316F10499F7E0CF8091B202882361
:103EB00009F4F2C02DEA36E14FEF6EE772E08F2D84
:103EC0000E94A80621EA36E141E06DE772E08091A8
:103ED000B8020E94A806023019F40E9444125ACE79
:103EE000013009F057CE8091A6028111CBC080919C
:103EF000B00281113BC040E150E061E972E080E82E
:103F000092E00E9486281092900290E8692E92E03A
:103F1000792EF301819180528F3508F007C440E972
:103F200052E04E175F07B1F7CE0101960E948A0852
:103F300041E150E0BE016F5F7F4F80E892E00E9458
:103F40007828892B99F08AE0E82EF12CFB8AEA8AFE
:103F5000D3016D913D01CE0142960E948917BFEFBA
:103F6000EB1AFB0AEBE1EE16F10481F7F0900B017E
:103F7000E091ED02FE1691F0F0E0EB59FE4F00E00B
:103F800020E050E040E0608180E00E9442138823FE
:103F900009F457C08091ED0280930B016091780283
:103FA0008CE390E00E949618609179028DE390E096
:103FB0000E9496186091020188E290E00E94961893
:103FC00060910B0180E590E00E94961860910301DA
:103FD00086E490E00E9496186091040182E390E0EC
:103FE0000E94961860910701683008F068E086E545
:103FF00090E00E94961860910601683008F068E031
:1040000087E590E00E94961860910501683008F0FD
:1040100068E088E590E00E949618609108018EE1C2
:1040200090E00E9496186091090183E290E00E945E
:1040300096180E94020981E00E94D5170E940A1377
:10404000A9CDF0920B0110937C0261E088E00E9400
:10405000D10C10927C020E9464042B013C010E944E
:1040600064046419750986099709643C79408105DF
:10407000910518F40E947004F2CF60E085E00E9480
:1040800056038CCF8130D1F2823009F083CD10926B
:10409000B2021092A6029DCE8091A50281118AC023
:1040A000F0E0E15AFE4FE080FF2009F441C080912A
:1040B0007E0281110DC010937E028091A60288239A
:1040C00019F081508093A60261E083E00E94D10C38
:1040D0008091B802882379F180917D02811111C00D
:1040E00010937D028091A6024E2D4150550B8417EE
:1040F00015061CF48F5F8093A60261E083E00E94A6
:10410000D10C023009F4E9CE013009F043CD909191
:10411000B1028091A60291111EC08130A1F070F011
:104120008230A9F0833009F054CE0093B202B1CFAF
:1041300010927E02CDCF10927D02E3CF10927B02CF
:104140000093B102A6CF00937B0282E027CE80933A
:104150007B0283E023CEE92FF0E0E15AFE4F20817D
:104160002150330B8217130629F41092B10280916B
:104170007B0280CE9330D9F4811113C010927A0261
:104180000093B00240E150E060E872E081E992E023
:104190000E9486281092A10261E084E00E94D10C66
:1041A000F9CC833021F41092A4021092A302109350
:1041B000A5020FCEE130E1F58091A6028823D9F067
:1041C000813059F1023009F488CE013009F0E2CC97
:1041D0008091B102823009F095C08091A6028330AF
:1041E00009F08DC080917F02823008F086C08F5F19
:1041F00080937F02EECD21E936E14FEF6EE772E06A
:104200008F2D0E94A80621E836E141E06DE772E0BB
:104210008091B8020E94A806D5CF26E736E14FEF7D
:104220006EE772E08F2D0E94A80629E636E1EDCFF9
:10423000E230B1F58091A6028130E1F080F0823069
:1042400021F1833009F0BECF2EE036E14FEF6EE76B
:1042500072E08F2D0E94A80627E036E1D6CF2EE52A
:1042600036E14FEF6EE772E08F2D0E94A80623E53E
:1042700036E1CBCF24E436E14FEF6EE772E08F2DCD
:104280000E94A80625E336E1C0CF25E236E14FEFD4
:104290006EE772E08F2D0E94A80625E136E1B5CFCA
:1042A000E33009F08FCF8091A602823081F0833015
:1042B000C9F0813009F086CF21E036E14FEF6EE79B
:1042C00072E08F2D0E94A8062AEF35E19ECF24EFE1
:1042D00035E14FEF6EE772E08F2D0E94A8062DEEBC
:1042E00035E193CF27EE35E14FEF6EE772E08F2D8A
:1042F0000E94A80620EE35E188CF10927F0210922E
:10430000A50267CD8330D9F78091A6028330B9F733
:104310008091A402882309F467C08091A3028823B6
:1043200009F45DC0F12CE12C6FEFC7010E949618D3
:104330005FEFE51AF50AE11464E0F606A9F70E94BA
:10434000690B6091C2027091C3028091C402909186
:10435000C50220E041E00E9482076093C202709390
:10436000C3028093C4029093C50280910B01809395
:10437000ED0240E150E060E872E081E992E00E94E5
:1043800086281092A10210927F0210930A011092C7
:10439000BE0281E00E94D5171092C1021092A502C0
:1043A0001092B2021092A4021092A3021092B102D3
:1043B0001092A6020E9464046093AC027093AD0256
:1043C0008093AE029093AF021093AB0261E081E064
:1043D0000E94D10C61E085E00E94D10C0ECD0093CB
:1043E000A3021092A402F5CC1092A30288CF82E31C
:1043F00090E0A0E0B0E08090CB029090CC02A09042
:10440000CD02B090CE02A3019201281939094A09C0
:104410005B09281739074A075B0708F4BBC04092BD
:10442000CB025092CC026092CD027092CE02E0910B
:104430000B01F0E0EB59FE4F01E021E0AE014F5FD0
:104440005F4F608181E00E944213811142C08091E0
:10445000D1028F5F8093D1028A3008F49BC0109202
:10446000D0021092D1028091D202811193C080912A
:10447000CA02882381F08091C6029091C702A09160
:10448000C802B091C9028093C2029093C302A09364
:10449000C402B093C5028091C10281110E940A1327
:1044A0001093D2021092C0021092C1021092CA025E
:1044B0001092BF021092BE0260E085E00E94560397
:1044C00061E088E00E94D10C65C080E090E0DC01F2
:1044D00092CF1092D1029091D202913009F44AC049
:1044E0001092D002911103C0898187FF6EC0809124
:1044F000CA02882381F08091C6029091C702A091E0
:10450000C802B091C9028093C2029093C302A093E3
:10451000C402B093C5028091C10281110E940A13A6
:104520001092C1021092CA020091D2021092D202DD
:104530001092C00260E085E00E94560360E085E0D2
:104540000E945603023019F0898187FF2AC081E05A
:104550000E94D5178091D20281111CC06091C002C7
:1045600085E00E94560361E081E00E94D10C61E089
:1045700085E0A8CF8091CF028111B2CF8981807C64
:1045800009F0AECF8091D0028F5F8093D0028A3045
:1045900008F0A6CF2114310409F454C80E94000089
:1045A0004FC886FB882780F98093C0029091CF0284
:1045B000891731F08091C0028C258093CF02CECF35
:1045C0000E9490158111F6CFE5CF9091CF029923EB
:1045D00009F386FB882780F98093C0028091C1028D
:1045E000811104C061E085E00E94D10C8091C0027D
:1045F000882331F081E00E94901581111092CF0242
:104600006091C00285E00E945603C4CF809174027D
:1046100090917502A0917602B0917702481A590ADA
:104620006A0A7B0A69E8461663E15606610471046A
:1046300008F4C4C81092CA0281E00E94E705809184
:10464000C6029091C702A091C802B091C90280939E
:10465000C2029093C302A093C402B093C502AAC839
:104660000097A105B10509F495CA1092A70210920E
:10467000A8021092A9021092AA02B301A201481B3B
:10468000590B6A0B7B0BDB01CA018E359140A105EA
:10469000B10508F07FCA8091BA029091BB02A09147
:1046A000BC02B091BD020097A105B10569F05301AC
:1046B0004201881A990AAA0ABB0AD501C401C29705
:1046C000A105B10508F00BCB41145104610471043C
:1046D00009F40ACB4092BA025092BB026092BC022B
:1046E0007092BD02222309F455CA1093C1021092A0
:1046F000B1021092A6021092A5021092B20210927C
:10470000B0021092A4021092A30280910B01809338
:10471000ED0240E150E060E872E081E992E00E9441
:1047200086281092A10210927F02C4CA40E150E094
:104730006EE471E080E892E00E94862844E050E058
:1047400060E270E08CE892E00E947128EDCBEF927D
:104750000F931F93CF93DF93E80134E047FD34E1DB
:10476000042E000C550B57FF03C05195419551097C
:10477000E32E022F242FAE010E94D723CE01DF911A
:10478000CF911F910F91EF900895FB01DC0102C0C2
:1047900005900D9241505040D8F70895FC010590C6
:1047A0000020E9F7809590958E0F9F1F0895A9E04E
:1047B000B0E0EDEDF3E20C942A266A01F22EB02E61
:1047C000102FFBE3AF2EA01608F41BE31F5F012F91
:1047D00027E0AE014F5F5F4F0E943625BC01898103
:1047E000982F9970913009F43FC09BE2E1FC04C01E
:1047F0009E2D9170E0FC3AC05E2D5071E82FE8705C
:1048000083FF46C084E0911101C083E0EF2DE81BD7
:104810008F1508F0E0E0D6018E2F20E2552351F1EC
:10482000992329F0D6019C93C60101966C0196014B
:104830002D5F3F4FE2FE24C08EE4D6018C9391E4BD
:1048400011969C93119712968C93D9018E2F90E21A
:1048500081111BC0E20FF32FF11D10828EEF9FEF2D
:104860002996ECE00C9446269DE2C6CF90E2C4CF98
:104870002D9381508111FCCFCE0ED11CE0E0D0CF22
:104880008EE6D6018C9391E6DBCF9D938150E0CFED
:10489000482F447082FF3DC084E0911101C083E045
:1048A0008F1510F4EF2DE81BD6018E2F20E2552333
:1048B00009F1992329F0D6019C93C60101966C0158
:1048C00096012D5F3F4FE2FE1BC089E4D6018C9319
:1048D0008EE411968C93119786E412968C93D901ED
:1048E0008E2F90E2882309F4B5CF9D938150FACFA3
:1048F0002D9381508111FCCFCE0ED11CE0E0D9CF99
:1049000089E6D6018C938EE611968C93119786E6F4
:10491000E4CF9B0177FF02C030E020E0A1E0B0E0EF
:10492000911102C0B0E0A0E0F9013196AE0FBF1FB7
:104930008B2C912CBB2009F461C05401EFEFAE1A0F
:10494000BE0AAA0DBB1DFA161B0619F014F04F2D56
:104950004A1B511188C0E3FC59C07601A42FB0E274
:10496000A1114FC0C40ED11C992309F45BC040E0D3
:10497000D6011196F60190836D01552309F448C0C4
:10498000012F060F9A81582F507184FF03C0913375
:1049900009F4015010160CF047C0093008F008E087
:1049A000EEE2FE2E5B01A01AB1088501919481947C
:1049B00091082F3F320729F4D601FC92F601319677
:1049C0006F016217730794F1021713077CF5DB017F
:1049D000A21BB30BAA24A394B12CAC0EBD1EAA0D2E
:1049E000BB1D11968C9121503109D60111962815C5
:1049F0003905F4F0F60180836D01DBCFB12CA12CD9
:104A0000A0CFF701B1937F01A150AACF9111B0CFF0
:104A1000D601942F50E302C05D9391509111FCCFC9
:104A2000C40ED11C40E0ACCF01E0BACF80E3DBCFB5
:104A30006217730731F4963388F4953311F45523D4
:104A400069F0F6018083FD01842F90E2811108C096
:104A5000A40FB11D1C9290E080E002CF81E3F1CF62
:104A600091938150F3CF911183CF8ACF283008F0F2
:104A700027E03327DA01990F311D87FD91600096F9
:104A80006105710539F432602E5F3D9330E32A955C
:104A9000E1F708959F3F30F080387105610509F016
:104AA0003C5F3C5F3D93913008F08068911DDF933F
:104AB000CF931F930F93FF92EF92192F987F9695A4
:104AC000E92F96959695E90FFF27EE53FF4F99270B
:104AD0003327EE24FF24A701E701059008940794EB
:104AE00028F4360FE71EF81E491F511D660F771F69
:104AF000881F991F0694A1F70590079428F4E70EE4
:104B0000F81E491F561FC11D770F881F991F661F6A
:104B10000694A1F70590079428F4F80E491F561F34
:104B2000C71FD11D880F991F661F771F0694A1F715
:104B30000590079420F4490F561FC71FD81F990FDF
:104B4000661F771F881F0694A9F784911095177028
:104B500041F0D695C79557954795F794E7941A95E0
:104B6000C1F7E8E6F0E068941590159135916591EC
:104B7000959105907FE27395E118F10A430B560B6E
:104B8000C90BD009C0F7E10CF11E431F561FC91F06
:104B9000D01D7EF4703311F48A95E6CFE89401506D
:104BA00030F0080F0AF40027021708F4202F23958D
:104BB000022F7A3328F079E37D932A95E9F710C024
:104BC0007D932A9589F6069497956795379517955D
:104BD0001794E118F10A430B560BC90BD00998F052
:104BE00023957E9173957A3308F070E37C932013BC
:104BF000B8F77E9170617D9330F0839571E37D937A
:104C000070E32A95E1F71124EF90FF900F911F9127
:104C1000CF91DF91992787FD90950895F999FECF5F
:104C200092BD81BDF89A992780B50895262FF999EC
:104C3000FECF1FBA92BD81BD20BD0FB6F894FA9A7F
:104C4000F99A0FBE019608952F923F924F925F926C
:104C50006F927F928F929F92AF92BF92CF92DF928C
:104C6000EF92FF920F931F93CF93DF93CDB7DEB7F1
:104C7000CA1BDB0B0FB6F894DEBF0FBECDBF099485
:104C80002A88398848885F846E847D848C849B84DC
:104C9000AA84B984C884DF80EE80FD800C811B81EA
:104CA000AA81B981CE0FD11D0FB6F894DEBF0FBE19
:104CB000CDBFED0108955058BB27AA270E94732647
:104CC0000C94BD270E94AF2738F00E94B62720F031
:104CD00039F49F3F19F426F40C94AC270EF4E095B8
:104CE000E7FB0C94A627E92F0E94CE2758F3BA17AA
:104CF000620773078407950720F079F4A6F50C94F2
:104D0000F0270EF4E0950B2EBA2FA02D0B01B90160
:104D100090010C01CA01A0011124FF27591B99F031
:104D2000593F50F4503E68F11A16F040A22F232F3D
:104D3000342F4427585FF3CF469537952795A7958D
:104D4000F0405395C9F77EF41F16BA0B620B730B34
:104D5000840BBAF09150A1F0FF0FBB1F661F771FA5
:104D6000881FC2F70EC0BA0F621F731F841F48F45A
:104D7000879577956795B795F7959E3F08F0B0CFE3
:104D80009395880F08F09927EE0F979587950895CA
:104D90000E94DC260C94BD270E94B62758F00E9482
:104DA000AF2740F029F45F3F29F00C94A62751115A
:104DB0000C94F1270C94AC270E94CE2768F399231A
:104DC000B1F3552391F3951B550BBB27AA27621707
:104DD0007307840738F09F5F5F4F220F331F441F14
:104DE000AA1FA9F335D00E2E3AF0E0E832D0915048
:104DF0005040E695001CCAF72BD0FE2F29D0660F35
:104E0000771F881FBB1F261737074807AB07B0E877
:104E100009F0BB0B802DBF01FF2793585F4F3AF07D
:104E20009E3F510578F00C94A6270C94F1275F3F24
:104E3000E4F3983ED4F3869577956795B795F79503
:104E40009F5FC9F7880F911D9695879597F90895EB
:104E5000E1E0660F771F881FBB1F62177307840787
:104E6000BA0720F0621B730B840BBA0BEE1F88F796
:104E7000E09508950E94D62788F09F5798F0B92FA3
:104E80009927B751B0F0E1F0660F771F881F991F7F
:104E90001AF0BA95C9F714C0B13091F00E94F0270A
:104EA000B1E008950C94F027672F782F8827B85F1A
:104EB00039F0B93FCCF3869577956795B395D9F7D7
:104EC0003EF490958095709561957F4F8F4F9F4FE1
:104ED0000895E89409C097FB3EF4909580957095ED
:104EE00061957F4F8F4F9F4F9923A9F0F92F96E936
:104EF000BB279395F695879577956795B795F111AB
:104F0000F8CFFAF4BB0F11F460FF1BC06F5F7F4F47
:104F10008F4F9F4F16C0882311F096E911C0772359
:104F200021F09EE8872F762F05C0662371F096E862
:104F3000862F70E060E02AF09A95660F771F881F31
:104F4000DAF7880F9695879597F9089597F99F67EF
:104F500080E870E060E008959FEF80EC0895002401
:104F60000A941616170618060906089500240A94CE
:104F700012161306140605060895092E0394000C54
:104F800011F4882352F0BB0F40F4BF2B11F460FFE3
:104F900004C06F5F7F4F8F4F9F4F089557FD90580C
:104FA000440F551F59F05F3F71F04795880F97FBED
:104FB000991F61F09F3F79F08795089512161306A7
:104FC0001406551FF2CF4695F1DF08C016161706D6
:104FD0001806991FF1CF869571056105089408950B
:104FE000E894BB2766277727CB0197F90895DB0163
:104FF0008F939F930E944328BF91AF91A29F800DF2
:10500000911DA39F900DB29F900D1124089597FBC1
:10501000072E16F4009407D077FD09D00E944E2881
:1050200007FC05D03EF4909581959F4F08957095AB
:1050300061957F4F0895A1E21A2EAA1BBB1BFD01AB
:105040000DC0AA1FBB1FEE1FFF1FA217B307E40767
:10505000F50720F0A21BB30BE40BF50B661F771FBF
:10506000881F991F1A9469F760957095809590959F
:105070009B01AC01BD01CF010895EE0FFF1F05900C
:10508000F491E02D09940E946228A59F900DB49F91
:10509000900DA49F800D911D11240895AA1BBB1B88
:1050A00051E107C0AA1FBB1FA617B70710F0A61B28
:1050B000B70B881F991F5A95A9F780959095BC0149
:1050C000CD010895A29FB001B39FC001A39F700DB1
:1050D000811D1124911DB29F700D811D1124911D00
:1050E0000895DC0101C06D9341505040E0F70895F0
:1050F000FB01DC014150504030F08D91019080194E
:1051000019F40020B9F7881B990B0895FB01DC0105
:105110004150504048F001900D920020C9F701C065
:0E5120001D9241505040E0F70895F894FFCFE3
:10512E0001FF020101020605010101010302006AED
:10513E00180000D430004007EC038026690400AB51
:10514E008704C095A905C0832F0500F36F060044A0
:10515E009508004DD20800B108198074D21A80A1AA
:10516E00031C801361330090D003006D7C4D53748B
:10517E006174696F6E204E616D6500000000000461
:10518E000305050607606162630000000098056B69
:10519E0005C70541056405510542050000000014D0
:0851AE000BAD04C705DA040093
:00000001FF
