:100000000C947E020C94A6020C94A6020C94A602F8
:100010000C94A6020C94A6020C94A6020C94A602C0
:100020000C94A6020C94A6020C94A6020C94A602B0
:100030000C94A6020C94A6020C94A6020C94A602A0
:100040000C943B150C94A6020C94A6020C94A602E8
:100050000C94A6020C94A6020C94A6020C94A60280
:100060000C9485150C94A60207634236B79BD8A75B
:100070001A39685618AEBAAB558C1D3CB7CC5763CD
:10008000BD6DEDFD753EF6177231BF000000803F7B
:1000900008000000BE922449123EABAAAA2ABECD97
:1000A000CCCC4C3E00000080BEABAAAAAA3E000009
:1000B0000000BF000000803F000000000008417801
:1000C000D3BB4387D1133D190E3CC3BD4282AD2B38
:1000D0003E68EC8276BED98FE1A93E4C80EFFFBE30
:1000E00001C4FF7F3F000000000000407A10F35A77
:1000F00000A0724E18090010A5D4E80000E8764868
:10010000170000E40B54020000CA9A3B000000E113
:10011000F505000080969800000040420F000000A6
:10012000A08601000000102700000000E803000086
:1001300000006400000000000A0000000000010050
:10014000000000002C76D888DC674F0823DFC1DF71
:10015000AE59E1B1B796E5E3E453C63AE651997674
:1001600096E8E6C28426EB898C9B62ED407C6FFCAE
:10017000EFBC9C9F40F2BAA56FA5F490055A2AF7F0
:100180005C936B6CF9676DC11BFCE0E40D47FEF5F9
:1001900020E6B500D0ED902E030094357705008061
:1001A000841E080000204E0A000000C80C333333C0
:1001B000330F986E12831141EF8D2114893BE65560
:1001C00016CFFEE6DB18D1844B381BF77C1D901D43
:1001D000A4BBE424203284725E228100C9F124ECA5
:1001E000A1E53D2753455420746F207265737461F7
:1001F000727400726573746F72696E672030780074
:10020000493243204552524F520049324320464121
:100210004C4C4241434B003C3C003E3E00202020E1
:100220002020004C4F434B200053455420746F2036
:10023000636F6E6669726D0045584954205345548A
:1002400054494E47530053455420746F2073656CD6
:10025000656374006F6666006F6E20003E2000428A
:1002600041434B4C494748542044494D4D45520069
:1002700053455420746F206564697400535441548D
:10028000494F4E204E414D450053455420746F2038
:10029000636F6E6669726D0045584954205345542A
:1002A00054494E47530053455420746F2073656C76
:1002B000656374006E6F6E65005000524620647274
:1002C0006976653A20006E6F6E65005000756E6C41
:1002D0006F636B65643A20006E6F6E650050006C52
:1002E0006F636B65643A20003E2000504F525420EB
:1002F0004D415050494E470053455420746F207370
:10030000656C65637400686967680064697361623D
:100310006C6564006C6F7720003E200043484152BA
:1003200047452050554D500053455420746F20735D
:10033000656C65637400204D487A002E003E2000F5
:100340005854414C204652455155454E435900534F
:10035000455420746F2073656C656374003E2030D3
:100360007800493243204144445245535300534599
:100370005420746F20636F6E6669726D0045584932
:10038000542053455454494E475300534554207408
:100390006F2073656C6563740020646563696D61CB
:1003A0006C730020646563696D616C003E200050D1
:1003B0005245434953494F4E0053455420746F20D2
:1003C00073656C65637400204D487A002D003E20F3
:1003D000004652455155454E43592042414E440036
:1003E00053455420746F2070726F636565640045D7
:1003F000584954204D454E550053455420746F20A4
:10040000656E7465720047454E4552414C20534518
:100410005454494E47530053455420746F20656E21
:1004200074657200504C4C2053455454494E475308
:100430000053455420746F20656E746572005643F6
:100440004F2053455454494E47530063616E6365D2
:100450006C00646973636172640073617665206324
:1004600068616E676573003E200045584954204D11
:10047000454E55005345542000284329323032362A
:10048000204C6F656E69650056322E380020005092
:100490004C4C20436F6E74726F6C00204D487A0094
:1004A00000000000240027002A00000000002500B2
:1004B00028002B000000000023002600290004046F
:1004C00004040404040402020202020203030303FC
:1004D00003030102040810204080010204081020D8
:1004E00001020408102000000008000201000003BF
:1004F00004070000000000000000A41611241FBE25
:10050000CFEFD8E0DEBFCDBF11E0A0E0B1E0ECEC72
:10051000F6E402C005900D92A238B107D9F722E0A7
:10052000A2E8B1E001C01D92AE3EB207E1F712E0D1
:10053000CEE7D2E004C02197FE010E940423CD370C
:10054000D107C9F70E94D7160C9464230C940000BD
:10055000833081F028F4813099F08230A9F0089539
:100560008730A9F08830C9F08430B1F480918000E0
:100570008F7D03C0809180008F77809380000895E5
:1005800084B58F7784BD089584B58F7DFBCF80912E
:10059000B0008F778093B00008958091B0008F7D78
:1005A000F9CFCF93DF93282F30E0F901EA51FB4FC9
:1005B0008491F901EE52FB4FD491F901E254FB4FC3
:1005C000C491CC23A1F081110E94A802EC2FF0E08D
:1005D000EE0FFF1FEC54FB4FA591B491EC91ED236E
:1005E00081E090E009F480E0DF91CF91089580E010
:1005F00090E0FACF1F93CF93DF93282F30E0F901DB
:10060000EA51FB4F8491F901EE52FB4FD491F9016D
:10061000E254FB4FC491CC23A9F0162F81110E9404
:10062000A802EC2FF0E0EE0FFF1FE655FB4FA5915F
:10063000B4918FB7F894EC91111108C0D095DE23D6
:10064000DC938FBFDF91CF911F910895DE2BF8CF00
:10065000CF93DF9390E0FC01EE52FB4F2491825444
:100660009B4FFC0184918823D1F090E0880F991F63
:10067000FC01E056FB4FA591B491FC01E655FB4F00
:10068000C591D491623071F49FB7F8943C91822F58
:10069000809583238C93E8812E2B28839FBFDF9145
:1006A000CF9108958FB7F894EC912E2B2C938FBF98
:1006B000F6CFCF93DF93EC0161E086E00E94280340
:1006C000209731F460E086E0DF91CF910C94FA023C
:1006D000CF3FD10511F461E0F6CFECEEF4E0E49108
:1006E000E33029F140F4E130B1F0E230D9F0C03824
:1006F000D1058CF7E7CFE73021F1E83051F1E43054
:10070000B1F780918000806280938000D0938B004D
:10071000C0938A0004C084B5806884BDC7BDDF91E2
:10072000CF91089584B5806284BDC8BDF8CF809113
:100730008000806880938000D0938900C0938800F7
:10074000EECF8091B00080688093B000C093B3007A
:10075000E6CF8091B00080628093B000C093B40077
:10076000DECF3FB7F8948091C0029091C102A09172
:10077000C202B091C30226B5A89B05C02F3F19F055
:100780000196A11DB11D3FBFBA2FA92F982F882711
:10079000BC01CD01620F711D811D911D42E0660FEC
:1007A000771F881F991F4A95D1F708958F929F92BE
:1007B000AF92BF92CF92DF92EF92FF924B015C011A
:1007C0000E94B1036B017C010E94B1036C197D0989
:1007D0008E099F09683E734081059105A8F321E0C9
:1007E000821A9108A108B10888EEC80E83E0D81ECD
:1007F000E11CF11C81149104A104B10429F7FF90BC
:10080000EF90DF90CF90BF90AF909F908F90089522
:100810002FB7F8946091BC027091BD028091BE0226
:100820009091BF022FBF0895CF92DF92EF92FF9277
:100830000F931F930E9408040091C5021091C602F5
:100840002091C7023091C8026B017C01C01AD10A05
:10085000E20AF30A970186010A3F110521053105D5
:10086000B8F06093C5027093C6028093C70290935C
:10087000C8026091C40281E068276093C40285E0E9
:100880001F910F91FF90EF90DF90CF900C94FA02A0
:100890001F910F91FF90EF90DF90CF9008950895F2
:1008A0000895AF92BF92CF92DF92EF92FF920F9393
:1008B0001F93CF93DF936C017B018B01040F151FF6
:1008C000EB015E01AE18BF08C017D10759F069915E
:1008D000D601ED91FC910190F081E02DC6010995C2
:1008E000892B79F7C501DF91CF911F910F91FF906F
:1008F000EF90DF90CF90BF90AF9008950895209132
:10090000FD01260F3327331F21323105ECF42091EE
:100910002102FC0190E080E0243069F082E008953B
:10092000A091FD012191AC0143525E4FA40FB52F60
:10093000B11D2C930196861798F38091FD01680FE5
:100940006093FD0180E0089581E0089510922102F6
:1009500081E0809323021092220261E082E10E94F2
:10096000FA0261E083E10E94FA02E9EBF0E08081A3
:100970008E7F808380818D7F808388E48093B80020
:1009800085E48093BC000895CF93DF9391E090932A
:1009900054028823B9F0C091B800D091BA00809178
:1009A000BC008A7B8093BC0060E082E10E94FA0276
:1009B00060E083E10E94FA020E94A604D093BA008C
:1009C000C093B800DF91CF9108950895E0914E0251
:1009D00080914D02E81730F4F0E0E354FE4F80813F
:1009E00090E008958FEF9FEF089590914E028091CF
:1009F0004D022FEF3FEF981748F4E92FF0E0E35452
:100A0000FE4F208130E09F5F90934E02C901089510
:100A100080914D0290914E02891B990B0895CF92BF
:100A2000DF92EF92FF920F931F93CF93DF937C019E
:100A3000CB018A012091BC01222389F0EB016B01DB
:100A4000C40ED51ECC15DD0569F06991D701ED9175
:100A5000FC910190F081E02DC7010995F3CF642F3F
:100A60000E947F04C801DF91CF911F910F91FF90E9
:100A7000EF90DF90CF900895CF93DF931F92CDB783
:100A8000DEB769832091BC012223F9F020914B024B
:100A9000203258F021E030E0FC013383228390E0E3
:100AA00080E00F90DF91CF91089580914C02E82F64
:100AB000F0E0E456FE4F998190838F5F80934C0263
:100AC00080934B0281E090E0ECCF61E0CE01019693
:100AD0000E947F04F7CF90E080E00895E09102014A
:100AE00084E0E89FF0011124E55EFE4F6081718192
:100AF0008281938129E096958795779567952A95C8
:100B0000D1F733E0660F771F881F991F3A95D1F709
:100B100008958F929F92AF92BF920F931F93CF939E
:100B2000DF93CDB7DEB7A1970FB6F894DEBF0FBE47
:100B3000CDBF19A2423008F44AE08E010F5D1F4F6D
:100B4000842E912CB12CA12CA50194010E94C322CA
:100B5000E62FB901CA01EA3044F5E05DD801EE9311
:100B60008D01232B242B252B79F790E080E0109723
:100B700069F0FD0101900020E9F73197AF014A1BB0
:100B80005B0BBD0186ED92E00E945104A1960FB669
:100B9000F894DEBF0FBECDBFDF91CF911F910F91B3
:100BA000BF90AF909F908F900895E95CD7CFFC01E4
:100BB00001900020E9F73197AF01481B590BBC01A8
:100BC00086ED92E00C945104EF92FF920F931F93E5
:100BD000CF93DF937C018C01CAE0D0E0CE010E946C
:100BE000451EF80181938F012196CB31D105B1F7D4
:100BF000C701DF91CF911F910F91FF90EF90089562
:100C00000C94451ECF93DF93EC0160E08E810E942F
:100C1000FA0261E08E810E94FA0260E08E810E94F9
:100C2000FA028BE891E00197F1F7DF91CF910895F7
:100C3000CF92DF92EF92FF920F931F93CF93DF93A8
:100C40006C017C0187E0E80EF11CD0E0C0E0062FCB
:100C500010E0B8010C2E02C0759567950A94E2F772
:100C60006170F70181917F010E94FA022196C430E0
:100C7000D10579F7C601DF91CF911F910F91FF90B8
:100C8000EF90DF90CF900C940206CF92DF92EF921C
:100C9000FF920F931F93CF93DF93EC01F62E642FF7
:100CA0008C810E94FA028D818F3F19F060E00E94D2
:100CB000FA020F2D10E08F8584FF25C06E0187E0BA
:100CC000C80ED11CF12CE12CB8010E2C02C0759578
:100CD00067950A94E2F76170F60181916F010E94B5
:100CE000FA02FFEFEF1AFF0A88E0E816F10461F755
:100CF000CE01DF91CF911F910F91FF90EF90DF9088
:100D0000CF900C940206B80184E0759567958A959A
:100D1000E1F7CE010E9418066F2DCE01DF91CF9131
:100D20001F910F91FF90EF90DF90CF900C941806D9
:100D300040E0682F86ED92E00C94450681E00E9429
:100D400098068BE39FE10197F1F70895CF93DF9326
:100D5000823029F49091E50298609093E5028093A7
:100D6000E9021092EA0280E48093EB0280E1809332
:100D7000EC0280E58093ED0261E08091DA020E944E
:100D800028038091DB028F3F19F061E00E94280365
:100D900061E08091DC020E942803C6EDD2E09E0152
:100DA000265D32408091E50284FD0BC084E090E036
:100DB00021962817390744F461E08E810E942803A8
:100DC000EECF88E090E0F4CF8BE39DE00197F1F760
:100DD00060E08091DA020E94FA0260E08091DC0219
:100DE0000E94FA028091DB028F3F19F060E00E94BE
:100DF000FA028091E50284FD34C063E086ED92E062
:100E00000E941806CBE4D6E4CE010197F1F763E027
:100E100086ED92E00E9418062197F1F763E086EDD7
:100E200092E00E94180683E592E00197F1F762E0F4
:100E300086ED92E00E9418068091E50280620E9491
:100E4000980684E08093E6028CE00E9498060E9457
:100E50009E0682E08093E70286E0DF91CF910C94BA
:100E6000980680620E9498068BE496E40197F1F759
:100E70008091E50280620E94980683E592E00197E6
:100E8000F1F78091E50280620E949806D5CF90919B
:100E9000E902691710F06FEF690FE62FF0E0EA52F0
:100EA000FD4F9489890F80680C94980641E00E9458
:100EB000450681E090E008950F931F93CF93DF9351
:100EC0008C01D0E0C0E0F801EC0FFD1F64916623B7
:100ED00039F041E086ED92E00E9445062196F3CF7D
:100EE000CE01DF91CF911F910F910895CF92DF92A4
:100EF000EF92FF9297FF18C06B017C0141E06DE219
:100F000086ED92E00E94450666277727CB016C1993
:100F10007D098E099F094AE00E9489050196FF908C
:100F2000EF90DF90CF9008954AE0FF90EF90DF9030
:100F3000CF900C94890585ED8093BC008091500280
:100F400090915102A0915202B09153020796A11DB7
:100F5000B11D23E0B695A795979587952A95D1F76A
:100F60002091BC0024FD03C01092210208954091FD
:100F70005002509151026091520270915302452BE0
:100F8000462B472B69F30097A105B10541F02AE2F2
:100F90002A95F1F700C00197A109B109E1CF80912D
:100FA0004F020C94C404DF92EF92FF920F931F93B1
:100FB000CF93DF93CDB7DEB729970FB6F894DEBF96
:100FC0000FBECDBFD82E60916C0270916D028091E2
:100FD0006E0290916F020E94C51F20E034E244E748
:100FE00059E40E941B1F9E012F5F3F4F7901890129
:100FF0002091030148E00E94F01BF70101900020BE
:10100000E9F78E2D8E1B6D2D835F0E944707C70168
:101010000E94D7058BE994E00E945C0729960FB6E1
:10102000F894DEBF0FBECDBFDF91CF911F910F911E
:10103000FF90EF90DF9008958F929F92AF92BF92B2
:10104000CF92DF92EF92FF920E946E056B017C01BE
:1010500060910301643008F063E070E07195619580
:101060007109072E000C880B990B0E94C51F9B016C
:10107000AC0160E070E080E291E40E94BB204B0193
:101080005C01C701B6010E94C31F20E034E244E7BF
:1010900059E40E941B1F9B01AC01C501B4010E94D1
:1010A0001B1F0E94FF1E0E94941F862FFF90EF902F
:1010B000DF90CF90BF90AF909F908F9008954F9208
:1010C0005F926F927F928F929F92AF92BF92CF92D8
:1010D000DF92EF92FF921F93CF93DF93982E5B01E5
:1010E000142FE9010E9408046B017C01F50199208D
:1010F00009F4BFC08081811124C0C0928F01D092B9
:101100009001E0929101F0929201C0928B01D092F5
:101110008C01E0928D01F0928E0181E08083812F1D
:10112000FE01DF91CF911F91FF90EF90DF90CF9064
:10113000BF90AF909F908F907F906F905F904F90F7
:10114000099480918F0190919001A0919101B091AB
:10115000920146015701881A990AAA0ABB0A80918E
:101160007002882309F468C0F8EE8F16F3E09F063A
:10117000A104B10408F450C00E941C08782E0E94FB
:101180006E059B01AC01A72DB0E00E940A230E94CE
:10119000C31F20E030E04AEF53E40E941B1F2B01E5
:1011A0003C01C501B401685E73408109910928EED4
:1011B00033E040E050E00E94C322CA01B9010E941E
:1011C000C31F23E333E343E35FE30E94931E9B01CA
:1011D000AC01C301B2010E941B1F0E94941F8090AA
:1011E0008B0190908C01A0908D01B0908E01A70191
:1011F0009601281939094A095B0949015A018616DD
:101200009706A806B90640F02091AB023091BA02C9
:101210003323F1F021111EC0DF91CF911F91FF9078
:10122000EF90DF90CF90BF90AF909F908F907F9086
:101230006F905F904F90089528EE821623E09206FB
:10124000A104B10448F360E570E080E090E0C7CF0E
:10125000222331F038EC83169104A104B104E0F2AA
:10126000C0928B01D0928C01E0928D01F0928E01A0
:1012700056CF1082D1CF7F928F929F92AF92BF9222
:10128000CF92DF92EF92FF920F931F93CF93DF9352
:101290004B015C01742E0E946E056B017C010E9463
:1012A000C31F8B01D82FC92F9401A5010E94B6201E
:1012B0001816A4F0AFEFBFE7A70196010E940A231A
:1012C0000E94C31F8B01D82FC92F9401A5010E9432
:1012D000161F87FD03C08401DA2DCB2D61E070E07D
:1012E00080E090E0772031F00E941C08682F70E0C9
:1012F00090E080E0A70196010E949F226B017C0193
:101300000E94C31F9B01AC01B8018D2F9C2F0E942E
:101310001B1F4B015C0120E030E0A9010E94B620B8
:1013200020E030E040E05FE387FD1AC0C501B40172
:101330000E94931E0E948D1F9B01AC01C701B60144
:101340000E949F22DF91CF911F910F91FF90EF900C
:10135000DF90CF90BF90AF909F908F907F90089537
:10136000C501B4010E94921EE5CF4F925F926F9229
:101370007F928F929F92AF92BF92CF92DF92EF9225
:10138000FF92CF93DF93C82F843009F4ABC28091D2
:10139000E6028D7F8093E60288600E949806C15025
:1013A000C73068F4EC2FF0E0E852F64F0C940423B9
:1013B000030A1C0A390A720C960CE60CFF0C0E94F8
:1013C0009E068FE894E00E945C078DE894E00E94FE
:1013D0005C0788E894E00E945C0761E080E00E947E
:1013E000470789E794E0DF91CF91FF90EF90DF907E
:1013F000CF90BF90AF909F908F907F906F905F90B5
:101400004F900C945C0780E00E94D30761E080E07D
:101410000E94470789E792E0DF91CF91FF90EF901C
:10142000DF90CF90BF90AF909F908F907F906F9004
:101430005F904F900C94D70580917002811107C086
:1014400061E00E94470784E794E00E945C0781E026
:101450000E94D307DF91CF91FF90EF90DF90CF9064
:10146000BF90AF909F908F907F906F905F904F90C4
:1014700008950E949E068091AC02882301F160E0ED
:1014800080E00E9447078AE694E00E945C0761E0E2
:1014900080E00E94470787E694E00E945C07809105
:1014A0009C02813049F028F08230A1F68BE494E070
:1014B0009ACF8AE594E097CF82E594E094CF80912B
:1014C0009D02811136C080919C028130E1F080F054
:1014D000823021F1833009F0BDCF8FEE93E00E947E
:1014E0005C0761E080E00E94470780EE93E07BCFDD
:1014F0008EE394E00E945C0761E080E00E94470771
:1015000081E394E070CF84E294E00E945C0761E0A4
:1015100080E00E94470787E194E065CF86E094E091
:101520000E945C0761E080E00E94470789EF93E03A
:101530005ACF813009F08DC080919C02813009F42E
:1015400063C070F0823009F085CF8DE793E00E9490
:101550005C0761E080E00E9447078EE693E043CF9E
:1015600081ED93E00E945C0761E080E00E94470704
:1015700080919B02882309F444C0E0910201F0E0CD
:10158000E656FE4FC08128E0C29FE0011124CD5DE8
:10159000DE4F688179818A819B8141E00E943B090D
:1015A0002B013C016C817D818E819F8141E00E94F5
:1015B0003B094B015C018EEC93E00E945C0730E438
:1015C000C32E32E4D32E3FE0E32EF12CC301B2014F
:1015D000A70196010E94E522CA01B9010E9476077F
:1015E0008CEC93E00E945C07C501B401A701960151
:1015F0000E94E522CA01B9010E94760787EC93E0B8
:10160000F2CE89EB93E0EFCE8FEA93E00E945C0785
:1016100061E080E00E94470780919B028823B1F03F
:101620008CEA93E00E945C076091030170E090E017
:1016300080E04AE00E94890580910301813019F021
:1016400089E993E0D0CE83EA93E0CDCE8BE893E0B6
:10165000CACE823009F008C180919C02823009F420
:1016600089C008F055C0882309F463C0813009F0AF
:10167000F1CE80E493E00E945C0761E080E00E948C
:10168000470780919B02882309F471C08DE393E0A2
:101690000E945C07E091020134E0E39FF001112415
:1016A000E55EFE4F608171818281938120E4C22ECC
:1016B00022E4D22E2FE0E22EF12CA70196010E9407
:1016C000C322CA01B9014AE00E9489058BE393E075
:1016D0000E945C07E091020144E0E49FF0011124C4
:1016E000E55EFE4F6081718182819381A701960141
:1016F0000E94C32220EA36E841E050E00E94C32263
:10170000CA01B9014AE00E94890586E393E06BCEE5
:10171000833009F451C0843009F09CCE88E992E00E
:101720000E945C0761E080E00E94470789E892E040
:101730005ACE82E693E00E945C0761E080E00E945E
:10174000470780919B02882379F08DE593E00E9402
:101750005C07E091D502F0E0E15AFE4F608170E055
:1017600090E080E040E16AC08FE493E03CCE88E204
:1017700093E039CE8CE193E00E945C0761E080E069
:101780000E94470780919B02882399F089E193E0AA
:101790000E945C0780910601882329F0813031F096
:1017A0008BE093E020CE84E193E01DCE86E093E0D1
:1017B0001ACE88EF92E017CE8BEE92E00E945C0783
:1017C00061E080E00E94470780919B02882309F432
:1017D00048C088EE92E00E945C07809178028111F7
:1017E0000DC08FED92E00E945C07C09108018DED65
:1017F00092E0C830E0F088ED92E0F5CD813069F4F8
:101800008DEC92E00E945C07C09101018BEC92E0AC
:10181000C83068F086EC92E0E6CD8BEB92E00E9457
:101820005C07C0910701C830C8F489EB92E00E94C0
:101830005C076C2F70E090E080E04AE0DF91CF9190
:10184000FF90EF90DF90CF90BF90AF909F908F90E0
:101850007F906F905F904F900C94890584EB92E09D
:10186000C2CD86EA92E0BFCD833009F0F3CD8091FE
:101870009C028130D1F070F0823009F0EBCD88E32A
:1018800092E00E945C0761E080E00E94470789E2E5
:1018900092E0A9CD8CE792E00E945C0761E080E0D5
:1018A0000E94470780E792E09ECD8FE592E00E947C
:1018B0005C0761E080E00E94470780919B028823DB
:1018C00071F08CE592E00E945C0780915E028111CC
:1018D00003C084E592E087CD88E592E084CD86E47C
:1018E00092E081CD61E080E00E9447078AE892E0C3
:1018F0000E94D70561E0809199010E94470780917D
:10190000E602982F92609093E6028A60DF91CF9171
:10191000FF90EF90DF90CF90BF90AF909F908F900F
:101920007F906F905F904F900C94980660E080E0FD
:101930000E9447078091B402882319F083E292E065
:1019400052CD0E940804C0909501D0909601E0907D
:101950009701F09098019B01AC012C193D094E09AB
:101960005F0969017A013AEFC316D104E104F10479
:1019700008F470CD60939501709396018093970160
:10198000909398018DE192E00E945C07C0919401D0
:1019900060E08C2F0E944707D091000187E192E020
:1019A000DD2311F08AE192E00E945C078FEFD111F4
:1019B00081E08C0F80939401882319F0833009F023
:1019C00049CD81E0D827D093000144CD80915F02BA
:1019D000882381F0DF91CF91FF90EF90DF90CF903F
:1019E000BF90AF909F908F907F906F905F904F903F
:1019F0000C949E0681E00E94B509C5E0C8CC61E068
:101A000086E00E94FA020E949E06C091550280E084
:101A100092E0CC2311F08AE092E00E945C0761E042
:101A200080E00E94470784EE91E0CC2309F4DBCCF0
:101A300083EF91E00E945C07E09109018CCE2F9228
:101A40003F924F925F926F927F928F929F92AF924E
:101A5000BF92CF92DF92EF92FF920F931F93CF939B
:101A6000DF9300D01F92CDB7DEB7D82EF62E042F0D
:101A7000E52E2B83862F880F89831AE088248A9489
:101A800085EE982E95ECC92EA22EB12C922F915056
:101A90009A83DD2009F4F0C00E94B1032B013C01C0
:101AA00080912102811165C0E1E0E0932102E09381
:101AB00023028092200210924502FA81F0934402A0
:101AC000E0934602809146029981892B80934602D9
:101AD00080912202813009F08BC0109222020E9474
:101AE000B1032B013C01809146028093BB008091A1
:101AF000500290915102A0915202B0915302892B51
:101B00008A2B8B2BA1F00E94B103209150023091BF
:101B1000510240915202509153026419750986098D
:101B20009709261737074807590708F443C08091DB
:101B3000BC0083FDD8CFC092BC000E94B1032B0132
:101B40003C0180912102813009F455C08091450209
:101B5000EB818E1708F071C080914502E4E2F2E05B
:101B6000ADEBB1E090E0981751F121912D939F5F7B
:101B7000FACF8091500290915102A0915202B091FF
:101B80005302892B8A2B8B2B09F48ACF0E94B10335
:101B900020915002309151024091520250915302D3
:101BA00064197509860997092617370748075907E1
:101BB00008F076CF80914F020E94C40480E010921A
:101BC0004E0280934D02FB81F81339C00983C02E69
:101BD000DE2C8C2D9981891BEB818E1708F007C1B3
:101BE00089EC92E00E94F504F60181936F01F1CF38
:101BF0009092BC00A2CF8091500290915102A0918E
:101C00005202B0915302892B8A2B8B2B09F499CF66
:101C10000E94B10320915002309151024091520232
:101C200050915302641975098609970926173707D9
:101C30004807590708F085CFBDCF8B818FCF62E36E
:101C400070E080E090E00E94D603115009F021CFAF
:101C50008091BA0281112FC160E085E00E94FA02F2
:101C600087E00E94B50983E00E94D102892B09F028
:101C700004C10E941404F7CFF1E0F093BC01F0928C
:101C8000930110924C0210924B028B81882339F001
:101C9000A501602F7E2D89EC92E00E940F05309007
:101CA0004B0290E281E0931508F499C020909301D3
:101CB0000E94B1032B013C0180912102811169C076
:101CC000E2E0E0932102F1E0F0932302809220020F
:101CD0001092450230924402ECE9F1E0A4E2B2E055
:101CE00038129CC01092460280914602220C282A8B
:101CF0002092460280912202813009F093C0109216
:101D000022020E94B1032B013C0180914602809384
:101D1000BB008091500290915102A0915202B0916B
:101D20005302892B8A2B8B2BA1F00E94B1032091A7
:101D30005002309151024091520250915302641965
:101D4000750986099709261737074807590708F4C0
:101D500041C08091BC0083FDD8CFC092BC000E94DE
:101D6000B1032B013C0180912102823009F45DC056
:101D7000809120028F3F09F47AC080912002803246
:101D800009F477C080912002803309F474C084E0A4
:101D900026C08091500290915102A0915202B091C0
:101DA0005302892B8A2B8B2B09F486CF0E94B10317
:101DB00020915002309151024091520250915302B1
:101DC00064197509860997092617370748075907BF
:101DD00008F072CF80914F020E94C40485E01092F7
:101DE0004C0210924B021092BC01811128CF81E06D
:101DF0000F900F900F90DF91CF911F910F91FF9057
:101E0000EF90DF90CF90BF90AF909F908F907F909A
:101E10006F905F904F903F902F90089591919D9378
:101E20008F5F5ECF9092BC009ACF809150029091CC
:101E30005102A0915202B0915302892B8A2B8B2B15
:101E400009F491CF0E94B1032091500230915102C8
:101E500040915202509153026419750986099709FD
:101E6000261737074807590708F07DCFB3CF80E022
:101E7000B6CF82E0B4CF83E0B2CF0E94140483E0F7
:101E80000E94D102892BC9F783E00E94D102892BDD
:101E900019F40E941404F8CF60E085E00E94FA0271
:101EA00088E198E00FB6F894A895809360000FBE83
:101EB00090936000FFCF80E09BCFCF92DF92EF92B4
:101EC000FF920E9408046B017C01809199018F3080
:101ED00068F11092AB021092990110929B0210923D
:101EE000AC0210929A0240E150E06AE872E089E7A1
:101EF00092E00E9455231092890283E00E94B50966
:101F00008EE5C80E81E0D81EE11CF11CC092A7022C
:101F1000D092A802E092A902F092AA0281E08093F6
:101F2000A602FF90EF90DF90CF9008958F5F80938F
:101F3000990184E0FF90EF90DF90CF900C94B50969
:101F4000E0919901F0E0E657FD4F2081022E000C50
:101F5000330B20523109A901480F511D87FD5A95B5
:101F6000CA01805A9F4F60E670E00E94AF22805EF7
:101F7000808384E00C94B50980919D02823081F4C5
:101F800080919C02833061F480917802823030F439
:101F90008F5F8093780283E00C94B50910927802E9
:101FA00010929B02F8CF80915E0291E08927809386
:101FB0005E0283E00C94B50980917802811111C012
:101FC00080910801883029F41092080183E00C9474
:101FD000B509873021F488E080930801F7CF8F5F3F
:101FE000FBCF813079F480910101883019F410928F
:101FF0000101ECCF873021F488E080930101E6CF26
:102000008F5FFBCF80910701883019F41092070190
:10201000DDCF873021F488E080930701D7CF8F5F31
:10202000FBCF80917802811110C080910801883027
:1020300031F487E08093080183E00C94B5098111A5
:1020400002C088E0F7CF8150F5CF813071F48091E4
:102050000101883021F487E080930101EDCF8111E7
:1020600002C088E0F9CF8150F7CF80910701883016
:1020700021F487E080930701DFCF811102C088E05F
:10208000F9CF8150F7CF80910601813029F4109269
:10209000060183E00C94B5098111FBCF82E08093A7
:1020A0000601F7CF80910601823029F410920601D3
:1020B00083E00C94B5098111FBCF81E08093060188
:1020C000F7CF81E08093020182E08093030183E0F7
:1020D0000C94B5091092020180910301833018F429
:1020E00083E08093030183E00C94B5098091D502CD
:1020F000833018F48F5F8093D50283E00C94B50988
:102100008091D502882319F081508093D50283E015
:102110000C94B50980910301282F30E090910201C1
:10212000992339F0223031053CF082E006C083E08B
:1021300004C023303105DCF78F5F8093030183E017
:102140000C94B50980910301882361F08150990BAB
:1021500020910201222359F022E030E028173907AC
:102160000CF4C9018093030183E00C94B50923E0CA
:1021700030E0F4CFE0910201F0E0E656FE4F8081BE
:10218000863028F48F5F808383E00C94B50980E06B
:10219000FACFE0910201F0E0E656FE4F80818823FD
:1021A00029F08150808383E00C94B50986E0FACF52
:1021B00090919D0280919C0291111DC0813079F017
:1021C00030F0823081F0833091F083E039C010929A
:1021D0008A0181E080939D0210929C02F6CF809349
:1021E0008A0182E0F7CF80938A0183E0F3CF81E018
:1021F0008093AC02F1CFE92FF0E0E55AFE4F208149
:102200002150330B8217130639F410929D028091EE
:102210008A0180939C02D9CF9330A1F4811112C01E
:102220001092990181E08093AB0240E150E069E7B0
:1022300072E08AE892E00E94552310929A0284E0AC
:102240000C94B50981E080939B02BFCF80919C02E2
:10225000823030F48F5F80939C0283E00C94B50948
:10226000089580919C02882331F0815080939C02D4
:1022700083E00C94B50908954F925F926F927F921C
:102280008F929F92AF92BF92CF92DF92EF92FF9286
:10229000CF93DF9300D000D000D0CDB7DEB78D83D1
:1022A000C0908601D0908701E0908801F09089016C
:1022B0008090820190908301A0908401B09085016C
:1022C000809170028823E9F180916C0290916D02F7
:1022D000A0916E02B0916F0289839A83AB83BC8315
:1022E0000E941C088E830E946E059B01AC01260192
:1022F0003701481859086A087B089E81A92FB0E069
:102300000E940A239B01AC0142165306640675061F
:1023100010F4A30192018D81A82F880FBB0B0E949E
:10232000152349805A806B807C80460E571E681E9C
:10233000791E40926C0250926D0260926E02709211
:102340006F0280916C0290916D02A0916E02B0912B
:102350006F0288159905AA05BB0550F1C816D90664
:10236000EA06FB0610F4D501C40180936C02909339
:102370006D02A0936E02B0936F0282E00E94B509D5
:1023800081E08093700226960FB6F894DEBF0FBEF0
:10239000CDBFDF91CF91FF90EF90DF90CF90BF90B6
:1023A000AF909F908F907F906F905F904F90089527
:1023B000D701C601DACF4F925F926F927F928F92D0
:1023C0009F92AF92BF92CF92DF92EF92FF920F93C4
:1023D0001F93CF93DF9300D000D0CDB7DEB78CE34F
:1023E00090E00E940006873008F082E080939A0116
:1023F0008DE390E00E940006873008F082E0809331
:102400009B01D09002010D2D10E0F801E656FE4F21
:10241000C08088E0C89E70011124F701ED5DFE4F79
:102420003F01608171818281938141E00E943B097B
:102430004B015C018092820190928301A092840101
:10244000B0928501F301648175818681978141E0B5
:102450000E943B092B013C0140928601509287016A
:102460006092880170928901F6E0FC1508F452C070
:1024700081E08D1508F44EC0000F111F000F111FD1
:10248000065A1F4F0E0D1F1D6E0195E0C90ED11C7F
:10249000FE0131967F010E1B1F0BC8018E0D9F1D83
:1024A0000E94451EF70181937F01EC15FD05A9F7F8
:1024B00069817A818B819C81681579058A059B05E4
:1024C00060F0461657066806790638F00E94C51F68
:1024D00040E00E943B094B015C0180926C029092AB
:1024E0006D02A0926E02B0926F020F900F900F904B
:1024F0000F90DF91CF911F910F91FF90EF90DF90A0
:10250000CF90BF90AF909F908F907F906F905F9093
:102510004F90089560E070E0CB01CECFFF920F9313
:102520001F93CF93DF93EC01F62E08811981C80128
:102530000E94451EF81621F06F2DC8010E944D1E05
:10254000CE01DF91CF911F910F91FF900895CF930E
:10255000DF9300D0CDB7DEB79A838983CE01019691
:102560000E948E120F900F90DF91CF91089560918D
:102570000801683008F068E086E590E00E94A71244
:1025800060910101683008F068E087E590E00E9402
:10259000A71260910701683008F068E088E590E0D4
:1025A0000C94A712CF93DF9386E490E00E9400067C
:1025B000C82F811181E08093020188E290E00E949F
:1025C0000006843068F490E022E030E0C11102C0DF
:1025D00023E030E0281739070CF4C9018093030188
:1025E0000E94DB1180E590E00E940006843008F034
:1025F00081E08093090182E390E00E94000683302D
:1026000008F081E08093060186E590E00E940006D4
:10261000C82F87E590E00E940006D82F88E590E05B
:102620000E940006CF3FB1F5DF3FB1F58F3FA1F526
:102630000E94B71289E792E00E94E4058091890226
:1026400010928902E9E7F2E09191903234F092E041
:10265000E938F907C9F7882381F040E150E06AE0E2
:1026600071E089E792E00E94552344E050E060E287
:1026700070E085E892E00E9440238EE190E00E94A5
:10268000000691E0811101C090E090935E02DF911D
:10269000CF910895C83008F0C8E0C0930801D83041
:1026A00008F0D8E0D0930101883008F088E08093EA
:1026B0000701C0CF0E94D21260916C0270916D022E
:1026C00080916E0290916F020E94C51F41E00E94AE
:1026D0003B0960936C0270936D0280936E0290933D
:1026E0006F021092AC021092BA0210929D0281E029
:1026F0000C94B5098F929F92AF92BF92CF92DF92C6
:10270000EF92FF920F931F93CF93DF93CDB7DEB776
:102710002A970FB6F894DEBF0FBECDBF60916C0252
:1027200070916D0280916E0290916F020E94C51FA0
:1027300041E00E943B096B017C01C0926C02D09287
:102740006D02E0926E02F0926F02809168029091A9
:102750006902A0916A02B0916B02C816D906EA0616
:10276000FB0629F48091BA02882309F486C00E94EE
:102770006E059B01AC01C701B6010E94C3223D83D7
:102780002E8380910601823009F48AC08EEC8F83FB
:102790009091010180E0983028F481E001C0880F19
:1027A0009A95EAF788877E0185E0E80EF11CE091B2
:1027B0000901F0E0E15AFE4F24E0A701608180E0CA
:1027C0000E941F0D882309F458C040916C0250915B
:1027D0006D0260916E0270916F0230910201032FC1
:1027E00010E0F801E656FE4F208149835A836B833F
:1027F0007C83273078F5323068F5809068029090BD
:102800006902A0906A02B0906B02481559056A05EA
:102810007B0501F1000F111F000F111F065A1F4FFA
:1028200098E0299F90011124020F131FFE01319699
:102830006F010E1B1F0BC8018C0D9D1D9A87898788
:10284000F60161916F01CE0109960E948E12CE149D
:10285000DF0489F780916C0290916D02A0916E0265
:10286000B0916F028093680290936902A0936A020C
:10287000B0936B0281E08093B5022A960FB6F8946C
:10288000DEBF0FBECDBFDF91CF911F910F91FF90A3
:10289000EF90DF90CF90BF90AF909F908F90089572
:1028A0008FEC75CFCF92DF92EF92FF920F931F9331
:1028B000CF93DF93CDB7DEB763970FB6F894DEBF43
:1028C0000FBECDBF80919C028111B4C08091AB023C
:1028D000811137C040E150E06AE872E089E792E098
:1028E0000E9455231092890289E7E82E82E0F82E93
:1028F00089E892E0F701219120320CF4ABC08E17E9
:102900009F07C9F7CE0101960E94E40541E150E01E
:10291000BE016F5F7F4F89E792E00E944723892BBA
:1029200081F00AE010E01B8B0A8BF70161917F01B7
:10293000CE0142960E948E120F5F1F4F0B31110580
:1029400091F710910901E091D5021E1789F0F0E08E
:10295000E15AFE4F20E050E040E0608180E00E94BC
:102960001F0D882309F445C08091D5028093090189
:1029700060919A018CE390E00E94A71260919B0104
:102980008DE390E00E94A7126091030188E290E03D
:102990000E94A7126091090180E590E00E94A712B1
:1029A0006091020186E490E00E94A7126091060106
:1029B00082E390E00E94A7120E94B71260915E022B
:1029C0008EE190E00E94A7120E94DB110E947A1310
:1029D0000E945A1363960FB6F894DEBF0FBECDBFA8
:1029E000DF91CF911F910F91FF90EF90DF90CF90EB
:1029F00008951093090181E08093550287E00E94B9
:102A0000B509109255020E9408046B017C010E94D6
:102A100008046C197D098E099F09643C7940810581
:102A2000910518F40E941404F2CF60E085E00E9442
:102A3000FA029ECF813031F40E945A1385E00E9441
:102A4000B509C8CF823031F61092AC0210929C02C8
:102A500083E0F5CF40E150E06AE071E089E792E081
:102A60000E94552344E050E060E270E085E892E087
:102A70000E94402347CF1F920F920FB60F9211244E
:102A80002F933F938F939F93AF93BF938091BC02FB
:102A90009091BD02A091BE02B091BF023091BB02E5
:102AA00023E0230F2D3758F50196A11DB11D20936A
:102AB000BB028093BC029093BD02A093BE02B09370
:102AC000BF028091C0029091C102A091C202B09158
:102AD000C3020196A11DB11D8093C0029093C10253
:102AE000A093C202B093C302BF91AF919F918F9107
:102AF0003F912F910F900FBE0F901F90189526E8D1
:102B0000230F0296A11DB11DD2CF1F920F920FB6B7
:102B10000F9211242F933F934F935F936F937F9363
:102B20008F939F93AF93BF93EF93FF938091B900DF
:102B3000887F803609F44AC0F0F5883209F4A7C0CE
:102B400018F5803109F49BC0B8F4882309F4F9C062
:102B5000883009F494C0FF91EF91BF91AF919F919C
:102B60008F917F916F915F914F913F912F910F9036
:102B70000FBE0F901F901895883109F488C08032DD
:102B800051F78093200214C0803409F49DC040F4B2
:102B90008033B9F38833F9F68093200285ECB0C016
:102BA000803509F485C0883509F496C0883499F6D3
:102BB0000E949B07D0CF883909F48CC038F588373C
:102BC00029F050F4883611F0803729F683E080939D
:102BD000210210921F0257C0883809F47BC0803947
:102BE00019F0803809F0B7CF80911F02803208F0C9
:102BF00071C0E0911F0281E08E0F80931F028091CF
:102C0000BB00F0E0E150FE4F80833DC0803B39F0D7
:102C1000E0F4803A09F479C0883A09F09CCF84E066
:102C2000809321021092FE011092FD01E091490271
:102C3000F0914A0209958091FD0181110FC081E058
:102C40008093FD011092DD0109C0803C09F4A6CFFC
:102C5000883C09F4A3CF883B09F07DCFE091FE01C9
:102C600081E08E0F8093FE01F0E0E352FE4F808101
:102C70008093BB009091FE018091FD0129C080915D
:102C800046028093BB0085EC8093BC0064CF90919A
:102C9000450280914402981758F5E091450281E081
:102CA0008E0F80934502F0E0EC5DFD4F8081E9CF0F
:102CB000E091450281E08E0F809345028091BB0038
:102CC000F0E0EC5DFD4F80839091450280914402DD
:102CD0009817C8F285E8D8CFE091450281E08E0FC1
:102CE000809345028091BB00F0E0EC5DFD4F808356
:102CF0008091230281115CCF81E08093220284EADB
:102D00008093BC001092210226CF85EC8093BC00FA
:102D10001092210280911F02803230F4E0911F0254
:102D2000F0E0E150FE4F108260911F0270E0E091F0
:102D30004702F09148028FEF91E0099510921F022F
:102D40000ACF1092200234CFE9ECF2E01382128213
:102D500088EE93E0A0E0B0E084839583A683B783F8
:102D600087E691E091838083E6EDF2E013821282A0
:102D700089E791E09183808388E084838FEF858366
:102D800089E086838AE087838BE080878CE0818777
:102D90008DE082871386148615861686178681E055
:102DA0000E94A606809109018093D5020895CF93D1
:102DB000DF9300D000D000D01F92CDB7DEB778945B
:102DC00084B5826084BD84B5816084BD85B5826030
:102DD00085BD85B5816085BD80916E0081608093E1
:102DE0006E0010928100809181008260809381004A
:102DF000809181008160809381008091800081605A
:102E0000809380008091B10084608093B1008091B4
:102E1000B00081608093B00080917A0084608093DC
:102E20007A0080917A00826080937A0080917A00A3
:102E3000816080937A0080917A00806880937A0024
:102E40001092C10062E082E00E94280362E083E009
:102E50000E94280362E084E00E94280361E085E08C
:102E60000E94280361E085E00E94280361E086E07B
:102E70000E94280310924E0210924D0210924C02B2
:102E800010924B020E94A6048FE494E090934A02B1
:102E90008093490280E594E0909348028093470232
:102EA00082EF8093B8001092540288E893E1A0E08A
:102EB000B0E08093500290935102A0935202B093DD
:102EC000530211E010934F0282E00E94A6068FEF9A
:102ED00090E00E94590380E00E94B50964EC79E01B
:102EE00080E090E00E94D60383E00E94D102892B0B
:102EF000A1F41093090161E080E590E00E94A7121F
:102F00001093550287E00E94B5091092550264ECB7
:102F100079E080E090E00E94D6030E94D2120E94E5
:102F20007A1381E00E94B50985E00E94B509AA24C0
:102F3000A394B12C90E0892E90E0992E11E02224E8
:102F40002A940E9408046B017C0182E00E94D10255
:102F500033243394892B09F0312C3092B30283E06F
:102F60000E94D10201E0892B09F000E00093B10238
:102F700084E00E94D10221E0892B09F020E0209317
:102F8000B202432C400E5524551CC201820F911DE4
:102F900002970CF463C11092B2021092B102109227
:102FA000B302C0925602D0925702E0925802F092B9
:102FB000590280917002811108C08091BA0281117A
:102FC00004C08091B402811163C110926402109216
:102FD000650210926602109267028091BA02811116
:102FE0005CC03090B30231100CC08091B1028111ED
:102FF00008C08091B202811104C080910501811145
:103000004CC00E9408046B017C012CE331E14FEFBE
:1030100067E772E0832D0E945F082CE331E141E015
:1030200066E772E08091B2020E945F088091B3026D
:10303000811104C08091B202882351F0C0927102C4
:10304000D0927202E0927302F09274021092050123
:1030500080917002882309F416C28091B1028823FE
:1030600009F411C20E9408046B017C010E947A13CA
:10307000109270029EE5C90E91E0D91EE11CF11C70
:10308000C092A702D092A802E092A902F092AA02EE
:1030900081E00E94B509109305010E9408046B01AC
:1030A0007C018091B302811108C09091B20291110C
:1030B00004C09091B102992341F0C092AD02D09228
:1030C000AE02E092AF02F092B0022091BA02222347
:1030D00009F404C29091AC02911100C24090AD027B
:1030E0005090AE026090AF027090B002B701A6019E
:1030F000441955096609770941325E446105710535
:1031000008F4ECC11092AB020E945A1385E00E94B1
:10311000B509AEE5CA0EA1E0DA1EE11CF11CC092B1
:10312000A702D092A802E092A902F092AA021093FC
:10313000A6028091B502882309F458C0E0910901E4
:10314000F0E0E15AFE4F21E0AE014D5F5F4F60813C
:1031500081E00E941F0D882309F448C08B8186FB03
:10316000882780F98093B4028091BA02811103C04C
:1031700085E00E94B5098091B402882391F1809185
:103180000801883008F0C0C27A2D01C0770F8A95F7
:10319000EAF7872F90910701983030F4950101C02C
:1031A000220F9A95EAF7822B20910601213009F42B
:1031B000ADC291E0223009F090E02EE8922B998385
:1031C0008A83E0910901F0E0E15AFE4F22E0AE016E
:1031D0004F5F5F4F608180E00E941F0D8111109250
:1031E000B5026091B40285E00E94FA028091BA02B1
:1031F00081112DC00E940804C090B602D090B70281
:10320000E090B802F090B9022B013C014C185D0827
:103210006E087F087301620120EDC21627E0D20616
:10322000E104F104A0F06093B6027093B7028093BA
:10323000B8029093B902E0910901F0E0E15AFE4F23
:1032400020E050E040E0608180E00E941F0D81148A
:10325000910409F476CE0E94000071CE809156024E
:1032600090915702A0915802B0915902C81AD90AF8
:10327000EA0AFB0A22E3C216D104E104F10408F0D1
:1032800098CE1092B2021092B1021092B30291CE77
:103290000E9408046B017C01809164029091650298
:1032A000A0916602B0916702892B8A2B8B2BB9F40F
:1032B00083E00E94D102892B51F482E00E94D10266
:1032C000892B29F084E00E94D102892B89F7C092D2
:1032D0006402D0926502E0926602F0926702209149
:1032E000B102222309F4BCC04091600250916102F6
:1032F000609162027091630241155105610571058B
:1033000009F08DC0C0926002D0926102E092620228
:10331000F09263029091B302911106C0211104C092
:103320008091B202882389F1209204018FEF90E00E
:103330000E94590380915F028823F9F010925F0286
:1033400086E00E94B5098091B30202E0811106C0B7
:103350008091B20204E0811101C003E0802F0E943D
:10336000D102892BD9F3033009F488C0043009F461
:1033700080C0109277021092B302C0926402D09281
:103380006502E0926602F092670280915E028823F5
:1033900009F423CE8091640290916502A0916602A7
:1033A000B091670226013701481A590A6A0A7B0A56
:1033B000D301C201853C9940A105B10508F40DCEA9
:1033C00080915F02811109CE209104012F3108F410
:1033D00004CE40915A0250915B0260915C02709160
:1033E0005D02D701C601841B950BA60BB70BAC0180
:1033F000BD01473051056105710508F4EECD8FEF31
:10340000820F8093040190E00E945903C0925A02F7
:10341000D0925B02E0925C02F0925D02DECDD701B9
:10342000C601841B950BA60BB70BAC01BD014D3D2E
:1034300055406105710508F46DCF90915F029111BF
:1034400069CF90E080E00E94590310935F0286E00C
:103450000E94B50983E00E94D102892BD9F3BDCD2A
:103460001092600210926102109262021092630246
:1034700051CF109276021092B2027FCF1092750255
:103480001092B1027ACF8091710290917202A09154
:103490007302B0917402C81AD90AEA0AFB0AA9E8B1
:1034A000CA16A3E1DA06E104F10408F4F6CD10929D
:1034B0007002809105018111F0CD80916802909198
:1034C0006902A0916A02B0916B0280936C029093A2
:1034D0006D02A0936E02B0936F02DACD9091A602B6
:1034E000992339F08091B102811123CE1092A60266
:1034F00020CE9091AB0221112BC091111ACE809158
:10350000A7029091A802A091A902B091AA02C816A0
:10351000D906EA06FB0608F40CCE8091A20290912F
:10352000A302A091A402B091A5022091B10222238E
:1035300009F4EFC0892B8A2B8B2B09F0FACDC092AE
:10354000A202D092A302E092A402F092A502F1CDD1
:103550009923D1F020EA3FE04FEF67E772E00E9445
:103560005F0820EA3FE041E066E772E08091B20246
:103570000E945F082DE53FE040E065E772E0809142
:10358000B1020E945F08D5CD9091AC02992399F0C9
:1035900021E331E14FEF67E772E00E945F0826E226
:1035A00031E141E066E772E08091B2020E945F087B
:1035B00022E534E1E1CFE0919D0290919B029111CF
:1035C00037C0F0E0E55AFE4FF080882359F1809132
:1035D000770281110CC01093770280919C0288239E
:1035E00019F0815080939C0283E00E94B50980917C
:1035F000B2028823D1F080917602811110C010931D
:10360000760280919C026F2D6150770B861717060A
:103610001CF48F5F80939C0283E00E94B50928ED23
:1036200030E1AACF10927702E2CF10927602F7CF64
:10363000E13021F590919C02992329F09130A1F07D
:103640002CEB3FE099CF29EC30E14FEF67E772E0D8
:103650000E945F082AEB30E141E066E772E080916A
:10366000B2020E945F08ECCF22EA30E14FEF67E739
:1036700072E00E945F082AE830E1EECFE23089F57F
:1036800090919C029130C9F070F0923001F193302A
:10369000B9F621E130E14FEF67E772E00E945F0881
:1036A0002CED3FE0D9CF20E830E14FEF67E772E043
:1036B0000E945F0826E730E1CFCF2AE630E14FEFE6
:1036C00067E772E00E945F0821E630E1C5CF22E59E
:1036D00030E14FEF67E772E00E945F0823E430E1DA
:1036E000BBCFE33009F0ACCF90919C02913009F050
:1036F000A7CF23ED3FE040E067E772E00E945F085C
:1037000023ED3FE040E0A9CF80E044CD2EEC90E0F7
:1037100055CD0097A105B10509F40BCD1092A20279
:103720001092A3021092A4021092A5022601370162
:10373000481A590A6A0A7B0AD301C2018E359140A0
:10374000A105B10508F0F5CC80919E0290919F02F1
:10375000A091A002B091A1024EEC5FEF6FEF7FEF5E
:10376000481B590B6A0B7B0BDB01CA018C0D9D1D9D
:10377000AE1DBF1DC0929E02D0929F02E092A00299
:10378000F092A1028C329140A105B10508F0D1CC94
:103790001093BA0210929D0210929C0210929B020A
:1037A0001092AC02809109018093D50240E150E073
:1037B00069E772E08AE892E00E94552310929A022B
:1037C0001092780283E00E94B5091093A602C0927D
:1037D000AD02D092AE02E092AF02F092B002A9CC5C
:1037E000EF920F931F93CF93DF93E80134E047FDEF
:1037F00034E1042E000C550B57FF03C05195419541
:103800005109E32E022F242FAE010E940E1CCE017F
:10381000DF91CF911F910F91EF900895A9E0B0E053
:10382000E4E1FCE10C94611E6A01F22EB02E102F2F
:10383000FBE3AF2EA01608F41BE31F5F012F27E068
:10384000AE014F5F5F4F0E946D1DBC018981982FB3
:103850009970913009F43FC09BE2E1FC04C09E2DB9
:103860009170E0FC3AC05E2D5071E82FE87083FF44
:1038700046C084E0911101C083E0EF2DE81B8F1555
:1038800008F0E0E0D6018E2F20E2552351F1992374
:1038900029F0D6019C93C60101966C0196012D5F1B
:1038A0003F4FE2FE24C08EE4D6018C9391E4119642
:1038B0009C93119712968C93D9018E2F90E28111CF
:1038C0001BC0E20FF32FF11D10828EEF9FEF2996A0
:1038D000ECE00C947D1E9DE2C6CF90E2C4CF2D9308
:1038E00081508111FCCFCE0ED11CE0E0D0CF8EE60E
:1038F000D6018C9391E6DBCF9D938150E0CF482F8A
:10390000447082FF3DC084E0911101C083E08F15B7
:1039100010F4EF2DE81BD6018E2F20E2552309F17C
:10392000992329F0D6019C93C60101966C0196015A
:103930002D5F3F4FE2FE1BC089E4D6018C938EE4DD
:1039400011968C93119786E412968C93D9018E2F41
:1039500090E2882309F4B5CF9D938150FACF2D933F
:1039600081508111FCCFCE0ED11CE0E0D9CF89E689
:10397000D6018C938EE611968C93119786E6E4CF50
:103980009B0177FF02C030E020E0A1E0B0E09111A0
:1039900002C0B0E0A0E0F9013196AE0FBF1F8B2C42
:1039A000912CBB2009F461C05401EFEFAE1ABE0A9E
:1039B000AA0DBB1DFA161B0619F014F04F2D4A1B59
:1039C000511188C0E3FC59C07601A42FB0E2A111C7
:1039D0004FC0C40ED11C992309F45BC040E0D6014E
:1039E0001196F60190836D01552309F448C0012F0B
:1039F000060F9A81582F507184FF03C0913309F448
:103A0000015010160CF047C0093008F008E0EEE253
:103A1000FE2E5B01A01AB108850191948194910852
:103A20002F3F320729F4D601FC92F60131966F013F
:103A30006217730794F1021713077CF5DB01A21BD1
:103A4000B30BAA24A394B12CAC0EBD1EAA0DBB1DB2
:103A500011968C9121503109D601119628153905FE
:103A6000F4F0F60180836D01DBCFB12CA12CA0CF47
:103A7000F701B1937F01A150AACF9111B0CFD60128
:103A8000942F50E302C05D9391509111FCCFC40E6E
:103A9000D11C40E0ACCF01E0BACF80E3DBCF6217AE
:103AA000730731F4963388F4953311F4552369F094
:103AB000F6018083FD01842F90E2811108C0A40FDC
:103AC000B11D1C9290E080E002CF81E3F1CF919391
:103AD0008150F3CF911183CF8ACF283008F027E0AF
:103AE0003327DA01990F311D87FD9160009661053A
:103AF000710539F432602E5F3D9330E32A95E1F78A
:103B000008959F3F30F080387105610509F03C5FF2
:103B10003C5F3D93913008F08068911DDF93CF9317
:103B20001F930F93FF92EF92192F987F9695E92F8D
:103B300096959695E90FFF27EC5BFE4F9927332763
:103B4000EE24FF24A701E70105900894079428F4C8
:103B5000360FE71EF81E491F511D660F771F881F7D
:103B6000991F0694A1F70590079428F4E70EF81E14
:103B7000491F561FC11D770F881F991F661F069486
:103B8000A1F70590079428F4F80E491F561FC71F88
:103B9000D11D880F991F661F771F0694A1F7059006
:103BA000079420F4490F561FC71FD81F990F661F8F
:103BB000771F881F0694A9F784911095177041F01C
:103BC000D695C79557954795F794E7941A95C1F7F9
:103BD000EAEEF0E068941590159135916591959114
:103BE00005907FE27395E118F10A430B560BC90B60
:103BF000D009C0F7E10CF11E431F561FC91FD01D8D
:103C00007EF4703311F48A95E6CFE894015030F0D9
:103C1000080F0AF40027021708F4202F2395022F1B
:103C20007A3328F079E37D932A95E9F710C07D93E4
:103C30002A9589F606949795679537951795179461
:103C4000E118F10A430B560BC90BD00998F02395E4
:103C50007E9173957A3308F070E37C932013B8F764
:103C60007E9170617D9330F0839571E37D9370E375
:103C70002A95E1F71124EF90FF900F911F91CF91BA
:103C8000DF91992787FD90950895F999FECF92BD10
:103C900081BDF89A992780B50895262FF999FECF0E
:103CA0001FBA92BD81BD20BD0FB6F894FA9AF99A59
:103CB0000FBE019608952F923F924F925F926F929E
:103CC0007F928F929F92AF92BF92CF92DF92EF92AC
:103CD000FF920F931F93CF93DF93CDB7DEB7CA1B2D
:103CE000DB0B0FB6F894DEBF0FBECDBF09942A8858
:103CF000398848885F846E847D848C849B84AA8400
:103D0000B984C884DF80EE80FD800C811B81AA818C
:103D1000B981CE0FD11D0FB6F894DEBF0FBECDBF57
:103D2000ED0108955058BB27AA270E94AA1E0C94A3
:103D300064200E94562038F00E945D2020F039F463
:103D40009F3F19F426F40C9453200EF4E095E7FB02
:103D50000C942420E92F0E94752058F3BA176207AB
:103D600073078407950720F079F4A6F50C94AF202B
:103D70000EF4E0950B2EBA2FA02D0B01B901900186
:103D80000C01CA01A0011124FF27591B99F0593FCA
:103D900050F4503E68F11A16F040A22F232F342F12
:103DA0004427585FF3CF469537952795A795F04060
:103DB0005395C9F77EF41F16BA0B620B730B840B75
:103DC000BAF09150A1F0FF0FBB1F661F771F881F2D
:103DD000C2F70EC0BA0F621F731F841F48F4879585
:103DE00077956795B795F7959E3F08F0B0CF939577
:103DF000880F08F09927EE0F9795879508950E94F0
:103E0000972090F09F3748F4911116F40C94B0204D
:103E100060E070E080E89FE3089526F01B16611DC6
:103E2000711D811D0C942A200C9445200E940020B5
:103E300008F481E008950E942F1F0C9464200E94D2
:103E40005D2058F00E94562040F029F45F3F29F091
:103E50000C94242051110C94B0200C9453200E94F7
:103E6000752068F39923B1F3552391F3951B550BF6
:103E7000BB27AA2762177307840738F09F5F5F4F3D
:103E8000220F331F441FAA1FA9F335D00E2E3AF07C
:103E9000E0E832D091505040E695001CCAF72BD094
:103EA000FE2F29D0660F771F881FBB1F26173707E5
:103EB0004807AB07B0E809F0BB0B802DBF01FF2717
:103EC00093585F4F3AF09E3F510578F00C942420B0
:103ED0000C94B0205F3FE4F3983ED4F38695779539
:103EE0006795B795F7959F5FC9F7880F911D9695D0
:103EF000879597F90895E1E0660F771F881FBB1F2C
:103F0000621773078407BA0720F0621B730B840BD8
:103F1000BA0BEE1F88F7E09508950E94941F6894ED
:103F2000B1110C94B02008950E947D2088F09F5715
:103F300098F0B92F9927B751B0F0E1F0660F771FCD
:103F4000881F991F1AF0BA95C9F714C0B13091F0C3
:103F50000E94AF20B1E008950C94AF20672F782F16
:103F60008827B85F39F0B93FCCF386957795679588
:103F7000B395D9F73EF490958095709561957F4FF4
:103F80008F4F9F4F0895E89409C097FB3EF490959A
:103F90008095709561957F4F8F4F9F4F9923A9F022
:103FA000F92F96E9BB279395F695879577956795B1
:103FB000B795F111F8CFFAF4BB0F11F460FF1BC0F5
:103FC0006F5F7F4F8F4F9F4F16C0882311F096E988
:103FD00011C0772321F09EE8872F762F05C0662336
:103FE00071F096E8862F70E060E02AF09A95660FEF
:103FF000771F881FDAF7880F9695879597F90895A8
:10400000990F0008550FAA0BE0E8FEEF16161706E9
:10401000E807F907C0F012161306E407F50798F051
:10402000621B730B840B950B39F40A2661F0232B6A
:10403000242B252B21F408950A2609F4A140A695E6
:104040008FEF811D811D089597F99F6780E870E0CB
:1040500060E00895882371F4772321F09850872B2E
:10406000762F07C0662311F499270DC09051862B37
:1040700070E060E02AF09A95660F771F881FDAF7E4
:10408000880F9695879597F908959F3F31F0915045
:1040900020F4879577956795B795880F911D96952C
:1040A000879597F908959FEF80EC089500240A946E
:1040B0001616170618060906089500240A94121603
:1040C0001306140605060895092E0394000C11F436
:1040D000882352F0BB0F40F4BF2B11F460FF04C0E3
:1040E0006F5F7F4F8F4F9F4F089557FD9058440F3C
:1040F000551F59F05F3F71F04795880F97FB991F47
:1041000061F09F3F79F08795089512161306140603
:10411000551FF2CF4695F1DF08C016161706180690
:10412000991FF1CF869571056105089408950E9445
:104130007D20A0F0BEE7B91788F4BB279F3860F454
:104140001616B11D672F782F8827985FF7CF8695B1
:1041500077956795B11D93959639C8F30895E894BE
:10416000BB2766277727CB0197F908950E94002087
:1041700008F48FEF0895FA01EE0FFF1F3096210526
:104180003105A1F16115710561F48038BFE39B072A
:1041900049F168949038810561F08038BFEF9B0742
:1041A00041F099234AF5FF3FE1053105210519F159
:1041B000E8940894E795D901AA2329F4AB2FBE2FE0
:1041C000F85FD0F310C0FF5F70F4A695E0F7F73901
:1041D00050F019F0FF3A38F49F779F930DD00F906D
:1041E00007FC9058089546F00C94532060E070E06E
:1041F00080E89FE308954FE79F775F934F933F9346
:104200002F930E94B6212F913F914F915F910E9471
:1042100032220C94132129F416F00C9424200C94CF
:10422000AF200C9453200E947D20A8F39638A0F76D
:1042300007F80F92E8942BE33AEA48EB5FE70E9415
:1042400048220F920F920F924DB75EB70F920E94C5
:10425000FE21E8E6F0E00E9445214F915F91EF9149
:10426000FF91E595EE1FFF1F49F0FE57E0684427D8
:10427000EE0F441FFA95E1F74195550B0E94782106
:104280000F9007FE0C946C210895DF93CF931F933A
:104290000F93FF92EF92DF927B018C01689406C02E
:1042A000DA2EEF010E944522FE01E894A5912591A6
:1042B000359145915591A6F3EF010E94AA1EFE018A
:1042C0009701A801DA9469F7DF90EF90FF900F91C2
:1042D0001F91CF91DF9108959B01AC0160E070E0E8
:1042E00080E89FE30C941B1F0C9424200C94452021
:1042F0000E947D20D8F39923C9F3940F511DA3F395
:104300009150504094F059F0882332F0660F771F97
:10431000881F91505040C1F79E3F51052CF7880FE0
:10432000911D9695879597F908955F3FACF0983E5B
:104330009CF0BB27869577956795B79508F4B16093
:104340009395C1F7BB0F58F711F460FFE8CF6F5F8B
:104350007F4F8F4F9F4FE3CF0C94B02016F00C94FB
:1043600045200C94532068940C9424200E947D20B6
:10437000A8F39923C1F3AEF3DF93CF931F930F9369
:10438000FF92C92FDD2788232AF02197660F771F18
:10439000881FDAF720E030E040E85FEB9FE38839E0
:1043A00020F0803E38F021968F770E94931EE0E93E
:1043B000F0E004C00E94931EEDEBF0E00E94452166
:1043C0008B01BE01EC01FB2E6F5771097595771FAC
:1043D000880B990B0E94C51F28E132E741E35FE398
:1043E0000E944522AF2D9801AE01FF900F911F91C1
:1043F000CF91DF910E94AA1E0C946420FA01DC0187
:10440000AA0FBB1F9B01AC01BF5728F422273327FB
:104410004427507820C0B75190F4AB2F0024469524
:1044200037952795011CA395D2F3002071F0220F38
:10443000331F441FB395DAF30ED00C94921E6130F3
:104440007105A0E88A07B94630F49B01AC016627E4
:10445000772788279078309621F020833183428314
:10446000538308950E9445220C9464200E94562094
:1044700038F00E945D2020F0952311F00C94242048
:104480000C94532011240C94B0200E94752070F3DA
:10449000959FC1F3950F50E0551F629FF001729FE9
:1044A000BB27F00DB11D639FAA27F00DB11DAA1FF8
:1044B000649F6627B00DA11D661F829F2227B00D45
:1044C000A11D621F739FB00DA11D621F839FA00DD0
:1044D000611D221F749F3327A00D611D231F849F20
:1044E000600D211D822F762F6A2F11249F57504077
:1044F0009AF0F1F088234AF0EE0FFF1FBB1F661FF2
:10450000771F881F91505040A9F79E3F510580F0BA
:104510000C9424200C94B0205F3FE4F3983ED4F335
:10452000869577956795B795F795E7959F5FC1F75E
:10453000FE2B880F911D9695879597F90895DB01BD
:104540008F939F930E940A23BF91AF91A29F800DEA
:10455000911DA39F900DB29F900D1124089597FB7C
:10456000072E16F4009407D077FD09D00E941D2372
:1045700007FC05D03EF4909581959F4F0895709566
:1045800061957F4F0895A1E21A2EAA1BBB1BFD0166
:104590000DC0AA1FBB1FEE1FFF1FA217B307E40722
:1045A000F50720F0A21BB30BE40BF50B661F771F7A
:1045B000881F991F1A9469F760957095809590955A
:1045C0009B01AC01BD01CF010895052E97FB1EF4A0
:1045D00000940E94FC2257FD07D00E94C32207FCD2
:1045E00003D04EF40C94FC225095409530952195C3
:1045F0003F4F4F4F5F4F089590958095709561950F
:104600007F4F8F4F9F4F0895EE0FFF1F0590F4913E
:10461000E02D09940E943123A59F900DB49F900D29
:10462000A49F800D911D11240895B7FF0C940A23B7
:104630000E940A23821B930B0895AA1BBB1B51E106
:1046400007C0AA1FBB1FA617B70710F0A61BB70B02
:10465000881F991F5A95A9F780959095BC01CD01A7
:104660000895A29FB001B39FC001A39F700D811D4B
:104670001124911DB29F700D811D1124911D08956B
:10468000DC0101C06D9341505040E0F70895FB01FB
:10469000DC014150504030F08D910190801919F4A7
:1046A0000020B9F7881B990B0895FB01DC014150EC
:1046B000504048F001900D920020C9F701C01D92B2
:0C46C00041505040E0F70895F894FFCFFF
:1046CC0001060102FF010102050153746174696F57
:1046DC006E204E616D650000000000006A1800003D
:1046EC00D43000D0017B4CD0248D4C60F5904CB86C
:1046FC0032B54C78F0A54C60FECD4C4054094DD0F1
:10470C00240D4D8845C84DA493D64D0C1DE04D4E3F
:10471C00844D4E0024744CDAF89A4E040305036061
:10472C00616263000000003C050F056B05E50408A1
:10473C0005F504E60400000000560751046B057EE5
:02474C00040067
:00000001FF
