:100000000C9420010C9448010C9448010C94480174
:100010000C9448010C9448010C9448010C9448013C
:100020000C9448010C9448010C9448010C9448012C
:100030000C9448010C9448010C9448010C9448011C
:100040000C9452130C9448010C9448010C944801F0
:100050000C9448010C9448010C9448010C944801FC
:100060000C949C130C94480107634236B79BD8A7A5
:100070001A39685618AEBAAB558C1D3CB7CC5763CD
:10008000BD6DEDFD753EF6177231BF000000803F7B
:1000900008000000BE922449123EABAAAA2ABECD97
:1000A000CCCC4C3E00000080BEABAAAAAA3E000009
:1000B0000000BF000000803F000000000008417801
:1000C000D3BB4387D1133D190E3CC3BD4282AD2B38
:1000D0003E68EC8276BED98FE1A93E4C80EFFFBE30
:1000E00001C4FF7F3F000000000000407A10F35A77
:1000F00000A0724E18090010A5D4E80000E8764868
:10010000170000E40B54020000CA9A3B000000E113
:10011000F505000080969800000040420F000000A6
:10012000A08601000000102700000000E803000086
:1001300000006400000000000A0000000000010050
:10014000000000002C76D888DC674F0823DFC1DF71
:10015000AE59E1B1B796E5E3E453C63AE651997674
:1001600096E8E6C28426EB898C9B62ED407C6FFCAE
:10017000EFBC9C9F40F2BAA56FA5F490055A2AF7F0
:100180005C936B6CF9676DC11BFCE0E40D47FEF5F9
:1001900020E6B500D0ED902E030094357705008061
:1001A000841E080000204E0A000000C80C333333C0
:1001B000330F986E12831141EF8D2114893BE65560
:1001C00016CFFEE6DB18D1844B381BF77C1D901D43
:1001D000A4BBE424203284725E228100C9F124ECA5
:1001E000A1E53D2700000000240027002A000000B0
:1001F0000000250028002B0000000000230026003E
:100200002900040404040404040402020202020299
:1002100003030303030301020408102040800102CA
:100220000408102001020408102000000008000249
:100230000100000304070000000000000000BB14E0
:1002400011241FBECFEFD8E0DEBFCDBF13E0A0E08A
:10025000B1E0E2E1F3E402C005900D92A435B107EC
:10026000D9F724E0A4E5B3E001C01D92A43CB20795
:10027000E1F711E0C0E2D1E004C02197FE010E9445
:100280002721CF31D107C9F70E94EE140C948721A2
:100290000C940000833081F028F4813099F0823092
:1002A000A9F008958730A9F08830C9F08430B1F4FE
:1002B000809180008F7D03C0809180008F77809334
:1002C0008000089584B58F7784BD089584B58F7DAF
:1002D000FBCF8091B0008F778093B000089580911C
:1002E000B0008F7DF9CFCF93DF93282F30E0F90155
:1002F000E65DFD4F8491F901EA5EFD4FD491F9016D
:10030000EE5FFD4FC491CC23A1F081110E944A0100
:10031000EC2FF0E0EE0FFF1FE850FE4FA591B491D7
:10032000EC91ED2381E090E009F480E0DF91CF9142
:10033000089580E090E0FACF1F93CF93DF93282FAA
:1003400030E0F901E65DFD4F8491F901EA5EFD4F71
:10035000D491F901EE5FFD4FC491CC23A9F0162F83
:1003600081110E944A01EC2FF0E0EE0FFF1FE251D5
:10037000FE4FA591B4918FB7F894EC91111108C07C
:10038000D095DE23DC938FBFDF91CF911F9108952D
:10039000DE2BF8CFCF93DF9390E0FC01EA5EFD4FB8
:1003A00024918E5F9D4FFC0184918823D1F090E0D1
:1003B000880F991FFC01EC51FE4FA591B491FC01EF
:1003C000E251FE4FC591D491623071F49FB7F89419
:1003D0003C91822F809583238C93E8812E2B288358
:1003E0009FBFDF91CF9108958FB7F894EC912E2B9A
:1003F0002C938FBFF6CFCF93DF93EC0161E086E0C3
:100400000E94CA01209731F460E086E0DF91CF912D
:100410000C949C01CF3FD10511F461E0F6CFE0E3ED
:10042000F2E0E491E33029F140F4E130B1F0E23060
:10043000D9F0C038D1058CF7E7CFE73021F1E830AB
:1004400051F1E430B1F780918000806280938000A8
:10045000D0938B00C0938A0004C084B5806884BDAB
:10046000C7BDDF91CF91089584B5806284BDC8BDBA
:10047000F8CF80918000806880938000D0938900BD
:10048000C0938800EECF8091B00080688093B00068
:10049000C093B300E6CF8091B00080628093B0003B
:1004A000C093B400DECF3FB7F8948091960490914A
:1004B0009704A0919804B091990426B5A89B05C013
:1004C0002F3F19F00196A11DB11D3FBFBA2FA92FD3
:1004D000982F8827BC01CD01620F711D811D911DD0
:1004E00042E0660F771F881F991F4A95D1F708953C
:1004F0008F929F92AF92BF92CF92DF92EF92FF9234
:100500004B015C010E9453026B017C010E9453026B
:100510006C197D098E099F09683E7340810591051C
:10052000A8F321E0821A9108A108B10888EEC80E4C
:1005300083E0D81EE11CF11C81149104A104B104D4
:1005400029F7FF90EF90DF90CF90BF90AF909F90F2
:100550008F9008952FB7F89460919204709193044E
:1005600080919404909195042FBF0895CF92DF92CB
:10057000EF92FF920F931F930E94AA0200919B0497
:1005800010919C0420919D0430919E046B017C018C
:10059000C01AD10AE20AF30A970186010A3F11053F
:1005A00021053105B8F060939B0470939C048093FF
:1005B0009D0490939E0460919A0481E06827609363
:1005C0009A0485E01F910F91FF90EF90DF90CF90FC
:1005D0000C949C011F910F91FF90EF90DF90CF90B2
:1005E000089508950895AF92BF92CF92DF92EF924F
:1005F000FF920F931F93CF93DF936C017B018B01CD
:10060000040F151FEB015E01AE18BF08C017D1071C
:1006100059F06991D601ED91FC910190F081E02DA6
:10062000C6010995892B79F7C501DF91CF911F91FB
:100630000F91FF90EF90DF90CF90BF90AF90089513
:1006400008952091D303260F3327331F213231051C
:10065000ECF42091F703FC0190E080E0243069F095
:1006600082E00895A091D3032191AC014D545C4FD9
:10067000A40FB52FB11D2C930196861798F3809186
:10068000D303680F6093D30380E0089581E0089559
:100690001092F70381E08093F9031092F80361E070
:1006A00082E10E949C0161E083E10E949C01E9EBF0
:1006B000F0E080818E7F808380818D7F808388E4DD
:1006C0008093B80085E48093BC000895CF93DF93B6
:1006D00091E090932A048823B9F0C091B800D0919A
:1006E000BA008091BC008A7B8093BC0060E082E10C
:1006F0000E949C0160E083E10E949C010E944803EB
:10070000D093BA00C093B800DF91CF9108950895B7
:10071000E091240480912304E81730F4F0E0ED56D2
:10072000FC4F808190E008958FEF9FEF08959091A6
:100730002404809123042FEF3FEF981748F4E92F0A
:10074000F0E0ED56FC4F208130E09F5F9093240451
:10075000C90108958091230490912404891B990B69
:100760000895CF92DF92EF92FF920F931F93CF9352
:10077000DF937C01CB018A0120919203222389F02F
:10078000EB016B01C40ED51ECC15DD0569F0699136
:10079000D701ED91FC910190F081E02DC701099501
:1007A000F3CF642F0E942103C801DF91CF911F91E5
:1007B0000F91FF90EF90DF90CF900895CF93DF934C
:1007C0001F92CDB7DEB76983209192032223F9F0FF
:1007D00020912104203258F021E030E0FC013383E5
:1007E000228390E080E00F90DF91CF910895809177
:1007F0002204E82FF0E0EE58FC4F998190838F5F40
:10080000809322048093210481E090E0ECCF61E0AA
:10081000CE0101960E942103F7CF90E080E0089579
:10082000E091010184E0E89FF0011124E65FFE4FB2
:10083000608171818281938129E096958795779572
:1008400067952A95D1F733E0660F771F881F991FA8
:100850003A95D1F708958F929F92AF92BF920F93DE
:100860001F93CF93DF93CDB7DEB7A1970FB6F89460
:10087000DEBF0FBECDBF19A2423008F44AE08E01A0
:100880000F5D1F4F842E912CB12CA12CA50194013A
:100890000E94E620E62FB901CA01EA3044F5E05D86
:1008A000D801EE938D01232B242B252B79F790E093
:1008B00080E0109769F0FD0101900020E9F7319781
:1008C000AF014A1B5B0BBD018CEA94E00E94F3026E
:1008D000A1960FB6F894DEBF0FBECDBFDF91CF91CA
:1008E0001F910F91BF90AF909F908F900895E95CFA
:1008F000D7CFFC0101900020E9F73197AF01481BE9
:10090000590BBC018CEA94E00C94F302EF92FF9235
:100910000F931F93CF93DF937C018C01CAE0D0E04B
:10092000CE010E94681CF80181938F012196CB3182
:10093000D105B1F7C701DF91CF911F910F91FF90C2
:10094000EF9008950C94681CCF93DF93EC0160E066
:100950008E810E949C0161E08E810E949C0160E07A
:100960008E810E949C018BE891E00197F1F7DF9165
:10097000CF910895CF92DF92EF92FF920F931F9342
:10098000CF93DF936C017C0187E0E80EF11CD0E08F
:10099000C0E0062F10E0B8010C2E02C075956795D7
:1009A0000A94E2F76170F70181917F010E949C0136
:1009B0002196C430D10579F7C601DF91CF911F91FF
:1009C0000F91FF90EF90DF90CF900C94A404CF9202
:1009D000DF92EF92FF920F931F93CF93DF93EC017F
:1009E000F62E642F8C810E949C018D818F3F19F01F
:1009F00060E00E949C010F2D10E08F8584FF25C0D0
:100A00006E0187E0C80ED11CF12CE12CB8010E2C30
:100A100002C0759567950A94E2F76170F6018191BD
:100A20006F010E949C01FFEFEF1AFF0A88E0E816B1
:100A3000F10461F7CE01DF91CF911F910F91FF90EB
:100A4000EF90DF90CF900C94A404B80184E07595EA
:100A500067958A95E1F7CE010E94BA046F2DCE0109
:100A6000DF91CF911F910F91FF90EF90DF90CF908A
:100A70000C94BA0440E0682F8CEA94E00C94E704EC
:100A800081E00E943A058BE39FE10197F1F7089519
:100A9000CF93DF93823029F49091BB0498609093B8
:100AA000BB048093BF041092C00480E48093C1040F
:100AB00080E18093C20480E58093C30461E080916B
:100AC000B0040E94CA018091B1048F3F19F061E027
:100AD0000E94CA0161E08091B2040E94CA01CCEA7E
:100AE000D4E09E012C5A34408091BB0484FD0BC09D
:100AF00084E090E021962817390744F461E08E8164
:100B00000E94CA01EECF88E090E0F4CF8BE39DE035
:100B10000197F1F760E08091B0040E949C0160E0D1
:100B20008091B2040E949C018091B1048F3F19F022
:100B300060E00E949C018091BB0484FD34C063E0AE
:100B40008CEA94E00E94BA04CBE4D6E4CE0101978B
:100B5000F1F763E08CEA94E00E94BA042197F1F780
:100B600063E08CEA94E00E94BA0483E592E0019786
:100B7000F1F762E08CEA94E00E94BA048091BB0431
:100B800080620E943A0584E08093BC048CE00E945D
:100B90003A050E94400582E08093BD0486E0DF9123
:100BA000CF910C943A0580620E943A058BE496E45A
:100BB0000197F1F78091BB0480620E943A0583E5BA
:100BC00092E00197F1F78091BB0480620E943A05A0
:100BD000D5CF9091BF04691710F06FEF690FE62F22
:100BE000F0E0E455FB4F9489890F80680C943A0536
:100BF00041E00E94E70481E090E00895CF92DF9207
:100C0000EF92FF9297FF18C06B017C0141E06DE20B
:100C10008CEA94E00E94E70466277727CB016C19E1
:100C20007D098E099F094AE00E942B040196FF90DE
:100C3000EF90DF90CF9008954AE0FF90EF90DF9023
:100C4000CF900C942B0485ED8093BC0080912604FA
:100C500090912704A0912804B09129040796A11D22
:100C6000B11D23E0B695A795979587952A95D1F75D
:100C70002091BC0024FD03C01092F7030895409119
:100C80002604509127046091280470912904452B73
:100C9000462B472B69F30097A105B10541F02AE2E5
:100CA0002A95F1F700C00197A109B109E1CF809120
:100CB00025040C946603DF92EF92FF920F931F932B
:100CC000CF93DF93CDB7DEB729970FB6F894DEBF89
:100CD0000FBECDBFD82E6091420470914304809125
:100CE0004404909145040E94E81D20E034E244E76A
:100CF00059E40E943E1D9E012F5F3F4F79018901FB
:100D00002091020148E00E94131AF701019000208F
:100D1000E9F78E2D8E1B6D2D835F0E94E905C701BB
:100D20000E9479048FE991E00E94790429960FB618
:100D3000F894DEBF0FBECDBFDF91CF911F910F9111
:100D4000FF90EF90DF9008958F929F92AF92BF92A5
:100D5000CF92DF92EF92FF920E9410046B017C0110
:100D600060910201643008F063E070E07195619574
:100D70007109072E000C880B990B0E94E81D9B013E
:100D8000AC0160E070E080E291E40E94DE1E4B0165
:100D90005C01C701B6010E94E61D20E034E244E791
:100DA00059E40E943E1D9B01AC01C501B4010E94A3
:100DB0003E1D0E94221D0E94B71D862FFF90EF90BE
:100DC000DF90CF90BF90AF909F908F9008954F92FB
:100DD0005F926F927F928F929F92AF92BF92CF92CB
:100DE000DF92EF92FF921F93CF93DF93982E5B01D8
:100DF000142FE9010E94AA026B017C01F5019920E0
:100E000009F4DEC0808181112CC0C0926503D092AC
:100E10006603E0926703F0926803C0926103D09288
:100E20006203E0926303F0926403C0925D03D09288
:100E30005E03E0925F03F092600381E08083812F84
:100E4000FE01DF91CF911F91FF90EF90DF90CF9047
:100E5000BF90AF909F908F907F906F905F904F90DA
:100E600009948091650390916603A0916703B09106
:100E7000680346015701881A990AAA0ABB0A809199
:100E80004604882309F468C0F8EE8F16F3E09F0645
:100E9000A104B10408F450C00E94A406782E0E9458
:100EA00010049B01AC01A72DB0E00E942D210E94EF
:100EB000E61D20E030E04AEF53E40E943E1D2B0186
:100EC0003C01C501B401685E73408109910928EEB7
:100ED00033E040E050E00E94E620CA01B9010E94E0
:100EE000E61D23E333E343E35FE30E94B61C9B016B
:100EF000AC01C301B2010E943E1D0E94B71D80904B
:100F0000610390906203A0906303B0906403A70113
:100F10009601281939094A095B0949015A018616BF
:100F20009706A806B90640F080918104909190043C
:100F30009923F1F081111EC0DF91CF911F91FF9095
:100F4000EF90DF90CF90BF90AF909F908F907F9069
:100F50006F905F904F90089528EE821623E09206DE
:100F6000A104B10448F360E570E080E090E0C7CFF1
:100F70008823A9F080915D0390915E03A0915F03A7
:100F8000B0916003A7019601281B390B4A0B5B0B3C
:100F9000DA01C901883C9105A105B10568F2C0924A
:100FA0006103D0926203E0926303F0926403C09203
:100FB0005D03D0925E03E0925F03F09260033FCF47
:100FC0001082BACF7F928F929F92AF92BF92CF92B0
:100FD000DF92EF92FF920F931F93CF93DF934B011A
:100FE0005C01742E0E9410046B017C010E94E61DBE
:100FF0008B01D82FC92F9401A5010E94D91E181664
:10100000A4F0AFEFBFE7A70196010E942D210E9437
:10101000E61D8B01D82FC92F9401A5010E94391D0F
:1010200087FD03C08401DA2DCB2D61E070E080E004
:1010300090E0772031F00E94A406682F70E090E0E5
:1010400080E0A70196010E94C2206B017C010E94F2
:10105000E61D9B01AC01B8018D2F9C2F0E943E1D07
:101060004B015C0120E030E0A9010E94D91E20E084
:1010700030E040E05FE387FD1AC0C501B4010E9483
:10108000B61C0E94B01D9B01AC01C701B6010E94B5
:10109000C220DF91CF911F910F91FF90EF90DF90D1
:1010A000CF90BF90AF909F908F907F900895C50193
:1010B000B4010E94B51CE5CF4F925F926F927F9270
:1010C0008F929F92AF92BF92CF92DF92EF92FF9258
:1010D000CF93DF93C82F843009F42FC28091BC04D2
:1010E0008D7F8093BC0488600E943A05C150C73050
:1010F00068F4EC2FF0E0E158F74F0C942721AA0890
:10110000B408D1089D0AC10A150B2E0B0E94400598
:1011100083ED91E00E94790486E393E00E947904D4
:101120008FED91E00E94790461E080E00E94E90582
:1011300084EE91E0DF91CF91FF90EF90DF90CF9020
:10114000BF90AF909F908F907F906F905F904F90E7
:101150000C94790480E00E945B0661E080E00E94CC
:10116000E9058FE494E0E6CF80914604811107C041
:1011700061E00E94E90583EF91E00E94790481E03B
:101180000E945B06DF91CF91FF90EF90DF90CF90B0
:10119000BF90AF909F908F907F906F905F904F9097
:1011A00008950E94400580918204882301F160E047
:1011B00080E00E94E90588EF91E00E94790461E0F7
:1011C00080E00E94E90582E092E00E94790480912B
:1011D0007204813049F028F08230A1F68AE192E071
:1011E000A9CF85E092E0A6CF82E192E0A3CF8091E3
:1011F0007304811126C0809172048130E1F080F087
:101200008230E1F0833009F0BDCF88EF91E00E9499
:10121000790461E080E00E94E90589E592E08ACFE7
:1012200081E292E00E94790461E080E00E94E90599
:101230008EE292E07FCF8BE392E0F4CF88E492E0FD
:10124000F1CF813009F080C080917204813009F4BF
:1012500059C020F0823009F4A2C094CF88E692E011
:101260000E94790461E080E00E94E90580917104A8
:10127000882309F444C0E0910101F0E0E059FC4FFB
:10128000C08128E0C29FE0011124CD5DDE4F68815E
:1012900079818A819B8141E00E94E2072B013C0118
:1012A0006C817D818E819F8141E00E94E2074B012C
:1012B0005C0182E092E00E94790480E4C82E82E41E
:1012C000D82E8FE0E82EF12CC301B201A7019601C0
:1012D0000E940821CA01B9010E94FE0587E792E039
:1012E0000E947904C501B401A70196010E9408215A
:1012F000CA01B9010E94FE058FE991E01BCF89E781
:1013000092E018CF87E892E00E94790461E080E0E3
:101310000E94E90580917104882389F382E092E0BC
:101320000E9479046091020170E090E080E04AE060
:101330000E942B0480910201813019F08AE891E02B
:10134000F9CE81E891E0F6CE823009F0C7C08091F5
:101350007204823009F44DC0E0F4882359F18130E1
:1013600009F010CF8FEB92E00E94790461E080E0F9
:101370000E94E90580917104882309F282E092E0DD
:101380000E94790480910101882381F18CE991E028
:10139000D1CE833009F448C0843009F0F3CE81E91E
:1013A00092E00E94790461E080E00E94E9058FE903
:1013B00092E0C0CE8EEA92E00E94790461E080E083
:1013C0000E94E90580917104882309F498CF8AEB83
:1013D00092E00E947904E091AB04F0E0E15AFE4F04
:1013E000608170E090E080E040E145C084E991E0F8
:1013F000A1CE8EEC92E00E94790461E080E00E9430
:10140000E90580917104882309F479CF82E092E0A4
:101410000E94790480910501811103C089EA91E05D
:1014200089CE84EA91E086CE8AED92E00E9479042A
:1014300061E080E00E94E90580917104882309F44D
:101440005ECF82E092E00E94790480914E04811187
:1014500025C08EEE92E00E947904809108018830C8
:10146000D0F488ED92E00E9479046091080170E068
:1014700090E080E04AE0DF91CF91FF90EF90DF9025
:10148000CF90BF90AF909F908F907F906F905F9024
:101490004F900C942B0487EE92E04CCE813079F47F
:1014A0008CEE92E00E94790480910601883098F7D2
:1014B00088ED92E00E94790460910601D8CF87EF11
:1014C00092E00E94790480910701883020F788ED2E
:1014D00092E00E94790460910701C9CF833009F03E
:1014E00051CE80917204813069F008F0B3CE82E071
:1014F00093E00E94790461E080E00E94E9058FE0BA
:1015000093E018CE8BE193E00E94790461E080E0E3
:101510000E94E90580917104882309F4F0CE82E0ED
:1015200092E00E94790480913404811103C082EB1F
:1015300091E000CE8EEA91E0FDCD61E080E00E9476
:10154000E90580E694E00E94790461E080916F03F0
:101550000E94E9058091BC04982F92609093BC048E
:101560008A60DF91CF91FF90EF90DF90CF90BF9096
:10157000AF909F908F907F906F905F904F900C9462
:101580003A0560E080E00E94E90580918A048823A2
:1015900019F08CE293E0CECD0E94AA02C0906B03BA
:1015A000D0906C03E0906D03F0906E039B01AC0152
:1015B0002C193D094E095F0969017A013AEFC316FA
:1015C000D104E104F10408F4DDCD60936B03709362
:1015D0006C0380936D0390936E0382E393E00E940B
:1015E000790460E080916A030E94E905809100011E
:1015F000811118C089EB91E00E947904909100015B
:101600008FEF911181E020916A03820F80936A032A
:10161000882319F0833009F0B5CD81E098279093A5
:101620000001B0CD86EB91E0E7CF809135048823AF
:1016300081F0DF91CF91FF90EF90DF90CF90BF903E
:10164000AF909F908F907F906F905F904F900C9491
:10165000400581E00E945C08C5E040CD61E086E085
:101660000E949C010E94400580912B04811113C0AF
:1016700089EC91E00E94790461E080E00E94E90534
:1016800080912B04882351F088E393E00E94790431
:10169000E0910901A2CE8CEB91E0ECCF85E493E0E0
:1016A00049CD2F923F924F925F926F927F928F928D
:1016B0009F92AF92BF92CF92DF92EF92FF920F93E1
:1016C0001F93CF93DF9300D01F92CDB7DEB7D82EF4
:1016D000F62E042FE52E2B83862F880F89831AE0A0
:1016E00088248A9485EE982E95ECC92EA22EB12CD2
:1016F000922F91509A83DD2009F4F0C00E9453028A
:101700002B013C018091F703811165C0E1E0E0937A
:10171000F703E093F9038092F60310921B04FA8119
:10172000F0931A04E0931C0480911C049981892B86
:1017300080931C048091F803813009F08BC01092D3
:10174000F8030E9453022B013C0180911C048093FA
:10175000BB008091260490912704A0912804B091A9
:101760002904892B8A2B8B2BA1F00E9453022091F4
:1017700026043091270440912804509129046419CB
:10178000750986099709261737074807590708F486
:1017900043C08091BC0083FDD8CFC092BC000E94A2
:1017A00053022B013C018091F703813009F455C0AD
:1017B00080911B04EB818E1708F071C080911B048F
:1017C000EAEFF3E0A3E9B3E090E0981751F121913B
:1017D0002D939F5FFACF8091260490912704A091CA
:1017E0002804B0912904892B8A2B8B2B09F48ACFEA
:1017F0000E9453022091260430912704409128042E
:101800005091290464197509860997092617370725
:101810004807590708F076CF809125040E94660397
:1018200080E01092240480932304FB81F81339C0D4
:101830000983C02EDE2C8C2D9981891BEB818E179C
:1018400008F007C18FE994E00E949703F6018193A5
:101850006F01F1CF9092BC00A2CF809126049091AD
:101860002704A0912804B0912904892B8A2B8B2B63
:1018700009F499CF0E945302209126043091270445
:101880004091280450912904641975098609970923
:10189000261737074807590708F085CFBDCF8B813A
:1018A0008FCF62E370E080E090E00E9478021150F8
:1018B00009F021CF8091900481112FC160E085E073
:1018C0000E949C0187E00E945C0883E00E947301F3
:1018D000892B09F004C10E94B602F7CFF1E0F09322
:1018E0009203F092690310922204109221048B81DA
:1018F000882339F0A501602F7E2D8FE994E00E94A6
:10190000B1033090210490E281E0931508F499C06E
:10191000209069030E9453022B013C018091F70340
:10192000811169C0E2E0E093F703F1E0F093F9037D
:101930008092F60310921B0430921A04E2E7F3E05F
:10194000AAEFB3E038129CC010921C0480911C04D2
:10195000220C282A20921C048091F803813009F07F
:1019600093C01092F8030E9453022B013C01809116
:101970001C048093BB008091260490912704A091C1
:101980002804B0912904892B8A2B8B2BA1F00E946B
:10199000530220912604309127044091280450914D
:1019A0002904641975098609970926173707480716
:1019B000590708F441C08091BC0083FDD8CFC09284
:1019C000BC000E9453022B013C018091F70382303E
:1019D00009F45DC08091F6038F3F09F47AC08091CD
:1019E000F603803209F477C08091F603803309F45E
:1019F00074C084E026C08091260490912704A091B1
:101A00002804B0912904892B8A2B8B2B09F486CFCB
:101A10000E9453022091260430912704409128040B
:101A20005091290464197509860997092617370703
:101A30004807590708F072CF809125040E94660379
:101A400085E01092220410922104109292038111D9
:101A500028CF81E00F900F900F90DF91CF911F91D1
:101A60000F91FF90EF90DF90CF90BF90AF909F903D
:101A70008F907F906F905F904F903F902F90089540
:101A800091919D938F5F5ECF9092BC009ACF809191
:101A9000260490912704A0912804B0912904892B51
:101AA0008A2B8B2B09F491CF0E945302209126049C
:101AB0003091270440912804509129046419750934
:101AC00086099709261737074807590708F07DCF79
:101AD000B3CF80E0B6CF82E0B4CF83E0B2CF0E9434
:101AE000B60283E00E947301892BC9F783E00E944C
:101AF0007301892B19F40E94B602F8CF60E085E0EB
:101B00000E949C0188E198E00FB6F894A895809314
:101B100060000FBE90936000FFCF80E09BCFCF921C
:101B2000DF92EF92FF920E94AA026B017C018091EA
:101B30006F038F3068F11092810410926F0310923E
:101B40007104109282041092700440E150E060E64B
:101B500074E08FE494E00E94782110925F0483E0A7
:101B60000E945C088EE5C80E81E0D81EE11CF11CC5
:101B7000C0927D04D0927E04E0927F04F0928004B3
:101B800081E080937C04FF90EF90DF90CF900895E8
:101B90008F5F80936F0384E0FF90EF90DF90CF9092
:101BA0000C945C08E0916F03F0E0E05AFB4F208159
:101BB000022E000C330B20523109A901480F511D90
:101BC00087FD5A95CA01805A9F4F60E670E00E94D7
:101BD000D220805E808384E00C945C088091730442
:101BE000823081F480917204833061F480914E04DC
:101BF000823030F48F5F80934E0483E00C945C0855
:101C000010924E0410927104F8CF8091050191E07A
:101C100089278093050183E00C945C08809134044B
:101C200091E089278093340483E00C945C088091D0
:101C3000340491E089278093340483E00C945C0899
:101C400080914E04811111C0809108018F3F29F4C9
:101C50001092080183E00C945C08873021F48FEF28
:101C600080930801F7CF8F5FFBCF813079F48091AB
:101C700006018F3F19F410920601ECCF873021F452
:101C80008FEF80930601E6CF8F5FFBCF8091070136
:101C90008F3F19F410920701DDCF873021F48FEFC9
:101CA00080930701D7CF8F5FFBCF80914E048111C6
:101CB00010C0809108018F3F31F487E080930801C4
:101CC00083E00C945C08811102C08FEFF7CF815044
:101CD000F5CF813071F4809106018F3F21F487E0C8
:101CE00080930601EDCF811102C08FEFF9CF8150B3
:101CF000F7CF809107018F3F21F487E080930701A0
:101D0000DFCF811102C08FEFF9CF8150F7CF8091E3
:101D1000050191E089278093050183E00C945C081C
:101D200081E08093010182E08093020183E00C94C2
:101D30005C081092010180910201833018F483E065
:101D40008093020183E00C945C088091AB048330A3
:101D500018F48F5F8093AB0483E00C945C0880914F
:101D6000AB04882319F081508093AB0483E00C947A
:101D70005C0880910201282F30E0909101019923A5
:101D800039F0223031053CF082E006C083E004C027
:101D900023303105DCF78F5F8093020183E00C94E0
:101DA0005C0880910201882361F08150990B209199
:101DB0000101222359F022E030E0281739070CF402
:101DC000C9018093020183E00C945C0823E030E0B9
:101DD000F4CFE0910101F0E0E059FC4F80818630C2
:101DE00010F48F5F808383E00C945C08E091010124
:101DF000F0E0E059FC4F8081882311F0815080830E
:101E000083E00C945C088091730481111FC0809161
:101E10007204813079F030F0823081F0833091F0BB
:101E200083E043C010925C0381E0809373041092BE
:101E30007204F6CF80935C0382E0F7CF80935C035B
:101E400083E0F3CF81E080938204F1CF813059F4B5
:101E500080917204823069F41092730480915C0363
:101E600080937204DDCF823041F48091720484301B
:101E700099F381E080937104D3CF8330D1F78091BF
:101E80007204823049F38111F4CF10926F0381E024
:101E90008093810440E150E06FE474E080E694E0D8
:101EA0000E9478211092700484E00C945C08809168
:101EB0007204823030F48F5F8093720483E00C945C
:101EC0005C08089580917204882331F081508093DA
:101ED000720483E00C945C0808954F925F926F92B5
:101EE0007F928F929F92AF92BF92CF92DF92EF92AA
:101EF000FF92CF93DF9300D000D000D0CDB7DEB7F4
:101F00008D83C0905803D0905903E0905A03F0900D
:101F10005B038090540390905503A0905603B090BB
:101F20005703809146048823E9F1809142049091FF
:101F30004304A0914404B091450489839A83AB8300
:101F4000BC830E94A4068E830E9410049B01AC01F6
:101F500026013701481859086A087B089E81A92F75
:101F6000B0E00E942D219B01AC014216530664068D
:101F7000750610F4A30192018D81A82F880FBB0B69
:101F80000E94382149805A806B807C80460E571E03
:101F9000681E791E409242045092430460924404A9
:101FA000709245048091420490914304A0914404AE
:101FB000B091450488159905AA05BB0550F1C816CE
:101FC000D906EA06FB0610F4D501C4018093420449
:101FD00090934304A0934404B093450482E00E948C
:101FE0005C0881E08093460426960FB6F894DEBF25
:101FF0000FBECDBFDF91CF91FF90EF90DF90CF90DC
:10200000BF90AF909F908F907F906F905F904F9018
:102010000895D701C601DACF4F925F926F927F92F7
:102020008F929F92AF92BF92CF92DF92EF92FF92E8
:102030000F931F93CF93DF9300D000D0CDB7DEB7BF
:102040008CE390E00E94A204873008F082E0809345
:1020500070038DE390E00E94A204873008F082E0D4
:1020600080937103D09001010D2D10E0F801E0592B
:10207000FC4FC08088E0C89E70011124F701ED5D1F
:10208000FE4F3F01608171818281938141E00E9416
:10209000E2074B015C018092540390925503A09299
:1020A0005603B0925703F30164817581868197814D
:1020B00041E00E94E2072B013C01409258035092FC
:1020C000590360925A0370925B03F6E0FC1508F422
:1020D00052C081E08D1508F44EC0000F111F000F93
:1020E000111F065A1F4F0E0D1F1D6E0195E0C90EE0
:1020F000D11CFE0131967F010E1B1F0BC8018E0DF6
:102100009F1D0E94681CF70181937F01EC15FD055E
:10211000A9F769817A818B819C81681579058A0587
:102120009B0560F0461657066806790638F00E944F
:10213000E81D40E00E94E2074B015C0180924204EE
:1021400090924304A0924404B09245040F900F90E3
:102150000F900F90DF91CF911F910F91FF90EF9013
:10216000DF90CF90BF90AF909F908F907F906F90B7
:102170005F904F90089560E070E0CB01CECFFF926A
:102180000F931F93CF93DF93EC01F62E08811981F3
:10219000C8010E94681CF81621F06F2DC8010E942A
:1021A000701CCE01DF91CF911F910F91FF90089588
:1021B000CF93DF9300D0CDB7DEB79A838983CE016A
:1021C00001960E94BF100F900F90DF91CF9108955C
:1021D00060910801683008F06FEF85E590E00E949B
:1021E000D81060910601683008F06FEF86E590E046
:1021F0000E94D81060910701683008F06FEF87E502
:1022000090E00C94D810CF93DF9386E490E00E9486
:10221000A204811181E0809301010E940C1088E2E8
:1022200090E00E94A204843010F48093020180E5C3
:1022300090E00E94A204843008F081E080930901BC
:1022400082E390E00E94A20491E0811101C090E03D
:102250009093050185E590E00E94A204C82F86E5D1
:1022600090E00E94A204D82F87E590E00E94A2048B
:10227000DF3FC1F58F3F09F045C0C43008F042C0D0
:102280000E94E8108FE494E00E94860480915F042D
:1022900010925F04EFE4F4E09191903234F094E016
:1022A000EF35F907C9F7882381F040E150E062E19A
:1022B00071E08FE494E00E94782144E050E060E215
:1022C00070E08BE594E00E9463218EE190E00E9433
:1022D000A20491E0811101C090E090933404DF9159
:1022E000CF910895C83008F0CFEFC0930801D830DF
:1022F00008F0DFEFD0930601883008F08FEF80936D
:102300000701C0CFC83080F7C0930801F3CF0E9407
:1023100003116091420470914304809144049091B0
:1023200045040E94E81D41E00E94E20760934204D8
:102330007093430480934404909345041092820464
:10234000109290041092730481E00C945C088F92B8
:102350009F92AF92BF92CF92DF92EF92FF920F9334
:102360001F93CF93DF93CDB7DEB72A970FB6F894BC
:10237000DEBF0FBECDBFC0904204D0904304E090BA
:102380004404F090450480913E0490913F04A09154
:102390004004B0914104C816D906EA06FB0629F4A8
:1023A00080919004882309F481C00E9410049B014D
:1023B000AC01C701B6010E94E6203D832E838EEC5E
:1023C0008F839091060180E0983028F481E001C06D
:1023D000880F9A95EAF788877E0185E0E80EF11C60
:1023E000E0910901F0E0E15AFE4F24E0A70160818D
:1023F00080E00E94510B882309F458C040914204A8
:10240000509143046091440470914504309101015E
:10241000032F10E0F801E059FC4F208149835A83D3
:102420006B837C83273078F5323068F580903E04EA
:1024300090903F04A0904004B09041044815590585
:102440006A057B0501F1000F111F000F111F065ACD
:102450001F4F98E0299F90011124020F131FFE01C6
:1024600031966F010E1B1F0BC8018C0D9D1D9A87A5
:102470008987F60161916F01CE0109960E94BF1014
:10248000CE14DF0489F78091420490914304A09117
:102490004404B091450480933E0490933F04A0937C
:1024A0004004B093410481E080938B042A960FB6D8
:1024B000F894DEBF0FBECDBFDF91CF911F910F917A
:1024C000FF90EF90DF90CF90BF90AF909F908F9054
:1024D0000895CF92DF92EF92FF920F931F93CF93C5
:1024E000DF93CDB7DEB763970FB6F894DEBF0FBEAC
:1024F000CDBF809172048111B4C08091810481119B
:1025000037C040E150E060E674E08FE494E00E9460
:10251000782110925F048FE4E82E84E0F82E8FE596
:1025200094E0F701219120320CF4ABC08E179F0785
:10253000C9F7CE0101960E94860441E150E0BE0138
:102540006F5F7F4F8FE494E00E946A21892B81F0B6
:102550000AE010E01B8B0A8BF70161917F01CE012D
:1025600042960E94BF100F5F1F4F0B31110591F76C
:1025700010910901E091AB041E1789F0F0E0E15AD7
:10258000FE4F20E050E040E0608180E00E94510B6F
:10259000882309F445C08091AB04809309016091C0
:1025A00070038CE390E00E94D810609171038DE37A
:1025B00090E00E94D8106091020188E290E00E94B1
:1025C000D8106091090180E590E00E94D8106091D8
:1025D000010186E490E00E94D8106091050182E339
:1025E00090E00E94D8100E94E810609134048EE1BF
:1025F00090E00E94D8100E940C100E94A7110E9427
:10260000871163960FB6F894DEBF0FBECDBFDF9182
:10261000CF911F910F91FF90EF90DF90CF90089591
:102620001093090181E080932B0487E00E945C08ED
:1026300010922B040E94AA026B017C010E94AA0244
:102640006C197D098E099F09643C794081059105CB
:1026500018F40E94B602F2CF60E085E00E949C016F
:102660009ECF813021F485E00E945C08C8CF823083
:1026700041F6109282041092720483E00E945C087A
:10268000C0CF40E150E062E171E08FE494E00E944D
:10269000782144E050E060E270E08BE594E00E9435
:1026A000632147CF1F920F920FB60F9211242F93E1
:1026B0003F938F939F93AF93BF9380919204909198
:1026C0009304A0919404B09195043091910423E077
:1026D000230F2D3758F50196A11DB11D20939104AC
:1026E0008093920490939304A0939404B0939504E0
:1026F0008091960490919704A0919804B0919904C8
:102700000196A11DB11D8093960490939704A09308
:102710009804B0939904BF91AF919F918F913F918D
:102720002F910F900FBE0F901F90189526E8230F42
:102730000296A11DB11DD2CF1F920F920FB60F921C
:1027400011242F933F934F935F936F937F938F93B6
:102750009F93AF93BF93EF93FF938091B900887FCE
:10276000803609F44AC0F0F5883209F4A7C018F59C
:10277000803109F49BC0B8F4882309F4F9C088308B
:1027800009F494C0FF91EF91BF91AF919F918F9108
:102790007F916F915F914F913F912F910F900FBE5D
:1027A0000F901F901895883109F488C0803251F736
:1027B0008093F60314C0803409F49DC040F4803344
:1027C000B9F38833F9F68093F60385ECB0C0803511
:1027D00009F485C0883509F496C0883499F60E94BA
:1027E0002306D0CF883909F48CC038F5883729F012
:1027F00050F4883611F0803729F683E08093F70390
:102800001092F50357C0883809F47BC0803919F05D
:10281000803809F0B7CF8091F503803208F071C09D
:10282000E091F50381E08E0F8093F5038091BB006A
:10283000F0E0EB52FC4F80833DC0803B39F0E0F488
:10284000803A09F479C0883A09F09CCF84E08093FB
:10285000F7031092D4031092D303E0911F04F09178
:10286000200409958091D30381110FC081E08093EA
:10287000D3031092B30309C0803C09F4A6CF883C6F
:1028800009F4A3CF883B09F07DCFE091D40381E028
:102890008E0F8093D403F0E0ED54FC4F8081809341
:1028A000BB009091D4038091D30329C080911C0474
:1028B0008093BB0085EC8093BC0064CF90911B0497
:1028C00080911A04981758F5E0911B0481E08E0F4F
:1028D00080931B04F0E0E650FC4F8081E9CFE0914B
:1028E0001B0481E08E0F80931B048091BB00F0E0FD
:1028F000E650FC4F808390911B0480911A04981736
:10290000C8F285E8D8CFE0911B0481E08E0F809358
:102910001B048091BB00F0E0E650FC4F8083809167
:10292000F90381115CCF81E08093F80384EA8093FE
:10293000BC001092F70326CF85EC8093BC00109268
:10294000F7038091F503803230F4E091F503F0E075
:10295000EB52FC4F10826091F50370E0E0911D0492
:10296000F0911E0485ED93E009951092F5030ACFCE
:102970001092F60334CFEFE9F4E01382128288EE6E
:1029800093E0A0E0B0E084839583A683B78387E6D5
:1029900091E091838083ECEAF4E01382128289E76C
:1029A00091E09183808388E084838FEF858389E041
:1029B00086838AE087838BE080878CE081878DE047
:1029C00082871386148615861686178681E00E94F4
:1029D0004805809109018093AB040895CF93DF935C
:1029E00000D000D000D01F92CDB7DEB7789484B568
:1029F000826084BD84B5816084BD85B5826085BDFB
:102A000085B5816085BD80916E00816080936E0088
:102A1000109281008091810082608093810080917A
:102A2000810081608093810080918000816080932B
:102A300080008091B10084608093B1008091B000EB
:102A400081608093B00080917A00846080937A00E6
:102A500080917A00826080937A0080917A00816010
:102A600080937A0080917A00806880937A00109237
:102A7000C10062E082E00E94CA0162E083E00E943D
:102A8000CA0162E084E00E94CA0161E085E00E9420
:102A9000CA0161E085E00E94CA0161E086E00E940F
:102AA000CA0110922404109223041092220410925E
:102AB00021040E94480381EF92E0909320048093C8
:102AC0001F0482EF92E090931E0480931D0482EF16
:102AD0008093B80010922A0488E893E1A0E0B0E067
:102AE0008093260490932704A0932804B09329048C
:102AF00011E01093250482E00E9448058FEF90E0DA
:102B00000E94FB0180E00E945C0864EC79E080E0B8
:102B100090E00E94780283E00E947301892BA1F467
:102B20001093090161E080E590E00E94D8101093B5
:102B30002B0487E00E945C0810922B0464EC79E07F
:102B400080E090E00E9478020E9403110E94A71189
:102B500081E00E945C0885E00E945C08AA24A3949E
:102B6000B12C90E0892E90E0992E11E022242A9435
:102B70000E94AA026B017C0182E00E94730133244F
:102B80003394892B09F0312C3092890483E00E9420
:102B9000730101E0892B09F000E00093870484E0D1
:102BA0000E94730121E0892B09F020E02093880422
:102BB000432C400E5524551CC201820F911D0297D3
:102BC0000CF463C110928804109287041092890457
:102BD000C0922C04D0922D04E0922E04F0922F0487
:102BE00080914604811108C080919004811104C035
:102BF00080918A04811163C110923A0410923B04BF
:102C000010923C0410923D048091900481115CC0AC
:102C10003090890431100CC080918704811108C064
:102C200080918804811104C08091040181114CC0FD
:102C30000E94AA026B017C012DE63FE04FEF6DE49C
:102C400074E0832D0E94E7062DE63FE041E06CE44E
:102C500074E0809188040E94E706809189048111C4
:102C600004C080918804882351F0C0924704D09218
:102C70004804E0924904F0924A04109204018091C1
:102C80004604882309F416C280918704882309F436
:102C900011C20E94AA026B017C010E94A71110922E
:102CA00046049EE5C90E91E0D91EE11CF11CC092BC
:102CB0007D04D0927E04E0927F04F092800481E053
:102CC0000E945C08109304010E94AA026B017C011F
:102CD00080918904811108C090918804911104C0E9
:102CE00090918704992341F0C0928304D092840488
:102CF000E0928504F092860420919004222309F446
:102D000004C290918204911100C2409083045090BB
:102D100084046090850470908604B701A60144196C
:102D200055096609770941325E446105710508F469
:102D3000ECC11092810485E00E945C080E9487111A
:102D4000AEE5CA0EA1E0DA1EE11CF11CC0927D04C2
:102D5000D0927E04E0927F04F092800410937C0471
:102D600080918B04882309F458C0E0910901F0E0B8
:102D7000E15AFE4F21E0AE014D5F5F4F608181E07F
:102D80000E94510B882309F448C08B8186FB882759
:102D900080F980938A0480919004811103C085E0BA
:102DA0000E945C0880918A04882309F4C6C280913D
:102DB0000801883008F0BFC27A2D01C0770F8A95CC
:102DC000EAF7872F90910701983030F4950101C000
:102DD000220F9A95EAF7822B90910501992309F425
:102DE000B9C29EEC99838A83E0910901F0E0E15A2F
:102DF000FE4F22E0AE014F5F5F4F608180E00E9496
:102E0000510B882329F080918A04811110928B0440
:102E100060918A0485E00E949C0180919004811158
:102E20002DC00E94AA02C0908C04D0908D04E09026
:102E30008E04F0908F042B013C014C185D086E0845
:102E40007F087301620120EDC21627E0D206E1047B
:102E5000F104A0F060938C0470938D0480938E0431
:102E600090938F04E0910901F0E0E15AFE4F20E0D9
:102E700050E040E0608180E00E94510B8114910499
:102E800009F476CE0E94000071CE80912C049091BE
:102E90002D04A0912E04B0912F04C81AD90AEA0A71
:102EA000FB0A22E3C216D104E104F10408F098CE33
:102EB00010928804109287041092890491CE0E9487
:102EC000AA026B017C0180913A0490913B04A0918D
:102ED0003C04B0913D04892B8A2B8B2BB9F483E001
:102EE0000E947301892B51F482E00E947301892BA7
:102EF00029F084E00E947301892B89F7C0923A047B
:102F0000D0923B04E0923C04F0923D04209187046F
:102F1000222309F4BCC040913604509137046091DB
:102F2000380470913904411551056105710509F0A6
:102F30008DC0C0923604D0923704E0923804F092EB
:102F4000390490918904911106C0211104C0809127
:102F50008804882389F1209203018FEF90E00E947A
:102F6000FB01809135048823F9F01092350486E046
:102F70000E945C088091890402E0811106C0809162
:102F8000880404E0811101C003E0802F0E947301D6
:102F9000892BD9F3033009F488C0043009F480C0C8
:102FA00010924D0410928904C0923A04D0923B04CE
:102FB000E0923C04F0923D0480913404882309F4AB
:102FC00023CE80913A0490913B04A0913C04B091AF
:102FD0003D0426013701481A590A6A0A7B0AD301BF
:102FE000C201853C9940A105B10508F40DCE809140
:102FF0003504811109CE209103012F3108F404CE4C
:103000004091300450913104609132047091330446
:10301000D701C601841B950BA60BB70BAC01BD01F4
:10302000473051056105710508F4EECD8FEF820F31
:103030008093030190E00E94FB01C0923004D09283
:103040003104E0923204F0923304DECDD701C601A0
:10305000841B950BA60BB70BAC01BD014D3D554034
:103060006105710508F46DCF90913504911169CF18
:1030700090E080E00E94FB011093350486E00E94FE
:103080005C0883E00E947301892BD9F3BDCD1092B7
:10309000360410923704109238041092390451CF3C
:1030A00010924C04109288047FCF10924B0410921F
:1030B00087047ACF8091470490914804A0914904F5
:1030C000B0914A04C81AD90AEA0AFB0AA9E8CA1642
:1030D000A3E1DA06E104F10408F4F6CD1092460407
:1030E000809104018111F0CD80913E0490913F04C4
:1030F000A0914004B0914104809342049093430412
:10310000A0934404B0934504DACD90917C049923B4
:1031100039F080918704811123CE10927C0420CE57
:103120009091810421112BC091111ACE80917D04C0
:1031300090917E04A0917F04B0918004C816D906B6
:10314000EA06FB0608F40CCE80917804909179048D
:10315000A0917A04B0917B0420918704222309F482
:10316000FBC0892B8A2B8B2B09F0FACDC0927804F7
:10317000D0927904E0927A04F0927B04F1CD992305
:10318000D1F022ED3DE04FEF6DE474E00E94E706E0
:1031900022ED3DE041E06CE474E0809188040E94FF
:1031A000E7062FE83DE040E06BE474E0809187049F
:1031B0000E94E706D5CD90918204992399F022E6EA
:1031C0003FE04FEF6DE474E00E94E70627E53FE043
:1031D00041E06CE474E0809188040E94E70629E6EF
:1031E00032E1E1CFE091730490917104911137C005
:1031F000F0E0E55AFE4FF080882359F180914D04AC
:1032000081110CC010934D0480917204882319F031
:1032100081508093720483E00E945C08809188044E
:103220008823D1F080914C04811110C010934C047C
:10323000809172046F2D6150770B861717061CF46E
:103240008F5F8093720483E00E945C0823E03FE07C
:10325000AACF10924D04E2CF10924C04F7CFE13088
:1032600021F590917204992329F09130A1F02EEE6E
:103270003DE099CF26EF3EE04FEF6DE474E00E9411
:10328000E70629EE3EE041E06CE474E080918804BA
:103290000E94E706ECCF21ED3EE04FEF6DE474E0D5
:1032A0000E94E70629EB3EE0EECFE23091F59091E7
:1032B00072049130C9F070F0923001F19330B9F698
:1032C00025E53EE04FEF6DE474E00E94E70620E262
:1032D0003EE0D9CF2FEA3EE04FEF6DE474E00E946C
:1032E000E70625EA3EE0CFCF29E93EE04FEF6DE467
:1032F00074E00E94E70620E93EE0C5CF25E03EE00D
:1033000040E06DE474E00E94E70627E83EE040E01C
:10331000BBCFE33009F0ABCF90917204913009F04C
:10332000A6CF27E13EE040E06DE474E00E94E706AE
:103330002EE03EE0ECCF80E045CD80910601883064
:1033400038F49A2D01C0990F8A95EAF7892F44CD58
:1033500080E042CD9EE846CD0097A105B10509F475
:10336000FFCC109278041092790410927A04109293
:103370007B0426013701481A590A6A0A7B0AD301DD
:10338000C2018E359140A105B10508F0E9CC8091CC
:10339000740490917504A0917604B09177044EEC7A
:1033A0005FEF6FEF7FEF481B590B6A0B7B0BDB0165
:1033B000CA018C0D9D1DAE1DBF1DC0927404D0921C
:1033C0007504E0927604F09277048C329140A10566
:1033D000B10508F0C5CC10939004109273041092BC
:1033E00072041092710410928204809109018093FA
:1033F000AB0440E150E06FE474E080E694E00E94AA
:1034000078211092700410924E0483E00E945C08B0
:1034100010937C04C0928304D0928404E0928504CB
:10342000F09286049DCCEF920F931F93CF93DF937E
:10343000E80134E047FD34E1042E000C550B57FF42
:1034400003C0519541955109E32E022F242FAE015F
:103450000E94311ACE01DF91CF911F910F91EF9011
:103460000895A9E0B0E0E7E3FAE10C94841C6A0156
:10347000F22EB02E102FFBE3AF2EA01608F41BE3A4
:103480001F5F012F27E0AE014F5F5F4F0E94901B2F
:10349000BC018981982F9970913009F43FC09BE25B
:1034A000E1FC04C09E2D9170E0FC3AC05E2D50718D
:1034B000E82FE87083FF46C084E0911101C083E0EB
:1034C000EF2DE81B8F1508F0E0E0D6018E2F20E2EB
:1034D000552351F1992329F0D6019C93C6010196F9
:1034E0006C0196012D5F3F4FE2FE24C08EE4D601B1
:1034F0008C9391E411969C93119712968C93D90119
:103500008E2F90E281111BC0E20FF32FF11D10826C
:103510008EEF9FEF2996ECE00C94A01C9DE2C6CFA5
:1035200090E2C4CF2D9381508111FCCFCE0ED11CDF
:10353000E0E0D0CF8EE6D6018C9391E6DBCF9D9371
:103540008150E0CF482F447082FF3DC084E091114C
:1035500001C083E08F1510F4EF2DE81BD6018E2FEC
:1035600020E2552309F1992329F0D6019C93C60145
:1035700001966C0196012D5F3F4FE2FE1BC089E46E
:10358000D6018C938EE411968C93119786E4129653
:103590008C93D9018E2F90E2882309F4B5CF9D93A7
:1035A0008150FACF2D9381508111FCCFCE0ED11CCA
:1035B000E0E0D9CF89E6D6018C938EE611968C9304
:1035C000119786E6E4CF9B0177FF02C030E020E050
:1035D000A1E0B0E0911102C0B0E0A0E0F9013196A5
:1035E000AE0FBF1F8B2C912CBB2009F461C054017E
:1035F000EFEFAE1ABE0AAA0DBB1DFA161B0619F094
:1036000014F04F2D4A1B511188C0E3FC59C07601BC
:10361000A42FB0E2A1114FC0C40ED11C992309F40C
:103620005BC040E0D6011196F60190836D015523F1
:1036300009F448C0012F060F9A81582F507184FF5A
:1036400003C0913309F4015010160CF047C0093043
:1036500008F008E0EEE2FE2E5B01A01AB108850139
:103660009194819491082F3F320729F4D601FC925E
:10367000F60131966F016217730794F10217130771
:103680007CF5DB01A21BB30BAA24A394B12CAC0ED6
:10369000BD1EAA0DBB1D11968C9121503109D6017A
:1036A000119628153905F4F0F60180836D01DBCF02
:1036B000B12CA12CA0CFF701B1937F01A150AACFCB
:1036C0009111B0CFD601942F50E302C05D93915079
:1036D0009111FCCFC40ED11C40E0ACCF01E0BACFB9
:1036E00080E3DBCF6217730731F4963388F49533A8
:1036F00011F4552369F0F6018083FD01842F90E2D7
:10370000811108C0A40FB11D1C9290E080E002CF8F
:1037100081E3F1CF91938150F3CF911183CF8ACF81
:10372000283008F027E03327DA01990F311D87FD93
:10373000916000966105710539F432602E5F3D930A
:1037400030E32A95E1F708959F3F30F08038710506
:10375000610509F03C5F3C5F3D93913008F0806863
:10376000911DDF93CF931F930F93FF92EF92192F29
:10377000987F9695E92F96959695E90FFF27EC5B34
:10378000FE4F99273327EE24FF24A701E701059078
:103790000894079428F4360FE71EF81E491F511DA0
:1037A000660F771F881F991F0694A1F7059007944D
:1037B00028F4E70EF81E491F561FC11D770F881FFA
:1037C000991F661F0694A1F70590079428F4F80E38
:1037D000491F561FC71FD11D880F991F661F771FCE
:1037E0000694A1F70590079420F4490F561FC71FB0
:1037F000D81F990F661F771F881F0694A9F7849119
:103800001095177041F0D695C79557954795F79441
:10381000E7941A95C1F7EAEEF0E0689415901591D7
:1038200035916591959105907FE27395E118F10AC4
:10383000430B560BC90BD009C0F7E10CF11E431F17
:10384000561FC91FD01D7EF4703311F48A95E6CF40
:10385000E894015030F0080F0AF40027021708F42A
:10386000202F2395022F7A3328F079E37D932A9530
:10387000E9F710C07D932A9589F606949795679588
:10388000379517951794E118F10A430B560BC90B9E
:10389000D00998F023957E9173957A3308F070E300
:1038A0007C932013B8F77E9170617D9330F08395FF
:1038B00071E37D9370E32A95E1F71124EF90FF9077
:1038C0000F911F91CF91DF91992787FD90950895D2
:1038D000F999FECF92BD81BDF89A992780B50895D8
:1038E000262FF999FECF1FBA92BD81BD20BD0FB61C
:1038F000F894FA9AF99A0FBE019608952F923F9282
:103900004F925F926F927F928F929F92AF92BF92EF
:10391000CF92DF92EF92FF920F931F93CF93DF939B
:10392000CDB7DEB7CA1BDB0B0FB6F894DEBF0FBEF8
:10393000CDBF09942A88398848885F846E847D8445
:103940008C849B84AA84B984C884DF80EE80FD8047
:103950000C811B81AA81B981CE0FD11D0FB6F894BD
:10396000DEBF0FBECDBFED0108955058BB27AA277B
:103970000E94CD1C0C94871E0E94791E38F00E9474
:10398000801E20F039F49F3F19F426F40C94761E23
:103990000EF4E095E7FB0C94471EE92F0E94981E59
:1039A00058F3BA17620773078407950720F079F474
:1039B000A6F50C94D21E0EF4E0950B2EBA2FA02D76
:1039C0000B01B90190010C01CA01A0011124FF27CC
:1039D000591B99F0593F50F4503E68F11A16F040C7
:1039E000A22F232F342F4427585FF3CF46953795C6
:1039F0002795A795F0405395C9F77EF41F16BA0B8B
:103A0000620B730B840BBAF09150A1F0FF0FBB1F38
:103A1000661F771F881FC2F70EC0BA0F621F731F81
:103A2000841F48F4879577956795B795F7959E3FDE
:103A300008F0B0CF9395880F08F09927EE0F97956F
:103A4000879508950E94BA1E90F09F3748F491110F
:103A500016F40C94D31E60E070E080E89FE30895B4
:103A600026F01B16611D711D811D0C944D1E0C94BA
:103A7000681E0E94231E08F481E008950E94521DD2
:103A80000C94871E0E94801E58F00E94791E40F000
:103A900029F45F3F29F00C94471E51110C94D31E5A
:103AA0000C94761E0E94981E68F39923B1F3552357
:103AB00091F3951B550BBB27AA2762177307840741
:103AC00038F09F5F5F4F220F331F441FAA1FA9F3D7
:103AD00035D00E2E3AF0E0E832D091505040E695C5
:103AE000001CCAF72BD0FE2F29D0660F771F881F26
:103AF000BB1F261737074807AB07B0E809F0BB0B19
:103B0000802DBF01FF2793585F4F3AF09E3F51052C
:103B100078F00C94471E0C94D31E5F3FE4F3983E5C
:103B2000D4F3869577956795B795F7959F5FC9F715
:103B3000880F911D9695879597F90895E1E0660F96
:103B4000771F881FBB1F621773078407BA0720F00F
:103B5000621B730B840BBA0BEE1F88F7E095089578
:103B60000E94B71D6894B1110C94D31E08950E9451
:103B7000A01E88F09F5798F0B92F9927B751B0F041
:103B8000E1F0660F771F881F991F1AF0BA95C9F7E1
:103B900014C0B13091F00E94D21EB1E008950C948F
:103BA000D21E672F782F8827B85F39F0B93FCCF342
:103BB000869577956795B395D9F73EF4909580955E
:103BC000709561957F4F8F4F9F4F0895E89409C07E
:103BD00097FB3EF490958095709561957F4F8F4F40
:103BE0009F4F9923A9F0F92F96E9BB279395F69556
:103BF000879577956795B795F111F8CFFAF4BB0FD4
:103C000011F460FF1BC06F5F7F4F8F4F9F4F16C037
:103C1000882311F096E911C0772321F09EE8872FC1
:103C2000762F05C0662371F096E8862F70E060E07D
:103C30002AF09A95660F771F881FDAF7880F9695F6
:103C4000879597F90895990F0008550FAA0BE0E89A
:103C5000FEEF16161706E807F907C0F0121613064E
:103C6000E407F50798F0621B730B840B950B39F48E
:103C70000A2661F0232B242B252B21F408950A26F4
:103C800009F4A140A6958FEF811D811D089597F934
:103C90009F6780E870E060E00895882371F47723DF
:103CA00021F09850872B762F07C0662311F49927AF
:103CB0000DC09051862B70E060E02AF09A95660F57
:103CC000771F881FDAF7880F9695879597F90895DB
:103CD0009F3F31F0915020F4879577956795B79580
:103CE000880F911D9695879597F908959FEF80EC21
:103CF000089500240A941616170618060906089552
:103D000000240A9412161306140605060895092EB7
:103D10000394000C11F4882352F0BB0F40F4BF2B26
:103D200011F460FF04C06F5F7F4F8F4F9F4F089566
:103D300057FD9058440F551F59F05F3F71F047955C
:103D4000880F97FB991F61F09F3F79F08795089541
:103D5000121613061406551FF2CF4695F1DF08C060
:103D6000161617061806991FF1CF8695710561057D
:103D7000089408950E94A01EA0F0BEE7B91788F429
:103D8000BB279F3860F41616B11D672F782F882740
:103D9000985FF7CF869577956795B11D939596397E
:103DA000C8F30895E894BB2766277727CB0197F9D6
:103DB00008950E94231E08F48FEF0895FA01EE0F74
:103DC000FF1F309621053105A1F16115710561F4E0
:103DD0008038BFE39B0749F168949038810561F012
:103DE0008038BFEF9B0741F099234AF5FF3FE1057B
:103DF0003105210519F1E8940894E795D901AA2322
:103E000029F4AB2FBE2FF85FD0F310C0FF5F70F422
:103E1000A695E0F7F73950F019F0FF3A38F49F779C
:103E20009F930DD00F9007FC9058089546F00C9486
:103E3000761E60E070E080E89FE308954FE79F778B
:103E40005F934F933F932F930E94D91F2F913F91E0
:103E50004F915F910E9455200C94361F29F416F063
:103E60000C94471E0C94D21E0C94761E0E94A01E29
:103E7000A8F39638A0F707F80F92E8942BE33AEAF4
:103E800048EB5FE70E946B200F920F920F924DB7A5
:103E90005EB70F920E942120E8E6F0E00E94681FC2
:103EA0004F915F91EF91FF91E595EE1FFF1F49F054
:103EB000FE57E0684427EE0F441FFA95E1F741955D
:103EC000550B0E949B1F0F9007FE0C948F1F0895A7
:103ED000DF93CF931F930F93FF92EF92DF927B01BB
:103EE0008C01689406C0DA2EEF010E946820FE0162
:103EF000E894A5912591359145915591A6F3EF014F
:103F00000E94CD1CFE019701A801DA9469F7DF90A9
:103F1000EF90FF900F911F91CF91DF9108959B013A
:103F2000AC0160E070E080E89FE30C943E1D0C94CF
:103F3000471E0C94681E0E94A01ED8F39923C9F353
:103F4000940F511DA3F39150504094F059F08823E1
:103F500032F0660F771F881F91505040C1F79E3F87
:103F600051052CF7880F911D9695879597F908951F
:103F70005F3FACF0983E9CF0BB27869577956795A0
:103F8000B79508F4B1609395C1F7BB0F58F711F4DA
:103F900060FFE8CF6F5F7F4F8F4F9F4FE3CF0C9451
:103FA000D31E16F00C94681E0C94761E68940C9424
:103FB000471E0E94A01EA8F39923C1F3AEF3DF931E
:103FC000CF931F930F93FF92C92FDD2788232AF0E9
:103FD0002197660F771F881FDAF720E030E040E86E
:103FE0005FEB9FE3883920F0803E38F021968F7791
:103FF0000E94B61CE0E9F0E004C00E94B61CEDEBA4
:10400000F0E00E94681F8B01BE01EC01FB2E6F5790
:1040100071097595771F880B990B0E94E81D28E19F
:1040200032E741E35FE30E946820AF2D9801AE01C3
:10403000FF900F911F91CF91DF910E94CD1C0C94A6
:10404000871EFA01DC01AA0FBB1F9B01AC01BF5701
:1040500028F4222733274427507820C0B75190F402
:10406000AB2F0024469537952795011CA395D2F3D5
:10407000002071F0220F331F441FB395DAF30ED0E6
:104080000C94B51C61307105A0E88A07B94630F47C
:104090009B01AC016627772788279078309621F01E
:1040A000208331834283538308950E9468200C94B7
:1040B000871E0E94791E38F00E94801E20F09523F2
:1040C00011F00C94471E0C94761E11240C94D31EF0
:1040D0000E94981E70F3959FC1F3950F50E0551FF5
:1040E000629FF001729FBB27F00DB11D639FAA274D
:1040F000F00DB11DAA1F649F6627B00DA11D661F9C
:10410000829F2227B00DA11D621F739FB00DA11DBC
:10411000621F839FA00D611D221F749F3327A00D76
:10412000611D231F849F600D211D822F762F6A2F12
:1041300011249F5750409AF0F1F088234AF0EE0F77
:10414000FF1FBB1F661F771F881F91505040A9F7A4
:104150009E3F510580F00C94471E0C94D31E5F3F88
:10416000E4F3983ED4F3869577956795B795F795E0
:10417000E7959F5FC1F7FE2B880F911D9695879558
:1041800097F90895DB018F939F930E942D21BF9192
:10419000AF91A29F800D911DA39F900DB29F900D96
:1041A0001124089597FB072E16F4009407D077FD8D
:1041B00009D00E94402107FC05D03EF490958195DE
:1041C0009F4F0895709561957F4F0895A1E21A2E33
:1041D000AA1BBB1BFD010DC0AA1FBB1FEE1FFF1FAB
:1041E000A217B307E407F50720F0A21BB30BE40BFB
:1041F000F50B661F771F881F991F1A9469F7609542
:104200007095809590959B01AC01BD01CF010895FB
:10421000052E97FB1EF400940E941F2157FD07D026
:104220000E94E62007FC03D04EF40C941F21509509
:104230004095309521953F4F4F4F5F4F0895909592
:104240008095709561957F4F8F4F9F4F0895EE0F2A
:10425000FF1F0590F491E02D09940E945421A59F21
:10426000900DB49F900DA49F800D911D1124089571
:10427000B7FF0C942D210E942D21821B930B0895D2
:10428000AA1BBB1B51E107C0AA1FBB1FA617B7077C
:1042900010F0A61BB70B881F991F5A95A9F7809598
:1042A0009095BC01CD010895A29FB001B39FC001BC
:1042B000A39F700D811D1124911DB29F700D811D52
:1042C0001124911D0895DC0101C06D9341505040AF
:1042D000E0F70895FB01DC014150504030F08D9132
:1042E0000190801919F40020B9F7881B990B0895E3
:1042F000FB01DC014150504048F001900D9200203C
:10430000C9F701C01D9241505040E0F70895F8945C
:02431000FFCFDD
:10431200010102FF010106020501006A180000D432
:10432200300053746174696F6E204E616D650000D8
:10433200000000D0017B4CD0248D4C60F5904CB82D
:1043420032B54C78F0A54C60FECD4C4054094DD0AE
:10435200240D4D8845C84DA493D64D0C1DE04D4EFD
:10436200844D4E0024744CDAF89A4E04030503601F
:1043720061626300000000DE03B1030D048703AA3B
:10438200039703880300000000F805F3020D0420E0
:104392000320646563696D616C0020646563696D07
:1043A200616C7300312E36204D487A00332E322054
:1043B2004D487A0068696768006C6F7720006F6EFD
:1043C20020006F6666003E3E003C3C0049324320BE
:1043D20046414C4C4241434B0049324320455252E4
:1043E2004F5200504C4C20436F6E74726F6C0056EB
:1043F200322E340028432932303235204C6F656E1C
:10440200696500534554200045584954204D454E96
:1044120055003E200073617665206368616E6765B2
:104422007300646973636172640063616E63656CD7
:104432000056434F2053455454494E475300534569
:104442005420746F20656E74657200504C4C20537A
:10445200455454494E47530047454E4552414C201E
:1044620053455454494E47530053455420746F20CA
:1044720070726F63656564004652455155454E43FF
:10448200592042414E44002D0053455420746F2060
:1044920073656C65637400505245434953494F4EEE
:1044A20000455849542053455454494E47530053EC
:1044B200455420746F20636F6E6669726D004932D5
:1044C200432041444452455353003E203078005823
:1044D20054414C204652455155454E43590043489C
:1044E200415247452050554D5000504F5254204D97
:1044F200415050494E47006E6F6E6500756E6C6F8D
:10450200636B65643A200052462064726976653AAC
:10451200200053544154494F4E204E414D450053C3
:10452200455420746F2065646974004241434B4CCA
:10453200494748542044494D4D4552004C4F434B46
:104542002000202020202000726573746F72696E33
:10455200672030780053455420746F20726573745D
:04456200617274000E
:00000001FF
