:100000000C9420010C9448010C9448010C94480174
:100010000C9448010C9448010C9448010C9448013C
:100020000C9448010C9448010C9448010C9448012C
:100030000C9448010C9448010C9448010C9448011C
:100040000C94B8120C9448010C9448010C9448018B
:100050000C9448010C9448010C9448010C944801FC
:100060000C9402130C94480107634236B79BD8A73F
:100070001A39685618AEBAAB558C1D3CB7CC5763CD
:10008000BD6DEDFD753EF6177231BF000000803F7B
:1000900008000000BE922449123EABAAAA2ABECD97
:1000A000CCCC4C3E00000080BEABAAAAAA3E000009
:1000B0000000BF000000803F000000000008417801
:1000C000D3BB4387D1133D190E3CC3BD4282AD2B38
:1000D0003E68EC8276BED98FE1A93E4C80EFFFBE30
:1000E00001C4FF7F3F000000000000407A10F35A77
:1000F00000A0724E18090010A5D4E80000E8764868
:10010000170000E40B54020000CA9A3B000000E113
:10011000F505000080969800000040420F000000A6
:10012000A08601000000102700000000E803000086
:1001300000006400000000000A0000000000010050
:10014000000000002C76D888DC674F0823DFC1DF71
:10015000AE59E1B1B796E5E3E453C63AE651997674
:1001600096E8E6C28426EB898C9B62ED407C6FFCAE
:10017000EFBC9C9F40F2BAA56FA5F490055A2AF7F0
:100180005C936B6CF9676DC11BFCE0E40D47FEF5F9
:1001900020E6B500D0ED902E030094357705008061
:1001A000841E080000204E0A000000C80C333333C0
:1001B000330F986E12831141EF8D2114893BE65560
:1001C00016CFFEE6DB18D1844B381BF77C1D901D43
:1001D000A4BBE424203284725E228100C9F124ECA5
:1001E000A1E53D2700000000240027002A000000B0
:1001F0000000250028002B0000000000230026003E
:100200002900040404040404040402020202020299
:1002100003030303030301020408102040800102CA
:100220000408102001020408102000000008000249
:10023000010000030407000000000000000021147A
:1002400011241FBECFEFD8E0DEBFCDBF13E0A0E08A
:10025000B1E0E6E9F1E402C005900D92A235B107E4
:10026000D9F724E0A2E5B3E001C01D92A23CB20799
:10027000E1F711E0C0E2D1E004C02197FE010E9445
:100280006920CF31D107C9F70E945A140C94C920B4
:100290000C940000833081F028F4813099F0823092
:1002A000A9F008958730A9F08830C9F08430B1F4FE
:1002B000809180008F7D03C0809180008F77809334
:1002C0008000089584B58F7784BD089584B58F7DAF
:1002D000FBCF8091B0008F778093B000089580911C
:1002E000B0008F7DF9CFCF93DF93282F30E0F90155
:1002F000E65DFD4F8491F901EA5EFD4FD491F9016D
:10030000EE5FFD4FC491CC23A1F081110E944A0100
:10031000EC2FF0E0EE0FFF1FE850FE4FA591B491D7
:10032000EC91ED2381E090E009F480E0DF91CF9142
:10033000089580E090E0FACF1F93CF93DF93282FAA
:1003400030E0F901E65DFD4F8491F901EA5EFD4F71
:10035000D491F901EE5FFD4FC491CC23A9F0162F83
:1003600081110E944A01EC2FF0E0EE0FFF1FE251D5
:10037000FE4FA591B4918FB7F894EC91111108C07C
:10038000D095DE23DC938FBFDF91CF911F9108952D
:10039000DE2BF8CFCF93DF9390E0FC01EA5EFD4FB8
:1003A00024918E5F9D4FFC0184918823D1F090E0D1
:1003B000880F991FFC01EC51FE4FA591B491FC01EF
:1003C000E251FE4FC591D491623071F49FB7F89419
:1003D0003C91822F809583238C93E8812E2B288358
:1003E0009FBFDF91CF9108958FB7F894EC912E2B9A
:1003F0002C938FBFF6CFCF93DF93EC0161E086E0C3
:100400000E94CA01209731F460E086E0DF91CF912D
:100410000C949C01CF3FD10511F461E0F6CFE0E3ED
:10042000F2E0E491E33029F140F4E130B1F0E23060
:10043000D9F0C038D1058CF7E7CFE73021F1E830AB
:1004400051F1E430B1F780918000806280938000A8
:10045000D0938B00C0938A0004C084B5806884BDAB
:10046000C7BDDF91CF91089584B5806284BDC8BDBA
:10047000F8CF80918000806880938000D0938900BD
:10048000C0938800EECF8091B00080688093B00068
:10049000C093B300E6CF8091B00080628093B0003B
:1004A000C093B400DECF3FB7F8948091930490914D
:1004B0009404A0919504B091960426B5A89B05C01C
:1004C0002F3F19F00196A11DB11D3FBFBA2FA92FD3
:1004D000982F8827BC01CD01620F711D811D911DD0
:1004E00042E0660F771F881F991F4A95D1F708953C
:1004F0008F929F92AF92BF92CF92DF92EF92FF9234
:100500004B015C010E9453026B017C010E9453026B
:100510006C197D098E099F09683E7340810591051C
:10052000A8F321E0821A9108A108B10888EEC80E4C
:1005300083E0D81EE11CF11C81149104A104B104D4
:1005400029F7FF90EF90DF90CF90BF90AF909F90F2
:100550008F9008952FB7F89460918F047091900454
:1005600080919104909192042FBF0895CF92DF92D1
:10057000EF92FF920F931F930E94AA02009198049A
:100580001091990420919A0430919B046B017C0195
:10059000C01AD10AE20AF30A970186010A3F11053F
:1005A00021053105B8F06093980470939904809305
:1005B0009A0490939B046091970481E0682760936C
:1005C000970485E01F910F91FF90EF90DF90CF90FF
:1005D0000C949C011F910F91FF90EF90DF90CF90B2
:1005E000089508950895AF92BF92CF92DF92EF924F
:1005F000FF920F931F93CF93DF936C017B018B01CD
:10060000040F151FEB015E01AE18BF08C017D1071C
:1006100059F06991D601ED91FC910190F081E02DA6
:10062000C6010995892B79F7C501DF91CF911F91FB
:100630000F91FF90EF90DF90CF90BF90AF90089513
:1006400008952091D003260F3327331F213231051F
:10065000ECF42091F403FC0190E080E0243069F098
:1006600082E00895A091D0032191AC0140555C4FE8
:10067000A40FB52FB11D2C930196861798F3809186
:10068000D003680F6093D00380E0089581E008955F
:100690001092F40381E08093F6031092F50361E079
:1006A00082E10E949C0161E083E10E949C01E9EBF0
:1006B000F0E080818E7F808380818D7F808388E4DD
:1006C0008093B80085E48093BC000895CF93DF93B6
:1006D00091E0909327048823B9F0C091B800D0919D
:1006E000BA008091BC008A7B8093BC0060E082E10C
:1006F0000E949C0160E083E10E949C010E944803EB
:10070000D093BA00C093B800DF91CF9108950895B7
:10071000E091210480912004E81730F4F0E0E057E4
:10072000FC4F808190E008958FEF9FEF08959091A6
:100730002104809120042FEF3FEF981748F4E92F10
:10074000F0E0E057FC4F208130E09F5F9093210460
:10075000C90108958091200490912104891B990B6F
:100760000895CF92DF92EF92FF920F931F93CF9352
:10077000DF937C01CB018A0120918F03222389F032
:10078000EB016B01C40ED51ECC15DD0569F0699136
:10079000D701ED91FC910190F081E02DC701099501
:1007A000F3CF642F0E942103C801DF91CF911F91E5
:1007B0000F91FF90EF90DF90CF900895CF93DF934C
:1007C0001F92CDB7DEB7698320918F032223F9F002
:1007D00020911E04203258F021E030E0FC013383E8
:1007E000228390E080E00F90DF91CF910895809177
:1007F0001F04E82FF0E0E159FC4F998190838F5F4F
:1008000080931F0480931E0481E090E0ECCF61E0B0
:10081000CE0101960E942103F7CF90E080E0089579
:10082000E091010184E0E89FF0011124E85FFE4FB0
:10083000608171818281938129E096958795779572
:1008400067952A95D1F733E0660F771F881F991FA8
:100850003A95D1F708958F929F92AF92BF920F93DE
:100860001F93CF93DF93CDB7DEB7A1970FB6F89460
:10087000DEBF0FBECDBF19A2423008F44AE08E01A0
:100880000F5D1F4F842E912CB12CA12CA50194013A
:100890000E942820E62FB901CA01EA3044F5E05D44
:1008A000D801EE938D01232B242B252B79F790E093
:1008B00080E0109769F0FD0101900020E9F7319781
:1008C000AF014A1B5B0BBD018AEA94E00E94F30270
:1008D000A1960FB6F894DEBF0FBECDBFDF91CF91CA
:1008E0001F910F91BF90AF909F908F900895E95CFA
:1008F000D7CFFC0101900020E9F73197AF01481BE9
:10090000590BBC018AEA94E00C94F302EF92FF9237
:100910000F931F93CF93DF937C018C01CAE0D0E04B
:10092000CE010E94AA1BF80181938F012196CB3141
:10093000D105B1F7C701DF91CF911F910F91FF90C2
:10094000EF900895CF92DF92EF92FF920F931F9353
:10095000CF93DF9300D000D0CDB7DEB794E0899F6E
:10096000700111248701065A1F4FFE0131966F0155
:10097000FEE5EF0EF11CC8010E94AA1BF60181934F
:100980006F010F5F1F4FE016F106A9F769817A81A9
:100990008B819C810F900F900F900F90DF91CF91E2
:1009A0001F910F91FF90EF90DF90CF9008950C94DE
:1009B000AA1BCF93DF93EC0160E08E810E949C0123
:1009C00061E08E810E949C0160E08E810E949C010A
:1009D0008BE891E00197F1F7DF91CF910895CF92E5
:1009E000DF92EF92FF920F931F93CF93DF936C01EF
:1009F0007C0187E0E80EF11CD0E0C0E0062F10E09B
:100A0000B8010C2E02C0759567950A94E2F76170E3
:100A1000F70181917F010E949C012196C430D1058C
:100A200079F7C601DF91CF911F910F91FF90EF9061
:100A3000DF90CF900C94D904CF92DF92EF92FF9287
:100A40000F931F93CF93DF93EC01F62E642F8C81CD
:100A50000E949C018D818F3F19F060E00E949C01F3
:100A60000F2D10E08F8584FF25C06E0187E0C80E32
:100A7000D11CF12CE12CB8010E2C02C075956795A4
:100A80000A94E2F76170F60181916F010E949C0166
:100A9000FFEFEF1AFF0A88E0E816F10461F7CE01D4
:100AA000DF91CF911F910F91FF90EF90DF90CF904A
:100AB0000C94D904B80184E0759567958A95E1F79F
:100AC000CE010E94EF046F2DCE01DF91CF911F91D7
:100AD0000F91FF90EF90DF90CF900C94EF0440E0E7
:100AE000682F8AEA94E00C941C0581E00E946F054F
:100AF0008BE39FE10197F1F70895CF93DF93823065
:100B000029F49091B90498609093B9048093BD043E
:100B10001092BE0480E48093BF0480E18093C004FF
:100B200080E58093C10461E08091AE040E94CA0117
:100B30008091AF048F3F19F061E00E94CA0161E02B
:100B40008091B0040E94CA01CAEAD4E09E012A5AE8
:100B500034408091B90484FD0BC084E090E021967C
:100B60002817390744F461E08E810E94CA01EECF54
:100B700088E090E0F4CF8BE39DE00197F1F760E02F
:100B80008091AE040E949C0160E08091B0040E94BC
:100B90009C018091AF048F3F19F060E00E949C019E
:100BA0008091B90484FD34C063E08AEA94E00E9435
:100BB000EF04CBE4D6E4CE010197F1F763E08AEAD3
:100BC00094E00E94EF042197F1F763E08AEA94E051
:100BD0000E94EF0483E592E00197F1F762E08AEA70
:100BE00094E00E94EF048091B90480620E946F0536
:100BF00084E08093BA048CE00E946F050E94750522
:100C000082E08093BB0486E0DF91CF910C946F0566
:100C100080620E946F058BE496E40197F1F7809162
:100C2000B90480620E946F0583E592E00197F1F7B5
:100C30008091B90480620E946F05D5CF9091BD0468
:100C4000691710F06FEF690FE62FF0E0E655FB4FE4
:100C50009489890F80680C946F0541E00E941C05FF
:100C600081E090E00895CF92DF92EF92FF9297FF9C
:100C700018C06B017C0141E06DE28AEA94E00E94B9
:100C80001C0566277727CB016C197D098E099F0902
:100C90004AE00E942B040196FF90EF90DF90CF90E6
:100CA00008954AE0FF90EF90DF90CF900C942B04D2
:100CB00085ED8093BC008091230490912404A09141
:100CC0002504B09126040796A11DB11D23E0B69519
:100CD000A795979587952A95D1F72091BC0024FD7B
:100CE00003C01092F403089540912304509124040A
:100CF0006091250470912604452B462B472B69F300
:100D00000097A105B10541F02AE22A95F1F700C04C
:100D10000197A109B109E1CF809122040C946603E7
:100D2000DF92EF92FF920F931F93CF93DF93CDB794
:100D3000DEB729970FB6F894DEBF0FBECDBFD82E11
:100D40006091400470914104809142049091430469
:100D50000E942A1D20E034E244E759E40E94801CEE
:100D60009E012F5F3F4F790189012091020148E0E8
:100D70000E945519F70101900020E9F78E2D8E1B76
:100D80006D2D835F0E941E06C7010E9479048DE9C4
:100D900091E00E94790429960FB6F894DEBF0FBE49
:100DA000CDBFDF91CF911F910F91FF90EF90DF901A
:100DB00008958F929F92AF92BF92CF92DF92EF925F
:100DC000FF920E9410046B017C016091020164306B
:100DD00008F063E070E0719561957109072E000CD1
:100DE000880B990B0E942A1D9B01AC0160E070E00A
:100DF00080E291E40E94201E4B015C01C701B60114
:100E00000E94281D20E034E244E759E40E94801C3F
:100E10009B01AC01C501B4010E94801C0E94641CAE
:100E20000E94F91C862FFF90EF90DF90CF90BF902B
:100E3000AF909F908F9008954F925F926F927F92A4
:100E40008F929F92AF92BF92CF92DF92EF92FF92DA
:100E50001F93CF93DF93982E5B01142FE9010E941B
:100E6000AA026B017C01F501992009F4DEC08081A2
:100E700081112CC0C0926303D0926403E092650399
:100E8000F0926603C0925F03D0926003E092610328
:100E9000F0926203C0925B03D0925C03E0925D0328
:100EA000F0925E0381E08083812FFE01DF91CF917C
:100EB0001F91FF90EF90DF90CF90BF90AF909F90E9
:100EC0008F907F906F905F904F9009948091630313
:100ED00090916403A0916503B091660346015701A8
:100EE000881A990AAA0ABB0A80914404882309F443
:100EF00068C0F8EE8F16F3E09F06A104B10408F471
:100F000050C00E94D906782E0E9410049B01AC01AB
:100F1000A72DB0E00E946F200E94281D20E030E045
:100F20004AEF53E40E94801C2B013C01C501B4012F
:100F3000685E73408109910928EE33E040E050E09B
:100F40000E942820CA01B9010E94281D23E333E32F
:100F500043E35FE30E94F81B9B01AC01C301B201B4
:100F60000E94801C0E94F91C80905F039090600397
:100F7000A0906103B0906203A70196012819390976
:100F80004A095B0949015A0186169706A806B9065F
:100F900040F080917E0490918D049923F1F08111AD
:100FA0001EC0DF91CF911F91FF90EF90DF90CF9007
:100FB000BF90AF909F908F907F906F905F904F9079
:100FC000089528EE821623E09206A104B10448F3A6
:100FD00060E570E080E090E0C7CF8823A9F08091C1
:100FE0005B0390915C03A0915D03B0915E03A70148
:100FF0009601281B390B4A0B5B0BDA01C901883CAF
:101000009105A105B10568F2C0925F03D09260031B
:10101000E0926103F0926203C0925B03D0925C03A2
:10102000E0925D03F0925E033FCF1082BACF7F92D1
:101030008F929F92AF92BF92CF92DF92EF92FF92E8
:101040000F931F93CF93DF934B015C01742E0E948B
:1010500010046B017C010E94281D8B01D82FC92F21
:101060009401A5010E941B1E1816A4F0AFEFBFE764
:10107000A70196010E946F200E94281D8B01D82F86
:10108000C92F9401A5010E947B1C87FD03C0840128
:10109000DA2DCB2D61E070E080E090E0772031F038
:1010A0000E94D906682F70E090E080E0A7019601C9
:1010B0000E9404206B017C010E94281D9B01AC0151
:1010C000B8018D2F9C2F0E94801C4B015C0120E0F9
:1010D00030E0A9010E941B1E20E030E040E05FE309
:1010E00087FD1AC0C501B4010E94F81B0E94F21CC2
:1010F0009B01AC01C701B6010E940420DF91CF9192
:101100001F910F91FF90EF90DF90CF90BF90AF9025
:101110009F908F907F900895C501B4010E94F71BA6
:10112000E5CF4F925F926F927F928F929F92AF9294
:10113000BF92CF92DF92EF92FF92CF93DF93C82FAF
:10114000843009F405C28091BA048D7F8093BA047B
:1011500088600E946F05C150C73068F4EC2FF0E042
:10116000EC54F74F0C946920DF08E9080609A80A37
:10117000CC0A200B390B0E94750580ED91E00E948E
:10118000790483E393E00E9479048CED91E00E945E
:10119000790461E080E00E941E0681EE91E0DF911B
:1011A000CF91FF90EF90DF90CF90BF90AF909F9046
:1011B0008F907F906F905F904F900C94790480E0B7
:1011C0000E94900661E080E00E941E068CE494E09C
:1011D000E6CF80914404811107C061E00E941E06A1
:1011E00080EF91E00E94790481E00E949006DF91F7
:1011F000CF91FF90EF90DF90CF90BF90AF909F90F6
:101200008F907F906F905F904F9008950E9475052A
:1012100080917F04882301F160E080E00E941E0637
:1012200085EF91E00E94790461E080E00E941E0653
:101230008FEF91E00E94790480916F04813049F032
:1012400028F08230A1F687E192E0A9CF82E092E017
:10125000A6CF8FE092E0A3CF80917004811126C0C9
:1012600080916F048130E1F080F08230E1F08330D2
:1012700009F0BDCF85EF91E00E94790461E080E044
:101280000E941E0686E592E08ACF8EE192E00E94DF
:10129000790461E080E00E941E068BE292E07FCF3D
:1012A00088E392E0F4CF85E492E0F1CF813009F059
:1012B0007CC080916F04813009F455C020F08230E9
:1012C00009F49FC094CF85E692E00E94790461E022
:1012D00080E00E941E0680916E04882309F440C0BD
:1012E000C0916E0328E0C29FE0011124CF5DDE4F64
:1012F000688179818A819B8141E00E9417082B01D6
:101300003C016C817D818E819F8141E00E941708A4
:101310004B015C018FEF91E00E94790480E4C82EBC
:1013200082E4D82E8FE0E82EF12CC301B201A70190
:1013300096010E944A20CA01B9010E94330684E73F
:1013400092E00E947904C501B401A70196010E94B0
:101350004A20CA01B9010E9433068DE991E01FCFEE
:1013600086E792E01CCF84E892E00E94790461E075
:1013700080E00E941E0680916E04882389F38FEF1F
:1013800091E00E9479046091020170E090E080E0B9
:101390004AE00E942B0480910201813019F088E814
:1013A00091E0FDCE8FE791E0FACE823009F0A1C046
:1013B00080916F04823009F45DC0E8F4882361F104
:1013C000813009F014CF8CEB92E00E94790461E047
:1013D00080E00E941E0680916E04882309F28FEF40
:1013E00091E00E94790480910101882309F43FC0B3
:1013F0008AE991E0D4CE833009F457C0843009F0F3
:10140000F6CE8EE892E00E94790461E080E00E94CE
:101410001E068CE992E0C3CE8BEA92E00E9479042A
:1014200061E080E00E941E0680916E04882309F42A
:1014300097CF87EB92E00E947904E091A904F0E055
:10144000E558FE4F608170E090E080E040E1DF9180
:10145000CF91FF90EF90DF90CF90BF90AF909F9093
:101460008F907F906F905F904F900C942B0482E947
:1014700091E095CE8BEC92E00E94790461E080E0EF
:101480000E941E0680916E04882309F469CF8FEFB5
:1014900091E00E94790480910601811103C082EAE3
:1014A00091E07DCE8FEE92E07ACE87ED92E00E94C1
:1014B000790461E080E00E941E0680916E0488231A
:1014C00009F44ECF8FEF91E00E94790480910501DD
:1014D000813049F028F0823049F084EF92E05FCE0D
:1014E00084EE92E05CCE8CEE92E059CE87EF92E0F3
:1014F00056CE833009F07BCE80916F04813069F045
:1015000008F0DDCE8FEF92E00E94790461E080E088
:101510000E941E068CE093E042CE88E193E00E9498
:10152000790461E080E00E941E0680916E048823A9
:1015300009F416CF8FEF91E00E9479048091310475
:10154000811103C08BEA91E02ACE87EA91E027CE91
:1015500061E080E00E941E068DE594E00E9479041F
:1015600061E080916D030E941E068091BA04982F5D
:1015700092609093BA048A60DF91CF91FF90EF90D0
:10158000DF90CF90BF90AF909F908F907F906F90A3
:101590005F904F900C946F0560E080E00E941E0603
:1015A00080918704882319F089E293E0F8CD0E94A6
:1015B000AA02C0906903D0906A03E0906B03F09098
:1015C0006C039B01AC012C193D094E095F096901AF
:1015D0007A013AEFC316D104E104F10408F407CE0E
:1015E0006093690370936A0380936B0390936C0319
:1015F0008FE293E00E94790460E0809168030E948A
:101600001E0680910001811118C082EB91E00E94BA
:101610007904909100018FEF911181E0209168038E
:10162000820F80936803882319F0833009F0DFCD9F
:1016300081E0982790930001DACD8FEA91E0E7CF1F
:1016400080913204882381F0DF91CF91FF90EF9059
:10165000DF90CF90BF90AF909F908F907F906F90D2
:101660005F904F900C94750581E00E949108C5E051
:101670006ACD61E086E00E949C010E947505809120
:101680002804811113C086EC91E00E94790461E086
:1016900080E00E941E0680912804882351F085E393
:1016A00093E00E9479046091A804CDCE85EB91E08F
:1016B000ECCF82E493E073CD2F923F924F925F92F2
:1016C0006F927F928F929F92AF92BF92CF92DF9252
:1016D000EF92FF920F931F93CF93DF9300D01F924F
:1016E000CDB7DEB7D82EF62E042FE52E2B83862F0E
:1016F000880F89831AE088248A9485EE982E95ECC9
:10170000C92EA22EB12C922F91509A83DD2009F47C
:10171000F0C00E9453022B013C018091F40381111F
:1017200065C0E1E0E093F403E093F6038092F303F5
:1017300010921804FA81F0931704E0931904809131
:1017400019049981892B809319048091F5038130C4
:1017500009F08BC01092F5030E9453022B013C014B
:10176000809119048093BB008091230490912404FC
:10177000A0912504B0912604892B8A2B8B2BA1F0F4
:101780000E945302209123043091240440912504A7
:101790005091260464197509860997092617370799
:1017A0004807590708F443C08091BC0083FDD8CF97
:1017B000C092BC000E9453022B013C018091F403B3
:1017C000813009F455C080911804EB818E1708F020
:1017D00071C080911804E7EFF3E0A0E9B3E090E076
:1017E000981751F121912D939F5FFACF8091230497
:1017F00090912404A0912504B0912604892B8A2B72
:101800008B2B09F48ACF0E9453022091230430913C
:101810002404409125045091260464197509860911
:101820009709261737074807590708F076CF8091A0
:1018300022040E94660380E0109221048093200419
:10184000FB81F81339C00983C02EDE2C8C2D9981C1
:10185000891BEB818E1708F007C18CE994E00E9488
:101860009703F60181936F01F1CF9092BC00A2CF54
:101870008091230490912404A0912504B091260422
:10188000892B8A2B8B2B09F499CF0E94530220912C
:1018900023043091240440912504509126046419B6
:1018A000750986099709261737074807590708F069
:1018B00085CFBDCF8B818FCF62E370E080E090E079
:1018C0000E947802115009F021CF80918D0481117E
:1018D0002FC160E085E00E949C0187E00E94910892
:1018E00083E00E947301892B09F004C10E94B602B3
:1018F000F7CFF1E0F0938F03F092670310921F048B
:1019000010921E048B81882339F0A501602F7E2D53
:101910008CE994E00E94B10330901E0490E281E0D3
:10192000931508F499C0209067030E9453022B017D
:101930003C018091F403811169C0E2E0E093F4037B
:10194000F1E0F093F6038092F303109218043092C2
:101950001704EFE6F3E0A7EFB3E038129CC0109253
:10196000190480911904220C282A209219048091CC
:10197000F503813009F093C01092F5030E945302E1
:101980002B013C01809119048093BB0080912304BA
:1019900090912404A0912504B0912604892B8A2BD0
:1019A0008B2BA1F00E945302209123043091240438
:1019B00040912504509126046419750986099709F8
:1019C000261737074807590708F441C08091BC0023
:1019D00083FDD8CFC092BC000E9453022B013C0172
:1019E0008091F403823009F45DC08091F3038F3F4E
:1019F00009F47AC08091F303803209F477C08091B2
:101A0000F303803309F474C084E026C0809123047A
:101A100090912404A0912504B0912604892B8A2B4F
:101A20008B2B09F486CF0E9453022091230430911E
:101A300024044091250450912604641975098609EF
:101A40009709261737074807590708F072CF809182
:101A500022040E94660385E010921F0410921E0467
:101A600010928F03811128CF81E00F900F900F907B
:101A7000DF91CF911F910F91FF90EF90DF90CF906A
:101A8000BF90AF909F908F907F906F905F904F909E
:101A90003F902F90089591919D938F5F5ECF90928C
:101AA000BC009ACF8091230490912404A091250436
:101AB000B0912604892B8A2B8B2B09F491CF0E949D
:101AC0005302209123043091240440912504509125
:101AD00026046419750986099709261737074807E8
:101AE000590708F07DCFB3CF80E0B6CF82E0B4CF06
:101AF00083E0B2CF0E94B60283E00E947301892B7B
:101B0000C9F783E00E947301892B19F40E94B60281
:101B1000F8CF60E085E00E949C0188E198E00FB674
:101B2000F894A895809360000FBE90936000FFCF5B
:101B300080E09BCFCF92DF92EF92FF920E94AA02A9
:101B40006B017C0180916D038F3068F110927E04EF
:101B500010926D0310926E0410927F0410926D0427
:101B600040E150E06DE574E08CE494E00E94BA201E
:101B700010925C0483E00E9491088CE2C80E81E020
:101B8000D81EE11CF11CC0927A04D0927B04E09232
:101B90007C04F0927D0481E080937904FF90EF90C3
:101BA000DF90CF9008958F5F80936D0384E0FF9066
:101BB000EF90DF90CF900C949108E0916D03F0E0EE
:101BC000E35AFB4F2081022E000C330B20523109C7
:101BD000A901480F511D87FD5A95CA01805A9F4F90
:101BE00060E670E00E941420805E808384E00C94A4
:101BF000910810926E0483E00C9491088091060184
:101C000091E089278093060183E00C9491088091EC
:101C1000310491E089278093310483E00C9491088A
:101C20008091310491E089278093310483E00C9402
:101C3000910880910501833018F48F5F809305012E
:101C400083E00C94910880910501882319F081505C
:101C50008093050183E00C9491088091060191E046
:101C600089278093060183E00C94910881E080939A
:101C7000010182E08093020183E00C9491081092AC
:101C8000010180910201833018F483E08093020106
:101C900083E00C9491088091A904833018F48F5F3D
:101CA0008093A90483E00C9491088091A90488236F
:101CB00019F081508093A90483E00C9491088091DD
:101CC0000201282F30E090910101992339F0223050
:101CD00031053CF082E006C083E004C023303105CA
:101CE000DCF78F5F8093020183E00C949108809170
:101CF0000201882361F08150990B20910101222378
:101D000059F022E030E0281739070CF4C90180931C
:101D1000020183E00C94910823E030E0F4CF80913D
:101D20006E03863018F48F5F80936E0383E00C940B
:101D3000910880916E03882319F0815080936E037F
:101D400083E00C9491088091700481111FC08091F0
:101D50006F04813079F030F0823081F0833091F07F
:101D600083E043C010925A0381E080937004109284
:101D70006F04F6CF80935A0382E0F7CF80935A0323
:101D800083E0F3CF81E080937F04F1CF813059F479
:101D900080916F04823069F41092700480915A032C
:101DA00080936F04DDCF823041F480916F048430E2
:101DB00099F381E080936E04D3CF8330D1F7809183
:101DC0006F04823049F38111F4CF10926D0381E0EA
:101DD00080937E0440E150E06CE474E08DE594E093
:101DE0000E94BA2010926D0484E00C9491088091B6
:101DF0006F04823030F48F5F80936F0483E00C9423
:101E00009108089580916F04882331F08150809368
:101E10006F0483E00C94910808954F925F926F9243
:101E20007F928F929F92AF92BF92CF92DF92EF926A
:101E3000FF92CF93DF9300D000D000D0CDB7DEB7B4
:101E40008D83C0905203D0905303E0905403F090E0
:101E500055038090560390905703A0905803B0907C
:101E60005903809144048823E9F1809140049091C2
:101E70004104A0914204B091430489839A83AB83C7
:101E8000BC830E94D9068E830E9410049B01AC0182
:101E900026013701481859086A087B089E81A92F36
:101EA000B0E00E946F209B01AC014216530664060D
:101EB000750610F4A30192018D81A82F880FBB0B2A
:101EC0000E947A2049805A806B807C80460E571E83
:101ED000681E791E40924004509241046092420470
:101EE000709243048091400490914104A091420477
:101EF000B091430488159905AA05BB0550F1C81691
:101F0000D906EA06FB0610F4D501C401809340040B
:101F100090934104A0934204B093430482E00E9452
:101F2000910881E08093440426960FB6F894DEBFB2
:101F30000FBECDBFDF91CF91FF90EF90DF90CF909C
:101F4000BF90AF909F908F907F906F905F904F90D9
:101F50000895D701C601DACF8F929F92AF92BF92B8
:101F6000CF92DF92EF92FF921F93CF93DF938CE398
:101F700090E00E94AA1B80936E03873018F082E0E5
:101F800080936E0310916E0388E0189FE001112486
:101F9000CF5DDE4F688179818A819B8141E00E941B
:101FA00017086B017C01C0925603D0925703E09250
:101FB0005803F09259036C817D818E819F8141E0AD
:101FC0000E9417084B015C018092520390925303C8
:101FD000A0925403B092550360E070E0CB0117303B
:101FE00018F4812F0E94A2046C157D058E059F05B3
:101FF00060F086169706A806B90638F00E942A1DDA
:1020000040E00E9417086B017C01C0924004D0920E
:102010004104E0924204F092430488E290E00E947E
:10202000D704843010F48093020180E590E00E9490
:10203000D704843008F081E080930701E82FF0E0B6
:10204000E558FE4F80818093A80486E490E00E94CA
:10205000D704811181E08093010182E390E00E9426
:10206000D70491E0811101C090E09093060185E5CD
:1020700090E00E94D704843008F083E0809305014B
:102080008CE494E00E94860480915C0410925C04CD
:10209000ECE4F4E02CE534E0919190322CF02E1732
:1020A0003F07D1F7882381F040E150E060E171E023
:1020B0008CE494E00E94BA2044E050E060E270E0DA
:1020C00088E594E00E94A5208EE190E00E94D7046C
:1020D00091E0811101C090E090933104DF91CF91A4
:1020E0001F91FF90EF90DF90CF90BF90AF909F90A7
:1020F0008F9008950E94AC0F60914004709141044C
:1021000080914204909143040E942A1D41E00E9464
:1021100017086093400470934104809342049093A5
:10212000430410927F0410928D041092700481E099
:102130000C949108FF920F931F93CF93DF93EC01C0
:10214000F62E08811981C8010E94AA1BF81621F0F9
:102150006F2DC8010E94B21BCE01DF91CF911F915C
:102160000F91FF900895CF92DF92EF92FF920F931D
:102170001F93CF93DF93CDB7DEB72A970FB6F894AE
:10218000DEBF0FBECDBFC0904004D0904104E090B0
:102190004204F090430480913C0490913D04A0914E
:1021A0003E04B0913F04C816D906EA06FB0629F49E
:1021B00080918D04882309F465C00E9410049B015E
:1021C000AC01C701B6010E9428203D832E838EEC0E
:1021D0008F83188624E0AE014B5F5F4F6091A804A7
:1021E00080E00E945C0B882309F44CC040914004BD
:1021F00050914104609142047091430480916E03B8
:1022000049835A836B837C83873048F500913C0473
:1022100010913D0420913E0430913F044017510736
:1022200062077307E1F094E0899F8001112478012F
:10223000EAE5EE0EF11CCE0101966C01025A1F4F29
:10224000FA86E986F60161916F01CE0109960E9436
:102250009A10FFEFEF1AFF0AE016F10689F7809156
:10226000400490914104A0914204B09143048093B2
:102270003C0490933D04A0933E04B0933F0481E05E
:10228000809388042A960FB6F894DEBF0FBECDBFA8
:10229000DF91CF911F910F91FF90EF90DF90CF9042
:1022A00008954F925F926F927F92BF92CF92DF928A
:1022B000EF92FF920F931F93CF93DF93CDB7DEB7CB
:1022C00063970FB6F894DEBF0FBECDBF80916F0449
:1022D00081112CC180917E04811137C040E150E012
:1022E0006DE574E08CE494E00E94BA2010925C04E6
:1022F0008CE4E82E84E0F82E8CE594E0F70121913F
:1023000020320CF424C18E179F07C9F7CE01019625
:102310000E94860441E150E0BE016F5F7F4F8CE474
:1023200094E00E94AC20892B81F00AE010E01B8B26
:102330000A8BF70161917F01CE0142960E949A10AB
:102340000F5F1F4F0B31110591F710910701E091BD
:10235000A9041E17B9F0F0E0E558FE4F20E050E068
:1023600040E0608180E00E945C0B882309F4B6C0E5
:10237000E091A904E0930701F0E0E558FE4F808169
:102380008093A80460916E038CE390E09A83898324
:10239000CE0101960E949A106091020188E290E0BD
:1023A0009A838983CE0101960E949A106091070159
:1023B00080E590E09A838983CE0101960E949A106D
:1023C0006091010186E490E09A838983CE010196B1
:1023D0000E949A106091060182E390E09A838983BB
:1023E000CE0101960E949A106091050185E590E06A
:1023F0009A838983CE0101960E949A1060913104DC
:102400008EE190E09A838983CE0101960E949A1012
:10241000B0906E0328E0B29E800111240F5D1E4F24
:10242000F801608171818281938141E00E941708E7
:102430006B017C01C0925603D0925703E09258037F
:10244000F0925903F801648175818681978141E09A
:102450000E9417082B013C014092520350925303F3
:102460006092540370925503F6E060E070E0CB0197
:10247000FB1518F08B2D0E94A2046C157D058E05AE
:102480009F0560F0461657066806790638F00E94E8
:102490002A1D41E00E9417086B017C01C092400494
:1024A000D0924104E0924204F09243040E94B3109F
:1024B0000E947A1063960FB6F894DEBF0FBECDBFB0
:1024C000DF91CF911F910F91FF90EF90DF90CF9010
:1024D000BF907F906F905F904F9008951093070189
:1024E000E12FF0E0E558FE4F80818093A80481E061
:1024F0008093280487E00E949108109228040E948B
:10250000AA026B017C010E94AA026C197D098E0946
:102510009F09643C79408105910518F40E94B60238
:10252000F2CF60E085E00E949C012CCF813021F445
:1025300085E00E949108BCCF823009F0BBCF109299
:102540007F0410926F0483E00E949108B3CF40E1B2
:1025500050E060E171E08CE494E00E94BA2044E035
:1025600050E060E270E088E594E00E94A520CECEC5
:102570001F920F920FB60F9211242F933F938F93B8
:102580009F93AF93BF9380918F0490919004A091FB
:102590009104B091920430918E0423E0230F2D37E3
:1025A00058F50196A11DB11D20938E0480938F04D0
:1025B00090939004A0939104B0939204809193041B
:1025C00090919404A0919504B09196040196A11D58
:1025D000B11D8093930490939404A0939504B093B9
:1025E0009604BF91AF919F918F913F912F910F9042
:1025F0000FBE0F901F90189526E8230F0296A11D7D
:10260000B11DD2CF1F920F920FB60F9211242F93AC
:102610003F934F935F936F937F938F939F93AF936A
:10262000BF93EF93FF938091B900887F803609F4C0
:102630004AC0F0F5883209F4A7C018F5803109F4D2
:102640009BC0B8F4882309F4F9C0883009F494C019
:10265000FF91EF91BF91AF919F918F917F916F917A
:102660005F914F913F912F910F900FBE0F901F9050
:102670001895883109F488C0803251F78093F303AC
:1026800014C0803409F49DC040F48033B9F388331A
:10269000F9F68093F30385ECB0C0803509F485C06A
:1026A000883509F496C0883499F60E945806D0CF30
:1026B000883909F48CC038F5883729F050F4883609
:1026C00011F0803729F683E08093F4031092F2032F
:1026D00057C0883809F47BC0803919F0803809F078
:1026E000B7CF8091F203803208F071C0E091F2031D
:1026F00081E08E0F8093F2038091BB00F0E0EE52F8
:10270000FC4F80833DC0803B39F0E0F4803A09F40F
:1027100079C0883A09F09CCF84E08093F40310924A
:10272000D1031092D003E0911C04F0911D0409958F
:102730008091D00381110FC081E08093D00310926B
:10274000B00309C0803C09F4A6CF883C09F4A3CFAC
:10275000883B09F07DCFE091D10381E08E0F80931B
:10276000D103F0E0E055FC4F80818093BB00909155
:10277000D1038091D00329C0809119048093BB00BC
:1027800085EC8093BC0064CF90911804809117046D
:10279000981758F5E091180481E08E0F8093180483
:1027A000F0E0E950FC4F8081E9CFE091180481E02E
:1027B0008E0F809318048091BB00F0E0E950FC4F2D
:1027C000808390911804809117049817C8F285E8C7
:1027D000D8CFE091180481E08E0F80931804809187
:1027E000BB00F0E0E950FC4F80838091F60381113B
:1027F0005CCF81E08093F50384EA8093BC00109263
:10280000F40326CF85EC8093BC001092F4038091F2
:10281000F203803230F4E091F203F0E0EE52FC4F2C
:1028200010826091F20370E0E0911A04F0911B04B1
:1028300082ED93E009951092F2030ACF1092F30310
:1028400034CFECE9F4E01382128288EE93E0A0E04A
:10285000B0E084839583A683B78381E691E091837A
:102860008083EAEAF4E01382128283E791E09183A5
:10287000808388E084838FEF858389E086838AE084
:1028800087838BE080878CE081878DE08287138649
:10289000148615861686178681E00E947D05E091D4
:1028A0000701E093A904F0E0E558FE4F8081809392
:1028B000A8040895CF93DF9300D000D000D01F92DA
:1028C000CDB7DEB7789484B5826084BD84B581606D
:1028D00084BD85B5826085BD85B5816085BD8091EB
:1028E0006E00816080936E00109281008091810063
:1028F000826080938100809181008160809381005B
:10290000809180008160809380008091B10084601C
:102910008093B1008091B00081608093B00080917D
:102920007A00846080937A0080917A00826080933C
:102930007A0080917A00816080937A0080917A0099
:10294000806880937A001092C10062E082E00E9469
:10295000CA0162E083E00E94CA0162E084E00E9452
:10296000CA0161E085E00E94CA0161E085E00E9441
:10297000CA0161E086E00E94CA011092210410920F
:10298000200410921F0410921E040E94480381EF3D
:1029900092E090931D0480931C0482EF92E0909348
:1029A0001B0480931A0482EF8093B80010922704CE
:1029B00088E893E1A0E0B0E080932304909324049E
:1029C000A0932504B093260411E01093220482E022
:1029D0000E947D058FEF90E00E94FB0180E00E9445
:1029E000910864EC79E080E090E00E94780283E056
:1029F0000E947301892BD9F41093070181E680931B
:102A0000A80480E590E09A83898361E0CE01019675
:102A10000E949A101093280487E00E949108109257
:102A2000280464EC79E080E090E00E9478020E9443
:102A3000AC0F0E94B31081E00E94910885E00E94D3
:102A400091089EEC492E55245A94652C752C11E062
:102A500080E2282E0E94AA026B017C0182E00E9483
:102A6000730133243394892B09F0312C309286047E
:102A700083E00E94730101E0892B09F000E00093DC
:102A8000840484E00E94730121E0892B09F020E096
:102A900020938504832C800E9924991CC401820FF5
:102AA000911D02970CF400C11092850410928404C9
:102AB00010928604C0922904D0922A04E0922B043A
:102AC000F0922C0480914404811108C080918D04FF
:102AD000811104C080918704811100C110923B04D0
:102AE00080918D0481115CC03090860431100CC03F
:102AF00080918404811108C080918504811104C0F3
:102B00008091040181114CC00E94AA026B017C01DA
:102B10002DE03FE04FEF6BE474E0832D0E941C0733
:102B20002DE03FE041E06AE474E0809185040E947A
:102B30001C0780918604811104C08091850488233C
:102B400051F0C0924504D0924604E0924704F092BE
:102B500048041092040180914404882309F4B4C10C
:102B600080918404882309F4AFC10E94AA026B01FA
:102B70007C010E94B310109244049CE2C90E91E0C3
:102B8000D91EE11CF11CC0927A04D0927B04E09221
:102B90007C04F0927D0481E00E949108109304016E
:102BA0000E94AA026B017C0180918604811108C0F9
:102BB00090918504911104C090918404992341F06F
:102BC000C0928004D0928104E0928204F092830447
:102BD00020918D04222309F4A2C190917F049111C8
:102BE0009EC18090800490908104A0908204B09057
:102BF0008304B701A601481959096A097B094132C2
:102C00005E446105710508F48AC110927E0485E076
:102C10000E9491080E947A10ACE2CA0EA1E0DA1E6E
:102C2000E11CF11CC0927A04D0927B04E0927C04F7
:102C3000F0927D041093790480918804882309F42C
:102C400097C221E0AE014D5F5F4F6091A80481E023
:102C50000E945C0B882309F48BC28B8186FB88273A
:102C600080F98093870480918D04811103C085E0F1
:102C70000E9491088091870460E0882309F475C25E
:102C800080910601882309F460C28EEC89838091CB
:102C90000501813009F4A1C208F459C2823009F457
:102CA0009FC274E27A8354C28091290490912A04CD
:102CB000A0912B04B0912C04C81AD90AEA0AFB0A85
:102CC00022E3C216D104E104F10408F0FBCE109215
:102CD00085041092840410928604F4CE0E94AA0205
:102CE0006B017C0180913B04811119C083E00E943B
:102CF0007301892B51F482E00E947301892B29F022
:102D000084E00E947301892B89F710933B04C092E1
:102D10003704D0923804E0923904F0923A042091BA
:102D20008404222309F4BDC040913304509134043B
:102D300060913504709136044115510561057105A6
:102D400009F08EC0C0923304D0923404E09235046E
:102D5000F092360490918604911106C0211104C0AE
:102D600080918504882391F1AFEFA09303018FEF49
:102D700090E00E94FB01809132048823F9F01092C8
:102D8000320486E00E9491088091860402E081115D
:102D900006C08091850404E0811101C003E0802F0A
:102DA0000E947301892BD9F3033009F488C00430E1
:102DB00009F480C010924B0410928604C09237042C
:102DC000D0923804E0923904F0923A0480913104B0
:102DD000882309F485CE8091370490913804A0911E
:102DE0003904B0913A0446015701881A990AAA0A8F
:102DF000BB0AD501C401853C9940A105B10508F481
:102E00006FCE8091320481116BCE209103012F315E
:102E100008F466CE40912D0450912E0460912F0449
:102E200070913004D701C601841B950BA60BB70B1C
:102E3000AC01BD01473051056105710508F450CE64
:102E40008FEF820F8093030190E00E94FB01C092FC
:102E50002D04D0922E04E0922F04F092300440CE44
:102E6000D701C601841B950BA60BB70BAC01BD01A6
:102E70004D3D55406105710508F46CCF90913204C9
:102E8000911168CF90E080E00E94FB011093320422
:102E900086E00E94910883E00E947301892BD9F398
:102EA0001FCE109233041092340410923504109205
:102EB000360450CF10924A04109285047FCF1092AE
:102EC0004904109284047ACF80914504909146047D
:102ED000A0914704B0914804C81AD90AEA0AFB0A2B
:102EE000A9E8CA16A3E1DA06E104F10408F458CE11
:102EF0001092440480910401811152CE80913C04CF
:102F000090913D04A0913E04B0913F048093400411
:102F100090934104A0934204B09343043CCE90911B
:102F20007904992339F080918404811185CE10921F
:102F3000790482CE90917E0421112BC091117CCE18
:102F400080917A0490917B04A0917C04B0917D04DF
:102F5000C816D906EA06FB0608F46ECE8091750401
:102F600090917604A0917704B09178042091840424
:102F7000222309F437C1892B8A2B8B2B09F05CCED5
:102F8000C0927504D0927604E0927704F0927804AF
:102F900053CE9923D1F02DED3DE04FEF6BE474E07B
:102FA0000E941C072DED3DE041E06AE474E0809151
:102FB00085040E941C072AE93DE040E069E474E0D2
:102FC000809184040E941C0737CE90917F0499233E
:102FD00099F022E03FE04FEF6BE474E00E941C07A1
:102FE00027EF3EE041E06AE474E0809185040E94AE
:102FF0001C0721E531E1E1CFE091700490916E046E
:10300000911137C0F0E0E75AFE4FF080882359F164
:1030100080914B0481110CC010934B0480916F047C
:10302000882319F0815080936F0483E00E949108F7
:10303000809185048823D1F080914A04811110C0C9
:1030400010934A0480916F046F2D6150770B86179F
:1030500017061CF48F5F80936F0483E00E94910831
:1030600023EA3EE0AACF10924B04E2CF10924A042A
:10307000F7CFE13021F590916F04992329F0913039
:10308000A1F029EF3DE099CF29E93EE04FEF6BE455
:1030900074E00E941C072FE83EE041E06AE474E01F
:1030A000809185040E941C07ECCF27E73EE04FEF9C
:1030B0006BE474E00E941C072FE53EE0EECFE230A7
:1030C00091F590916F049130C9F070F0923001F158
:1030D0009330B9F623E23EE04FEF6BE474E00E94D8
:1030E0001C0729E13EE0D9CF25E53EE04FEF6BE438
:1030F00074E00E941C072BE43EE0CFCF2FE33EE0BC
:103100004FEF6BE474E00E941C0726E33EE0C5CF5E
:103110002EEF3DE040E06BE474E00E941C072DE2DE
:103120003EE040E0BBCFE33009F0ABCF90916F04BD
:10313000913009F0A6CF20E13EE040E06BE474E07E
:103140000E941C0727E03EE0ECCF8EE89FCD1A825C
:1031500022E0AE014F5F5F4F6091A80480E00E94C3
:103160005C0B81111092880461E085E00E949C0153
:1031700080918D04811129C00E94AA02C090890407
:10318000D0908A04E0908B04F0908C044B015C0199
:103190008C189D08AE08BF087501640120EDC216A9
:1031A00027E0D206E104F10480F060938904709373
:1031B0008A0480938B0490938C0420E050E040E0DC
:1031C0006091A80480E00E945C0B40E050E0452B39
:1031D00009F440CC0E9400003BCC84E08A83B8CF45
:1031E0002A82B6CF0097A105B10509F425CD10922A
:1031F00075041092760410927704109278044601B8
:103200005701881A990AAA0ABB0AD501C4018C324F
:103210009140A105B10508F00FCD80917104909106
:103220007204A0917304B0917404B301A201481B0D
:10323000590B6A0B7B0BDB01CA018C0D9D1DAE1D6A
:10324000BF1DC0927104D0927204E0927304F09298
:1032500074048A3F9105A105B10508F0EDCC1093E7
:103260008D041092700410926F0410926E041092EC
:103270007F04809107018093A90440E150E06CE451
:1032800074E08DE594E00E94BA2010926D0483E012
:103290000E94910810937904C0928004D092810416
:1032A000E0928204F0928304C7CCEF920F931F93B5
:1032B000CF93DF93E80134E047FD34E1042E000CA6
:1032C000550B57FF03C0519541955109E32E022F2D
:1032D000242FAE010E947319CE01DF91CF911F916F
:1032E0000F91EF900895A9E0B0E0E9E7F9E10C94BF
:1032F000C61B6A01F22EB02E102FFBE3AF2EA016D4
:1033000008F41BE31F5F012F27E0AE014F5F5F4F03
:103310000E94D21ABC018981982F9970913009F4CA
:103320003FC09BE2E1FC04C09E2D9170E0FC3AC0DE
:103330005E2D5071E82FE87083FF46C084E0911144
:1033400001C083E0EF2DE81B8F1508F0E0E0D60107
:103350008E2F20E2552351F1992329F0D6019C9319
:10336000C60101966C0196012D5F3F4FE2FE24C01D
:103370008EE4D6018C9391E411969C93119712964A
:103380008C93D9018E2F90E281111BC0E20FF32F95
:10339000F11D10828EEF9FEF2996ECE00C94E21B5A
:1033A0009DE2C6CF90E2C4CF2D9381508111FCCF16
:1033B000CE0ED11CE0E0D0CF8EE6D6018C9391E604
:1033C000DBCF9D938150E0CF482F447082FF3DC0FA
:1033D00084E0911101C083E08F1510F4EF2DE81BFC
:1033E000D6018E2F20E2552309F1992329F0D60129
:1033F0009C93C60101966C0196012D5F3F4FE2FE42
:103400001BC089E4D6018C938EE411968C9311979E
:1034100086E412968C93D9018E2F90E2882309F4CA
:10342000B5CF9D938150FACF2D9381508111FCCF60
:10343000CE0ED11CE0E0D9CF89E6D6018C938EE682
:1034400011968C93119786E6E4CF9B0177FF02C01B
:1034500030E020E0A1E0B0E0911102C0B0E0A0E0D7
:10346000F9013196AE0FBF1F8B2C912CBB2009F4B4
:1034700061C05401EFEFAE1ABE0AAA0DBB1DFA16C9
:103480001B0619F014F04F2D4A1B511188C0E3FCA4
:1034900059C07601A42FB0E2A1114FC0C40ED11CB7
:1034A000992309F45BC040E0D6011196F6019083A0
:1034B0006D01552309F448C0012F060F9A81582F3A
:1034C000507184FF03C0913309F4015010160CF0C1
:1034D00047C0093008F008E0EEE2FE2E5B01A01ABA
:1034E000B10885019194819491082F3F320729F406
:1034F000D601FC92F60131966F016217730794F1C1
:10350000021713077CF5DB01A21BB30BAA24A394BB
:10351000B12CAC0EBD1EAA0DBB1D11968C91215075
:103520003109D601119628153905F4F0F60180838A
:103530006D01DBCFB12CA12CA0CFF701B1937F019E
:10354000A150AACF9111B0CFD601942F50E302C061
:103550005D9391509111FCCFC40ED11C40E0ACCFD3
:1035600001E0BACF80E3DBCF6217730731F4963303
:1035700088F4953311F4552369F0F6018083FD0139
:10358000842F90E2811108C0A40FB11D1C9290E01D
:1035900080E002CF81E3F1CF91938150F3CF91117D
:1035A00083CF8ACF283008F027E03327DA01990F3C
:1035B000311D87FD916000966105710539F4326017
:1035C0002E5F3D9330E32A95E1F708959F3F30F059
:1035D00080387105610509F03C5F3C5F3D93913097
:1035E00008F08068911DDF93CF931F930F93FF9294
:1035F000EF92192F987F9695E92F96959695E90F5A
:10360000FF27EC5BFE4F99273327EE24FF24A70109
:10361000E70105900894079428F4360FE71EF81E7A
:10362000491F511D660F771F881F991F0694A1F728
:103630000590079428F4E70EF81E491F561FC11D78
:10364000770F881F991F661F0694A1F705900794AE
:1036500028F4F80E491F561FC71FD11D880F991F48
:10366000661F771F0694A1F70590079420F4490F71
:10367000561FC71FD81F990F661F771F881F0694F4
:10368000A9F784911095177041F0D695C795579575
:103690004795F794E7941A95C1F7EAEEF0E068943D
:1036A0001590159135916591959105907FE27395EF
:1036B000E118F10A430B560BC90BD009C0F7E10C16
:1036C000F11E431F561FC91FD01D7EF4703311F425
:1036D0008A95E6CFE894015030F0080F0AF40027ED
:1036E000021708F4202F2395022F7A3328F079E36C
:1036F0007D932A95E9F710C07D932A9589F6069463
:1037000097956795379517951794E118F10A430B2C
:10371000560BC90BD00998F023957E9173957A3397
:1037200008F070E37C932013B8F77E9170617D936D
:1037300030F0839571E37D9370E32A95E1F71124CE
:10374000EF90FF900F911F91CF91DF91992787FD07
:1037500090950895F999FECF92BD81BDF89A992769
:1037600080B50895262FF999FECF1FBA92BD81BD6D
:1037700020BD0FB6F894FA9AF99A0FBE01960895F3
:103780002F923F924F925F926F927F928F929F9271
:10379000AF92BF92CF92DF92EF92FF920F931F935F
:1037A000CF93DF93CDB7DEB7CA1BDB0B0FB6F89410
:1037B000DEBF0FBECDBF09942A88398848885F8450
:1037C0006E847D848C849B84AA84B984C884DF80C1
:1037D000EE80FD800C811B81AA81B981CE0FD11DA5
:1037E0000FB6F894DEBF0FBECDBFED01089550585F
:1037F000BB27AA270E940F1C0C94C91D0E94BB1D49
:1038000038F00E94C21D20F039F49F3F19F426F4CD
:103810000C94B81D0EF4E095E7FB0C94891DE92F7C
:103820000E94DA1D58F3BA176207730784079507D9
:1038300020F079F4A6F50C94141E0EF4E0950B2EEE
:10384000BA2FA02D0B01B90190010C01CA01A001F2
:103850001124FF27591B99F0593F50F4503E68F14D
:103860001A16F040A22F232F342F4427585FF3CF8E
:10387000469537952795A795F0405395C9F77EF45F
:103880001F16BA0B620B730B840BBAF09150A1F0A8
:10389000FF0FBB1F661F771F881FC2F70EC0BA0F2E
:1038A000621F731F841F48F4879577956795B795B6
:1038B000F7959E3F08F0B0CF9395880F08F09927B1
:1038C000EE0F9795879508950E94FC1D90F09F3705
:1038D00048F4911116F40C94151E60E070E080E835
:1038E0009FE3089526F01B16611D711D811D0C9428
:1038F0008F1D0C94AA1D0E94651D08F481E0089597
:103900000E94941C0C94C91D0E94C21D58F00E9474
:10391000BB1D40F029F45F3F29F00C94891D511123
:103920000C94151E0C94B81D0E94DA1D68F399239F
:10393000B1F3552391F3951B550BBB27AA276217AB
:103940007307840738F09F5F5F4F220F331F441FB8
:10395000AA1FA9F335D00E2E3AF0E0E832D09150EC
:103960005040E695001CCAF72BD0FE2F29D0660FD9
:10397000771F881FBB1F261737074807AB07B0E81C
:1039800009F0BB0B802DBF01FF2793585F4F3AF022
:103990009E3F510578F00C94891D0C94151E5F3FD5
:1039A000E4F3983ED4F3869577956795B795F795A8
:1039B0009F5FC9F7880F911D9695879597F9089590
:1039C000E1E0660F771F881FBB1F6217730784072C
:1039D000BA0720F0621B730B840BBA0BEE1F88F73B
:1039E000E09508950E94F91C6894B1110C94151E7D
:1039F00008950E94E21D88F09F5798F0B92F9927EB
:103A0000B751B0F0E1F0660F771F881F991F1AF0C9
:103A1000BA95C9F714C0B13091F00E94141EB1E0FC
:103A200008950C94141E672F782F8827B85F39F0FB
:103A3000B93FCCF3869577956795B395D9F73EF462
:103A400090958095709561957F4F8F4F9F4F08950A
:103A5000E89409C097FB3EF4909580957095619528
:103A60007F4F8F4F9F4F9923A9F0F92F96E9BB27DE
:103A70009395F695879577956795B795F111F8CF5A
:103A8000FAF4BB0F11F460FF1BC06F5F7F4F8F4FC5
:103A90009F4F16C0882311F096E911C0772321F0BB
:103AA0009EE8872F762F05C0662371F096E8862F53
:103AB00070E060E02AF09A95660F771F881FDAF7AA
:103AC000880F9695879597F90895990F0008550FD7
:103AD000AA0BE0E8FEEF16161706E807F907C0F094
:103AE00012161306E407F50798F0621B730B840B9C
:103AF000950B39F40A2661F0232B242B252B21F476
:103B000008950A2609F4A140A6958FEF811D811D15
:103B1000089597F99F6780E870E060E00895882332
:103B200071F4772321F09850872B762F07C06623F6
:103B300011F499270DC09051862B70E060E02AF0B7
:103B40009A95660F771F881FDAF7880F96958795E5
:103B500097F908959F3F31F0915020F4879577951C
:103B60006795B795880F911D9695879597F9089554
:103B70009FEF80EC089500240A9416161706180685
:103B80000906089500240A94121613061406050661
:103B90000895092E0394000C11F4882352F0BB0FF2
:103BA00040F4BF2B11F460FF04C06F5F7F4F8F4F55
:103BB0009F4F089557FD9058440F551F59F05F3F90
:103BC00071F04795880F97FB991F61F09F3F79F03F
:103BD00087950895121613061406551FF2CF4695C1
:103BE000F1DF08C0161617061806991FF1CF869543
:103BF00071056105089408950E94E21DA0F0BEE7DA
:103C0000B91788F4BB279F3860F41616B11D672FCB
:103C1000782F8827985FF7CF869577956795B11DA0
:103C200093959639C8F30895E894BB2766277727BC
:103C3000CB0197F908950E94651D08F48FEF089550
:103C4000FA01EE0FFF1F309621053105A1F1611534
:103C5000710561F48038BFE39B0749F1689490389F
:103C6000810561F08038BFEF9B0741F099234AF549
:103C7000FF3FE1053105210519F1E8940894E79526
:103C8000D901AA2329F4AB2FBE2FF85FD0F310C0BF
:103C9000FF5F70F4A695E0F7F73950F019F0FF3A9E
:103CA00038F49F779F930DD00F9007FC905808959C
:103CB00046F00C94B81D60E070E080E89FE3089542
:103CC0004FE79F775F934F933F932F930E941B1F64
:103CD0002F913F914F915F910E94971F0C94781EF6
:103CE00029F416F00C94891D0C94141E0C94B81D24
:103CF0000E94E21DA8F39638A0F707F80F92E89407
:103D00002BE33AEA48EB5FE70E94AD1F0F920F9258
:103D10000F924DB75EB70F920E94631FE8E6F0E086
:103D20000E94AA1E4F915F91EF91FF91E595EE1FC2
:103D3000FF1F49F0FE57E0684427EE0F441FFA9535
:103D4000E1F74195550B0E94DD1E0F9007FE0C9484
:103D5000D11E0895DF93CF931F930F93FF92EF929D
:103D6000DF927B018C01689406C0DA2EEF010E947D
:103D7000AA1FFE01E894A591259135914591559191
:103D8000A6F3EF010E940F1CFE019701A801DA942F
:103D900069F7DF90EF90FF900F911F91CF91DF9126
:103DA00008959B01AC0160E070E080E89FE30C9413
:103DB000801C0C94891D0C94AA1D0E94E21DD8F34E
:103DC0009923C9F3940F511DA3F39150504094F0DF
:103DD00059F0882332F0660F771F881F91505040AA
:103DE000C1F79E3F51052CF7880F911D9695879539
:103DF00097F908955F3FACF0983E9CF0BB278695FD
:103E000077956795B79508F4B1609395C1F7BB0FA7
:103E100058F711F460FFE8CF6F5F7F4F8F4F9F4FD0
:103E2000E3CF0C94151E16F00C94AA1D0C94B81D2B
:103E300068940C94891D0E94E21DA8F39923C1F394
:103E4000AEF3DF93CF931F930F93FF92C92FDD271C
:103E500088232AF02197660F771F881FDAF720E062
:103E600030E040E85FEB9FE3883920F0803E38F097
:103E700021968F770E94F81BE0E9F0E004C00E94D1
:103E8000F81BEDEBF0E00E94AA1E8B01BE01EC01D5
:103E9000FB2E6F5771097595771F880B990B0E9440
:103EA0002A1D28E132E741E35FE30E94AA1FAF2DFC
:103EB0009801AE01FF900F911F91CF91DF910E9469
:103EC0000F1C0C94C91DFA01DC01AA0FBB1F9B013A
:103ED000AC01BF5728F4222733274427507820C04D
:103EE000B75190F4AB2F0024469537952795011CC8
:103EF000A395D2F3002071F0220F331F441FB39516
:103F0000DAF30ED00C94F71B61307105A0E88A0734
:103F1000B94630F49B01AC01662777278827907853
:103F2000309621F0208331834283538308950E9489
:103F3000AA1F0C94C91D0E94BB1D38F00E94C21D0F
:103F400020F0952311F00C94891D0C94B81D1124B8
:103F50000C94151E0E94DA1D70F3959FC1F3950F06
:103F600050E0551F629FF001729FBB27F00DB11DFD
:103F7000639FAA27F00DB11DAA1F649F6627B00D8D
:103F8000A11D661F829F2227B00DA11D621F739F76
:103F9000B00DA11D621F839FA00D611D221F749F84
:103FA0003327A00D611D231F849F600D211D822FCB
:103FB000762F6A2F11249F5750409AF0F1F08823F2
:103FC0004AF0EE0FFF1FBB1F661F771F881F91501F
:103FD0005040A9F79E3F510580F00C94891D0C9428
:103FE000151E5F3FE4F3983ED4F386957795679569
:103FF000B795F795E7959F5FC1F7FE2B880F911D49
:104000009695879597F90895DB018F939F930E946A
:104010006F20BF91AF91A29F800D911DA39F900D26
:10402000B29F900D1124089597FB072E16F400946B
:1040300007D077FD09D00E94822007FC05D03EF40E
:10404000909581959F4F0895709561957F4F089544
:10405000A1E21A2EAA1BBB1BFD010DC0AA1FBB1F8C
:10406000EE1FFF1FA217B307E407F50720F0A21BFE
:10407000B30BE40BF50B661F771F881F991F1A946B
:1040800069F760957095809590959B01AC01BD0195
:10409000CF010895052E97FB1EF400940E94612025
:1040A00057FD07D00E94282007FC03D04EF40C9443
:1040B000612050954095309521953F4F4F4F5F4F70
:1040C000089590958095709561957F4F8F4F9F4F84
:1040D0000895EE0FFF1F0590F491E02D09940E94C2
:1040E0009620A59F900DB49F900DA49F800D911DCB
:1040F00011240895B7FF0C946F200E946F20821B3B
:10410000930B0895AA1BBB1B51E107C0AA1FBB1F3D
:10411000A617B70710F0A61BB70B881F991F5A9553
:10412000A9F780959095BC01CD010895A29FB0019B
:10413000B39FC001A39F700D811D1124911DB29FDB
:10414000700D811D1124911D0895DC0101C06D9336
:1041500041505040E0F70895FB01DC0141505040D0
:1041600030F08D910190801919F40020B9F7881B67
:10417000990B0895FB01DC014150504048F001903B
:104180000D920020C9F701C01D9241505040E0F748
:064190000895F894FFCF32
:10419600010102FF01030101006A180000D430008A
:1041A60053746174696F6E204E616D650000000086
:1041B6000028A07A4CD0248D4C60F5904CB832B5CE
:1041C6004C78F0A54C60FECD4C4054094DD0240DE2
:1041D6004D8845C84DA493D64D0C1DE04D4E844DDB
:1041E6004E0024744CDAF89A4E04030503000000CE
:1041F60000DE03B1030D048703AA039703880300B7
:104206000000002D06F3020D0420036061626320A6
:10421600646563696D616C0020646563696D616CDA
:104226007300312E36204D487A00332E32204D4809
:104236007A006C6F7720006F6E20006F6666003E16
:104246003E003C3C0049324320534146452044450C
:104256004641554C5400493243204552524F520074
:10426600504C4C20436F6E74726F6C0056322E3277
:104276000028432932303235204C6F656E6965005F
:10428600534554200045584954204D454E55003E4F
:10429600200073617665206368616E6765730064EC
:1042A6006973636172640063616E63656C00564393
:1042B6004F2053455454494E475300534554207498
:1042C6006F20656E74657200504C4C2053455454F3
:1042D600494E47530047454E4552414C205345549D
:1042E60054494E47530053455420746F2070726FE3
:1042F60063656564004652455155454E4359204213
:10430600414E44002D0053455420746F2073656C54
:1043160065637400505245434953494F4E00455812
:1043260049542053455454494E475300534554204D
:10433600746F20636F6E6669726D00493243204167
:10434600444452455353003E203078005854414C63
:10435600204652455155454E435900434841524720
:10436600452050554D50004F555450555420504FF0
:1043760052545300616C6C206C6F77005032206889
:104386006967680050322F503520686967680053A6
:10439600544154494F4E204E414D450053455420FB
:1043A600746F2065646974004241434B4C49474829
:1043B600542044494D4D4552004C4F434B2000205C
:1043C6002020202000726573746F72696E6720303A
:1043D600780053455420746F20726573746172744B
:0243E6000000D5
:00000001FF
