:100000000C9459020C9481020C9481020C9481028C
:100010000C9481020C9481020C9481020C94810254
:100020000C9481020C9481020C9481020C94810244
:100030000C9481020C9481020C9481020C94810234
:100040000C947B150C9481020C9481020C94810217
:100050000C9481020C9481020C9481020C94810214
:100060000C94C5150C94810200407A10F35A00A03C
:10007000724E18090010A5D4E80000E87648170071
:1000800000E40B54020000CA9A3B000000E1F505B1
:10009000000080969800000040420F000000A086FB
:1000A00001000000102700000000E803000000002D
:1000B0006400000000000A000000000001000000D1
:1000C00000002C76D888DC674F0823DFC1DFAE59EB
:1000D000E1B1B796E5E3E453C63AE651997696E87E
:1000E000E6C28426EB898C9B62ED407C6FFCEFBC02
:1000F0009C9F40F2BAA56FA5F490055A2AF75C932D
:100100006B6CF9676DC11BFCE0E40D47FEF520E662
:10011000B500D0ED902E0300943577050080841E45
:10012000080000204E0A000000C80C333333330FA0
:10013000986E12831141EF8D2114893BE65516CF3D
:10014000FEE6DB18D1844B381BF77C1D901DA4BB49
:10015000E424203284725E228100C9F124ECA1E5FE
:100160003D2753455420746F207265737461727417
:1001700000726573746F72696E672030780049325F
:1001800043204552524F52004932432046414C4C85
:100190004241434B003C3C003E3E002020202020BA
:1001A000004C4F434B200053455420746F20636F25
:1001B0006E6669726D004558495420534554544940
:1001C0004E47530053455420746F2073656C65632C
:1001D00074006E6F2000796573003E2000434C452B
:1001E00041522053455454494E475300434C4541D6
:1001F0005220414C4C20444154413F00534554202F
:10020000746F2073656C656374006F6666006F6E53
:1002100020003E20004241434B4C49474854204473
:10022000494D4D45520053455420746F2065646913
:10023000740053544154494F4E204E414D45005394
:10024000455420746F20636F6E6669726D00455867
:1002500049542053455454494E4753005345542064
:10026000746F2073656C656374006E6F6E6500500B
:100270000052462064726976653A20006E6F6E65A2
:10028000005000756E6C6F636B65643A20006E6F92
:100290006E650050006C6F636B65643A20003E2011
:1002A00000504F5254204D415050494E4700534545
:1002B0005420746F2073656C6563740068696768A7
:1002C0000064697361626C6564006C6F7720003E46
:1002D00020004348415247452050554D500053455A
:1002E0005420746F2073656C65637400204D487AE8
:1002F000002E003E20005854414C20465245515596
:10030000454E43590053455420746F2073656C6506
:100310006374003E20307800493243204144445207
:100320004553530053455420746F20636F6E6669C4
:10033000726D00455849542053455454494E475313
:100340000053455420746F2073656C6563740020FE
:10035000646563696D616C730020646563696D61D8
:100360006C003E2000505245434953494F4E0053C4
:10037000455420746F2073656C65637400204D488C
:100380007A002D003E20004652455155454E4359B6
:100390002042414E440053455420746F2070726FC8
:1003A000636565640045584954204D454E550053DA
:1003B000455420746F20656E7465720047454E4544
:1003C00052414C2053455454494E475300534554D1
:1003D00020746F20656E74657200504C4C2053453C
:1003E0005454494E47530053455420746F20656E52
:1003F0007465720056434F2053455454494E475339
:100400000063616E63656C006469736361726400AC
:1004100073617665206368616E676573003E2000D6
:1004200045584954204D454E550053455420002809
:10043000432932303236204C6F656E696500563381
:100440002E31002000504C4C20436F6E74726F6C44
:1004500000204D487A0000000000240027002A00F8
:1004600000000000250028002B00000000002300F1
:100470002600290004040404040404040202020205
:100480000202030303030303010204081020408057
:1004900001020408102001020408102000000008D6
:1004A000000201000003040700000000000000003B
:1004B000E41611241FBECFEFD8E0DEBFCDBF11E0A0
:1004C000A0E0B1E0EAE3F2E402C005900D92A438A6
:1004D000B107D9F722E0A4E8B1E001C01D92A13F25
:1004E000B207E1F712E0C9E5D2E004C02197FE01AE
:1004F0000E94C320C835D107C9F70E9417170C9472
:100500001B210C940000833081F028F4813099F095
:100510008230A9F008958730A9F08830C9F084307E
:10052000B1F4809180008F7D03C0809180008F772F
:1005300080938000089584B58F7784BD089584B535
:100540008F7DFBCF8091B0008F778093B0000895AE
:100550008091B0008F7DF9CFCF93DF93282F30E0CB
:10056000F901E456FB4F8491F901E857FB4FD49110
:10057000F901EC58FB4FC491CC23A1F081110E94EA
:100580008302EC2FF0E0EE0FFF1FE659FB4FA59121
:10059000B491EC91ED2381E090E009F480E0DF91EB
:1005A000CF91089580E090E0FACF1F93CF93DF932F
:1005B000282F30E0F901E456FB4F8491F901E85708
:1005C000FB4FD491F901EC58FB4FC491CC23A9F017
:1005D000162F81110E948302EC2FF0E0EE0FFF1F17
:1005E000E05AFB4FA591B4918FB7F894EC9111119B
:1005F00008C0D095DE23DC938FBFDF91CF911F9190
:100600000895DE2BF8CFCF93DF9390E0FC01E857FD
:10061000FB4F24918C589B4FFC0184918823D1F08F
:1006200090E0880F991FFC01EA5AFB4FA591B49105
:10063000FC01E05AFB4FC591D491623071F49FB731
:10064000F8943C91822F809583238C93E8812E2B04
:1006500028839FBFDF91CF9108958FB7F894EC91D5
:100660002E2B2C938FBFF6CFCF93DF93EC0161E05D
:1006700086E00E940303209731F460E086E0DF917A
:10068000CF910C94D502CF3FD10511F461E0F6CFA4
:10069000E2EAF4E0E491E33029F140F4E130B1F032
:1006A000E230D9F0C038D1058CF7E7CFE73021F13F
:1006B000E83051F1E430B1F780918000806280939E
:1006C0008000D0938B00C0938A0004C084B58068FA
:1006D00084BDC7BDDF91CF91089584B5806284BD8C
:1006E000C8BDF8CF80918000806880938000D0934F
:1006F0008900C0938800EECF8091B000806880931D
:10070000B000C093B300E6CF8091B00080628093C8
:10071000B000C093B400DECF3FB7F8948091C3021D
:100720009091C402A091C502B091C60226B5A89BC3
:1007300005C02F3F19F00196A11DB11D3FBFBA2F73
:10074000A92F982F8827BC01CD01620F711D811D33
:10075000911D42E0660F771F881F991F4A95D1F7B8
:1007600008958F929F92AF92BF92CF92DF92EF92B5
:10077000FF924B015C010E948C036B017C010E9483
:100780008C036C197D098E099F09683E73408105B1
:100790009105A8F321E0821A9108A108B10888EE1A
:1007A000C80E83E0D81EE11CF11C81149104A10441
:1007B000B10429F7FF90EF90DF90CF90BF90AF90FA
:1007C0009F908F9008952FB7F8946091BF02709119
:1007D000C0028091C1029091C2022FBF0895CF92B2
:1007E000DF92EF92FF920F931F930E94E303009119
:1007F000C8021091C9022091CA023091CB026B014C
:100800007C01C01AD10AE20AF30A970186010A3F65
:10081000110521053105B8F06093C8027093C90233
:100820008093CA029093CB026091C70281E068274F
:100830006093C70285E01F910F91FF90EF90DF90CA
:10084000CF900C94D5021F910F91FF90EF90DF9005
:10085000CF90089508950895AF92BF92CF92DF92FE
:10086000EF92FF920F931F93CF93DF936C017B0165
:100870008B01040F151FEB015E01AE18BF08C017F6
:10088000D10759F06991D601ED91FC910190F08169
:10089000E02DC6010995892B79F7C501DF91CF912C
:1008A0001F910F91FF90EF90DF90CF90BF90AF908E
:1008B000089508952091FF01260F3327331F213219
:1008C0003105ECF420912302FC0190E080E024301B
:1008D00069F082E00895A091FF012191AC0141529D
:1008E0005E4FA40FB52FB11D2C930196861798F378
:1008F0008091FF01680F6093FF0180E0089581E01F
:1009000008951092230281E0809325021092240220
:1009100061E082E10E94D50261E083E10E94D5029C
:10092000E9EBF0E080818E7F808380818D7F808302
:1009300088E48093B80085E48093BC000895CF9349
:10094000DF9391E0909356028823B9F0C091B800EC
:10095000D091BA008091BC008A7B8093BC0060E09B
:1009600082E10E94D50260E083E10E94D5020E94EC
:100970008104D093BA00C093B800DF91CF9108955D
:100980000895E091500280914F02E81730F4F0E0B2
:10099000E154FE4F808190E008958FEF9FEF08951E
:1009A0009091500280914F022FEF3FEF981748F43B
:1009B000E92FF0E0E154FE4F208130E09F5F9093FB
:1009C0005002C901089580914F0290915002891BF5
:1009D000990B0895CF92DF92EF92FF920F931F939E
:1009E000CF93DF937C01CB018A012091BE012223AA
:1009F00089F0EB016B01C40ED51ECC15DD0569F045
:100A00006991D701ED91FC910190F081E02DC70132
:100A10000995F3CF642F0E945A04C801DF91CF914A
:100A20001F910F91FF90EF90DF90CF900895CF939B
:100A3000DF931F92CDB7DEB769832091BE012223D9
:100A4000F9F020914D02203258F021E030E0FC0115
:100A50003383228390E080E00F90DF91CF9108955F
:100A600080914E02E82FF0E0E256FE4F998190838C
:100A70008F5F80934E0280934D0281E090E0ECCF37
:100A800061E0CE0101960E945A04F7CF90E080E029
:100A90000895E0910201E23028F4F0E0E55FFE4FB6
:100AA0008081089582E00895E091020184E0E89F4A
:100AB000F0011124E25EFE4F608171818281938199
:100AC00023E0660F771F881F991F2A95D1F739E019
:100AD00096958795779567953A95D1F708958F9272
:100AE0009F92AF92BF92CF92DF92EF92FF92CF93FD
:100AF0000E944905C09103018C1708F4C82F80E4B7
:100B0000C82E82E4D82E8FE0E82EF12C9AE0892EB0
:100B1000912CA12CB12CCC2351F0C701B601A50119
:100B200094010E94A12069017A01C150F4CF0E9472
:100B300054059B01AC01C20ED31EE41EF51EC70175
:100B4000B60161507109810991090E94A120822F8B
:100B5000CF91FF90EF90DF90CF90BF90AF909F909C
:100B60008F9008954F925F926F927F928F929F9293
:100B7000AF92BF92CF92DF92EF92FF921F93CF93EB
:100B8000DF93982E5B01142FE9010E94E3036B01B0
:100B90007C01F501992009F4BFC08081811124C036
:100BA000C0929101D0929201E0929301F09294014F
:100BB000C0928D01D0928E01E0928F01F09290014F
:100BC00081E08083812FFE01DF91CF911F91FF9003
:100BD000EF90DF90CF90BF90AF909F908F907F90DD
:100BE0006F905F904F900994809191019091920144
:100BF000A0919301B091940146015701881A990A76
:100C0000AA0ABB0A80917102882309F468C0F8EE31
:100C10008F16F3E09F06A104B10408F450C00E94AF
:100C20006F05782E0E9454059B01AC01A72DB0E002
:100C30000E94C9200E94EF1F20E030E04AEF53E4F9
:100C40000E944E1F2B013C01C501B401685E734038
:100C50008109910928EE33E040E050E00E94A12094
:100C6000CA01B9010E94EF1F23E333E343E35FE3CB
:100C70000E94E21E9B01AC01C301B2010E944E1F03
:100C80000E94C01F80908D0190908E01A0908F01D6
:100C9000B0909001A7019601281939094A095B090A
:100CA00049015A0186169706A806B90640F0209118
:100CB000AE023091BD023323F1F021111EC0DF914D
:100CC000CF911F91FF90EF90DF90CF90BF90AF90AA
:100CD0009F908F907F906F905F904F90089528EE37
:100CE000821623E09206A104B10448F360E570E0A7
:100CF00080E090E0C7CF222331F038EC83169104D6
:100D0000A104B104E0F2C0928D01D0928E01E09274
:100D10008F01F092900156CF1082D1CF4F925F9207
:100D20006F927F928F929F92AF92BF92CF92DF92FB
:100D3000EF92FF92CF932B013C01C42F0E945405E8
:100D40004B015C017C016B01481459046A047B046B
:100D500078F0AFEFBFE7AC019B010E94C9206B01A7
:100D60007C014C145D046E047F0410F47301620175
:100D700061E070E080E090E0CC2331F00E946F05EC
:100D8000682F70E090E080E0A50194010E947D2032
:100D90004B015C0196958795779567956C0D7D1D48
:100DA0008E1D9F1DA50194010E94A120C501B401C3
:100DB0000E947D20CF91FF90EF90DF90CF90BF9069
:100DC000AF909F908F907F906F905F904F9008951D
:100DD0008F929F92AF92BF920F931F93CF93DF9307
:100DE000CDB7DEB7A1970FB6F894DEBF0FBECDBF6B
:100DF00019A2423008F44AE08E010F5D1F4F842E85
:100E0000912CB12CA12CA50194010E94A120E62FC8
:100E1000B901CA01EA3044F5E05DD801EE938D01D5
:100E2000232B242B252B79F790E080E0109769F095
:100E3000FD0101900020E9F73197AF014A1B5B0BE0
:100E4000BD0189ED92E00E942C04A1960FB6F894A2
:100E5000DEBF0FBECDBFDF91CF911F910F91BF902D
:100E6000AF909F908F900895E95CD7CFFC010190DF
:100E70000020E9F73197AF01481B590BBC0189ED00
:100E800092E00C942C04EF92FF920F931F93CF9358
:100E9000DF937C018C01CAE0D0E0CE010E94941E59
:100EA000F80181938F012196CB31D105B1F7C701AC
:100EB000DF91CF911F910F91FF90EF9008950C94C7
:100EC000941E4F925F926F927F928F929F92AF92F9
:100ED000BF92CF92DF92EF92FF920F931F93CF9327
:100EE000DF9300D000D0CDB7DEB78CE390E00E9456
:100EF0005F07873008F082E080939C018DE390E0EB
:100F00000E945F07873008F082E080939D019090F7
:100F10000201A92CB12CF501E456FE4F8080082D6A
:100F200010E0C80123E0880F991F2A95E1F79C0182
:100F30002A5D3E4F3901F90160817181828193817F
:100F400041E00E948E066B017C01C0928401D09228
:100F50008501E0928601F0928701F3016481758139
:100F60008681978141E00E948E062B013C014092D0
:100F700088015092890160928A0170928B01F6E09B
:100F8000F81508F451C021E0291508F44DC0000FF0
:100F9000111F0A0D1B1D000F111F000F111F5801FB
:100FA0003AE5A30EB11CCE0101964C01025A1F4F27
:100FB000C5010E94941EF40181934F01FFEFAF1A07
:100FC000BF0A0A151B05A1F769817A818B819C8173
:100FD0006C157D058E059F0550F046165706680670
:100FE000790628F040E00E948E066B017C01C092D9
:100FF0006D02D0926E02E0926F02F09270020F903A
:101000000F900F900F90DF91CF911F910F91FF9054
:10101000EF90DF90CF90BF90AF909F908F907F9098
:101020006F905F904F900895C114D104E104F104D2
:10103000F1F660E070E0CB01D5CFCF93DF93EC0108
:1010400060E08E810E94D50261E08E810E94D5020F
:1010500060E08E810E94D5028BE891E00197F1F764
:10106000DF91CF910895CF92DF92EF92FF920F938D
:101070001F93CF93DF936C017C0187E0E80EF11C96
:10108000D0E0C0E0062F10E0B8010C2E02C075952C
:1010900067950A94E2F76170F70181917F010E94E0
:1010A000D5022196C430D10579F7C601DF91CF91E1
:1010B0001F910F91FF90EF90DF90CF900C941D083F
:1010C000CF92DF92EF92FF920F931F93CF93DF9314
:1010D000EC01F62E642F8C810E94D5028D818F3F0A
:1010E00019F060E00E94D5020F2D10E08F8584FF7B
:1010F00025C06E0187E0C80ED11CF12CE12CB8018F
:101100000E2C02C0759567950A94E2F76170F6019E
:1011100081916F010E94D502FFEFEF1AFF0A88E06C
:10112000E816F10461F7CE01DF91CF911F910F9185
:10113000FF90EF90DF90CF900C941D08B80184E0F1
:10114000759567958A95E1F7CE010E9433086F2D5A
:10115000CE01DF91CF911F910F91FF90EF90DF9023
:10116000CF900C94330840E0682F89ED92E00C9406
:10117000600881E00E94B3088BE39FE10197F1F7DB
:101180000895CF93DF93823029F49091E80298601C
:101190009093E8028093EC021092ED0280E4809339
:1011A000EE0280E18093EF0280E58093F00261E03F
:1011B0008091DD020E9403038091DE028F3F19F0CF
:1011C00061E00E94030361E08091DF020E9403035B
:1011D000C9EDD2E09E01295D32408091E80284FD94
:1011E0000BC084E090E021962817390744F461E0B1
:1011F0008E810E940303EECF88E090E0F4CF8BE372
:101200009DE00197F1F760E08091DD020E94D50238
:1012100060E08091DF020E94D5028091DE028F3F64
:1012200019F060E00E94D5028091E80284FD34C08C
:1012300063E089ED92E00E943308CBE4D6E4CE016E
:101240000197F1F763E089ED92E00E94330821975E
:10125000F1F763E089ED92E00E94330883E592E0C4
:101260000197F1F762E089ED92E00E9433088091E6
:10127000E80280620E94B30884E08093E9028CE077
:101280000E94B3080E94B90882E08093EA0286E0D7
:10129000DF91CF910C94B30880620E94B3088BE475
:1012A00096E40197F1F78091E80280620E94B3080A
:1012B00083E592E00197F1F78091E80280620E9455
:1012C000B308D5CF9091EC02691710F06FEF690F5A
:1012D000E62FF0E0E752FD4F9489890F80680C9467
:1012E000B30841E00E94600881E090E008950F9308
:1012F0001F93CF93DF938C01D0E0C0E0F801EC0F97
:10130000FD1F6491662339F041E089ED92E00E946F
:1013100060082196F3CFCE01DF91CF911F910F91FD
:10132000089585ED8093BC00809152029091530204
:10133000A0915402B09155020796A11DB11D23E062
:10134000B695A795979587952A95D1F72091BC00DA
:1013500024FD03C01092230208954091520250913F
:1013600053026091540270915502452B462B472B36
:1013700069F30097A105B10541F02AE22A95F1F73A
:1013800000C00197A109B109E1CF809151020C94ED
:101390009F04DF92EF92FF920F931F93CF93DF93FF
:1013A000CDB7DEB729970FB6F894DEBF0FBECDBF1D
:1013B000D82E60916D0270916E0280916F029091B3
:1013C00070020E94EF1F20E034E244E759E40E94DB
:1013D0004E1F9E012F5F3F4F79018901209103012C
:1013E00048E00E943F1CF70101900020E9F78E2D94
:1013F0008E1B6D2D835F0E946209C7010E94360714
:1014000081E594E00E94770929960FB6F894DEBF33
:101410000FBECDBFDF91CF911F910F91FF90EF9045
:10142000DF9008954F925F926F927F928F929F927A
:10143000AF92BF92CF92DF92EF92FF92CF93DF9362
:10144000C82F843009F4D3C28091E9028D7F809344
:10145000E90288600E94B308C150C73068F4EC2FDD
:10146000F0E0EB5CF54F0C94C320600A790A960A11
:10147000F70C1B0D6B0D840D0E94B90885E494E0F8
:101480000E94770983E494E00E9477098EE394E058
:101490000E94770961E080E00E9462098FE294E097
:1014A000DF91CF91FF90EF90DF90CF90BF90AF9002
:1014B0009F908F907F906F905F904F900C947709E2
:1014C00080E00E94C90961E080E00E9462098AE729
:1014D00092E0DF91CF91FF90EF90DF90CF90BF909F
:1014E000AF909F908F907F906F905F904F900C94F3
:1014F000360780917102811107C061E00E94620984
:101500008AE294E00E94770981E00E94C909DF9194
:10151000CF91FF90EF90DF90CF90BF90AF909F90D2
:101520008F907F906F905F904F9008950E94B908C0
:101530008091AF02882301F160E080E00E9462099F
:1015400080E294E00E94770961E080E00E946209F5
:101550008DE194E00E94770980919F02813049F0EB
:1015600028F08230A1F681E094E09ACF80E194E007
:1015700097CF88E094E094CF8091A002811136C08B
:1015800080919F028130E1F080F0823021F1833040
:1015900009F0BDCF85EA93E00E94770961E080E021
:1015A0000E94620986E993E07BCF84EF93E00E947A
:1015B000770961E080E00E94620987EE93E070CFD6
:1015C0008AED93E00E94770961E080E00E94620961
:1015D0008DEC93E065CF8CEB93E00E94770961E09E
:1015E00080E00E9462098FEA93E05ACF813009F0CF
:1015F0008FC080919F02813009F465C070F0823005
:1016000009F085CF83E393E00E94770961E080E0F1
:101610000E94620984E293E043CF87E893E00E944E
:10162000770961E080E00E94620980919E02882330
:1016300009F446C0E0910201F0E0E456FE4FC0819B
:1016400028E0C29FE0011124CA5DDE4F68817981E4
:101650008A819B8141E00E948E062B013C016C81B6
:101660007D818E819F8141E00E948E064B015C014D
:1016700084E893E00E94770930E4C32E32E4D32E4D
:101680003FE0E32EF12CC301B201A70196010E94B5
:10169000A120CA01B9014AE00E94E80682E893E06D
:1016A0000E947709C501B401A70196010E94A120FB
:1016B000CA01B9014AE00E94E8068DE793E0F0CE46
:1016C0008FE693E0EDCE85E693E00E94770961E036
:1016D00080E00E94620980919E028823B1F082E638
:1016E00093E00E9477096091030170E090E080E050
:1016F0004AE00E94E80680910301813019F08FE4EE
:1017000093E0CECE89E593E0CBCE81E493E0C8CEE2
:10171000823009F008C180919F02823009F489C0AB
:1017200008F055C0882309F463C0813009F0EFCE7A
:1017300086EF92E00E94770961E080E00E946209F2
:1017400080919E02882309F471C083EF92E00E9489
:101750007709E091020134E0E39FF0011124E25E99
:10176000FE4F608171818281938120E4C22E22E448
:10177000D22E2FE0E22EF12CA70196010E94A1208B
:10178000CA01B9014AE00E94E80681EF92E00E9496
:101790007709E091020144E0E49FF0011124E25E48
:1017A000FE4F6081718182819381A70196010E9421
:1017B000A12020EA36E841E050E00E94A120CA01C1
:1017C000B9014AE00E94E8068CEE92E069CE8330CF
:1017D00009F451C0843009F09ACE8EE492E00E9460
:1017E000770961E080E00E9462098FE392E058CEC1
:1017F00088E193E00E94770961E080E00E9462093D
:1018000080919E02882379F083E193E00E9477091A
:10181000E091D802F0E0EE59FE4F608170E090E078
:1018200080E040E16AC085E093E03ACE8EED92E040
:1018300037CE82ED92E00E94770961E080E00E945D
:10184000620980919E02882399F08FEC92E00E94B9
:10185000770980910701882329F0813031F081ECEC
:1018600092E01ECE8AEC92E01BCE8CEB92E018CE7A
:101870008EEA92E015CE81EA92E00E94770961E05B
:1018800080E00E94620980919E02882309F448C08A
:101890008EE992E00E9477098091790281110DC052
:1018A00085E992E00E947709C091090183E992E0FD
:1018B000C830E0F08EE892E0F3CD813069F483E83F
:1018C00092E00E947709C091010181E892E0C8305E
:1018D00068F08CE792E0E4CD81E792E00E9477091E
:1018E000C0910801C830C8F48FE692E00E947709E1
:1018F0006C2F70E090E080E04AE0DF91CF91FF90A4
:10190000EF90DF90CF90BF90AF909F908F907F909F
:101910006F905F904F900C94E8068AE692E0C0CDFD
:101920008CE592E0BDCD833009F0F1CD80919F022E
:101930008130E1F080F08230B1F1833009F0E7CD01
:1019400086EB91E00E94770961E080E00E946209E5
:1019500087EA91E0A5CD82E392E00E94770961E0F9
:1019600080E00E94620986E292E09ACD85E192E0F1
:101970000E94770961E080E00E94620980919E02E6
:10198000882371F082E192E00E947709809104013E
:10199000811103C08AE092E083CD8EE092E080CD99
:1019A0008CEF91E07DCD80919C02811117C08DED6F
:1019B00091E00E94770961E080E00E9462098091D5
:1019C0009E02882389F08AED91E00E947709809138
:1019D0009D02811106C082ED91E062CD8CEE91E016
:1019E000E8CF86ED91E05CCD84EC91E059CD61E0EB
:1019F00080E00E9462098BE892E00E94360761E075
:101A000080919B010E9462098091E902982F926067
:101A10009093E9028A60DF91CF91FF90EF90DF9081
:101A2000CF90BF90AF909F908F907F906F905F907E
:101A30004F900C94B30860E080E00E9462098091AE
:101A4000B702882319F081EA91E02ACD0E94E303CE
:101A5000C0909701D0909801E0909901F0909A0180
:101A60009B01AC012C193D094E095F0969017A01FE
:101A70003AEFC316D104E104F10408F448CD6093B1
:101A80009701709398018093990190939A018BE943
:101A900091E00E947709C091960160E08C2F0E942E
:101AA0006209D091000185E991E0DD2311F088E918
:101AB00091E00E9477098FEFD11181E08C0F809324
:101AC0009601882319F0833009F021CD81E0D827D1
:101AD000D09300011CCD80916002882381F0DF91BA
:101AE000CF91FF90EF90DF90CF90BF90AF909F90FD
:101AF0008F907F906F905F904F900C94B90881E029
:101B00000E94120AC5E0A0CC61E086E00E94D502E6
:101B10000E94B908C09157028EE791E0CC2311F0E2
:101B200088E891E00E94770961E080E00E94620904
:101B300082E691E0CC2309F4B3CC81E791E00E94E6
:101B40007709E0910A0166CE2F923F924F925F9201
:101B50006F927F928F929F92AF92BF92CF92DF92BD
:101B6000EF92FF920F931F93CF93DF9300D01F92BA
:101B7000CDB7DEB7D82EF62E042FE52E2B83862F79
:101B8000880F89831AE088248A9485EE982E95EC34
:101B9000C92EA22EB12C922F91509A83DD2009F4E8
:101BA000F0C00E948C032B013C0180912302811123
:101BB00065C0E1E0E0932302E093250280922202D7
:101BC00010924702FA81F0934602E0934802809116
:101BD00048029981892B80934802809124028130A8
:101BE00009F08BC0109224020E948C032B013C014F
:101BF000809148028093BB008091520290915302E1
:101C0000A0915402B0915502892B8A2B8B2BA1F005
:101C10000E948C0320915202309153024091540251
:101C200050915502641975098609970926173707D7
:101C30004807590708F443C08091BC0083FDD8CF02
:101C4000C092BC000E948C032B013C0180912302B6
:101C5000813009F455C080914702EB818E1708F05E
:101C600071C080914702E6E2F2E0AFEBB1E090E0B4
:101C7000981751F121912D939F5FFACF80915202D5
:101C800090915302A0915402B0915502892B8A2B56
:101C90008B2B09F48ACF0E948C0320915202309141
:101CA00053024091540250915502641975098609F6
:101CB0009709261737074807590708F076CF80910C
:101CC00051020E949F0480E01092500280934F02C4
:101CD000FB81F81339C00983C02EDE2C8C2D99812D
:101CE000891BEB818E1708F007C18CEC92E00E94F3
:101CF000D004F60181936F01F1CF9092BC00A2CF86
:101D00008091520290915302A0915402B0915502D9
:101D1000892B8A2B8B2B09F499CF0E948C0320915D
:101D2000520230915302409154025091550264196D
:101D3000750986099709261737074807590708F0D4
:101D400085CFBDCF8B818FCF62E370E080E090E0E4
:101D50000E94B103115009F021CF8091BD02811181
:101D60002FC160E085E00E94D50287E00E94120A40
:101D700083E00E94AC02892B09F004C10E94EF03AA
:101D8000F7CFF1E0F093BE01F092950110924E0270
:101D900010924D028B81882339F0A501602F7E2D92
:101DA0008CEC92E00E94EA0430904D0290E281E0D7
:101DB000931508F499C0209095010E948C032B0183
:101DC0003C0180912302811169C0E2E0E09323028B
:101DD000F1E0F093250280922202109247023092A5
:101DE0004602EEE9F1E0A6E2B2E038129CC01092A1
:101DF000480280914802220C282A209248028091B1
:101E00002402813009F093C0109224020E948C03B6
:101E10002B013C01809148028093BB0080915202CB
:101E200090915302A0915402B0915502892B8A2BB4
:101E30008B2BA1F00E948C0320915202309153020F
:101E40004091540250915502641975098609970909
:101E5000261737074807590708F441C08091BC008E
:101E600083FDD8CFC092BC000E948C032B013C01A3
:101E700080912302823009F45DC0809122028F3F5D
:101E800009F47AC080912202803209F477C08091EF
:101E90002202803309F474C084E026C0809152028B
:101EA00090915302A0915402B0915502892B8A2B34
:101EB0008B2B09F486CF0E948C0320915202309123
:101EC00053024091540250915502641975098609D4
:101ED0009709261737074807590708F072CF8091EE
:101EE00051020E949F0485E010924E0210924D0212
:101EF0001092BE01811128CF81E00F900F900F90BA
:101F0000DF91CF911F910F91FF90EF90DF90CF90D5
:101F1000BF90AF909F908F907F906F905F904F9009
:101F20003F902F90089591919D938F5F5ECF9092F7
:101F3000BC009ACF8091520290915302A09154021A
:101F4000B0915502892B8A2B8B2B09F491CF0E94DB
:101F50008C032091520230915302409154025091CF
:101F60005502641975098609970926173707480726
:101F7000590708F07DCFB3CF80E0B6CF82E0B4CF71
:101F800083E0B2CF0E94EF0383E00E94AC02892B72
:101F9000C9F783E00E94AC02892B19F40E94EF0379
:101FA000F8CF60E085E00E94D50288E198E00FB6A6
:101FB000F894A895809360000FBE90936000FFCFC7
:101FC00080E09BCFCF92DF92EF92FF920E94E303DB
:101FD0006B017C0180919B018F3068F11092AE0201
:101FE00010929B0110929E021092AF0210929B02DF
:101FF00040E150E06BE872E08AE792E00E940C2139
:1020000010928A0283E00E94120A8EE5C80E81E0D7
:10201000D81EE11CF11CC092AA02D092AB02E09241
:10202000AC02F092AD0281E08093A902FF90EF90A4
:10203000DF90CF9008958F5F80939B0184E0FF90A5
:10204000EF90DF90CF900C94120AE0919B01F0E0AA
:10205000E557FD4F2081022E000C330B2052310931
:10206000A901480F511D87FD5A95CA01815A9F4FFA
:102070006FE570E00E948D20805E808384E00C9488
:10208000120A81E080939D0283E00C94120A109260
:102090009D0283E00C94120A81E08093040183E0A6
:1020A0000C94120A1092040183E00C94120A80919D
:1020B0007902811111C080910901883029F41092B0
:1020C000090183E00C94120A873021F488E08093A0
:1020D0000901F7CF8F5FFBCF813079F48091010147
:1020E000883019F410920101ECCF873021F488E098
:1020F00080930101E6CF8F5FFBCF8091080188308C
:1021000019F410920801DDCF873021F488E0809324
:102110000801D7CF8F5FFBCF80917902811110C06A
:1021200080910901883031F487E08093090183E0D0
:102130000C94120A811102C088E0F7CF8150F5CFCC
:10214000813071F480910101883021F487E080931F
:102150000101EDCF811102C088E0F9CF8150F7CFA6
:1021600080910801883021F487E080930801DFCF57
:10217000811102C088E0F9CF8150F7CF809107012B
:10218000813029F41092070183E00C94120A811126
:10219000FBCF82E080930701F7CF80910701823067
:1021A00029F41092070183E00C94120A8111FBCFED
:1021B00081E080930701F7CF80910201811103C074
:1021C00081E0809302010E9449058093030183E02E
:1021D0000C94120A80910201882319F08150809397
:1021E00002010E9449058093030183E00C94120AC6
:1021F0008091D802833018F48F5F8093D80283E0F7
:102200000C94120A8091D802882319F0815080938F
:10221000D80283E00C94120A0E94490590910301B0
:10222000981718F49F5F9093030183E00C94120AAF
:1022300080910301882319F081508093030183E08A
:102240000C94120AE0910201F0E0E456FE4F808106
:10225000863028F48F5F808383E00C94120A80E03C
:10226000FACFE0910201F0E0E456FE4F808188232E
:1022700029F08150808383E00C94120A86E0FACF23
:102280009091A00280919F0291111DC0813079F040
:1022900030F0823081F0833091F083E039C01092C9
:1022A0008C0181E08093A00210929F02F6CF809370
:1022B0008C0182E0F7CF80938C0183E0F3CF81E043
:1022C0008093AF02F1CFE92FF0E0E25AFE4F208178
:1022D0002150330B8217130639F41092A00280911B
:1022E0008C0180939F02D9CF9330D1F4811112C019
:1022F00010929B0181E08093AE0240E150E06AE7DA
:1023000072E08BE892E00E940C2110929B0284E024
:102310000C94120A823021F410929D0210929C02B9
:1023200081E080939E02B9CF80919F02823030F489
:102330008F5F80939F0283E00C94120A089580912E
:102340009F02882331F0815080939F0283E00C9498
:10235000120A08954F925F926F927F928F929F928E
:10236000AF92BF92CF92DF92EF92FF92CF93DF9323
:1023700000D000D000D0CDB7DEB78D83409088016B
:102380005090890160908A0170908B01C090840107
:10239000D0908501E0908601F090870180917102D4
:1023A0008823C9F180906D0290906E02A0906F0218
:1023B000B09070020E946F058E830E9454059B01AD
:1023C000AC01D301C2018C199D09AE09BF098983F3
:1023D0009A83AB83BC839E81A92FB0E00E94C92061
:1023E00029813A814B815C812617370748075907B5
:1023F00010F4CA01B9013D8113160CF043C0860EDA
:10240000971EA81EB91E80926D0290926E02A09235
:102410006F02B092700280916D0290916E02A09155
:102420006F02B09170028C159D05AE05BF0578F165
:10243000481659066A067B0610F06C017D01C092B1
:102440006D02D0926E02E0926F02F092700282E012
:102450000E94120A81E08093710226960FB6F894CA
:10246000DEBF0FBECDBFDF91CF91FF90EF90DF9029
:10247000CF90BF90AF909F908F907F906F905F9024
:102480004F900895861A970AA80AB90ABCCF73011B
:102490006201D5CFCF93DF9386E490E00E945F077F
:1024A000811181E08093020188E290E00E945F0741
:1024B000C82F0E9449059C2F8C1708F4982F9093E1
:1024C00003010E94610780E590E00E945F0784306D
:1024D00008F081E080930A0182E390E00E945F07A8
:1024E000833008F081E08093070186E590E00E9448
:1024F0005F07C82F87E590E00E945F07D82F88E527
:1025000090E00E945F07CF3F09F040C0DF3F09F035
:102510003FC08F3FE9F585E08093090186E0809315
:10252000010182E0809308018AE792E00E9443075C
:1025300090918A0210928A02EAE7F2E02AE832E0F9
:10254000819180528F3528F42E173F07C9F79923C0
:1025500081F040E150E06DE071E08AE792E00E9496
:102560000C2144E050E060E270E086E892E00E94D6
:10257000F7208EE190E00E945F0791E0811101C099
:1025800090E090930401DF91CF910895C83008F056
:10259000C8E0C0930901D83008F0D8E0D093010119
:1025A000883008F4BFCF88E0BDCF0E944A12609106
:1025B0006D0270916E0280916F029091700241E005
:1025C0000E948E0660936D0270936E0280936F027C
:1025D000909370021092AF0210929D0210929C0292
:1025E0001092BD021092A00281E00C94120AFF9298
:1025F0000F931F93CF93DF93EC01F62E088119817F
:10260000C8010E94941EF81621F06F2DC8010E9487
:102610009C1ECE01DF91CF911F910F91FF900895E5
:10262000CF93DF9300D0CDB7DEB79A838983CE01F5
:1026300001960E94F7120F900F90DF91CF910895AD
:10264000CF92DF92EF92FF920F931F93CF93DF937E
:10265000CDB7DEB72A970FB6F894DEBF0FBECDBF59
:1026600060916D0270916E0280916F029091700284
:1026700041E00E948E066B017C01C0926D02D092F7
:102680006E02E0926F02F092700280916902909166
:102690006A02A0916B02B0916C02C816D906EA06D4
:1026A000FB0629F48091BD02882309F487C00E94AB
:1026B00054059B01AC01C701B6010E94A1203D83D6
:1026C0002E8380910701823009F487C08EEC8F83BE
:1026D0009091010180E0983028F481E001C0880FDA
:1026E0009A95EAF78887E0910A01F0E0EE59FE4FEB
:1026F00024E0AE014B5F5F4F608180E00E94A40D3B
:10270000882309F45BC040916D0250916E02609184
:102710006F027091700280910201282F30E0F90160
:10272000E456FE4F908149835A836B837C839730B4
:1027300090F5823080F5C0906902D0906A02E090F6
:102740006B02F0906C024C155D056E057F0519F16A
:10275000892F90E0880F991F820F931F880F991F70
:10276000880F991F7C012AE5E20EF11CFE013196CB
:102770006F018C01025A1F4FFA86E986F6016191BA
:102780006F01CE0109960E94F712FFEFEF1AFF0AC0
:10279000E016F10689F780916D0290916E02A0918A
:1027A0006F02B09170028093690290936A02A093C5
:1027B0006B02B0936C0281E08093B8022A960FB648
:1027C000F894DEBF0FBECDBFDF91CF911F910F9167
:1027D000FF90EF90DF90CF9008958FEC78CFCF935C
:1027E000DF938091A0028230A9F480919F02833010
:1027F00071F480917902823040F48F5F8093790286
:1028000083E0DF91CF910C94120A1092790210921A
:102810009E02F6CF8330D9F780919F028230B9F7BC
:1028200080919D02882309F461C080919C028823D5
:1028300009F456C0CAE0D0E06FEFCE010E94101339
:102840002196C239D105C1F70E944A1260916D02EA
:1028500070916E0280916F029091700241E00E942F
:102860008E0660936D0270936E0280936F02909358
:10287000700280910A018093D80240E150E06AE73B
:1028800072E08BE892E00E940C2110929B02109261
:1028900079020E9420131092BD0210929E021092A3
:1028A000AF0210929D0210929C021092A002109210
:1028B0009F0281E00E94120A0E94E303625A7E4F47
:1028C0008F4F9F4F6093AA027093AB028093AC022C
:1028D0009093AD0281E08093A902DF91CF9108959A
:1028E00081E080939C0210929D028ACF10929C02FC
:1028F0008ECFCF92DF92EF92FF920F931F93CF93E1
:10290000DF93CDB7DEB763970FB6F894DEBF0FBE87
:10291000CDBF80919F028111CDC08091AE02811107
:1029200037C040E150E06BE872E08AE792E00E9435
:102930000C2110928A028AE7E82E82E0F82EF70135
:10294000819180528F3508F0C5C022E0EA38F20745
:10295000B9F7CE0101960E94430741E150E0BE0164
:102960006F5F7F4F8AE792E00E94FE20892B81F003
:102970000AE010E01B8B0A8BF70161917F01CE0109
:1029800042960E94F7120F5F1F4F0B31110591F70E
:1029900010910A01E091D8021E1789F0F0E0EE597B
:1029A000FE4F20E050E040E0608180E00E94A40DF6
:1029B000882309F45EC08091D80280930A01609157
:1029C0009C018CE390E00E94101360919D018DE3C7
:1029D00090E00E9410136091030188E290E00E9451
:1029E000101360910A0180E590E00E94101360913D
:1029F000020186E490E00E9410136091070182E3D7
:102A000090E00E94101360910901683008F068E0BE
:102A100086E590E00E94101360910101683008F093
:102A200068E087E590E00E9410136091080168302B
:102A300008F068E088E590E00E94101360910401BE
:102A40008EE190E00E9410130E9461070E94201303
:102A50000E94D51263960FB6F894DEBF0FBECDBFAD
:102A6000DF91CF911F910F91FF90EF90DF90CF906A
:102A7000089510930A0181E08093570287E00E9435
:102A8000120A109257020E94E3036B017C010E941C
:102A9000E3036C197D098E099F09643C7940810527
:102AA000910518F40E94EF03F2CF60E085E00E94E8
:102AB000D50285CF813031F40E94D51285E00E9485
:102AC000120AC8CF823031F61092AF0210929F02E4
:102AD00083E0F5CF40E150E06DE071E08AE792E0FD
:102AE0000E940C2144E050E060E270E086E892E051
:102AF0000E94F7202ECF1F920F920FB60F92112433
:102B00002F933F938F939F93AF93BF938091BF0277
:102B10009091C002A091C102B091C2023091BE0258
:102B200023E0230F2D3758F50196A11DB11D2093E9
:102B3000BE028093BF029093C002A093C102B093E3
:102B4000C2028091C3029091C402A091C502B091CB
:102B5000C6020196A11DB11D8093C3029093C402C9
:102B6000A093C502B093C602BF91AF919F918F9180
:102B70003F912F910F900FBE0F901F90189526E850
:102B8000230F0296A11DB11DD2CF1F920F920FB637
:102B90000F9211242F933F934F935F936F937F93E3
:102BA0008F939F93AF93BF93EF93FF938091B9005F
:102BB000887F803609F44AC0F0F5883209F4A7C04E
:102BC00018F5803109F49BC0B8F4882309F4F9C0E2
:102BD000883009F494C0FF91EF91BF91AF919F911C
:102BE0008F917F916F915F914F913F912F910F90B6
:102BF0000FBE0F901F901895883109F488C080325D
:102C000051F78093220214C0803409F49DC040F42F
:102C10008033B9F38833F9F68093220285ECB0C093
:102C2000803509F485C0883509F496C0883499F652
:102C30000E949109D0CF883909F48CC038F58837C3
:102C400029F050F4883611F0803729F683E080931C
:102C500023021092210257C0883809F47BC08039C2
:102C600019F0803809F0B7CF80912102803208F046
:102C700071C0E091210281E08E0F8093210280914A
:102C8000BB00F0E0EF5FFD4F80833DC0803B39F03B
:102C9000E0F4803A09F479C0883A09F09CCF84E0E6
:102CA00080932302109200021092FF01E0914B02E8
:102CB000F0914C0209958091FF0181110FC081E0D4
:102CC0008093FF011092DF0109C0803C09F4A6CF78
:102CD000883C09F4A3CF883B09F07DCFE091000246
:102CE00081E08E0F80930002F0E0E152FE4F808180
:102CF0008093BB00909100028091FF0129C08091D8
:102D000048028093BB0085EC8093BC0064CF909117
:102D1000470280914602981758F5E091470281E0FA
:102D20008E0F80934702F0E0EA5DFD4F8081E9CF8E
:102D3000E091470281E08E0F809347028091BB00B3
:102D4000F0E0EA5DFD4F808390914702809146025A
:102D50009817C8F285E8D8CFE091470281E08E0F3E
:102D6000809347028091BB00F0E0EA5DFD4F8083D5
:102D70008091250281115CCF81E08093240284EA56
:102D80008093BC001092230226CF85EC8093BC0078
:102D90001092230280912102803230F4E0912102CE
:102DA000F0E0EF5FFD4F10826091210270E0E09152
:102DB0004902F0914A0281E092E0099510922102C5
:102DC0000ACF1092220234CFECECF2E0138212828E
:102DD00088EE93E0A0E0B0E084839583A683B78378
:102DE0008AE691E091838083E9EDF2E0138212821A
:102DF0008CE791E09183808388E084838FEF8583E3
:102E000089E086838AE087838BE080878CE08187F6
:102E10008DE082871386148615861686178681E0D4
:102E20000E94C10880910A018093D8020895CF932F
:102E3000DF9300D000D000D01F92CDB7DEB77894DA
:102E400084B5826084BD84B5816084BD85B58260AF
:102E500085BD85B5816085BD80916E008160809360
:102E60006E001092810080918100826080938100C9
:102E700080918100816080938100809180008160D9
:102E8000809380008091B10084608093B100809134
:102E9000B00081608093B00080917A00846080935C
:102EA0007A0080917A00826080937A0080917A0023
:102EB000816080937A0080917A00806880937A00A4
:102EC0001092C10062E082E00E94030362E083E0AE
:102ED0000E94030362E084E00E94030361E085E056
:102EE0000E94030361E085E00E94030361E086E045
:102EF0000E9403031092500210924F0210924E0251
:102F000010924D020E9481048AE294E090934C0258
:102F100080934B028BE294E090934A0280934902A3
:102F200082EF8093B8001092560288E893E1A0E007
:102F3000B0E08093520290935302A0935402B09356
:102F4000550211E01093510282E00E94C1088FEFF8
:102F500090E00E94340380E00E94120A64EC79E061
:102F600080E090E00E94B10383E00E94AC02892BD4
:102F7000A1F410930A0161E080E590E00E94101333
:102F80001093570287E00E94120A1092570264ECD5
:102F900079E080E090E00E94B1030E944A120E9412
:102FA000201381E00E94120A85E00E94120AAA24DE
:102FB000A394B12C90E0892E90E0992E11E0222468
:102FC0002A940E94E3036B017C0182E00E94AC0220
:102FD00033243394892B09F0312C3092B60283E0EC
:102FE0000E94AC0201E0892B09F000E00093B402DA
:102FF00084E00E94AC0221E0892B09F020E02093BC
:10300000B502432C400E5524551CC201820F911D60
:1030100002970CF463C11092B5021092B4021092A0
:10302000B602C0925802D0925902E0925A02F0922F
:103030005B0280917102811108C08091BD028111F3
:1030400004C08091B702811163C110926502109291
:10305000660210926702109268028091BD0281118F
:103060005CC03090B60231100CC08091B402811166
:1030700008C08091B502811104C0809106018111C0
:103080004CC00E94E3036B017C012AEA31E14FEF5F
:1030900068E772E0832D0E94B2052AEA31E141E03F
:1030A00067E772E08091B5020E94B2058091B60296
:1030B000811104C08091B502882351F0C092720240
:1030C000D0927302E0927402F0927502109206019F
:1030D00080917102882309F416C28091B40288237A
:1030E00009F411C20E94E3036B017C010E942013CA
:1030F000109271029EE5C90E91E0D91EE11CF11CEF
:10310000C092AA02D092AB02E092AC02F092AD0261
:1031100081E00E94120A109306010E94E3036B01F2
:103120007C018091B602811108C09091B502911185
:1031300004C09091B402992341F0C092B002D092A1
:10314000B102E092B202F092B3022091BD022223BA
:1031500009F404C29091AF02911100C24090B002F4
:103160005090B1026090B2027090B302B701A60114
:10317000441955096609770941325E4461057105B4
:1031800008F4ECC11092AE020E94D51285E00E94B4
:10319000120AAEE5CA0EA1E0DA1EE11CF11CC092D3
:1031A000AA02D092AB02E092AC02F092AD02109370
:1031B000A9028091B802882309F458C0E0910A015D
:1031C000F0E0EE59FE4F21E0AE014D5F5F4F6081B0
:1031D00081E00E94A40D882309F448C08B8186FBFE
:1031E000882780F98093B7028091BD02811103C0C6
:1031F00085E00E94120A8091B702882391F18091A4
:103200000901883008F0CBC27A2D01C0770F8A956A
:10321000EAF7872F90910801983030F4950101C0AA
:10322000220F9A95EAF7822B20910701213009F4A9
:10323000B8C291E0223009F090E02EE8922B9983F9
:103240008A83E0910A01F0E0EE59FE4F22E0AE01E0
:103250004F5F5F4F608180E00E94A40D811110924A
:10326000B8026091B70285E00E94D5028091BD024C
:1032700081112DC00E94E303C090B902D090BA0220
:10328000E090BB02F090BC022B013C014C185D08A1
:103290006E087F087301620120EDC21627E0D20696
:1032A000E104F104A0F06093B9027093BA02809334
:1032B000BB029093BC02E0910A01F0E0EE59FE4F90
:1032C00020E050E040E0608180E00E94A40D811485
:1032D000910409F476CE0E94000071CE80915802CC
:1032E00090915902A0915A02B0915B02C81AD90A72
:1032F000EA0AFB0A22E3C216D104E104F10408F051
:1033000098CE1092B5021092B4021092B60291CEED
:103310000E94E3036B017C0180916502909166023B
:10332000A0916702B0916802892B8A2B8B2BB9F48C
:1033300083E00E94AC02892B51F482E00E94AC022F
:10334000892B29F084E00E94AC02892B89F7C09276
:103350006502D0926602E0926702F09268022091C4
:10336000B402222309F4BCC0409161025091620270
:103370006091630270916402411551056105710508
:1033800009F08DC0C0926102D0926202E0926302A5
:10339000F09264029091B602911106C0211104C00E
:1033A0008091B502882389F1209205018FEF90E08A
:1033B0000E943403809160028823F9F01092600229
:1033C00086E00E94120A8091B60202E0811106C0D6
:1033D0008091B50204E0811101C003E0802F0E94BA
:1033E000AC02892BD9F3033009F488C0043009F406
:1033F00080C0109278021092B602C0926502D092FC
:103400006602E0926702F0926802809104018823CC
:1034100009F423CE8091650290916602A091670223
:10342000B091680226013701481A590A6A0A7B0AD4
:10343000D301C201853C9940A105B10508F40DCE28
:1034400080916002811109CE209105012F3108F48D
:1034500004CE40915C0250915D0260915E027091D9
:103460005F02D701C601841B950BA60BB70BAC01FD
:10347000BD01473051056105710508F4EECD8FEFB0
:10348000820F8093050190E00E943403C0925C0299
:10349000D0925D02E0925E02F0925F02DECDD70133
:1034A000C601841B950BA60BB70BAC01BD014D3DAE
:1034B00055406105710508F46DCF9091600291113E
:1034C00069CF90E080E00E9434031093600286E0B0
:1034D0000E94120A83E00E94AC02892BD9F3BDCD71
:1034E00010926102109262021092630210926402C2
:1034F00051CF109277021092B5027FCF10927602D0
:103500001092B4027ACF8091720290917302A091CE
:103510007402B0917502C81AD90AEA0AFB0AA9E82E
:10352000CA16A3E1DA06E104F10408F4F6CD10921C
:103530007102809106018111F0CD80916902909114
:103540006A02A0916B02B0916C0280936D0290931D
:103550006E02A0936F02B0937002DACD9091A9022F
:10356000992339F08091B402811123CE1092A902DF
:1035700020CE9091AE0221112BC091111ACE8091D4
:10358000AA029091AB02A091AC02B091AD02C81614
:10359000D906EA06FB0608F40CCE8091A5029091AC
:1035A000A602A091A702B091A8022091B402222302
:1035B00009F4FAC0892B8A2B8B2B09F0FACDC09223
:1035C000A502D092A602E092A702F092A802F1CD45
:1035D0009923D1F025E230E14FEF68E772E00E94D5
:1035E000B20525E230E141E067E772E08091B50283
:1035F0000E94B20522EE3FE040E066E772E0809173
:10360000B4020E94B205D5CD9091AF02992399F0F2
:103610002FE931E14FEF68E772E00E94B20524E93B
:1036200031E141E067E772E08091B5020E94B205A6
:1036300029E734E1E1CFE091A00290919E0291113F
:1036400037C0F0E0E25AFE4FF080882359F18091B4
:10365000780281110CC01093780280919F02882318
:1036600019F0815080939F0283E00E94120A80919A
:10367000B5028823D1F080917702811110C0109398
:10368000770280919F026F2D6150770B8617170686
:103690001CF48F5F80939F0283E00E94120A20E453
:1036A00031E1AACF10927802E2CF10927702F7CFE1
:1036B000E13021F590919F02992329F09130A1F0FA
:1036C0002FEE33E199CF21E331E14FEF68E772E06C
:1036D0000E94B20522E231E141E067E772E08091A9
:1036E000B5020E94B205ECCF28E131E14FEF68E767
:1036F00072E00E94B2052CE031E1EECFE23089F5B4
:1037000090919F029130C9F070F0923001F19330A6
:10371000B9F62CE830E14FEF68E772E00E94B2059D
:1037200027E530E1D9CF22E031E14FEF68E772E0E1
:103730000E94B20528EF30E1CFCF2AEE30E14FEF03
:1037400068E772E00E94B2052CED30E1C5CF2DECA8
:1037500030E14FEF68E772E00E94B2052EEB30E1F6
:10376000BBCFE33009F0ACCF90919F02913069F06C
:10377000923009F0A5CF27E430E14FEF68E772E01F
:103780000E94B20521E430E1A7CF22E530E14FEFFE
:1037900068E772E00E94B2052CE430E19DCF80E042
:1037A00039CD2EEC90E04ACD0097A105B10509F482
:1037B00000CD1092A5021092A6021092A7021092BC
:1037C000A80226013701481A590A6A0A7B0AD3015E
:1037D000C2018E359140A105B10508F0EACC809177
:1037E000A1029091A202A091A302B091A4024EEC7A
:1037F0005FEF6FEF7FEF481B590B6A0B7B0BDB0111
:10380000CA018C0D9D1DAE1DBF1DC092A102D0929C
:10381000A202E092A302F092A4028C329140A10590
:10382000B10508F0C6CC1093BD021092A002109210
:103830009F0210929E021092AF0210929D0210926F
:103840009C0280910A018093D80240E150E06AE72F
:1038500072E08BE892E00E940C2110929B02109281
:10386000790283E00E94120A1093A902C092B0026A
:10387000D092B102E092B202F092B3029ACCEF92EF
:103880000F931F93CF93DF93E80134E047FD34E1BA
:10389000042E000C550B57FF03C05195419551095B
:1038A000E32E022F242FAE010E945D1CCE01DF917A
:1038B000CF911F910F91EF900895A9E0B0E0E3E65A
:1038C000FCE10C94B01E6A01F22EB02E102FFBE327
:1038D000AF2EA01608F41BE31F5F012F27E0AE01F7
:1038E0004F5F5F4F0E94BC1DBC018981982F99706A
:1038F000913009F43FC09BE2E1FC04C09E2D917021
:10390000E0FC3AC05E2D5071E82FE87083FF46C09E
:1039100084E0911101C083E0EF2DE81B8F1508F0C2
:10392000E0E0D6018E2F20E2552351F1992329F0B2
:10393000D6019C93C60101966C0196012D5F3F4F05
:10394000E2FE24C08EE4D6018C9391E411969C9300
:10395000119712968C93D9018E2F90E281111BC082
:10396000E20FF32FF11D10828EEF9FEF2996ECE00E
:103970000C94CC1E9DE2C6CF90E2C4CF2D93815013
:103980008111FCCFCE0ED11CE0E0D0CF8EE6D60167
:103990008C9391E6DBCF9D938150E0CF482F44700C
:1039A00082FF3DC084E0911101C083E08F1510F4C7
:1039B000EF2DE81BD6018E2F20E2552309F1992324
:1039C00029F0D6019C93C60101966C0196012D5FEA
:1039D0003F4FE2FE1BC089E4D6018C938EE4119622
:1039E0008C93119786E412968C93D9018E2F90E2D6
:1039F000882309F4B5CF9D938150FACF2D93815040
:103A00008111FCCFCE0ED11CE0E0D9CF89E6D601E2
:103A10008C938EE611968C93119786E6E4CF9B01EA
:103A200077FF02C030E020E0A1E0B0E0911102C0D9
:103A3000B0E0A0E0F9013196AE0FBF1F8B2C912CA6
:103A4000BB2009F461C05401EFEFAE1ABE0AAA0D03
:103A5000BB1DFA161B0619F014F04F2D4A1B51110D
:103A600088C0E3FC59C07601A42FB0E2A1114FC079
:103A7000C40ED11C992309F45BC040E0D601119615
:103A8000F60190836D01552309F448C0012F060FFC
:103A90009A81582F507184FF03C0913309F401506B
:103AA00010160CF047C0093008F008E0EEE2FE2ED8
:103AB0005B01A01AB10885019194819491082F3F70
:103AC000320729F4D601FC92F60131966F01621794
:103AD000730794F1021713077CF5DB01A21BB30BEC
:103AE000AA24A394B12CAC0EBD1EAA0DBB1D119629
:103AF0008C9121503109D601119628153905F4F021
:103B0000F60180836D01DBCFB12CA12CA0CFF70192
:103B1000B1937F01A150AACF9111B0CFD601942FBC
:103B200050E302C05D9391509111FCCFC40ED11CA3
:103B300040E0ACCF01E0BACF80E3DBCF6217730780
:103B400031F4963388F4953311F4552369F0F60176
:103B50008083FD01842F90E2811108C0A40FB11D64
:103B60001C9290E080E002CF81E3F1CF91938150ED
:103B7000F3CF911183CF8ACF283008F027E0332785
:103B8000DA01990F311D87FD91600096610571057D
:103B900039F432602E5F3D9330E32A95E1F70895C2
:103BA0009F3F30F080387105610509F03C5F3C5F54
:103BB0003D93913008F08068911DDF93CF931F9360
:103BC0000F93FF92EF92192F987F9695E92F969574
:103BD0009695E90FFF27EE53FF4F99273327EE24E1
:103BE000FF24A701E70105900894079428F4360FF5
:103BF000E71EF81E491F511D660F771F881F991F6A
:103C00000694A1F70590079428F4E70EF81E491FC3
:103C1000561FC11D770F881F991F661F0694A1F7B5
:103C20000590079428F4F80E491F561FC71FD11D91
:103C3000880F991F661F771F0694A1F705900794B8
:103C400020F4490F561FC71FD81F990F661F771FF3
:103C5000881F0694A9F784911095177041F0D695A6
:103C6000C79557954795F794E7941A95C1F7E8E6F5
:103C7000F0E06894159015913591659195910590B6
:103C80007FE27395E118F10A430B560BC90BD0097B
:103C9000C0F7E10CF11E431F561FC91FD01D7EF453
:103CA000703311F48A95E6CFE894015030F0080F94
:103CB0000AF40027021708F4202F2395022F7A33E5
:103CC00028F079E37D932A95E9F710C07D932A9532
:103CD00089F6069497956795379517951794E11887
:103CE000F10A430B560BC90BD00998F023957E912E
:103CF00073957A3308F070E37C932013B8F77E91C4
:103D000070617D9330F0839571E37D9370E32A9524
:103D1000E1F71124EF90FF900F911F91CF91DF9168
:103D2000992787FD90950895F999FECF92BD81BDA1
:103D3000F89A992780B50895262FF999FECF1FBAD2
:103D400092BD81BD20BD0FB6F894FA9AF99A0FBEC4
:103D5000019608952F923F924F925F926F927F92B9
:103D60008F929F92AF92BF92CF92DF92EF92FF928B
:103D70000F931F93CF93DF93CDB7DEB7CA1BDB0B37
:103D80000FB6F894DEBF0FBECDBF09942A883988DC
:103D900048885F846E847D848C849B84AA84B984E3
:103DA000C884DF80EE80FD800C811B81AA81B981EF
:103DB000CE0FD11D0FB6F894DEBF0FBECDBFED0103
:103DC00008955058BB27AA270E94F91E0C9443203F
:103DD0000E94352038F00E943C2020F039F49F3FAB
:103DE00019F426F40C9432200EF4E095E7FB0C94C1
:103DF0002C20E92F0E94542058F3BA17620773074A
:103E00008407950720F079F4A6F50C9476200EF43B
:103E1000E0950B2EBA2FA02D0B01B90190010C01DA
:103E2000CA01A0011124FF27591B99F0593F50F4F2
:103E3000503E68F11A16F040A22F232F342F44274A
:103E4000585FF3CF469537952795A795F040539542
:103E5000C9F77EF41F16BA0B620B730B840BBAF012
:103E60009150A1F0FF0FBB1F661F771F881FC2F77D
:103E70000EC0BA0F621F731F841F48F48795779591
:103E80006795B795F7959E3F08F0B0CF9395880F4B
:103E900008F09927EE0F9795879508950E94621F65
:103EA0000C9443200E943C2058F00E94352040F0A2
:103EB00029F45F3F29F00C942C2051110C947720A9
:103EC0000C9432200E94542068F39923B1F35523B7
:103ED00091F3951B550BBB27AA276217730784071D
:103EE00038F09F5F5F4F220F331F441FAA1FA9F3B3
:103EF00035D00E2E3AF0E0E832D091505040E695A1
:103F0000001CCAF72BD0FE2F29D0660F771F881F01
:103F1000BB1F261737074807AB07B0E809F0BB0BF4
:103F2000802DBF01FF2793585F4F3AF09E3F510508
:103F300078F00C942C200C9477205F3FE4F3983EAB
:103F4000D4F3869577956795B795F7959F5FC9F7F1
:103F5000880F911D9695879597F90895E1E0660F72
:103F6000771F881FBB1F621773078407BA0720F0EB
:103F7000621B730B840BBA0BEE1F88F7E095089554
:103F80000E945C2088F09F5798F0B92F9927B7516D
:103F9000B0F0E1F0660F771F881F991F1AF0BA95ED
:103FA000C9F714C0B13091F00E947620B1E00895B5
:103FB0000C947620672F782F8827B85F39F0B93FA7
:103FC000CCF3869577956795B395D9F73EF49095A0
:103FD0008095709561957F4F8F4F9F4F0895E8941E
:103FE00009C097FB3EF490958095709561957F4F41
:103FF0008F4F9F4F9923A9F0F92F96E9BB279395EF
:10400000F695879577956795B795F111F8CFFAF4FE
:10401000BB0F11F460FF1BC06F5F7F4F8F4F9F4F2F
:1040200016C0882311F096E911C0772321F09EE88D
:10403000872F762F05C0662371F096E8862F70E0F3
:1040400060E02AF09A95660F771F881FDAF7880FCD
:104050009695879597F9089597F99F6780E870E09E
:1040600060E008959FEF80EC089500240A941616EE
:10407000170618060906089500240A941216130656
:10408000140605060895092E0394000C11F48823E4
:1040900052F0BB0F40F4BF2B11F460FF04C06F5F00
:1040A0007F4F8F4F9F4F089557FD9058440F551FD6
:1040B00059F05F3F71F04795880F97FB991F61F0AA
:1040C0009F3F79F087950895121613061406551F21
:1040D000F2CF4695F1DF08C0161617061806991F8D
:1040E000F1CF86957105610508940895E894BB2782
:1040F00066277727CB0197F90895DB018F939F936C
:104100000E94C920BF91AF91A29F800D911DA39FD6
:10411000900DB29F900D1124089597FB072E16F471
:10412000009407D077FD09D00E94D42007FC05D069
:104130003EF4909581959F4F0895709561957F4FBE
:104140000895A1E21A2EAA1BBB1BFD010DC0AA1FD8
:10415000BB1FEE1FFF1FA217B307E407F50720F0F0
:10416000A21BB30BE40BF50B661F771F881F991F6B
:104170001A9469F760957095809590959B01AC01B4
:10418000BD01CF010895EE0FFF1F0590F491E02DC2
:1041900009940E94E820A59F900DB49F900DA49FC4
:1041A000800D911D11240895AA1BBB1B51E107C06E
:1041B000AA1FBB1FA617B70710F0A61BB70B881FB7
:1041C000991F5A95A9F780959095BC01CD01089546
:1041D000A29FB001B39FC001A39F700D811D112448
:1041E000911DB29F700D811D1124911D0895DC0158
:1041F00001C06D9341505040E0F70895FB01DC0190
:104200004150504030F08D910190801919F40020F8
:10421000B9F7881B990B0895FB01DC014150504010
:1042200048F001900D920020C9F701C01D92415045
:0A4230005040E0F70895F894FFCF26
:10423A000106010201FF0101020501030253746133
:10424A0074696F6E204E616D650000000000006A9F
:10425A00180000D430004007EC038026690400AB44
:10426A008704C095A905C0832F0500F36F06004493
:10427A009508004DD20800B108198074D21A80A19D
:10428A00031C801361330090D003006D7C4D04033E
:10429A00050460616263000000001705EA04460530
:1042AA00C004E304D004C1040000000071092C0416
:0442BA004605590458
:00000001FF
