:100000000C9469020C9491020C9491020C9491024C
:100010000C9491020C9491020C9491020C94910214
:100020000C9491020C9491020C9491020C94910204
:100030000C9491020C9491020C9491020C949102F4
:100040000C94B8270C9491020C9491020C94910298
:100050000C9491020C9491020C9491020C949102D4
:100060000C9402280C94910253746174696F6E2091
:100070004E616D65007265747279696E672E2E2E01
:1000800000726573746F72696E6720307800493250
:1000900043204552524F5200726573657474696E05
:1000A000672E2E2E00515549434B204D454E55008D
:1000B00053595354454D204D454E550053455256C6
:1000C000494345204D454E55003C3C003E3E004CCA
:1000D0004F434B200053484F57204D454E55205419
:1000E00049544C45006F6666006F6E2000424143E4
:1000F0004B4C494748542044494D4D4552005354B8
:100100004154494F4E204E414D45005246206472A5
:100110006976653A2000756E6C6F636B65643A2092
:10012000006C6F636B65643A2000504F5254204D51
:10013000415050494E4700686967680064697361BF
:10014000626C6564006C6F772000434841524745FC
:100150002050554D50005854414C20465245515561
:10016000454E4359003E2030780020646563696D38
:10017000616C730020646563696D616C0050524569
:10018000434953494F4E0036342D31333030204DE2
:10019000487A0055484600373020636D0032206DA4
:1001A00000464D20576F726C6400464D204A6170C6
:1001B000616E00464D204F495254005345542074FF
:1001C0006F2065646974004652455155454E435948
:1001D0002042414E440053595354454D20555054EC
:1001E000494D4500636F756E743A200049324320D3
:1001F0005245434F564552494553006375727265E7
:100200006E743A20307800493243204144445245CC
:1002100053530050372E2E50302000504F52542050
:10022000434D4420307800504F525420434F4D4DA1
:10023000414E4400203078004E3A00504C4C20444F
:10024000495649534F52003E393939392073006CB1
:100250006F636B656420696E006C6F636B696E67BA
:100260002020003C756E6B6E6F776E3E006E6F7473
:1002700020696E697469616C697A656400504C4CE0
:10028000204C4F434B2054494D45002020002D2049
:10029000202D20202D20202D2D2D005037205035B1
:1002A0002050342050360039392B0020504F522036
:1002B000636E743A00464C3A00504C4C2053544103
:1002C00054555300464143544F52592052455345CB
:1002D0005400434C45415220414C4C204441544130
:1002E0003F006E6F2000796573004932432046411C
:1002F0004C4C4241434B0053455420746F20766967
:1003000065770053595354454D20494E464F0028B8
:10031000432932303236204C6F656E696500564590
:100320005253494F4E3A2056352E322E3000444912
:1003300041474E4F53544943530053455420746F23
:100340002070726F636565640047454E4552414CAD
:100350002053455454494E475300504C4C2053456C
:100360005454494E47530053455420746F20656ED2
:100370007465720056434F2053455454494E4753B9
:10038000003C656D7074793E003E204D003E4D008E
:100390003E2072657475726E0053415645200053BD
:1003A000455420746F2073656C6563740053455425
:1003B00020746F20746F67676C65004C4344204F56
:1003C0004646004F4646004F4E0052462044524992
:1003D00056453A2000434C454152204D454D4F5221
:1003E000590053415645204D454D4F5259005245F5
:1003F00043414C4C204D454D4F52590063616E6353
:10040000656C006469736361726400736176652072
:100410006368616E676573003E200045584954204B
:100420004D454E55005345542000524620445249F4
:1004300056453A204F46460056352E322E30005053
:100440004C4C20434F4E54524F4C4C455200534558
:100450005420746F20636F6E6669726D005245544C
:1004600055524E20544F204D454E55006E6F6E65CF
:100470000000000000240027002A000000000025E2
:100480000028002B000000000023002600290004A3
:10049000040404040404040202020202020303032B
:1004A0000303030102040810204080010204081025
:1004B00020010204081020000000080002010000D2
:1004C0000304070000000000000000204D487A00EF
:1004D000912A11241FBECFEFD8E0DEBFCDBF11E0BF
:1004E000A0E0B1E0EAE9FFE502C005900D92A8376F
:1004F000B107D9F723E0A8E7B1E001C01D92AF3200
:10050000B207E1F712E0C9E6D2E004C02197FE018C
:100510000E947A2FC836D107C9F70E94BF2A0C94CF
:10052000CB2F0C940000833081F028F4813099F0B7
:100530008230A9F008958730A9F08830C9F084305E
:10054000B1F4809180008F7D03C0809180008F770F
:1005500080938000089584B58F7784BD089584B515
:100560008F7DFBCF8091B0008F778093B00008958E
:100570008091B0008F7DF9CFCF93DF93282F30E0AB
:10058000F901E954FB4F8491F901ED55FB4FD491EA
:10059000F901E157FB4FC491CC23A1F081110E94D6
:1005A0009302EC2FF0E0EE0FFF1FEB57FB4FA591EE
:1005B000B491EC91ED2381E090E009F480E0DF91CB
:1005C000CF91089580E090E0FACF1F93CF93DF930F
:1005D000282F30E0F901E954FB4F8491F901ED55E2
:1005E000FB4FD491F901E157FB4FC491CC23A9F003
:1005F000162F81110E949302EC2FF0E0EE0FFF1FE7
:10060000E558FB4FA591B4918FB7F894EC91111177
:1006100008C0D095DE23DC938FBFDF91CF911F916F
:100620000895DE2BF8CFCF93DF9390E0FC01ED55DA
:10063000FB4F249181579B4FFC0184918823D1F07B
:1006400090E0880F991FFC01EF58FB4FA591B491E2
:10065000FC01E558FB4FC591D491623071F49FB70E
:10066000F8943C91822F809583238C93E8812E2BE4
:1006700028839FBFDF91CF9108958FB7F894EC91B5
:100680002E2B2C938FBFF6CFCF93DF93EC0161E03D
:1006900086E00E941303209731F460E086E0DF914A
:1006A000CF910C94E502CF3FD10511F461E0F6CF74
:1006B000EDEBF4E0E491E33029F140F4E130B1F006
:1006C000E230D9F0C038D1058CF7E7CFE73021F11F
:1006D000E83051F1E430B1F780918000806280937E
:1006E0008000D0938B00C0938A0004C084B58068DA
:1006F00084BDC7BDDF91CF91089584B5806284BD6C
:10070000C8BDF8CF80918000806880938000D0932E
:100710008900C0938800EECF8091B00080688093FC
:10072000B000C093B300E6CF8091B00080628093A8
:10073000B000C093B400DECF3FB7F89480910303BC
:1007400090910403A0910503B091060326B5A89BE0
:1007500005C02F3F19F00196A11DB11D3FBFBA2F53
:10076000A92F982F8827BC01CD01620F711D811D13
:10077000911D42E0660F771F881F991F4A95D1F798
:1007800008958F929F92AF92BF92CF92DF92EF9295
:10079000FF924B015C010E949C036B017C010E9453
:1007A0009C036C197D098E099F09683E7340810581
:1007B0009105A8F321E0821A9108A108B10888EEFA
:1007C000C80E83E0D81EE11CF11C81149104A10421
:1007D000B10429F7FF90EF90DF90CF90BF90AF90DA
:1007E0009F908F9008952FB7F8946091FF027091B9
:1007F000000380910103909102032FBF0895CF92CF
:10080000DF92EF92FF920F931F930E94F3030091E8
:100810000703109108032091090330910A036B012B
:100820007C01C01AD10AE20AF30A970186010A3F45
:10083000110521053105C0F060930703709308038B
:100840008093090390930A0385E00E94BC0261E053
:10085000892B09F060E085E01F910F91FF90EF90E8
:10086000DF90CF900C94E5021F910F91FF90EF90D5
:10087000DF90CF90089508950895AF92BF92CF92E0
:10088000DF92EF92FF920F931F93CF93DF936C0150
:100890007B018B01040F151FEB015E01AE18BF0831
:1008A000C017D10759F06991D601ED91FC910190E3
:1008B000F081E02DC6010995892B79F7C501DF91FB
:1008C000CF911F910F91FF90EF90DF90CF90BF904D
:1008D000AF900895089520916D02260F3327331F9E
:1008E00021323105ECF420919102FC0190E080E08E
:1008F000243069F082E00895A0916D022191AC014D
:10090000435B5D4FA40FB52FB11D2C930196861745
:1009100098F380916D02680F60936D0280E00895F6
:1009200081E008951092910281E0809393021092E9
:10093000920261E082E10E94E50261E083E10E94AF
:10094000E502E9EBF0E080818E7F808380818D7FFE
:10095000808388E48093B80085E48093BC00089588
:10096000CF93DF9391E09093C4028823B9F0C091B4
:10097000B800D091BA008091BC008A7B8093BC0003
:1009800060E082E10E94E50260E083E10E94E5020E
:100990000E949204D093BA00C093B800DF91CF9127
:1009A00008950895E091BE028091BD02E81730F4E9
:1009B000F0E0E35DFD4F808190E008958FEF9FEFC1
:1009C00008959091BE028091BD022FEF3FEF9817DE
:1009D00048F4E92FF0E0E35DFD4F208130E09F5FB8
:1009E0009093BE02C90108958091BD029091BE020C
:1009F000891B990B0895CF92DF92EF92FF920F938C
:100A00001F93CF93DF937C01CB018A0120912C02AD
:100A1000222389F0EB016B01C40ED51ECC15DD0538
:100A200069F06991D701ED91FC910190F081E02D81
:100A3000C7010995F3CF642F0E946B04C801DF91B1
:100A4000CF911F910F91FF90EF90DF90CF9008957D
:100A5000CF93DF931F92CDB7DEB7698320912C022D
:100A60002223F9F02091BB02203258F021E030E03F
:100A7000FC013383228390E080E00F90DF91CF91DF
:100A800008958091BC02E82FF0E0E45FFD4F99816A
:100A900090838F5F8093BC028093BB0281E090E0E3
:100AA000ECCF61E0CE0101960E946B04F7CF90E09D
:100AB00080E0089520910401422F50E0FA01E955A9
:100AC000FE4F208130E0220F331F240F351F96E0A8
:100AD000929FA001939F500D112490E080589F4F4A
:100AE000840F951F880F991F880F991F08950F93E2
:100AF0001F93182F0E94F303112371F01092D60256
:100B000010929601109297011092980110929901FB
:100B10001092950180E02DC02091D6023091E7021D
:100B2000332351F121110CC021E02093D6026093B0
:100B30009601709397018093980190939901E8CF63
:100B4000209195012111E6CF009196011091970116
:100B50002091980130919901601B710B820B930BCE
:100B60006032734081059105A8F281E08093950180
:100B700082E01F910F910895222361F280919501E7
:100B80001092D6021092960110929701109298013D
:100B9000109299011092950191E08927EACFCF92A6
:100BA000DF92EF92FF92CF93DF930E94F3036B01EA
:100BB0007C0182E00E94BC02C1E0892B09F0C0E008
:100BC000C093E80283E00E94BC02D1E0892B09F0C7
:100BD000D0E0D093E70284E00E94BC0221E0892BA0
:100BE00009F020E02093E602CD0FC20FC23018F0CA
:100BF00081E080938801809188018823F9F0109228
:100C0000E6021092E7021092E8021092E4021092BB
:100C1000D6021092E502C1110AC010928801C0925A
:100C20008401D0928501E0928601F0928701DF91E4
:100C3000CF91FF90EF90DF90CF9008958091840145
:100C400090918501A0918601B0918701C81AD90AB7
:100C5000EA0AFB0A82E3C816D104E104F10438F77A
:100C60001092E6021092E7021092E8021092E4025B
:100C70001092D6021092E502DACFE091040184E0EE
:100C8000E89FF0011124E25BFE4F60817181828157
:100C9000938123E0660F771F881F991F2A95D1F74C
:100CA00039E096958795779567953A95D1F70895A8
:100CB0008F929F92AF92BF92CF92DF92EF92FF926C
:100CC000CF93E091040182E0E23020F4F0E0E45BB5
:100CD000FE4F8081C0910B018C1708F4C82F80E46F
:100CE000C82E82E4D82E8FE0E82EF12C9AE0892ECF
:100CF000912CA12CB12CCC2351F0C701B601A50138
:100D000094010E94582F69017A01C150F4CF0E94CA
:100D10003D064B015C016C0D7D1D8E1D9F1D6150BC
:100D2000710981099109A50194010E94582FC22FD0
:100D3000AC2FB0E0A50194010E94802FA70196017D
:100D40000E94582F672B682B692B11F0CF5FF0CFD3
:100D50008C2FCF91FF90EF90DF90CF90BF90AF900E
:100D60009F908F9008958F929F92AF92BF92CF9253
:100D7000DF92EF92FF920F931F93CF93DF93082F91
:100D80005B01142FE9010E94F3036B017C01F50163
:100D9000002309F4A8C08081811121C0C0929E0166
:100DA000D0929F01E092A001F092A101C0929A011D
:100DB000D0929B01E0929C01F0929D0181E08083A2
:100DC000812FFE01DF91CF911F910F91FF90EF9046
:100DD000DF90CF90BF90AF909F908F9009948091BB
:100DE0009E0190919F01A091A001B091A1014601A7
:100DF0005701881A990AAA0ABB0A8091FB02882324
:100E000009F455C0F8EE8F16F3E09F06A104B10473
:100E100008F440C00E945806082F0E943D069B011E
:100E2000AC01A8EEB3E00E94802F9B01AC01A02F83
:100E3000B0E00E94802F24EF31E040E050E00E94BB
:100E4000582F8CE2881A81E0980AA108B108CA01DB
:100E5000B901A50194010E94582F80919A019091A7
:100E60009B01A0919C01B0919D0146015701881AF8
:100E7000990AAA0ABB0AD501C40182179307A407DD
:100E8000B50740F02091F3023091FD023323D9F0F1
:100E900021111BC0DF91CF911F910F91FF90EF9017
:100EA000DF90CF90BF90AF909F908F900895E8EE25
:100EB0008E16E3E09E06A104B10460F320E530E065
:100EC00040E050E0CACF222329F0883C9105A105DB
:100ED000B10500F3C0929A01D0929B01E0929C016F
:100EE000F0929D016DCF1082D5CF4F925F926F929D
:100EF0007F928F929F92AF92BF92CF92DF92EF92AA
:100F0000FF92CF93DF932B013C01D42FC22F0E947D
:100F10003D064B015C017C016B01481459046A04D5
:100F20007B0478F0AFEFBFE7AC019B010E94802FFC
:100F30006B017C014C145D046E047F0410F473019A
:100F4000620161E070E080E090E0DD2331F00E941A
:100F50005806682F70E090E080E0A50194010E949F
:100F6000282F4B015C01C13011F581E0C81AD1086E
:100F7000E108F108C701B601680D791D8A1D9B1DA6
:100F8000A50194010E94582FC501B4010E94282F89
:100F9000DF91CF91FF90EF90DF90CF90BF90AF9017
:100FA0009F908F907F906F905F904F900895C701B2
:100FB000B601CF3F29F3C501B40196958795779582
:100FC00067956C0D7D1D8E1D9F1DDACF2091E5016B
:100FD000EDEFF1E0222331F0EFEFF1E0213011F4F9
:100FE000EEEFF1E039E048E057E090818F3F11F5F6
:100FF0009830C9F4508390819830A0F4222331F0C6
:101000006091FD01961761F0213031F06091FE0191
:10101000961731F0223031F06091FF01961302C033
:10102000315019F70895911102C04083E4CF9150D7
:101030009083E1CF983011F41082DDCF9730A9F37F
:101040009F5FF6CFCF92DF92EF92FF920F931F93A5
:101050000E94F3038B019C0180917C0190917D01A2
:10106000A0917E01B0917F01C0908001D09081015C
:10107000E0908201F09083018C199D09AE09BF09AF
:10108000BC01CD01600F711F821F931F60937C0113
:1010900070937D0180937E0190937F010093800186
:1010A000109381012093820130938301683E23E0F5
:1010B00072078105910510F128EE33E040E050E021
:1010C0000E94582FC0907801D0907901E0907A0169
:1010D000F0907B012C0D3D1D4E1D5F1D209378016E
:1010E0003093790140937A0150937B0160937C01A6
:1010F00070937D0180937E0190937F0160917801D0
:101100007091790180917A0190917B011F910F91EB
:10111000FF90EF90DF90CF9008958F929F92AF92C3
:10112000BF920F931F93CF93DF93CDB7DEB7A197F5
:101130000FB6F894DEBF0FBECDBF19A2423008F43F
:101140004AE08E010F5D1F4F842E912CB12CA12CF3
:10115000A50194010E94582FE62FB901CA01EA3077
:1011600044F5E05DD801EE938D01232B242B252B34
:1011700079F790E080E0109769F0FD010190002080
:10118000E9F73197AF014A1B5B0BBD0187E193E0A3
:101190000E943D04A1960FB6F894DEBF0FBECDBFEE
:1011A000DF91CF911F910F91BF90AF909F908F9043
:1011B0000895E95CD7CFFC0101900020E9F7319751
:1011C000AF01481B590BBC0187E193E00C943D042F
:1011D000CF93DF93EC0160E08E810E94E50261E035
:1011E0008E810E94E50260E08E810E94E5028BE81C
:1011F00091E00197F1F7DF91CF910895CF92DF92BF
:10120000EF92FF920F931F93CF93DF936C017C01BA
:1012100087E0E80EF11CD0E0C0E0062F10E0B80136
:101220000C2E02C0759567950A94E2F76170F7017C
:1012300081917F010E94E5022196C430D10579F7A2
:10124000C601DF91CF911F910F91FF90EF90DF903A
:10125000CF900C94E808CF92DF92EF92FF920F9319
:101260001F93CF93DF93EC01F62E642F8C810E94A5
:10127000E5028D818F3F19F060E00E94E5020F2D9D
:1012800010E08F8584FF25C06E0187E0C80ED11C59
:10129000F12CE12CB8010E2C02C0759567950A94CB
:1012A000E2F76170F60181916F010E94E502FFEFA4
:1012B000EF1AFF0A88E0E816F10461F7CE01DF912A
:1012C000CF911F910F91FF90EF90DF90CF900C94F2
:1012D000E808B80184E0759567958A95E1F7CE0135
:1012E0000E94FE086F2DCE01DF91CF911F910F91CB
:1012F000FF90EF90DF90CF900C94FE0840E0682FB5
:1013000087E193E00C942B0981E00E947E098BE336
:101310009FE10197F1F70895CF93DF93823029F48D
:101320009091260398609093260380932A0310924D
:101330002B0380E480932C0380E180932D0380E5D0
:1013400080932E0361E080911B030E941303809120
:101350001C038F3F19F061E00E94130361E080914C
:101360001D030E941303C7E1D3E09E0127513340C0
:101370008091260384FD0BC084E090E0219628171D
:10138000390744F461E08E810E941303EECF88E0B8
:1013900090E0F4CF8BE39DE00197F1F760E080915E
:1013A0001B030E94E50260E080911D030E94E5029C
:1013B00080911C038F3F19F060E00E94E50280914C
:1013C000260384FD34C063E087E193E00E94FE08B9
:1013D000CBE4D6E4CE010197F1F763E087E193E037
:1013E0000E94FE082197F1F763E087E193E00E94F5
:1013F000FE0883E592E00197F1F762E087E193E070
:101400000E94FE088091260380620E947E0984E08B
:10141000809327038CE00E947E090E94840982E069
:101420008093280386E0DF91CF910C947E0980623F
:101430000E947E098BE496E40197F1F780912603E0
:1014400080620E947E0983E592E00197F1F7809126
:10145000260380620E947E09D5CF90912A036917E6
:1014600010F06FEF690FE62FF0E0E95EFC4F948912
:10147000890F80680C947E09CF93DF93EB01682F6E
:1014800080E00E942D0ACE01DF91CF910C94DB0801
:1014900041E00E942B0981E090E008950F931F9393
:1014A000CF93DF938C01D0E0C0E0F801EC0FFD1F7B
:1014B0006491662339F041E087E193E00E942B09B3
:1014C0002196F3CFCE01DF91CF911F910F91089517
:1014D00041E0682F87E193E00E942B0981E090E0D2
:1014E0000895BC01990F880B990B4AE00C948D0864
:1014F000CF93C82F60E08FE00E942D0A8C2FCF91F0
:101500000C94680ACF93DF93982F862FD42FC22F85
:10151000692F0E942D0ACD1728F480E20E94680AE4
:10152000CF5FF9CFDF91CF91089585ED8093BC0017
:101530008091C0029091C102A091C202B091C302F9
:101540000796A11DB11D23E0B695A79597958795A0
:101550002A95D1F72091BC0024FD03C0109291027E
:1015600008954091C0025091C1026091C2027091F1
:10157000C302452B462B472B69F30097A105B10504
:1015800041F02AE22A95F1F700C00197A109B109BB
:10159000E1CF8091BF020C94B004CF92DF92EF9222
:1015A000FF920F931F93CF93DF93EB017B0124E016
:1015B000E20EF11C8B016C01C61AD70AC601800F1E
:1015C000911F0E94122FF80181938F01EE15FF05E4
:1015D000A9F7CE01DF91CF911F910F91FF90EF906E
:1015E000DF90CF900895CF92DF92EF92FF920F930A
:1015F0001F93CF93DF93863010F020E04AC0EB01B9
:101600000E945A05BE010E94CD0AC880D980EA8096
:10161000FB808FEFC816D806E806F80671F3E09154
:101620000401F0E0E955FE4FC08188E0C89FE00169
:101630001124CC5EDE4F88819981AA81BB81C816B6
:10164000D906EA06FB06C8F20E943D069B01AC01E2
:10165000AFEFBFE70E94802F0C811D812E813F815B
:10166000601771078207930710F48B019C010C151A
:101670001D052E053F0508F220E040E0C701B60138
:101680000E94750721E0C616D706E806F90609F09C
:10169000B4CF822FDF91CF911F910F91FF90EF90E8
:1016A000DF90CF9008950C94122F2F923F924F927B
:1016B0005F926F927F928F929F92AF92BF92CF92E2
:1016C000DF92EF92FF920F931F93CF93DF93CDB7EB
:1016D000DEB72A970FB6F894DEBF0FBECDBF8CE3FE
:1016E00090E00E94530B873008F082E08093A701BE
:1016F0008DE390E00E94530B873008F082E08093E6
:10170000A801809104018987882E912CF401E95564
:10171000FE4F90819A87A92EB12C850143E0000FDE
:10172000111F4A95E1F70C5E1E4FD8018D919D91D6
:101730000D90BC91A02D8D839E83AF83B88721E04F
:1017400041E0BC01CD010E9475076B017C01C09294
:101750000402D0920502E0920602F0920702F8011C
:1017600044805580668077802FEF41E0C301B2014D
:101770000E9475071B018C016093080230920902D8
:1017800080930A0210930B02FA85F73008F075C0B7
:101790008985823008F071C0C501880F991F880DB6
:1017A000991D880F991F880F991FBE016F5F7F4F8A
:1017B000865A9F4F0E94CD0A89809A80AB80BC8058
:1017C0008D819E81AF81B88588169906AA06BB06D1
:1017D00098F10E943D069B01AC01AFEFBFE70E946C
:1017E000802F461657066806790610F4C301B20129
:1017F000681579058A059B05F8F020E040E0C501F1
:10180000B4010E947507681579058A059B05A1F446
:1018100020E041E0C501B4010E9475076C157D050B
:101820008E059F0548F0610178016C157D058E05D8
:101830009F0510F46B017C01C092DC02D092DD02A6
:10184000E092DE02F092DF022A960FB6F894DEBF35
:101850000FBECDBFDF91CF911F910F91FF90EF9001
:10186000DF90CF90BF90AF909F908F907F906F90C0
:101870005F904F903F902F9008958D819E81AF8112
:10188000B885892B8A2B8B2BB9F6812C912C54018E
:10189000B4CF4F925F926F927F928F929F92AF924E
:1018A000BF92CF92DF92EF92FF920F931F93CF934D
:1018B000DF938C012A013B01C22FD0E030E4832E5C
:1018C00032E4932E3FE0A32EB12CC12CD12C760113
:1018D000C394DC17A1F0AAE0B0E0A70196010E9432
:1018E000802F6B017C01C501B4012AE030E040E0AB
:1018F00050E00E94582F49015A01DF5FEACFC5012D
:10190000B4019695879577956795640D751D861D2D
:10191000971DA50194010E94582FCA01B901A70182
:1019200096010E94582F29013A014B015C012AE0DF
:10193000A801C301B2010E94E02EF801019000202D
:10194000E9F73197E01BF10BDD2389F1E801CE0FB8
:10195000DF1F8EE28993C701B6012AE030E040E044
:1019600050E00E94582F69017A018AE0482E512CDC
:10197000612C712CC114D104E104F104B9F0C5014A
:10198000B401A70196010E94582FCA01B901A30111
:1019900092010E94582F605D6993C701B601A301AF
:1019A00092010E94582F69017A01E4CF1882DF91D9
:1019B000CF911F910F91FF90EF90DF90CF90BF904C
:1019C000AF909F908F907F906F905F904F90089511
:1019D000CF92DF92FF920F931F93CF93DF93CDB7F8
:1019E000DEB729970FB6F894DEBF0FBECDBFF82E35
:1019F000690120910B018E010F5F1F4FC8010E94EA
:101A0000490CC114D10439F06F2D80E00E942D0AD9
:101A1000C6010E944E0AF80101900020E9F73197B3
:101A20009F01201B310B48E064E08F2D0E94820A49
:101A3000C8010E94DB088BEC94E00E944E0A2996B4
:101A40000FB6F894DEBF0FBECDBFDF91CF911F91CF
:101A50000F91FF90DF90CF900895FF920F931F9307
:101A6000CF93DF93EC018B01F42E40E150E060E274
:101A700070E00E94C42F188AC8010E94D72E8131BD
:101A800008F080E1482F50E080E0FF2031F080E155
:101A900090E0841B950B95958795B8018C0F9D2F31
:101AA000911DDF91CF911F910F91FF900C94CE2E3D
:101AB000EF92FF920F931F93CF93DF9386E490E012
:101AC0000E94530BC82F8111C1E0C093040188E22A
:101AD00090E00E94530BEC2FF0E0E45BFE4F90810E
:101AE000891708F4982F90930B010E94550B80E5FD
:101AF00090E00E94530B843008F081E0809307014E
:101B000082E390E00E94530B833008F081E08093E1
:101B1000030186E590E00E94530BC82F87E590E013
:101B20000E94530BD82F88E590E00E94530BCF3FC3
:101B300009F05BC0DF3F09F05AC08F3F09F057C082
:101B400085E08093010186E08093020182E080932A
:101B500000010CEC11E07801CAE0D0E0CE010E9457
:101B6000122FF70181937F012196CB31D105B1F777
:101B70009091DC011092DC01F80181918F0180527B
:101B80008F3530F4F1E00C3D1F07B1F7992391F048
:101B90004CE050E068E670E08CEC91E00E94CE2EC4
:101BA00044E050E060E270E088ED91E00E94C42FD4
:101BB0001092DC018EE190E00E94530B91E08111C4
:101BC00001C090E09093080183E290E00E94530BE3
:101BD00091E0811101C090E090930501DF91CF91D8
:101BE0001F910F91FF90EF900895C83008F0C8E062
:101BF000C0930101D83008F0D8E0D09302018830BA
:101C000008F088E080930001D83029F0CD1303C09C
:101C100098E090930201883009F49BCFC81721F017
:101C200090910201891395CF88E091CFCF93C09115
:101C3000FD02CC2309F451C08091F502843008F0F4
:101C40004BC09091FA0180910701981346C0909182
:101C5000FB0180910401981340C09091FC01809198
:101C6000030198133AC09091FD01809101019813EE
:101C700034C09091FE018091020198132EC0909182
:101C8000FF0180910001981328C09091000280917B
:101C90000B01981322C042E050E067EA71E088EF40
:101CA00091E00E94AE2F892BC1F4909101028091A6
:101CB0000801981312C090910202809105019813B7
:101CC0000CC041E150E06CEC71E087EE91E00E94C5
:101CD000AE2FC1E0892B09F4C0E08C2FCF9108957D
:101CE0002F923F924F925F926F927F928F929F922C
:101CF000AF92BF92CF92DF92EF92FF920F931F931A
:101D0000CF93DF93CDB7DEB7EB970FB6F894DEBF76
:101D10000FBECDBF082F162FE090E902EE2009F488
:101D200041C088EF800F833008F43EC08091FD02EF
:101D3000882309F4BEC08091F5028450823008F0F7
:101D4000B8C0033089F1063009F0B3C08091E201D8
:101D50008823A1F0809127038D7F809327038860DB
:101D60000E947E091092DE011092DF011092E001C4
:101D70001092E1011092E2011092DD0101500A304F
:101D800008F049C0E02FF0E0E853F14F0C947A2FAF
:101D90001E0F720F8B0FD80E4816A7167B179C17B5
:101DA0008A170A16863091F21092E301043071F618
:101DB0000091E201112309F43BC71091030261E095
:101DC000812F0E942D0A01112BC761E080E00E9443
:101DD0002D0A87EE91E00E94DB0861E0809103020A
:101DE0000E942D0A0E94F3036093DE017093DF01CD
:101DF0008093E0019093E10181E08093E201809380
:101E0000DD0180912703982F9260909327038A60C9
:101E10000E947E094EC00E94840960E081E00E9419
:101E20002D0A8FE394E00E944E0A61E085E00E9453
:101E30002D0A88E394E00E944E0A3BC0112369F00A
:101E40004091DC025091DD026091DE027091DF0270
:101E500030E020E080E00E94E80C61E080E00E9439
:101E60002D0A80910901811120C00E94F30328EE00
:101E700033E040E050E00E94582F20FF16C040E1C0
:101E800050E060E270E0CE0101960E94C42F198AF2
:101E9000BE016F5F7F4F81E00E943C0A61E080E0FD
:101EA0000E942D0A8AE294E0C6CF8CEC91E00E9459
:101EB000DB08EB960FB6F894DEBF0FBECDBFDF9107
:101EC000CF911F910F91FF90EF90DF90CF90BF9037
:101ED000AF909F908F907F906F905F904F903F90CA
:101EE0002F9008958091FB02811107C061E00E944C
:101EF0002D0A85E294E00E944E0A4091DC02509146
:101F0000DD026091DE027091DF0230E020E081E0CE
:101F10000E94E80CCECF11110E94840960E080E09D
:101F20000E942D0A0091F202002309F160E080E096
:101F30000E942D0A8BE194E00E944E0A61E080E04D
:101F40000E942D0A88E194E00E944E0A8091F402DA
:101F5000813051F030F0823009F0ABCF8CEF93E05C
:101F60006ACF8BE094E067CF83E094E064CF809108
:101F7000F502863009F03FC01091F402123011F1E1
:101F8000A0F41123E1F082EE93E01130A9F061E0BA
:101F900080E00E942D0A8DEA93E0133049F114503D
:101FA000123020F58EE494E023C01430E1F068F0A4
:101FB0008BE194E0153059F70E944E0AE8CF8EEE7F
:101FC00093E0FACF85ED93E0F7CF8AEC93E00E949F
:101FD0004E0A80910901882319F087EC93E0ECCF39
:101FE00083EC93E0E9CF8BEB93E0E6CF8FE993E0CE
:101FF0000E944E0AC2C0873009F0B4C08091E4014B
:10200000813009F455C008F44EC0823009F45EC036
:1020100061E080E00E942D0A1091F40280E993E0D3
:10202000163031F31A8A1B8A1C8A1D8ABE016E5E25
:102030007F4F812F0E94F30A882309F480C04A88C9
:102040005B886C887D8800910401802F90E010E00F
:1020500020E4C22E22E4D22E2FE0E22EF12C9C01AD
:10206000245B3E4F19013AE0832E912CA12CB12C18
:1020700082E0023010F4F1018081181750F5C3019D
:10208000B201A70196010E94582F672B682B692B7C
:1020900001F1C701B601A50194010E94582F690101
:1020A0007A011F5FE5CF8EEE93E00E944E0AB0CF1B
:1020B0004091E0025091E1026091E2027091E302EE
:1020C00029E933E080E00E94E80CA2CF85ED93E09F
:1020D000ECCF20910B01211708F4212FB301A201AD
:1020E000CE0101967C010E94490CF701019000206D
:1020F000E9F7EE19ED5FE03100F51FE01E1B89E8FE
:1021000093E0153010F48DE893E00E944E0A809120
:10211000F40290E001960E94710A8AE30E94680A24
:1021200061E0812F0E942D0A80E20E94680AC701A7
:102130000E94DB088BEC94E05BCF10E0E4CF89E8F1
:1021400093E00E944E0A812F90E001960E94710A4E
:102150008AE30E94680A61E089E00E942D0A81E812
:1021600093E046CF81113EC08091F402813011F19D
:10217000B0F0823011F1833019F18091E9028823A7
:1021800009F497CE8091F502853009F092CE8091C6
:10219000F4028750823008F48CCE81E23EC584E799
:1021A00093E00E944E0A61E080E00E942D0A87E6DB
:1021B00093E01ECF8AE593E0F4CF89E493E0F1CF7A
:1021C0008BE194E00E944E0A0E94160E882319F0BB
:1021D0008AE20E94780A61E080E00E942D0A8AE388
:1021E00093E006CF843009F05AC08091F402823027
:1021F00089F1A0F4882301F1813009F0BECF8091EC
:10220000F1028823E1F08EE193E00E944E0A61E042
:1022100080E00E942D0A8FE093E0EACE833091F1B6
:10222000843009F0AACF8BE194E00E944E0A61E06D
:1022300080E00E942D0AB6CE8EE293E0B2CF83E01A
:1022400093E00E944E0A61E080E00E942D0A87EF31
:1022500092E0CECE8AEE92E00E944E0A61E080E0EB
:102260000E942D0A8091F102882309F4BFCE88E1F3
:1022700094E00E944E0A8091EF02882369F086EE76
:1022800092E0B6CE8091F002882319F082ED92E0C0
:10229000E3CF84EC92E0E0CF82EE92E0A9CE8530ED
:1022A00009F032C3E091F402E93008F066CFF0E0C3
:1022B000E45AFE4E0C947A2F6511C81129120A13A4
:1022C0005D13BA13D41305149014F090C702FF20C5
:1022D00009F44CC0E1104CC08091C502882329F05C
:1022E0008091CB018A3008F043C00091C80206FB00
:1022F000002700F911113EC08091CA018F1111C051
:10230000FF2041F081E09091C901911101C080E06E
:10231000801307C09091C6028091C801981709F4F4
:102320002CCF61E080E00E942D0A85EB92E00E94B4
:102330004E0AFF2021F1802F90E00E94710A8BEA63
:1023400092E00E944E0A6091C6026436E0F470E0AA
:1023500090E080E04AE00E948D08F092CA0100936C
:10236000C9018091C6028093C80107CF00E0C2CFA7
:10237000F12CC0CF89EB92E00E944E0AD2CF8DE2C1
:102380000E94680ADCCF87EA92E00E944E0AE5CFFD
:102390000091C702002361F0E11009C08091C502DD
:1023A000882331F001E08091CB018A3008F000E011
:1023B000F090C802111120C08091CA01801308C09A
:1023C000002309F4DACE8091C9018F1509F4D5CE26
:1023D00061E080E00E942D0A85E0C82ED12CAF2C50
:1023E000B12C01110EC08EE892E00E944E0AF092CC
:1023F000C9010093CA01C1CE8BE992E00E944E0A46
:10240000E7CFC5010C2C02C0959587950A94E2F799
:10241000817099270E94710A8BE892E00E944E0A0F
:1024200091E0C91AD108E2E0CE16D10451F7A2FA20
:10243000882780F990E00E94710AA1FA882780F924
:1024400090E00E94710A8F2D817090E00E94710AC5
:10245000CECF8091C502882391F0112309F48DCE4F
:102460008DE792E00E944E0A61E080E00E942D0A12
:102470008DE692E00E944E0A1092C0017ECEE110DD
:102480000EC08090BC019090BD01A090BE01B090A4
:10249000BF01FFEF8F169F06AF06BF0671F4112331
:1024A00009F46BCE8DE792E00E944E0A61E080E075
:1024B0000E942D0A83E692E0DDCF0091BA0111233C
:1024C00009F466C58DE792E00E944E0A61E080E063
:1024D0000E942D0A89E592E0011102C08FE492E08A
:1024E0000E944E0A0093BB01B0EA4B2EB6E85B2E69
:1024F00066246394712C002389F00E94F3032B015E
:102500003C01481859086A087B085301420100E45D
:10251000402E02E4502E0FE0602E712C9E012F5FA2
:102520003F4F690130E8831636E9930638E9A30680
:10253000B10408F067C0C501B40128EE33E040E003
:1025400050E00E94582F2CAB3DAB4EAB5FAB68AF59
:1025500079AF8AAF9BAF2AE0A6016CA97DA98EA9AD
:102560009FA90E94E02EF60101900020E9F7AF013B
:10257000415051097A0184149504A604B704A0F4CB
:102580008EE2FA01808368AD79AD8AAD9BAD24E619
:1025900030E040E050E00E94582F205DF701218399
:1025A00097012E5F3F4F790180E2F701808383E737
:1025B00081831282F60101900020E9F731977F01B3
:1025C000EC18FD085701BB24FFEFAF1ABF0A111129
:1025D00009C0A50160EC71E0C6010E94AE2F892BF5
:1025E00009F4CBCD2E2D47E069E081E00E94820AFC
:1025F000C6010E94DB08A501B60180EC91E00E94B3
:10260000BB2FBBCD48E050E067E472E0C6010E94FA
:10261000CE2ED0CF112309F4B0CD8BE392E00E94EF
:102620004E0A61E080E00E942D0A8091C50281116E
:102630000DC0C090E002D090E102E090E202F09084
:10264000E302C114D104E104F10419F48DE692E02F
:10265000CFCC0E943D069B01AC01C701B6010E9490
:10266000582F69017A01890188E392E00E944E0A9D
:10267000EE24FF244AE0C701B6010E948D0884E3DE
:1026800092E00E944E0A011520E1120780F480E3D7
:102690000E94680A0F3F110509F048F480E30E9488
:1026A000680A0031110518F480E30E94680A40E1CD
:1026B000C701B6010E948D0860CD8091C5028111CD
:1026C0000CC08091E0029091E102A091E202B091F1
:1026D000E302892B8A2B8B2B61F4112309F44DCD56
:1026E00087E292E00E944E0A61E080E00E942D0A9B
:1026F000ADCF0091B901111130C08091C90180178F
:1027000009F43BCD60E08BE00E942D0A003118F403
:1027100080E30E94680A602F70E090E080E040E172
:102720000E948D0861E087E00E942D0A07E010E01A
:102730008091B90190E0002E02C0959587950A948A
:10274000E2F7817099270E94710A0150110980F700
:102750008091B9018093C90110CD8BE192E00E9474
:102760004E0A61E080E00E942D0A83E192E00E941F
:102770004E0AC8CF112309F400CD87E092E00E94F1
:102780004E0A61E080E00E942D0A8BEF91E00E94EA
:102790004E0AE0910701F0E0EA5AFE4F608170E0D6
:1027A00090E080E040E186CF0091B801111110C0A7
:1027B0008091C801801709F4E0CC20E043E067E095
:1027C00081E00E94820A61E087E00E942D0A0CC02D
:1027D0008CEE91E00E944E0A61E080E00E942D0A9A
:1027E00084EE91E00E944E0A043650F4602F70E0AF
:1027F00090E080E04AE00E948D088091B801B3CD5E
:1028000087EA92E00E944E0AF8CF0E9422082B012C
:102810003C01111127C08091B4019091B501A091A4
:10282000B601B091B70184159505A605B70509F461
:10283000A4CCB301A201CE0142960E947D291123AE
:10284000B1F061E080E00E942D0ACE0142960E9424
:10285000DB084092B4015092B5016092B6017092CB
:10286000B7018BCC86ED91E00E944E0AE2CF4091F9
:10287000B4015091B5016091B6017091B701CE01DC
:1028800001960E947D2910E0812F90E0A2E1CA2EDE
:10289000D12CCC0EDD1EC80ED91E41E050E04C0FED
:1028A0005D1F840F951FF6012081FC018081EE24BD
:1028B000E394E10E281304C01E2D103128F3C9CF74
:1028C00061E0812F0E942D0AF12CF2E1AF2EB12C94
:1028D000AC0EBD1EAE0CBF1C21E030E02C0F3D1F26
:1028E000E20EF31E1F5FF60181916F010E94680ADC
:1028F000103108F0AECFF50191915F01F7018191A0
:102900007F019813EFCFC0CF813009F068C080916C
:10291000F402813009F441C030F0823009F02DCC4E
:102920000E9442292ACC87EC91E00E944E0A61E085
:1029300080E00E942D0A8091F102811103C08BEB8F
:1029400091E056CB88E194E00E944E0AE091FB01B1
:10295000F0E0E951FE4F81898230B1F038F48823EC
:1029600069F0813071F087E891E042CB843091F0DA
:1029700070F08530C1F783E991E03ACB83EB91E0C9
:1029800037CB8AEA91E034CB81EA91E031CB8DE913
:1029900091E02ECB87E991E02BCB8DE791E00E946F
:1029A0004E0A61E080E00E942D0A8091F1028823A6
:1029B00031F288E194E00E944E0A6091000270E0DA
:1029C00090E080E04AE00E948D0880910002813012
:1029D00019F484E791E00CCB8AE691E009CB8230D0
:1029E00009F0D2C08091F402823009F46EC008F080
:1029F00052C0882309F455C0813009F0BECB86E56A
:102A000091E00E944E0A61E080E00E942D0A8091D0
:102A1000F102882309F493CF88E194E00E944E0AE2
:102A2000E091FB0124E0E29FF0011124E25BFE4F04
:102A30006081718182819381E0E4CE2EE2E4DE2E1A
:102A4000EFE0EE2EF12CA70196010E94582FCA014B
:102A5000B9014AE00E948D088EE20E94680AE09166
:102A6000FB0134E0E39FF0011124E25BFE4F608143
:102A7000718182819381A70196010E94582F20EADB
:102A800036E841E050E00E94582FCA01B9014AE0FF
:102A90000E948D084FCB8330C1F1843009F440CFC0
:102AA0006CCB87E092E00E944E0A61E080E00E94D9
:102AB0002D0A8091F102882309F441CF85E691E047
:102AC0000E944E0AE091FA0166CE8AE491E00E94EB
:102AD0004E0A61E080E00E942D0A8091F102882375
:102AE00009F42DCF88E194E00E944E0A8091FC0108
:102AF000882329F0813031F487E391E079CA85E4B5
:102B000091E076CA8CE391E073CA8AE291E00E9478
:102B10004E0A8091F10261E0882309F449C080E205
:102B20000E94680A8091E50190E001960E94710A76
:102B30008FE20E94680A83E090E00E94710A61E0DF
:102B400080E00E942D0A88E194E00E944E0A809164
:102B5000E501811109C081E291E00E944E0A809155
:102B6000FD010E944E2909CB813039F486E191E0C4
:102B70000E944E0A8091FE01F4CF8BE091E00E940A
:102B80004E0A8091FF01EDCF833009F0F6CA8091A3
:102B9000F402813081F030F0823029F1833009F481
:102BA000BFCEEBCA8EEF90E00E944E0A61E080E05B
:102BB0000E942D0AC4CE8DEE90E00E944E0A61E084
:102BC00080E00E942D0A8091F102882309F4B7CE9B
:102BD00088E194E00E944E0A809101028823B9F0B6
:102BE00089EE90E005CA85ED90E00E944E0A61E012
:102BF00080E00E942D0A8091F102882309F49FCE83
:102C000088E194E00E944E0A80910202E7CF85EEAF
:102C100090E0EEC980E21111C0CA0E94780A49C949
:102C2000E12FF0E0E951FE4F80810E94680AD5C88B
:102C3000002309F43EC90E94F3030091DE011091C4
:102C4000DF012091E0013091E101601B710B820BEB
:102C5000930B603971408105910508F42AC90E94DF
:102C6000F3036093DE017093DF018093E0019093A2
:102C7000E1019091DD0181E098279093DD01809141
:102C800027039111C0C88D7F809327038860C0C837
:102C90008091CD02882339F060E080E00E942D0A07
:102CA0008FEC90E0C8C80E94F3030091B00110912E
:102CB000B1012091B2013091B3012B013C01401AC6
:102CC000510A620A730A930182010A3F1105210524
:102CD000310508F4EEC86093B0017093B1018093A0
:102CE000B2019093B30160E080E00E942D0A80E27F
:102CF0000E94680A80E20E94680A80E20E94680AD4
:102D000080E20E94680A80E20E94680A1091AF0186
:102D100060E0812F0E942D0A009106018CEC90E06A
:102D2000011102C089EC90E00E944E0A81E001117D
:102D300001C08FEF810F8093AF01882319F083309A
:102D400009F0B7C881E0082700930601B2C8809156
:102D5000050181110AC01092E301112309F4A9C8E9
:102D600061E083E00E94700EA4C8111105C080913B
:102D7000E301882309F49DC88091F5022CEBE22E33
:102D800020E0F22E3EE2C32E33E0D32E843091F0C9
:102D900045EAE42E40E0F42E5EEEC52E53E0D52E3B
:102DA000863040F480EBE82E80E0F82E94E7C92EC0
:102DB00093E0D92E0E94F3034B015C011123D1F063
:102DC00041E0B701CE0101960E942D0D0E948409B9
:102DD000BE016F5F7F4F80E00E943C0A8092AB0192
:102DE0009092AC01A092AD01B092AE0181E08093CF
:102DF000E3015FC81091E30188EE93E0A0E0B0E04A
:102E0000113021F086E490E0A0E0B0E04091AB0109
:102E10005091AC016091AD017091AE01240135017A
:102E2000441A550A660A770AB301A20148175907DE
:102E30006A077B0708F43DC88092AB019092AC0111
:102E4000A092AD01B092AE011C3058F01092E30197
:102E50008092EA029092EB02A092EC02B092ED0214
:102E60007FCF81E0810F8093E30141E0B701CE0184
:102E700083960E942D0D7E0122E1E20EF11C40E0BE
:102E8000B601C7010E942D0D81E1FE01B396BE017E
:102E90006F5F7F4FDB0101900D928A95E1F7912FD3
:102EA000193008F098E09B01FB01DB0180E23197CB
:102EB0004A2F461B491718F48D93808BF8CF143096
:102EC000A8F01350DB01C7016701F60141916F01C2
:102ED000F90141939F01FC0147851F964C931F9771
:102EE000019711974C2D4E19411778F380E00E94FD
:102EF0003C0A0C94590F8091FA02882321F00E9419
:102F000084090C94590F61E081E00E94700E61E029
:102F100085E028CF8FEF90E00E9444030E9484094F
:102F200084EC92E00E944E0A61E080E00E942D0A4B
:102F300088E990E00C941B0F8FEF90E00E9444030F
:102F40000E9484091091AA018AEE92E0111102C038
:102F50008EE890E00E944E0A61E080E00E942D0A17
:102F6000112391F081E890E00E944E0AE091070160
:102F7000F0E0EA5AFE4F608170E090E080E040E1CE
:102F80000E948D080C94590F85E790E00C941B0F5C
:102F90008091BB0180139ACAA7CA4F925F926F9229
:102FA0007F928F929F92AF92BF92CF92DF92EF92D9
:102FB000FF92CF93DF9300D000D000D0CDB7DEB723
:102FC0008D83C0900802D0900902E0900A02F09030
:102FD0000B028090040290900502A0900602B0902F
:102FE00007028091FB028823C9F14090DC025090D7
:102FF000DD026090DE027090DF020E9458068E8330
:103000000E943D069B01AC01D701C60188199909B0
:10301000AA09BB0989839A83AB83BC839E81A92FAC
:10302000B0E00E94802F29813A814B815C81261774
:1030300037074807590710F4CA01B9013D81131633
:103040000CF044C0460E571E681E791E4092DC02EA
:103050005092DD026092DE027092DF028091DC020B
:103060009091DD02A091DE02B091DF0288159905F2
:10307000AA05BB0580F1C816D906EA06FB0610F4BE
:10308000D501C4018093DC029093DD02A093DE029F
:10309000B093DF0261E082E00E94700E81E08093D5
:1030A000FB0226960FB6F894DEBF0FBECDBFDF91B0
:1030B000CF91FF90EF90DF90CF90BF90AF909F9017
:1030C0008F907F906F905F904F900895461A570AA7
:1030D000680A790ABBCFD701C601D4CF0C94CD17AB
:1030E0001092F302109203021092F70161E083E064
:1030F0000E94700E81E08093EE0208958091C502D7
:10310000882339F01092C5028091E7028093EE0285
:1031100008951092FD021092F1021092F2021092A4
:10312000F3021092F5021092F4021092E4010E9450
:10313000F3036093D8027093D9028093DA029093DC
:10314000DB0281E08093EE028091E90261E0882356
:1031500019F088E00C94700E81E00E94700E61E01E
:1031600085E0F8CF2091F302211133C02091F102C4
:10317000222361F01092F1021092E5011092EF0209
:103180001092F00261E083E00C94700E2091F20244
:10319000222341F01092F2021092F50283E0809314
:1031A000F402F0CF2091F50221110EC0DC01ED9167
:1031B000FC918081811102C00C947E1881E0809383
:1031C000F2021092F402DECF1092F5028091E60135
:1031D000E6CF08958091F502873059F486E0809318
:1031E000F5028091E4018093F40261E083E00C94A5
:1031F000700E0C947E18E0910302F0E0E951FE4F4E
:103200002081022E000C330B20523109A901480FF6
:10321000511D87FD5A95CA01815A9F4F6FE570E095
:103220000E94442F805E808361E084E00C94700EE5
:103230000E94580D1092F3021092F2021092F102C5
:103240001092FD021092EF021092F0021092F5021D
:103250000E94F3036093D8027093D9028093DA023C
:103260009093DB0281E08093EE0261E00E94700E99
:1032700061E085E00C94700E2F923F924F925F9226
:103280006F927F928F929F92AF92BF92CF92DF9276
:10329000EF92FF920F931F93CF93DF9300D000D054
:1032A0001F92CDB7DEB7D82EF62EE42EC52E2C8376
:1032B000011180C08AE08D83EF2DEE0FE98311E0CC
:1032C00022242A9485EE482E95EC592EFC816F2EEF
:1032D000712CF150FB83DD2009F4F0C00E949C03A7
:1032E0004B015C0180919102811167C010939102A2
:1032F00010939302209290021092B5028B818093DA
:10330000B4021093B6028091B6029981892B809302
:10331000B60280919202813009F0A1C0109292020F
:103320000E949C034B015C018091B6028093BB001C
:103330008091C0029091C102A091C202B091C302DB
:10334000892B8A2B8B2BA1F00E949C032091C00219
:103350003091C1024091C2025091C30268197909AB
:103360008A099B09261737074807590708F446C0FA
:103370008091BC0083FDD8CF5092BC000E949C037A
:103380004B015C0180919102813009F46BC0809106
:10339000B502EC818E1708F087C08091B502E4E990
:1033A000F2E0ADE2B2E090E0981769F121912D933F
:1033B0009F5FFACF91E09D837FCF8091C002909173
:1033C000C102A091C202B091C302892B8A2B8B2B20
:1033D00009F488CF0E949C032091C0023091C10261
:1033E0004091C2025091C302681979098A099B0968
:1033F000261737074807590708F074CF8091BF0296
:103400000E94B00480E01092BE028093BD02FC8155
:10341000F8130FC1E9820E2D1C2D802F9981891B75
:10342000EC818E1708F442C0F1E0F98389810F9096
:103430000F900F900F900F90DF91CF911F910F91F0
:10344000FF90EF90DF90CF90BF90AF909F908F90C4
:103450007F906F905F904F903F902F900895409293
:10346000BC008CCF8091C0029091C102A091C20299
:10347000B091C302892B8A2B8B2B09F483CF0E9436
:103480009C032091C0023091C1024091C202509130
:10349000C302681979098A099B0926173707480763
:1034A000590708F06FCFAACF8C8179CF8BE093E0DA
:1034B0000E94E104F80181938F01AFCF10932C0299
:1034C000F092A9011092BC021092BB02FC81FF2372
:1034D00039F0A3016E2D7C2D8BE093E00E94FB045C
:1034E0003090BB0280E2831508F4DEC09091A90100
:1034F0009A830E949C034B015C018091910281118F
:1035000069C0E2E0E093910210939302209290024E
:103510001092B5023092B402ECE0F2E0A4E9B2E01D
:10352000381299C01092B6029091B6028A81880F23
:10353000892B8093B60280919202813009F08FC06E
:10354000109292020E949C034B015C018091B60292
:103550008093BB008091C0029091C102A091C202F1
:10356000B091C302892B8A2B8B2BA1F00E949C0364
:103570002091C0023091C1024091C2025091C30219
:10358000681979098A099B092617370748075907D7
:1035900008F441C08091BC0083FDD8CF5092BC009C
:1035A0000E949C034B015C0180919102823009F4DE
:1035B00059C0809190028F3F09F478C080919002A9
:1035C000803209F475C080919002803309F472C092
:1035D00084E026C08091C0029091C102A091C202F5
:1035E000B091C302892B8A2B8B2B09F486CF0E94C2
:1035F0009C032091C0023091C1024091C2025091BF
:10360000C302681979098A099B09261737074807F1
:10361000590708F072CF8091BF020E94B00485E084
:103620001092BC021092BB0210922C02882309F463
:10363000FBCE8D81813031F062E370E080E090E07C
:103640000E94C103FD81F150FD83F11144CE00239E
:1036500099F11982EBCE91919D938F5F61CF40924A
:10366000BC009ECF8091C0029091C102A091C20285
:10367000B091C302892B8A2B8B2B09F495CF0E9422
:103680009C032091C0023091C1024091C20250912E
:10369000C302681979098A099B0926173707480761
:1036A000590708F081CFB7CF81E0BACF80E0B8CF1B
:1036B00082E0B6CF83E0B4CFE0910701F0E0EA5AB0
:1036C000FE4F80818F11C5CF8091FD0289838823B1
:1036D00059F18091F5021981853031F0843021F162
:1036E0000E94181910E01982D11020C09C819923E2
:1036F000E9F082E08093E9021092BA011092CD02C3
:103700001092FB02E981E093FD021092FA021092FE
:10371000D70260E085E00E94E5021123B1F061E08C
:1037200083E00E94700E95CF10E0DECF81E08093A1
:10373000E9028FEF9FEFDC018093BC019093BD0104
:10374000A093BE01B093BF01D9CFF981F11181CF10
:1037500061E088E00E94700E69CE0F93CF93DF93F3
:1037600000D0CDB7DEB7882369F09091CD022091CB
:103770000101911109C080E00F900F90DF91CF916E
:103780000F91089520910201909103019230A9F1C7
:103790008823A9F1913099F19EE8998390E028302F
:1037A00028F491E001C0990F2A95EAF79A838823BB
:1037B00081F080910001883060F42091090122237A
:1037C00041F021E030E001C0220F8A95EAF7922B08
:1037D0009A83E0910701F0E0EA5AFE4F00E022E010
:1037E000AE014F5F5F4F608180E00E943C198823EB
:1037F00011F29A819093B901BFCF9FE8CECF9EEC92
:10380000CCCF81E08093020261E083E00C94700EE3
:103810001092020261E083E00C94700E81E08093CC
:10382000010261E083E00C94700E1092010261E0ED
:1038300083E00C94700E81E00E94E60761E083E073
:103840000C94700E8FEF0E94E60761E083E00C9409
:10385000700E8091FC01813031F41092FC0161E026
:1038600083E00C94700E8111FACF82E08093FC010A
:10387000F6CF8091FC01823031F41092FC0161E0BE
:1038800083E00C94700E8111FACF81E08093FC01EB
:10389000F6CF8091FB01811106C081E08093FB018E
:1038A00082E08093000261E083E00C94700EE0916E
:1038B000FB01EE2349F0E150E093FB01F0E0E45B13
:1038C000FE4F80818093000261E083E00C94700ED3
:1038D0008091FA01833018F48F5F8093FA0161E0E0
:1038E00083E00C94700E8091FA01882319F08150C6
:1038F0008093FA0161E083E00C94700E80910002E5
:10390000E091FB01F0E0E45BFE4F9081891718F431
:103910008F5F8093000261E083E00C94700E8091D1
:103920000002882319F081508093000261E083E057
:103930000C94700EE091FB01F0E0E951FE4F81899B
:10394000863030F48F5F818B61E083E00C94700EE1
:1039500080E0F9CFE091FB01F0E0E951FE4F818971
:10396000882331F08150818B61E083E00C94700EEC
:1039700086E0F9CF8091F402823038F48F5F809333
:10398000F40261E083E00C94700E08958091F402DB
:10399000882339F081508093F40261E083E00C9435
:1039A000700E0895E091F5028091F402E73059F429
:1039B000863010F48F5F01C080E08093F40261E0F4
:1039C00083E00C94700EF0E0E45FFE4F2081215004
:1039D000330B8217130674F308958091F4029091CB
:1039E000F502973059F4882311F0815001C086E028
:1039F0008093F40261E083E00C94700E8111F5CFA6
:103A0000089581E08093EF0261E083E00C94700EF2
:103A10001092EF0261E083E00C94700EFF920F931E
:103A20001F93CF93DF93EC01F62E08811981C80113
:103A30000E94122FF81621F06F2DC8010E941A2F34
:103A4000CE01DF91CF911F910F91FF900895AF921A
:103A5000BF92CF92DF92EF92FF920F931F93CF937B
:103A6000DF9300D0CDB7DEB78B016B0124E0C20E2F
:103A7000D11C7B015C01A61AB70AC5018E0D9F1DE2
:103A80009A838983F70161917F01CE0101960E949B
:103A90000E1DEC14FD0489F7C8010F900F90DF9103
:103AA000CF911F910F91FF90EF90DF90CF90BF903B
:103AB000AF900895CF92DF92EF92FF920F931F93F2
:103AC000CF93DF93CDB7DEB728970FB6F894DEBF5C
:103AD0000FBECDBF182F6091DC027091DD02809186
:103AE000DE029091DF0220E041E00E9475076B0149
:103AF0007C01C092DC02D092DD02E092DE02F09204
:103B0000DF028091E0029091E102A091E202B09187
:103B1000E302C816D906EA06FB0619F4112309F4D4
:103B20008CC00E943D069B01AC01C701B6010E94FA
:103B3000582F3D832E8380910301823009F08CC081
:103B40009EE881E0892B8F839091020180E098307C
:103B500028F481E001C0880F9A95EAF78887E09100
:103B60000701F0E0EA5AFE4F00E024E0AE014B5FAF
:103B70005F4F608180E00E943C19882309F45DC09A
:103B80000E94F3036F3F2FEF72078207920709F439
:103B900066C06093BC017093BD018093BE01909399
:103BA000BF0188858093B9014091DC025091DD020C
:103BB0006091DE027091DF0280910401282F30E0D5
:103BC000F901E955FE4F908149835A836B837C83C9
:103BD000973000F58230F0F4C090E002D090E1021E
:103BE000E090E202F090E3024C155D056E057F0562
:103BF00089F0892F90E0880F991F820F931F880FFB
:103C0000991F880F991FBE016F5F7F4F865A9F4F84
:103C10000E94271D8091DC029091DD02A091DE02BE
:103C2000B091DF028093E0029093E102A093E20260
:103C3000B093E30281E08093BA0128960FB6F8941E
:103C4000DEBF0FBECDBFDF91CF911F910F91FF90CF
:103C5000EF90DF90CF9008959EEC80E073CF8EEFD1
:103C60009FEFAFEFBFEF8093BC019093BD01A09396
:103C7000BE01B093BF0195CF6F927F928F929F92BA
:103C8000AF92BF92CF92DF92EF92FF920F931F936A
:103C9000CF93DF931F92CDB7DEB70E94F3036B0182
:103CA0007C011091FD02112349F08091F502B12EA3
:103CB000853029F011E0843009F010E0B12C8091BA
:103CC000C502882309F47DC0B11012C01092CB0147
:103CD0000F90DF91CF911F910F91FF90EF90DF90A8
:103CE000CF90BF90AF909F908F907F906F900895EE
:103CF0008091A3019091A401A091A501B091A6018A
:103D000036014701681A790A8A0A9B0AD401C3015D
:103D1000C297A105B105E0F2C092A301D092A4011F
:103D2000E092A501F092A601E0910701F0E0EA5AC5
:103D3000FE4F01E021E0AE014F5F5F4F608181E007
:103D40000E943C199091CB01882359F19A3038F0A8
:103D50008091B801843618F48F5F8093B801809108
:103D6000C702882351F0898187FF07C08091C6026E
:103D7000843618F48F5F8093C602992349F08091AE
:103D8000F4028750823020F060E08AE00E94700EDA
:103D90001092CB0189818093C80281E08093C70291
:103DA00097CF9A3018F49F5F9093CB018091F402E3
:103DB0008750823008F48CCF61E08AE00E94700E58
:103DC00087CF0091E90201110E94FF038091CB018E
:103DD00081118FC08091A20181118BC0011106C099
:103DE0008091BA01811181C0B11083C080ED97E04C
:103DF000A0E0B0E04091A3015091A4016091A50121
:103E00007091A60136014701641A750A860A970A5D
:103E1000B401A301481759076A077B0708F458CF74
:103E2000C092A301D092A401E092A501F092A60154
:103E3000E0910701F0E0EA5AFE4F01E021E0AE0117
:103E40004F5F5F4F608181E00E943C1981115BC030
:103E50008091CB018F5F8093CB018A3008F438CFFB
:103E60001092A2011092CB018091E902811130CF12
:103E70008091FB02882381F08091E0029091E10221
:103E8000A091E202B091E3028093DC029093DD0204
:103E9000A093DE02B093DF028091FD02882321F01F
:103EA000111102C00E94181981E08093E9028FEF7E
:103EB0009FEFDC018093BC019093BD01A093BE01F4
:103EC000B093BF011092CD021092FB021093FD023D
:103ED0001092FA021092D70260E085E00E94E5029B
:103EE000BB2061F061E083E069CF80E090E0DC011D
:103EF00081CF82E390E0A0E0B0E07CCF61E088E099
:103F00001111E6CE5BCF1092CB0189819091C7024F
:103F1000992349F087FF07C09091C602943618F4A0
:103F20009F5F9093C6028093C80291E09093C7026E
:103F30002091E902213009F469C01092A2012111F7
:103F400002C087FFCAC08091FB02882381F0809164
:103F5000E0029091E102A091E202B091E30280932D
:103F6000DC029093DD02A093DE02B093DF02809129
:103F7000FD02882321F0111102C00E94181910922D
:103F8000FB021093FD020091E9021092E9021092E7
:103F9000CD0260E085E00E94E50260E085E00E94DD
:103FA000E502023019F0898187FF41C081E00E945B
:103FB0005A1D8091E90281118BCE002339F0809146
:103FC000B801843618F48F5F8093B8016091CD02F8
:103FD00085E00E94E502112309F478C08091E8028F
:103FE0008093E5028091E6028093E4028091E702EB
:103FF0008093EE0281E00E947705C092EA02D0929F
:10400000EB02E092EC02F092ED026CCF9091BA01DB
:10401000911193CF982F907C09F08FCF9091A201AE
:104020009F5F9093A2019A3008F452CE86CF86FB10
:10403000882780F98093CD029091BA018917D9F031
:104040008091CD029091BA0181111AC091110EC0D8
:104050002FEFC216D206E206F20699F1C092BC0119
:10406000D092BD01E092BE01F092BF0191E089279C
:104070008093BA01A2CF0E94AD1B8111E1CF28CE5F
:104080009923A1F34091BC015091BD016091BE0103
:104090007091BF014F3F2FEF52076207720731F354
:1040A00036014701641A750A860A970AB401A3010A
:1040B0004093BC015093BD016093BE017093BF015A
:1040C000D5CF4EEF5FEF6FEF7FEFF2CF61E081E092
:1040D0000E94700E61E085E071CE9091BA01992343
:1040E00009F4F6CD86FB882780F98093CD02809174
:1040F000FD02811104C061E085E00E94700E809194
:10410000CD02882309F181E00E94AD1B8823E1F0F4
:104110008091BC019091BD01A091BE01B091BF0101
:104120008F3F3FEF9307A307B30761F0C81AD90A7F
:10413000EA0AFB0AC092BC01D092BD01E092BE0126
:10414000F092BF011092BA016091CD0285E00E9409
:10415000E502BECDCF93DF9300D0CDB7DEB79A8313
:104160008983CE0101960E940E1D0F900F90DF9162
:10417000CF9108952F923F924F925F926F927F92CC
:104180008F929F92AF92BF92CF92DF92EF92FF9267
:104190000F931F93CF93DF93CDB7DEB72A970FB658
:1041A000F894DEBF0FBECDBF0E94F3036B017C010C
:1041B0008091FD029091E902992361F1882389F0B1
:1041C0008091F5028450823060F48091F302811175
:1041D00023C060E086E00E94700E8091E301882396
:1041E000D9F02A960FB6F894DEBF0FBECDBFDF918F
:1041F000CF911F910F91FF90EF90DF90CF90BF90E4
:10420000AF909F908F907F906F905F904F903F9076
:104210002F9008958111D9CF8091EE02882329F142
:1042200082E00E94BC02892BE1F283E00E94BC0282
:10423000892BB9F284E00E94BC02892B91F2109282
:10424000EE021092E4021092E50281E00E947705EE
:104250008091FD02882329F2C092EA02D092EB02FB
:10426000E092EC02F092ED02BCCF0E94160E89871C
:104270008091910190919201A0919301B09194014C
:104280000097A105B105A9F0A7019601281B390BDC
:104290004A0B5B0BDA01C9018E359140A105B105CE
:1042A00040F010929101109292011092930110929D
:1042B0009401CE0109969E838D83019698878F8302
:1042C0000091E802011108C08091E602811104C04A
:1042D0008091E702882341F0C092EA02D092EB027B
:1042E000E092EC02F092ED02B090C5029091FD02D6
:1042F000B11037C09923A9F18091F202811131C028
:104300004091EA025091EB026091EC027091ED0253
:1043100026013701441A550A660A770A8091F50288
:104320002CEF280F40EE53E964E070E0223020F0DB
:1043300040E25EE460E070E04415550566057705EF
:1043400080F4843018F00E947E184BCF0E94181918
:10435000C092D802D092D902E092DA02F092DB0247
:1043600040CF8091F30291118CC081113ACF80919E
:10437000D8029091D902A091DA02B091DB02B70184
:10438000A601481B590B6A0B7B0BDB01CA018E355A
:104390009140A105B10508F424CF2091E702809156
:1043A0008D0190918E01A0918F01B09190012223F7
:1043B00009F43BC5892B8A2B8B2B41F4C0928D01CC
:1043C000D0928E01E0928F01F092900180918D0148
:1043D00090918E01A0918F01B09190010097A1055D
:1043E000B10509F4FECEC81AD90AEA0AFB0A61E24D
:1043F000C61663E0D606E104F10408F4F2CE80911B
:10440000FA028111EECE10928D0110928E0110925F
:104410008F011092900110929101109292011092CE
:1044200093011092940111E01093FD0286E08093B5
:10443000F5021092F4021092F1021092F202109220
:10444000F3021092EF021092F0021092E40161E088
:104450000E94700E1093EE020E94F3036093EA0232
:104460007093EB028093EC029093ED02BACE21E0C0
:10447000C12CD12C760113C5CC24CA94DC2C760136
:104480000EC5882361F160E084E00E94700E2BEF7E
:1044900038E14FEF65EE72E08091E8020E94B306CA
:1044A0002BEF38E141E064EE72E08091E6020E9479
:1044B000B30680E00E947705813069F480910302A1
:1044C0008F3018F00E9470188CCE8F5F809303029B
:1044D00061E084E0B2C0823009F083CEF3CF80E0A7
:1044E0000E947705182FE091F502E43009F011C120
:1044F0008091F102882309F4A9C08091F4028130EF
:1045000041F41150123008F06CCE1092F10261E0CB
:104510006FC128E03DE14FEF65EE72E0802F0E9411
:10452000B30621E03DE141E064EE72E08091E602F5
:104530000E94B306123029F41092F1021092F00298
:1045400082C0113009F04DCE8091EF028823A1F393
:104550008091F4028230D1F41092F1021092EF02B5
:104560001093070161E080E590E00E94AA2010937B
:10457000AA0161E088E00E94700E64EC79E080E0BE
:1045800090E00E94C1031092AA01C1CF8091F00275
:10459000882309F455C00E94F3036B017C0161E09C
:1045A00089E00E94700E10E000E06FEFC8010E94E9
:1045B000AA200F5F1F4F011554E01507B1F70E94A5
:1045C000580D1092E50181E0809309011092D70205
:1045D0000E94F3036C197D098E099F096E3E72409B
:1045E00081059105A8F38091C502882319F01092E6
:1045F000C502F7CD81E00E945A1D1092FD02109273
:10460000F1021092F2021092EF021092F002109258
:10461000F5021092F4020E94F3036093D8027093A3
:10462000D9028093DA029093DB0281E08093EE025C
:1046300061E00E94700E61E085E00E94700ED1CDB5
:1046400081E08093F0021092EF0261CF002309F421
:1046500053C08091E502811114C091E09093E5026E
:104660008091F402882349F081508093F402B110C4
:1046700004C0823011F49093F40261E083E00E9460
:10468000700E8091E6028823D1F18091E4028111BD
:1046900022C081E08093E4028091F402E091F5026F
:1046A000F0E0E45FFE4F20812150330B82171306A8
:1046B0001CF48F5F8093F4028091C502811107C0C2
:1046C0008091F402823019F483E08093F40261E077
:1046D00083E00E94700E123009F435CE113009F0DB
:1046E00080CD8091F402843009F42DCE81110AC06E
:1046F00085E08093F5020BCF1092E502C2CF1092B5
:10470000E402E9CF1093F1028250823008F0FFCE2C
:1047100015CFE53009F06EC00023E9F18091E50284
:1047200081110EC081E08093E5028091F40288231C
:1047300019F081508093F40261E083E00E94700ED2
:104740008091E602882351F18091E402811117C023
:1047500081E08093E4028091F402E091F502F0E0C0
:10476000E45FFE4F20812150330B821713061CF4A7
:104770008F5F8093F40261E083E00E94700E12303C
:1047800031F0113071F48091F402883051F484E0FA
:104790008093F5022DC21092E502D2CF1092E4026E
:1047A000EECF8091E90281111CCD8091F402883016
:1047B00009F417CD8091890190918A01A0918B0114
:1047C000B0918C01A7019601281B390B4A0B5B0B9A
:1047D000DA01C901C297A105B10508F402CDC09262
:1047E0008901D0928A01E0928B01F0928C0160E005
:1047F00083E023CFE63008F4F1C02DEE3CE14FEF2B
:1048000065EE72E0802F0E94B30622ED3CE141E0AC
:1048100064EE72E08091E6020E94B306123019F451
:104820000E94EA18DECC113009F0DBCC8091F50251
:10483000863009F042C08091F402833020F48093E6
:10484000E40187E0A5CF8330C9F48091090111E02C
:104850008127809309018091CD02882309F457CEE6
:1048600081E00E94AD1B811152CE80910901812708
:104870008093090181E00E94AD1B49CE843009F08C
:1048800062CD1092FD021092F1021092F20210928B
:10489000F5021092F4021092E40111E01093D70295
:1048A0000E94F3036093D8027093D9028093DA02D6
:1048B0009093DB021093EE0294CC873009F091CCF8
:1048C0008091F402863009F4ABCF1091E40111110C
:1048D0005DC0BE016F5F7F4F0E94F30A882309F419
:1048E00016CE89809A80AB80BC8000910401802F15
:1048F00090E020E4C22E22E4D22E2FE0E22EF12C12
:10490000AC01445B5E4F1A013AE0432E512C612CFE
:10491000712C82E0023010F4F10180811817A0F4AC
:10492000C501B401A70196010E94582F672B682B7F
:10493000692B51F0C701B601A30192010E94582FC3
:1049400069017A011F5FE5CF80910B01811720F487
:1049500010930B010E94550B89819A81AB81BC8118
:104960008093DC029093DD02A093DE02B093DF021D
:1049700080E00E945A1D8091E9028111E4CC60918F
:104980000B0188E290E00E94AA20DDCC113081F476
:10499000863030F40E945A0560EE72E00E94271DB6
:1049A00086E08093F5028091E4018093F402AFCD1C
:1049B000123009F016CC863098F70E945A057C0117
:1049C00010E000E06FEFC8018E0D9F1D0E94AA202D
:1049D0000F5F1F4F04301105A9F7E2CF8091F2025B
:1049E000882309F408C126EC3CE14FEF65EE72E044
:1049F000802F0E94B3062AEB3CE141E064EE72E0B6
:104A00008091E6020E94B306123029F4CE01059689
:104A10000E94B218E6CB113009F0E3CB8091F4028A
:104A20008111DFC0E091FA0180910701E81781F15F
:104A3000F0E0EA5AFE4F00E020E050E040E0608104
:104A400080E00E943C19811123C08091070180936E
:104A5000FA0181E08093AA0161E088E00E94700E73
:104A60001092AA010E94F3036B017C010E94F303E0
:104A70006C197D098E099F09643C79408105910577
:104A800018F40E94FF03F2CF60E085E00E94E50287
:104A90008091FA01809307018091FB0180930401CA
:104AA0008091FC01809303018091FD0180930101BD
:104AB0008091FE01809302018091FF0180930001AB
:104AC0008091000280930B018091F8019091F9018F
:104AD0009093A8018093A70180910102809308011F
:104AE000809102028093050181E1E7EEF1E0ACECF8
:104AF000B1E001900D928A95E1F71092DC018CEC07
:104B0000E82E81E0F82E2CED31E0F7018191805202
:104B10008F3508F01AC22E173F07C1F70AE010E0E0
:104B20001A830983F70161917F01CE0101960E94EA
:104B30000E1D0F5F1F4F0B31110591F76091A701FB
:104B40008CE390E00E94AA206091A8018DE390E0A0
:104B50000E94AA2060910B0188E290E00E94AA20A6
:104B60006091070180E590E00E94AA206091040115
:104B700086E490E00E94AA206091030182E390E025
:104B80000E94AA2060910101683008F068E086E583
:104B900090E00E94AA2060910201683008F068E06D
:104BA00087E590E00E94AA2060910001683008F03B
:104BB00068E088E590E00E94AA20609108018EE1FB
:104BC00090E00E94AA206091050183E290E00E949B
:104BD000AA200E94550B81E00E945A1D0E941819BC
:104BE00000CB8130D9F3823009F0FBCA1092F20277
:104BF0001092F4028CCC8091F10281117DC0F0E022
:104C0000E45FFE4FF080002309F447C08091E50285
:104C100081110EC081E08093E5028091F402882327
:104C200019F081508093F40261E083E00E94700EDD
:104C30008091E6028823A1F18091E402811112C0E3
:104C400081E08093E4028091F4024F2D4150550B96
:104C5000841715061CF48F5F8093F40261E083E0F3
:104C60000E94700E123009F4D1CE113009F0B9CA89
:104C70009091F5028091F402911122C08130C1F02F
:104C800090F08230C9F0833009F041CC89858823C7
:104C900009F459CB1093F202ABCF1092E502C8CFC2
:104CA0001092E402DFCF1092E6011093F502A0CF3C
:104CB0001093E60182E06CCD8093E60183E068CD3D
:104CC000E92FF0E0E45FFE4F20812150330B821783
:104CD000130629F41092F5028091E60166CE933016
:104CE00039F4811105C0109203021093F302F0CB46
:104CF00081E08093F1020BCCE130E1F58091F40288
:104D00008823D9F0813059F1123009F47FCE113067
:104D100009F067CA8091F502823009F0F6CB8091E4
:104D2000F402833009F0F1CB8091E501823008F084
:104D300079C08F5F8093E501EACB2AEA3CE14FEF2F
:104D400065EE72E0802F0E94B3062AE93CE141E063
:104D500064EE72E08091E6020E94B306D5CF2FE8A0
:104D60003CE14FEF65EE72E0802F0E94B3062EE724
:104D70003CE1EDCFE230B1F58091F4028130E1F019
:104D800080F0823021F1833009F0BECF22E23CE195
:104D90004FEF65EE72E0802F0E94B3062BE13CE1FD
:104DA000D6CF23E73CE14FEF65EE72E0802F0E9403
:104DB000B30628E63CE1CBCF27E53CE14FEF65EEBB
:104DC00072E0802F0E94B30629E43CE1C0CF29E3C2
:104DD0003CE14FEF65EE72E0802F0E94B30629E2BE
:104DE0003CE1B5CFE33009F08FCF8091F402813000
:104DF00071F0823009F088CF28E03CE14FEF65EE9A
:104E000072E0802F0E94B30621E03CE1A0CF25E1B3
:104E10003CE14FEF65EE72E0802F0E94B3062EE07A
:104E20003CE195CF1092E50170CB0097A105B1054B
:104E300009F4D7C910928D0110928E0110928F0142
:104E400010929001B701A601481B590B6A0B7B0B0E
:104E5000DB01CA018E359140A105B10508F0C1C939
:104E60008091910190919201A0919301B091940150
:104E70000097A105B10569F0B701A601481B590BC0
:104E80006A0B7B0BDB01CA01C297A105B10508F0D3
:104E9000EECAC114D104E104F10409F4EDCAC092D0
:104EA0009101D0929201E0929301F0929401222319
:104EB00009F497C911E01093FD021092F5021092C7
:104EC000F4021092F1021092F2021092F302109288
:104ED000EF021092F002809107018093FA01809115
:104EE00004018093FB01809103018093FC01809178
:104EF00001018093FD01809102018093FE01809168
:104F000000018093FF0180910B018093000280914A
:104F1000A7019091A8019093F9018093F8018091E5
:104F2000080180930102809105018093020281E1D2
:104F3000ECECF1E0A7EEB1E001900D928A95E1F77B
:104F40001092E50161E086E083CA4CE050E068E63B
:104F500070E08CEC91E00E94CE2E44E050E060E2E4
:104F600070E088ED91E00E94C42F1092DC01D6CD54
:104F70001F920F920FB60F9211242F933F938F938E
:104F80009F93AF93BF938091FF0290910003A091F4
:104F90000103B09102033091FE0223E0230F2D376D
:104FA00058F50196A11DB11D2093FE028093FF02CA
:104FB00090930003A0930103B09302038091030335
:104FC00090910403A0910503B09106030196A11DE1
:104FD000B11D8093030390930403A0930503B09342
:104FE0000603BF91AF919F918F913F912F910F90A9
:104FF0000FBE0F901F90189526E8230F0296A11D53
:10500000B11DD2CF1F920F920FB60F9211242F9382
:105010003F934F935F936F937F938F939F93AF9340
:10502000BF93EF93FF938091B900887F803609F496
:105030004AC0F0F5883209F4A7C018F5803109F4A8
:105040009BC0B8F4882309F4F9C0883009F494C0EF
:10505000FF91EF91BF91AF919F918F917F916F9150
:105060005F914F913F912F910F900FBE0F901F9026
:105070001895883109F488C0803251F780939002E6
:1050800014C0803409F49DC040F48033B9F38833F0
:10509000F9F68093900285ECB0C0803509F485C0A4
:1050A000883509F496C0883499F60E94950AD0CFC5
:1050B000883909F48CC038F5883729F050F48836DF
:1050C00011F0803729F683E08093910210928F02CD
:1050D00057C0883809F47BC0803919F0803809F04E
:1050E000B7CF80918F02803208F071C0E0918F02BB
:1050F00081E08E0F80938F028091BB00F0E0E15938
:10510000FD4F80833DC0803B39F0E0F4803A09F4E4
:1051100079C0883A09F09CCF84E080939102109284
:105120006E0210926D02E091B902F091BA020995F7
:1051300080916D0281110FC081E080936D02109209
:105140004D0209C0803C09F4A6CF883C09F4A3CFE6
:10515000883B09F07DCFE0916E0281E08E0F809355
:105160006E02F0E0E35BFD4F80818093BB00909185
:105170006E0280916D0229C08091B6028093BB00BF
:1051800085EC8093BC0064CF9091B5028091B4020D
:10519000981758F5E091B50281E08E0F8093B50223
:1051A000F0E0EC56FD4F8081E9CFE091B50281E05F
:1051B0008E0F8093B5028091BB00F0E0EC56FD4F5E
:1051C00080839091B5028091B4029817C8F285E867
:1051D000D8CFE091B50281E08E0F8093B502809127
:1051E000BB00F0E0EC56FD4F80838091930281116B
:1051F0005CCF81E08093920284EA8093BC0010929D
:10520000910226CF85EC8093BC0010929102809190
:105210008F02803230F4E0918F02F0E0E159FD4FCF
:10522000108260918F0270E0E091B702F091B802B5
:105230008FE692E0099510928F020ACF10929002A9
:1052400034CFCF93DF93FC01862FC081D181A88119
:10525000B9819D012F5F3F4F398328836AE00E9407
:10526000382F805D8C93A081B181ED91FC911197D5
:105270009F012F5F3F4F2D933C93905D9083DF9173
:10528000CF9108958DE594E00E944E0A61E080E0A0
:105290000E942D0A8EE494E00C944E0ACF9388303D
:1052A00060F4C82F80E50E94680A6C2F70E090E0DF
:1052B00080E04AE0CF910C948D088CE694E0CF9189
:1052C0000C944E0ACF93DF93EC01CB01BA01E88135
:1052D000F981408151812AE00E94E02EE881F98124
:1052E00080819181DC010D900020E9F7CD010197CB
:1052F00091838083DF91CF9108954F925F926F9257
:105300007F928F929F92AF92BF92CF92DF92EF9255
:10531000FF920F931F93CF93DF93CDB7DEB72A97FA
:105320000FB6F894DEBF0FBECDBF5C016A017B01F2
:1053300040E150E060E270E00E94C42FF501108A65
:10534000BA82A982CE0101969C838B839E838D8332
:10535000FCE3CF16D104E104F10440F5B701A60146
:1053600002960E946229E981FA81CF0101969A830F
:10537000898380E28083E981FA8183E780832A96AA
:105380000FB6F894DEBF0FBECDBFDF91CF911F9156
:105390000F91FF90EF90DF90CF90BF90AF909F90D4
:1053A0008F907F906F905F904F9008958CE3482E80
:1053B000512C612C712CC701B601A30192010E94EE
:1053C000582F2F83388749875A87162F80E1C816B0
:1053D0008EE0D806E104F104E0F4BA01A901CE019F
:1053E00003960E946229E981FA81CF0101969A838E
:1053F00089838DE68083E981FA81CF0101969A83C2
:10540000898380E28083612FCE0105960E94212945
:10541000B2CFC701B60120E13EE040E050E00E947B
:10542000582F49015A016F81788589859A85A30192
:1054300092010E94582F762EE0E8CE16E1E5DE06B6
:10544000E1E0EE06F10458F5B501A401CE010396A2
:105450000E946229E981FA81CF0101969A838983AA
:1054600088E68083E981FA81CF0101969A83898356
:1054700000E20083672DCE0105960E942129E98173
:10548000FA81CF0101969A8389838DE68083E98131
:10549000FA81CF0101969A8389830083B4CFC70133
:1054A000B60120E831E541E050E00E94582FBA01F2
:1054B000A901CE0103960E946229E981FA81CF01F8
:1054C00001969A83898384E68083E981FA81CF01FA
:1054D00001969A83898310E21083C501B40128E103
:1054E00030E040E050E00E94582FCE0105960E9427
:1054F0002129E981FA81CF0101969A83898388E67F
:105500008083E981FA81CF0101969A838983108390
:10551000672DCE0105960E942129E981FA818DE649
:105520002DCFEBE0F3E01382128288EE93E0A0E04F
:10553000B0E084839583A683B7838EE591E0918361
:105540008083E7E1F3E01382128280E791E09183A8
:10555000808388E084838FEF858389E086838AE077
:1055600087838BE080878CE081878DE0828713863C
:10557000148615861686178681E00C948C0978941B
:1055800084B5826084BD84B5816084BD85B5826048
:1055900085BD85B5816085BD80916E0081608093F9
:1055A0006E00109281008091810082608093810062
:1055B0008091810081608093810080918000816072
:1055C000809380008091B10084608093B1008091CD
:1055D000B00081608093B00080917A0084608093F5
:1055E0007A0080917A00826080937A0080917A00BC
:1055F000816080937A0080917A00806880937A003D
:105600001092C10062E082E00E94130362E083E036
:105610000E94130362E084E00E94130361E085E0CE
:105620000E94130361E085E00E94130361E086E0BD
:105630000E9413031092BE021092BD021092BC028F
:105640001092BB020E9492048BE394E09093BA0202
:105650008093B9028CE394E09093B8028093B702F0
:1056600082EF8093B8001092C40288E893E1A0E032
:10567000B0E08093C0029093C102A093C202B093A5
:10568000C302C1E0C093BF0282E00E948C098FEF89
:1056900090E00E94440361E080E00E94700E64ECA0
:1056A00079E080E090E00E94C1030E94580D83E001
:1056B0000E94BC02892B09F044C0C093FD02C09334
:1056C000C50284E08093F5021092F4021092F30276
:1056D0001092F2021092F1021092F0021092EF0278
:1056E00061E086E00E94700EC093EE020E94F30318
:1056F0006093EA027093EB028093EC029093ED02C8
:105700008091C502882369F00E9422080E94CF057B
:105710000E94BA208091C502882391F30E943C1E0A
:10572000EFCF1092F3021092F2021092F102109257
:10573000FD021092F0021092EF021092F502109208
:10574000F402E0910701F0E0EA5AFE4F00E021E0A8
:1057500048EC52E0608181E00E943C19882391F07E
:105760008091C702882359F08091C80287FF07C043
:105770008091C602843618F48F5F8093C60281E060
:105780008093C70280E00E945A1D61E081E00E9480
:10579000700E61E085E00E94700EC0E0D0E09924B8
:1057A0009A9483E0882E0E9422080E94CF0580915F
:1057B000E9028823B1F090920A018FEF90E00E94F5
:1057C00044038091FD02882309F43BC11092FC023E
:1057D0000E94BA200E943C1E209729F30E940000DC
:1057E000E2CF8091D702882321F11092D7028091D5
:1057F0000A01882369F0815080930A0190E00E9499
:10580000440361E070E080E090E00E94C103EFCFCC
:1058100081E08093FA0261E087E00E94700E83E0ED
:105820000E94BC02892BD9F31092D6021092E70293
:10583000C8CF8091FB02811104C08091FD028823B2
:1058400049F01092D2021092D3021092D402109218
:10585000D502B7CF0E94F3036B017C018091E8026F
:10586000882399F190920A018FEF90E00E944403FF
:105870008091FA02882301F11092FA0261E087E038
:105880000E94700E8091E80212E0811106C08091A2
:10589000E60214E0811101C013E0812F0E94BC02D6
:1058A000892BD9F3133009F465C0143009F45DC0B5
:1058B0001092E5021092E802C092D202D092D30276
:1058C000E092D402F092D50213C08091E7028111D8
:1058D000C9CF8091E6028111C5CF82E00E94BC024F
:1058E000892B31F484E00E94BC02892B09F4BACFE1
:1058F00080910901811143C01092D2021092D3020B
:105900001092D4021092D5028091FA02811159CFDF
:1059100080910A018F3F31F090920A018FEF90E061
:105920000E9444038091CE029091CF02A091D002B8
:10593000B091D102A7019601281B390B4A0B5B0BD2
:10594000DA01C901883E9340A105B10508F439CFB9
:10595000C092CE02D092CF02E092D002F092D10259
:1059600060E081E00E94700E2CCF1092E402109251
:10597000E602A2CF1092D6021092E7029DCF80914C
:10598000CD02882309F45DCF8091D2029091D30299
:10599000A091D402B091D502892B8A2B8B2B41F494
:1059A000C092D202D092D302E092D402F092D502F9
:1059B00080910801882309F404CF8091D20290914C
:1059C000D302A091D402B091D50297018601081BA1
:1059D000190B2A0B3B0BD901C801853C9940A10545
:1059E000B10508F4EECE8091FA028111EACE8091E1
:1059F0000A018F3108F4E5CE4091C9025091CA02E4
:105A00006091CB027091CC0297018601041B150BAB
:105A1000260B370BB901A801473051056105710507
:105A200008F4CFCE815080930A0190E00E94440395
:105A3000C092C902D092CA02E092CB02F092CC028C
:105A4000C0CE0E94F3036B017C018091FB028111A7
:105A500046C18091FA02811142C182E00E94BC02DB
:105A60008C0184E00E94BC025C0183E00E94BC02C5
:105A70009C018091FC029EEF980F923008F04DC07F
:105A8000823009F041C001151105F1F5A114B104EE
:105A9000D9F5232BC9F18091F6029091F702A091DC
:105AA000F802B091F902C81AD90AEA0AFB0A18EEFC
:105AB000C11613E0D106E104F10408F489CE109276
:105AC000FC0211E01093FD0284E08093F502109235
:105AD000F4021092F3021092F2021092F10210926C
