:100000000C9442030C946A030C946A030C946A03E4
:100010000C946A030C946A030C946A030C946A03AC
:100020000C946A030C946A030C946A030C946A039C
:100030000C946A030C946A030C946A030C946A038C
:100040000C9400270C946A030C946A030C946A03C2
:100050000C946A030C946A030C946A030C946A036C
:100060000C944A270C946A037265747279696E67FE
:100070002E2E2E00726573746F72696E6720307851
:1000800000493243204552524F52004932432046E4
:10009000414C4C4241434B00726573657474696E08
:1000A000672E2E2E00464143544F5259205245533D
:1000B000455400524543414C4C204D454D4F5259FB
:1000C0000056434F2053455454494E47530044492A
:1000D00041474E4F535449435300515549434B20D8
:1000E0004D454E550053595354454D204D454E55A1
:1000F0000053455256494345204D454E55003C3C22
:10010000003E3E0020004C4F434B200020002100C9
:10011000210053455420746F2073656C656374002F
:100120006F6666006F6E20003E200053484F5720D8
:100130004D454E55205449544C4500534554207468
:100140006F2073656C656374006F6666006F6E2068
:10015000003E20004241434B4C494748542044490B
:100160004D4D45520053455420746F2065646974A9
:100170000053544154494F4E204E414D4500534584
:100180005420746F2073656C656374006E6F6E65C8
:1001900000500052462064726976653A20006E6F06
:1001A0006E65005000756E6C6F636B65643A20007D
:1001B0006E6F6E650050006C6F636B65643A200073
:1001C0003E2000504F5254204D415050494E470060
:1001D00053455420746F2073656C656374006869BF
:1001E00067680064697361626C6564006C6F772096
:1001F000003E20004348415247452050554D500095
:1002000053455420746F2073656C65637400204DF2
:10021000487A002E003E20005854414C204652455A
:100220005155454E43590053455420746F20736512
:100230006C656374003E20307800493243204144AD
:1002400044524553530053455420746F2073656CDA
:100250006563740020646563696D616C730020647C
:100260006563696D616C003E2000505245434953FF
:10027000494F4E0053455420746F2073656C65637D
:10028000740036342D31333030204D487A005548D3
:100290004600373020636D0032206D00464D2057F8
:1002A0006F726C6400464D204A6170616E00464D6D
:1002B000204F495254003E20004652455155454E6C
:1002C00043592042414E440039392B00746F746108
:1002D0006C3A2000493243205245434F564552491B
:1002E00045530050372E2E503020003000504F52D2
:1002F0005420434D44203078006E6F7420696E693D
:100300007469616C697A656400504F525420434FA0
:100310004D4D414E44003E3939393920730020009B
:10032000207300200020002020002073002E0020D9
:10033000006C6F636B656420696E006C6F636B6942
:100340006E67202000504C4C204C4F434B205449AA
:100350004D45003C756E6B6E6F776E3E00504C4C99
:10036000204C4F434B2054494D45006E6F7420691B
:100370006E697469616C697A656400504C4C204CFC
:100380004F434B2054494D45002020002D20202D67
:1003900020202D20202D2D2D00503720503520508D
:1003A000342050360039392B0020504F5220636ED4
:1003B000743A002D00464C3A00504C4C20535441A6
:1003C0005455530053455420746F20636F6E666913
:1003D000726D0045584954204D454E5500534554C3
:1003E00020746F2073656C656374006E6F200079F4
:1003F0006573003E2000464143544F5259205245F8
:1004000053455400434C45415220414C4C204441FB
:1004100054413F0053455420746F20726573746FCC
:100420007265004932432046414C4C4241434B00E7
:1004300053455420746F207669657700535953549F
:10044000454D20494E464F00284329323032362050
:100450004C6F656E69650056455253494F4E3A20C0
:1004600056352E312E370053455420746F20656E5B
:1004700074657200444941474E4F535449435300F9
:1004800053455420746F2070726F63656564004536
:10049000584954204D454E550053455420746F2003
:1004A000656E7465720047454E4552414C20534578
:1004B0005454494E47530053455420746F20656E81
:1004C00074657200504C4C2053455454494E475368
:1004D0000053455420746F20656E74657200564356
:1004E0004F2053455454494E4753003C656D70743A
:1004F000793E003A003E204D003E204D003E4D002A
:10050000204D487A0020003A003E207265747572D2
:100510006E00434C454152204D454D4F52590020ED
:100520004D487A00534156452000524543414C4CBA
:10053000204D454D4F52590053455420746F207340
:10054000656C6563740053455420746F20636F6E4F
:100550006669726D0053455420746F20746F67672D
:100560006C650045584954204D454E55004C434458
:10057000204F4646004F4646004F4E00524620440C
:10058000524956453A2000434C454152204D454D75
:100590004F52590053415645204D454D4F52590039
:1005A000524543414C4C204D454D4F5259006361DB
:1005B0006E63656C00646973636172640073617675
:1005C00065206368616E676573003E200045584989
:1005D00054204D454E5500204D487A005345542037
:1005E0000052462044524956453A204F4646002084
:1005F0004D487A0056352E312E3700504C4C204352
:100600004F4E54524F4C4C45520053455420746F3A
:1006100020636F6E6669726D0052455455524E20CC
:10062000544F204D454E5500000000002400270087
:100630002A0000000000250028002B000000000018
:100640002300260029000404040404040404020214
:100650000202020203030303030301020408102041
:10066000408001020408102001020408102000004C
:100670000008000201000003040700000000000061
:100680000000852811241FBECFEFD8E0DEBFCDBF0C
:1006900011E0A0E0B1E0E4ECFBE502C005900D92B2
:1006A000AA38B107D9F723E0AAE8B1E001C01D924A
:1006B000A632B207E1F713E0C2E4D3E004C0219709
:1006C000FE010E94602DC134D107C9F70E94B328F2
:1006D0000C94E02D0C940000833081F028F48130DC
:1006E00099F08230A9F008958730A9F08830C9F0D8
:1006F0008430B1F4809180008F7D03C080918000B0
:100700008F7780938000089584B58F7784BD089596
:1007100084B58F7DFBCF8091B0008F778093B00040
:1007200008958091B0008F7DF9CFCF93DF93282F6C
:1007300030E0F901E259F94F8491F901E65AF94F95
:10074000D491F901EA5BF94FC491CC23A1F0811156
:100750000E946C03EC2FF0E0EE0FFF1FE45CF94FFA
:10076000A591B491EC91ED2381E090E009F480E053
:10077000DF91CF91089580E090E0FACF1F93CF935F
:10078000DF93282F30E0F901E259F94F8491F90104
:10079000E65AF94FD491F901EA5BF94FC491CC23A1
:1007A000A9F0162F81110E946C03EC2FF0E0EE0FE0
:1007B000FF1FEE5CF94FA591B4918FB7F894EC91BF
:1007C000111108C0D095DE23DC938FBFDF91CF914C
:1007D0001F910895DE2BF8CFCF93DF9390E0FC01BB
:1007E000E65AF94F24918A5B994FFC018491882342
:1007F000D1F090E0880F991FFC01E85DF94FA591B9
:10080000B491FC01EE5CF94FC591D491623071F462
:100810009FB7F8943C91822F809583238C93E88135
:100820002E2B28839FBFDF91CF9108958FB7F89427
:10083000EC912E2B2C938FBFF6CFCF93DF93EC014F
:1008400061E086E00E94EC03209731F460E086E0EE
:10085000DF91CF910C94BE03CF3FD10511F461E03D
:10086000F6CFE4E7F6E0E491E33029F140F4E1303B
:10087000B1F0E230D9F0C038D1058CF7E7CFE730DE
:1008800021F1E83051F1E430B1F7809180008062CD
:1008900080938000D0938B00C0938A0004C084B5FD
:1008A000806884BDC7BDDF91CF91089584B5806213
:1008B00084BDC8BDF8CF809180008068809380009F
:1008C000D0938900C0938800EECF8091B0008068FB
:1008D0008093B000C093B300E6CF8091B0008062F7
:1008E0008093B000C093B400DECF3FB7F8948091FE
:1008F000FA029091FB02A091FC02B091FD0226B594
:10090000A89B05C02F3F19F00196A11DB11D3FBF47
:10091000BA2FA92F982F8827BC01CD01620F711D16
:10092000811D911D42E0660F771F881F991F4A9510
:10093000D1F708958F929F92AF92BF92CF92DF929C
:10094000EF92FF924B015C010E9475046B017C01E8
:100950000E9475046C197D098E099F09683E7340D9
:1009600081059105A8F321E0821A9108A108B10838
:1009700088EEC80E83E0D81EE11CF11C811491049E
:10098000A104B10429F7FF90EF90DF90CF90BF90C2
:10099000AF909F908F9008952FB7F8946091F602D2
:1009A0007091F7028091F8029091F9022FBF08959B
:1009B000CF92DF92EF92FF920F931F930E94CC048D
:1009C0000091FE021091FF0220910003309101037B
:1009D0006B017C01C01AD10AE20AF30A9701860171
:1009E0000A3F110521053105C0F06093FE027093A6
:1009F000FF02809300039093010385E00E9495031A
:100A000061E0892B09F060E085E01F910F91FF9074
:100A1000EF90DF90CF900C94BE031F910F91FF9049
:100A2000EF90DF90CF90089508950895AF92BF9210
:100A3000CF92DF92EF92FF920F931F93CF93DF93AA
:100A40006C017B018B01040F151FEB015E01AE18D9
:100A5000BF08C017D10759F06991D601ED91FC91FB
:100A60000190F081E02DC6010995892B79F7C50128
:100A7000DF91CF911F910F91FF90EF90DF90CF907A
:100A8000BF90AF900895089520916402260F3327F8
:100A9000331F21323105ECF420918802FC0190E0F3
:100AA00080E0243069F082E00895A09164022191F1
:100AB000AC014C5B5D4FA40FB52FB11D2C9301967B
:100AC000861798F380916402680F6093640280E057
:100AD000089581E008951092880281E080938A024F
:100AE0001092890261E082E10E94BE0361E083E12D
:100AF0000E94BE03E9EBF0E080818E7F80838081DD
:100B00008D7F808388E48093B80085E48093BC0067
:100B10000895CF93DF9391E09093BB028823B9F0BF
:100B2000C091B800D091BA008091BC008A7B8093BC
:100B3000BC0060E082E10E94BE0360E083E10E94AD
:100B4000BE030E946B05D093BA00C093B800DF913A
:100B5000CF9108950895E091B5028091B402E8170D
:100B600030F4F0E0EC5DFD4F808190E008958FEF70
:100B70009FEF08959091B5028091B4022FEF3FEF5F
:100B8000981748F4E92FF0E0EC5DFD4F208130E04C
:100B90009F5F9093B502C90108958091B40290912E
:100BA000B502891B990B0895CF92DF92EF92FF92C5
:100BB0000F931F93CF93DF937C01CB018A01209188
:100BC0002302222389F0EB016B01C40ED51ECC1544
:100BD000DD0569F06991D701ED91FC910190F081FB
:100BE000E02DC7010995F3CF642F0E944405C80189
:100BF000DF91CF911F910F91FF90EF90DF90CF90F9
:100C00000895CF93DF931F92CDB7DEB7698320910C
:100C100023022223F9F02091B202203258F021E081
:100C200030E0FC013383228390E080E00F90DF917D
:100C3000CF9108958091B302E82FF0E0ED5FFD4F72
:100C4000998190838F5F8093B3028093B20281E099
:100C500090E0ECCF61E0CE0101960E944405F7CF11
:100C600090E080E0089520910401422F50E0FA01C5
:100C7000E355FE4F208130E0220F331F240F351F34
:100C800096E0929FA001939F500D112490E0805810
:100C90009F4F840F951F880F991F880F991F0895E4
:100CA0000F931F93182F0E94CC04112371F0109200
:100CB000CD0210929C0110929D0110929E01109203
:100CC0009F0110929B0180E02DC02091CD023091B8
:100CD000DF02332351F121110CC021E02093CD021A
:100CE00060939C0170939D0180939E0190939F015E
:100CF000E8CF20919B012111E6CF00919C0110913A
:100D00009D0120919E0130919F01601B710B820B10
:100D1000930B6032734081059105A8F281E08093C6
:100D20009B0182E01F910F910895222361F280912F
:100D30009B011092CD0210929C0110929D01109285
:100D40009E0110929F0110929B0191E08927EACFAA
:100D5000CF92DF92EF92FF92CF93DF930E94CC0469
:100D60006B017C0182E00E949503C1E0892B09F0B0
:100D7000C0E0C093E00283E00E949503D1E0892B9C
:100D800009F0D0E0D093DF0284E00E94950321E0D7
:100D9000892B09F020E02093DE02CD0FC20FC23074
:100DA00018F081E080938E0180918E018823F9F004
:100DB0001092DE021092DF021092E0021092DC022A
:100DC0001092CD021092DD02C1110AC010928E0164
:100DD000C0928A01D0928B01E0928C01F0928D0139
:100DE000DF91CF91FF90EF90DF90CF9008958091A9
:100DF0008A0190918B01A0918C01B0918D01C81A4C
:100E0000D90AEA0AFB0A82E3C816D104E104F10414
:100E100038F71092DE021092DF021092E002109278
:100E2000DC021092CD021092DD02DACFE0910401D3
:100E300084E0E89FF0011124E15AFE4F6081718146
:100E40008281938123E0660F771F881F991F2A955F
:100E5000D1F739E096958795779567953A95D1F7CB
:100E600008958F929F92AF92BF92CF92DF92EF92AE
:100E7000FF92CF93E091040182E0E23020F4F0E0B1
:100E8000E35AFE4F8081C09107018C1708F4C82FE8
:100E900080E4C82E82E4D82E8FE0E82EF12C9AE070
:100EA000892E912CA12CB12CCC2351F0C701B60175
:100EB000A50194010E943E2D69017A01C150F4CF31
:100EC0000E9416074B015C016C0D7D1D8E1D9F1D40
:100ED0006150710981099109A50194010E943E2D7B
:100EE000C22FAC2FB0E0A50194010E94662DA7018E
:100EF00096010E943E2D672B682B692B11F0CF5F66
:100F0000F0CF8C2FCF91FF90EF90DF90CF90BF90DC
:100F1000AF909F908F9008958F929F92AF92BF92C3
:100F2000CF92DF92EF92FF920F931F93CF93DF93B5
:100F3000082F5B01142FE9010E94CC046B017C0196
:100F4000F501002309F4A8C08081811121C0C0925D
:100F5000A401D092A501E092A601F092A701C0924F
:100F6000A001D092A101E092A201F092A30181E040
:100F70008083812FFE01DF91CF911F910F91FF9010
:100F8000EF90DF90CF90BF90AF909F908F9009949B
:100F90008091A4019091A501A091A601B091A70113
:100FA00046015701881A990AAA0ABB0A8091F202DF
:100FB000882309F455C0F8EE8F16F3E09F06A104CC
:100FC000B10408F440C00E943107082F0E941607A0
:100FD0009B01AC01A8EEB3E00E94662D9B01AC0121
:100FE000A02FB0E00E94662D24EF31E040E050E0F9
:100FF0000E943E2D8CE2881A81E0980AA108B1086F
:10100000CA01B901A50194010E943E2D8091A00161
:101010009091A101A091A201B091A30146015701B5
:10102000881A990AAA0ABB0AD501C4018217930734
:10103000A407B50740F02091EA023091F40233236F
:10104000D9F021111BC0DF91CF911F910F91FF901B
:10105000EF90DF90CF90BF90AF909F908F900895CA
:10106000E8EE8E16E3E09E06A104B10460F320E5ED
:1010700030E040E050E0CACF222329F0883C9105BF
:10108000A105B10500F3C092A001D092A101E092A8
:10109000A201F092A3016DCF1082D5CF4F925F9243
:1010A0006F927F928F929F92AF92BF92CF92DF9278
:1010B000EF92FF92CF93DF932B013C01D42FC22FED
:1010C0000E9416074B015C017C016B014814590416
:1010D0006A047B0478F0AFEFBFE7AC019B010E948C
:1010E000662D6B017C014C145D046E047F0410F4CA
:1010F0007301620161E070E080E090E0DD2331F097
:101100000E943107682F70E090E080E0A501940113
:101110000E941A2D4B015C01C13011F581E0C81A03
:10112000D108E108F108C701B601680D791D8A1DD3
:101130009B1DA50194010E943E2DC501B4010E9492
:101140001A2DDF91CF91FF90EF90DF90CF90BF905D
:10115000AF909F908F907F906F905F904F90089589
:10116000C701B601CF3F29F3C501B4019695879514
:10117000779567956C0D7D1D8E1D9F1DDACF209193
:10118000DC01E4EFF1E0222331F0E6EFF1E0213081
:1011900011F4E5EFF1E039E048E057E090818F3F4E
:1011A00011F59830C9F4508390819830A0F422232F
:1011B00031F06091F401961761F0213031F06091C7
:1011C000F501961731F0223031F06091F601961357
:1011D00002C0315019F70895911102C04083E4CF45
:1011E00091509083E1CF983011F41082DDCF973089
:1011F000A9F39F5FF6CF8F929F92AF92BF920F930A
:101200001F93CF93DF93CDB7DEB7A1970FB6F894B6
:10121000DEBF0FBECDBF19A2423008F44AE08E01F6
:101220000F5D1F4F842E912CB12CA12CA501940190
:101230000E943E2DE62FB901CA01EA3044F5E05D77
:10124000D801EE938D01232B242B252B79F790E0E9
:1012500080E0109769F0FD0101900020E9F73197D7
:10126000AF014A1B5B0BBD018EE093E00E941605A7
:10127000A1960FB6F894DEBF0FBECDBFDF91CF9120
:101280001F910F91BF90AF909F908F900895E95C50
:10129000D7CFFC0101900020E9F73197AF01481B3F
:1012A000590BBC018EE093E00C941605CF93DF93AD
:1012B000EC0160E08E810E94BE0361E08E810E949D
:1012C000BE0360E08E810E94BE038BE891E001972F
:1012D000F1F7DF91CF910895CF92DF92EF92FF92D5
:1012E0000F931F93CF93DF936C017C0187E0E80E8F
:1012F000F11CD0E0C0E0062F10E0B8010C2E02C0B7
:10130000759567950A94E2F76170F70181917F0105
:101310000E94BE032196C430D10579F7C601DF9142
:10132000CF911F910F91FF90EF90DF90CF900C9491
:101330005609CF92DF92EF92FF920F931F93CF93B4
:10134000DF93EC01F62E642F8C810E94BE038D8109
:101350008F3F19F060E00E94BE030F2D10E08F85D3
:1013600084FF25C06E0187E0C80ED11CF12CE12C52
:10137000B8010E2C02C0759567950A94E2F761706A
:10138000F60181916F010E94BE03FFEFEF1AFF0A81
:1013900088E0E816F10461F7CE01DF91CF911F914B
:1013A0000F91FF90EF90DF90CF900C945609B80109
:1013B00084E0759567958A95E1F7CE010E946C09E6
:1013C0006F2DCE01DF91CF911F910F91FF90EF9084
:1013D000DF90CF900C946C0940E0682F8EE093E092
:1013E0000C94990981E00E94EC098BE39FE101973D
:1013F000F1F70895CF93DF93823029F490911D0384
:10140000986090931D03809321031092220380E43F
:101410008093230380E18093240380E58093250358
:1014200061E0809112030E94EC03809113038F3FCF
:1014300019F061E00E94EC0361E0809114030E94C6
:10144000EC03CEE0D3E09E012E50334080911D038B
:1014500084FD0BC084E090E021962817390744F4FE
:1014600061E08E810E94EC03EECF88E090E0F4CF43
:101470008BE39DE00197F1F760E0809112030E94F9
:10148000BE0360E0809114030E94BE0380911303A9
:101490008F3F19F060E00E94BE0380911D0384FD20
:1014A00034C063E08EE093E00E946C09CBE4D6E4A4
:1014B000CE010197F1F763E08EE093E00E946C09A2
:1014C0002197F1F763E08EE093E00E946C0983E5D9
:1014D00092E00197F1F762E08EE093E00E946C09E0
:1014E00080911D0380620E94EC0984E080931E03BA
:1014F0008CE00E94EC090E94F20982E080931F03B5
:1015000086E0DF91CF910C94EC0980620E94EC0997
:101510008BE496E40197F1F780911D0380620E94AD
:10152000EC0983E592E00197F1F780911D03806259
:101530000E94EC09D5CF90912103691710F06FEF4D
:10154000690FE62FF0E0E25FFC4F9489890F806815
:101550000C94EC09CF93DF93EB01682F80E00E949D
:101560009B0ACE01DF91CF910C94490941E00E9482
:10157000990981E090E008950F931F93CF93DF9333
:101580008C01D0E0C0E0F801EC0FFD1F64916623F0
:1015900039F041E08EE093E00E9499092196F3CF63
:1015A000CE01DF91CF911F910F910895462F682FA3
:1015B00070E090E080E00C94FB08BC01990F880B70
:1015C000990B4AE00C94FB0885ED8093BC00809158
:1015D000B7029091B802A091B902B091BA020796F1
:1015E000A11DB11D23E0B695A795979587952A95DE
:1015F000D1F72091BC0024FD03C010928802089509
:101600004091B7025091B8026091B9027091BA024C
:10161000452B462B472B69F30097A105B10541F0F7
:101620002AE22A95F1F700C00197A109B109E1CF9B
:101630008091B6020C948905CF92DF92EF92FF92CF
:101640000F931F93CF93DF93EB017B0124E0E20E16
:10165000F11C8B016C01C61AD70AC601800F911FBD
:101660000E94042DF80181938F01EE15FF05A9F763
:10167000CE01DF91CF911F910F91FF90EF90DF90FE
:10168000CF900895CF92DF92EF92FF920F931F9326
:10169000CF93DF93863010F020E04AC0EB010E9428
:1016A0003306BE010E941C0BC880D980EA80FB80F3
:1016B0008FEFC816D806E806F80671F3E09104012A
:1016C000F0E0E355FE4FC08188E0C89FE00111249F
:1016D000CB5DDE4F88819981AA81BB81C816D9066E
:1016E000EA06FB06C8F20E9416079B01AC01AFEFA9
:1016F000BFE70E94662D0C811D812E813F816017FE
:1017000071078207930710F48B019C010C151D05CE
:101710002E053F0508F220E040E0C701B6010E9417
:101720004E0821E0C616D706E806F90609F0B4CF40
:10173000822FDF91CF911F910F91FF90EF90DF905B
:10174000CF9008950C94042D2F923F924F925F9268
:101750006F927F928F929F92AF92BF92CF92DF92C1
:10176000EF92FF920F931F93CF93DF93CDB7DEB726
:101770002A970FB6F894DEBF0FBECDBF8CE390E082
:101780000E94A20B873008F082E08093AD018DE3C8
:1017900090E00E94A20B873008F082E08093AE01B7
:1017A000809104018987882E912CF401E355FE4F26
:1017B00090819A87A92EB12C850143E0000F111F5B
:1017C0004A95E1F70B5D1E4FD8018D919D910D90CB
:1017D000BC91A02D8D839E83AF83B88721E041E02B
:1017E000BC01CD010E944E086B017C01C092FB013F
:1017F000D092FC01E092FD01F092FE01F8014480DC
:101800005580668077802FEF41E0C301B2010E94CE
:101810004E081B018C016093FF01309200028093FF
:10182000010210930202FA85F73008F075C089852D
:10183000823008F071C0C501880F991F880D991D6D
:10184000880F991F880F991FBE016F5F7F4F865ABF
:101850009F4F0E941C0B89809A80AB80BC808D8139
:101860009E81AF81B88588169906AA06BB0698F1B5
:101870000E9416079B01AC01AFEFBFE70E94662DE7
:10188000461657066806790610F4C301B2016815BA
:1018900079058A059B05F8F020E040E0C501B40118
:1018A0000E944E08681579058A059B05A1F420E081
:1018B00041E0C501B4010E944E086C157D058E05FE
:1018C0009F0548F0610178016C157D058E059F0527
:1018D00010F46B017C01C092D302D092D402E0924A
:1018E000D502F092D6022A960FB6F894DEBF0FBE4C
:1018F000CDBFDF91CF911F910F91FF90EF90DF90BF
:10190000CF90BF90AF909F908F907F906F905F909F
:101910004F903F902F9008958D819E81AF81B88523
:10192000892B8A2B8B2BB9F6812C912C5401B4CFA7
:10193000FF920F931F93CF93DF93EC018B01F42E53
:1019400040E150E060E270E00E94B32D188AC801C7
:101950000E94C92C813108F080E1482F50E080E0DE
:10196000FF2031F080E190E0841B950B95958795E1
:10197000B8018C0F9D2F911DDF91CF911F910F9179
:10198000FF900C94C02C3F924F925F926F927F9287
:101990008F929F92AF92BF92CF92DF92EF92FF927F
:1019A0000F931F93CF93DF93EC012A013B01322E5B
:1019B00010E030E4832E32E4932E3FE0A32EB12CCE
:1019C000C12CD12C7601C3941017A1F0AAE0B0E08D
:1019D000A70196010E94662D6B017C01C501B4012F
:1019E0002AE030E040E050E00E943E2D49015A01DB
:1019F0001F5FEACFC501B4019695879577956795E6
:101A0000640D751D861D971DA50194010E943E2D34
:101A1000CA01B901A70196010E943E2D29013A0190
:101A20004B015C012AE0AE01C301B2010E94D22C3D
:101A3000FE0101900020E9F73197EC1BFD0B11230B
:101A4000B1F18E010E0F1F1F8EE2F80181938F01FD
:101A5000C701B6012AE030E040E050E00E943E2D90
:101A600069017A018AE0482E512C612C712CC11435
:101A7000D104E104F104C9F0C501B401A701960144
:101A80000E943E2DCA01B901A30192010E943E2D80
:101A9000605DF80161938F01C701B601A301920156
:101AA0000E943E2D69017A01E2CFF80110823320B5
:101AB00071F1FE0101900020E9F73197EC1BFD0B5D
:101AC000E83028F5FF2708E010E00E1B1F0BAF01E0
:101AD0004F5F5F4FBE01CE01800F911F0E94A12D6D
:101AE000A80160E270E0CE01DF91CF911F910F91CC
:101AF000FF90EF90DF90CF90BF90AF909F908F902E
:101B00007F906F905F904F903F900C94B32DDF913A
:101B1000CF911F910F91FF90EF90DF90CF90BF90EA
:101B2000AF909F908F907F906F905F904F903F907D
:101B300008959F92AF92BF92CF92DF92EF92FF9261
:101B40000F931F93CF93DF93CDB7DEB729970FB6CF
:101B5000F894DEBF0FBECDBF982E590168010091E9
:101B6000070121E0CE0101967C010E94C30CF70120
:101B700001900020E9F731978F010E191F09C60166
:101B80000E94C92C800F10E1181BA114B10439F078
:101B9000692D80E00E949B0AC5010E94BC0A692D44
:101BA000812F0E949B0AC7010E944909C6010E9419
:101BB000BC0A29960FB6F894DEBF0FBECDBFDF91E9
:101BC000CF911F910F91FF90EF90DF90CF90BF903A
:101BD000AF909F9008952F923F924F925F926F9295
:101BE0007F928F929F92AF92BF92CF92DF92EF92AD
:101BF000FF920F931F93CF93DF93CDB7DEB7E39799
:101C00000FB6F894DEBF0FBECDBF182F062FF09091
:101C1000E102FF2009F441C088EF810F833008F40E
:101C20003EC08091F402882309F4B4C08091EC0294
:101C30008450823008F0AEC0133089F1163009F0BC
:101C4000A9C08091D9018823A1F080911E038D7FC6
:101C500080931E0388600E94EC091092D5011092B7
:101C6000D6011092D7011092D8011092D90110928A
:101C7000D40111501A3008F03FC0E12FF0E0ED5BC5
:101C8000F14F0C94602D8F0EE30EFE0E530EB31425
:101C90001715EA150916F8157614863091F2109288
:101CA000DA01143071F6002309F42BC661E080E0FC
:101CB0000E949B0A8EED91E00E94490961E08091AB
:101CC000FA010E949B0A0E94CC046093D501709394
:101CD000D6018093D7019093D80181E08093D901F8
:101CE0008093D40180911E03982F926090931E03DD
:101CF0008A600E94EC094EC00E94F20960E081E017
:101D00000E949B0A8BEF95E00E94BC0A61E085E08F
:101D10000E949B0A84EF95E00E94BC0A3BC0409160
:101D2000D3025091D4026091D5027091D6020FEE89
:101D300015E030E020E080E00E94990D61E080E055
:101D40000E949B0A80910A01811120C00E94CC044C
:101D500028EE33E040E050E00E943E2D20FF16C008
:101D600040E150E060E270E0CE0101960E94B32DA8
:101D7000198ABE016F5F7F4F81E00E94AA0A61E06D
:101D800080E00E949B0A81EE95E0C6CF83EC91E053
:101D90000E944909E3960FB6F894DEBF0FBECDBF8F
:101DA000DF91CF911F910F91FF90EF90DF90CF9037
:101DB000BF90AF909F908F907F906F905F904F906B
:101DC0003F902F9008958091F202811107C061E049
:101DD0000E949B0A8CED95E00E94BC0A4091D302C0
:101DE0005091D4026091D5027091D60207ED15E0B2
:101DF00030E020E081E00E94990DCCCF01110E94DB
:101E0000F20960E080E00E949B0A8091E902882349
:101E100009F160E080E00E949B0A8DEC95E00E9451
:101E2000BC0A61E080E00E949B0A8AEC95E00E9477
:101E3000BC0A8091EB02813051F030F0823009F021
:101E4000A9CF8EEA95E068CF8DEB95E065CF85EB65
:101E500095E062CF8091EC028630F1F51091EB02B3
:101E6000123031F1C0F4112301F184E995E0113011
:101E7000C9F061E080E00E949B0A85E595E013309F
:101E800039F0145086E495E0123010F088E395E0C4
:101E90000E94BC0AE9C01430E1F068F083E695E0E6
:101EA000153039F70E94BC0AE4CF80EA95E0FACFFA
:101EB00087E895E0F7CF8CE795E00E94BC0A809117
:101EC0000A01882319F089E795E0ECCF85E795E0D2
:101ED000E9CF8DE695E0E6CF873009F0BAC0809172
:101EE000DB01813009F455C008F44EC0823009F49A
:101EF00060C061E080E00E949B0A1091EB0289E0E3
:101F000095E0163029F21A8A1B8A1C8A1D8ABE01A6
:101F10006E5E7F4F812F0E94420B882309F485C09B
:101F20004A885B886C887D8800910401802F90E04E
:101F300010E0F0E4CF2EF2E4DF2EFFE0EF2EF12CE4
:101F40009C01235A3E4F1901AAE08A2E912CA12C04
:101F5000B12C82E0023010F4F1018081181760F595
:101F6000C301B201A70196010E943E2D672B682B89
:101F7000692B11F1C701B601A50194010E943E2D04
:101F800069017A011F5FE5CF8AE295E00E94BC0AF1
:101F9000B0CF4091D7025091D8026091D902709190
:101FA000DA020FE115E024E235E080E00E94990DAD
:101FB000A0CF82E195E0EACF00910701011708F474
:101FC000012F20E0B301A201CE0101967C010E9405
:101FD000C30CF70101900020E9F7EE19ED5FE03145
:101FE00010F51FE01E1B89EF94E0153010F48DEF03
:101FF00094E00E94BC0A8091EB0290E001960E945E
:10200000DD0A87E095E00E94BC0A61E0812F0E9412
:102010009B0A85E095E00E94BC0AC7010E9449091D
:1020200080E095E035CF10E0E2CF85EF94E00E94AC
:10203000BC0A812F90E001960E94DD0A83EF94E0B4
:102040000E94BC0A61E089E00E949B0A8BEE94E04A
:102050001FCF81114BC08091EB02813031F1D0F064
:10206000823071F18330B9F18091E102882309F463
:1020700091CE8091EC02853009F08CCE8091EB02FC
:10208000853009F487CE60E08FE00E949B0A80E1F2
:1020900091E042CE8EED94E00E94BC0A61E080E0C7
:1020A0000E949B0A81ED94E0F3CE84EC94E00E94C0
:1020B000BC0A61E080E00E949B0A87EB94E0E8CED6
:1020C00086EA94E00E94BC0A61E080E00E949B0ADC
:1020D00089E994E0DDCE8FE894E00E94BC0A61E0DB
:1020E00080E00E949B0A80E894E0D2CE843009F020
:1020F0006EC08091EB028230D9F1A0F4882311F1F7
:10210000813009F0B1CF8091E802882331F187E571
:1021100094E00E94BC0A61E080E00E949B0A88E48F
:1021200094E0B6CE833079F1843009F09DCF83ED11
:1021300093E00E94BC0A61E080E00E949B0A84EC6C
:1021400093E0A6CE84E794E00E94BC0A61E080E0C0
:102150000E949B0A87E694E09BCE8CE394E00E9469
:10216000BC0A61E080E00E949B0A80E394E090CE8C
:1021700083E294E00E94BC0A61E080E00E949B0A36
:1021800084E194E085CE8091E7028823B9F084E071
:1021900094E00E94BC0A61E080E00E949B0A80916A
:1021A000E802882389F083EF93E00E94BC0A8091C3
:1021B000E602882331F08FEE93E06ACE86EF93E05B
:1021C000E8CF8BEE93E064CE8DED93E061CE853069
:1021D00009F0D2C18091EB02823009F48CC000F585
:1021E000882349F1813009F03FCF89E993E00E94CB
:1021F000BC0A61E080E00E949B0A8091BE028823B5
:1022000061F0F1100AC08091BC02882309F44AC031
:102210008091C2018A3008F445C08CE893E038CE42
:10222000843009F495C108F44CC1853009F01CCF05
:102230000E94692819CF89EB93E00E94BC0A61E0F3
:1022400080E00E949B0A85EB93E00E94BC0A80918B
:10225000BE028823F9F0F1101DC08091BC028823D2
:1022600021F08091C2018A30A8F48091BF0286FBE0
:10227000882780F990E00E94DD0A89EA93E00E94B5
:10228000BC0A8091BD02843650F46AE070E00E947E
:10229000D60AEACE83EB93E00E94BC0AEECF85EA31
:1022A00093E0F6CD05E010E08091BF0290E0002EB3
:1022B00002C0959587950A94E2F7817099270E944C
:1022C000DD0A89E893E00E94BC0A0150110902303E
:1022D000110551F78091BF0290E0002E02C0959544
:1022E00087950A94E2F7817099270E94DD0A0150D0
:1022F000110980F7B9CE8091BC02882359F08BE791
:1023000093E00E94BC0A61E080E00E949B0A8BE699
:1023100093E0BECDF1100EC0C090BE01D090BF01C1
:10232000E090C001F090C101EFEFCE16DE06EE06A0
:10233000FE0659F48DE593E00E94BC0A61E080E05E
:102340000E949B0A83E593E0A3CD1091BC0100237A
:1023500009F487C485E493E00E94BC0A61E080E050
:102360000E949B0A8BE393E0111102C081E393E08A
:102370000E94BC0A1093BD01112351F00E94CC04AD
:102380002B013C014C185D086E087F087301620147
:1023900061E089E00E949B0A11112EC020E8C2165C
:1023A00026E9D20628E9E206F10408F07DC08FE2B2
:1023B00093E00E94BC0A30EAC31636E8D30631E047
:1023C000E306F10410F1C701B60128EE33E040E066
:1023D00050E00E943E2DCA01B9014AE00E94FB086C
:1023E00080E293E00E94BC0A8091BC01882309F43A
:1023F0005EC08EE193E04CCD50E4C51652E4D506A4
:102400005FE0E506F10408F046C0C701B60128EE1A
:1024100033E040E050E00E943E2D89019A014B01DB
:102420005C014AE0C901B8010E94FB088DE293E01B
:102430000E94BC0AC501B40124E630E040E050E04F
:102440000E943E2DCA01B9014AE00E94FB088AE2BF
:1024500093E00E94BC0A8091BC0140E1C41647E2AF
:10246000D406E104F10478F0882309F4FDCD80EA74
:10247000C81686E8D80681E0E806F10408F0F4CD35
:1024800083E293E005CD882319F087E293E000CD45
:1024900085E293E0FDCC90E8C91696E9D90698E963
:1024A000E906F10408F48FCF86E193E0F1CCE0E493
:1024B000CE16E2E4DE06EFE0EE06F10408F0D4CD3D
:1024C00098CF8091BC0281110CC08091D70290916D
:1024D000D802A091D902B091DA02892B8A2B8B2BDA
:1024E00059F489E093E00E94BC0A61E080E00E9418
:1024F0009B0A89EF92E0CCCC8DEE92E00E94BC0A60
:102500001091BB01103120F48BEE92E00E94BC0AC6
:1025100060E170E0812F0E94D60A61E080E00E94B5
:102520009B0A83EE92E00E94BC0A07E010E08091D3
:10253000BB0190E0002E02C0959587950A94E2F7C2
:10254000817099270E94DD0A0150110980F78CCD16
:1025500084ED92E00E94BC0A61E080E00E949B0A48
:102560008CEC92E00E94BC0A8091BA01843608F497
:102570008CCE88EC92E08CCC813009F067C08091E1
:10258000EB02813009F43FC020F0823009F450CED4
:102590006BCD89EB92E00E94BC0A61E080E00E9472
:1025A0009B0A8091E802882359F186EB92E00E9411
:1025B000BC0AE091F201F0E0E252FE4F81898230E4
:1025C000B1F038F4882369F0813071F082E892E04C
:1025D0005FCC843091F070F08530C1F78EE892E0E6
:1025E00057CC8EEA92E054CC85EA92E051CC8CE94B
:1025F00092E04ECC88E992E04BCC82E992E048CC64
:1026000084E792E045CC8AE692E00E94BC0A61E051
:1026100080E00E949B0A8091E8028823A1F087E66F
:1026200092E00E94BC0A6AE070E08091F7010E948B
:10263000D60A8091F701813019F48EE592E028CC1A
:1026400084E592E025CC86E492E022CC823009F049
:10265000FAC08091EB02823009F47DC008F055C0C9
:10266000882309F459C0813009F0FECC88E192E05A
:102670000E94BC0A61E080E00E949B0A8091E8020F
:10268000882309F465C085E192E00E94BC0AE091CC
:10269000F20124E0E29FF0011124E15AFE4F608133
:1026A000718182819381E0E4CE2EE2E4DE2EEFE0C0
:1026B000EE2EF12CA70196010E943E2DCA01B90110
:1026C0004AE00E94FB0883E192E00E94BC0AE0918C
:1026D000F20134E0E39FF0011124E15AFE4F6081E2
:1026E000718182819381A70196010E943E2D20EA8B
:1026F00036E841E050E00E943E2DCA01B9014AE0AF
:102700000E94FB088EE092E0C3CB833009F445C001
:10271000843009F48DCDA8CC8AE392E00E94BC0AF3
:1027200061E080E00E949B0A8091E802882369F0C2
:1027300085E392E00E94BC0AE091F101F0E0E959E2
:10274000FE4F60E170E08081A2CD87E292E0A0CBF5
:1027500080E092E09DCB84EF91E00E94BC0A61E0B2
:1027600080E00E949B0A8091E802882399F081EF23
:1027700091E00E94BC0A8091F301882329F0813006
:1027800031F48EED91E084CB8CEE91E081CB83EE41
:1027900091E07ECB80ED91E07BCB83EC91E00E94D9
:1027A000BC0A61E080E00E949B0A8091E8028823D5
:1027B00009F446C080EC91E00E94BC0A8091DC01E3
:1027C000811114C087EB91E00E94BC0A8091F40152
:1027D000883048F485EB91E00E94BC0A6AE070E022
:1027E0008091F40154CD80EB91E052CB8130A1F483
:1027F00085EA91E00E94BC0A8091F501883048F496
:1028000083EA91E00E94BC0A6AE070E08091F501E1
:102810003ECD8EE991E03CCB83E991E00E94BC0A79
:102820008091F601883048F481E991E00E94BC0A69
:102830006AE070E08091F6012ACD8CE891E028CB27
:102840008EE791E025CB833009F00ECC8091EB022E
:10285000813091F030F0823061F1833009F4E8CCBE
:1028600003CC81E791E00E94BC0A61E080E00E9415
:102870009B0A85E691E00CCB84E591E00E94BC0ABE
:1028800061E080E00E949B0A8091E802882371F059
:1028900081E591E00E94BC0A8091F801882319F03B
:1028A0008DE491E0F5CA89E491E0F2CA8BE391E00E
:1028B000EFCA8BE291E00E94BC0A61E080E00E94D6
:1028C0009B0A8091E802882371F088E291E00E94DF
:1028D000BC0A8091F901882319F084E291E0D8CAFA
:1028E00080E291E0D5CA82E191E0D2CA60E08FE057
:1028F0000E949B0A8EE091E001110ECA8CE091E0EB
:102900000BCA8091D901882309F444CA0E94CC04DF
:102910000091D5011091D6012091D7013091D801B5
:10292000601B710B820B930B60397140810591051F
:1029300008F430CA0E94CC046093D5017093D6018C
:102940008093D7019093D8019091D40181E098278A
:102950009093D40180911E039111C6C98D7F8093FD
:102960001E038860C6C98091C402882339F060E0E4
:1029700080E00E949B0A86E091E0CEC90E94CC04D0
:102980000091B6011091B7012091B8013091B901C1
:102990002B013C01401A510A620A730A9301820119
:1029A0000A3F11052105310508F4F4C96093B60109
:1029B0007093B7018093B8019093B90160E080E013
:1029C0000E949B0A84E091E00E94BC0A84E091E0AE
:1029D0000E94BC0A84E091E00E94BC0A84E091E07D
:1029E0000E94BC0A84E091E00E94BC0A1091B501EB
:1029F00060E0812F0E949B0A0091060181E091E036
:102A0000011102C08EEF90E00E94BC0A81E001112A
:102A100001C08FEF810F8093B501882319F08330B7
:102A200009F0B8C981E0082700930601B3C9809175
:102A3000050181110AC01092DA01002309F4AAC924
:102A400061E083E00E94EB0DA5C9011105C08091F2
:102A5000DA01882309F49EC98091EC0221EFE22E6D
:102A600020E0F22E3EECC32E30E0D32E843091F0E5
:102A700045EEE42E40E0F42E51ECC52E50E0D52E6C
:102A8000863040F08AEDE82E80E0F82E93EBC92ED8
:102A900090E0D92E0E94CC044B015C010023D1F0C0
:102AA00041E0B701CE0101960E94980C0E94F20904
:102AB000BE016F5F7F4F80E00E94AA0A8092B10141
:102AC0009092B201A092B301B092B40181E08093E0
:102AD000DA0160C91091DA0188EE93E0A0E0B0E07D
:102AE000113021F086E490E0A0E0B0E04091B10127
:102AF0005091B2016091B3017091B401240135018C
:102B0000441A550A660A770AB301A2014817590701
:102B10006A077B0708F43EC98092B1019092B20126
:102B2000A092B301B092B4011C3058F01092DA01B7
:102B30008092E2029092E302A092E402B092E50257
:102B40007FCF81E0810F8093DA0141E0B701CE01B0
:102B500083960E94980C7E0122E1E20EF11C40E077
:102B6000B601C7010E94980C81E1FE01B396BE0137
:102B70006F5F7F4FDB0101900D928A95E1F7912FF6
:102B8000193008F098E09B01FB01DB0180E23197EE
:102B90004A2F461B491718F48D93808BF8CF1430B9
:102BA000A8F01350DB01C7016701F60141916F01E5
:102BB000F90141939F01FC0147851F964C931F9794
:102BC000019711974C2D4E19411778F380E00E9420
:102BD000AA0AE0C88091F102882319F00E94F20944
:102BE000D9C861E081E00E94EB0D61E085E02ACF69
:102BF0008FEF90E00E941D040E94F20985EA90E0A8
:102C00000E94BC0A61E080E00E949B0A88E990E093
:102C100083C88FEF90E00E941D040E94F20910917A
:102C2000B0018BE890E0111102C081E890E00E94B1
:102C3000BC0A61E080E00E949B0A112379F084E7DE
:102C400090E00E94BC0AE0910801F0E0E959FE4FD3
:102C500060E170E080810E94D60A9CC888E690E01E
:102C60005BC88091BD01811379CB86CB4F925F9277
:102C70006F927F928F929F92AF92BF92CF92DF928C
:102C8000EF92FF92CF93DF9300D000D000D0CDB76A
:102C9000DEB78D83C090FF01D0900002E09001026A
:102CA000F09002028090FB019090FC01A090FD0149
:102CB000B090FE018091F2028823C9F14090D302C6
:102CC0005090D4026090D5027090D6020E943107D5
:102CD0008E830E9416079B01AC01D701C60188199B
:102CE0009909AA09BB0989839A83AB83BC839E8116
:102CF000A92FB0E00E94662D29813A814B815C8129
:102D0000261737074807590710F4CA01B9013D8152
:102D100013160CF044C0460E571E681E791E4092D2
:102D2000D3025092D4026092D5027092D602809162
:102D3000D3029091D402A091D502B091D602881509
:102D40009905AA05BB0580F1C816D906EA06FB0657
:102D500010F4D501C4018093D3029093D402A093C0
:102D6000D502B093D60261E082E00E94EB0D81E0D3
:102D70008093F20226960FB6F894DEBF0FBECDBF49
:102D8000DF91CF91FF90EF90DF90CF90BF90AF9009
:102D90009F908F907F906F905F904F900895461A0C
:102DA000570A680A790ABBCFD701C601D4CF0C9461
:102DB00036161092EA021092FA011092EE0161E0CA
:102DC00083E00E94EB0D81E08093DB020895809107
:102DD000BC02882339F01092BC028091DF028093FC
:102DE000DB0208951092F4021092E8021092E902B8
:102DF0001092EA021092EC021092EB021092DB01A8
:102E00000E94CC046093CF027093D0028093D102D1
:102E10009093D20281E08093DB028091E10261E035
:102E2000882319F088E00C94EB0D81E00E94EB0DF3
:102E300061E085E0F8CF2091EA02211133C02091B2
:102E4000E802222361F01092E8021092DC01109255
:102E5000E6021092E70261E083E00C94EB0D209112
:102E6000E902222341F01092E9021092EC0283E081
:102E70008093EB02F0CF2091EC0221110EC0DC0117
:102E8000ED91FC918081811102C00C94E71681E0E4
:102E90008093E9021092EB02DECF1092EC02809157
:102EA000DD01E6CF08958091EC02873059F486E089
:102EB0008093EC028091DB018093EB0261E083E080
:102EC0000C94EB0D0C94E716E091FA01F0E0E2525D
:102ED000FE4F2081022E000C330B20523109A90134
:102EE000480F511D87FD5A95CA01815A9F4F6FE5C2
:102EF00070E00E942A2D805E808361E084E00C9463
:102F0000EB0D81E08093F90161E083E00C94EB0D1F
:102F10001092F90161E083E00C94EB0D81E0809365
:102F2000F80161E083E00C94EB0D1092F80161E090
:102F300083E00C94EB0D81E00E94BF0861E083E028
:102F40000C94EB0D8FEF0E94BF0861E083E00C94BE
:102F5000EB0D8091F301813031F41092F30161E0C7
:102F600083E00C94EB0D8111FACF82E08093F301A2
:102F7000F6CF8091F301823031F41092F30161E0D9
:102F800083E00C94EB0D8111FACF81E08093F30183
:102F9000F6CF8091F201811106C081E08093F201A9
:102FA00082E08093F70161E083E00C94EB0DE09107
:102FB000F201EE2349F0E150E093F201F0E0E35A30
:102FC000FE4F80818093F70161E083E00C94EB0D6C
:102FD0008091F101833018F48F5F8093F10161E0FB
:102FE00083E00C94EB0D8091F101882319F081505E
:102FF0008093F10161E083E00C94EB0D8091F70187
:10300000E091F201F0E0E35AFE4F9081891718F445
:103010008F5F8093F70161E083E00C94EB0D80916A
:10302000F701882319F081508093F70161E083E074
:103030000C94EB0DE091F201F0E0E252FE4F818939
:10304000863030F48F5F818B61E083E00C94EB0D70
:1030500080E0F9CFE091F201F0E0E252FE4F818989
:10306000882331F08150818B61E083E00C94EB0D7B
:1030700086E0F9CF8091EB02823038F48F5F809345
:10308000EB0261E083E00C94EB0D08958091EB027C
:10309000882339F081508093EB0261E083E00C9447
:1030A000EB0D0895E091EC028091EB02E73059F4CA
:1030B000863010F48F5F01C080E08093EB0261E006
:1030C00083E00C94EB0DF0E0E35EFE4F2081215095
:1030D000330B8217130674F308958091EB029091DD
:1030E000EC02973059F4882311F0815001C086E03A
:1030F0008093EB0261E083E00C94EB0D8111F5CF3E
:10310000089581E08093E60261E083E00C94EB0D8A
:103110001092E60261E083E00C94EB0DEF92FF92D7
:103120000F931F93CF93DF9386E490E00E94A20B4E
:10313000C82F8111C1E0C093040188E290E00E9491
:10314000A20BEC2FF0E0E35AFE4F9081891708F4B0
:10315000982F909307010E94A40B80E590E00E94B5
:10316000A20B843008F081E08093080182E390E0B4
:103170000E94A20B833008F081E08093030186E572
:1031800090E00E94A20BC82F87E590E00E94A20B5E
:10319000D82F88E590E00E94A20BCF3F09F059C0DC
:1031A000DF3F09F058C08F3F09F055C085E080939C
:1031B000010186E08093020182E08093000103EC2C
:1031C00011E07801CAE0D0E0CE010E94042DF701A1
:1031D00081937F012196CB31D105B1F79091D30135
:1031E0001092D301F80181918F0180528F3530F414
:1031F000F1E0033D1F07B1F7992381F040E150E072
:103200006CE071E083EC91E00E94C82D44E050E056
:1032100060E270E08FEC91E00E94B32D8EE190E0CF
:103220000E94A20B91E0811101C090E090930901EE
:1032300083E290E00E94A20B91E0811101C090E036
:1032400090930501DF91CF911F910F91FF90EF9027
:103250000895C83008F0C8E0C0930101D83008F0E4
:10326000D8E0D0930201883008F088E08093000114
:10327000D83029F0CD1303C098E090930201883034
:1032800009F49DCFC81721F090910201891397CFBF
:1032900088E093CF0E948E181092EA021092E90201
:1032A0001092E8021092F4021092E6021092E702E5
:1032B0001092EC020E94CC046093CF027093D00273
:1032C0008093D1029093D20281E08093DB0261E08F
:1032D0000E94EB0D61E085E00C94EB0D2F923F9284
:1032E0004F925F926F927F928F929F92AF92BF9216
:1032F000CF92DF92EF92FF920F931F93CF93DF93C2
:1033000000D000D01F92CDB7DEB7D82EF62EE42E17
:10331000C52E2C83011180C08AE08D83EF2DEE0F26
:10332000E98311E022242A9485EE482E95EC592E4B
:10333000FC816F2E712CF150FB83DD2009F4F0C06D
:103340000E9475044B015C0180918802811167C065
:103350001093880210938A02209287021092AC0286
:103360008B818093AB021093AD028091AD02998165
:10337000892B8093AD0280918902813009F0A1C030
:10338000109289020E9475044B015C018091AD028C
:103390008093BB008091B7029091B802A091B902CE
:1033A000B091BA02892B8A2B8B2BA1F00E94750455
:1033B0002091B7023091B8024091B9025091BA02FF
:1033C000681979098A099B09261737074807590799
:1033D00008F446C08091BC0083FDD8CF5092BC0059
:1033E0000E9475044B015C0180918802813009F4D0
:1033F0006BC08091AC02EC818E1708F087C0809181
:10340000AC02EBE8F2E0A4E2B2E090E0981769F1D8
:1034100021912D939F5FFACF91E09D837FCF809183
:10342000B7029091B802A091B902B091BA02892B6B
:103430008A2B8B2B09F488CF0E9475042091B70248
:103440003091B8024091B9025091BA0268197909D5
:103450008A099B09261737074807590708F074CFD0
:103460008091B6020E94890580E01092B502809397
:10347000B402FC81F8130FC1E9820E2D1C2D802FA0
:103480009981891BEC818E1708F442C0F1E0F98321
:1034900089810F900F900F900F900F90DF91CF9137
:1034A0001F910F91FF90EF90DF90CF90BF90AF9062
:1034B0009F908F907F906F905F904F903F902F9054
:1034C00008954092BC008CCF8091B7029091B802D1
:1034D000A091B902B091BA02892B8A2B8B2B09F4E7
:1034E00083CF0E9475042091B7023091B8024091B9
:1034F000B9025091BA02681979098A099B092617FD
:1035000037074807590708F06FCFAACF8C8179CFCA
:1035100082E093E00E94BA05F80181938F01AFCF5A
:1035200010932302F092AF011092B3021092B202F4
:10353000FC81FF2339F0A3016E2D7C2D82E093E006
:103540000E94D4053090B20280E2831508F4DEC0F8
:103550009091AF019A830E9475044B015C018091A8
:103560008802811169C0E2E0E093880210938A0228
:10357000209287021092AC023092AB02E3E0F2E0BC
:10358000ABE8B2E0381299C01092AD029091AD0252
:103590008A81880F892B8093AD02809189028130C6
:1035A00009F08FC0109289020E9475044B015C01E2
:1035B0008091AD028093BB008091B7029091B802D8
:1035C000A091B902B091BA02892B8A2B8B2BA1F062
:1035D0000E9475042091B7023091B8024091B9025F
:1035E0005091BA02681979098A099B092617370789
:1035F0004807590708F441C08091BC0083FDD8CF2B
:103600005092BC000E9475044B015C0180918802BD
:10361000823009F459C0809187028F3F09F478C045
:1036200080918702803209F475C0809187028033CF
:1036300009F472C084E026C08091B7029091B8026C
:10364000A091B902B091BA02892B8A2B8B2B09F475
:1036500086CF0E9475042091B7023091B802409144
:10366000B9025091BA02681979098A099B0926178B
:1036700037074807590708F072CF8091B6020E94B9
:10368000890585E01092B3021092B20210922302D3
:10369000882309F4FBCE8D81813031F062E370E044
:1036A00080E090E00E949A04FD81F150FD83F111C9
:1036B00044CE002399F11982EBCE91919D938F5FB7
:1036C00061CF4092BC009ECF8091B7029091B8022A
:1036D000A091B902B091BA02892B8A2B8B2B09F4E5
:1036E00095CF0E9475042091B7023091B8024091A5
:1036F000B9025091BA02681979098A099B092617FB
:1037000037074807590708F081CFB7CF81E0BACF14
:1037100080E0B8CF82E0B6CF83E0B4CFE09108017B
:10372000F0E0E959FE4F80818F11C5CF8091F402FE
:103730008983882359F18091EC021981853031F019
:10374000843021F10E944A1910E01982D11020C062
:103750009C819923E9F082E08093E1021092BC0100
:103760001092C4021092F202E981E093F4021092E6
:10377000F1021092CE0260E085E00E94BE031123A8
:10378000B1F061E083E00E94EB0D95CF10E0DECF59
:1037900081E08093E1028FEF9FEFDC018093BE0117
:1037A0009093BF01A093C001B093C101D9CFF9811B
:1037B000F11181CF61E088E00E94EB0D69CE0F939B
:1037C000CF93DF9300D0CDB7DEB7882369F0909117
:1037D000C40220910101911109C080E00F900F9067
:1037E000DF91CF910F9108952091020190910301F3
:1037F0009230A9F18823A9F1913099F19EE899833B
:1038000090E0283028F491E001C0990F2A95EAF75A
:103810009A83882381F080910001883060F42091A0
:103820000A01222341F021E030E001C0220F8A95F5
:10383000EAF7922B9A83E0910801F0E0E959FE4FF4
:1038400000E022E0AE014F5F5F4F608180E00E94A8
:103850006E19882311F29A819093BB01BFCF9FE824
:10386000CECF9EECCCCFFF920F931F93CF93DF93DD
:10387000EC01F62E08811981C8010E94042DF8166A
:1038800021F06F2DC8010E940C2DCE01DF91CF9148
:103890001F910F91FF900895AF92BF92CF92DF9248
:1038A000EF92FF920F931F93CF93DF9300D0CDB78A
:1038B000DEB78B016B0124E0C20ED11C7B015C01E1
:1038C000A61AB70AC5018E0D9F1D9A838983F70139
:1038D00061917F01CE0101960E94331CEC14FD041E
:1038E00089F7C8010F900F90DF91CF911F910F9131
:1038F000FF90EF90DF90CF90BF90AF900895CF9260
:10390000DF92EF92FF920F931F93CF93DF93CDB788
:10391000DEB728970FB6F894DEBF0FBECDBF182FC5
:103920006091D3027091D4028091D5029091D60219
:1039300020E041E00E944E086B017C01C092D3025E
:10394000D092D402E092D502F092D6028091D702B2
:103950009091D802A091D902B091DA02C816D90686
:10396000EA06FB0619F4112309F48CC00E9416071D
:103970009B01AC01C701B6010E943E2D3D832E8301
:1039800080910301823009F08CC09EE881E0892B90
:103990008F839091020180E0983028F481E001C08B
:1039A000880F9A95EAF78887E0910801F0E0E959D5
:1039B000FE4F00E024E0AE014B5F5F4F608180E08E
:1039C0000E946E19882309F45DC00E94CC046F3FE9
:1039D0002FEF72078207920709F466C06093BE0159
:1039E0007093BF018093C0019093C101888580933B
:1039F000BB014091D3025091D4026091D5027091E5
:103A0000D60280910401282F30E0F901E355FE4FE2
:103A1000908149835A836B837C83973000F5823091
:103A2000F0F4C090D702D090D802E090D902F09084
:103A3000DA024C155D056E057F0589F0892F90E04F
:103A4000880F991F820F931F880F991F880F991F46
:103A5000BE016F5F7F4F865A9F4F0E944C1C809122
:103A6000D3029091D402A091D502B091D602809356
:103A7000D7029093D802A093D902B093DA0281E0E2
:103A80008093BC0128960FB6F894DEBF0FBECDBF61
:103A9000DF91CF911F910F91FF90EF90DF90CF902A
:103AA00008959EEC80E073CF8EEF9FEFAFEFBFEFF6
:103AB0008093BE019093BF01A093C001B093C10158
:103AC00095CF6F927F928F929F92AF92BF92CF923B
:103AD000DF92EF92FF920F931F93CF93DF931F928A
:103AE000CDB7DEB70E94CC046B017C011091F402CB
:103AF000112349F08091EC02B12E853029F011E0BC
:103B0000843009F010E0B12C8091BC02882309F4C4
:103B10007BC0B11012C01092C2010F90DF91CF9103
:103B20001F910F91FF90EF90DF90CF90BF90AF90DB
:103B30009F908F907F906F9008958091A9019091B0
:103B4000AA01A091AB01B091AC0136014701681AFE
:103B5000790A8A0A9B0AD401C301C297A105B1055B
:103B6000E0F2C092A901D092AA01E092AB01F092DA
:103B7000AC01E0910801F0E0E959FE4F01E021E0DD
:103B8000AE014F5F5F4F608181E00E946E1990919E
:103B9000C201882351F19A3038F08091BA018436FD
:103BA00018F48F5F8093BA018091BE02882351F090
:103BB000898187FF07C08091BD02843618F48F5F2A
:103BC0008093BD02992341F08091EB02853021F072
:103BD00060E08AE00E94EB0D1092C201898180931F
:103BE000BF0281E08093BE0298CF9A3018F49F5FA5
:103BF0009093C2018091EB02853009F48ECF61E091
:103C00008AE00E94EB0D89CF0091E10201110E9430
:103C1000D8048091C20181118FC08091A8018111C7
:103C20008BC0011106C08091BC01811181C0B1100F
:103C300083C080ED97E0A0E0B0E04091A9015091F1
:103C4000AA016091AB017091AC0136014701641A81
:103C5000750A860A970AB401A301481759076A072B
:103C60007B0708F45ACFC092A901D092AA01E09232
:103C7000AB01F092AC01E0910801F0E0E959FE4F90
:103C800001E021E0AE014F5F5F4F608181E00E9463
:103C90006E1981115BC08091C2018F5F8093C20158
:103CA0008A3008F43ACF1092A8011092C201809194
:103CB000E102811132CF8091F202882381F080915C
:103CC000D7029091D802A091D902B091DA028093E4
:103CD000D3029093D402A093D502B093D6028091E0
:103CE000F402882321F0111102C00E944A1981E0D8
:103CF0008093E1028FEF9FEFDC018093BE019093F0
:103D0000BF01A093C001B093C1011092C4021092F0
:103D1000F2021093F4021092F1021092CE0260E0CF
:103D200085E00E94BE03BB2061F061E083E069CFC3
:103D300080E090E0DC0181CF82E390E0A0E0B0E0A1
:103D40007CCF61E088E01111E8CE5BCF1092C20118
:103D500089819091BE02992349F087FF07C0909115
:103D6000BD02943618F49F5F9093BD028093BF020A
:103D700091E09093BE022091E102213009F469C0E4
:103D80001092A801211102C087FFCAC08091F202DF
:103D9000882381F08091D7029091D802A091D90216
:103DA000B091DA028093D3029093D402A093D5020B
:103DB000B093D6028091F402882321F0111102C041
:103DC0000E944A191092F2021093F4020091E1024B
:103DD0001092E1021092C40260E085E00E94BE03EE
:103DE00060E085E00E94BE03023019F0898187FF00
:103DF00041C081E00E947F1C8091E10281118DCE43
:103E0000002339F08091BA01843618F48F5F8093D3
:103E1000BA016091C40285E00E94BE03112309F437
:103E200078C08091E0028093DD028091DE02809371
:103E3000DC028091DF028093DB0281E00E94500669
:103E4000C092E202D092E302E092E402F092E50234
:103E50006CCF9091BC01911193CF982F907C09F079
:103E60008FCF9091A8019F5F9093A8019A3008F49A
:103E700054CE86CF86FB882780F98093C402909128
:103E8000BC018917D9F08091C4029091BC018111C5
:103E90001AC091110EC02FEFC216D206E206F2062A
:103EA00099F1C092BE01D092BF01E092C001F092A0
:103EB000C10191E089278093BC01A2CF0E94DF1B42
:103EC0008111E1CF2ACE9923A1F34091BE015091F7
:103ED000BF016091C0017091C1014F3F2FEF5207A8
:103EE0006207720731F336014701641A750A860AC0
:103EF000970AB401A3014093BE015093BF016093A0
:103F0000C0017093C101D5CF4EEF5FEF6FEF7FEF30
:103F1000F2CF61E081E00E94EB0D61E085E071CEBF
:103F20009091BC01992309F4F8CD86FB882780F98C
:103F30008093C4028091F402811104C061E085E0A5
:103F40000E94EB0D8091C402882309F181E00E9458
:103F5000DF1B8823E1F08091BE019091BF01A09109
:103F6000C001B091C1018F3F3FEF9307A307B30793
:103F700061F0C81AD90AEA0AFB0AC092BE01D092BF
:103F8000BF01E092C001F092C1011092BC016091AA
:103F9000C40285E00E94BE03C0CD2F923F924F9293
:103FA0005F926F927F928F929F92AF92BF92CF92C9
:103FB000DF92EF92FF920F931F93CF93DF93CDB7D2
:103FC000DEB72A970FB6F894DEBF0FBECDBF0E94B2
:103FD000CC046B017C018091F4029091E102992361
:103FE00091F0882309F4E2C08091EC028450823081
:103FF00008F0DCC08091EA02811107C060E086E031
:104000000E94EB0D02C08111F5CF1091F402112333
:1040100009F451C08091EC02843008F04CC09091BA
:10402000F101809108019813B5C09091F20180913F
:1040300004019813AFC09091F3018091030198138C
:10404000A9C09091F401809101019813A3C09091AF
:10405000F5018091020198139DC09091F601809125
:104060000001981397C09091F70180910701981370
:1040700091C042E050E06DEA71E08FEE91E00E9465
:10408000942D892B09F086C09091F8018091090147
:10409000981380C09091F9018091050198137AC01E
:1040A00041E150E063EC71E08EED91E00E94BA2DA9
:1040B00021E0892B09F420E02987809197019091D4
:1040C0009801A0919901B0919A010097A105B105BD
:1040D000A9F0A7019601281B390B4A0B5B0BDA01EB
:1040E000C9018E359140A105B10540F010929701AC
:1040F000109298011092990110929A01CE0109969E
:104100009E838D83019698878F830091E002011131
:1041100008C08091DE02811104C08091DF028823F3
:1041200041F0C092E202D092E302E092E402F09207
:10413000E502B090BC02B11052C0112309F44FC087
:104140008091E90281114BC08091E2029091E302DB
:10415000A091E402B091E50226013701481A590AFC
:104160006A0A7B0A8091EC029CEF980F40EE53E9BB
:1041700064E070E0923020F040E25EE460E070E0E5
:10418000441555056605770550F5843028F00E94E2
:10419000E7160CC0212F90CF0E944A19C092CF027F
:1041A000D092D002E092D102F092D2022A960FB6BB
:1041B000F894DEBF0FBECDBFDF91CF911F910F915D
:1041C000FF90EF90DF90CF90BF90AF909F908F9037
:1041D0007F906F905F904F903F902F9008958091C7
:1041E000DB02882351F08091DF028111DFCF109232
:1041F000DB0281E00E945006D9CF8091EA021111C2
:104200008CC08111D3CF8091CF029091D002A09128
:10421000D102B091D202B701A601481B590B6A0B1B
:104220007B0BDB01CA018E359140A105B10508F475
:10423000BDCF2091DF028091930190919401A091D4
:104240009501B0919601222309F439C5892B8A2B57
:104250008B2B41F4C0929301D0929401E09295018E
:10426000F09296018091930190919401A091950113
:10427000B09196010097A105B10509F497CFC81A2E
:10428000D90AEA0AFB0A61E2C61663E0D606E1042F
:10429000F10408F48BCF8091F102811187CF109245
:1042A0009301109294011092950110929601109230
:1042B0009701109298011092990110929A0111E0C1
:1042C0001093F40286E08093EC021092EB021092BD
:1042D000E8021092E9021092EA021092E6021092AD
:1042E000E7021092DB0161E00E94EB0D1093DB020C
:1042F0000E94CC046093E2027093E3028093E40294
:104300009093E50253CF21E0C12CD12C760111C549
:10431000CC24CA94DC2C76010CC5882361F160E0C2
:1043200084E00E94EB0D24E637E14FEF6DED72E083
:104330008091E0020E948C0724E637E141E06CEDB9
:1043400072E08091DE020E948C0780E00E9450069D
:10435000813069F48091FA018F3018F00E94D916EB
:1043600025CF8F5F8093FA0161E084E094C08230B2
:1043700009F01CCFF3CF80E00E945006182FE09187
:10438000EC02E43009F010C18091E802882309F4BE
:104390008BC08091EB02813041F41150123008F053
:1043A00005CF1092E80261E06EC128E838E14FEFD6
:1043B0006DED72E0802F0E948C0721E838E141E02A
:1043C0006CED72E08091DE020E948C07123029F4BD
:1043D0001092E8021092E70264C0113009F0E6CEB4
:1043E0008091E6028823A1F38091E702882309F4F3
:1043F00055C00E94CC046B017C0161E089E00E9401
:10440000EB0D10E000E06FEFC8010E9475280F5F10
:104410001F4F011554E01507B1F70E948E18109236
:10442000DC0181E080930A011092CE020E94CC044C
:104430006C197D098E099F096E3E724081059105B8
:10444000A8F38091BC02882319F01092BC02AECE72
:1044500081E00E947F1C1092F4021092E8021092F8
:10446000E9021092E6021092E7021092EC0210921A
:10447000EB020E94CC046093CF027093D002809331
:10448000D1029093D20281E08093DB0261E00E942E
:10449000EB0D61E085E00E94EB0D88CE81E080931A
:1044A000E7021092E6027FCF002309F454C0809106
:1044B000DD02811115C081E08093DD028091EB0265
:1044C000882351F081508093EB02B11005C08230F7
:1044D00019F481E08093EB0261E083E00E94EB0D30
:1044E0008091DE028823D1F18091DC02811122C00B
:1044F00081E08093DC028091EB02E091EC02F0E03D
:10450000E35EFE4F20812150330B821713061CF40B
:104510008F5F8093EB028091BC02811107C0809174
:10452000EB02823019F483E08093EB0261E083E0D8
:104530000E94EB0D123009F42ACE113009F036CE6C
:104540008091EB02843009F422CE81110AC085E00B
:104550008093EC0228CF1092DD02C2CF1092DC02D1
:10456000E9CF8230D1F49091BC029923B1F010933D
:10457000080161E080E590E00E9475281093B00189
:1045800061E088E00E94EB0D64EC79E080E090E06F
:104590000E949A041092B00106CF91E09093E80235
:1045A000833009F000CF16CFE53009F06EC000234C
:1045B000E9F18091DD0281110EC081E08093DD027E
:1045C0008091EB02882319F081508093EB0261E027
:1045D00083E00E94EB0D8091DE02882351F18091EF
:1045E000DC02811117C081E08093DC028091EB0234
:1045F000E091EC02F0E0E35EFE4F20812150330BAE
:10460000821713061CF48F5F8093EB0261E083E056
:104610000E94EB0D123031F0113071F48091EB02F9
:10462000853051F484E08093EC022CC21092DD02BC
:10463000D2CF1092DC02EECF8091E1028111B6CD93
:104640008091EB02853009F4B1CD80918F0190917A
:104650009001A0919101B0919201A7019601281BB0
:10466000390B4A0B5B0BDA01C901C297A105B105F1
:1046700008F49CCDC0928F01D0929001E0929101FC
:10468000F092920160E083E006CFE63008F4F1C0DA
:104690002DE638E14FEF6DED72E0802F0E948C0720
:1046A00022E538E141E06CED72E08091DE020E948B
:1046B0008C07123019F40E94531778CD113009F08D
:1046C00075CD8091EC02863009F042C08091EB02FA
:1046D000833020F48093DB0187E0A5CF8330C9F4D9
:1046E00080910A0111E0812780930A018091C40220
:1046F000882309F458CE81E00E94DF1B811153CE3C
:1047000080910A01812780930A0181E00E94DF1BCA
:104710004ACE843009F03BCD1092F4021092E802A8
:104720001092E9021092EC021092EB021092DB015F
:1047300011E01093CE020E94CC046093CF027093DC
:10474000D0028093D1029093D2021093DB022ECD3F
:10475000873009F02BCD8091EB02863009F4ABCF86
:104760001091DB0111115DC0BE016F5F7F4F0E9490
:10477000420B882309F417CE89809A80AB80BC80D5
:1047800000910401802F90E020E4C22E22E4D22E7A
:104790002FE0E22EF12CAC01435A5E4F1A013AE0B1
:1047A000432E512C612C712C82E0023010F4F10167
:1047B00080811817A0F4C501B401A70196010E94D9
:1047C0003E2D672B682B692B51F0C701B601A30161
:1047D00092010E943E2D69017A011F5FE5CF809111
:1047E0000701811720F4109307010E94A40B89810F
:1047F0009A81AB81BC818093D3029093D402A09321
:10480000D502B093D60280E00E947F1C8091E10225
:104810008111BDCC6091070188E290E00E9475286B
:10482000B6CC113081F4863030F40E94330667ED47
:1048300072E00E944C1C86E08093EC028091DB01C8
:104840008093EB02B0CD123009F0B0CC863098F7EF
:104850000E9433067C0110E000E06FEFC8018E0D6E
:104860009F1D0E9475280F5F1F4F04301105A9F787
:10487000E2CF8091E902882309F407C126E438E1F8
:104880004FEF6DED72E0802F0E948C072AE338E134
:1048900041E06CED72E08091DE020E948C071230E4
:1048A00029F4CE0105960E941B1780CC113009F027
:1048B0007DCC8091EB028111DEC0E091F10180910D
:1048C0000801E81781F1F0E0E959FE4F00E020E02F
:1048D00050E040E0608180E00E946E19811123C0A9
:1048E000809108018093F10181E08093B00161E043
:1048F00088E00E94EB0D1092B0010E94CC046B0185
:104900007C010E94CC046C197D098E099F09643CCE
:1049100079408105910518F40E94D804F2CF60E037
:1049200085E00E94BE038091F1018093080180918F
:10493000F201809304018091F3018093030180913F
:10494000F401809301018091F5018093020180912F
:10495000F601809300018091F70180930701809117
:10496000EF019091F0019093AE018093AD018091A1
:10497000F801809309018091F9018093050181E19B
:10498000EEEDF1E0A3ECB1E001900D928A95E1F734
:104990001092D30183ECE82E81E0F82EF70181918B
:1049A00080528F3508F01BC221E0E33DF207B9F7D2
:1049B0000AE010E01A830983F70161917F01CE01BB
:1049C00001960E94331C0F5F1F4F0B31110591F7A9
:1049D0006091AD018CE390E00E9475286091AE017A
:1049E0008DE390E00E9475286091070188E290E0D5
:1049F0000E9475286091080180E590E00E9475286A
:104A00006091040186E490E00E94752860910301A2
:104A100082E390E00E94752860910101683008F0FF
:104A200068E086E590E00E94752860910201683098
:104A300008F068E087E590E00E9475286091000129
:104A4000683008F068E088E590E00E947528609181
:104A500009018EE190E00E9475286091050183E2D2
:104A600090E00E9475280E94A40B81E00E947F1CA8
:104A70000E944A199BCB8130D9F3823009F096CB42
:104A80001092E9021092EB028ECC8091E802811123
:104A90007DC0F0E0E35EFE4FF080002309F447C0E4
:104AA0008091DD0281110EC081E08093DD02809152
:104AB000EB02882319F081508093EB0261E083E0E0
:104AC0000E94EB0D8091DE028823A1F18091DC022F
:104AD000811112C081E08093DC028091EB024F2DA6
:104AE0004150550B841715061CF48F5F8093EB0221
:104AF00061E083E00E94EB0D123009F4D2CE113058
:104B000009F054CB9091EC028091EB02911122C0FC
:104B10008130C1F090F08230C9F0833009F043CC8D
:104B20008985882309F433CB1093E902ABCF109227
:104B3000DD02C8CF1092DC02DFCF1092DD011093AE
:104B4000EC02A0CF1093DD0182E06DCD8093DD01FA
:104B500083E069CDE92FF0E0E35EFE4F2081215034
:104B6000330B8217130629F41092EC028091DD01B9
:104B700067CE933039F4811105C01092FA01109379
:104B8000EA02F2CB81E08093E8020DCCE130E1F55E
:104B90008091EB028823D9F0813059F1123009F469
:104BA00080CE113009F002CB8091EC02823009F006
:104BB000F8CB8091EB02833009F0F3CB8091DC01DC
:104BC000823008F079C08F5F8093DC01ECCB2AE261
:104BD00038E14FEF6DED72E0802F0E948C072AE1E3
:104BE00038E141E06CED72E08091DE020E948C07BA
:104BF000D5CF2FE038E14FEF6DED72E0802F0E94AE
:104C00008C072EEF37E1EDCFE230B1F58091EB026A
:104C10008130E1F080F0823021F1833009F0BECFA5
:104C200022EA37E14FEF6DED72E0802F0E948C0792
:104C30002BE937E1D6CF23EF37E14FEF6DED72E08F
:104C4000802F0E948C0728EE37E1CBCF27ED37E18C
:104C50004FEF6DED72E0802F0E948C0729EC37E159
:104C6000C0CF29EB37E14FEF6DED72E0802F0E944E
:104C70008C0729EA37E1B5CFE33009F08FCF809177
:104C8000EB02813071F0823009F088CF28E837E1FB
:104C90004FEF6DED72E0802F0E948C0721E837E125
:104CA000A0CF25E937E14FEF6DED72E0802F0E9434
:104CB0008C072EE837E195CF1092DC0172CB00977C
:104CC000A105B10509F472CA1092930110929401E2
:104CD0001092950110929601B701A601481B590B3D
:104CE0006A0B7B0BDB01CA018E359140A105B10532
:104CF00008F05CCA8091970190919801A091990168
:104D0000B0919A010097A105B10569F0B701A6011C
:104D1000481B590B6A0B7B0BDB01CA01C297A1052B
:104D2000B10508F0F0CAC114D104E104F10409F49A
:104D3000EFCAC0929701D0929801E0929901F09247
:104D40009A01222309F432CA11E01093F40210925E
:104D5000EC021092EB021092E8021092E90210921B
:104D6000EA021092E6021092E70280910801809315
:104D7000F101809104018093F201809103018093FD
:104D8000F301809101018093F401809102018093ED
:104D9000F501809100018093F601809107018093D5
:104DA000F7018091AD019091AE019093F001809355
:104DB000EF01809109018093F801809105018093B2
:104DC000F90181E1E3ECF1E0AEEDB1E001900D928B
:104DD0008A95E1F71092DC0161E086E085CA40E146
:104DE00050E06CE071E083EC91E00E94C82D44E05B
:104DF00050E060E270E08FEC91E00E94B32DD8CDDE
:104E00001F920F920FB60F9211242F933F938F93FF
:104E10009F93AF93BF938091F6029091F702A09178
:104E2000F802B091F9023091F50223E0230F2D37FB
:104E300058F50196A11DB11D2093F5028093F6024D
:104E40009093F702A093F802B093F9028091FA02CE
:104E50009091FB02A091FC02B091FD020196A11D70
:104E6000B11D8093FA029093FB02A093FC02B093D1
:104E7000FD02BF91AF919F918F913F912F910F9024
:104E80000FBE0F901F90189526E8230F0296A11DC4
:104E9000B11DD2CF1F920F920FB60F9211242F93F4
:104EA0003F934F935F936F937F938F939F93AF93B2
:104EB000BF93EF93FF938091B900887F803609F408
:104EC0004AC0F0F5883209F4A7C018F5803109F41A
:104ED0009BC0B8F4882309F4F9C0883009F494C061
:104EE000FF91EF91BF91AF919F918F917F916F91C2
:104EF0005F914F913F912F910F900FBE0F901F9098
:104F00001895883109F488C0803251F78093870260
:104F100014C0803409F49DC040F48033B9F3883361
:104F2000F9F68093870285ECB0C0803509F485C01E
:104F3000883509F496C0883499F60E94E40AD0CFE7
:104F4000883909F48CC038F5883729F050F4883650
:104F500011F0803729F683E0809388021092860250
:104F600057C0883809F47BC0803919F0803809F0BF
:104F7000B7CF80918602803208F071C0E09186023E
:104F800081E08E0F809386028091BB00F0E0EA59A9
:104F9000FD4F80833DC0803B39F0E0F4803A09F456
:104FA00079C0883A09F09CCF84E0809388021092FF
:104FB000650210926402E091B002F091B10209958D
:104FC0008091640281110FC081E08093640210928D
:104FD000440209C0803C09F4A6CF883C09F4A3CF61
:104FE000883B09F07DCFE091650281E08E0F8093D0
:104FF0006502F0E0EC5BFD4F80818093BB009091F7
:1050000065028091640229C08091AD028093BB004B
:1050100085EC8093BC0064CF9091AC028091AB0290
:10502000981758F5E091AC0281E08E0F8093AC02A6
:10503000F0E0E557FD4F8081E9CFE091AC0281E0DF
:105040008E0F8093AC028091BB00F0E0E557FD4FDE
:1050500080839091AC028091AB029817C8F285E8EA
:10506000D8CFE091AC0281E08E0F8093AC028091AA
:10507000BB00F0E0E557FD4F808380918A028111EB
:105080005CCF81E08093890284EA8093BC00109217
:10509000880226CF85EC8093BC0010928802809114
:1050A0008602803230F4E0918602F0E0EA59FD4F4A
:1050B00010826091860270E0E091AE02F091AF0242
:1050C00086E692E00995109286020ACF1092870236
:1050D00034CF89E196E00E94BC0A61E080E00E9442
:1050E0009B0A8AE096E00C94BC0ACF93DF9300D031
:1050F000CDB7DEB79A838983CE0101960E94331C17
:105100000F900F90DF91CF910895E2E0F3E01382CA
:10511000128288EE93E0A0E0B0E084839583A683BA
:10512000B7838FE691E091838083EEE0F3E0138212
:10513000128281E891E09183808388E084838FEFFD
:10514000858389E086838AE087838BE080878CE093
:1051500081878DE0828713861486158616861786CA
:1051600081E00C94FA09789484B5826084BD84B59A
:10517000816084BD85B5826085BD85B5816085BD52
:1051800080916E00816080936E001092810080910A
:105190008100826080938100809181008160809392
:1051A0008100809180008160809380008091B100B7
:1051B00084608093B1008091B00081608093B000E2
:1051C00080917A00846080937A0080917A00826076
:1051D00080937A0080917A00816080937A00809138
:1051E0007A00806880937A001092C10062E082E0C9
:1051F0000E94EC0362E083E00E94EC0362E084E042
:105200000E94EC0361E085E00E94EC0361E085E030
:105210000E94EC0361E086E00E94EC031092B5026C
:105220001092B4021092B3021092B2020E946B0567
:1052300084E195E09093B1028093B00285E195E01E
:105240009093AF028093AE0282EF8093B8001092E9
:10525000BB0288E893E1A0E0B0E08093B7029093AE
:10526000B802A093B902B093BA02C1E0C093B602EB
:1052700082E00E94FA098FEF90E00E941D0461E035
:1052800080E00E94EB0D64EC79E080E090E00E9409
:105290009A040E948E1883E00E949503892B09F0DE
:1052A00042C0C093F402C093BC0284E08093EC023D
:1052B0001092EB021092EA021092E9021092E802B8
:1052C0001092E7021092E60261E086E00E94EB0D88
:1052D000C093DB020E94CC046093E2027093E3026D
:1052E0008093E4029093E5028091BC02882359F0F8
:1052F0000E94A8060E94CD1F8091BC028823A1F3C2
:105300000E94611DF1CF1092EA021092E902109200
:10531000E8021092F4021092E7021092E602109254
:10532000EC021092EB02E0910801F0E0E959FE4F27
:1053300000E021E04FEB52E0608181E00E946E19B5
:10534000882391F08091BE02882359F08091BF029A
:1053500087FF07C08091BD02843618F48F5F809369
:10536000BD0281E08093BE0280E00E947F1C61E06C
:1053700081E00E94EB0D61E085E00E94EB0DC0E052
:10538000D0E099249A9483E0882E0E94A806809108
:10539000E1028823B1F090920B018FEF90E00E9420
:1053A0001D048091F402882309F43FC11092F30296
:1053B0000E94CD1F0E94611D209739F30E940000BA
:1053C000E4CF8091CE02882321F11092CE02809109
:1053D0000B01882369F0815080930B0190E00E94BB
:1053E0001D0461E070E080E090E00E949A04EFCF3D
:1053F00081E08093F10261E087E00E94EB0D83E0A1
:105400000E949503892BD9F31092CD021092DF02EE
:10541000C8CF8091F202811104C08091F4028823E8
:1054200049F01092C9021092CA021092CB02109257
:10543000CC02B7CF0E94CC046B017C018091E002CA
:10544000882399F190920B018FEF90E00E941D0448
:105450008091F102882301F11092F10261E087E06E
:105460000E94EB0D8091E00212E0811106C0809154
:10547000DE0214E0811101C013E0812F0E94950328
:10548000892BD9F3133009F469C0143009F461C0D1
:105490001092DD021092E002C092C902D092CA02BC
:1054A000E092CB02F092CC0213C08091DF02811116
:1054B000C9CF8091DE028111C5CF82E00E949503A1
:1054C000892B31F484E00E949503892B09F4BACF2B
:1054D00080910A01811147C01092C9021092CA023C
:1054E0001092CB021092CC028091F102811159CF1F
:1054F00080910B018F3F31F090920B018FEF90E084
:105500000E941D048091C5029091C602A091C7021D
:10551000B091C802A7019601281B390B4A0B5B0BFF
:10552000DA01C901883E9340A105B10508F439CFDD
:10553000C092C502D092C602E092C702F092C802A1
:1055400061E081E00E94EB0D61E085E00E94EB0DDF
:1055500028CF1092DC021092DE029ECF1092CD0274
:105560001092DF0299CF8091C402882309F459CFA9
:105570008091C9029091CA02A091CB02B091CC0255
:10558000892B8A2B8B2B41F4C092C902D092CA027C
:10559000E092CB02F092CC0280910901882309F4B9
:1055A00000CF8091C9029091CA02A091CB02B09124
:1055B000CC0297018601081B190B2A0B3B0BD90162
:1055C000C801853C9940A105B10508F4EACE809157
:1055D000F1028111E6CE80910B018F3108F4E1CE0A
:1055E0004091C0025091C1026091C2027091C30209
:1055F00097018601041B150B260B370BB901A80177
:10560000473051056105710508F4CBCE8150809378
:105610000B0190E00E941D04C092C002D092C10212
:10562000E092C202F092C302BCCE0E94CC046B0195
:105630007C018091F202811144C18091F1028111BB
:1056400040C182E00E9495038C0184E00E94950392
:105650005C0183E00E9495039C018091F3029EEF20
:10566000980F923008F04BC0823009F03FC001150E
:105670001105E1F5A114B104C9F5232BB9F180910D
:10568000ED029091EE02A091EF02B091F002C81AE3
:10569000D90AEA0AFB0A18EEC11613E0D106E104A2
:1056A000F10408F485CE1092F30281E08093F402B5
:1056B00084E08093EC021092EB021092EA021092C6
:1056C000E9021092E8021092E7021092E60261E00D
:1056D00086E00E94EB0D0E94CC046093E20270937E
:1056E000E3028093E4029093E50262CE8092F3029B
:1056F000012B09F45DCEAB2809F45ACE57CE232BEB
:1057000009F4C1C021E00115110509F020E091E084
:10571000AB2809F090E0291709F48FC09FEF012B07
:1057200009F091E0882311F0891759F09093F30262
:10573000C092ED02D092EE02E092EF02F092F002FF
:1057400037CE8091ED029091EE02A091EF02B091E0
:10575000F002A7019601281B390B4A0B5B0BDA01FB
:10576000C90186399105A105B10508F421CE8091C2
:10577000E10281111DCE8091E00281110DC0909156
:10578000DF02911109C09091DE02911105C0909144
:10579000F202992309F40CCE27ED36E14FEF6DEDBF
:1057A00072E00E948C0727ED36E141E06CED72E07B
:1057B0008091DE020E948C078091E002811104C07A
:1057C0008091DE02882341F0C092ED02D092EE0279
:1057D000E092EF02F092F0028091F202882309F445
:1057E000E7CD80E00E945006182F8091DF028823C9
:1057F00059F0C092ED02D092EE02E092EF02F092E8
:10580000F00281E08093DB02113009F05DC00E945C
:10581000CC046B017C0180E00E947F1C1092F2029C
:10582000C092CF02D092D002E092D102F092D20286
:105830001093DB0261E081E067C0012B21F5882332
:10584000A9F04091ED025091EE026091EF0270914B
:10585000F00297018601041B150B260B370BB901CB
:10586000A801473951056105710520F482E0809354
:10587000F3025ECF1092F3029091E102911198CD64
:105880000E94361655CF882309F471CF9091E1021A
:105890004091ED025091EE026091EF027091F002A2
:1058A00097018601041B150B260B370BB901A801C4
:1058B0001092F302463951056105710508F057CF82
:1058C000DDCF1092F30253CF123019F51092F2028D
:1058D0008091D7029091D802A091D902B091DA02BA
:1058E0008093D3029093D402A093D502B093D602B2
:1058F000C092CF02D092D002E092D102F092D202B6
:1059000081E08093DB0261E00E94EB0D51CD80E0ED
:1059100021C08091ED029091EE02A091EF02B09132
:10592000F002C81AD90AEA0AFB0A49E8C41643E198
:10593000D406E104F10408F43BCD1092F20282E0B7
:105940000E949503892B29F084E00E949503892BFE
:10595000F1F683E08093F30281E00E94500680918B
:10596000D7029091D802A091D902B091DA02809327
:10597000D3029093D402A093D502B093D6025ACF0B
:10598000FB01DC0102C005900D9241505040D8F758
:105990000895FC0105900020E9F7809590958E0F01
:1059A0009F1F0895BB27FA01A62F62177105810575
:1059B0009105330B30FB66F0AA27660F771F881F0F
:1059C000991FAA1FA21710F0A21B63953850A9F7C0
:1059D000A05DAA3308F0A95DA19336F7B111B19388
:1059E0001082CA010C94F42CDC01FC01672F719128
:1059F0007723E1F7329704C07C916D9370836291B5
:105A0000AE17BF07C8F30895F999FECF92BD81BDC7
:105A1000F89A992780B50895262FF999FECF1FBAD5
:105A200092BD81BD20BD0FB6F894FA9AF99A0FBEC7
:105A300001960895DB018F939F930E94662DBF917D
:105A4000AF91A29F800D911DA39F900DB29F900DCD
:105A50001124089597FB072E16F4009407D077FDC4
:105A600009D00E94712D07FC05D03EF490958195D8
:105A70009F4F0895709561957F4F0895A1E21A2E6A
:105A8000AA1BBB1BFD010DC0AA1FBB1FEE1FFF1FE2
:105A9000A217B307E407F50720F0A21BB30BE40B32
:105AA000F50B661F771F881F991F1A9469F7609579
:105AB0007095809590959B01AC01BD01CF01089533
:105AC000EE0FFF1F0590F491E02D09940E94852DA3
:105AD000A59F900DB49F900DA49F800D911D112442
