:100000000C9435030C945D030C945D030C945D0318
:100010000C945D030C945D030C945D030C945D03E0
:100020000C945D030C945D030C945D030C945D03D0
:100030000C945D030C945D030C945D030C945D03C0
:100040000C9422270C945D030C945D030C945D03C7
:100050000C945D030C945D030C945D030C945D03A0
:100060000C946C270C945D037265747279696E67E9
:100070002E2E2E00726573746F72696E6720307851
:1000800000493243204552524F52004932432046E4
:10009000414C4C4241434B00524543414C4C204D56
:1000A000454D4F52590056434F2053455454494EE5
:1000B000475300444941474E4F535449435300511D
:1000C0005549434B204D454E550053595354454DCA
:1000D000204D454E550053455256494345204D4508
:1000E0004E55003C3C003E3E0020004C4F434B2010
:1000F0000020002100210053455420746F207365B7
:100100006C656374006F6666006F6E20003E2000B1
:1001100053484F57204D454E55205449544C4500A7
:1001200053455420746F2073656C656374006F666B
:1001300066006F6E20003E20004241434B4C494711
:1001400048542044494D4D45520053455420746F46
:1001500020656469740053544154494F4E204E4108
:100160004D450053455420746F2073656C6563746E
:10017000006E6F6E650050005246206472697665AD
:100180003A20006E6F6E65005000756E6C6F636B89
:1001900065643A20006E6F6E650050006C6F636B93
:1001A00065643A20003E2000504F5254204D41508B
:1001B00050494E470053455420746F2073656C6559
:1001C000637400686967680064697361626C656480
:1001D000006C6F7720003E20004348415247452085
:1001E00050554D500053455420746F2073656C6515
:1001F000637400204D487A002E003E200058544180
:100200004C204652455155454E43590053455420C4
:10021000746F2073656C656374003E20307800490C
:1002200032432041444452455353005345542074B3
:100230006F2073656C6563740020646563696D612C
:100240006C730020646563696D616C003E20005032
:100250005245434953494F4E0053455420746F2033
:1002600073656C6563740036342D31333030204D46
:10027000487A0055484600373020636D0032206DC3
:1002800000464D20576F726C6400464D204A6170E5
:10029000616E00464D204F495254003E20004652A8
:1002A000455155454E43592042414E440039392B62
:1002B00000746F74616C3A20004932432052454308
:1002C0004F5645524945530050372E2E503020008E
:1002D0003000504F525420434D44203078006E6F10
:1002E0007420696E697469616C697A656400504F45
:1002F000525420434F4D4D414E44003E3939393917
:100300002073002000207300200020002020002007
:1003100073002E0020006C6F636B656420696E00B3
:100320006C6F636B696E67202000504C4C204C4F03
:10033000434B2054494D45003C756E6B6E6F776E94
:100340003E00504C4C204C4F434B2054494D4500EF
:100350006E6F7420696E697469616C697A65640096
:10036000504C4C204C4F434B2054494D45002020CD
:10037000002D20202D20202D20202D2D2D00503728
:100380002050352050342050360039392B00205071
:100390004F5220636E743A002D00464C3A00504C88
:1003A0004C205354415455530053455420746F20EE
:1003B000636F6E6669726D0045584954204D454E15
:1003C000550053455420746F2073656C6563740049
:1003D0006E6F2000796573003E2000464143544F04
:1003E000525920524553455400434C4541522041F7
:1003F0004C4C20444154413F0053455420746F20DD
:10040000726573746F7265004932432046414C4CEB
:100410004241434B0053455420746F207669657701
:100420000053595354454D20494E464F0028432907
:1004300032303236204C6F656E6965005645525336
:10044000494F4E3A2056352E312E34005345542014
:10045000746F20656E74657200444941474E4F5376
:10046000544943530053455420746F2070726F6396
:100470006565640045584954204D454E5500534527
:100480005420746F20656E7465720047454E455266
:10049000414C2053455454494E4753005345542032
:1004A000746F20656E74657200504C4C2053455437
:1004B00054494E47530053455420746F20656E7461
:1004C00065720056434F2053455454494E475300DC
:1004D0003C656D7074793E003A003E204D003E2030
:1004E0004D003E4D00204D487A0020003A003E204D
:1004F00072657475726E00434C454152204D454DF6
:100500004F525900204D487A005341564520005221
:100510004543414C4C204D454D4F52590053455495
:1005200020746F2073656C656374005345542074A8
:100530006F20636F6E6669726D0053455420746F4F
:1005400020746F67676C650045584954204D454ECF
:1005500055004C4344204F4646004F4646004F4E00
:100560000052462044524956453A2000434C4541EA
:1005700052204D454D4F52590053415645204D454F
:100580004D4F525900524543414C4C204D454D4F23
:1005900052590063616E63656C00646973636172D4
:1005A000640073617665206368616E676573003E01
:1005B000200045584954204D454E5500204D487A5D
:1005C00000534554200052462044524956453A2093
:1005D0004F464600204D487A0056352E312E3400C5
:1005E000504C4C20434F4E54524F4C4C45520053AC
:1005F000455420746F20636F6E6669726D005245BA
:100600005455524E20544F204D454E550000000089
:1006100000240027002A0000000000250028002BED
:100620000000000000230026002900040404040444
:10063000040404020202020202030303030303018F
:100640000204081020408001020408102001020466
:100650000810200000000800020100000304070049
:100660000000000000000000A72811241FBECFEFEB
:10067000D8E0DEBFCDBF11E0A0E0B1E0EEE0FCE5E8
:1006800002C005900D92AA38B107D9F723E0AAE875
:10069000B1E001C01D92A833B207E1F713E0C5E352
:1006A000D3E004C02197FE010E94852DC433D107F9
:1006B000C9F70E94DA280C94052E0C9400008330B0
:1006C00081F028F4813099F08230A9F008958730C4
:1006D000A9F08830C9F08430B1F4809180008F7D1A
:1006E00003C0809180008F7780938000089584B547
:1006F0008F7784BD089584B58F7DFBCF8091B00046
:100700008F778093B00008958091B0008F7DF9CFEE
:10071000CF93DF93282F30E0F901ED5AF94F849100
:10072000F901E15CF94FD491F901E55DF94FC4910C
:10073000CC23A1F081110E945F03EC2FF0E0EE0FBB
:10074000FF1FEF5DF94FA591B491EC91ED2381E08E
:1007500090E009F480E0DF91CF91089580E090E08F
:10076000FACF1F93CF93DF93282F30E0F901ED5A92
:10077000F94F8491F901E15CF94FD491F901E55DFC
:10078000F94FC491CC23A9F0162F81110E945F0369
:10079000EC2FF0E0EE0FFF1FE95EF94FA591B49149
:1007A0008FB7F894EC91111108C0D095DE23DC933B
:1007B0008FBFDF91CF911F910895DE2BF8CFCF939C
:1007C000DF9390E0FC01E15CF94F2491855D994F46
:1007D000FC0184918823D1F090E0880F991FFC01DF
:1007E000E35FF94FA591B491FC01E95EF94FC59122
:1007F000D491623071F49FB7F8943C91822F809528
:1008000083238C93E8812E2B28839FBFDF91CF9188
:1008100008958FB7F894EC912E2B2C938FBFF6CFC1
:10082000CF93DF93EC0161E086E00E94DF03209725
:1008300031F460E086E0DF91CF910C94B103CF3FBB
:10084000D10511F461E0F6CFE9E5F6E0E491E3309B
:1008500029F140F4E130B1F0E230D9F0C038D105EF
:100860008CF7E7CFE73021F1E83051F1E430B1F710
:1008700080918000806280938000D0938B00C09331
:100880008A0004C084B5806884BDC7BDDF91CF9164
:10089000089584B5806284BDC8BDF8CF8091800082
:1008A000806880938000D0938900C0938800EECF49
:1008B0008091B00080688093B000C093B300E6CF11
:1008C0008091B00080628093B000C093B400DECF0E
:1008D0003FB7F89480910B0390910C03A0910D0306
:1008E000B0910E0326B5A89B05C02F3F19F00196C5
:1008F000A11DB11D3FBFBA2FA92F982F8827BC017A
:10090000CD01620F711D811D911D42E0660F771FA1
:10091000881F991F4A95D1F708958F929F92AF92A1
:10092000BF92CF92DF92EF92FF924B015C010E9447
:1009300068046B017C010E9468046C197D098E09B2
:100940009F09683E734081059105A8F321E0821A52
:100950009108A108B10888EEC80E83E0D81EE11CFA
:10096000F11C81149104A104B10429F7FF90EF90C8
:10097000DF90CF90BF90AF909F908F9008952FB74A
:10098000F894609107037091080380910903909196
:100990000A032FBF0895CF92DF92EF92FF920F9339
:1009A0001F930E94BF0400910F0310911003209128
:1009B0001103309112036B017C01C01AD10AE20AC3
:1009C000F30A970186010A3F110521053105C0F0A0
:1009D00060930F037093100380931103909312039D
:1009E00085E00E94880361E0892B09F060E085E0E2
:1009F0001F910F91FF90EF90DF90CF900C94B10377
:100A00001F910F91FF90EF90DF90CF900895089580
:100A10000895AF92BF92CF92DF92EF92FF920F9321
:100A20001F93CF93DF936C017B018B01040F151F84
:100A3000EB015E01AE18BF08C017D10759F06991EC
:100A4000D601ED91FC910190F081E02DC601099550
:100A5000892B79F7C501DF91CF911F910F91FF90FD
:100A6000EF90DF90CF90BF90AF90089508952091C0
:100A70007502260F3327331F21323105ECF4209104
:100A80009902FC0190E080E0243069F082E0089552
:100A9000A09175022191AC014B5A5D4FA40FB52F67
:100AA000B11D2C930196861798F380917502680FFB
:100AB0006093750280E0089581E008951092990294
:100AC00081E080939B0210929A0261E082E10E9491
:100AD000B10361E083E10E94B103E9EBF0E08081C2
:100AE0008E7F808380818D7F808388E48093B800AF
:100AF00085E48093BC000895CF93DF9391E09093B9
:100B0000CC028823B9F0C091B800D091BA0080918E
:100B1000BC008A7B8093BC0060E082E10E94B1034C
:100B200060E083E10E94B1030E945E05D093BA00A9
:100B3000C093B800DF91CF9108950895E091C60267
:100B40008091C502E81730F4F0E0EB5CFD4F808146
:100B500090E008958FEF9FEF08959091C6028091E5
:100B6000C5022FEF3FEF981748F4E92FF0E0EB5C58
:100B7000FD4F208130E09F5F9093C602C901089528
:100B80008091C5029091C602891B990B0895CF925E
:100B9000DF92EF92FF920F931F93CF93DF937C012D
:100BA000CB018A0120913402222389F0EB016B01F1
:100BB000C40ED51ECC15DD0569F06991D701ED9104
:100BC000FC910190F081E02DC7010995F3CF642FCE
:100BD0000E943705C801DF91CF911F910F91FF90BF
:100BE000EF90DF90CF900895CF93DF931F92CDB712
:100BF000DEB76983209134022223F9F02091C302E9
:100C0000203258F021E030E0FC013383228390E071
:100C100080E00F90DF91CF9108958091C402E82F7A
:100C2000F0E0EC5EFD4F998190838F5F8093C4026A
:100C30008093C30281E090E0ECCF61E0CE010196A9
:100C40000E943705F7CF90E080E0089520910601DB
:100C5000422F50E0FA01EA51FE4F208130E0220F8E
:100C6000331F240F351F96E0929FA001939F500DD4
:100C7000112490E080589F4F840F951F880F991F73
:100C8000880F991F08950F931F93182F0E94BF0478
:100C9000112371F01092DE021092B8011092B90186
:100CA0001092BA011092BB011092B70180E02DC0E2
:100CB0002091DE023091F002332351F121110CC05A
:100CC00021E02093DE026093B8017093B901809314
:100CD000BA019093BB01E8CF2091B7012111E6CF73
:100CE0000091B8011091B9012091BA013091BB0176
:100CF000601B710B820B930B603273408105910571
:100D0000A8F281E08093B70182E01F910F910895CE
:100D1000222361F28091B7011092DE021092B80195
:100D20001092B9011092BA011092BB011092B70152
:100D300091E08927EACFCF92DF92EF92FF92CF9393
:100D4000DF930E94BF046B017C0182E00E94880354
:100D5000C1E0892B09F0C0E0C093F10283E00E945A
:100D60008803D1E0892B09F0D0E0D093F00284E031
:100D70000E94880321E0892B09F020E02093EF02F4
:100D8000CD0FC20FC23018F081E080938E018091A8
:100D90008E018823F9F01092EF021092F002109267
:100DA000F1021092ED021092DE021092EE02C111D9
:100DB0000AC010928E01C0928A01D0928B01E092FB
:100DC0008C01F0928D01DF91CF91FF90EF90DF9039
:100DD000CF90089580918A0190918B01A0918C0110
:100DE000B0918D01C81AD90AEA0AFB0A82E3C81633
:100DF000D104E104F10438F71092EF021092F002EE
:100E00001092F1021092ED021092DE021092EE02A8
:100E1000DACFE0910601E23028F4F0E0E45FFE4F23
:100E20008081089582E00895E091060184E0E89FC2
:100E3000F0011124E15AFE4F60817181828193811A
:100E400023E0660F771F881F991F2A95D1F739E095
:100E500096958795779567953A95D1F708958F92EE
:100E60009F92AF92BF92CF92DF92EF92FF92CF9379
:100E70000E940907C09107018C1708F4C82F80E46D
:100E8000C82E82E4D82E8FE0E82EF12C9AE0892E2D
:100E9000912CA12CB12CCC2351F0C701B601A50196
:100EA00094010E94632D69017A01C150F4CF0E9420
:100EB00014074B015C016C0D7D1D8E1D9F1D615043
:100EC000710981099109A50194010E94632DC22F26
:100ED000AC2FB0E0A50194010E948B2DA7019601D3
:100EE0000E94632D672B682B692B11F0CF5FF0CF29
:100EF0008C2FCF91FF90EF90DF90CF90BF90AF906D
:100F00009F908F9008958F929F92AF92BF92CF92B1
:100F1000DF92EF92FF920F931F93CF93DF93082FEF
:100F20005B01142FE9010E94BF046B017C01F501F4
:100F3000002309F4A8C08081811121C0C092C001A2
:100F4000D092C101E092C201F092C301C092BC01F3
:100F5000D092BD01E092BE01F092BF0181E080839A
:100F6000812FFE01DF91CF911F910F91FF90EF90A4
:100F7000DF90CF90BF90AF909F908F900994809119
:100F8000C0019091C101A091C201B091C30146017D
:100F90005701881A990AAA0ABB0A80910303882379
:100FA00009F455C0F8EE8F16F3E09F06A104B104D2
:100FB00008F440C00E942F07082F0E9414079B01CD
:100FC000AC01A8EEB3E00E948B2D9B01AC01A02FD9
:100FD000B0E00E948B2D24EF31E040E050E00E9411
:100FE000632D8CE2881A81E0980AA108B108CA0131
:100FF000B901A50194010E94632D8091BC019091DB
:10100000BD01A091BE01B091BF0146015701881AF0
:10101000990AAA0ABB0AD501C40182179307A4073B
:10102000B50740F02091FB02309105033323D9F03E
:1010300021111BC0DF91CF911F910F91FF90EF9075
:10104000DF90CF90BF90AF909F908F900895E8EE83
:101050008E16E3E09E06A104B10460F320E530E0C3
:1010600040E050E0CACF222329F0883C9105A10539
:10107000B10500F3C092BC01D092BD01E092BE0167
:10108000F092BF016DCF1082D5CF4F925F926F92D9
:101090007F928F929F92AF92BF92CF92DF92EF9208
:1010A000FF92CF93DF932B013C01D42FC22F0E94DC
:1010B00014074B015C017C016B01481459046A045C
:1010C0007B0478F0AFEFBFE7AC019B010E948B2D52
:1010D0006B017C014C145D046E047F0410F47301F9
:1010E000620161E070E080E090E0DD2331F00E9479
:1010F0002F07682F70E090E080E0A50194010E9426
:101100003F2D4B015C01C13011F581E0C81AD108B7
:10111000E108F108C701B601680D791D8A1D9B1D04
:10112000A50194010E94632DC501B4010E943F2DC9
:10113000DF91CF91FF90EF90DF90CF90BF90AF9075
:101140009F908F907F906F905F904F900895C70110
:10115000B601CF3F29F3C501B401969587957795E0
:1011600067956C0D7D1D8E1D9F1DDACF20910A02A3
:10117000E4E0F1E0222331F0E2E0F1E0213011F48B
:10118000E3E0F1E039E048E057E090818F3F11F56E
:101190009830C9F4508390819830A0F4222331F024
:1011A00060910401961761F0213031F060910301E4
:1011B000961731F0223031F060910201961302C08F
:1011C000315019F70895911102C04083E4CF915036
:1011D0009083E1CF983011F41082DDCF9730A9F3DE
:1011E0009F5FF6CF8F929F92AF92BF920F931F9304
:1011F000CF93DF93CDB7DEB7A1970FB6F894DEBFDC
:101200000FBECDBF19A2423008F44AE08E010F5D37
:101210001F4F842E912CB12CA12CA50194010E946A
:10122000632DE62FB901CA01EA3044F5E05DD8012B
:10123000EE938D01232B242B252B79F790E080E072
:10124000109769F0FD0101900020E9F73197AF0197
:101250004A1B5B0BBD0180E293E00E940905A19649
:101260000FB6F894DEBF0FBECDBFDF91CF911F91B7
:101270000F91BF90AF909F908F900895E95CD7CF6A
:10128000FC0101900020E9F73197AF01481B590B91
:10129000BC0180E293E00C940905EF92FF920F935A
:1012A0001F93CF93DF937C018C01CAE0D0E0CE0185
:1012B0000E94292DF80181938F012196CB31D10510
:1012C000B1F7C701DF91CF911F910F91FF90EF9080
:1012D0000895CF92DF92EF92FF920F931F93CF93D7
:1012E000DF93EB017B0124E0E20EF11C8B016C012A
:1012F000C61AD70AC601800F911F0E94292DF80136
:1013000081938F01EE15FF05A9F7CE01DF91CF91F3
:101310001F910F91FF90EF90DF90CF900895CF92A3
:10132000DF92EF92FF920F931F93CF93DF9386305C
:1013300010F020E04AC0EB010E942606BE010E9488
:101340006909C880D980EA80FB808FEFC816D8066B
:10135000E806F80671F3E0910601F0E0EA51FE4F6D
:10136000C08188E0C89FE0011124C95DDE4F8881FB
:101370009981AA81BB81C816D906EA06FB06C8F284
:101380000E9414079B01AC01AFEFBFE70E948B2DB9
:101390000C811D812E813F816017710782079307A1
:1013A00010F48B019C010C151D052E053F0508F25C
:1013B00020E040E0C701B6010E94450821E0C616C2
:1013C000D706E806F90609F0B4CF822FDF91CF9156
:1013D0001F910F91FF90EF90DF90CF9008950C94A4
:1013E000292D2F923F924F925F926F927F928F9210
:1013F0009F92AF92BF92CF92DF92EF92FF920F93A4
:101400001F93CF93DF93CDB7DEB72A970FB6F8942B
:10141000DEBF0FBECDBF8CE390E00E94EF098730A6
:1014200008F082E08093E6018DE390E00E94EF09EE
:10143000873008F082E08093E70180910601898778
:10144000882E912CF401EA51FE4F90819A87A92EA3
:10145000B12C850143E0000F111F4A95E1F7095DAA
:101460001E4FD8018D919D910D90BC91A02D8D8323
:101470009E83AF83B88721E041E0BC01CD010E948B
:1014800045086B017C01C0920C02D0920D02E092E3
:101490000E02F0920F02F80144805580668077803A
:1014A0002FEF41E0C301B2010E9445081B018C01EE
:1014B0006093100230921102809312021093130273
:1014C000FA85F73008F075C08985823008F071C060
:1014D000C501880F991F880D991D880F991F880FC6
:1014E000991FBE016F5F7F4F865A9F4F0E94690907
:1014F00089809A80AB80BC808D819E81AF81B885C8
:1015000088169906AA06BB0698F10E9414079B014B
:10151000AC01AFEFBFE70E948B2D46165706680659
:10152000790610F4C301B201681579058A059B0597
:10153000F8F020E040E0C501B4010E9445086815BC
:1015400079058A059B05A1F420E041E0C501B401BD
:101550000E9445086C157D058E059F0548F06101C8
:1015600078016C157D058E059F0510F46B017C01DB
:10157000C092E402D092E502E092E602F092E70225
:101580002A960FB6F894DEBF0FBECDBFDF91CF9184
:101590001F910F91FF90EF90DF90CF90BF90AF9091
:1015A0009F908F907F906F905F904F903F902F9083
:1015B00008958D819E81AF81B885892B8A2B8B2BD5
:1015C000B9F6812C912C5401B4CFCF93DF93EC0169
:1015D00060E08E810E94B10361E08E810E94B103C0
:1015E00060E08E810E94B1038BE891E00197F1F7F2
:1015F000DF91CF910895CF92DF92EF92FF920F93F8
:101600001F93CF93DF936C017C0187E0E80EF11C00
:10161000D0E0C0E0062F10E0B8010C2E02C0759596
:1016200067950A94E2F76170F70181917F010E944A
:10163000B1032196C430D10579F7C601DF91CF916E
:101640001F910F91FF90EF90DF90CF900C94E50ADF
:10165000CF92DF92EF92FF920F931F93CF93DF937E
:10166000EC01F62E642F8C810E94B1038D818F3F97
:1016700019F060E00E94B1030F2D10E08F8584FF08
:1016800025C06E0187E0C80ED11CF12CE12CB801F9
:101690000E2C02C0759567950A94E2F76170F60109
:1016A00081916F010E94B103FFEFEF1AFF0A88E0FA
:1016B000E816F10461F7CE01DF91CF911F910F91F0
:1016C000FF90EF90DF90CF900C94E50AB80184E092
:1016D000759567958A95E1F7CE010E94FB0A6F2DFB
:1016E000CE01DF91CF911F910F91FF90EF90DF908E
:1016F000CF900C94FB0A40E0682F80E293E00C94BA
:10170000280B81E00E947B0B8BE39FE10197F1F7AF
:101710000895CF93DF93823029F490912F0398603E
:1017200090932F03809333031092340380E48093CB
:10173000350380E18093360380E58093370361E0D1
:10174000809124030E94DF03809125038F3F19F0CD
:1017500061E00E94DF0361E0809126030E94DF03C5
:10176000C0E2D3E09E012052334080912F0384FDDC
:101770000BC084E090E021962817390744F461E01B
:101780008E810E94DF03EECF88E090E0F4CF8BE300
:101790009DE00197F1F760E0809124030E94B1037E
:1017A00060E0809126030E94B103809125038F3F62
:1017B00019F060E00E94B10380912F0384FD34C0D2
:1017C00063E080E293E00E94FB0ACBE4D6E4CE0122
:1017D0000197F1F763E080E293E00E94FB0A219712
:1017E000F1F763E080E293E00E94FB0A83E592E078
:1017F0000197F1F762E080E293E00E94FB0A80919A
:101800002F0380620E947B0B84E0809330038CE086
:101810000E947B0B0E94810B82E08093310386E063
:10182000DF91CF910C947B0B80620E947B0B8BE449
:1018300096E40197F1F780912F0380620E947B0B61
:1018400083E592E00197F1F780912F0380620E9477
:101850007B0BD5CF90913303691710F06FEF690FB1
:10186000E62FF0E0E05EFC4F9489890F80680C94CD
:101870007B0BCF93DF93EB01682F80E00E942A0C53
:10188000CE01DF91CF910C94400941E00E94280BDA
:1018900081E090E008950F931F93CF93DF938C0125
:1018A000D0E0C0E0F801EC0FFD1F6491662339F031
:1018B00041E080E293E00E94280B2196F3CFCE0115
:1018C000DF91CF911F910F910895462F682F70E0FF
:1018D00090E080E00C94F208BC01990F880B990B02
:1018E0004AE00C94F20885ED8093BC008091C80218
:1018F0009091C902A091CA02B091CB020796A11D96
:10190000B11D23E0B695A795979587952A95D1F7B0
:101910002091BC0024FD03C01092990208954091CB
:10192000C8025091C9026091CA027091CB02452B46
:10193000462B472B69F30097A105B10541F02AE238
:101940002A95F1F700C00197A109B109E1CF809173
:10195000C7020C947C05FF920F931F93CF93DF93E4
:10196000EC018B01F42E40E150E060E270E00E9457
:10197000D82D188AC8010E94EE2C813108F080E130
:10198000482F50E080E0FF2031F080E190E0841BA0
:10199000950B95958795B8018C0F9D2F911DDF9123
:1019A000CF911F910F91FF900C94E52C3F924F9295
:1019B0005F926F927F928F929F92AF92BF92CF92DF
:1019C000DF92EF92FF920F931F93CF93DF93EC017F
:1019D0002A013B01322E10E030E4832E32E4932EB4
:1019E0003FE0A32EB12CC12CD12C7601C39410174B
:1019F000A1F0AAE0B0E0A70196010E948B2D6B0137
:101A00007C01C501B4012AE030E040E050E00E94D2
:101A1000632D49015A011F5FEACFC501B4019695B4
:101A2000879577956795640D751D861D971DA50192
:101A300094010E94632DCA01B901A70196010E9479
:101A4000632D29013A014B015C012AE0AE01C3017B
:101A5000B2010E94F72CFE0101900020E9F73197B6
:101A6000EC1BFD0B1123B1F18E010E0F1F1F8EE237
:101A7000F80181938F01C701B6012AE030E040E010
:101A800050E00E94632D69017A018AE0482E512CB2
:101A9000612C712CC114D104E104F104C9F0C50119
:101AA000B401A70196010E94632DCA01B901A301E7
:101AB00092010E94632D605DF80161938F01C7015F
:101AC000B601A30192010E94632D69017A01E2CF60
:101AD000F8011082332071F1FE0101900020E9F736
:101AE0003197EC1BFD0BE83028F5FF2708E010E0EC
:101AF0000E1B1F0BAF014F5F5F4FBE01CE01800F6A
:101B0000911F0E94C62DA80160E270E0CE01DF9116
:101B1000CF911F910F91FF90EF90DF90CF90BF90EA
:101B2000AF909F908F907F906F905F904F903F907D
:101B30000C94D82DDF91CF911F910F91FF90EF90D2
:101B4000DF90CF90BF90AF909F908F907F906F90DD
:101B50005F904F903F9008959F92AF92BF92CF9227
:101B6000DF92EF92FF920F931F93CF93DF93CDB746
:101B7000DEB729970FB6F894DEBF0FBECDBF982E03
:101B8000590168010091070121E0CE0101967C0115
:101B90000E94D60CF70101900020E9F731978F01E0
:101BA0000E191F09C6010E94EE2C800F10E1181BB0
:101BB000A114B10439F0692D80E00E942A0CC501FE
:101BC0000E944B0C692D812F0E942A0CC7010E9494
:101BD0004009C6010E944B0C29960FB6F894DEBF4F
:101BE0000FBECDBFDF91CF911F910F91FF90EF906E
:101BF000DF90CF90BF90AF909F9008954F925F92EB
:101C00006F927F928F929F92AF92BF92CF92DF920C
:101C1000EF92FF920F931F93CF93DF93CDB7DEB771
:101C2000E3970FB6F894DEBF0FBECDBF182F062F77
:101C3000F090F202FF2009F440C088EF810F82305B
:101C400008F43DC080910503882309F477C0809192
:101C5000FD028450823008F071C0133081F11630DB
:101C600009F06CC0809107028823A1F080913003B5
:101C70008D7F8093300388600E947B0B109203025B
:101C800010920402109205021092060210920702AE
:101C9000109202021150193008F03EC0E12FF0E01E
:101CA000EC5AF14F0C94852DB50EF10E0C0F630E0E
:101CB000AB140B15DE15EC156E14863099F21092EC
:101CC0000802143079F6002309F413C661E080E0BD
:101CD0000E942A0C85ED91E00E94400961E080910C
:101CE000D4010E942A0C0E94BF04609303027093E7
:101CF0000402809305029093060281E0809307021C
:101D00008093020280913003982F92609093300369
:101D10008A600E947B0B12C00E94810B60E081E010
:101D20000E942A0C80EE95E00E944B0C61E085E059
:101D30000E942A0C89ED95E00E944B0CE3960FB6A9
:101D4000F894DEBF0FBECDBFDF91CF911F910F91F1
:101D5000FF90EF90DF90CF90BF90AF909F908F90CB
:101D60007F906F905F904F9008954091E402509162
:101D7000E5026091E6027091E70204ED15E030E0C3
:101D800020E080E00E94AC0D61E080E00E942A0C1F
:101D900080910901811120C00E94BF0428EE33E028
:101DA00040E050E00E94632D20FF16C040E150E06B
:101DB00060E270E0CE0101960E94D82D198ABE0122
:101DC0006F5F7F4F81E00E94390C61E080E00E94EC
:101DD0002A0C86EC95E0B0CF81EF91E00E9440099B
:101DE000ADCF80910303811107C061E00E942A0CEE
:101DF00081EC95E00E944B0C4091E4025091E50289
:101E00006091E6027091E7020CEB15E030E020E013
:101E100081E00E94AC0D92CF01110E94810B60E025
:101E200080E00E942A0C8091FA02882309F160E088
:101E300080E00E942A0C82EB95E00E944B0C61E04E
:101E400080E00E942A0C8FEA95E00E944B0C809162
:101E5000FC02813051F030F0823009F06FCF83E91D
:101E600095E06ACF82EA95E067CF8AE995E064CF92
:101E70008091FD028630F1F51091FC02123031F1B3
:101E8000C0F4112301F189E795E01130C9F061E058
:101E900080E00E942A0C8AE395E0133039F0145058
:101EA0008BE295E0123010F08DE195E00E944B0C32
:101EB000DFC01430E1F068F088E495E0153039F7C0
:101EC0000E944B0CE4CF85E895E0FACF8CE695E0D4
:101ED000F7CF81E695E00E944B0C809109018823A1
:101EE00019F08EE595E0ECCF8AE595E0E9CF82E543
:101EF00095E0E6CF873009F0B0C0809109028130CB
:101F000009F44BC008F444C0823009F456C061E0C3
:101F100080E00E942A0C1091FC028EEE94E01630B4
:101F200029F21A8A1B8A1C8A1D8ABE016E5E7F4FA7
:101F3000812F0E948F09882309F47BC08A889B889F
:101F4000AC88BD880E940907082F10E0F0E4CF2E6E
:101F5000F2E4DF2EFFE0EF2EF12CAAE04A2E512C06
:101F6000612C712C011761F1C501B401A701960123
:101F70000E94632D672B682B692B11F1C701B601F5
:101F8000A30192010E94632D69017A011F5FEACFCC
:101F90008FE095E00E944B0CBACF4091E80250913F
:101FA000E9026091EA027091EB0204E015E029E099
:101FB00035E080E00E94AC0DAACF87EF94E0EACF35
:101FC00000910701011708F4012F20E0B501A401D9
:101FD000CE0101967C010E94D60CF70101900020F1
:101FE000E9F7EE19ED5FE03110F51FE01E1B8EEDF5
:101FF00094E0153010F482EE94E00E944B0C809136
:10200000FC0290E001960E946C0C8CEE94E00E9421
:102010004B0C61E0812F0E942A0C8AEE94E00E9412
:102020004B0CC7010E94400985EE94E03FCF10E0C1
:10203000E2CF8AED94E00E944B0C812F90E0019654
:102040000E946C0C88ED94E00E944B0C61E089E0EA
:102050000E942A0C80ED94E029CF81114BC0809121
:10206000FC02813031F1D0F0823071F18330B9F16E
:102070008091F202882309F461CE8091FD028530BF
:1020800009F05CCE8091FC02853009F457CE60E007
:102090008FE00E942A0C85EF90E04ECE83EC94E016
:1020A0000E944B0C61E080E00E942A0C86EB94E0D9
:1020B000FDCE89EA94E00E944B0C61E080E00E9432
:1020C0002A0C8CE994E0F2CE8BE894E00E944B0C51
:1020D00061E080E00E942A0C8EE794E0E7CE84E77E
:1020E00094E00E944B0C61E080E00E942A0C85E69F
:1020F00094E0DCCE843009F06EC08091FC02823026
:10210000D9F1A0F4882311F1813009F0B1CF809189
:10211000F902882331F18CE394E00E944B0C61E0DA
:1021200080E00E942A0C8DE294E0C0CE833079F1E9
:10213000843009F09DCF88EB93E00E944B0C61E066
:1021400080E00E942A0C89EA93E0B0CE89E594E011
:102150000E944B0C61E080E00E942A0C8CE494E029
:10216000A5CE81E294E00E944B0C61E080E00E94E9
:102170002A0C85E194E09ACE88E094E00E944B0C12
:1021800061E080E00E942A0C89EF93E08FCE80917D
:10219000F8028823B9F089EE93E00E944B0C61E0CD
:1021A00080E00E942A0C8091F902882389F088ED52
:1021B00093E00E944B0C8091F702882331F084ED6C
:1021C00093E074CE8BED93E0E8CF80ED93E06ECE9C
:1021D00082EC93E06BCE853009F0C6C18091FC02A1
:1021E000823009F48CC000F5882349F1813009F070
:1021F0003FCF8EE793E00E944B0C61E080E00E94AD
:102200002A0C8091CF02882361F0F1100AC08091DE
:10221000CD02882309F44AC08091F0018A3008F485
:1022200045C081E793E042CE843009F489C108F4C7
:102230004CC1853009F01CCF0E948B2819CF8EE944
:1022400093E00E944B0C61E080E00E942A0C8AE936
:1022500093E00E944B0C8091CF028823F9F0F1109B
:102260001DC08091CD02882321F08091F0018A3039
:10227000A8F48091D00286FB882780F990E00E9424
:102280006C0C8EE893E00E944B0C8091CE02843659
:1022900050F46AE070E00E94650CEACE88E993E0B1
:1022A0000E944B0CEECF8AE893E000CE05E010E0F0
:1022B0008091D00290E0002E02C0959587950A94F7
:1022C000E2F7817099270E946C0C8EE693E00E94E1
:1022D0004B0C015011090230110551F78091D002C9
:1022E00090E0002E02C0959587950A94E2F78170E0
:1022F00099270E946C0C0150110980F7B9CE80918A
:10230000CD02882359F080E693E00E944B0C61E0F7
:1023100080E00E942A0C80E593E0C8CDF1100EC049
:10232000C090EC01D090ED01E090EE01F090EF0153
:10233000EFEFCE16DE06EE06FE0659F482E493E0D9
:102340000E944B0C61E080E00E942A0C88E393E03D
:10235000ADCD1091EA01002309F466C48AE293E04E
:102360000E944B0C61E080E00E942A0C80E293E026
:10237000111102C086E193E00E944B0C1093EB0117
:10238000112351F00E94BF042B013C014C185D0841
:102390006E087F087301620161E089E00E942A0CE7
:1023A00011112EC020E8C21626E9D20628E9E2065D
:1023B000F10408F07DC084E193E00E944B0C30EA08
:1023C000C31636E8D30631E0E306F10410F1C70185
:1023D000B60128EE33E040E050E00E94632DCA01D0
:1023E000B9014AE00E94F20885E093E00E944B0C9C
:1023F0008091EA01882309F45EC083E093E056CD22
:1024000050E4C51652E4D5065FE0E506F10408F095
:1024100046C0C701B60128EE33E040E050E00E941C
:10242000632D89019A014B015C014AE0C901B801A1
:102430000E94F20882E193E00E944B0CC501B401B6
:1024400024E630E040E050E00E94632DCA01B9016B
:102450004AE00E94F2088FE093E00E944B0C8091CA
:10246000EA0140E1C41647E2D406E104F10478F041
:10247000882309F4FDCD80EAC81686E8D80681E0F5
:10248000E806F10408F0F4CD88E093E00FCD88234E
:1024900019F08CE093E00ACD8AE093E007CD90E854
:1024A000C91696E9D90698E9E906F10408F48FCF30
:1024B0008BEF92E0FBCCE0E4CE16E2E4DE06EFE048
:1024C000EE06F10408F0D4CD98CF8091CD02882398
:1024D00059F08EEE92E00E944B0C61E080E00E9489
:1024E0002A0C8EED92E0E2CC82ED92E00E944B0C41
:1024F0001091E901103120F480ED92E00E944B0C24
:1025000060E170E0812F0E94650C61E080E00E9434
:102510002A0C88EC92E00E944B0C07E010E08091BE
:10252000E90190E0002E02C0959587950A94E2F7A4
:10253000817099270E946C0C0150110980F798CD89
:1025400089EB92E00E944B0C61E080E00E942A0C33
:1025500081EB92E00E944B0C8091E801843608F4F4
:1025600098CE8DEA92E0A2CC813009F067C08091CC
:10257000FC02813009F43FC020F0823009F45CCEC7
:1025800077CD8EE992E00E944B0C61E080E00E94E2
:102590002A0C8091F902882359F18BE992E00E947C
:1025A0004B0CE0910601F0E0EA51FE4F8081823051
:1025B000B1F038F4882369F0813071F087E692E059
:1025C00075CC843091F070F08530C1F783E792E0EC
:1025D0006DCC83E992E06ACC8AE892E067CC81E82E
:1025E00092E064CC8DE792E061CC87E792E05ECC2C
:1025F00089E592E05BCC8FE492E00E944B0C61E0B5
:1026000080E00E942A0C8091F9028823A1F08CE4DA
:1026100092E00E944B0C6AE070E0809107010E94FA
:10262000650C80910701813019F483E492E03ECC7F
:1026300089E392E03BCC8BE292E038CC823009F027
:10264000FAC08091FC02823009F47DC008F055C0C8
:10265000882309F459C0813009F00ACD8DEF91E04B
:102660000E944B0C61E080E00E942A0C8091F902EC
:10267000882309F465C08AEF91E00E944B0CE09139
:10268000060124E0E29FF0011124E15AFE4F60812F
:10269000718182819381E0E4CE2EE2E4DE2EEFE0D0
:1026A000EE2EF12CA70196010E94632DCA01B901FB
:1026B0004AE00E94F20888EF91E00E944B0CE09102
:1026C000060134E0E39FF0011124E15AFE4F6081DE
:1026D000718182819381A70196010E94632D20EA76
:1026E00036E841E050E00E94632DCA01B9014AE09A
:1026F0000E94F20883EF91E0D9CB833009F445C002
:10270000843009F499CDB4CC8FE192E00E944B0C57
:1027100061E080E00E942A0C8091F902882369F030
:102720008AE192E00E944B0CE0911F03F0E0E9592E
:10273000FE4F60E170E08081AECD8CE092E0B6CBE0
:1027400085EE91E0B3CB89ED91E00E944B0C61E006
:1027500080E00E942A0C8091F902882399F086ED8E
:1027600091E00E944B0C80910501882329F0813073
:1027700031F483EC91E09ACB81ED91E097CB88EC3A
:1027800091E094CB85EB91E091CB88EA91E00E94B7
:102790004B0C61E080E00E942A0C8091F9028823B2
:1027A00009F446C085EA91E00E944B0C80910A0230
:1027B000811114C08CE991E00E944B0C80910401BE
:1027C000883048F48AE991E00E944B0C6AE070E09E
:1027D0008091040160CD85E991E068CB8130A1F45E
:1027E0008AE891E00E944B0C80910301883048F404
:1027F00088E891E00E944B0C6AE070E08091030150
:102800004ACD83E891E052CB88E791E00E944B0CDF
:1028100080910201883048F486E791E00E944B0CD9
:102820006AE070E08091020136CD81E791E03ECB15
:1028300083E691E03BCB833009F01ACC8091FC0217
:10284000813091F030F0823061F1833009F4F4CCC2
:102850000FCC86E591E00E944B0C61E080E00E9485
:102860002A0C8AE491E022CB89E391E00E944B0C90
:1028700061E080E00E942A0C8091F902882371F0C7
:1028800086E391E00E944B0C80910801882319F0A7
:1028900082E391E00BCB8EE291E008CB80E291E005
:1028A00005CB80E191E00E944B0C61E080E00E944A
:1028B0002A0C8091F902882371F08DE091E00E944A
:1028C0004B0C80910101882319F089E091E0EECA58
:1028D00085E091E0EBCA87EF90E0E8CA60E08FE026
:1028E0000E942A0C83EF90E0011126CA81EF90E04C
:1028F00023CA80910702882309F420CA0E94BF04DA
:102900000091030210910402209105023091060209
:10291000601B710B820B930B60397140810591052F
:1029200008F40CCA0E94BF0460930302709304026F
:1029300080930502909306029091020281E098270D
:1029400090930202809130039111DEC98D7F8093B4
:1029500030038860DEC960E080E00E942A0C80912C
:10296000D502882319F08BEE90E0E6C90E94BF04DF
:102970000091D0011091D1012091D2013091D30169
:102980002B013C01401A510A620A730A9301820129
:102990000A3F11052105310508F4D0C96093D00123
:1029A0007093D1018093D2019093D30189EE90E08E
:1029B0000E944B0C89EE90E00E944B0C89EE90E057
:1029C0000E944B0C89EE90E00E944B0C89EE90E047
:1029D0000E944B0C1091CF0160E0812F0E942A0CC5
:1029E0000091000186EE90E0011102C083EE90E0BC
:1029F0000E944B0C81E0011101C08FEF810F809389
:102A0000CF01882319F0833009F098C981E00827A5
:102A10000093000193C98091010181110AC01092B5
:102A20000802002309F48AC961E083E00E94FE0DD8
:102A300085C9011105C080910802882309F47EC967
:102A40008091FD0226EDE22E20E0F22E33EBC32E24
:102A500030E0D32E843091F04AECE42E40E0F42EA6
:102A600056EAC52E50E0D52E863040F08FEBE82E8A
:102A700080E0F82E98E9C92E90E0D92E0E94BF047C
:102A80004B015C010023D1F041E0B701CE0101967A
:102A90000E94AB0C0E94810BBE016F5F7F4F80E0F4
:102AA0000E94390C8092CB019092CC01A092CD0172
:102AB000B092CE0181E08093080240C910910802D3
:102AC00088EE93E0A0E0B0E0113021F086E490E0E1
:102AD000A0E0B0E04091CB015091CC016091CD01DC
:102AE0007091CE0124013501441A550A660A770A0D
:102AF000B301A201481759076A077B0708F41EC9EA
:102B00008092CB019092CC01A092CD01B092CE01E7
:102B10001C3058F0109208028092F3029092F40256
:102B2000A092F502B092F6027FCF81E0810F8093F0
:102B3000080241E0B701CE0183960E94AB0C7E01F2
:102B400022E1E20EF11C40E0B601C7010E94AB0C8D
:102B500081E1FE01B396BE016F5F7F4FDB01019003
:102B60000D928A95E1F7912F193008F098E09B01BA
:102B7000FB01DB0180E231974A2F461B491718F40D
:102B80008D93808BF8CF1430A8F01350DB01C70170
:102B90006701F60141916F01F90141939F01FC0129
:102BA00047851F964C931F97019711974C2D4E19EF
:102BB000411778F380E00E94390CC0C8809102036D
:102BC000882319F00E94810BB9C861E081E00E945E
:102BD000FE0D61E085E02ACF8FEF90E00E941004A7
:102BE0000E94810B1091CA018BE890E0111102C084
:102BF00081E890E00E944B0C61E080E00E942A0C8A
:102C0000112379F084E790E00E944B0CE0910B01D6
:102C1000F0E0E959FE4F60E170E080810E94650CB0
:102C20008DC888E690E088C88091EB0181139ACB2B
:102C3000A7CB4F925F926F927F928F929F92AF92AB
:102C4000BF92CF92DF92EF92FF92CF93DF9300D0AB
:102C500000D000D0CDB7DEB78D83C0901002D090E9
:102C60001102E0901202F090130280900C029090FA
:102C70000D02A0900E02B0900F02809103038823F2
:102C8000C9F14090E4025090E5026090E602709035
:102C9000E7020E942F078E830E9414079B01AC015C
:102CA000D701C60188199909AA09BB0989839A83A2
:102CB000AB83BC839E81A92FB0E00E948B2D29811C
:102CC0003A814B815C81261737074807590710F472
:102CD000CA01B9013D8113160CF044C0460E571EBF
:102CE000681E791E4092E4025092E5026092E6026C
:102CF0007092E7028091E4029091E502A091E602D1
:102D0000B091E70288159905AA05BB0580F1C816A0
:102D1000D906EA06FB0610F4D501C4018093E4024B
:102D20009093E502A093E602B093E70261E082E0AF
:102D30000E94FE0D81E08093030326960FB6F8945F
:102D4000DEBF0FBECDBFDF91CF91FF90EF90DF9040
:102D5000CF90BF90AF909F908F907F906F905F903B
:102D60004F900895461A570A680A790ABBCFD701CF
:102D7000C601D4CF0C9419168091CD02882339F066
:102D80001092CD028091F0028093EC02089510928F
:102D900005031092F9021092FA021092FB021092AF
:102DA000FD021092FC02109209020E94BF0460937F
:102DB000E0027093E1028093E2029093E30281E0EB
:102DC0008093EC028091F20261E0882319F088E0A0
:102DD0000C94FE0D81E00E94FE0D61E085E0F8CFCD
:102DE0002091FB02211133C02091F902222361F0CE
:102DF0001092F90210920A021092F7021092F80251
:102E000061E083E00C94FE0D2091FA02222341F050
:102E10001092FA021092FD0283E08093FC02F0CF40
:102E20002091FD0221110EC0DC01ED91FC91808109
:102E3000811102C00C94BC1681E08093FA021092BA
:102E4000FC02DECF1092FD0280910B02E6CF0895C6
:102E50008091FD02873059F486E08093FD028091D5
:102E600009028093FC0261E083E00C94FE0D0C9457
:102E7000BC1681E08093010161E083E00C94FE0DBB
:102E80001092010161E083E00C94FE0D81E08093DB
:102E9000080161E083E00C94FE0D1092080161E0EE
:102EA00083E00C94FE0D81E00E94B60861E083E0AF
:102EB0000C94FE0D8FEF0E94B60861E083E00C9445
:102EC000FE0D80910501813031F41092050161E021
:102ED00083E00C94FE0D8111FACF82E0809305010E
:102EE000F6CF80910501823031F41092050161E046
:102EF00083E00C94FE0D8111FACF81E080930501EF
:102F0000F6CF80910601811103C081E08093060114
:102F10000E9409078093070161E083E00C94FE0D95
:102F200080910601882319F08150809306010E9448
:102F300009078093070161E083E00C94FE0D809106
:102F40001F03833018F48F5F80931F0361E083E0D9
:102F50000C94FE0D80911F03882319F081508093FB
:102F60001F0361E083E00C94FE0D0E94090790911D
:102F70000701981718F49F5F9093070161E083E0C1
:102F80000C94FE0D80910701882319F081508093E5
:102F9000070161E083E00C94FE0DE0910601F0E092
:102FA000EA51FE4F8081863030F48F5F808361E08C
:102FB00083E00C94FE0D80E0F9CFE0910601F0E093
:102FC000EA51FE4F8081882331F08150808361E097
:102FD00083E00C94FE0D86E0F9CF8091FC028230F4
:102FE00038F48F5F8093FC0261E083E00C94FE0D67
:102FF00008958091FC02882339F081508093FC026F
:1030000061E083E00C94FE0D0895E091FD02809153
:10301000FC02E73059F4863010F48F5F01C080E085
:103020008093FC0261E083E00C94FE0DF0E0E15E31
:10303000FE4F20812150330B8217130674F308953D
:103040008091FC029091FD02973059F4882311F091
:10305000815001C086E08093FC0261E083E00C9423
:10306000FE0D8111F5CF089581E08093F70261E0B4
:1030700083E00C94FE0D1092F70261E083E00C9463
:10308000FE0DCF92DF92EF92FF92CF938823F9F05B
:10309000E091D401F0E0EB52FE4F8081082E000C4D
:1030A000990B8097860F911D67FD9A95815A9F4FC6
:1030B0006FE570E00E944F2D805E808361E084E0C8
:1030C000CF91FF90EF90DF90CF900C94FE0DC42F26
:1030D0000E94BF046B017C01C11104C08091D40126
:1030E0008F3048F11092FB021092D4011092F90235
:1030F0001092FA021092E50140E150E065ED71E0B6
:1031000081EF91E00E94ED2D1092010261E083E0D9
:103110000E94FE0DC092E002D092E102E092E20233
:10312000F092E30281E08093EC02CF91FF90EF9068
:10313000DF90CF9008958F5F8093D401BFCF40E0A0
:10314000682F81E00C944118CF93DF9386E490E0E0
:103150000E94EF09811181E08093060188E290E0EE
:103160000E94EF09C82F0E9409079C2F8C1708F4B2
:10317000982F909307010E94F10980E590E00E944A
:10318000EF09843008F081E080930B0182E390E046
:103190000E94EF09833008F081E08093050186E505
:1031A00090E00E94EF09C82F87E590E00E94EF09A8
:1031B000D82F88E590E00E94EF09CF3F09F04AC080
:1031C000DF3F09F049C08F3F09F046C085E080939A
:1031D000040186E08093030182E08093020181EF85
:1031E00091E00E944D099091010210920102E1EFDD
:1031F000F1E0819180528F3530F482E0E130F807C0
:10320000C1F7992381F040E150E06EE071E081EF79
:1032100091E00E94ED2D44E050E060E270E08DEF1F
:1032200091E00E94D82D8EE190E00E94EF0991E09C
:10323000811101C090E09093080183E290E00E9428
:10324000EF0991E0811101C090E090930101DF91BD
:10325000CF910895C83008F0C8E0C0930401D83079
:1032600008F0D8E0D0930301883008F088E080931C
:103270000201D83029F0CD1303C098E090930301E8
:10328000883009F4ACCFC81721F09091030189135D
:10329000A6CF88E0A2CF0E94A41880910B01809352
:1032A0001F0340E150E061EF71E085ED91E00E9485
:1032B000ED2D1092E5016091E4027091E50280919C
:1032C000E6029091E70220E041E00E944508609309
:1032D000E4027093E5028093E6029093E702109275
:1032E000FB021092FA021092F9021092050310925A
:1032F000F7021092F8021092FD020E94BF04609340
:10330000E0027093E1028093E2029093E30281E095
:103310008093EC0261E00E94FE0D61E085E00C9478
:10332000FE0D2F923F924F925F926F927F928F92FB
:103330009F92AF92BF92CF92DF92EF92FF920F9344
:103340001F93CF93DF9300D000D01F92CDB7DEB78D
:10335000D82EF62EE42EC52E2C83011180C08AE0D3
:103360008D83EF2DEE0FE98311E022242A9485EE60
:10337000482E95EC592EFC816F2E712CF150FB8359
:10338000DD2009F4F0C00E9468044B015C018091CB
:103390009902811167C01093990210939B022092A9
:1033A00098021092BD028B818093BC021093BE02E2
:1033B0008091BE029981892B8093BE0280919A02EE
:1033C000813009F0A1C010929A020E9468044B015A
:1033D0005C018091BE028093BB008091C8029091F5
:1033E000C902A091CA02B091CB02892B8A2B8B2BE8
:1033F000A1F00E9468042091C8023091C902409156
:10340000CA025091CB02681979098A099B092617CB
:1034100037074807590708F446C08091BC0083FD70
:10342000D8CF5092BC000E9468044B015C0180918F
:103430009902813009F46BC08091BD02EC818E1736
:1034400008F087C08091BD02ECE9F2E0A5E3B2E0AC
:1034500090E0981769F121912D939F5FFACF91E049
:103460009D837FCF8091C8029091C902A091CA022A
:10347000B091CB02892B8A2B8B2B09F488CF0E9429
:1034800068042091C8023091C9024091CA0250914B
:10349000CB02681979098A099B092617370748075B
:1034A000590708F074CF8091C7020E947C0580E024
:1034B0001092C6028093C502FC81F8130FC1E98205
:1034C0000E2D1C2D802F9981891BEC818E1708F4FD
:1034D00042C0F1E0F98389810F900F900F900F9017
:1034E0000F90DF91CF911F910F91FF90EF90DF90A0
:1034F000CF90BF90AF909F908F907F906F905F9094
:103500004F903F902F9008954092BC008CCF8091B7
:10351000C8029091C902A091CA02B091CB02892B36
:103520008A2B8B2B09F483CF0E9468042091C80258
:103530003091C9024091CA025091CB0268197909B1
:103540008A099B09261737074807590708F06FCFE4
:10355000AACF8C8179CF83E193E00E94AD05F80179
:1035600081938F01AFCF10933402F092C901109272
:10357000C4021092C302FC81FF2339F0A3016E2D17
:103580007C2D83E193E00E94C7053090C30280E266
:10359000831508F4DEC09091C9019A830E946804E3
:1035A0004B015C0180919902811169C0E2E0E093D6
:1035B000990210939B02209298021092BD023092C1
:1035C000BC02E4E1F2E0ACE9B2E0381299C010923A
:1035D000BE029091BE028A81880F892B8093BE0221
:1035E00080919A02813009F08FC010929A020E9455
:1035F00068044B015C018091BE028093BB00809106
:10360000C8029091C902A091CA02B091CB02892B45
:103610008A2B8B2BA1F00E9468042091C802309164
:10362000C9024091CA025091CB02681979098A09EE
:103630009B09261737074807590708F441C08091AE
:10364000BC0083FDD8CF5092BC000E9468044B019F
:103650005C0180919902823009F459C080919802EE
:103660008F3F09F478C080919802803209F475C0C8
:1036700080919802803309F472C084E026C0809162
:10368000C8029091C902A091CA02B091CB02892BC5
:103690008A2B8B2B09F486CF0E9468042091C802E4
:1036A0003091C9024091CA025091CB026819790940
:1036B0008A099B09261737074807590708F072CF70
:1036C0008091C7020E947C0585E01092C40210928E
:1036D000C30210923402882309F4FBCE8D8181301D
:1036E00031F062E370E080E090E00E948D04FD81A3
:1036F000F150FD83F11144CE002399F11982EBCEF4
:1037000091919D938F5F61CF4092BC009ECF80913D
:10371000C8029091C902A091CA02B091CB02892B34
:103720008A2B8B2B09F495CF0E9468042091C80244
:103730003091C9024091CA025091CB0268197909AF
:103740008A099B09261737074807590708F081CFD0
:10375000B7CF81E0BACF80E0B8CF82E0B6CF83E0C8
:10376000B4CFE0910B01F0E0E959FE4F80818F1159
:10377000C5CF809105038983882359F18091FD028B
:103780001981853031F0843021F10E944B1910E00D
:103790001982D11020C09C819923E9F082E08093A6
:1037A000F2021092EA011092D50210920303E9810D
:1037B000E0930503109202031092DF0260E085E0BF
:1037C0000E94B1031123B1F061E083E00E94FE0D7D
:1037D00095CF10E0DECF81E08093F2028FEF9FEF74
:1037E000DC018093EC019093ED01A093EE01B09386
:1037F000EF01D9CFF981F11181CF61E088E00E941A
:10380000FE0D69CE0F93CF93DF9300D0CDB7DEB717
:10381000882369F09091D50220910401911109C08B
:1038200080E00F900F90DF91CF910F91089520913C
:103830000301909105019230A9F18823A9F19130FB
:1038400099F19EE8998390E0283028F491E001C036
:10385000990F2A95EAF79A83882381F080910201D3
:10386000883060F420910901222341F021E030E00A
:1038700001C0220F8A95EAF7922B9A83E0910B01FF
:10388000F0E0E959FE4F00E022E0AE014F5F5F4FEC
:10389000608180E00E949119882311F29A819093AF
:1038A000E901BFCF9FE8CECF9EECCCCFFF920F9324
:1038B0001F93CF93DF93EC01F62E08811981C80185
:1038C0000E94292DF81621F06F2DC8010E94312D7C
:1038D000CE01DF91CF911F910F91FF900895AF928C
:1038E000BF92CF92DF92EF92FF920F931F93CF93ED
:1038F000DF9300D0CDB7DEB78B016B0124E0C20EA1
:10390000D11C7B015C01A61AB70AC5018E0D9F1D53
:103910009A838983F70161917F01CE0101960E940C
:10392000561CEC14FD0489F7C8010F900F90DF912D
:10393000CF911F910F91FF90EF90DF90CF90BF90AC
:10394000AF900895CF92DF92EF92FF920F931F9363
:10395000CF93DF93CDB7DEB728970FB6F894DEBFCD
:103960000FBECDBF182F6091E4027091E5028091E7
:10397000E6029091E70220E041E00E9445086B01D9
:103980007C01C092E402D092E502E092E602F0925D
:10399000E7028091E8029091E902A091EA02B091D9
:1039A000EB02C816D906EA06FB0619F4112309F43E
:1039B0008CC00E9414079B01AC01C701B6010E9494
:1039C000632D3D832E8380910501823009F08CC0E8
:1039D0009EE881E0892B8F839091030180E09830ED
:1039E00028F481E001C0880F9A95EAF78887E09172
:1039F0000B01F0E0E959FE4F00E024E0AE014B5F1F
:103A00005F4F608180E00E949119882309F45DC0B6
:103A10000E94BF046F3F2FEF72078207920709F4DD
:103A200066C06093EC017093ED018093EE0190937A
:103A3000EF0188858093E9014091E4025091E5020D
:103A40006091E6027091E70280910601282F30E034
:103A5000F901EA51FE4F908149835A836B837C833D
:103A6000973000F58230F0F4C090E802D090E9027F
:103A7000E090EA02F090EB024C155D056E057F05C3
:103A800089F0892F90E0880F991F820F931F880F6C
:103A9000991F880F991FBE016F5F7F4F865A9F4FF6
:103AA0000E946F1C8091E4029091E502A091E602D1
:103AB000B091E7028093E8029093E902A093EA02B2
:103AC000B093EB0281E08093EA0128960FB6F89458
:103AD000DEBF0FBECDBFDF91CF911F910F91FF9041
:103AE000EF90DF90CF9008959EEC80E073CF8EEF43
:103AF0009FEFAFEFBFEF8093EC019093ED01A093A8
:103B0000EE01B093EF0195CF6F927F928F929F92CB
:103B1000AF92BF92CF92DF92EF92FF920F931F93DB
:103B2000CF93DF931F92CDB7DEB70E94BF046B0126
:103B30007C0110910503112349F08091FD02B12E03
:103B4000853029F011E0843009F010E0B12C80912B
:103B5000CD02882309F47BC0B11012C01092F0018D
:103B60000F90DF91CF911F910F91FF90EF90DF9019
:103B7000CF90BF90AF909F908F907F906F9008955F
:103B80008091C5019091C601A091C701B091C80173
:103B900036014701681A790A8A0A9B0AD401C301CF
:103BA000C297A105B105E0F2C092C501D092C6014D
:103BB000E092C701F092C801E0910B01F0E0E959F1
:103BC000FE4F01E021E0AE014F5F5F4F608181E079
:103BD0000E9491199091F001882351F19A3038F0A8
:103BE0008091E801843618F48F5F8093E80180911A
:103BF000CF02882351F0898187FF07C08091CE02D0
:103C0000843618F48F5F8093CE02992341F080911F
:103C1000FC02853021F060E089E00E94FE0D1092E8
:103C2000F00189818093D00281E08093CF0298CF08
:103C30009A3018F49F5F9093F0018091FC028530D8
:103C400009F48ECF61E089E00E94FE0D89CF0091DA
:103C5000F20201110E94CB048091F00181118FC00A
:103C60008091C40181118BC0011106C08091EA01CD
:103C7000811181C0B11083C080ED97E0A0E0B0E079
:103C80004091C5015091C6016091C7017091C80172
:103C900036014701641A750A860A970AB401A3011E
:103CA000481759076A077B0708F45ACFC092C50125
:103CB000D092C601E092C701F092C801E0910B01D9
:103CC000F0E0E959FE4F01E021E0AE014F5F5F4FA8
:103CD000608181E00E94911981115BC08091F001A7
:103CE0008F5F8093F0018A3008F43ACF1092C401BC
:103CF0001092F0018091F202811132CF8091030382
:103D0000882381F08091E8029091E902A091EA0273
:103D1000B091EB028093E4029093E502A093E60257
:103D2000B093E70280910503882321F0111102C0AE
:103D30000E944B1981E08093F2028FEF9FEFDC012C
:103D40008093EC019093ED01A093EE01B093EF010D
:103D50001092D502109203031093050310920203F0
:103D60001092DF0260E085E00E94B103BB2061F0A9
:103D700061E083E069CF80E090E0DC0181CF82E305
:103D800090E0A0E0B0E07CCF61E088E01111E8CEE7
:103D90005BCF1092F00189819091CF02992349F075
:103DA00087FF07C09091CE02943618F49F5F9093DE
:103DB000CE028093D00291E09093CF022091F20244
:103DC000213009F469C01092C401211102C087FF9B
:103DD000CAC080910303882381F08091E80290910A
:103DE000E902A091EA02B091EB028093E402909381
:103DF000E502A093E602B093E702809105038823D1
:103E000021F0111102C00E944B191092030310936C
:103E100005030091F2021092F2021092D50260E0C6
:103E200085E00E94B10360E085E00E94B1030230AA
:103E300019F0898187FF41C081E00E94A21C809116
:103E4000F20281118DCE002339F08091E801843691
:103E500018F48F5F8093E8016091D50285E00E949D
:103E6000B103112309F478C08091F1028093EE022E
:103E70008091EF028093ED028091F0028093EC023A
:103E800081E00E944306C092F302D092F402E092D5
:103E9000F502F092F6026CCF9091EA01911193CF66
:103EA000982F907C09F08FCF9091C4019F5F9093E1
:103EB000C4019A3008F454CE86CF86FB882780F957
:103EC0008093D5029091EA018917D9F08091D502AB
:103ED0009091EA0181111AC091110EC02FEFC21604
:103EE000D206E206F20699F1C092EC01D092ED0101
:103EF000E092EE01F092EF0191E089278093EA01D0
:103F0000A2CF0E94021C8111E1CF2ACE9923A1F3F6
:103F10004091EC015091ED016091EE017091EF0143
:103F20004F3F2FEF52076207720731F33601470107
:103F3000641A750A860A970AB401A3014093EC013A
:103F40005093ED016093EE017093EF01D5CF4EEFEA
:103F50005FEF6FEF7FEFF2CF61E081E00E94FE0D37
:103F600061E085E071CE9091EA01992309F4F8CDE2
:103F700086FB882780F98093D50280910503811103
:103F800004C061E085E00E94FE0D8091D502882387
:103F900009F181E00E94021C8823E1F08091EC018C
:103FA0009091ED01A091EE01B091EF018F3F3FEFB5
:103FB0009307A307B30761F0C81AD90AEA0AFB0AF4
:103FC000C092EC01D092ED01E092EE01F092EF018F
:103FD0001092EA016091D50285E00E94B103C0CD44
:103FE0004F925F926F927F928F929F92AF92BF9209
:103FF000CF92DF92EF92FF920F931F93CF93DF93B5
:10400000CDB7DEB769970FB6F894DEBF0FBECDBF50
:104010000E94BF046B017C01809105039091F20224
:10402000992371F0882309F4E7C08091FD02845040
:10403000823008F0E1C060E086E00E94FE0D02C020
:104040008111F9CF10910503112309F451C080911A
:10405000FD02843008F04CC090919B0180911F03B9
:104060009813B5C090919C01809106019813AFC040
:1040700090919D01809105019813A9C090919E0196
:10408000809104019813A3C090919F018091030136
:1040900098139DC09091A00180910201981397C040
:1040A0009091A10180910701981391C042E050E0E6
:1040B00062EA71E086EE91E00E94B92D892B09F049
:1040C00086C09091A40180910801981380C09091BE
:1040D000A5018091010198137AC041E150E066EAA0
:1040E00071E085ED91E00E94DF2D21E0892B09F43C
:1040F00020E0288F8091970190919801A0919901DB
:10410000B0919A010097A105B105A9F0A701960108
:10411000281B390B4A0B5B0BDA01C9018E35914024
:10412000A105B10540F010929701109298011092EC
:10413000990110929A01CE0148969B8B8A8B019629
:104140009D8B8C8B0091F102011108C08091EF02D0
:10415000811104C08091F002882341F0C092F302E3
:10416000D092F402E092F502F092F602B090CD0205
:10417000B11059C0112309F456C08091FA0281117F
:1041800052C08091F3029091F402A091F502B09197
:10419000F60226013701481A590A6A0A7B0A8091F9
:1041A000FD029CEF980F40EE53E964E070E092301E
:1041B00020F040E25EE460E070E0441555056605DD
:1041C000770588F5843028F00E94BC1615C0212F91
:1041D00090CF1092FB020E944B1961E085E00E9493
:1041E000FE0DC092E002D092E102E092E202F09273
:1041F000E30281E08093EC0269960FB6F894DEBF8B
:104200000FBECDBFDF91CF911F910F91FF90EF9027
:10421000DF90CF90BF90AF909F908F907F906F90E6
:104220005F904F9008958091EC02882351F0809127
:10423000F0028111E1CF1092EC0281E00E9443066E
:10424000DBCF8091FB0211118CC08111D5CF809101
:10425000E0029091E102A091E202B091E302B70185
:10426000A601481B590B6A0B7B0BDB01CA018E357B
:104270009140A105B10508F4BFCF2091F0028091D3
:10428000930190919401A0919501B0919601222300
:1042900009F42BC5892B8A2B8B2B41F4C0929301F7
:1042A000D0929401E0929501F09296018091930151
:1042B00090919401A0919501B09196010097A1056C
:1042C000B10509F499CFC81AD90AEA0AFB0A61E2D2
:1042D000C61663E0D606E104F10408F48DCF8091A0
:1042E0000203811189CF10929301109294011092D0
:1042F00095011092960110929701109298011092D8
:10430000990110929A0111E01093050386E08093C1
:10431000FD021092FC021092F9021092FA02109221
:10432000FB021092F7021092F8021092090261E06B
:104330000E94FE0D1093EC020E94BF046093F302F2
:104340007093F4028093F5029093F60255CF21E02A
:10435000C12CD12C760103C5CC24CA94DC2C760167
:10436000FEC4882329F160E084E00E94FE0D2FE95D
:1043700038E14FEF6EEE72E08091F1020E94830708
:104380002FE938E141E06DEE72E08091EF020E948A
:10439000830780E00E94430640E0813021F08230B4
:1043A00009F02ACF41E060E080E00E94411824CF6C
:1043B00080E00E944306182FE091FD02E43009F0EE
:1043C0001FC18091F902882309F49AC08091FC02F0
:1043D000813041F41150123008F00ECF1092F902E2
:1043E00061E07DC12BE338E14FEF6EEE72E0802F8C
:1043F0000E94830724E338E141E06DEE72E0809192
:10440000EF020E948307123029F41092F9021092F1
:10441000F80273C0113009F0EFCE8091F7028823C3
:10442000A1F38091F802882309F464C010E000E051
:104430006FEFC8010E9497280F5F1F4F011554E0CE
:104440001507B1F70E94A4186091E4027091E5028B
:104450008091E6029091E70220E041E00E94450849
:104460006093E4027093E5028093E6029093E70282
:1044700080910B0180931F0340E150E061EF71E0F8
:1044800085ED91E00E94ED2D1092E50110920A0257
:1044900011E0109309011092DF028091CD02882370
:1044A00019F01092CD02A8CE81E00E94A21C1092B9
:1044B00005031092F9021092FA021092F70210927C
:1044C000F8021092FD021092FC020E94BF04609359
:1044D000E0027093E1028093E2029093E302109372
:1044E000EC0261E081E00E94FE0D61E085E00E9447
:1044F000FE0D82CE81E08093F8021092F70270CF19
:10450000002309F454C08091EE02811115C081E0AE
:104510008093EE028091FC02882351F081508093B9
:10452000FC02B11005C0823019F481E08093FC02D6
:1045300061E083E00E94FE0D8091EF028823D1F1BB
:104540008091ED02811122C081E08093ED02809183
:10455000FC02E091FD02F0E0E15EFE4F208121507F
:10456000330B821713061CF48F5F8093FC0280913B
:10457000CD02811107C08091FC02823019F483E0E2
:104580008093FC0261E083E00E94FE0D123009F48A
:104590001BCE113009F030CE8091FC02843009F43A
:1045A00013CE81110AC085E08093FD0219CF1092CD
:1045B000EE02C2CF1092ED02E9CF8230D1F4909199
:1045C000CD029923B1F010930B0161E080E590E0FA
:1045D0000E9497281093CA0161E088E00E94FE0DB6
:1045E00064EC79E080E090E00E948D041092CA01B2
:1045F000F7CE91E09093F902833009F0F1CE07CF26
:10460000E53009F06EC00023E9F18091EE028111DE
:104610000EC081E08093EE028091FC02882319F0A5
:1046200081508093FC0261E083E00E94FE0D809146
:10463000EF02882351F18091ED02811117C081E0D2
:104640008093ED028091FC02E091FD02F0E0E15EDA
:10465000FE4F20812150330B821713061CF48F5F0D
:104660008093FC0261E083E00E94FE0D123031F085
:10467000113071F48091FC02853051F484E0809314
:10468000FD020AC21092EE02D2CF1092ED02EECFDE
:104690008091F2028111B0CD8091FC02853009F445
:1046A000ABCD80918F0190919001A0919101B0913B
:1046B0009201A7019601281B390B4A0B5B0BDA010B
:1046C000C901C297A105B10508F496CDC0928F012A
:1046D000D0929001E0929101F092920160E083E02B
:1046E00006CFE63008F4E7C020E238E14FEF6EEE87
:1046F00072E0802F0E94830725E038E141E06DEEF3
:1047000072E08091EF020E948307123019F40E9438
:10471000281772CD113009F06FCD8091FD028630DF
:1047200009F042C08091FC02833020F4809309029A
:1047300087E0A5CF8330C9F48091090111E081277A
:10474000809309018091D502882309F449CE81E044
:104750000E94021C811144CE80910901812780931F
:10476000090181E00E94021C3BCE843009F02CCD6F
:10477000109205031092F9021092FA021092FD02B3
:104780001092FC021092090211E01093DF020E94C5
:10479000BF046093E0027093E1028093E202909381
:1047A000E3021093EC0228CD873009F025CD8091EB
:1047B000FC02863009F4ABCF10910902111153C0ED
:1047C000BE016F5F7F4F0E948F09882309F408CED6
:1047D00049805A806B807C800E940907082F90E4F2
:1047E000C92E92E4D92E9FE0E92EF12C2AE0822EE8
:1047F000912CA12CB12C0117A1F0C301B201A7018A
:1048000096010E94632D672B682B692B51F0C7011D
:10481000B601A50194010E94632D69017A011F5F11
:10482000EACF80910701811720F4109307010E94BD
:10483000F10989819A81AB81BC818093E4029093D4
:10484000E502A093E602B093E70280E00E94A21C7A
:104850008091F2028111B8CC6091070188E290E06A
:104860000E949728B1CC113081F4863030F40E9438
:10487000260668EE72E00E946F1C86E08093FD02BF
:10488000809109028093FC02ABCD123009F0B4CCC8
:10489000863098F70E9426067C0110E000E06FEF5A
:1048A000C8018E0D9F1D0E9497280F5F1F4F043077
:1048B0001105A9F7E2CF8091FA02882309F4EFC02D
:1048C00029EF37E14FEF6EEE72E0802F0E948307F1
:1048D0002DEE37E141E06DEE72E08091EF020E9433
:1048E0008307123029F4CE0142960E94F01684CC40
:1048F000113009F081CC8091FC028111C6C08091F9
:10490000FB02811137C040E150E065ED71E081EFBD
:1049100091E00E94ED2D1092010281EFE82E81E0DE
:10492000F82EF701819180528F3508F07AC232E07B
:10493000E130F307B9F7CE0101960E944D0941E13C
:1049400050E0BE016F5F7F4F81EF91E00E94DF2D4D
:10495000892B81F00AE010E01F8B0E8BF70161912B
:104960007F01CE0146960E94561C0F5F1F4F0B31F0
:10497000110591F7E0911F0380910B01E81791F069
:10498000F0E0E959FE4F00E020E050E040E06081B7
:1049900080E00E949119882309F457C080911F0379
:1049A00080930B016091E6018CE390E00E949728D0
:1049B0006091E7018DE390E00E94972860910701E4
:1049C00088E290E00E94972860910B0180E590E0DA
:1049D0000E9497286091060186E490E00E94972843
:1049E0006091050182E390E00E94972860910401A4
:1049F000683008F068E086E590E00E9497286091B2
:104A00000301683008F068E087E590E00E9497288D
:104A100060910201683008F068E088E590E00E944B
:104A20009728609108018EE190E00E94972860919C
:104A3000010183E290E00E9497280E94F10981E041
:104A40000E94A21C0E944B19D7CB81E08093CA011F
:104A500061E088E00E94FE0D1092CA010E94BF042E
:104A60006B017C010E94BF046C197D098E099F09AE
:104A7000643C79408105910518F40E94CB04F2CF83
:104A800060E085E00E94B1038DCF8130D9F28230A1
:104A900009F0B2CB1092FA021092FC02A1CC8091E4
:104AA000F902811189C0F0E0E15EFE4FF080002341
:104AB00009F447C08091EE0281110EC081E080931D
:104AC000EE028091FC02882319F081508093FC0251
:104AD00061E083E00E94FE0D8091EF028823A1F146
:104AE0008091ED02811112C081E08093ED028091EE
:104AF000FC024F2D4150550B841715061CF48F5F97
:104B00008093FC0261E083E00E94FE0D123009F404
:104B1000EACE113009F070CB9091FD028091FC0239
:104B2000911122C08130C1F090F08230C9F0833001
:104B300009F056CC888D882309F446CB1093FA02ED
:104B4000ABCF1092EE02C8CF1092ED02DFCF1092E1
:104B50000B021093FD02A0CF10930B0282E08FCDC9
:104B600080930B0283E08BCDE92FF0E0E15EFE4FF6
:104B700020812150330B8217130629F41092FD0275
:104B800080910B027FCE933099F4811111C0109265
:104B9000D4011093FB0240E150E061EF71E085ED3C
:104BA00091E00E94ED2D1092E50161E084E09FCC40
:104BB00081E08093F90214CCE130E1F58091FC02B0
:104BC0008823D9F0813059F1123009F48CCE11309C
:104BD00009F012CB8091FD02823009F0FFCB809169
:104BE000FC02833009F0FACB80910A02823008F08F
:104BF00079C08F5F80930A02F3CB2DED37E14FEF41
:104C00006EEE72E0802F0E9483072DEC37E141E0C9
:104C10006DEE72E08091EF020E948307D5CF22EC07
:104C200037E14FEF6EEE72E0802F0E94830725EB95
:104C300037E1EDCFE230B1F58091FC028130E1F057
:104C400080F0823021F1833009F0BECF2AE537E1D0
:104C50004FEF6EEE72E0802F0E94830723E537E16D
:104C6000D6CF2AEA37E14FEF6EEE72E0802F0E9436
:104C700083072FE937E1CBCF20E937E14FEF6EEE25
:104C800072E0802F0E94830721E837E1C0CF21E73F
:104C900037E14FEF6EEE72E0802F0E94830721E62E
:104CA00037E1B5CFE33009F08FCF8091FC0281303E
:104CB00071F0823009F088CF20E437E14FEF6EEEDB
:104CC00072E0802F0E94830729E337E1A0CF2DE413
:104CD00037E14FEF6EEE72E0802F0E94830726E4EB
:104CE00037E195CF10920A0279CB0097A105B10563
:104CF00009F482CA109293011092940110929501C6
:104D000010929601B701A601481B590B6A0B7B0B49
:104D1000DB01CA018E359140A105B10508F06CCACE
:104D20008091970190919801A0919901B0919A0179
:104D30000097A105B10569F0B701A601481B590B01
:104D40006A0B7B0BDB01CA01C297A105B10508F014
:104D5000FECAC114D104E104F10409F4FDCAC092F1
:104D60009701D0929801E0929901F0929A01222342
:104D700009F442CA11E0109305031092FD0210924B
:104D8000FC021092F9021092FA021092FB021092A9
:104D9000F7021092F80200910B0100931F0340E10B
:104DA00050E061EF71E085ED91E00E94ED2D1092F1
:104DB000E50100939B018091060180939C01809105
:104DC000050180939D018091040180939E01809153
:104DD000030180939F01809102018093A001809143
:104DE00007018093A1018091E6019091E7019093E2
:104DF000A3018093A201809108018093A401809176
:104E000001018093A50181E1E5EDF1E0A6EAB1E0C1
:104E100001900D928A95E1F710920A0261E086E016
:104E200087CA40E150E06EE071E081EF91E00E94BE
:104E3000ED2D44E050E060E270E08DEF91E00E94E3
:104E4000D82D79CD1F920F920FB60F9211242F9368
:104E50003F938F939F93AF93BF938091070390915C
:104E60000803A0910903B0910A033091060323E0DF
:104E7000230F2D3758F50196A11DB11D2093060370
:104E80008093070390930803A0930903B0930A0348
:104E900080910B0390910C03A0910D03B0910E0330
:104EA0000196A11DB11D80930B0390930C03A09359
:104EB0000D03B0930E03BF91AF919F918F913F91DE
:104EC0002F910F900FBE0F901F90189526E8230F7B
:104ED0000296A11DB11DD2CF1F920F920FB60F9255
:104EE00011242F933F934F935F936F937F938F93EF
:104EF0009F93AF93BF93EF93FF938091B900887F07
:104F0000803609F44AC0F0F5883209F4A7C018F5D4
:104F1000803109F49BC0B8F4882309F4F9C08830C3
:104F200009F494C0FF91EF91BF91AF919F918F9140
:104F30007F916F915F914F913F912F910F900FBE95
:104F40000F901F901895883109F488C0803251F76E
:104F50008093980214C0803409F49DC040F48033DB
:104F6000B9F38833F9F68093980285ECB0C08035A8
:104F700009F485C0883509F496C0883499F60E94F2
:104F8000730CD0CF883909F48CC038F5883729F0F4
:104F900050F4883611F0803729F683E08093990227
:104FA0001092970257C0883809F47BC0803919F0F5
:104FB000803809F0B7CF80919702803208F071C035
:104FC000E091970281E08E0F809397028091BB0061
:104FD000F0E0E958FD4F80833DC0803B39F0E0F4BC
:104FE000803A09F479C0883A09F09CCF84E0809334
:104FF00099021092760210927502E091C102F0912E
:10500000C20209958091750281110FC081E08093E1
:1050100075021092550209C0803C09F4A6CF883C65
:1050200009F4A3CF883B09F07DCFE091760281E0BF
:105030008E0F80937602F0E0EB5AFD4F80818093D3
:10504000BB00909176028091750229C08091BE02CA
:105050008093BB0085EC8093BC0064CF9091BD022F
:105060008091BC02981758F5E091BD0281E08E0F47
:105070008093BD02F0E0E456FD4F8081E9CFE091DE
:10508000BD0281E08E0F8093BD028091BB00F0E0F5
:10509000E456FD4F80839091BD028091BC02981729
:1050A000C8F285E8D8CFE091BD0281E08E0F8093F1
:1050B000BD028091BB00F0E0E456FD4F80838091FB
:1050C0009B0281115CCF81E080939A0284EA8093F5
:1050D000BC001092990226CF85EC8093BC00109200
:1050E000990280919702803230F4E0919702F0E0CB
:1050F000E958FD4F10826091970270E0E091BF0285
:10510000F091C00287E792E00995109297020ACFCA
:105110001092980234CF8EEF95E00E944B0C61E024
:1051200080E00E942A0C8FEE95E00C944B0CCF93FC
:10513000DF9300D0CDB7DEB79A838983CE01019685
:105140000E94561C0F900F90DF91CF910895E3E1DC
:10515000F3E01382128288EE93E0A0E0B0E0848353
:105160009583A683B7838FE691E091838083E0E205
:10517000F3E01382128281E891E09183808388E0DA
:1051800084838FEF858389E086838AE087838BE041
:1051900080878CE081878DE0828713861486158650
:1051A0001686178681E00E94890B80910B018093FF
:1051B0001F030895789484B5826084BD84B58160AE
:1051C00084BD85B5826085BD85B5816085BD8091D2
:1051D0006E00816080936E0010928100809181004A
:1051E0008260809381008091810081608093810042
:1051F000809180008160809380008091B100846004
:105200008093B1008091B00081608093B000809164
:105210007A00846080937A0080917A008260809323
:105220007A0080917A00816080937A0080917A0080
:10523000806880937A001092C10062E082E00E9450
:10524000DF0362E083E00E94DF0362E084E00E940B
:10525000DF0361E085E00E94DF0361E085E00E94FA
:10526000DF0361E086E00E94DF031092C602109225
:10527000C5021092C4021092C3020E945E0587E02C
:1052800095E09093C2028093C10288E095E09093EC
:10529000C0028093BF0282EF8093B8001092CC02CC
:1052A00088E893E1A0E0B0E08093C8029093C9023F
:1052B000A093CA02B093CB02C1E0C093C70282E0C0
:1052C0000E94890B8FEF90E00E94100461E080E063
:1052D0000E94FE0D64EC79E080E090E00E948D0475
:1052E0000E94A41883E00E948803892B09F042C021
:1052F000C0930503C093CD0284E08093FD02109219
:10530000FC021092FB021092FA021092F902109223
:10531000F8021092F70261E086E00E94FE0DC09351
:10532000EC020E94BF046093F3027093F402809336
:10533000F5029093F6028091CD02882359F00E94E5
:105340009B060E94F01F8091CD028823A1F30E944A
:10535000841DF1CF1092FB021092FA021092F90212
:10536000109205031092F8021092F7021092FD02BB
:105370001092FC02E0910B01F0E0E959FE4F00E0D1
:1053800021E040ED52E0608181E00E949119882384
:1053900091F08091CF02882359F08091D00287FF4D
:1053A00007C08091CE02843618F48F5F8093CE02BE
:1053B00081E08093CF0280E00E94A21C61E081E046
:1053C0000E94FE0D61E085E00E94FE0DC0E0D0E08D
:1053D00099249A9483E0882E0E949B068091F20281
:1053E0008823B1F090920A018FEF90E00E941004A0
:1053F00080910503882309F43FC1109204030E94A1
:10540000F01F0E94841D209739F30E940000E4CF12
:105410008091DF02882321F11092DF0280910A013E
:10542000882369F0815080930A0190E00E94100463
:1054300061E070E080E090E00E948D04EFCF81E0B9
:105440008093020361E087E00E94FE0D83E00E94EA
:105450008803892BD9F31092DE021092F002C8CF94
:1054600080910303811104C080910503882349F0D2
:105470001092DA021092DB021092DC021092DD022E
:10548000B7CF0E94BF046B017C018091F102882399
:1054900099F190920A018FEF90E00E9410048091A0
:1054A0000203882301F11092020361E087E00E9469
:1054B000FE0D8091F10212E0811106C08091EF0291
:1054C00014E0811101C013E0812F0E948803892B11
:1054D000D9F3133009F469C0143009F461C0109293
:1054E000EE021092F102C092DA02D092DB02E09258
:1054F000DC02F092DD0213C08091F0028111C9CF6D
:105500008091EF028111C5CF82E00E948803892B30
:1055100031F484E00E948803892B09F4BACF80918A
:105520000901811147C01092DA021092DB02109239
:10553000DC021092DD0280910203811159CF80912B
:105540000A018F3F31F090920A018FEF90E00E94A4
:1055500010048091D6029091D702A091D802B09108
:10556000D902A7019601281B390B4A0B5B0BDA0104
:10557000C901883E9340A105B10508F439CFC09216
:10558000D602D092D702E092D802F092D90261E01E
:1055900081E00E94FE0D61E085E00E94FE0D28CFB3
:1055A0001092ED021092EF029ECF1092DE02109246
:1055B000F00299CF8091D502882309F459CF8091C8
:1055C000DA029091DB02A091DC02B091DD02892B1E
:1055D0008A2B8B2B41F4C092DA02D092DB02E0924C
:1055E000DC02F092DD0280910801882309F400CFEB
:1055F0008091DA029091DB02A091DC02B091DD0291
:1056000097018601081B190B2A0B3B0BD901C80116
:10561000853C9940A105B10508F4EACE80910203CA
:105620008111E6CE80910A018F3108F4E1CE4091DC
:10563000D1025091D2026091D3027091D4029701AD
:105640008601041B150B260B370BB901A801473047
:1056500051056105710508F4CBCE815080930A0194
:1056600090E00E941004C092D102D092D202E09247
:10567000D302F092D402BCCE0E94BF046B017C0125
:1056800080910303811142C18091020381113EC1C7
:1056900082E00E9488038C0184E00E9488035C0100
:1056A00083E00E9488039C018091040382300CF403
:1056B0004BC0823009F03FC001151105E1F5A1147E
:1056C000B104C9F5232BB9F18091FE029091FF023C
:1056D000A0910003B0910103C81AD90AEA0AFB0A93
:1056E00018EEC11613E0D106E104F10408F487CEE8
:1056F0001092040381E08093050384E08093FD020F
:105700001092FC021092FB021092FA021092F9021F
:105710001092F8021092F70261E086E00E94FE0DFE
:105720000E94BF046093F3027093F4028093F50229
:105730009093F60264CE80920403012B09F45FCEAD
:10574000AB2809F45CCE59CE232B09F4C1C021E06B
:105750000115110509F020E091E0AB2809F090E077
:10576000291709F48FC09FEF012B09F091E08823DE
:1057700011F0891759F090930403C092FE02D09261
:10578000FF02E0920003F092010339CE8091FE0205
:105790009091FF02A0910003B0910103A70196012F
:1057A000281B390B4A0B5B0BDA01C90186399105BD
:1057B000A105B10508F423CE8091F20281111FCE1C
:1057C0008091F10281110DC09091F002911109C0F8
:1057D0009091EF02911105C090910303992309F470
:1057E0000ECE2AEB36E14FEF6EEE72E00E94830799
:1057F0002AEB36E141E06DEE72E08091EF020E940B
:1058000083078091F102811104C08091EF02882307
:1058100041F0C092FE02D092FF02E0920003F092AB
:10582000010380910303882309F4E9CD80E00E94FD
:105830004306182F8091F002882359F0C092FE028F
:10584000D092FF02E0920003F092010381E0809386
:10585000EC02113009F05DC00E94BF046B017C01B5
:1058600080E00E94A21C10920303C092E002D0923A
:10587000E102E092E202F092E3021093EC0261E0B6
:1058800081E067C0012B21F58823A9F04091FE0239
:105890005091FF026091000370910103970186010E
:1058A000041B150B260B370BB901A801473951050D
:1058B0006105710520F482E0809304035ECF1092AD
:1058C00004039091F20291119ACD0E94191655CFBE
:1058D000882309F471CF9091F2024091FE02509119
:1058E000FF02609100037091010397018601041B80
:1058F000150B260B370BB901A8011092040346398A
:1059000051056105710508F057CFDDCF10920403F2
:1059100053CF123019F5109203038091E802909151
:10592000E902A091EA02B091EB028093E402909325
:10593000E502A093E602B093E702C092E002D092A3
:10594000E102E092E202F092E30281E08093EC0255
:1059500061E00E94FE0D53CD80E021C08091FE02E7
:105960009091FF02A0910003B0910103C81AD90AD7
:10597000EA0AFB0A49E8C41643E1D406E104F1044B
:1059800008F43DCD1092030382E00E948803892B26
:1059900029F084E00E948803892BF1F683E080934C
:1059A000040381E00E9443068091E8029091E9029D
:1059B000A091EA02B091EB028093E4029093E50299
:1059C000A093E602B093E7025ACFFB01DC0102C0CC
:1059D00005900D9241505040D8F70895FC01059074
:1059E0000020E9F7809590958E0F9F1F0895BB27A3
:1059F000FA01A62F6217710581059105330B30FB63
:105A000066F0AA27660F771F881F991FAA1FA21783
:105A100010F0A21B63953850A9F7A05DAA3308F0D7
:105A2000A95DA19336F7B111B1931082CA010C940C
:105A3000192DDC01FC01672F71917723E1F7329773
:105A400004C07C916D9370836291AE17BF07C8F359
:105A50000895F999FECF92BD81BDF89A992780B536
:105A60000895262FF999FECF1FBA92BD81BD20BDA2
:105A70000FB6F894FA9AF99A0FBE01960895DB01D1
:105A80008F939F930E948B2DBF91AF91A29F800D0A
:105A9000911DA39F900DB29F900D1124089597FB27
:105AA000072E16F4009407D077FD09D00E94962D9A
:105AB00007FC05D03EF4909581959F4F0895709511
:105AC00061957F4F0895A1E21A2EAA1BBB1BFD0111
:105AD0000DC0AA1FBB1FEE1FFF1FA217B307E407CD
