:100000000C94DC020C9404030C9404030C9404037D
:100010000C9404030C9404030C9404030C94040344
:100020000C9404030C9404030C9404030C94040334
:100030000C9404030C9404030C9404030C94040324
:100040000C9493170C9404030C9404030C94040371
:100050000C9404030C9404030C9404030C94040304
:100060000C94DD170C94040300407A10F35A00A09E
:10007000724E18090010A5D4E80000E87648170071
:1000800000E40B54020000CA9A3B000000E1F505B1
:10009000000080969800000040420F000000A086FB
:1000A00001000000102700000000E803000000002D
:1000B0006400000000000A000000000001000000D1
:1000C00000002C76D888DC674F0823DFC1DFAE59EB
:1000D000E1B1B796E5E3E453C63AE651997696E87E
:1000E000E6C28426EB898C9B62ED407C6FFCEFBC02
:1000F0009C9F40F2BAA56FA5F490055A2AF75C932D
:100100006B6CF9676DC11BFCE0E40D47FEF520E662
:10011000B500D0ED902E0300943577050080841E45
:10012000080000204E0A000000C80C333333330FA0
:10013000986E12831141EF8D2114893BE65516CF3D
:10014000FEE6DB18D1844B381BF77C1D901DA4BB49
:10015000E424203284725E228100C9F124ECA1E5FE
:100160003D2753455420746F207265737461727417
:1001700000726573746F72696E672030780049325F
:1001800043204552524F52004932432046414C4C85
:100190004241434B0053595354454D205345545409
:1001A000494E475300515549434B204D454E55004C
:1001B00056434F2053455454494E475300524543EC
:1001C000414C4C204D454D4F5259003C3C003E3E69
:1001D0000020004C4F434B200053455420746F20A7
:1001E00073656C656374006E6F2000796573003E03
:1001F0002000464143544F52592052455345540024
:10020000434C45415220414C4C20444154413F0015
:1002100053455420746F2073656C656374006F667A
:1002200066006F6E20003E200053484F57204D451A
:100230004E55205449544C450053455420746F206A
:1002400073656C656374006F6666006F6E20003EB8
:1002500020004241434B4C494748542044494D4DAE
:1002600045520053455420746F20656469740053EF
:10027000544154494F4E204E414D45005345542062
:10028000746F2073656C656374006E6F6E650050EB
:100290000052462064726976653A20006E6F6E6582
:1002A000005000756E6C6F636B65643A20006E6F72
:1002B0006E650050006C6F636B65643A20003E20F1
:1002C00000504F5254204D415050494E4700534525
:1002D0005420746F2073656C656374006869676887
:1002E0000064697361626C6564006C6F7720003E26
:1002F00020004348415247452050554D500053453A
:100300005420746F2073656C65637400204D487AC7
:10031000002E003E20005854414C20465245515575
:10032000454E43590053455420746F2073656C65E6
:100330006374003E203078004932432041444452E7
:100340004553530053455420746F2073656C6563A7
:10035000740020646563696D616C7300206465637B
:10036000696D616C003E2000505245434953494F2E
:100370004E0053455420746F2073656C65637400A0
:10038000204D487A002D003E2000465245515545EB
:100390004E43592042414E440053455420746F202F
:1003A00070726F6365656400455849542053455425
:1003B00054494E47530053455420746F20656E7462
:1003C00065720047454E4552414C205345545449AF
:1003D0004E47530053455420746F20656E74657208
:1003E00000504C4C2053455454494E4753005345FC
:1003F0005420746F20656E7465720056434F20530D
:10040000455454494E4753003C656D7074793E0025
:100410003A003E204D003E204D003E4D00204D480C
:100420007A0020003A003E2072657475726E0043B7
:100430004C454152204D454D4F525900204D487A70
:1004400000534156452000524543414C4C204D45F8
:100450004D4F52590053455420746F2073656C659D
:1004600063740053455420746F20636F6E66697225
:100470006D0053455420746F20746F67676C65007E
:100480004558495420515549434B204D454E550040
:100490004C4344204F4646004F4646004F4E0052C4
:1004A000462044524956453A2000434C454152208B
:1004B0004D454D4F52590053415645204D454D4FE6
:1004C000525900524543414C4C204D454D4F5259D5
:1004D0000063616E63656C006469736361726400DC
:1004E00073617665206368616E676573003E200006
:1004F000455849542053455454494E475300204DC4
:10050000487A0053455420005246204452495645EB
:100510003A204F464600204D487A00284329323081
:100520003236204C6F656E69650056342E310020DE
:1005300000504C4C20436F6E74726F6C00534554E6
:1005400020746F20636F6E6669726D00524554555A
:10055000524E20544F204D454E55000000000024BF
:100560000027002A0000000000250028002B0000C2
:1005700000000023002600290004040404040404ED
:100580000402020202020203030303030301020442
:100590000810204080010204081020010204081005
:1005A0002000000008000201000003040700000012
:1005B000000000000000FC1811241FBECFEFD8E09F
:1005C000DEBFCDBF11E0A0E0B1E0E6E9FCE402C08F
:1005D00005900D92A838B107D9F722E0A8E8B1E05C
:1005E00001C01D92AC3FB207E1F712E0CCEDD2E0C2
:1005F00004C02197FE010E94F125CB3DD107C9F728
:100600000E942F190C9449260C940000833081F02D
:1006100028F4813099F08230A9F008958730A9F04C
:100620008830C9F08430B1F4809180008F7D03C0A0
:10063000809180008F7780938000089584B58F77B4
:1006400084BD089584B58F7DFBCF8091B0008F77F6
:100650008093B00008958091B0008F7DF9CFCF9343
:10066000DF93282F30E0F901EF55FA4F8491F9011B
:10067000E357FA4FD491F901E758FA4FC491CC23CC
:10068000A1F081110E940603EC2FF0E0EE0FFF1F96
:10069000E159FA4FA591B491EC91ED2381E090E0FE
:1006A00009F480E0DF91CF91089580E090E0FACFE7
:1006B0001F93CF93DF93282F30E0F901EF55FA4FC6
:1006C0008491F901E357FA4FD491F901E758FA4FB1
:1006D000C491CC23A9F0162F81110E940603EC2FA0
:1006E000F0E0EE0FFF1FEB59FA4FA591B4918FB7D1
:1006F000F894EC91111108C0D095DE23DC938FBFE4
:10070000DF91CF911F910895DE2BF8CFCF93DF9328
:1007100090E0FC01E357FA4F249187589A4FFC016F
:1007200084918823D1F090E0880F991FFC01E55A4D
:10073000FA4FA591B491FC01EB59FA4FC591D491B0
:10074000623071F49FB7F8943C91822F8095832397
:100750008C93E8812E2B28839FBFDF91CF91089542
:100760008FB7F894EC912E2B2C938FBFF6CFCF93AD
:10077000DF93EC0161E086E00E948603209731F46C
:1007800060E086E0DF91CF910C945803CF3FD10514
:1007900011F461E0F6CFE7EAF5E0E491E33029F106
:1007A00040F4E130B1F0E230D9F0C038D1058CF737
:1007B000E7CFE73021F1E83051F1E430B1F7809133
:1007C0008000806280938000D0938B00C0938A0069
:1007D00004C084B5806884BDC7BDDF91CF91089502
:1007E00084B5806284BDC8BDF8CF809180008068E8
:1007F00080938000D0938900C0938800EECF8091D1
:10080000B00080688093B000C093B300E6CF8091C1
:10081000B00080628093B000C093B400DECF3FB7D9
:10082000F8948091CE029091CF02A091D002B09125
:10083000D10226B5A89B05C02F3F19F00196A11D36
:10084000B11D3FBFBA2FA92F982F8827BC01CD011A
:10085000620F711D811D911D42E0660F771F881F79
:10086000991F4A95D1F708958F929F92AF92BF92A8
:10087000CF92DF92EF92FF924B015C010E940F0436
:100880006B017C010E940F046C197D098E099F0980
:10089000683E734081059105A8F321E0821A910812
:1008A000A108B10888EEC80E83E0D81EE11CF11C37
:1008B00081149104A104B10429F7FF90EF90DF9017
:1008C000CF90BF90AF909F908F9008952FB7F894DE
:1008D0006091CA027091CB028091CC029091CD02BE
:1008E0002FBF0895CF92DF92EF92FF920F931F9345
:1008F0000E9466040091D3021091D4022091D50287
:100900003091D6026B017C01C01AD10AE20AF30AC7
:10091000970186010A3F110521053105B8F0609362
:10092000D3027093D4028093D5029093D602609143
:10093000D20281E068276093D20285E01F910F9177
:10094000FF90EF90DF90CF900C9458031F910F9180
:10095000FF90EF90DF90CF90089508950895AF92A3
:10096000BF92CF92DF92EF92FF920F931F93CF939C
:10097000DF936C017B018B01040F151FEB015E01FE
:10098000AE18BF08C017D10759F06991D601ED9193
:10099000FC910190F081E02DC6010995892B79F732
:1009A000C501DF91CF911F910F91FF90EF90DF90E4
:1009B000CF90BF90AF90089508952091FF01260F2A
:1009C0003327331F21323105ECF420912302FC013F
:1009D00090E080E0243069F082E00895A091FF016A
:1009E0002191AC0141525E4FA40FB52FB11D2C9344
:1009F0000196861798F38091FF01680F6093FF01BD
:100A000080E0089581E008951092230281E08093B0
:100A100025021092240261E082E10E94580361E005
:100A200083E10E945803E9EBF0E080818E7F8083B0
:100A300080818D7F808388E48093B80085E48093F3
:100A4000BC000895CF93DF9391E0909356028823E2
:100A5000B9F0C091B800D091BA008091BC008A7BF7
:100A60008093BC0060E082E10E94580360E083E173
:100A70000E9458030E940405D093BA00C093B800A6
:100A8000DF91CF9108950895E091500280914F0237
:100A9000E81730F4F0E0E154FE4F808190E00895D3
:100AA0008FEF9FEF08959091500280914F022FEFAA
:100AB0003FEF981748F4E92FF0E0E154FE4F208112
:100AC00030E09F5F90935002C901089580914F02DA
:100AD00090915002891B990B0895CF92DF92EF926B
:100AE000FF920F931F93CF93DF937C01CB018A0179
:100AF0002091BE01222389F0EB016B01C40ED51EAB
:100B0000CC15DD0569F06991D701ED91FC9101905B
:100B1000F081E02DC7010995F3CF642F0E94DD0419
:100B2000C801DF91CF911F910F91FF90EF90DF905F
:100B3000CF900895CF93DF931F92CDB7DEB769832F
:100B40002091BE012223F9F020914D02203258F06D
:100B500021E030E0FC013383228390E080E00F90BD
:100B6000DF91CF91089580914E02E82FF0E0E25698
:100B7000FE4F998190838F5F80934E0280934D0248
:100B800081E090E0ECCF61E0CE0101960E94DD04AF
:100B9000F7CF90E080E0089520910401422F50E0CB
:100BA000FA01E059FD4F208130E0220F331F240F5E
:100BB000351F96E0929FA001939F500D112490E065
:100BC00080589F4F840F951F880F991F880F991F7A
:100BD0000895E0910401E23028F4F0E0E35FFE4F75
:100BE0008081089582E00895E091040184E0E89F07
:100BF000F0011124E15FFE4F608171818281938158
:100C000023E0660F771F881F991F2A95D1F739E0D7
:100C100096958795779567953A95D1F708958F9230
:100C20009F92AF92BF92CF92DF92EF92FF92CF93BB
:100C30000E94E905C09103018C1708F4C82F80E4D5
:100C4000C82E82E4D82E8FE0E82EF12C9AE0892E6F
:100C5000912CA12CB12CCC2351F0C701B601A501D8
:100C600094010E94CF2569017A01C150F4CF0E94FE
:100C7000F4059B01AC01C20ED31EE41EF51EC70194
:100C8000B60161507109810991090E94CF25822F17
:100C9000CF91FF90EF90DF90CF90BF90AF909F905B
:100CA0008F9008954F925F926F927F928F929F9252
:100CB000AF92BF92CF92DF92EF92FF921F93CF93AA
:100CC000DF93982E5B01142FE9010E9466046B01EB
:100CD0007C01F501992009F4BDC08081811124C0F7
:100CE000C0928C01D0928D01E0928E01F0928F0122
:100CF000C0928801D0928901E0928A01F0928B0122
:100D000081E08083812FFE01DF91CF911F91FF90C1
:100D1000EF90DF90CF90BF90AF909F908F907F909B
:100D20006F905F904F90099480918C0190918D010C
:100D3000A0918E01B0918F0146015701881A990A3E
:100D4000AA0ABB0A80916702882309F466C0F8EEFC
:100D50008F16F3E09F06A104B10408F44EC00E9470
:100D60000F06782E0E94F4059B01AC01A72DB0E080
:100D70000E94F7250E941D2520E030E04AEF53E451
:100D80000E947C242B013C01C501B401685E7340C4
:100D9000810991090E941D2520E030E04AE754E4D2
:100DA0000E947C2423E333E343E35FE30E941024A7
:100DB0009B01AC01C301B2010E947C240E94EE247D
:100DC0008090880190908901A0908A01B0908B0159
:100DD000A7019601281939094A095B0949015A01F5
:100DE00086169706A806B90640F02091B802309101
:100DF000C8023323F1F021111EC0DF91CF911F9162
:100E0000FF90EF90DF90CF90BF90AF909F908F902A
:100E10007F906F905F904F90089528EE821623E0A8
:100E20009206A104B10448F360E570E080E090E030
:100E3000C7CF222331F038EC83169104A104B1040A
:100E4000E0F2C0928801D0928901E0928A01F0928A
:100E50008B0158CF1082D1CF4F925F926F927F92C9
:100E60008F929F92AF92BF92CF92DF92EF92FF92BA
:100E7000CF93DF932B013C01D42FC22F0E94F405A6
:100E80004B015C017C016B01481459046A047B042A
:100E900078F0AFEFBFE7AC019B010E94F7256B0133
:100EA0007C014C145D046E047F0410F47301620134
:100EB00061E070E080E090E0DD2331F00E940F06F9
:100EC000682F70E090E080E0A50194010E94AB25BE
:100ED0004B015C01C13011F581E0C81AD108E1086D
:100EE000F108C701B601680D791D8A1D9B1DA5017A
:100EF00094010E94CF25C501B4010E94AB25DF916A
:100F0000CF91FF90EF90DF90CF90BF90AF909F90E8
:100F10008F907F906F905F904F900895C701B601BA
:100F2000CF3F29F3C501B4019695879577956795CD
:100F30006C0D7D1D8E1D9F1DDACF20917C02E8E097
:100F4000F1E0222331F0E6E0F1E0213011F4E7E0B6
:100F5000F1E039E048E057E090818F3F11F598309B
:100F6000C9F4508390819830A0F4222331F060912D
:100F70000801961761F0213031F060910701961752
:100F800031F0223031F060910601961302C03150E9
:100F900019F70895911102C04083E4CF91509083D6
:100FA000E1CF983011F41082DDCF9730A9F39F5F25
:100FB000F6CF8F929F92AF92BF920F931F93CF93D2
:100FC000DF93CDB7DEB7A1970FB6F894DEBF0FBEA3
:100FD000CDBF19A2423008F44AE08E010F5D1F4FC9
:100FE000842E912CB12CA12CA50194010E94CF2517
:100FF000E62FB901CA01EA3044F5E05DD801EE936D
:101000008D01232B242B252B79F790E080E010977E
:1010100069F0FD0101900020E9F73197AF014A1B0B
:101020005B0BBD0184EE92E00E94AF04A1960FB667
:10103000F894DEBF0FBECDBFDF91CF911F910F910E
:10104000BF90AF909F908F900895E95CD7CFFC013F
:1010500001900020E9F73197AF01481B590BBC0103
:1010600084EE92E00C94AF04EF92FF920F931F93E3
:10107000CF93DF937C018C01CAE0D0E0CE010E94C7
:10108000C223F80181938F012196CB31D105B1F7AD
:10109000C701DF91CF911F910F91FF90EF900895BD
:1010A000CF92DF92EF92FF920F931F93CF93DF9334
:1010B000EB017B0124E0E20EF11C8B016C01C61AEE
:1010C000D70AC601800F911F0E94C223F8018193A5
:1010D0008F01EE15FF05A9F7CE01DF91CF911F918A
:1010E0000F91FF90EF90DF90CF900895CF93DF9313
:1010F000863050F5EB010E94CC05BE010E945008DD
:1011000088819981AA81BB818F3F2FEF9207A20727
:10111000B207D1F0409194015091950160919601F0
:101120007091970184179507A607B70768F040915B
:101130009001509191016091920170919301481733
:1011400059076A077B0720F480E0DF91CF9108956B
:1011500081E0FBCF0C94C2234F925F926F927F92FB
:101160008F929F92AF92BF92CF92DF92EF92FF92B7
:101170000F931F93CF93DF9300D000D0CDB7DEB78E
:101180008CE390E00E94AA08873008F082E0809308
:1011900070028DE390E00E94AA08873008F082E098
:1011A0008093710290900401A92CB12CF501E059B3
:1011B000FD4F8080082D10E0C80143E0880F991F83
:1011C0004A95E1F79C01295E3E4F3901F9016081A2
:1011D00071818281938121E041E00E942C076B01A3
:1011E0007C01C0929401D0929501E0929601F09218
:1011F0009701F30164817581868197812FEF41E02A
:101200000E942C072B013C014092900150929101C9
:101210006092920170929301F6E0F81508F445C0CF
:1012200021E0291508F441C0C801880F991F8A0DD3
:101230009B1D880F991F880F991FBE016F5F7F4FFD
:10124000865A9F4F0E94500869817A818B819C81C8
:101250006C157D058E059F0558F0461657066806E5
:10126000790630F020E040E00E942C076B017C0101
:10127000C0927502D0927602E0927702F0927802E4
:101280000F900F900F900F90DF91CF911F910F91C2
:10129000FF90EF90DF90CF90BF90AF909F908F9096
:1012A0007F906F905F904F900895C114D104E10436
:1012B000F104F1F660E070E0CB01D4CFCF93DF937F
:1012C000EC0160E08E810E94580361E08E810E94F3
:1012D000580360E08E810E9458038BE891E00197EB
:1012E000F1F7DF91CF910895CF92DF92EF92FF92C5
:1012F0000F931F93CF93DF936C017C0187E0E80E7F
:10130000F11CD0E0C0E0062F10E0B8010C2E02C0A6
:10131000759567950A94E2F76170F70181917F01F5
:101320000E9458032196C430D10579F7C601DF9198
:10133000CF911F910F91FF90EF90DF90CF900C9481
:101340005E09CF92DF92EF92FF920F931F93CF939C
:10135000DF93EC01F62E642F8C810E9458038D815F
:101360008F3F19F060E00E9458030F2D10E08F8529
:1013700084FF25C06E0187E0C80ED11CF12CE12C42
:10138000B8010E2C02C0759567950A94E2F761705A
:10139000F60181916F010E945803FFEFEF1AFF0AD7
:1013A00088E0E816F10461F7CE01DF91CF911F913B
:1013B0000F91FF90EF90DF90CF900C945E09B801F1
:1013C00084E0759567958A95E1F7CE010E947409CE
:1013D0006F2DCE01DF91CF911F910F91FF90EF9074
:1013E000DF90CF900C94740940E0682F84EE92E077
:1013F0000C94A10981E00E94F4098BE39FE101971D
:10140000F1F70895CF93DF93823029F49091F3029E
:1014100098609093F3028093F7021092F80280E4B0
:101420008093F90280E18093FA0280E58093FB02C9
:1014300061E08091E8020E9486038091E9028F3F7B
:1014400019F061E00E94860361E08091EA020E9447
:101450008603C4EED2E09E01245E32408091F30206
:1014600084FD0BC084E090E021962817390744F4EE
:1014700061E08E810E948603EECF88E090E0F4CF99
:101480008BE39DE00197F1F760E08091E8020E9414
:10149000580360E08091EA020E9458038091E902BB
:1014A0008F3F19F060E00E9458038091F30284FDA1
:1014B00034C063E084EE92E00E947409CBE4D6E489
:1014C000CE010197F1F763E084EE92E00E94740987
:1014D0002197F1F763E084EE92E00E94740983E5BE
:1014E00092E00197F1F762E084EE92E00E947409C5
:1014F0008091F30280620E94F40984E08093F402F8
:101500008CE00E94F4090E94FA0982E08093F502BF
:1015100086E0DF91CF910C94F40980620E94F40977
:101520008BE496E40197F1F78091F30280620E94C8
:10153000F40983E592E00197F1F78091F30280626C
:101540000E94F409D5CF9091F702691710F06FEF60
:10155000690FE62FF0E0EC51FD4F9489890F806808
:101560000C94F409CF93DF93EB01682F80E00E9485
:10157000A30ACE01DF91CF910C94270841E00E948D
:10158000A10981E090E008950F931F93CF93DF931B
:101590008C01D0E0C0E0F801EC0FFD1F64916623E0
:1015A00039F041E084EE92E00E94A1092196F3CF48
:1015B000CE01DF91CF911F910F9108958CE495E0BA
:1015C0000E94C40A61E080E00E94A30A8DE395E0D6
:1015D0000C94C40ABC01990F880B990B4AE00C9437
:1015E000D907CF93DF9386E490E00E94AA08811187
:1015F00081E08093040188E290E00E94AA08C82F4D
:101600000E94E9059C2F8C1708F4982F90930301F2
:101610000E94AC0880E590E00E94AA08843008F09F
:1016200081E080930C0182E390E00E94AA0883305D
:1016300008F081E08093050186E590E00E94AA0809
:10164000C82F87E590E00E94AA08D82F88E590E08F
:101650000E94AA08CF3F09F04BC0DF3F09F04AC003
:101660008F3F09F047C085E08093080186E08093B2
:10167000070182E0809306018DE792E00E94340822
:1016800090918D0210928D02EDE7F2E02DE832E0AC
:10169000819180528F3528F42E173F07C9F799237F
:1016A00081F040E150E06FE471E08DE792E00E944C
:1016B0003A2644E050E060E270E089E892E00E945F
:1016C00025268EE190E00E94AA0891E0811101C0D8
:1016D00090E09093090183E290E00E94AA0891E0D3
:1016E000811101C090E090930A01DF91CF9108959C
:1016F000C83008F0C8E0C0930801D83008F0D8E03E
:10170000D0930701883008F088E080930601D83034
:1017100029F0CD1303C098E090930701883009F4B5
:10172000ABCFC81721F0909107018913A5CF88E0AE
:10173000A1CF85ED8093BC0080915202909153021D
:10174000A0915402B09155020796A11DB11D23E04E
:10175000B695A795979587952A95D1F72091BC00C6
:1017600024FD03C01092230208954091520250912B
:1017700053026091540270915502452B462B472B22
:1017800069F30097A105B10541F02AE22A95F1F726
:1017900000C00197A109B109E1CF809151020C94D9
:1017A0002205FF920F931F93CF93DF93EC018B01E0
:1017B000F42E40E150E060E270E00E942526188A95
:1017C000C8010E948221813108F080E1482F50E059
:1017D00080E0FF2031F080E190E0841B950B95952F
:1017E0008795B8018C0F9D2F911DDF91CF911F918F
:1017F0000F91FF900C9479219F92AF92BF92CF925C
:10180000DF92EF92FF920F931F93CF93DF93CDB7A9
:10181000DEB729970FB6F894DEBF0FBECDBF982E66
:1018200059016801CB01BA010E941D2520E034E274
:1018300044E759E40E947C249E012F5F3F4F7901C9
:1018400089012091030148E00E945B21F70101908A
:101850000020E9F731978F010E191F09C6010E9478
:101860008221800F10E1181BA114B10439F0692DF9
:1018700080E00E94A30AC5010E94C40A692D812F3D
:101880000E94A30AC7010E942708C6010E94C40A39
:1018900029960FB6F894DEBF0FBECDBFDF91CF9172
:1018A0001F910F91FF90EF90DF90CF90BF90AF907E
:1018B0009F9008954F925F926F927F928F929F9226
:1018C000AF92BF92CF92DF92EF92FF920F931F934E
:1018D000CF93DF93CDB7DEB7E3970FB6F894DEBFB3
:1018E0000FBECDBF182F843009F4E1C38091F402FC
:1018F0008D7F8093F40288600E94F40911501830A3
:1019000070F4E12FF0E0E957F34F0C94F125A60CA9
:10191000F80C130D57106E10CD1041114F110E948D
:10192000FA0981E395E00E94C40A8FE295E00E94E3
:10193000C40A8AE295E00E94C40A61E080E00E9445
:10194000A30A8BE195E00E94C40A3BC04091750256
:1019500050917602609177027091780206E115E06D
:1019600030E020E080E00E94FC0B61E080E00E941B
:10197000A30A80910B01811120C00E94660428EE09
:1019800033E040E050E00E94CF2520FF16C040E148
:1019900050E060E270E0CE0101960E942526198A8F
:1019A000BE016F5F7F4F81E00E94B20A61E081E07B
:1019B0000E94A30A88E095E0C6CF8DE792E00E94DE
:1019C0002708E3960FB6F894DEBF0FBECDBFDF91B8
:1019D000CF911F910F91FF90EF90DF90CF90BF902C
:1019E000AF909F908F907F906F905F904F900895F1
:1019F00080916702811107C061E00E94A30A83E021
:101A000095E00E94C40A409175025091760260915F
:101A10007702709178020EEF14E030E020E081E070
:101A20000E94FC0BCECF0E94FA098091BA02882353
:101A300009F160E080E00E94A30A80EF94E00E9438
:101A4000C40A61E080E00E94A30A8DEE94E00E9447
:101A5000C40A8091A302813051F030F0823009F045
:101A6000B0CF81ED94E06FCF80EE94E06CCF88ED45
:101A700094E069CF8091B9028430F1F51091A3020E
:101A8000123031F1C0F4112301F187EB94E01130F1
:101A9000C9F061E080E00E94A30A82E794E013307D
:101AA00009F451CF145083E694E0123008F44BCF80
:101AB00085E594E048CF1430E1F068F080E894E0E8
:101AC000153039F70E94C40AE4CF83EC94E0FACFD2
:101AD0008AEA94E0F7CF8FE994E00E94C40A8091EB
:101AE0000B01811103C088E994E0ECCF8CE994E00C
:101AF000E9CF80E994E0E6CF853009F098C0809185
:101B00009F02813009F46AC008F463C0823009F48E
:101B100075C061E080E00E94A30A1091A30286E2F2
:101B200094E0163009F40FCF1A8A1B8A1C8A1D8A8A
:101B3000BE016E5E7F4F812F0E947608882309F4D4
:101B400062C06A897B898C899D8920E041E00E947E
:101B50002C076A8B7B8B8C8B9D8B0E941D2520E034
:101B600034E244E759E40E947C249E012F5F3F4FFA
:101B7000790189012091030140E00E945B21F70176
:101B800001900020E9F7EE19ED5FE031D0F51FE09C
:101B90001E1B86E194E0153010F48AE194E00E9467
:101BA000C40A8091A30290E001960E94EA0A84E2AE
:101BB00094E00E94C40A61E0812F0E94A30A82E29D
:101BC00094E00E94C40AC7010E9427088DE194E0B6
:101BD000BACE87E494E00E94C40A9BCF40916C0285
:101BE00050916D0260916E0270916F020CE314E0EF
:101BF00021E434E080E00E94FC0B8BCF8FE294E084
:101C0000EACF10E0CACF82E194E00E94C40A812F9B
:101C100090E001960E94EA0A80E194E00E94C40AE2
:101C200061E089E00E94A30A88E094E08CCE8111F3
:101C300036C08091A3028130E1F080F0823021F142
:101C4000833009F0BECE88EA93E00E94C40A61E0C6
:101C500080E00E94A30A89E993E075CE8BEF93E0C0
:101C60000E94C40A61E080E00E94A30A8EEE93E025
:101C70006ACE81EE93E00E94C40A61E080E00E9497
:101C8000A30A84ED93E05FCE83EC93E00E94C40A44
:101C900061E080E00E94A30A86EB93E054CE81309D
:101CA00009F08BC08091A302813009F461C030F04B
:101CB000823009F086CE0E94DE0A83CE8AE893E065
:101CC0000E94C40A61E080E00E94A30A8091A202FF
:101CD000882309F44AC0E0910401F0E0E059FD4F87
:101CE000008138E0039F80011124095E1E4FF80136
:101CF000608171818281938121E041E00E942C0703
:101D00002B013C01F80164817581868197812FEF59
:101D100041E00E942C074B015C0187E893E00E94A0
:101D2000C40A30E4C32E32E4D32E3FE0E32EF12C7C
:101D3000C301B201A70196010E94CF25CA01B901D2
:101D40004AE00E94D90785E893E00E94C40AC501D1
:101D5000B401A70196010E94CF25CA01B9014AE04A
:101D60000E94D90780E893E0EECD82E793E0EBCDC7
:101D700088E693E00E94C40A61E080E00E94A30A22
:101D80008091A2028823B1F085E693E00E94C40A04
:101D90006091030170E090E080E04AE00E94D90782
:101DA00080910301813019F082E593E0CCCD8CE580
:101DB00093E0C9CD84E493E0C6CD823009F0FCC045
:101DC0008091A302823009F47FC008F055C08823B7
:101DD00009F459C0813009F0F4CD86E193E00E9406
:101DE000C40A61E080E00E94A30A8091A2028823D5
:101DF00009F467C083E193E00E94C40AE091040102
:101E000024E0E29FF0011124E15FFE4F60817181C7
:101E10008281938120E4C22E22E4D22E2FE0E22E92
:101E2000F12CA70196010E94CF25CA01B9014AE011
:101E30000E94D90781E193E00E94C40AE091040165
:101E400034E0E39FF0011124E15FFE4F6081718176
:101E500082819381A70196010E94CF2520EA36E86E
:101E600041E050E00E94CF25CA01B9014AE00E943A
:101E7000D9078CE093E067CD833009F447C0843004
:101E800009F419CF9ECD88E393E00E94C40A61E073
:101E900080E00E94A30A8091A202882379F083E364
:101EA00093E00E94C40AE091E302F0E0EA59FE4F99
:101EB000608170E090E080E040E14FC085E293E017
:101EC00042CD8EEF92E03FCD82EF92E00E94C40AB5
:101ED00061E080E00E94A30A8091A202882399F029
:101EE0008FEE92E00E94C40A80910501882329F0B8
:101EF000813031F081EE92E026CD8AEE92E023CD62
:101F00008CED92E020CD8EEC92E01DCD81EC92E044
:101F10000E94C40A61E080E00E94A30A8091A202AC
:101F2000882309F446C08EEB92E00E94C40A809197
:101F30007C02811118C085EB92E00E94C40A809156
:101F40000801883068F483EB92E00E94C40A609133
:101F5000080170E090E080E04AE00E94D90731CDAE
:101F60008EEA92E0F0CC813091F483EA92E00E9414
:101F7000C40A80910701883038F481EA92E00E9417
:101F8000C40A60910701E5CF8CE992E0DCCC81E9DD
:101F900092E00E94C40A80910601883038F48FE8EC
:101FA00092E00E94C40A60910601D3CF8AE892E0D1
:101FB000CACC8CE792E0C7CC833009F002CD809187
:101FC000A302823009F44DC0E0F48823C9F18130C6
:101FD00009F0F7CC82E592E00E94C40A61E080E05B
:101FE0000E94A30A8091A2028823C1F18FE492E0AB
:101FF0000E94C40A8091090181112DC087E492E0FA
:10200000A2CC833009F03BCF8091A002811146C061
:1020100082EF91E00E94C40A61E080E00E94A30A7E
:102020008091A202882309F43FC08FEE91E00E94C4
:10203000C40A8091A102811134C087EE91E083CC63
:102040008FE692E00E94C40A61E080E00E94A30A49
:1020500083E692E078CC8BE492E075CC89E392E061
:1020600072CC89E292E00E94C40A61E080E00E94A2
:10207000A30A8091A202882371F086E292E00E9476
:10208000C40A80910A01811103C08EE192E05BCC09
:1020900082E292E058CC80E192E055CC80E092E080
:1020A000B9CF8BEE91E04FCC89ED91E04CCC61E063
:1020B00080E00E94A30A8EE892E00E94270861E077
:1020C000809172020E94A30A8091F402982F92607C
:1020D0009093F4028A600E94F40973CC60E080E07F
:1020E0000E94A30A8091C202882319F083ED91E037
:1020F0002ACC0E94660400919A0110919B012091C4
:102100009C0130919D016B017C01C01AD10AE20A49
:10211000F30A970186010A3F11052105310508F4EC
:1021200050CC60939A0170939B0180939C01909393
:102130009D0181ED91E00E94C40A81ED91E00E9431
:10214000C40A81ED91E00E94C40A81ED91E00E94F1
:10215000C40A81ED91E00E94C40A1091990160E0E7
:10216000812F0E94A30A009100018BEC91E00023D3
:1021700011F08EEC91E00E94C40A8FEF011181E012
:10218000810F80939901882319F0833009F019CCCD
:1021900081E008270093000114CC80910A01882374
:1021A00009F40FCC8091B9020DEB11E065EA71E002
:1021B000843020F400EB11E065E971E07E0123E258
:1021C000E20EF11C41E0C7010E94D10B6E0132E129
:1021D000C30ED11C40E0B801C6010E94D10B0E9481
:1021E000FA09B70180E00E94B20A60EB74E080E077
:1021F00090E00E94340411E0BE2CAF2CCE01019679
:102200007C0100E281E1EB2DFA2DD70101900D92C6
:102210008A95E1F7212F193008F028E0C701D7018E
:10222000F70101931F960C931F9711973E2F3E19AC
:102230003217B8F31430B8F04DEF410FD7019601C3
:10224000B601FB015191BF01FC015193CF01F9018E
:1022500057851F965C931F97215031091197562F70
:102260005C19541770F3B70180E00E94B20A66E46B
:1022700070E080E090E00E9434041F5F1C3011F693
:10228000A0CB8091A802882319F00E94FA0999CB6B
:1022900081E00E945A0C85E00E945A0C92CB8FEF8D
:1022A00090E00E94B7030E94FA09109174028EE731
:1022B00091E0112311F088E891E00E94C40A61E0E6
:1022C00080E00E94A30A82E691E0112309F43BCB4F
:1022D00081E791E00E94C40AE0910C01E6CD809173
:1022E000B80281112AC08091A202882359F010926D
:1022F000A20210927C021092A1021092A00283E02E
:102300000C945A0C8091BA02882341F01092BA02C0
:102310001092B90283E08093A302F1CF8091B902B9
:10232000811106C081E08093BA021092A302E7CF28
:102330001092B90280917302EECF08951092C802F4
:102340001092A2021092BA021092B8021092B90230
:102350001092A30210929F020E946604625A7E4F5E
:102360008F4F9F4F6093B4027093B5028093B60273
:102370009093B70281E08093B3020E945A0C85E0EB
:102380000C945A0C8091B902853051F484E080930A
:10239000B90280919F028093A30283E00C945A0CAF
:1023A0000C949E112F923F924F925F926F927F9268
:1023B0008F929F92AF92BF92CF92DF92EF92FF9255
:1023C0000F931F93CF93DF9300D01F92CDB7DEB74B
:1023D000D82EF62E042FE52E2B83862F880F898387
:1023E0001AE088248A9485EE982E95ECC92EA22EA8
:1023F000B12C922F91509A83DD2009F4F0C00E94F5
:102400000F042B013C0180912302811165C0E1E0A2
:10241000E0932302E0932502809222021092470269
:10242000FA81F0934602E093480280914802998134
:10243000892B8093480280912402813009F08BC05F
:10244000109224020E940F042B013C01809148024B
:102450008093BB008091520290915302A09154024C
:10246000B0915502892B8A2B8B2BA1F00E940F046F
:1024700020915202309153024091540250915502E2
:1024800064197509860997092617370748075907F8
:1024900008F443C08091BC0083FDD8CFC092BC003B
:1024A0000E940F042B013C0180912302813009F42A
:1024B00055C080914702EB818E1708F071C0809162
:1024C0004702E6E2F2E0AFEBB1E090E0981751F19D
:1024D00021912D939F5FFACF8091520290915302E8
:1024E000A0915402B0915502892B8A2B8B2B09F4B1
:1024F0008ACF0E940F0420915202309153024091E2
:1025000054025091550264197509860997092617D6
:1025100037074807590708F076CF809151020E948B
:10252000220580E01092500280934F02FB81F81345
:1025300039C00983C02EDE2C8C2D9981891BEB813B
:102540008E1708F007C187ED92E00E945305F6014F
:1025500081936F01F1CF9092BC00A2CF8091520283
:1025600090915302A0915402B0915502892B8A2B6D
:102570008B2B09F499CF0E940F04209152023091C5
:10258000530240915402509155026419750986090D
:102590009709261737074807590708F085CFBDCF99
:1025A0008B818FCF62E370E080E090E00E94340482
:1025B000115009F021CF8091C80281112FC160E034
:1025C00085E00E94580388E00E945A0C83E00E9434
:1025D0002F03892B09F004C10E947204F7CFF1E0A8
:1025E000F093BE01F092980110924E0210924D02AB
:1025F0008B81882339F0A501602F7E2D87ED92E035
:102600000E946D0530904D0290E281E0931508F430
:1026100099C0209098010E940F042B013C018091E9
:102620002302811169C0E2E0E0932302F1E0F0931C
:102630002502809222021092470230924602EEE971
:10264000F1E0A6E2B2E038129CC0109248028091FC
:102650004802220C282A20924802809124028130CC
:1026600009F093C0109224020E940F042B013C0138
:10267000809148028093BB00809152029091530256
:10268000A0915402B0915502892B8A2B8B2BA1F07B
:102690000E940F0420915202309153024091540243
:1026A000509155026419750986099709261737074D
:1026B0004807590708F441C08091BC0083FDD8CF7A
:1026C000C092BC000E940F042B013C0180912302A8
:1026D000823009F45DC0809122028F3F09F47AC0F4
:1026E00080912202803209F477C0809122028033E7
:1026F00009F474C084E026C0809152029091530284
:10270000A0915402B0915502892B8A2B8B2B09F48E
:1027100086CF0E940F0420915202309153024091C3
:1027200054025091550264197509860997092617B4
:1027300037074807590708F072CF809151020E946D
:10274000220585E010924E0210924D021092BE01B9
:10275000811128CF81E00F900F900F90DF91CF91E2
:102760001F910F91FF90EF90DF90CF90BF90AF90AF
:102770009F908F907F906F905F904F903F902F90A1
:10278000089591919D938F5F5ECF9092BC009ACFF8
:102790008091520290915302A0915402B09155023F
:1027A000892B8A2B8B2B09F491CF0E940F04209147
:1027B00052023091530240915402509155026419D3
:1027C000750986099709261737074807590708F03A
:1027D0007DCFB3CF80E0B6CF82E0B4CF83E0B2CF7D
:1027E0000E94720483E00E942F03892BC9F783E0C3
:1027F0000E942F03892B19F40E947204F8CF60E025
:1028000085E00E94580388E198E00FB6F894A895F7
:10281000809360000FBE90936000FFCF80E09BCF5D
:10282000CF93DF9300D0CDB7DEB78091C20288236B
:1028300091F19091080180E0983028F481E001C086
:10284000880F9A95EAF790910601983058F42091F4
:102850000B01222339F021E030E001C0220F9A95CC
:10286000EAF7822B209105012130D1F091E022304E
:1028700009F090E02EE8922B99838A83E0910C0175
:10288000F0E0EA59FE4F22E0AE014F5F5F4F6081FA
:1028900080E00E94D2110F900F90DF91CF910895A8
:1028A0002EEC90E0E8CFCF92DF92EF92FF920E9461
:1028B00066046B017C01809172028F3068F1109286
:1028C000B802109272021092A2021092BA021092F2
:1028D0009E0240E150E06EE872E08DE792E00E94D7
:1028E0003A2610928D0283E00E945A0C8EE5C80EA3
:1028F00081E0D81EE11CF11CC092B402D092B50256
:10290000E092B602F092B70281E08093B302FF90AA
:10291000EF90DF90CF9008958F5F8093720284E0F4
:10292000FF90EF90DF90CF900C945A0CE0917202E0
:10293000F0E0E257FD4F2081022E000C330B2052B5
:102940003109A901480F511D87FD5A95CA01815AC5
:102950009F4F6FE570E00E94BB25805E808384E01E
:102960000C945A0C0E94F10A6091750270917602E3
:10297000809177029091780220E041E00E942C073C
:102980006093750270937602809377029093780239
:102990001092BA021092A1021092A0021092C802E4
:1029A0001092B9020E946604625A7E4F8F4F9F4F69
:1029B0006093B4027093B5028093B6029093B7020D
:1029C00081E08093B3020E945A0C85E00C945A0C6B
:1029D00081E08093A10283E00C945A0C1092A10232
:1029E00083E00C945A0C81E080930A0183E00C94FC
:1029F0005A0C10920A0183E00C945A0C81E08093E7
:102A0000090183E00C945A0C1092090183E00C94A4
:102A10005A0C81E00E949D0783E00C945A0C8FEFC2
:102A20000E949D0783E00C945A0C8091050181302F
:102A300029F41092050183E00C945A0C8111FBCF0C
:102A400082E080930501F7CF80910501823029F45F
:102A50001092050183E00C945A0C8111FBCF81E0A8
:102A600080930501F7CF80910401811103C081E0BB
:102A7000809304010E94E9058093030183E00C9494
:102A80005A0C80910401882319F08150809304012D
:102A90000E94E9058093030183E00C945A0C809115
:102AA000E302833018F48F5F8093E30283E00C9499
:102AB0005A0C8091E302882319F081508093E3023D
:102AC00083E00C945A0C0E94E90590910301981739
:102AD00018F49F5F9093030183E00C945A0C80914B
:102AE0000301882319F081508093030183E00C9443
:102AF0005A0CE0910401F0E0E059FD4F80818630EE
:102B000028F48F5F808383E00C945A0C80E0FACF26
:102B1000E0910401F0E0E059FD4F8081882329F025
:102B20008150808383E00C945A0C86E0FACF809128
:102B3000A302823030F48F5F8093A30283E00C9471
:102B40005A0C08958091A302882331F0815080931C
:102B5000A30283E00C945A0C0895E091B90280918D
:102B6000A302E53051F4863010F48F5F01C080E09D
:102B70008093A30283E00C945A0CF0E0E05AFE4FDD
:102B800020812150330B821713067CF30895809126
:102B9000A3029091B902953051F4882311F081502D
:102BA00001C086E08093A30283E00C945A0C81114B
:102BB000F6CF08954F925F926F927F928F929F927D
:102BC000AF92BF92CF92DF92EF92FF92CF93DF93BB
:102BD00000D000D000D0CDB7DEB78D8340909001FB
:102BE000509091016090920170909301C090940177
:102BF000D0909501E0909601F09097018091670246
:102C00008823C9F18090750290907602A090770297
:102C1000B09078020E940F068E830E94F4059B01FB
:102C2000AC01D301C2018C199D09AE09BF0989838A
:102C30009A83AB83BC839E81A92FB0E00E94F725C5
:102C400029813A814B815C8126173707480759074C
:102C500010F4CA01B9013D8113160CF043C0860E71
:102C6000971EA81EB91E8092750290927602A092BD
:102C70007702B09278028091750290917602A091CD
:102C80007702B09178028C159D05AE05BF0578F1ED
:102C9000481659066A067B0610F06C017D01C09249
:102CA0007502D0927602E0927702F092780282E08A
:102CB0000E945A0C81E08093670226960FB6F89422
:102CC000DEBF0FBECDBFDF91CF91FF90EF90DF90C1
:102CD000CF90BF90AF909F908F907F906F905F90BC
:102CE0004F900895861A970AA80AB90ABCCF7301B3
:102CF0006201D5CFFF920F931F93CF93DF93EC0127
:102D0000F62E08811981C8010E94C223F81621F00D
:102D10006F2DC8010E94CA23CE01DF91CF911F9170
:102D20000F91FF900895AF92BF92CF92DF92EF92F2
:102D3000FF920F931F93CF93DF9300D0CDB7DEB7F1
:102D40008B016B0124E0C20ED11C7B015C01A61A31
:102D5000B70AC5018E0D9F1D9A838983F701619182
:102D60007F01CE0101960E947A16EC14FD0489F7CA
:102D7000C8010F900F90DF91CF911F910F91FF909D
:102D8000EF90DF90CF90BF90AF900895CF92DF92F9
:102D9000EF92FF92CF93DF93CDB7DEB728970FB6B0
:102DA000F894DEBF0FBECDBF6091750270917602C0
:102DB000809177029091780220E041E00E942C07F8
:102DC0006B017C01C0927502D0927602E09277028C
:102DD000F092780280916C0290916D02A0916E0247
:102DE000B0916F02C816D906EA06FB0629F4809155
:102DF000C802882309F477C00E94F4059B01AC0146
:102E0000C701B6010E94CF253D832E838091050125
:102E1000823009F075C09EE881E0892B8F83909104
:102E2000070180E0983028F481E001C0880F9A956E
:102E3000EAF78887E0910C01F0E0EA59FE4F24E0C0
:102E4000AE014B5F5F4F608180E00E94D21188230A
:102E500009F449C040917502509176026091770261
:102E60007091780280910401282F30E0F901E05937
:102E7000FD4F908149835A836B837C83973000F5A3
:102E80008230F0F4C0906C02D0906D02E0906E023F
:102E9000F0906F024C155D056E057F0589F0892F56
:102EA00090E0880F991F820F931F880F991F880F3A
:102EB000991FBE016F5F7F4F865A9F4F0E949316E6
:102EC0008091750290917602A0917702B09178027C
:102ED00080936C0290936D02A0936E02B0936F0288
:102EE00081E08093C30228960FB6F894DEBF0FBE30
:102EF000CDBFDF91CF91FF90EF90DF90CF900895FD
:102F00009EEC80E08ACFCF93DF9300D0CDB7DEB7C1
:102F10009A838983CE0101960E947A160F900F90B2
:102F2000DF91CF9108951F920F920FB60F92112447
:102F30002F933F938F939F93AF93BF938091CA0238
:102F40009091CB02A091CC02B091CD023091C902F8
:102F500023E0230F2D3758F50196A11DB11D2093B5
:102F6000C9028093CA029093CB02A093CC02B09383
:102F7000CD028091CE029091CF02A091D002B0916B
:102F8000D1020196A11DB11D8093CE029093CF0274
:102F9000A093D002B093D102BF91AF919F918F9136
:102FA0003F912F910F900FBE0F901F90189526E81C
:102FB000230F0296A11DB11DD2CF1F920F920FB603
:102FC0000F9211242F933F934F935F936F937F93AF
:102FD0008F939F93AF93BF93EF93FF938091B9002B
:102FE000887F803609F44AC0F0F5883209F4A7C01A
:102FF00018F5803109F49BC0B8F4882309F4F9C0AE
:10300000883009F494C0FF91EF91BF91AF919F91E7
:103010008F917F916F915F914F913F912F910F9081
:103020000FBE0F901F901895883109F488C0803228
:1030300051F78093220214C0803409F49DC040F4FB
:103040008033B9F38833F9F68093220285ECB0C05F
:10305000803509F485C0883509F496C0883499F61E
:103060000E94990BD0CF883909F48CC038F5883785
:1030700029F050F4883611F0803729F683E08093E8
:1030800023021092210257C0883809F47BC080398E
:1030900019F0803809F0B7CF80912102803208F012
:1030A00071C0E091210281E08E0F80932102809116
:1030B000BB00F0E0EF5FFD4F80833DC0803B39F007
:1030C000E0F4803A09F479C0883A09F09CCF84E0B2
:1030D00080932302109200021092FF01E0914B02B4
:1030E000F0914C0209958091FF0181110FC081E0A0
:1030F0008093FF011092DF0109C0803C09F4A6CF44
:10310000883C09F4A3CF883B09F07DCFE091000211
:1031100081E08E0F80930002F0E0E152FE4F80814B
:103120008093BB00909100028091FF0129C08091A3
:1031300048028093BB0085EC8093BC0064CF9091E3
:10314000470280914602981758F5E091470281E0C6
:103150008E0F80934702F0E0EA5DFD4F8081E9CF5A
:10316000E091470281E08E0F809347028091BB007F
:10317000F0E0EA5DFD4F8083909147028091460226
:103180009817C8F285E8D8CFE091470281E08E0F0A
:10319000809347028091BB00F0E0EA5DFD4F8083A1
:1031A0008091250281115CCF81E08093240284EA22
:1031B0008093BC001092230226CF85EC8093BC0044
:1031C0001092230280912102803230F4E09121029A
:1031D000F0E0EF5FFD4F10826091210270E0E0911E
:1031E0004902F0914A0281E092E009951092210291
:1031F0000ACF1092220234CFE7EDF2E0138212825E
:1032000088EE93E0A0E0B0E084839583A683B78343
:103210008EE691E091838083E4EEF2E013821282E5
:1032200080E891E09183808388E084838FEF8583B9
:1032300089E086838AE087838BE080878CE08187C2
:103240008DE082871386148615861686178681E0A0
:103250000E94020A80910C018093E3020895CF93AB
:10326000DF93CDB7DEB767970FB6F894DEBF0FBE1A
:10327000CDBF789484B5826084BD84B5816084BDFF
:1032800085B5826085BD85B5816085BD80916E0004
:10329000816080936E001092810080918100826035
:1032A0008093810080918100816080938100809172
:1032B00080008160809380008091B1008460809361
:1032C000B1008091B00081608093B00080917A005D
:1032D000846080937A0080917A00826080937A0083
:1032E00080917A00816080937A0080917A00806872
:1032F00080937A001092C10062E082E00E9486030F
:1033000062E083E00E94860362E084E00E9486031C
:1033100061E085E00E94860361E085E00E9486030B
:1033200061E086E00E9486031092500210924F02E4
:1033300010924E0210924D020E9404058DEA94E014
:1033400090934C0280934B028EEA94E090934A0251
:103350008093490282EF8093B8001092560288E869
:1033600093E1A0E0B0E08093520290935302A093C7
:103370005402B093550211E01093510282E00E9472
:10338000020A8FEF90E00E94B70380E00E945A0C7F
:1033900064EC79E080E090E00E94340483E00E94D5
:1033A0002F03892BB1F410930C0161E080E590E0CC
:1033B0000E9483171093740288E00E945A0C1092A6
:1033C000740264EC79E080E090E00E943404109391
:1033D000B3020E94F10A0E94C61681E00E945A0CB4
:1033E00085E00E945A0C3EEC432E55245A94652CDD
:1033F000752C40E0242E40E0342E11E00E9466043B
:103400004B015C0182E00E942F03FF24F394892B7F
:1034100009F0F12CF092C10283E00E942F0301E039
:10342000892B09F000E00093BF0284E00E942F0383
:1034300021E0892B09F020E02093C002CF2CC00EA0
:10344000DD24DD1CC601820F911D02970CF4C6C05D
:103450001092C0021092BF021092C10280925702D5
:1034600090925802A0925902B0925A028091790229
:10347000882309F4CDC01092790290E080E00E9488
:10348000B7031093A80287E00E945A0C83E00E94C1
:103490002F03892BD9F31092B2021092BF028091B0
:1034A000C80281115EC0F090C102F1100CC0809181
:1034B000BF02811108C08091C002811104C08091B7
:1034C000020181114EC00E9466044B015C012AED8D
:1034D00035E14FEF6BE772E08F2D0E9452062AED27
:1034E00035E141E06AE772E08091C0020E94520635
:1034F0008091C102811104C08091C002882351F0E3
:103500008092680290926902A0926A02B0926B0265
:103510001092020180916702882309F479C1809199
:10352000BF02882309F474C10E9466044B015C0148
:103530000E94C616109267029EE5890E91E0991EC0
:10354000A11CB11C8092B4029092B502A092B60266
:10355000B092B7021093B30281E00E945A0C10930C
:1035600002010E9466044B015C018091C10281113D
:1035700008C09091C002911104C09091BF0299239C
:1035800041F08092BB029092BC02A092BD02B09228
:10359000BE022091C802222309F47DC19091BA0293
:1035A000911179C1C090BB02D090BC02E090BD02E5
:1035B000F090BE02B501A4014C195D096E097F09A6
:1035C00041325E446105710508F465C18091B9021C
:1035D000843008F448C10E949E1174C18091570242
:1035E00090915802A0915902B0915A02881A990AF2
:1035F000AA0ABB0A22E382169104A104B10408F0CE
:1036000035CF1092C0021092BF021092C1022ECF8D
:1036100080916702811104C08091C802882349F01B
:103620001092630210926402109265021092660278
:1036300036CFF090C1020E9466044B015C01F1108C
:1036400008C08091BF02811104C08091C00288230C
:1036500091F13FEF309301018FEF90E00E94B703AB
:103660008091A8028823F9F01092A80287E00E94B6
:103670005A0C8091C10202E0811106C08091C00203
:1036800004E0811101C003E0802F0E942F03892BE9
:10369000D9F3033009F454C0043009F44CC010923B
:1036A0007B021092C1028092630290926402A09207
:1036B0006502B092660280910B01811146C01092A2
:1036C0006302109264021092650210926602809169
:1036D000A8028111E4CE809101018F3F39F04FEFB4
:1036E000409301018FEF90E00E94B70380915F0249
:1036F00090916002A0916102B0916202B501A401B3
:10370000481B590B6A0B7B0BDB01CA01883E9340B7
:10371000A105B10508F4C3CE80925F0290926002C9
:10372000A0926102B092620281E00E945A0C85E090
:103730000E945A0CB4CE10927A021092C002B3CFFB
:103740001092B2021092BF02AECF8091C2028823C3
:1037500009F466CF8091630290916402A0916502A2
:10376000B0916602892B8A2B8B2B41F480926302E5
:1037700090926402A0926502B09266028091090163
:10378000882309F48CCE8091630290916402A09109
:103790006502B091660275016401C81AD90AEA0A85
:1037A000FB0AD701C601853C9940A105B10508F483
:1037B00076CE8091A802811172CE209101012F3125
:1037C00008F46DCE40915B0250915C0260915D0205
:1037D00070915E02D501C401841B950BA60BB70B3B
:1037E000AC01BD01473051056105710508F457CEA4
:1037F0008FEF820F8093010190E00E94B7038092C7
:103800005B0290925C02A0925D02B0925E0247CE93
:103810008091680290916902A0916A02B0916B0256
:10382000881A990AAA0ABB0AA9E88A16A3E19A0685
:10383000A104B10408F495CE1092670280910201B0
:1038400081118FCE80916C0290916D02A0916E02D9
:10385000B0916F028093750290937602A0937702E5
:10386000B093780279CE1092B8020E94B21485E02B
:103870000E945A0CAEE58A0EA1E09A1EA11CB11C52
:103880008092B4029092B502A092B602B092B702B2
:103890001093B30217C09091B302992309F478C032
:1038A0008091BF0281110EC01092B3021092B20239
:1038B0001092AE021092AF021092B0021092B102BA
:1038C0001092AD028091C302882351F1E0910C0166
:1038D000F0E0EA59FE4F21E0AE014F5F5F4F60819B
:1038E00081E00E94D2118823D9F0898186FB882744
:1038F00080F98093C2028091C802811103C085E0E3
:103900000E945A0C8091C202882329F00E94101450
:1039100081111092C3026091C20285E00E94580397
:103920008091C80281112DC00E9466048090C4025B
:103930009090C502A090C602B090C7026B017C01B6
:10394000C818D908EA08FB084601570120ED82167D
:1039500027E09206A104B104A0F06093C402709322
:10396000C5028093C6029093C702E0910C01F0E07B
:10397000EA59FE4F20E050E040E0608180E00E9484
:10398000D2112114310409F439CD0E94000036CD42
:103990009091B80221117CC0911194CF8091B40212
:1039A0009091B502A091B602B091B702881699061F
:1039B000AA06BB0608F486CF8091A9029091AA02BC
:1039C000A091AB02B091AC022091BF02222309F476
:1039D00005C4892B8A2B8B2B41F48092A9029092EB
:1039E000AA02A092AB02B092AC028091A90290917F
:1039F000AA02A091AB02B091AC020097A105B1055B
:103A000009F460CF881A990AAA0ABB0AB1EB8B168F
:103A1000B4E09B06A104B10408F454CF8091A8023D
:103A2000811150CF1092A9021092AA021092AB02FB
:103A30001092AC021092A4021092A5021092A6025B
:103A40001092A7021093C80284E08093B9021092EA
:103A5000A3021092A2021092BA021092B80210921F
:103A6000A1021092A00210929F0286E00E945A0CBE
:103A700083E00E945A0C1093B3020E946604609384
:103A8000BB027093BC028093BD029093BE021ACF1A
:103A90009923D1F026E934E14FEF6BE772E00E9401
:103AA000520626E934E141E06AE772E08091C00203
:103AB0000E94520623E534E140E062EB72E080911F
:103AC000BF020E945206FECE9091BF02E090B20269
:103AD000992309F443C0E1100EC01093B202809202
:103AE000AE029092AF02A092B002B092B1021092D8
:103AF000AD02F12C19C0F090AD02F11043C040911D
:103B0000AE025091AF026091B0027091B102841A7E
:103B1000950AA60AB70A60EB861664E09606A10429
:103B2000B10470F11093AD02E091B902E43008F4F1
:103B3000C3C027EC35E14FEF6BE772E00E945206FD
:103B40002DEA35E141E06AE772E08091C0020E940F
:103B50005206EE20C9F00E94C211B4CEEE2049F206
:103B6000F090AD0271E0F7261092B2021092AE0210
:103B70001092AF021092B0021092B1021092AD02F8
:103B8000E12CD2CFE12CB5CFFF2009F49BCE809160
:103B9000B902843009F044C08091A302833030F42C
:103BA00080939F0285E08093B90278C18330C1F48D
:103BB00080910B0191E0892780930B018091C202D3
:103BC000882361F00E941014811108C080910B01BC
:103BD000A1E08A2780930B010E94101483E0DFC1CB
:103BE000843009F0F8CC1092C8021092A202109210
:103BF000BA021092B9021092A30210929F0210937F
:103C000079020E946604625A7E4F8F4F9F4F6093E5
:103C1000B4027093B5028093B6029093B70238CE87
:103C2000853009F04FCE8091A302863009F493CFFE
:103C300090919F02911116C0BE016F5F7F4F0E944D
:103C40007608882359F289819A81AB81BC8180935F
:103C5000750290937602A0937702B09378020E9447
:103C6000C616B9CC913081F4863030F40E94CC0570
:103C70006CE672E00E94931684E08093B902809112
:103C80009F028093A302AACF923009F01BCE863008
:103C900098F70E94CC055C01F12CE12C6FEFC50177
:103CA0008E0D9F1D0E948317BFEFEB1AFB0AE4E005
:103CB000EE16F10499F7E0CF9091BA02992309F436
:103CC000F0C022EA35E14FEF6BE772E00E94520646
:103CD00027E935E141E06AE772E08091C0020E9485
:103CE0005206EE2019F00E946F11ECCDFF2009F46E
:103CF000E9CD8091A3028111CAC08091B8028111DF
:103D00003DC040E150E06EE872E08DE792E00E9435
:103D10003A2610928D022DE7A22E22E0B22EF50156
:103D2000819180528F3508F0B5C29DE8C92E92E08E
:103D3000D92ECE16DF06A1F7CE0101960E943408D7
:103D400041E150E0BE016F5F7F4F8DE792E00E943E
:103D50002C26892B99F08AE0E82EF12CFB8AEA8A3E
:103D6000D5016D915D01CE0142960E947A16BFEF9A
:103D7000EB1AFB0AEBE1EE16F10481F7F0900C016F
:103D8000E091E302FE1689F0F0E0EA59FE4F20E0F0
:103D900050E040E0608180E00E94D211882309F465
:103DA00056C08091E30280930C01609170028CE315
:103DB00090E00E948317609171028DE390E00E9471
:103DC00083176091030188E290E00E94831760915D
:103DD0000C0180E590E00E9483176091040186E465
:103DE00090E00E9483176091050182E390E00E94B9
:103DF000831760910801683008F068E086E590E07C
:103E00000E94831760910701683008F068E087E539
:103E100090E00E94831760910601683008F068E026
:103E200088E590E00E948317609109018EE190E09F
:103E30000E94831760910A0183E290E00E94831739
:103E40000E94AC080E94C6160E94B2143BCDF092AC
:103E50000C011093740288E00E945A0C10927402B4
:103E60000E9466044B015C010E946604681979098E
:103E70008A099B09643C79408105910518F40E94E8
:103E80007204F2CF60E085E00E9458038ECF81304B
:103E9000D9F2823009F016CD1092BA021092A30224
:103EA0009DCE9091A202911186C0F0E0E05AFE4FA3
:103EB000B080882309F43EC080917B0281110CC040
:103EC00010937B028091A302882319F08150809384
:103ED000A30283E00E945A0C8091C002882369F1FA
:103EE00080917A02811110C010937A028091A3020E
:103EF0004B2D4150550B841715061CF48F5F809392
:103F0000A30283E00E945A0CE110EDCEFF2009F4D9
:103F1000D9CC9091B9028091A30291111EC0813039
:103F2000A1F070F08230A9F0833009F057CE1093E1
:103F3000BA02B4CF10927B02CFCF10927A02E4CFB4
:103F4000109273021093B902A9CF8093730282E09A
:103F50002ACE8093730283E026CEE92FF0E0E05A68
:103F6000FE4F20812150330B8217130629F4109243
:103F7000B9028091730285CE9330D1F4811112C0C1
:103F8000109272021093B80240E150E06DE772E0C7
:103F90008EE892E00E943A2610929E0284E00E94EF
:103FA0005A0C90CC833021F41092A1021092A002FE
:103FB0001093A20213CEE130C9F59091A302992388
:103FC000D1F0913049F1E1108ECEFF2009F47ACC86
:103FD0008091B902823009F08BC08091A3028330B6
:103FE00009F083C080917C02823008F07CC08F5F32
:103FF00080937C02F3CD28E835E14FEF6BE772E068
:104000000E94520629E735E141E06AE772E08091BB
:10401000C0020E945206D7CF2FE635E14FEF6BE783
:1040200072E00E94520623E635E1EECFE23089F5D8
:104030009091A3029130C9F070F0923001F1933069
:1040400011F62FE035E14FEF6BE772E00E94520668
:1040500029E035E1D9CF29E535E14FEF6BE772E093
:104060000E9452062FE435E1CFCF21E435E14FEF36
:104070006BE772E00E94520623E335E1C5CF24E2EC
:1040800035E14FEF6BE772E00E94520625E135E122
:10409000BBCFE33009F097CF9091A302923079F033
:1040A0009330B9F0913009F08ECF24E035E14FEF35
:1040B0006BE772E00E9452062EEF34E1A5CF29EFA4
:1040C00034E14FEF6BE772E00E94520623EF34E1D8
:1040D0009BCF2EEE34E14FEF6BE772E00E94520669
:1040E00028EE34E191CF10927C021092A20276CD9C
:1040F0008330D9F78091A3028330B9F78091A10270
:10410000882309F468C08091A002882309F45EC066
:10411000F12CE12C6FEFC7010E9483175FEFE51AC6
:10412000F50AE11464E0F606A9F70E94F10A60912D
:10413000750270917602809177029091780220E06A
:1041400041E00E942C076093750270937602809381
:1041500077029093780280910C018093E30240E112
:1041600050E06DE772E08EE892E00E943A261092ED
:104170009E0210927C0210930B01109279020E9411
:10418000C6161092C8021092A2021092BA021092A1
:10419000A1021092A0021092B9021092A3020E94F2
:1041A0006604625A7E4F8F4F9F4F6093B4027093A4
:1041B000B5028093B6029093B7021093B30281E0E8
:1041C0000E945A0C85E00E945A0C1BCD1093A0024D
:1041D0001092A10203CD1092A00287CF0097A105F3
:1041E000B10509F46FCB1092A9021092AA021092A5
:1041F000AB021092AC0275016401C81AD90AEA0A2E
:10420000FB0AD701C6018E359140A105B10508F022
:1042100059CB8091A4029091A502A091A602B091E1
:10422000A702B301A201481B590B6A0B7B0BDB01F0
:10423000CA01880D991DAA1DBB1D8092A4029092EF
:10424000A502A092A602B092A7028C329140A105CD
:10425000B10508F037CB1093C8021092B902109242
:10426000A3021092A2021092BA021092A10210921E
:10427000A00280910C018093E30240E150E06DE7E1
:1042800072E08EE892E00E943A2610929E0210920E
:104290007C02EBCB40E150E06FE471E08DE792E00F
:1042A0000E943A2644E050E060E270E089E892E043
:1042B0000E94252641CDEF920F931F93CF93DF935A
:1042C000E80134E047FD34E1042E000C550B57FFA4
:1042D00003C0519541955109E32E022F242FAE01C1
:1042E0000E948B21CE01DF91CF911F910F91EF9012
:1042F0000895FB01DC0102C005900D924150504031
:10430000D8F70895FC0105900020E9F78095909575
:104310008E0F9F1F0895A9E0B0E0E1E9F1E20C944F
:10432000DE236A01F22EB02E102FFBE3AF2EA01673
:1043300008F41BE31F5F012F27E0AE014F5F5F4FC3
:104340000E94EA22BC018981982F9970913009F46A
:104350003FC09BE2E1FC04C09E2D9170E0FC3AC09E
:104360005E2D5071E82FE87083FF46C084E0911104
:1043700001C083E0EF2DE81B8F1508F0E0E0D601C7
:104380008E2F20E2552351F1992329F0D6019C93D9
:10439000C60101966C0196012D5F3F4FE2FE24C0DD
:1043A0008EE4D6018C9391E411969C93119712960A
:1043B0008C93D9018E2F90E281111BC0E20FF32F55
:1043C000F11D10828EEF9FEF2996ECE00C94FA23FA
:1043D0009DE2C6CF90E2C4CF2D9381508111FCCFD6
:1043E000CE0ED11CE0E0D0CF8EE6D6018C9391E6C4
:1043F000DBCF9D938150E0CF482F447082FF3DC0BA
:1044000084E0911101C083E08F1510F4EF2DE81BBB
:10441000D6018E2F20E2552309F1992329F0D601E8
:104420009C93C60101966C0196012D5F3F4FE2FE01
:104430001BC089E4D6018C938EE411968C9311975E
:1044400086E412968C93D9018E2F90E2882309F48A
:10445000B5CF9D938150FACF2D9381508111FCCF20
:10446000CE0ED11CE0E0D9CF89E6D6018C938EE642
:1044700011968C93119786E6E4CF9B0177FF02C0DB
:1044800030E020E0A1E0B0E0911102C0B0E0A0E097
:10449000F9013196AE0FBF1F8B2C912CBB2009F474
:1044A00061C05401EFEFAE1ABE0AAA0DBB1DFA1689
:1044B0001B0619F014F04F2D4A1B511188C0E3FC64
:1044C00059C07601A42FB0E2A1114FC0C40ED11C77
:1044D000992309F45BC040E0D6011196F601908360
:1044E0006D01552309F448C0012F060F9A81582FFA
:1044F000507184FF03C0913309F4015010160CF081
:1045000047C0093008F008E0EEE2FE2E5B01A01A79
:10451000B10885019194819491082F3F320729F4C5
:10452000D601FC92F60131966F016217730794F180
:10453000021713077CF5DB01A21BB30BAA24A3947B
:10454000B12CAC0EBD1EAA0DBB1D11968C91215035
:104550003109D601119628153905F4F0F60180834A
:104560006D01DBCFB12CA12CA0CFF701B1937F015E
:10457000A150AACF9111B0CFD601942F50E302C021
:104580005D9391509111FCCFC40ED11C40E0ACCF93
:1045900001E0BACF80E3DBCF6217730731F49633C3
:1045A00088F4953311F4552369F0F6018083FD01F9
:1045B000842F90E2811108C0A40FB11D1C9290E0DD
:1045C00080E002CF81E3F1CF91938150F3CF91113D
:1045D00083CF8ACF283008F027E03327DA01990FFC
:1045E000311D87FD916000966105710539F43260D7
:1045F0002E5F3D9330E32A95E1F708959F3F30F019
:1046000080387105610509F03C5F3C5F3D93913056
:1046100008F08068911DDF93CF931F930F93FF9253
:10462000EF92192F987F9695E92F96959695E90F19
:10463000FF27EE53FF4F99273327EE24FF24A701CE
:10464000E70105900894079428F4360FE71EF81E3A
:10465000491F511D660F771F881F991F0694A1F7E8
:104660000590079428F4E70EF81E491F561FC11D38
:10467000770F881F991F661F0694A1F7059007946E
:1046800028F4F80E491F561FC71FD11D880F991F08
:10469000661F771F0694A1F70590079420F4490F31
:1046A000561FC71FD81F990F661F771F881F0694B4
:1046B000A9F784911095177041F0D695C795579535
:1046C0004795F794E7941A95C1F7E8E6F0E0689407
:1046D0001590159135916591959105907FE27395AF
:1046E000E118F10A430B560BC90BD009C0F7E10CD6
:1046F000F11E431F561FC91FD01D7EF4703311F4E5
:104700008A95E6CFE894015030F0080F0AF40027AC
:10471000021708F4202F2395022F7A3328F079E32B
:104720007D932A95E9F710C07D932A9589F6069422
:1047300097956795379517951794E118F10A430BEC
:10474000560BC90BD00998F023957E9173957A3357
:1047500008F070E37C932013B8F77E9170617D932D
:1047600030F0839571E37D9370E32A95E1F711248E
:10477000EF90FF900F911F91CF91DF91992787FDC7
:1047800090950895F999FECF92BD81BDF89A992729
:1047900080B50895262FF999FECF1FBA92BD81BD2D
:1047A00020BD0FB6F894FA9AF99A0FBE01960895B3
:1047B0002F923F924F925F926F927F928F929F9231
:1047C000AF92BF92CF92DF92EF92FF920F931F931F
:1047D000CF93DF93CDB7DEB7CA1BDB0B0FB6F894D0
:1047E000DEBF0FBECDBF09942A88398848885F8410
:1047F0006E847D848C849B84AA84B984C884DF8081
:10480000EE80FD800C811B81AA81B981CE0FD11D64
:104810000FB6F894DEBF0FBECDBFED01089550581E
:10482000BB27AA270E9427240C9471250E94632588
:1048300038F00E946A2520F039F49F3F19F426F4DD
:104840000C9460250EF4E095E7FB0C945A25E92FB3
:104850000E94822558F3BA176207730784079507E9
:1048600020F079F4A6F50C94A4250EF4E0950B2E17
:10487000BA2FA02D0B01B90190010C01CA01A001B2
:104880001124FF27591B99F0593F50F4503E68F10D
:104890001A16F040A22F232F342F4427585FF3CF4E
:1048A000469537952795A795F0405395C9F77EF41F
:1048B0001F16BA0B620B730B840BBAF09150A1F068
:1048C000FF0FBB1F661F771F881FC2F70EC0BA0FEE
:1048D000621F731F841F48F4879577956795B79576
:1048E000F7959E3F08F0B0CF9395880F08F0992771
:1048F000EE0F9795879508950E9490240C9471254A
:104900000E946A2558F00E94632540F029F45F3F19
:1049100029F00C945A2551110C94A5250C9460256E
:104920000E94822568F39923B1F3552391F3951BD7
:10493000550BBB27AA2762177307840738F09F5FC0
:104940005F4F220F331F441FAA1FA9F335D00E2E2D
:104950003AF0E0E832D091505040E695001CCAF79A
:104960002BD0FE2F29D0660F771F881FBB1F26175D
:1049700037074807AB07B0E809F0BB0B802DBF0134
:10498000FF2793585F4F3AF09E3F510578F00C9403
:104990005A250C94A5255F3FE4F3983ED4F3869501
:1049A00077956795B795F7959F5FC9F7880F911D24
:1049B0009695879597F90895E1E0660F771F881F10
:1049C000BB1F621773078407BA0720F0621B730BC3
:1049D000840BBA0BEE1F88F7E09508950E948A2594
:1049E00088F09F5798F0B92F9927B751B0F0E1F0B0
:1049F000660F771F881F991F1AF0BA95C9F714C060
:104A0000B13091F00E94A425B1E008950C94A42542
:104A1000672F782F8827B85F39F0B93FCCF3869598
:104A200077956795B395D9F73EF4909580957095F5
:104A300061957F4F8F4F9F4F0895E89409C097FB72
:104A40003EF490958095709561957F4F8F4F9F4F65
:104A50009923A9F0F92F96E9BB279395F6958795A9
:104A600077956795B795F111F8CFFAF4BB0F11F46C
:104A700060FF1BC06F5F7F4F8F4F9F4F16C0882313
:104A800011F096E911C0772321F09EE8872F762F49
:104A900005C0662371F096E8862F70E060E02AF08A
:104AA0009A95660F771F881FDAF7880F9695879576
:104AB00097F9089597F99F6780E870E060E008959E
:104AC0009FEF80EC089500240A9416161706180626
:104AD0000906089500240A94121613061406050602
:104AE0000895092E0394000C11F4882352F0BB0F93
:104AF00040F4BF2B11F460FF04C06F5F7F4F8F4FF6
:104B00009F4F089557FD9058440F551F59F05F3F30
:104B100071F04795880F97FB991F61F09F3F79F0DF
:104B200087950895121613061406551FF2CF469561
:104B3000F1DF08C0161617061806991FF1CF8695E3
:104B40007105610508940895E894BB2766277727C7
:104B5000CB0197F90895DB018F939F930E94F7256E
:104B6000BF91AF91A29F800D911DA39F900DB29F09
:104B7000900D1124089597FB072E16F4009407D08A
:104B800077FD09D00E94022607FC05D03EF49095DF
:104B900081959F4F0895709561957F4F0895A1E28B
:104BA0001A2EAA1BBB1BFD010DC0AA1FBB1FEE1FA7
:104BB000FF1FA217B307E407F50720F0A21BB30BF2
:104BC000E40BF50B661F771F881F991F1A9469F76E
:104BD00060957095809590959B01AC01BD01CF01CA
:104BE0000895EE0FFF1F0590F491E02D09940E94A7
:104BF0001626A59F900DB49F900DA49F800D911D2A
:104C000011240895AA1BBB1B51E107C0AA1FBB1F9B
:104C1000A617B70710F0A61BB70B881F991F5A9548
:104C2000A9F780959095BC01CD010895A29FB00190
:104C3000B39FC001A39F700D811D1124911DB29FD0
:104C4000700D811D1124911D0895DC0101C06D932B
:104C500041505040E0F70895FB01DC0141505040C5
:104C600030F08D910190801919F40020B9F7881B5C
:104C7000990B0895FB01DC014150504048F0019030
:104C80000D920020C9F701C01D9241505040E0F73D
:064C90000895F894FFCF27
:104C960001FF0102010102060501010101030200F3
:104CA6006A180000D430004007EC0380266904002F
:104CB600AB8704C095A905C0832F0500F36F0600D6
:104CC600449508004DD20800B108198074D21A80A4
:104CD600A1031C801361330090D003006D7C4D53FB
:104CE600746174696F6E204E616D6500000000008E
:104CF60004030505060760616263000000009A056B
:104D06006D05C90543056605530544050000000009
:084D1600BE0AAF04C905DC046C
:00000001FF
