:100000000C9420010C9448010C9448010C94480174
:100010000C9448010C9448010C9448010C9448013C
:100020000C9448010C9448010C9448010C9448012C
:100030000C9448010C9448010C9448010C9448011C
:100040000C9492120C9448010C9448010C944801B1
:100050000C9448010C9448010C9448010C944801FC
:100060000C94DC120C94480107634236B79BD8A766
:100070001A39685618AEBAAB558C1D3CB7CC5763CD
:10008000BD6DEDFD753EF6177231BF000000803F7B
:1000900008000000BE922449123EABAAAA2ABECD97
:1000A000CCCC4C3E00000080BEABAAAAAA3E000009
:1000B0000000BF000000803F000000000008417801
:1000C000D3BB4387D1133D190E3CC3BD4282AD2B38
:1000D0003E68EC8276BED98FE1A93E4C80EFFFBE30
:1000E00001C4FF7F3F000000000000407A10F35A77
:1000F00000A0724E18090010A5D4E80000E8764868
:10010000170000E40B54020000CA9A3B000000E113
:10011000F505000080969800000040420F000000A6
:10012000A08601000000102700000000E803000086
:1001300000006400000000000A0000000000010050
:10014000000000002C76D888DC674F0823DFC1DF71
:10015000AE59E1B1B796E5E3E453C63AE651997674
:1001600096E8E6C28426EB898C9B62ED407C6FFCAE
:10017000EFBC9C9F40F2BAA56FA5F490055A2AF7F0
:100180005C936B6CF9676DC11BFCE0E40D47FEF5F9
:1001900020E6B500D0ED902E030094357705008061
:1001A000841E080000204E0A000000C80C333333C0
:1001B000330F986E12831141EF8D2114893BE65560
:1001C00016CFFEE6DB18D1844B381BF77C1D901D43
:1001D000A4BBE424203284725E228100C9F124ECA5
:1001E000A1E53D2700000000240027002A000000B0
:1001F0000000250028002B0000000000230026003E
:100200002900040404040404040402020202020299
:1002100003030303030301020408102040800102CA
:100220000408102001020408102000000008000249
:100230000100000304070000000000000000FB13A1
:1002400011241FBECFEFD8E0DEBFCDBF13E0A0E08A
:10025000B1E0ECE6F1E402C005900D92AE34B107D6
:10026000D9F724E0AEE4B3E001C01D92AD3BB20784
:10027000E1F711E0C0E2D1E004C02197FE010E9445
:100280005420CF31D107C9F70E942E140C94B4200A
:100290000C940000833081F028F4813099F0823092
:1002A000A9F008958730A9F08830C9F08430B1F4FE
:1002B000809180008F7D03C0809180008F77809334
:1002C0008000089584B58F7784BD089584B58F7DAF
:1002D000FBCF8091B0008F778093B000089580911C
:1002E000B0008F7DF9CFCF93DF93282F30E0F90155
:1002F000E65DFD4F8491F901EA5EFD4FD491F9016D
:10030000EE5FFD4FC491CC23A1F081110E944A0100
:10031000EC2FF0E0EE0FFF1FE850FE4FA591B491D7
:10032000EC91ED2381E090E009F480E0DF91CF9142
:10033000089580E090E0FACF1F93CF93DF93282FAA
:1003400030E0F901E65DFD4F8491F901EA5EFD4F71
:10035000D491F901EE5FFD4FC491CC23A9F0162F83
:1003600081110E944A01EC2FF0E0EE0FFF1FE251D5
:10037000FE4FA591B4918FB7F894EC91111108C07C
:10038000D095DE23DC938FBFDF91CF911F9108952D
:10039000DE2BF8CFCF93DF9390E0FC01EA5EFD4FB8
:1003A00024918E5F9D4FFC0184918823D1F090E0D1
:1003B000880F991FFC01EC51FE4FA591B491FC01EF
:1003C000E251FE4FC591D491623071F49FB7F89419
:1003D0003C91822F809583238C93E8812E2B288358
:1003E0009FBFDF91CF9108958FB7F894EC912E2B9A
:1003F0002C938FBFF6CFCF93DF93EC0161E086E0C3
:100400000E94CA01209731F460E086E0DF91CF912D
:100410000C949C01CF3FD10511F461E0F6CFE0E3ED
:10042000F2E0E491E33029F140F4E130B1F0E23060
:10043000D9F0C038D1058CF7E7CFE73021F1E830AB
:1004400051F1E430B1F780918000806280938000A8
:10045000D0938B00C0938A0004C084B5806884BDAB
:10046000C7BDDF91CF91089584B5806284BDC8BDBA
:10047000F8CF80918000806880938000D0938900BD
:10048000C0938800EECF8091B00080688093B00068
:10049000C093B300E6CF8091B00080628093B0003B
:1004A000C093B400DECF3FB7F89480918F04909151
:1004B0009004A0919104B091920426B5A89B05C028
:1004C0002F3F19F00196A11DB11D3FBFBA2FA92FD3
:1004D000982F8827BC01CD01620F711D811D911DD0
:1004E00042E0660F771F881F991F4A95D1F708953C
:1004F0008F929F92AF92BF92CF92DF92EF92FF9234
:100500004B015C010E9453026B017C010E9453026B
:100510006C197D098E099F09683E7340810591051C
:10052000A8F321E0821A9108A108B10888EEC80E4C
:1005300083E0D81EE11CF11C81149104A104B104D4
:1005400029F7FF90EF90DF90CF90BF90AF909F90F2
:100550008F9008952FB7F89460918B0470918C045C
:1005600080918D0490918E042FBF0895CF92DF92D9
:10057000EF92FF920F931F930E94AA02009194049E
:100580001091950420919604309197046B017C01A1
:10059000C01AD10AE20AF30A970186010A3F11053F
:1005A00021053105B8F0609394047093950480930D
:1005B0009604909397046091930481E06827609378
:1005C000930485E01F910F91FF90EF90DF90CF9003
:1005D0000C949C011F910F91FF90EF90DF90CF90B2
:1005E000089508950895AF92BF92CF92DF92EF924F
:1005F000FF920F931F93CF93DF936C017B018B01CD
:10060000040F151FEB015E01AE18BF08C017D1071C
:1006100059F06991D601ED91FC910190F081E02DA6
:10062000C6010995892B79F7C501DF91CF911F91FB
:100630000F91FF90EF90DF90CF90BF90AF90089513
:1006400008952091CD03260F3327331F2132310522
:10065000ECF42091F103FC0190E080E0243069F09B
:1006600082E00895A091CD032191AC0143555C4FE8
:10067000A40FB52FB11D2C930196861798F3809186
:10068000CD03680F6093CD0380E0089581E0089565
:100690001092F10381E08093F3031092F20361E082
:1006A00082E10E949C0161E083E10E949C01E9EBF0
:1006B000F0E080818E7F808380818D7F808388E4DD
:1006C0008093B80085E48093BC000895CF93DF93B6
:1006D00091E0909324048823B9F0C091B800D091A0
:1006E000BA008091BC008A7B8093BC0060E082E10C
:1006F0000E949C0160E083E10E949C010E944803EB
:10070000D093BA00C093B800DF91CF9108950895B7
:10071000E0911E0480911D04E81730F4F0E0E357E7
:10072000FC4F808190E008958FEF9FEF08959091A6
:100730001E0480911D042FEF3FEF981748F4E92F16
:10074000F0E0E357FC4F208130E09F5F90931E0460
:10075000C901089580911D0490911E04891B990B75
:100760000895CF92DF92EF92FF920F931F93CF9352
:10077000DF937C01CB018A0120918C03222389F035
:10078000EB016B01C40ED51ECC15DD0569F0699136
:10079000D701ED91FC910190F081E02DC701099501
:1007A000F3CF642F0E942103C801DF91CF911F91E5
:1007B0000F91FF90EF90DF90CF900895CF93DF934C
:1007C0001F92CDB7DEB7698320918C032223F9F005
:1007D00020911B04203258F021E030E0FC013383EB
:1007E000228390E080E00F90DF91CF910895809177
:1007F0001C04E82FF0E0E459FC4F998190838F5F4F
:1008000080931C0480931B0481E090E0ECCF61E0B6
:10081000CE0101960E942103F7CF90E080E0089579
:10082000E091010184E0E89FF0011124E85FFE4FB0
:10083000608171818281938129E096958795779572
:1008400067952A95D1F733E0660F771F881F991FA8
:100850003A95D1F708958F929F92AF92BF920F93DE
:100860001F93CF93DF93CDB7DEB7A1970FB6F89460
:10087000DEBF0FBECDBF19A2423008F44AE08E01A0
:100880000F5D1F4F842E912CB12CA12CA50194013A
:100890000E941320E62FB901CA01EA3044F5E05D59
:1008A000D801EE938D01232B242B252B79F790E093
:1008B00080E0109769F0FD0101900020E9F7319781
:1008C000AF014A1B5B0BBD0185EA94E00E94F30275
:1008D000A1960FB6F894DEBF0FBECDBFDF91CF91CA
:1008E0001F910F91BF90AF909F908F900895E95CFA
:1008F000D7CFFC0101900020E9F73197AF01481BE9
:10090000590BBC0185EA94E00C94F302EF92FF923C
:100910000F931F93CF93DF937C018C01CAE0D0E04B
:10092000CE010E94951BF80181938F012196CB3156
:10093000D105B1F7C701DF91CF911F910F91FF90C2
:10094000EF9008950C94951BCF93DF93EC0160E03A
:100950008E810E949C0161E08E810E949C0160E07A
:100960008E810E949C018BE891E00197F1F7DF9165
:10097000CF910895CF92DF92EF92FF920F931F9342
:10098000CF93DF936C017C0187E0E80EF11CD0E08F
:10099000C0E0062F10E0B8010C2E02C075956795D7
:1009A0000A94E2F76170F70181917F010E949C0136
:1009B0002196C430D10579F7C601DF91CF911F91FF
:1009C0000F91FF90EF90DF90CF900C94A404CF9202
:1009D000DF92EF92FF920F931F93CF93DF93EC017F
:1009E000F62E642F8C810E949C018D818F3F19F01F
:1009F00060E00E949C010F2D10E08F8584FF25C0D0
:100A00006E0187E0C80ED11CF12CE12CB8010E2C30
:100A100002C0759567950A94E2F76170F6018191BD
:100A20006F010E949C01FFEFEF1AFF0A88E0E816B1
:100A3000F10461F7CE01DF91CF911F910F91FF90EB
:100A4000EF90DF90CF900C94A404B80184E07595EA
:100A500067958A95E1F7CE010E94BA046F2DCE0109
:100A6000DF91CF911F910F91FF90EF90DF90CF908A
:100A70000C94BA0440E0682F85EA94E00C94E704F3
:100A800081E00E943A058BE39FE10197F1F7089519
:100A9000CF93DF93823029F49091B40498609093BF
:100AA000B4048093B8041092B90480E48093BA042B
:100AB00080E18093BB0480E58093BC0461E0809179
:100AC000A9040E94CA018091AA048F3F19F061E035
:100AD0000E94CA0161E08091AB040E94CA01C5EA8C
:100AE000D4E09E01255A34408091B40484FD0BC0AB
:100AF00084E090E021962817390744F461E08E8164
:100B00000E94CA01EECF88E090E0F4CF8BE39DE035
:100B10000197F1F760E08091A9040E949C0160E0D8
:100B20008091AB040E949C018091AA048F3F19F030
:100B300060E00E949C018091B40484FD34C063E0B5
:100B400085EA94E00E94BA04CBE4D6E4CE01019792
:100B5000F1F763E085EA94E00E94BA042197F1F787
:100B600063E085EA94E00E94BA0483E592E001978D
:100B7000F1F762E085EA94E00E94BA048091B4043F
:100B800080620E943A0584E08093B5048CE00E9464
:100B90003A050E94400582E08093B60486E0DF912A
:100BA000CF910C943A0580620E943A058BE496E45A
:100BB0000197F1F78091B40480620E943A0583E5C1
:100BC00092E00197F1F78091B40480620E943A05A7
:100BD000D5CF9091B804691710F06FEF690FE62F29
:100BE000F0E0EB55FB4F9489890F80680C943A052F
:100BF00041E00E94E70481E090E00895CF92DF9207
:100C0000EF92FF9297FF18C06B017C0141E06DE20B
:100C100085EA94E00E94E70466277727CB016C19E8
:100C20007D098E099F094AE00E942B040196FF90DE
:100C3000EF90DF90CF9008954AE0FF90EF90DF9023
:100C4000CF900C942B0485ED8093BC008091200400
:100C500090912104A0912204B09123040796A11D34
:100C6000B11D23E0B695A795979587952A95D1F75D
:100C70002091BC0024FD03C01092F103089540911F
:100C80002004509121046091220470912304452B8B
:100C9000462B472B69F30097A105B10541F02AE2E5
:100CA0002A95F1F700C00197A109B109E1CF809120
:100CB0001F040C946603DF92EF92FF920F931F9331
:100CC000CF93DF93CDB7DEB729970FB6F894DEBF89
:100CD0000FBECDBFD82E60913C0470913D04809131
:100CE0003E0490913F040E94151D20E034E244E749
:100CF00059E40E946B1C9E012F5F3F4F79018901CF
:100D00002091020148E00E944019F7010190002063
:100D1000E9F78E2D8E1B6D2D835F0E94E905C701BB
:100D20000E9479048DE991E00E94790429960FB61A
:100D3000F894DEBF0FBECDBFDF91CF911F910F9111
:100D4000FF90EF90DF9008958F929F92AF92BF92A5
:100D5000CF92DF92EF92FF920E9410046B017C0110
:100D600060910201643008F063E070E07195619574
:100D70007109072E000C880B990B0E94151D9B0111
:100D8000AC0160E070E080E291E40E940B1E4B0138
:100D90005C01C701B6010E94131D20E034E244E764
:100DA00059E40E946B1C9B01AC01C501B4010E9477
:100DB0006B1C0E944F1C0E94E41C862FFF90EF903A
:100DC000DF90CF90BF90AF909F908F9008954F92FB
:100DD0005F926F927F928F929F92AF92BF92CF92CB
:100DE000DF92EF92FF921F93CF93DF93982E5B01D8
:100DF000142FE9010E94AA026B017C01F5019920E0
:100E000009F4DEC0808181112CC0C0925F03D092B2
:100E10006003E0926103F0926203C0925B03D092A0
:100E20005C03E0925D03F0925E03C0925703D092A0
:100E30005803E0925903F0925A0381E08083812F96
:100E4000FE01DF91CF911F91FF90EF90DF90CF9047
:100E5000BF90AF909F908F907F906F905F904F90DA
:100E6000099480915F0390916003A0916103B09118
:100E7000620346015701881A990AAA0ABB0A80919F
:100E80004004882309F468C0F8EE8F16F3E09F064B
:100E9000A104B10408F450C00E94A406782E0E9458
:100EA00010049B01AC01A72DB0E00E945A200E94C3
:100EB000131D20E030E04AEF53E40E946B1C2B012D
:100EC0003C01C501B401685E73408109910928EEB7
:100ED00033E040E050E00E941320CA01B9010E94B3
:100EE000131D23E333E343E35FE30E94E31B9B0112
:100EF000AC01C301B2010E946B1C0E94E41C8090F3
:100F00005B0390905C03A0905D03B0905E03A7012B
:100F10009601281939094A095B0949015A018616BF
:100F20009706A806B90640F080917A04909189044A
:100F30009923F1F081111EC0DF91CF911F91FF9095
:100F4000EF90DF90CF90BF90AF909F908F907F9069
:100F50006F905F904F90089528EE821623E09206DE
:100F6000A104B10448F360E570E080E090E0C7CFF1
:100F70008823A9F08091570390915803A0915903B9
:100F8000B0915A03A7019601281B390B4A0B5B0B42
:100F9000DA01C901883C9105A105B10568F2C0924A
:100FA0005B03D0925C03E0925D03F0925E03C0921B
:100FB0005703D0925803E0925903F0925A033FCF5F
:100FC0001082BACF7F928F929F92AF92BF92CF92B0
:100FD000DF92EF92FF920F931F93CF93DF934B011A
:100FE0005C01742E0E9410046B017C010E94131D91
:100FF0008B01D82FC92F9401A5010E94061E181637
:10100000A4F0AFEFBFE7A70196010E945A200E940B
:10101000131D8B01D82FC92F9401A5010E94661CB6
:1010200087FD03C08401DA2DCB2D61E070E080E004
:1010300090E0772031F00E94A406682F70E090E0E5
:1010400080E0A70196010E94EF1F6B017C010E94C6
:10105000131D9B01AC01B8018D2F9C2F0E946B1CAE
:101060004B015C0120E030E0A9010E94061E20E057
:1010700030E040E05FE387FD1AC0C501B4010E9483
:10108000E31B0E94DD1C9B01AC01C701B6010E945D
:10109000EF1FDF91CF911F910F91FF90EF90DF90A5
:1010A000CF90BF90AF909F908F907F900895C50193
:1010B000B4010E94E21BE5CF4F925F926F927F9244
:1010C0008F929F92AF92BF92CF92DF92EF92FF9258
:1010D000CF93DF93C82F843009F40CC28091B504FC
:1010E0008D7F8093B50488600E943A05C150C73057
:1010F00068F4EC2FF0E0E158F74F0C945420AA0864
:10110000B408D1087A0A9E0AF20A0B0B0E94400525
:101110008CEC91E00E9479048FE293E00E947904C4
:1011200088ED91E00E94790461E080E00E94E90589
:101130008DED91E0DF91CF91FF90EF90DF90CF9018
:10114000BF90AF909F908F907F906F905F904F90E7
:101150000C94790480E00E945B0661E080E00E94CC
:10116000E90588E494E0E6CF80914004811107C04E
:1011700061E00E94E9058CEE91E00E94790481E033
:101180000E945B06DF91CF91FF90EF90DF90CF90B0
:10119000BF90AF909F908F907F906F905F904F9097
:1011A00008950E94400580917B04882301F160E04E
:1011B00080E00E94E90581EF91E00E94790461E0FE
:1011C00080E00E94E9058BEF91E00E947904809114
:1011D0006B04813049F028F08230A1F683E192E07F
:1011E000A9CF8EEF91E0A6CF8BE092E0A3CF8091C4
:1011F0006C04811126C080916B048130E1F080F095
:101200008230E1F0833009F0BDCF81EF91E00E94A0
:10121000790461E080E00E94E90582E592E08ACFEE
:101220008AE192E00E94790461E080E00E94E90591
:1012300087E292E07FCF84E392E0F4CF81E492E012
:10124000F1CF813009F080C080916B04813009F4C6
:1012500059C020F0823009F4A3C094CF81E692E017
:101260000E94790461E080E00E94E90580916A04AF
:10127000882309F444C0E0910101F0E0E659FC4FF5
:10128000C08128E0C29FE0011124CF5DDE4F68815C
:1012900079818A819B8141E00E94E2072B013C0118
:1012A0006C817D818E819F8141E00E94E2074B012C
:1012B0005C018BEF91E00E94790480E4C82E82E407
:1012C000D82E8FE0E82EF12CC301B201A7019601C0
:1012D0000E943520CA01B9010E94FE0580E792E014
:1012E0000E947904C501B401A70196010E9435202E
:1012F000CA01B9010E94FE058DE991E01BCF82E78A
:1013000092E018CF80E892E00E94790461E080E0EA
:101310000E94E90580916A04882389F38BEF91E0AC
:101320000E9479046091020170E090E080E04AE060
:101330000E942B0480910201813019F088E891E02D
:10134000F9CE8FE791E0F6CE823009F0A4C080910B
:101350006B04823009F45DC0E8F4882361F18130C8
:1013600009F010CF88EB92E00E94790461E080E000
:101370000E94E90580916A04882309F28BEF91E0CD
:101380000E94790480910101882309F43FC08AE911
:1013900091E0D0CE833009F457C0843009F0F2CE0A
:1013A0008AE892E00E94790461E080E00E94E90509
:1013B00088E992E0BFCE87EA92E00E94790461E07A
:1013C00080E00E94E90580916A04882309F497CFA0
:1013D00083EB92E00E947904E091A404F0E0E35AE8
:1013E000FE4F608170E090E080E040E1DF91CF91BE
:1013F000FF90EF90DF90CF90BF90AF909F908F9035
:101400007F906F905F904F900C942B0482E991E055
:1014100091CE87EC92E00E94790461E080E00E9426
:10142000E90580916A04882309F469CF8BEF91E084
:101430000E94790480910601811103C082EA91E043
:1014400079CE8BEE92E076CE83ED92E00E94790425
:1014500061E080E00E94E90580916A04882309F434
:101460004ECF8BEF91E00E9479048091050181308D
:1014700061F040F0823061F0833009F083CE80EF7C
:1014800092E058CE80EE92E055CE88EE92E052CEB9
:1014900083EF92E04FCE833009F074CE80916B04DD
:1014A000813069F008F0D6CE8BEF92E00E9479048B
:1014B00061E080E00E94E90588E093E03BCE84E1B2
:1014C00093E00E94790461E080E00E94E905809148
:1014D0006A04882309F413CF8BEF91E00E9479040A
:1014E00080912E04811103C08BEA91E023CE87EA1C
:1014F00091E020CE61E080E00E94E90589E594E07A
:101500000E94790461E0809169030E94E90580915D
:10151000B504982F92609093B5048A60DF91CF91C3
:10152000FF90EF90DF90CF90BF90AF909F908F9003
:101530007F906F905F904F900C943A0560E080E050
:101540000E94E90580918304882319F085E293E0E5
:10155000F1CD0E94AA02C0906503D0906603E0908E
:101560006703F09068039B01AC012C193D094E09FB
:101570005F0969017A013AEFC316D104E104F1046D
:1015800008F400CE6093650370936603809367034D
:10159000909368038BE293E00E94790460E080916D
:1015A00064030E94E90580910001811118C082EB5B
:1015B00091E00E947904909100018FEF911181E0F8
:1015C00020916403820F80936403882319F0833091
:1015D00009F0D8CD81E0982790930001D3CD8FEA10
:1015E00091E0E7CF80912F04882381F0DF91CF91A4
:1015F000FF90EF90DF90CF90BF90AF909F908F9033
:101600007F906F905F904F900C94400581E00E9416
:101610005C08C5E063CD61E086E00E949C010E9409
:10162000400580912504811113C082EC91E00E9455
:10163000790461E080E00E94E90580912504882317
:1016400051F081E393E00E947904E0910701C6CE56
:1016500085EB91E0ECCF8EE393E06CCD2F923F923F
:101660004F925F926F927F928F929F92AF92BF92B2
:10167000CF92DF92EF92FF920F931F93CF93DF935E
:1016800000D01F92CDB7DEB7D82EF62E042FE52E50
:101690002B83862F880F89831AE088248A9485EE0D
:1016A000982E95ECC92EA22EB12C922F91509A8390
:1016B000DD2009F4F0C00E9453022B013C0180910F
:1016C000F103811165C0E1E0E093F103E093F303DE
:1016D0008092F00310921504FA81F0931404E093C1
:1016E0001604809116049981892B809316048091A9
:1016F000F203813009F08BC01092F2030E94530272
:101700002B013C01809116048093BB008091200442
:1017100090912104A0912204B0912304892B8A2B5B
:101720008B2BA1F00E9453022091200430912104C0
:101730004091220450912304641975098609970980
:10174000261737074807590708F443C08091BC00A3
:1017500083FDD8CFC092BC000E9453022B013C01F4
:101760008091F103813009F455C080911504EB811B
:101770008E1708F071C080911504E4EFF3E0ADE836
:10178000B3E090E0981751F121912D939F5FFACF2C
:101790008091200490912104A0912204B09123040F
:1017A000892B8A2B8B2B09F48ACF0E94530220911C
:1017B00020043091210440912204509123046419A3
:1017C000750986099709261737074807590708F04A
:1017D00076CF80911F040E94660380E010921E0461
:1017E00080931D04FB81F81339C00983C02EDE2CC1
:1017F0008C2D9981891BEB818E1708F007C188E930
:1018000094E00E949703F60181936F01F1CF9092CB
:10181000BC00A2CF8091200490912104A0912204C9
:10182000B0912304892B8A2B8B2B09F499CF0E942A
:1018300053022091200430912104409122045091C0
:10184000230464197509860997092617370748077D
:10185000590708F085CFBDCF8B818FCF62E370E051
:1018600080E090E00E947802115009F021CF809131
:10187000890481112FC160E085E00E949C0187E00E
:101880000E945C0883E00E947301892B09F004C167
:101890000E94B602F7CFF1E0F0938C03F09263035D
:1018A00010921C0410921B048B81882339F0A5012F
:1018B000602F7E2D88E994E00E94B10330901B04D4
:1018C00090E281E0931508F499C0209063030E9490
:1018D00053022B013C018091F103811169C0E2E0C8
:1018E000E093F103F1E0F093F3038092F0031092A0
:1018F000150430921404ECE6F3E0A4EFB3E03812E0
:101900009CC01092160480911604220C282A209262
:1019100016048091F203813009F093C01092F20313
:101920000E9453022B013C01809116048093BB005E
:101930008091200490912104A0912204B09123046D
:10194000892B8A2B8B2BA1F00E945302209120041B
:1019500030912104409122045091230464197509A7
:1019600086099709261737074807590708F441C021
:101970008091BC0083FDD8CFC092BC000E9453026E
:101980002B013C018091F103823009F45DC080910C
:10199000F0038F3F09F47AC08091F003803209F49C
:1019A00077C08091F003803309F474C084E026C0CE
:1019B0008091200490912104A0912204B0912304ED
:1019C000892B8A2B8B2B09F486CF0E9453022091FE
:1019D0002004309121044091220450912304641981
:1019E000750986099709261737074807590708F028
:1019F00072CF80911F040E94660385E010921C0440
:101A000010921B0410928C03811128CF81E00F905B
:101A10000F900F90DF91CF911F910F91FF90EF905A
:101A2000DF90CF90BF90AF909F908F907F906F90FE
:101A30005F904F903F902F90089591919D938F5F6D
:101A40005ECF9092BC009ACF8091200490912104A7
:101A5000A0912204B0912304892B8A2B8B2B09F4AB
:101A600091CF0E9453022091200430912104409193
:101A700022045091230464197509860997092617D1
:101A800037074807590708F07DCFB3CF80E0B6CFBE
:101A900082E0B4CF83E0B2CF0E94B60283E00E941E
:101AA0007301892BC9F783E00E947301892B19F414
:101AB0000E94B602F8CF60E085E00E949C0188E1B8
:101AC00098E00FB6F894A895809360000FBE9093AD
:101AD0006000FFCF80E09BCFCF92DF92EF92FF922A
:101AE0000E94AA026B017C01809169038F3068F12A
:101AF00010927A041092690310926A0410927B0487
:101B00001092690440E150E069E574E088E494E0F3
:101B10000E94A5201092580483E00E945C088CE289
:101B2000C80E81E0D81EE11CF11CC0927604D09250
:101B30007704E0927804F092790481E08093750450
:101B4000FF90EF90DF90CF9008958F5F80936903AF
:101B500084E0FF90EF90DF90CF900C945C08E091D0
:101B60006903F0E0E75AFB4F2081022E000C330B93
:101B700020523109A901480F511D87FD5A95CA010C
:101B8000805A9F4F60E670E00E94FF1F805E808356
:101B900084E00C945C0810926A0483E00C945C0866
:101BA0008091060191E089278093060183E00C94DF
:101BB0005C0880912E0491E0892780932E0483E0B5
:101BC0000C945C0880912E0491E0892780932E0468
:101BD00083E00C945C0880910501833018F48F5FDA
:101BE0008093050183E00C945C08809105018823B3
:101BF00019F081508093050183E00C945C0880917A
:101C0000060191E089278093060183E00C945C082B
:101C100081E08093010182E08093020183E00C94D3
:101C20005C081092010180910201833018F483E076
:101C30008093020183E00C945C088091A4048330BB
:101C400018F48F5F8093A40483E00C945C08809167
:101C5000A404882319F081508093A40483E00C9499
:101C60005C0880910201282F30E0909101019923B6
:101C700039F0223031053CF082E006C083E004C038
:101C800023303105DCF78F5F8093020183E00C94F1
:101C90005C0880910201882361F08150990B2091AA
:101CA0000101222359F022E030E0281739070CF413
:101CB000C9018093020183E00C945C0823E030E0CA
:101CC000F4CFE0910101F0E0E659FC4F80818630CD
:101CD00010F48F5F808383E00C945C08E091010135
:101CE000F0E0E659FC4F8081882311F08150808319
:101CF00083E00C945C0880916C0481111FC080917A
:101D00006B04813079F030F0823081F0833091F0D3
:101D100083E043C01092560381E080936C041092DC
:101D20006B04F6CF8093560382E0F7CF809356037F
:101D300083E0F3CF81E080937B04F1CF813059F4CD
:101D400080916B04823069F410926C048091560388
:101D500080936B04DDCF823041F480916B0484303A
:101D600099F381E080936A04D3CF8330D1F78091D7
:101D70006B04823049F38111F4CF1092690381E042
:101D800080937A0440E150E068E474E089E594E0EF
:101D90000E94A5201092690484E00C945C08809154
:101DA0006B04823030F48F5F80936B0483E00C947B
:101DB0005C08089580916B04882331F081508093F2
:101DC0006B0483E00C945C0808954F925F926F92CD
:101DD0007F928F929F92AF92BF92CF92DF92EF92BB
:101DE000FF92CF93DF9300D000D000D0CDB7DEB705
:101DF0008D83C0905203D0905303E0905403F09031
:101E0000550380904E0390904F03A0905003B090E4
:101E10005103809140048823E9F180913C04909122
:101E20003D04A0913E04B0913F0489839A83AB8323
:101E3000BC830E94A4068E830E9410049B01AC0107
:101E400026013701481859086A087B089E81A92F86
:101E5000B0E00E945A209B01AC0142165306640672
:101E6000750610F4A30192018D81A82F880FBB0B7A
:101E70000E94652049805A806B807C80460E571EE8
:101E8000681E791E40923C0450923D0460923E04CC
:101E900070923F0480913C0490913D04A0913E04D7
:101EA000B0913F0488159905AA05BB0550F1C816E5
:101EB000D906EA06FB0610F4D501C40180933C0460
:101EC00090933D04A0933E04B0933F0482E00E94AF
:101ED0005C0881E08093400426960FB6F894DEBF3C
:101EE0000FBECDBFDF91CF91FF90EF90DF90CF90ED
:101EF000BF90AF909F908F907F906F905F904F902A
:101F00000895D701C601DACF4F925F926F927F9208
:101F10008F929F92AF92BF92CF92DF92EF92FF92F9
:101F20000F931F93CF93DF9300D000D0CDB7DEB7D0
:101F30008CE390E00E94A204873008F082E0809356
:101F40006A038DE390E00E94A204873008F082E0EB
:101F500080936B03D09001010D2D10E0F801E6593C
:101F6000FC4FC08088E0C89E70011124F701EF5D2E
:101F7000FE4F3F01608171818281938141E00E9427
:101F8000E2074B015C0180924E0390924F03A092B6
:101F90005003B0925103F30164817581868197816A
:101FA00041E00E94E2072B013C0140925203509213
:101FB00053036092540370925503F6E0FC1508F445
:101FC00052C081E08D1508F44EC0000F111F000FA4
:101FD000111F065A1F4F0E0D1F1D6E0195E0C90EF1
:101FE000D11CFE0131967F010E1B1F0BC8018E0D07
:101FF0009F1D0E94951BF70181937F01EC15FD0544
:10200000A9F769817A818B819C81681579058A0598
:102010009B0560F0461657066806790638F00E9460
:10202000151D40E00E94E2074B015C0180923C04D8
:1020300090923D04A0923E04B0923F040F900F9006
:102040000F900F90DF91CF911F910F91FF90EF9024
:10205000DF90CF90BF90AF909F908F907F906F90C8
:102060005F904F90089560E070E0CB01CECF86E4A2
:1020700090E00E94A204811181E0809301010E94FE
:10208000840F88E290E00E94A204843010F48093D0
:10209000020180E590E00E94A204843008F081E013
:1020A0008093070182E390E00E94A20491E08111F5
:1020B00001C090E09093060185E590E00E94A204A3
:1020C000843008F083E08093050188E494E00E9466
:1020D00086048091580410925804E8E4F4E028E55E
:1020E00034E0919190322CF02E173F07D1F78823DE
:1020F00081F040E150E060E171E088E494E00E940A
:10210000A52044E050E060E270E084E594E00E94A5
:1021100090208EE190E00E94A20491E0811101C024
:1021200090E090932E0408950E94371060913C0433
:1021300070913D0480913E0490913F040E94151DD2
:1021400041E00E94E20760933C0470933D04809359
:102150003E0490933F0410927B04109289041092E5
:102160006C0481E00C945C08FF920F931F93CF9353
:10217000DF93EC01F62E08811981C8010E94951B9E
:10218000F81621F06F2DC8010E949D1BCE01DF9132
:10219000CF911F910F91FF9008958F929F92AF92D0
:1021A000BF92CF92DF92EF92FF920F931F93CF9344
:1021B000DF93CDB7DEB72A970FB6F894DEBF0FBE18
:1021C000CDBFC0903C04D0903D04E0903E04F09020
:1021D0003F048091380490913904A0913A04B09161
:1021E0003B04C816D906EA06FB0629F48091890447
:1021F000882309F477C00E9410049B01AC01C70139
:10220000B6010E9413203D832E838EEC8F831886A7
:102210007E0185E0E80EF11CE0910701F0E0E35A51
:10222000FE4F24E0A701608180E00E942E0B8823EE
:1022300009F458C040913C0450913D0460913E0423
:1022400070913F0430910101032F10E0F801E6592D
:10225000FC4F208149835A836B837C83273078F538
:10226000323068F58090380490903904A0903A0498
:10227000B0903B04481559056A057B0501F1000F34
:10228000111F000F111F065A1F4F98E0299F900140
:102290001124020F131FFE0131966F010E1B1F0B3D
:1022A000C8018C0D9D1D9A878987F60161916F0188
:1022B000CE0109960E94B410CE14DF0489F78091F4
:1022C0003C0490913D04A0913E04B0913F04809362
:1022D000380490933904A0933A04B0933B0481E00E
:1022E000809384042A960FB6F894DEBF0FBECDBF4C
:1022F000DF91CF911F910F91FF90EF90DF90CF90E2
:10230000BF90AF909F908F900895CF92DF92EF9201
:10231000FF920F931F93CF93DF93CDB7DEB76397F1
:102320000FB6F894DEBF0FBECDBF80916B04811154
:10233000D8C080917A04811137C040E150E069E54E
:1023400074E088E494E00E94A5201092580488E488
:10235000E82E84E0F82E88E594E0F7012191203200
:102360000CF4CFC08E179F07C9F7CE0101960E94CB
:10237000860441E150E0BE016F5F7F4F88E494E046
:102380000E949720892B81F00AE010E01B8B0A8BBA
:10239000F70161917F01CE0142960E94B4100F5F58
:1023A0001F4F0B31110591F710910701E091A40423
:1023B0001E1789F0F0E0E35AFE4F20E050E040E0C5
:1023C000608180E00E942E0B882309F469C080910F
:1023D000A4048093070160916A038CE390E09A83E0
:1023E0008983CE0101960E94B41060916B038DE346
:1023F00090E09A838983CE0101960E94B410609187
:10240000020188E290E09A838983CE0101960E94BE
:10241000B4106091070180E590E09A838983CE0132
:1024200001960E94B4106091010186E490E09A83C5
:102430008983CE0101960E94B4106091060182E367
:1024400090E09A838983CE0101960E94B410609136
:10245000050185E590E09A838983CE0101960E946B
:10246000B41060912E048EE190E09A838983CE01AE
:1024700001960E94B4100E94840F0E94CD100E9409
:10248000941063960FB6F894DEBF0FBECDBFDF91F8
:10249000CF911F910F91FF90EF90DF90CF90089513
:1024A0001093070181E08093250487E00E945C0877
:1024B000109225040E94AA026B017C010E94AA02CC
:1024C0006C197D098E099F09643C7940810591054D
:1024D00018F40E94B602F2CF60E085E00E949C01F1
:1024E0007ACF813021F485E00E945C08C8CF823029
:1024F00041F610927B0410926B0483E00E945C080A
:10250000C0CF40E150E060E171E088E494E00E94D7
:10251000A52044E050E060E270E084E594E00E9491
:10252000902023CF1F920F920FB60F9211242F935A
:102530003F938F939F93AF93BF9380918B04909120
:102540008C04A0918D04B0918E0430918A0423E014
:10255000230F2D3758F50196A11DB11D20938A0434
:1025600080938B0490938C04A0938D04B0938E047D
:1025700080918F0490919004A0919104B091920465
:102580000196A11DB11D80938F0490939004A09398
:102590009104B0939204BF91AF919F918F913F911D
:1025A0002F910F900FBE0F901F90189526E8230FC4
:1025B0000296A11DB11DD2CF1F920F920FB60F929E
:1025C00011242F933F934F935F936F937F938F9338
:1025D0009F93AF93BF93EF93FF938091B900887F50
:1025E000803609F44AC0F0F5883209F4A7C018F51E
:1025F000803109F49BC0B8F4882309F4F9C088300D
:1026000009F494C0FF91EF91BF91AF919F918F9189
:102610007F916F915F914F913F912F910F900FBEDE
:102620000F901F901895883109F488C0803251F7B7
:102630008093F00314C0803409F49DC040F48033CB
:10264000B9F38833F9F68093F00385ECB0C0803598
:1026500009F485C0883509F496C0883499F60E943B
:102660002306D0CF883909F48CC038F5883729F093
:1026700050F4883611F0803729F683E08093F10317
:102680001092EF0357C0883809F47BC0803919F0E5
:10269000803809F0B7CF8091EF03803208F071C025
:1026A000E091EF0381E08E0F8093EF038091BB00F8
:1026B000F0E0E153FC4F80833DC0803B39F0E0F413
:1026C000803A09F479C0883A09F09CCF84E080937D
:1026D000F1031092CE031092CD03E0911904F09112
:1026E0001A0409958091CD0381110FC081E0809378
:1026F000CD031092AD0309C0803C09F4A6CF883CFD
:1027000009F4A3CF883B09F07DCFE091CE0381E0AF
:102710008E0F8093CE03F0E0E355FC4F80818093D1
:10272000BB009091CE038091CD0329C08091160407
:102730008093BB0085EC8093BC0064CF909115041E
:1027400080911404981758F5E091150481E08E0FDC
:1027500080931504F0E0EC50FC4F8081E9CFE091CC
:10276000150481E08E0F809315048091BB00F0E08A
:10277000EC50FC4F808390911504809114049817BD
:10278000C8F285E8D8CFE091150481E08E0F8093E0
:1027900015048091BB00F0E0EC50FC4F80838091E9
:1027A000F30381115CCF81E08093F20384EA80938C
:1027B000BC001092F10326CF85EC8093BC001092F0
:1027C000F1038091EF03803230F4E091EF03F0E009
:1027D000E153FC4F10826091EF0370E0E091170429
:1027E000F09118048FEC93E009951092EF030ACF53
:1027F0001092F00334CFE8E9F4E01382128288EEFD
:1028000093E0A0E0B0E084839583A683B78385E658
:1028100091E091838083E5EAF4E01382128287E7F6
:1028200091E09183808388E084838FEF858389E0C2
:1028300086838AE087838BE080878CE081878DE0C8
:1028400082871386148615861686178681E00E9475
:102850004805809107018093A4040895CF93DF93E6
:1028600000D000D000D01F92CDB7DEB7789484B5E9
:10287000826084BD84B5816084BD85B5826085BD7C
:1028800085B5816085BD80916E00816080936E000A
:1028900010928100809181008260809381008091FC
:1028A00081008160809381008091800081608093AD
:1028B00080008091B10084608093B1008091B0006D
:1028C00081608093B00080917A00846080937A0068
:1028D00080917A00826080937A0080917A00816092
:1028E00080937A0080917A00806880937A001092B9
:1028F000C10062E082E00E94CA0162E083E00E94BF
:10290000CA0162E084E00E94CA0161E085E00E94A1
:10291000CA0161E085E00E94CA0161E086E00E9490
:10292000CA0110921E0410921D0410921C041092F1
:102930001B040E94480381EF92E090931A04809355
:10294000190482EF92E0909318048093170482EFA9
:102950008093B8001092240488E893E1A0E0B0E0EE
:102960008093200490932104A0932204B093230425
:1029700011E010931F0482E00E9448058FEF90E061
:102980000E94FB0180E00E945C0864EC79E080E03A
:1029900090E00E94780283E00E947301892BC1F4C9
:1029A0001093070180E590E09A83898361E0CE016E
:1029B00001960E94B4101093250487E00E945C08E1
:1029C0001092250464EC79E080E090E00E947802A7
:1029D0000E9437100E94CD1081E00E945C0885E0C3
:1029E0000E945C089EEC492E55245A94652C752C47
:1029F00011E084E2282E0E94AA026B017C0182E091
:102A00000E94730133243394892B09F0312C3092C6
:102A1000820483E00E94730101E0892B09F000E049
:102A20000093800484E00E94730121E0892B09F067
:102A300020E020938104832C800E9924991CC401EA
:102A4000820F911D02970CF455C1109281041092CF
:102A5000800410928204C0922604D0922704E0924F
:102A60002804F092290480914004811108C08091CB
:102A70008904811104C080918304811155C1109291
:102A80003404109235041092360410923704809169
:102A9000890481115CC03090820431100CC0809197
:102AA0008004811108C080918104811104C080914B
:102AB000040181114CC00E94AA026B017C0125EE29
:102AC0003EE04FEF67E474E0832D0E94E70625EEB9
:102AD0003EE041E066E474E0809181040E94E706F4
:102AE00080918204811104C080918104882351F077
:102AF000C0924104D0924204E0924304F092440414
:102B00001092040180914004882309F409C2809145
:102B10008004882309F404C20E94AA026B017C018C
:102B20000E94CD10109240049CE2C90E91E0D91E83
:102B3000E11CF11CC0927604D0927704E0927804F4
:102B4000F092790481E00E945C08109304010E94D5
:102B5000AA026B017C0180918204811108C09091CE
:102B60008104911104C090918004992341F0C09296
:102B70007C04D0927D04E0927E04F0927F04209148
:102B80008904222309F4F7C190917B049111F3C1C8
:102B900080907C0490907D04A0907E04B0907F048F
:102BA000B701A601481959096A097B0941325E44F7
:102BB0006105710508F4DFC110927A0485E00E9476
:102BC0005C080E949410ACE2CA0EA1E0DA1EE11C7F
:102BD000F11CC0927604D0927704E0927804F092CF
:102BE00079041093750480918404882309F449C002
:102BF000E0910701F0E0E35AFE4F21E0AE014D5FA6
:102C00005F4F608181E00E942E0B8823D1F18B8180
:102C100086FB882780F98093830480918904811141
:102C200003C085E00E945C088091830460E08823F3
:102C300029F180910601882309F4B3C28EEC8983BF
:102C400080910501813009F4B0C208F4ACC2823031
:102C500009F4AEC2833009F4AEC2E0910701F0E09E
:102C6000E35AFE4F22E0AE014F5F5F4F608180E08C
:102C70000E942E0B81111092840461E085E00E9475
:102C80009C018091890481112DC00E94AA02C090EC
:102C90008504D0908604E0908704F09088044B016E
:102CA0005C018C189D08AE08BF087501640120ED19
:102CB000C21627E0D206E104F104A0F06093850477
:102CC000709386048093870490938804E0910701B1
:102CD000F0E0E35AFE4F20E050E040E0608180E009
:102CE0000E942E0B40E050E0452B09F484CE0E9458
:102CF00000007FCE8091260490912704A0912804A3
:102D0000B0912904C81AD90AEA0AFB0A22E3C216BA
:102D1000D104E104F10408F0A6CE109281041092CF
:102D20008004109282049FCE0E94AA026B017C0153
:102D30008091340490913504A0913604B091370409
:102D4000892B8A2B8B2BB9F483E00E947301892B8A
:102D500051F482E00E947301892B29F084E00E94E3
:102D60007301892B89F7C0923404D0923504E09224
:102D70003604F092370420918004222309F4BDC068
:102D800040913004509131046091320470913304C9
:102D9000411551056105710509F08EC0C0923004DE
:102DA000D0923104E0923204F09233049091820484
:102DB000911106C0211104C080918104882391F1F2
:102DC000AFEFA09303018FEF90E00E94FB01809191
:102DD0002F048823F9F010922F0486E00E945C08EB
:102DE0008091820402E0811106C08091810404E098
:102DF000811101C003E0802F0E947301892BD9F358
:102E0000033009F488C0043009F480C010924704EC
:102E100010928204C0923404D0923504E0923604B9
:102E2000F092370480912E04882309F430CE8091EB
:102E3000340490913504A0913604B09137044601D2
:102E40005701881A990AAA0ABB0AD501C401853C10
:102E50009940A105B10508F41ACE80912F04811183
:102E600016CE209103012F3108F411CE40912A048F
:102E700050912B0460912C0470912D04D701C60150
:102E8000841B950BA60BB70BAC01BD014730510558
:102E90006105710508F4FBCD8FEF820F809303016C
:102EA00090E00E94FB01C0922A04D0922B04E09291
:102EB0002C04F0922D04EBCDD701C601841B950B99
:102EC000A60BB70BAC01BD014D3D55406105710529
:102ED00008F46CCF90912F04911168CF90E080E0BE
:102EE0000E94FB0110932F0486E00E945C0883E09F
:102EF0000E947301892BD9F3CACD1092300410922D
:102F00003104109232041092330450CF10924604D0
:102F1000109281047FCF10924504109280047ACFE2
:102F20008091410490914204A0914304B0914404E3
:102F3000C81AD90AEA0AFB0AA9E8CA16A3E1DA06FE
:102F4000E104F10408F403CE1092400480910401DE
:102F50008111FDCD8091380490913904A0913A04FB
:102F6000B0913B0480933C0490933D04A0933E04B5
:102F7000B0933F04E7CD90917504992339F0809187
:102F80008004811130CE109275042DCE90917A0478
:102F900021112BC0911127CE809176049091770456
:102FA000A0917804B0917904C816D906EA06FB0608
:102FB00008F419CE8091710490917204A091730469
:102FC000B091740420918004222309F4F6C0892B67
:102FD0008A2B8B2B09F007CEC0927104D092720419
:102FE000E0927304F0927404FECD9923D1F02FEA9D
:102FF0003DE04FEF67E474E00E94E7062FEA3DE012
:1030000041E066E474E0809181040E94E7062CE6CA
:103010003DE040E065E474E0809180040E94E706B2
:10302000E2CD90917B04992399F02AED3EE04FEF99
:1030300067E474E00E94E7062FEC3EE041E066E4BE
:1030400074E0809181040E94E70625E831E1E1CF38
:10305000E0916C0490916A04911137C0F0E0E75A56
:10306000FE4FF080882359F18091470481110CC0F4
:103070001093470480916B04882319F0815080934A
:103080006B0483E00E945C08809181048823D1F066
:1030900080914604811110C01093460480916B0406
:1030A0006F2D6150770B861717061CF48F5F809386
:1030B0006B0483E00E945C082BE73EE0AACF1092ED
:1030C0004704E2CF10924604F7CFE13021F590910A
:1030D0006B04992329F09130A1F02BEC3DE099CFBE
:1030E0002EE63EE04FEF67E474E00E94E70621E63B
:1030F0003EE041E066E474E0809181040E94E706CE
:10310000ECCF29E43EE04FEF67E474E00E94E7066D
:1031100021E33EE0EECFE23091F590916B049130E7
:10312000C9F070F0923001F19330B9F625EF3DE02F
:103130004FEF67E474E00E94E7062BEE3DE0D9CF45
:1031400027E23EE04FEF67E474E00E94E7062DE1DE
:103150003EE0CFCF21E13EE04FEF67E474E00E9414
:10316000E70628E03EE0C5CF20ED3DE040E067E423
:1031700074E00E94E7062FEF3DE040E0BBCFE33074
:1031800009F0ABCF90916B04913009F0A6CF22EEFD
:103190003DE040E067E474E00E94E70629ED3DE091
:1031A000ECCF8EE84CCD1A8258CD84E08A8355CD81
:1031B00070E27A8352CD2A8250CD0097A105B105E5
:1031C00009F411CD109271041092720410927304DC
:1031D0001092740446015701881A990AAA0ABB0A78
:1031E000D501C4018C329140A105B10508F0FBCC9A
:1031F00080916D0490916E04A0916F04B091700461
:10320000B301A201481B590B6A0B7B0BDB01CA01FE
:103210008C0D9D1DAE1DBF1DC0926D04D0926E041D
:10322000E0926F04F09270048A3F9105A105B10508
:1032300008F0D9CC1093890410926C0410926B049E
:1032400010926A0410927B04809107018093A40479
:1032500040E150E068E474E089E594E00E94A52034
:103260001092690483E00E945C0810937504C09278
:103270007C04D0927D04E0927E04F0927F04B3CC73
:10328000EF920F931F93CF93DF93E80134E047FD54
:1032900034E1042E000C550B57FF03C051954195A6
:1032A0005109E32E022F242FAE010E945E19CE0198
:1032B000DF91CF911F910F91EF900895A9E0B0E0B9
:1032C000E4E6F9E10C94B11B6A01F22EB02E102F46
:1032D000FBE3AF2EA01608F41BE31F5F012F27E0CE
:1032E000AE014F5F5F4F0E94BD1ABC018981982FCC
:1032F0009970913009F43FC09BE2E1FC04C09E2D1F
:103300009170E0FC3AC05E2D5071E82FE87083FFA9
:1033100046C084E0911101C083E0EF2DE81B8F15BA
:1033200008F0E0E0D6018E2F20E2552351F19923D9
:1033300029F0D6019C93C60101966C0196012D5F80
:103340003F4FE2FE24C08EE4D6018C9391E41196A7
:103350009C93119712968C93D9018E2F90E2811134
:103360001BC0E20FF32FF11D10828EEF9FEF299605
:10337000ECE00C94CD1B9DE2C6CF90E2C4CF2D9320
:1033800081508111FCCFCE0ED11CE0E0D0CF8EE673
:10339000D6018C9391E6DBCF9D938150E0CF482FEF
:1033A000447082FF3DC084E0911101C083E08F151D
:1033B00010F4EF2DE81BD6018E2F20E2552309F1E2
:1033C000992329F0D6019C93C60101966C019601C0
:1033D0002D5F3F4FE2FE1BC089E4D6018C938EE443
:1033E00011968C93119786E412968C93D9018E2FA7
:1033F00090E2882309F4B5CF9D938150FACF2D93A5
:1034000081508111FCCFCE0ED11CE0E0D9CF89E6EE
:10341000D6018C938EE611968C93119786E6E4CFB5
:103420009B0177FF02C030E020E0A1E0B0E0911105
:1034300002C0B0E0A0E0F9013196AE0FBF1F8B2CA7
:10344000912CBB2009F461C05401EFEFAE1ABE0A03
:10345000AA0DBB1DFA161B0619F014F04F2D4A1BBE
:10346000511188C0E3FC59C07601A42FB0E2A1112C
:103470004FC0C40ED11C992309F45BC040E0D601B3
:103480001196F60190836D01552309F448C0012F70
:10349000060F9A81582F507184FF03C0913309F4AD
:1034A000015010160CF047C0093008F008E0EEE2B9
:1034B000FE2E5B01A01AB1088501919481949108B8
:1034C0002F3F320729F4D601FC92F60131966F01A5
:1034D0006217730794F1021713077CF5DB01A21B37
:1034E000B30BAA24A394B12CAC0EBD1EAA0DBB1D18
:1034F00011968C9121503109D60111962815390564
:10350000F4F0F60180836D01DBCFB12CA12CA0CFAC
:10351000F701B1937F01A150AACF9111B0CFD6018D
:10352000942F50E302C05D9391509111FCCFC40ED3
:10353000D11C40E0ACCF01E0BACF80E3DBCF621713
:10354000730731F4963388F4953311F4552369F0F9
:10355000F6018083FD01842F90E2811108C0A40F41
:10356000B11D1C9290E080E002CF81E3F1CF9193F6
:103570008150F3CF911183CF8ACF283008F027E014
:103580003327DA01990F311D87FD9160009661059F
:10359000710539F432602E5F3D9330E32A95E1F7EF
:1035A00008959F3F30F080387105610509F03C5F58
:1035B0003C5F3D93913008F08068911DDF93CF937D
:1035C0001F930F93FF92EF92192F987F9695E92FF3
:1035D00096959695E90FFF27EC5BFE4F99273327C9
:1035E000EE24FF24A701E70105900894079428F42E
:1035F000360FE71EF81E491F511D660F771F881FE3
:10360000991F0694A1F70590079428F4E70EF81E79
:10361000491F561FC11D770F881F991F661F0694EB
:10362000A1F70590079428F4F80E491F561FC71FED
:10363000D11D880F991F661F771F0694A1F705906B
:10364000079420F4490F561FC71FD81F990F661FF4
:10365000771F881F0694A9F784911095177041F081
:10366000D695C79557954795F794E7941A95C1F75E
:10367000EAEEF0E068941590159135916591959179
:1036800005907FE27395E118F10A430B560BC90BC5
:10369000D009C0F7E10CF11E431F561FC91FD01DF2
:1036A0007EF4703311F48A95E6CFE894015030F03F
:1036B000080F0AF40027021708F4202F2395022F81
:1036C0007A3328F079E37D932A95E9F710C07D934A
:1036D0002A9589F6069497956795379517951794C7
:1036E000E118F10A430B560BC90BD00998F023954A
:1036F0007E9173957A3308F070E37C932013B8F7CA
:103700007E9170617D9330F0839571E37D9370E3DA
:103710002A95E1F71124EF90FF900F911F91CF911F
:10372000DF91992787FD90950895F999FECF92BD75
:1037300081BDF89A992780B50895262FF999FECF73
:103740001FBA92BD81BD20BD0FB6F894FA9AF99ABE
:103750000FBE019608952F923F924F925F926F9203
:103760007F928F929F92AF92BF92CF92DF92EF9211
:10377000FF920F931F93CF93DF93CDB7DEB7CA1B92
:10378000DB0B0FB6F894DEBF0FBECDBF09942A88BD
:10379000398848885F846E847D848C849B84AA8465
:1037A000B984C884DF80EE80FD800C811B81AA81F2
:1037B000B981CE0FD11D0FB6F894DEBF0FBECDBFBD
:1037C000ED0108955058BB27AA270E94FA1B0C94BC
:1037D000B41D0E94A61D38F00E94AD1D20F039F4E2
:1037E0009F3F19F426F40C94A31D0EF4E095E7FB1B
:1037F0000C94741DE92F0E94C51D58F3BA17620777
:1038000073078407950720F079F4A6F50C94FF1D43
:103810000EF4E0950B2EBA2FA02D0B01B9019001EB
:103820000C01CA01A0011124FF27591B99F0593F2F
:1038300050F4503E68F11A16F040A22F232F342F77
:103840004427585FF3CF469537952795A795F040C5
:103850005395C9F77EF41F16BA0B620B730B840BDA
:10386000BAF09150A1F0FF0FBB1F661F771F881F92
:10387000C2F70EC0BA0F621F731F841F48F48795EA
:1038800077956795B795F7959E3F08F0B0CF9395DC
:10389000880F08F09927EE0F9795879508950E9455
:1038A000E71D90F09F3748F4911116F40C94001E18
:1038B00060E070E080E89FE3089526F01B16611D2C
:1038C000711D811D0C947A1D0C94951D0E94501D34
:1038D00008F481E008950E947F1C0C94B41D0E949E
:1038E000AD1D58F00E94A61D40F029F45F3F29F05D
:1038F0000C94741D51110C94001E0C94A31D0E9475
:10390000C51D68F39923B1F3552391F3951B550B0E
:10391000BB27AA2762177307840738F09F5F5F4FA2
:10392000220F331F441FAA1FA9F335D00E2E3AF0E1
:10393000E0E832D091505040E695001CCAF72BD0F9
:10394000FE2F29D0660F771F881FBB1F261737074A
:103950004807AB07B0E809F0BB0B802DBF01FF277C
:1039600093585F4F3AF09E3F510578F00C94741DC8
:103970000C94001E5F3FE4F3983ED4F38695779550
:103980006795B795F7959F5FC9F7880F911D969535
:10399000879597F90895E1E0660F771F881FBB1F91
:1039A000621773078407BA0720F0621B730B840B3E
:1039B000BA0BEE1F88F7E09508950E94E41C689406
:1039C000B1110C94001E08950E94CD1D88F09F57E0
:1039D00098F0B92F9927B751B0F0E1F0660F771F33
:1039E000881F991F1AF0BA95C9F714C0B13091F029
:1039F0000E94FF1DB1E008950C94FF1D672F782FE2
:103A00008827B85F39F0B93FCCF3869577956795ED
:103A1000B395D9F73EF490958095709561957F4F59
:103A20008F4F9F4F0895E89409C097FB3EF49095FF
:103A30008095709561957F4F8F4F9F4F9923A9F087
:103A4000F92F96E9BB279395F69587957795679516
:103A5000B795F111F8CFFAF4BB0F11F460FF1BC05A
:103A60006F5F7F4F8F4F9F4F16C0882311F096E9ED
:103A700011C0772321F09EE8872F762F05C066239B
:103A800071F096E8862F70E060E02AF09A95660F54
:103A9000771F881FDAF7880F9695879597F908950D
:103AA000990F0008550FAA0BE0E8FEEF161617064F
:103AB000E807F907C0F012161306E407F50798F0B7
:103AC000621B730B840B950B39F40A2661F0232BD0
:103AD000242B252B21F408950A2609F4A140A6954C
:103AE0008FEF811D811D089597F99F6780E870E031
:103AF00060E00895882371F4772321F09850872B94
:103B0000762F07C0662311F499270DC09051862B9C
:103B100070E060E02AF09A95660F771F881FDAF749
:103B2000880F9695879597F908959F3F31F09150AA
:103B300020F4879577956795B795880F911D969591
:103B4000879597F908959FEF80EC089500240A94D3
:103B50001616170618060906089500240A94121668
:103B60001306140605060895092E0394000C11F49B
:103B7000882352F0BB0F40F4BF2B11F460FF04C048
:103B80006F5F7F4F8F4F9F4F089557FD9058440FA1
:103B9000551F59F05F3F71F04795880F97FB991FAC
:103BA00061F09F3F79F08795089512161306140669
:103BB000551FF2CF4695F1DF08C0161617061806F6
:103BC000991FF1CF869571056105089408950E94AB
:103BD000CD1DA0F0BEE7B91788F4BB279F3860F46D
:103BE0001616B11D672F782F8827985FF7CF869517
:103BF00077956795B11D93959639C8F30895E89424
:103C0000BB2766277727CB0197F908950E94501D9F
:103C100008F48FEF0895FA01EE0FFF1F309621058B
:103C20003105A1F16115710561F48038BFE39B078F
:103C300049F168949038810561F08038BFEF9B07A7
:103C400041F099234AF5FF3FE1053105210519F1BE
:103C5000E8940894E795D901AA2329F4AB2FBE2F45
:103C6000F85FD0F310C0FF5F70F4A695E0F7F73966
:103C700050F019F0FF3A38F49F779F930DD00F90D2
:103C800007FC9058089546F00C94A31D60E070E086
:103C900080E89FE308954FE79F775F934F933F93AB
:103CA0002F930E94061F2F913F914F915F910E9489
:103CB000821F0C94631E29F416F00C94741D0C944E
:103CC000FF1D0C94A31D0E94CD1DA8F39638A0F7EC
:103CD00007F80F92E8942BE33AEA48EB5FE70E947B
:103CE000981F0F920F920F924DB75EB70F920E94DE
:103CF0004E1FE8E6F0E00E94951E4F915F91EF9114
:103D0000FF91E595EE1FFF1F49F0FE57E06844273D
:103D1000EE0F441FFA95E1F74195550B0E94C81E1E
:103D20000F9007FE0C94BC1E0895DF93CF931F9352
:103D30000F93FF92EF92DF927B018C01689406C093
:103D4000DA2EEF010E94951FFE01E894A5912591BE
:103D5000359145915591A6F3EF010E94FA1BFE01A2
:103D60009701A801DA9469F7DF90EF90FF900F9127
:103D70001F91CF91DF9108959B01AC0160E070E04D
:103D800080E89FE30C946B1C0C94741D0C94951D9F
:103D90000E94CD1DD8F39923C9F3940F511DA3F3AD
:103DA0009150504094F059F0882332F0660F771FFD
:103DB000881F91505040C1F79E3F51052CF7880F46
:103DC000911D9695879597F908955F3FACF0983EC1
:103DD0009CF0BB27869577956795B79508F4B160F9
:103DE0009395C1F7BB0F58F711F460FFE8CF6F5FF1
:103DF0007F4F8F4F9F4FE3CF0C94001E16F00C9413
:103E0000951D0C94A31D68940C94741D0E94CD1DE7
:103E1000A8F39923C1F3AEF3DF93CF931F930F93CE
:103E2000FF92C92FDD2788232AF02197660F771F7D
:103E3000881FDAF720E030E040E85FEB9FE3883945
:103E400020F0803E38F021968F770E94E31BE0E956
:103E5000F0E004C00E94E31BEDEBF0E00E94951E31
:103E60008B01BE01EC01FB2E6F5771097595771F11
:103E7000880B990B0E94151D28E132E741E35FE3AF
:103E80000E94951FAF2D9801AE01FF900F911F91D9
:103E9000CF91DF910E94FA1B0C94B41DFA01DC0152
:103EA000AA0FBB1F9B01AC01BF5728F42227332761
:103EB0004427507820C0B75190F4AB2F002446958A
:103EC00037952795011CA395D2F3002071F0220F9E
:103ED000331F441FB395DAF30ED00C94E21B61300C
:103EE0007105A0E88A07B94630F49B01AC0166274A
:103EF000772788279078309621F02083318342837A
:103F0000538308950E94951F0C94B41D0E94A61D12
:103F100038F00E94AD1D20F0952311F00C94741D13
:103F20000C94A31D11240C94001E0E94C51D70F357
:103F3000959FC1F3950F50E0551F629FF001729F4E
:103F4000BB27F00DB11D639FAA27F00DB11DAA1F5D
:103F5000649F6627B00DA11D661F829F2227B00DAA
:103F6000A11D621F739FB00DA11D621F839FA00D35
:103F7000611D221F749F3327A00D611D231F849F85
:103F8000600D211D822F762F6A2F11249F575040DC
:103F90009AF0F1F088234AF0EE0FFF1FBB1F661F57
:103FA000771F881F91505040A9F79E3F510580F020
:103FB0000C94741D0C94001E5F3FE4F3983ED4F300
:103FC000869577956795B795F795E7959F5FC1F7C4
:103FD000FE2B880F911D9695879597F90895DB0123
:103FE0008F939F930E945A20BF91AF91A29F800D03
:103FF000911DA39F900DB29F900D1124089597FBE2
:10400000072E16F4009407D077FD09D00E946D208A
:1040100007FC05D03EF4909581959F4F08957095CB
:1040200061957F4F0895A1E21A2EAA1BBB1BFD01CB
:104030000DC0AA1FBB1FEE1FFF1FA217B307E40787
:10404000F50720F0A21BB30BE40BF50B661F771FDF
:10405000881F991F1A9469F76095709580959095BF
:104060009B01AC01BD01CF010895052E97FB1EF405
:1040700000940E944C2057FD07D00E94132007FC9B
:1040800003D04EF40C944C205095409530952195DA
:104090003F4F4F4F5F4F0895909580957095619574
:1040A0007F4F8F4F9F4F0895EE0FFF1F0590F491A4
:1040B000E02D09940E948120A59F900DB49F900D42
:1040C000A49F800D911D11240895B7FF0C945A20D0
:1040D0000E945A20821B930B0895AA1BBB1B51E11F
:1040E00007C0AA1FBB1FA617B70710F0A61BB70B68
:1040F000881F991F5A95A9F780959095BC01CD010D
:104100000895A29FB001B39FC001A39F700D811DB0
:104110001124911DB29F700D811D1124911D0895D0
:10412000DC0101C06D9341505040E0F70895FB0160
:10413000DC014150504030F08D910190801919F40C
:104140000020B9F7881B990B0895FB01DC01415051
:10415000504048F001900D920020C9F701C01D9217
:0C41600041505040E0F70895F894FFCF64
:10416C00010102FF01030101006A180000D43000B4
:10417C0053746174696F6E204E616D6500000000B0
:10418C0000D0017B4CD0248D4C60F5904CB832B5EE
:10419C004C78F0A54C60FECD4C4054094DD0240D0C
:1041AC004D8845C84DA493D64D0C1DE04D4E844D05
:1041BC004E0024744CDAF89A4E04030503606162D5
:1041CC006300000000DE03B1030D048703AA03970C
:1041DC0003880300000000F805F3020D04200320FF
:1041EC00646563696D616C0020646563696D616C05
:1041FC007300312E36204D487A00332E32204D4834
:10420C007A006C6F7720006F6E20006F6666003E40
:10421C003E003C3C004932432046414C4C42414319
:10422C004B00493243204552524F5200504C4C20C7
:10423C00436F6E74726F6C0056322E330028432914
:10424C0032303235204C6F656E6965005345542011
:10425C000045584954204D454E55003E2000736191
:10426C007665206368616E6765730064697363616A
:10427C0072640063616E63656C0056434F20534556
:10428C005454494E47530053455420746F20656E67
:10429C0074657200504C4C2053455454494E47534E
:1042AC000047454E4552414C2053455454494E47C6
:1042BC00530053455420746F2070726F63656564AE
:1042CC00004652455155454E43592042414E4400FB
:1042DC002D0053455420746F2073656C6563740016
:1042EC00505245434953494F4E0045584954205369
:1042FC00455454494E47530053455420746F206322
:10430C006F6E6669726D00493243204144445245D8
:10431C005353003E203078005854414C20465245AF
:10432C005155454E4359004348415247452050553D
:10433C004D50004F555450555420504F525453002B
:10434C00616C6C206C6F7700503220686967680074
:10435C0050322F50352068696768005354415449D6
:10436C004F4E204E414D450053455420746F2065EF
:10437C00646974004241434B4C49474854204449BA
:10438C004D4D4552004C4F434B2000202020202007
:10439C0000726573746F72696E67203078005345D4
:0E43AC005420746F2072657374617274000087
:00000001FF
