:100000000C943D020C9465020C9465020C946502FC
:100010000C9465020C9465020C9465020C946502C4
:100020000C9465020C9465020C9465020C946502B4
:100030000C9465020C9465020C9465020C946502A4
:100040000C94A3140C9465020C9465020C94650244
:100050000C9465020C9465020C9465020C94650284
:100060000C94ED140C94650200407A10F35A00A031
:10007000724E18090010A5D4E80000E87648170071
:1000800000E40B54020000CA9A3B000000E1F505B1
:10009000000080969800000040420F000000A086FB
:1000A00001000000102700000000E803000000002D
:1000B0006400000000000A000000000001000000D1
:1000C00000002C76D888DC674F0823DFC1DFAE59EB
:1000D000E1B1B796E5E3E453C63AE651997696E87E
:1000E000E6C28426EB898C9B62ED407C6FFCEFBC02
:1000F0009C9F40F2BAA56FA5F490055A2AF75C932D
:100100006B6CF9676DC11BFCE0E40D47FEF520E662
:10011000B500D0ED902E0300943577050080841E45
:10012000080000204E0A000000C80C333333330FA0
:10013000986E12831141EF8D2114893BE65516CF3D
:10014000FEE6DB18D1844B381BF77C1D901DA4BB49
:10015000E424203284725E228100C9F124ECA1E5FE
:100160003D2753455420746F207265737461727417
:1001700000726573746F72696E672030780049325F
:1001800043204552524F52004932432046414C4C85
:100190004241434B003C3C003E3E002020202020BA
:1001A000004C4F434B200053455420746F20636F25
:1001B0006E6669726D004558495420534554544940
:1001C0004E47530053455420746F2073656C65632C
:1001D00074006F6666006F6E20003E20004241434F
:1001E0004B4C494748542044494D4D4552005345D6
:1001F0005420746F20656469740053544154494F0E
:100200004E204E414D450053455420746F20636F7E
:100210006E6669726D0045584954205345545449DF
:100220004E47530053455420746F2073656C6563CB
:1002300074006E6F6E6500500052462064726976DD
:10024000653A20006E6F6E65005000756E6C6F63CE
:100250006B65643A20006E6F6E650050006C6F63D2
:100260006B65643A20003E2000504F5254204D41AF
:100270005050494E470053455420746F2073656CAD
:1002800065637400686967680064697361626C65BE
:1002900064006C6F7720003E200043484152474580
:1002A0002050554D500053455420746F2073656C99
:1002B00065637400204D487A002E003E200058549B
:1002C000414C204652455155454E435900534554E3
:1002D00020746F2073656C656374003E2030780075
:1002E000493243204144445245535300534554201E
:1002F000746F20636F6E6669726D004558495420B3
:1003000053455454494E47530053455420746F206D
:1003100073656C6563740020646563696D616C73FB
:100320000020646563696D616C003E200050524599
:10033000434953494F4E0053455420746F20736511
:100340006C65637400204D487A002D003E20004605
:1003500052455155454E43592042414E4400534564
:100360005420746F2070726F63656564004558494E
:1003700054204D454E550053455420746F20656EF2
:100380007465720047454E4552414C2053455454C4
:10039000494E47530053455420746F20656E746571
:1003A0007200504C4C2053455454494E475300530F
:1003B000455420746F20656E7465720056434F205B
:1003C00053455454494E47530063616E63656C0056
:1003D0006469736361726400736176652063686148
:1003E0006E676573003E200045584954204D454EC8
:1003F0005500534554200028432932303236204CD2
:100400006F656E69650056332E30002000504C4CED
:1004100020436F6E74726F6C00204D487A000000AC
:100420000000240027002A0000000000250028000A
:100430002B0000000000230026002900040404040F
:10044000040404040202020202020303030303037E
:10045000010204081020408001020408102001025B
:100460000408102000000008000201000003040737
:1004700000000000000000000C1611241FBECFEF8A
:10048000D8E0DEBFCDBF11E0A0E0B1E0ECE6F0E4E3
:1004900002C005900D92A238B107D9F722E0A2E878
:1004A000B1E001C01D92AE3EB207E1F712E0CDE32C
:1004B000D2E004C02197FE010E94DC1FCC33D1079B
:1004C000C9F70E943F160C9434200C94000083302E
:1004D00081F028F4813099F08230A9F008958730B6
:1004E000A9F08830C9F08430B1F4809180008F7D0C
:1004F00003C0809180008F7780938000089584B539
:100500008F7784BD089584B58F7DFBCF8091B00037
:100510008F778093B00008958091B0008F7DF9CFE0
:10052000CF93DF93282F30E0F901EC59FB4F8491F2
:10053000F901E05BFB4FD491F901E45CFB4FC491FE
:10054000CC23A1F081110E946702EC2FF0E0EE0FA6
:10055000FF1FEE5CFB4FA591B491EC91ED2381E080
:1005600090E009F480E0DF91CF91089580E090E081
:10057000FACF1F93CF93DF93282F30E0F901EC5986
:10058000FB4F8491F901E05BFB4FD491F901E45CEE
:10059000FB4FC491CC23A9F0162F81110E94670252
:1005A000EC2FF0E0EE0FFF1FE85DFB4FA591B4913B
:1005B0008FB7F894EC91111108C0D095DE23DC932D
:1005C0008FBFDF91CF911F910895DE2BF8CFCF938E
:1005D000DF9390E0FC01E05BFB4F2491845C9B4F38
:1005E000FC0184918823D1F090E0880F991FFC01D1
:1005F000E25EFB4FA591B491FC01E85DFB4FC59114
:10060000D491623071F49FB7F8943C91822F809519
:1006100083238C93E8812E2B28839FBFDF91CF917A
:1006200008958FB7F894EC912E2B2C938FBFF6CFB3
:10063000CF93DF93EC0161E086E00E94E702209710
:1006400031F460E086E0DF91CF910C94B902CF3FA6
:10065000D10511F461E0F6CFEAE6F4E0E491E3308D
:1006600029F140F4E130B1F0E230D9F0C038D105E1
:100670008CF7E7CFE73021F1E83051F1E430B1F702
:1006800080918000806280938000D0938B00C09323
:100690008A0004C084B5806884BDC7BDDF91CF9156
:1006A000089584B5806284BDC8BDF8CF8091800074
:1006B000806880938000D0938900C0938800EECF3B
:1006C0008091B00080688093B000C093B300E6CF03
:1006D0008091B00080628093B000C093B400DECF00
:1006E0003FB7F8948091C0029091C102A091C202DC
:1006F000B091C30226B5A89B05C02F3F19F0019603
:10070000A11DB11D3FBFBA2FA92F982F8827BC016B
:10071000CD01620F711D811D911D42E0660F771F93
:10072000881F991F4A95D1F708958F929F92AF9293
:10073000BF92CF92DF92EF92FF924B015C010E9439
:1007400070036B017C010E9470036C197D098E0996
:100750009F09683E734081059105A8F321E0821A44
:100760009108A108B10888EEC80E83E0D81EE11CEC
:10077000F11C81149104A104B10429F7FF90EF90BA
:10078000DF90CF90BF90AF909F908F9008952FB73C
:10079000F8946091BC027091BD028091BE0290916C
:1007A000BF022FBF0895CF92DF92EF92FF920F9377
:1007B0001F930E94C7030091C5021091C6022091A9
:1007C000C7023091C8026B017C01C01AD10AE20A4B
:1007D000F30A970186010A3F110521053105B8F09A
:1007E0006093C5027093C6028093C7029093C802BB
:1007F0006091C40281E068276093C40285E01F9184
:100800000F91FF90EF90DF90CF900C94B9021F9161
:100810000F91FF90EF90DF90CF9008950895089585
:10082000AF92BF92CF92DF92EF92FF920F931F93FE
:10083000CF93DF936C017B018B01040F151FEB013C
:100840005E01AE18BF08C017D10759F06991D601F3
:10085000ED91FC910190F081E02DC6010995892B65
:1008600079F7C501DF91CF911F910F91FF90EF9024
:10087000DF90CF90BF90AF90089508952091FD0133
:10088000260F3327331F21323105ECF4209121024A
:10089000FC0190E080E0243069F082E00895A091AE
:1008A000FD012191AC0143525E4FA40FB52FB11D44
:1008B0002C930196861798F38091FD01680F609341
:1008C000FD0180E0089581E008951092210281E009
:1008D000809323021092220261E082E10E94B90219
:1008E00061E083E10E94B902E9EBF0E080818E7F54
:1008F000808380818D7F808388E48093B80085E445
:100900008093BC000895CF93DF9391E090935402BD
:100910008823B9F0C091B800D091BA008091BC0092
:100920008A7B8093BC0060E082E10E94B90260E0B3
:1009300083E10E94B9020E946504D093BA00C0937B
:10094000B800DF91CF9108950895E0914E02809113
:100950004D02E81730F4F0E0E354FE4F808190E060
:1009600008958FEF9FEF089590914E0280914D0270
:100970002FEF3FEF981748F4E92FF0E0E354FE4FD4
:10098000208130E09F5F90934E02C90108958091CD
:100990004D0290914E02891B990B0895CF92DF92E0
:1009A000EF92FF920F931F93CF93DF937C01CB01C4
:1009B0008A012091BC01222389F0EB016B01C40E56
:1009C000D51ECC15DD0569F06991D701ED91FC913B
:1009D0000190F081E02DC7010995F3CF642F0E94AB
:1009E0003E04C801DF91CF911F910F91FF90EF90CE
:1009F000DF90CF900895CF93DF931F92CDB7DEB7EE
:100A000069832091BC012223F9F020914B0220320E
:100A100058F021E030E0FC013383228390E080E055
:100A20000F90DF91CF91089580914C02E82FF0E074
:100A3000E456FE4F998190838F5F80934C028093A0
:100A40004B0281E090E0ECCF61E0CE0101960E9484
:100A50003E04F7CF90E080E00895E091020184E049
:100A6000E89FF0011124E55EFE4F60817181828173
:100A7000938123E0660F771F881F991F2A95D1F76E
:100A800039E096958795779567953A95D1F70895CA
:100A90008F929F92AF92BF92CF92DF92EF92FF928E
:100AA000CF93C0910301C43008F0C3E080E4C82EA6
:100AB00082E4D82E8FE0E82EF12C9AE0892E912C3A
:100AC000A12CB12CCC2351F0C701B601A501940192
:100AD0000E94BA1F69017A01C150F4CF0E942D050E
:100AE0009B01AC01C20ED31EE41EF51EC701B60168
:100AF00061507109810991090E94BA1F822FCF911B
:100B0000FF90EF90DF90CF90BF90AF909F908F902D
:100B100008954F925F926F927F928F929F92AF92C1
:100B2000BF92CF92DF92EF92FF921F93CF93DF930A
:100B3000982E5B01142FE9010E94C7036B017C0111
:100B4000F501992009F4BFC08081811124C0C092B1
:100B50008F01D0929001E0929101F0929201C092A7
:100B60008B01D0928C01E0928D01F0928E0181E098
:100B70008083812FFE01DF91CF911F91FF90EF9035
:100B8000DF90CF90BF90AF909F908F907F906F90AD
:100B90005F904F90099480918F0190919001A09166
:100BA0009101B091920146015701881A990AAA0A47
:100BB000BB0A80917002882309F468C0F8EE8F1692
:100BC000F3E09F06A104B10408F450C00E94480558
:100BD000782E0E942D059B01AC01A72DB0E00E944C
:100BE000E21F0E94081F20E030E04AEF53E40E9419
:100BF000671E2B013C01C501B401685E7340810989
:100C0000910928EE33E040E050E00E94BA1FCA018B
:100C1000B9010E94081F23E333E343E35FE30E942B
:100C2000FB1D9B01AC01C301B2010E94671E0E9423
:100C3000D91E80908B0190908C01A0908D01B09076
:100C40008E01A7019601281939094A095B09490152
:100C50005A0186169706A806B90640F02091AB0205
:100C60003091BA023323F1F021111EC0DF91CF91F0
:100C70001F91FF90EF90DF90CF90BF90AF909F902B
:100C80008F907F906F905F904F90089528EE82161E
:100C900023E09206A104B10448F360E570E080E02F
:100CA00090E0C7CF222331F038EC83169104A104E1
:100CB000B104E0F2C0928B01D0928C01E0928D01E0
:100CC000F0928E0156CF1082D1CF4F925F926F92E9
:100CD0007F928F929F92AF92BF92CF92DF92EF92CC
:100CE000FF92CF932B013C01C42F0E942D054B0195
:100CF0005C017C016B01481459046A047B0478F0A0
:100D0000AFEFBFE7AC019B010E94E21F6B017C01CA
:100D10004C145D046E047F0410F47301620161E001
:100D200070E080E090E0CC2331F00E944805682F0D
:100D300070E090E080E0A50194010E94961F4B01B5
:100D40005C0196958795779567956C0D7D1D8E1D39
:100D50009F1DA50194010E94BA1FC501B4010E9404
:100D6000961FCF91FF90EF90DF90CF90BF90AF9004
:100D70009F908F907F906F905F904F9008958F928B
:100D80009F92AF92BF920F931F93CF93DF93CDB7F4
:100D9000DEB7A1970FB6F894DEBF0FBECDBF19A284
:100DA000423008F44AE08E010F5D1F4F842E912CD3
:100DB000B12CA12CA50194010E94BA1FE62FB90104
:100DC000CA01EA3044F5E05DD801EE938D01232B92
:100DD000242B252B79F790E080E0109769F0FD0136
:100DE00001900020E9F73197AF014A1B5B0BBD0171
:100DF00086ED92E00E941004A1960FB6F894DEBF33
:100E00000FBECDBFDF91CF911F910F91BF90AF90DB
:100E10009F908F900895E95CD7CFFC01019000204E
:100E2000E9F73197AF01481B590BBC0186ED92E001
:100E30000C941004EF92FF920F931F93CF93DF93C4
:100E40007C018C01CAE0D0E0CE010E94AD1DF8010A
:100E500081938F012196CB31D105B1F7C701DF9185
:100E6000CF911F910F91FF90EF9008950C94AD1DBD
:100E70004F925F926F927F928F929F92AF92BF92AA
:100E8000CF92DF92EF92FF920F931F93CF93DF9356
:100E900000D000D0CDB7DEB78CE390E00E943607DB
:100EA000873008F082E080939A018DE390E00E9401
:100EB0003607873008F082E080939B019090020112
:100EC000092D10E0F801E656FE4F808088E0889EEC
:100ED00050011124F501ED5DFE4F3F0160817181EC
:100EE0008281938141E00E9465066B017C01C09282
:100EF0008201D0928301E0928401F0928501F30196
:100F0000648175818681978141E00E9465062B018D
:100F10003C01409286015092870160928801709254
:100F20008901F6E0F81508F450C081E0891508F44D
:100F30004CC0000F111F000F111F065A1F4F0A0D42
:100F40001B1D4E0195E0890E911CFE0131965F013B
:100F50000E1B1F0BC8018A0D9B1D0E94AD1DF501C4
:100F600081935F01E815F905A9F769817A818B8181
:100F70009C816C157D058E059F0550F04616570621
:100F80006806790628F040E00E9465066B017C0146
:100F9000C0926C02D0926D02E0926E02F0926F02EB
:100FA0000F900F900F900F90DF91CF911F910F91A5
:100FB000FF90EF90DF90CF90BF90AF909F908F9079
:100FC0007F906F905F904F900895C114D104E10419
:100FD000F104F1F660E070E0CB01D5CFCF93DF9361
:100FE000EC0160E08E810E94B90261E08E810E9476
:100FF000B90260E08E810E94B9028BE891E001970E
:10100000F1F7DF91CF910895CF92DF92EF92FF92A7
:101010000F931F93CF93DF936C017C0187E0E80E61
:10102000F11CD0E0C0E0062F10E0B8010C2E02C089
:10103000759567950A94E2F76170F70181917F01D8
:101040000E94B9022196C430D10579F7C601DF911B
:10105000CF911F910F91FF90EF90DF90CF900C9464
:10106000EE07CF92DF92EF92FF920F931F93CF93F1
:10107000DF93EC01F62E642F8C810E94B9028D81E2
:101080008F3F19F060E00E94B9020F2D10E08F85AC
:1010900084FF25C06E0187E0C80ED11CF12CE12C25
:1010A000B8010E2C02C0759567950A94E2F761703D
:1010B000F60181916F010E94B902FFEFEF1AFF0A5A
:1010C00088E0E816F10461F7CE01DF91CF911F911E
:1010D0000F91FF90EF90DF90CF900C94EE07B80146
:1010E00084E0759567958A95E1F7CE010E94040822
:1010F0006F2DCE01DF91CF911F910F91FF90EF9057
:10110000DF90CF900C94040840E0682F86ED92E0C9
:101110000C94310881E00E9484088BE39FE10197E1
:10112000F1F70895CF93DF93823029F49091E5028F
:1011300098609093E5028093E9021092EA0280E4BD
:101140008093EB0280E18093EC0280E58093ED02D6
:1011500061E08091DA020E94E7028091DB028F3F1A
:1011600019F061E00E94E70261E08091DC020E94D8
:10117000E702C6EDD2E09E01265D32408091E50295
:1011800084FD0BC084E090E021962817390744F4D1
:1011900061E08E810E94E702EECF88E090E0F4CF1C
:1011A0008BE39DE00197F1F760E08091DA020E9405
:1011B000B90260E08091DC020E94B9028091DB02FA
:1011C0008F3F19F060E00E94B9028091E50284FD32
:1011D00034C063E086ED92E00E940408CBE4D6E4DC
:1011E000CE010197F1F763E086ED92E00E940408DA
:1011F0002197F1F763E086ED92E00E94040883E511
:1012000092E00197F1F762E086ED92E00E94040817
:101210008091E50280620E94840884E08093E60267
:101220008CE00E9484080E948A0882E08093E70292
:1012300086E0DF91CF910C94840880620E9484083C
:101240008BE496E40197F1F78091E50280620E94B9
:10125000840883E592E00197F1F78091E5028062CE
:101260000E948408D5CF9091E902691710F06FEFC2
:10127000690FE62FF0E0EA52FD4F9489890F8068EC
:101280000C94840841E00E94310881E090E00895C8
:101290000F931F93CF93DF938C01D0E0C0E0F80150
:1012A000EC0FFD1F6491662339F041E086ED92E07A
:1012B0000E9431082196F3CFCE01DF91CF911F918B
:1012C0000F91089585ED8093BC008091500290911C
:1012D0005102A0915202B09153020796A11DB11D77
:1012E00023E0B695A795979587952A95D1F72091F4
:1012F000BC0024FD03C010922102089540915002C9
:10130000509151026091520270915302452B462B2D
:10131000472B69F30097A105B10541F02AE22A9510
:10132000F1F700C00197A109B109E1CF80914F0207
:101330000C948304DF92EF92FF920F931F93CF934D
:10134000DF93CDB7DEB729970FB6F894DEBF0FBE97
:10135000CDBFD82E60916C0270916D0280916E02AB
:1013600090916F020E94081F20E034E244E759E4A4
:101370000E94671E9E012F5F3F4F790189012091D6
:10138000030148E00E94581BF70101900020E9F793
:101390008E2D8E1B6D2D835F0E943309C7010E9425
:1013A0000D0789E194E00E94480929960FB6F89448
:1013B000DEBF0FBECDBFDF91CF911F910F91FF9088
:1013C000EF90DF9008954F925F926F927F928F928D
:1013D0009F92AF92BF92CF92DF92EF92FF92CF9304
:1013E000DF93C82F843009F4ADC28091E6028D7F6F
:1013F0008093E60288600E948408C150C73068F478
:10140000EC2FF0E0EA5FF54F0C94DC1F310A4A0A3A
:10141000670AA20CC60C160D2F0D0E948A088DE0DB
:1014200094E00E9448098BE094E00E94480986E01D
:1014300094E00E94480961E080E00E94330987EF50
:1014400093E0DF91CF91FF90EF90DF90CF90BF902E
:10145000AF909F908F907F906F905F904F900C9483
:10146000480980E00E949A0961E080E00E94330907
:1014700089E792E0DF91CF91FF90EF90DF90CF90DE
:10148000BF90AF909F908F907F906F905F904F90A4
:101490000C940D0780917002811107C061E00E94D9
:1014A000330982EF93E00E94480981E00E949A0983
:1014B000DF91CF91FF90EF90DF90CF90BF90AF90F2
:1014C0009F908F907F906F905F904F9008950E94B3
:1014D0008A088091AC02882301F160E080E00E94DC
:1014E000330988EE93E00E94480961E080E00E94A1
:1014F000330985EE93E00E94480980919C02813077
:1015000049F028F08230A1F689EC93E09ACF88ED7B
:1015100093E097CF80ED93E094CF80919D0281116D
:1015200036C080919C028130E1F080F0823021F160
:10153000833009F0BDCF8DE693E00E94480961E059
:1015400080E00E9433098EE593E07BCF8CEB93E043
:101550000E94480961E080E00E9433098FEA93E02D
:1015600070CF82EA93E00E94480961E080E00E9427
:10157000330985E993E065CF84E893E00E94480948
:1015800061E080E00E94330987E793E05ACF813021
:1015900009F08FC080919C02813009F465C070F021
:1015A000823009F085CF8BEF92E00E94480961E01C
:1015B00080E00E9433098CEE92E043CF8FE493E009
:1015C0000E94480961E080E00E94330980919B02FB
:1015D000882309F446C0E0910201F0E0E656FE4F90
:1015E000C08128E0C29FE0011124CD5DDE4F6881FB
:1015F00079818A819B8141E00E9465062B013C0133
:101600006C817D818E819F8141E00E9465064B0146
:101610005C018CE493E00E94480930E4C32E32E47C
:10162000D32E3FE0E32EF12CC301B201A7019601B6
:101630000E94BA1FCA01B9014AE00E94BF068AE4AB
:1016400093E00E944809C501B401A70196010E94D8
:10165000BA1FCA01B9014AE00E94BF0685E493E0BF
:10166000F0CE87E393E0EDCE8DE293E00E9448094F
:1016700061E080E00E94330980919B028823B1F0F1
:101680008AE293E00E9448096091030170E090E0D3
:1016900080E04AE00E94BF0680910301813019F08A
:1016A00087E193E0CECE81E293E0CBCE89E093E078
:1016B000C8CE823009F008C180919C02823009F4C2
:1016C00089C008F055C0882309F463C0813009F04F
:1016D000EFCE8EEB92E00E94480961E080E00E942C
:1016E000330980919B02882309F471C08BEB92E04F
:1016F0000E944809E091020134E0E39FF0011124C7
:10170000E55EFE4F608171818281938120E4C22E6B
:1017100022E4D22E2FE0E22EF12CA70196010E94A6
:10172000BA1FCA01B9014AE00E94BF0689EB92E0E4
:101730000E944809E091020144E0E49FF001112475
:10174000E55EFE4F6081718182819381A7019601E0
:101750000E94BA1F20EA36E841E050E00E94BA1F1A
:10176000CA01B9014AE00E94BF0684EB92E069CE4B
:10177000833009F451C0843009F09ACE86E192E0BA
:101780000E94480961E080E00E94330987E092E00E
:1017900058CE80EE92E00E94480961E080E00E940D
:1017A000330980919B02882379F08BED92E00E94AF
:1017B0004809E091D502F0E0E15AFE4F608170E007
:1017C00090E080E040E16AC08DEC92E03ACE86EA9B
:1017D00092E037CE8AE992E00E94480961E080E019
:1017E0000E94330980919B02882399F087E992E057
:1017F0000E94480980910601882329F0813031F048
:1018000089E892E01ECE82E992E01BCE84E892E065
:1018100018CE86E792E015CE89E692E00E9448094C
:1018200061E080E00E94330980919B02882309F4E3
:1018300048C086E692E00E944809809178028111B2
:101840000DC08DE592E00E944809C09108018BE52A
:1018500092E0C830E0F086E592E0F3CD813069F4A3
:101860008BE492E00E944809C091010189E492E072
:10187000C83068F084E492E0E4CD89E392E00E940D
:101880004809C0910701C830C8F487E392E00E947C
:1018900048096C2F70E090E080E04AE0DF91CF9142
:1018A000FF90EF90DF90CF90BF90AF909F908F9080
:1018B0007F906F905F904F900C94BF0682E392E010
:1018C000C0CD84E292E0BDCD833009F0F1CD8091AE
:1018D0009C028130D1F070F0823009F0E9CD86EBC6
:1018E00091E00E94480961E080E00E94330987EAA4
:1018F00091E0A7CD8AEF91E00E94480961E080E085
:101900000E9433098EEE91E09CCD8DED91E00E9416
:10191000480961E080E00E94330980919B0288239E
:1019200071F08AED91E00E94480980915E02811178
:1019300003C082ED91E085CD86ED91E082CD84EC0F
:1019400091E07FCD61E080E00E9433098AE892E077
:101950000E940D0761E0809199010E9433098091F6
:10196000E602982F92609093E6028A60DF91CF9111
:10197000FF90EF90DF90CF90BF90AF909F908F90AF
:101980007F906F905F904F900C94840860E080E0AF
:101990000E9433098091B402882319F081EA91E012
:1019A00050CD0E94C703C0909501D0909601E09061
:1019B0009701F09098019B01AC012C193D094E094B
:1019C0005F0969017A013AEFC316D104E104F10419
:1019D00008F46ECD60939501709396018093970102
:1019E000909398018BE991E00E944809C09194017D
:1019F00060E08C2F0E943309D091000185E991E0CD
:101A0000DD2311F088E991E00E9448098FEFD111A0
:101A100081E08C0F80939401882319F0833009F0C2
:101A200047CD81E0D827D093000142CD80915F025D
:101A3000882381F0DF91CF91FF90EF90DF90CF90DE
:101A4000BF90AF909F908F907F906F905F904F90DE
:101A50000C948A0881E00E94E309C5E0C6CC61E0ED
:101A600086E00E94B9020E948A08C09155028EE762
:101A700091E0CC2311F088E891E00E94480961E0F0
:101A800080E00E94330982E691E0CC2309F4D9CCAE
:101A900081E791E00E944809E09109018CCE2F92E4
:101AA0003F924F925F926F927F928F929F92AF92EE
:101AB000BF92CF92DF92EF92FF920F931F93CF933B
:101AC000DF9300D01F92CDB7DEB7D82EF62E042FAD
:101AD000E52E2B83862F880F89831AE088248A9429
:101AE00085EE982E95ECC92EA22EB12C922F9150F6
:101AF0009A83DD2009F4F0C00E9470032B013C01A1
:101B000080912102811165C0E1E0E0932102E09320
:101B100023028092200210924502FA81F09344023F
:101B2000E0934602809146029981892B8093460278
:101B300080912202813009F08BC0109222020E9413
:101B400070032B013C01809146028093BB00809181
:101B5000500290915102A0915202B0915302892BF0
:101B60008A2B8B2BA1F00E947003209150023091A0
:101B7000510240915202509153026419750986092D
:101B80009709261737074807590708F443C080917B
:101B9000BC0083FDD8CFC092BC000E9470032B0113
:101BA0003C0180912102813009F455C080914502A9
:101BB000EB818E1708F071C080914502E4E2F2E0FB
:101BC000ADEBB1E090E0981751F121912D939F5F1B
:101BD000FACF8091500290915102A0915202B0919F
:101BE0005302892B8A2B8B2B09F48ACF0E94700316
:101BF0002091500230915102409152025091530273
:101C00006419750986099709261737074807590780
:101C100008F076CF80914F020E94830480E01092FA
:101C20004E0280934D02FB81F81339C00983C02E08
:101C3000DE2C8C2D9981891BEB818E1708F007C152
:101C400089EC92E00E94B404F60181936F01F1CF18
:101C50009092BC00A2CF8091500290915102A0912D
:101C60005202B0915302892B8A2B8B2B09F499CF06
:101C70000E94700320915002309151024091520213
:101C80005091530264197509860997092617370779
:101C90004807590708F085CFBDCF8B818FCF62E30E
:101CA00070E080E090E00E949503115009F021CF90
:101CB0008091BA0281112FC160E085E00E94B902D3
:101CC00087E00E94E30983E00E949002892B09F0DB
:101CD00004C10E94D303F7CFF1E0F093BC01F0926E
:101CE000930110924C0210924B028B81882339F0A1
:101CF000A501602F7E2D89EC92E00E94CE043090E9
:101D00004B0290E281E0931508F499C02090930172
:101D10000E9470032B013C0180912102811169C056
:101D2000E2E0E0932102F1E0F093230280922002AE
:101D30001092450230924402ECE9F1E0A4E2B2E0F4
:101D400038129CC01092460280914602220C282A2A
:101D50002092460280912202813009F093C01092B5
:101D600022020E9470032B013C0180914602809365
:101D7000BB008091500290915102A0915202B0910B
:101D80005302892B8A2B8B2BA1F00E947003209188
:101D90005002309151024091520250915302641905
:101DA000750986099709261737074807590708F460
:101DB00041C08091BC0083FDD8CFC092BC000E947E
:101DC00070032B013C0180912102823009F45DC037
:101DD000809120028F3F09F47AC0809120028032E6
:101DE00009F477C080912002803309F474C084E044
:101DF00026C08091500290915102A0915202B09160
:101E00005302892B8A2B8B2B09F486CF0E947003F7
:101E10002091500230915102409152025091530250
:101E2000641975098609970926173707480759075E
:101E300008F072CF80914F020E94830485E01092D7
:101E40004C0210924B021092BC01811128CF81E00C
:101E50000F900F900F90DF91CF911F910F91FF90F6
:101E6000EF90DF90CF90BF90AF909F908F907F903A
:101E70006F905F904F903F902F90089591919D9318
:101E80008F5F5ECF9092BC009ACF8091500290916C
:101E90005102A0915202B0915302892B8A2B8B2BB5
:101EA00009F491CF0E9470032091500230915102A9
:101EB000409152025091530264197509860997099D
:101EC000261737074807590708F07DCFB3CF80E0C2
:101ED000B6CF82E0B4CF83E0B2CF0E94D30383E0D9
:101EE0000E949002892BC9F783E00E949002892BFF
:101EF00019F40E94D303F8CF60E085E00E94B90294
:101F000088E198E00FB6F894A895809360000FBE22
:101F100090936000FFCF80E09BCFCF92DF92EF9253
:101F2000FF920E94C7036B017C01809199018F3061
:101F300068F11092AB021092990110929B021092DC
:101F4000AC0210929A0240E150E06AE872E089E740
:101F500092E00E9425201092890283E00E94E3090A
:101F60008EE5C80E81E0D81EE11CF11CC092A702CC
:101F7000D092A802E092A902F092AA0281E0809396
:101F8000A602FF90EF90DF90CF9008958F5F80932F
:101F9000990184E0FF90EF90DF90CF900C94E309DB
:101FA000E0919901F0E0E657FD4F2081022E000CF0
:101FB000330B20523109A901480F511D87FD5A9555
:101FC000CA01815A9F4F6FE570E00E94A61F805E94
:101FD000808384E00C94E30980919D02823081F437
:101FE00080919C02833061F480917802823030F4D9
:101FF0008F5F8093780283E00C94E309109278025B
:1020000010929B02F8CF80915E0291E08927809325
:102010005E0283E00C94E30980917802811111C083
:1020200080910801883029F41092080183E00C9413
:10203000E309873021F488E080930801F7CF8F5FB0
:10204000FBCF813079F480910101883019F410922E
:102050000101ECCF873021F488E080930101E6CFC5
:102060008F5FFBCF80910701883019F41092070130
:10207000DDCF873021F488E080930701D7CF8F5FD1
:10208000FBCF80917802811110C0809108018830C7
:1020900031F487E08093080183E00C94E309811117
:1020A00002C088E0F7CF8150F5CF813071F4809184
:1020B0000101883021F487E080930101EDCF811187
:1020C00002C088E0F9CF8150F7CF809107018830B6
:1020D00021F487E080930701DFCF811102C088E0FF
:1020E000F9CF8150F7CF80910601813029F4109209
:1020F000060183E00C94E3098111FBCF82E0809319
:102100000601F7CF80910601823029F41092060172
:1021100083E00C94E3098111FBCF81E080930601F9
:10212000F7CF81E08093020182E08093030183E096
:102130000C94E3091092020180910301833018F49A
:1021400083E08093030183E00C94E3098091D5023E
:10215000833018F48F5F8093D50283E00C94E309F9
:102160008091D502882319F081508093D50283E0B5
:102170000C94E3098091020192E0811101C093E087
:1021800080910301891718F48F5F8093030183E026
:102190000C94E30980910301882319F08150809306
:1021A000030183E00C94E309E0910201F0E0E656BC
:1021B000FE4F8081863028F48F5F808383E00C940B
:1021C000E30980E0FACFE0910201F0E0E656FE4F2D
:1021D0008081882329F08150808383E00C94E30977
:1021E00086E0FACF90919D0280919C0291111DC0D2
:1021F000813079F030F0823081F0833091F083E0EB
:1022000039C010928A0181E080939D0210929C0255
:10221000F6CF80938A0182E0F7CF80938A0183E032
:10222000F3CF81E08093AC02F1CFE92FF0E0E55AE3
:10223000FE4F20812150330B8217130639F4109280
:102240009D0280918A0180939C02D9CF9330A1F4A2
:10225000811112C01092990181E08093AB0240E19C
:1022600050E069E772E08AE892E00E94252010922F
:102270009A0284E00C94E30981E080939B02BFCF33
:1022800080919C02823030F48F5F80939C0283E0C7
:102290000C94E309089580919C02882331F08150C9
:1022A00080939C0283E00C94E30908954F925F921F
:1022B0006F927F928F929F92AF92BF92CF92DF9256
:1022C000EF92FF92CF93DF9300D000D000D0CDB734
:1022D000DEB78D8340908601509087016090880121
:1022E00070908901C0908201D0908301E0908401B8
:1022F000F0908501809170028823C9F180906C0272
:1023000090906D02A0906E02B0906F020E944805FE
:102310008E830E942D059B01AC01D301C2018C1953
:102320009D09AE09BF0989839A83AB83BC839E81D3
:10233000A92FB0E00E94E21F29813A814B815C8184
:10234000261737074807590710F4CA01B9013D811C
:1023500013160CF043C0860E971EA81EB91E80925D
:102360006C0290926D02A0926E02B0926F02809108
:102370006C0290916D02A0916E02B0916F028C156B
:102380009D05AE05BF0578F1481659066A067B061D
:1023900010F06C017D01C0926C02D0926D02E0924F
:1023A0006E02F0926F0282E00E94E30981E0809366
:1023B000700226960FB6F894DEBF0FBECDBFDF9138
:1023C000CF91FF90EF90DF90CF90BF90AF909F9014
:1023D0008F907F906F905F904F900895861A970A24
:1023E000A80AB90ABCCF73016201D5CFFF920F933F
:1023F0001F93CF93DF93EC01F62E08811981C8015A
:102400000E94AD1DF81621F06F2DC8010E94B51D68
:10241000CE01DF91CF911F910F91FF900895CF933F
:10242000DF9300D0CDB7DEB79A838983CE010196C2
:102430000E94F6110F900F90DF91CF910895609157
:102440000801683008F068E086E590E00E940F120D
:1024500060910101683008F068E087E590E00E9433
:102460000F1260910701683008F068E088E590E09D
:102470000C940F12CF93DF9386E490E00E9436070E
:10248000C82F811181E08093020188E290E00E94D0
:102490003607482F50E022E030E0C11102C023E0AF
:1024A00030E04217530724F082E0C11101C083E0FD
:1024B000809303010E94380780E590E00E94360770
:1024C000843008F081E08093090182E390E00E946B
:1024D0003607833008F081E08093060186E590E0BE
:1024E0000E943607C82F87E590E00E943607D82F54
:1024F00088E590E00E943607CF3FC1F5DF3FC1F588
:102500008F3FB1F50E941F1289E792E00E941A07DF
:102510009091890210928902E9E7F2E029E832E01D
:10252000819180528F3528F42E173F07C9F79923E0
:1025300081F040E150E06AE071E089E792E00E94BA
:10254000252044E050E060E270E085E892E00E94DF
:1025500010208EE190E00E94360791E0811101C0C9
:1025600090E090935E02DF91CF910895C83008F01B
:10257000C8E0C0930801D83008F0D8E0D09301013A
:10258000883008F088E080930701BECF0E943A129D
:1025900060916C0270916D0280916E0290916F0259
:1025A00041E00E94650660936C0270936D02809317
:1025B0006E0290936F021092AC021092BA021092C7
:1025C0009D0281E00C94E3098F929F92AF92BF929B
:1025D000CF92DF92EF92FF920F931F93CF93DF93EF
:1025E000CDB7DEB72A970FB6F894DEBF0FBECDBFCA
:1025F00060916C0270916D0280916E0290916F02F9
:1026000041E00E9465066B017C01C0926C02D09291
:102610006D02E0926E02F0926F02809168029091DA
:102620006902A0916A02B0916B02C816D906EA0647
:10263000FB0629F48091BA02882309F486C00E941F
:102640002D059B01AC01C701B6010E94BA1F3D8355
:102650002E8380910601823009F48AC08EEC8F832C
:102660009091010180E0983028F481E001C0880F4A
:102670009A95EAF788877E0185E0E80EF11CE091E3
:102680000901F0E0E15AFE4F24E0A701608180E0FB
:102690000E944F0D882309F458C040916C0250915C
:1026A0006D0260916E0270916F0230910201032FF2
:1026B00010E0F801E656FE4F208149835A836B8370
:1026C0007C83273078F5323068F5809068029090EE
:1026D0006902A0906A02B0906B02481559056A051C
:1026E0007B0501F1000F111F000F111F065A1F4F2C
:1026F00098E0299F90011124020F131FFE013196CB
:102700006F010E1B1F0BC8018C0D9D1D9A878987B9
:10271000F60161916F01CE0109960E94F611CE1467
:10272000DF0489F780916C0290916D02A0916E0296
:10273000B0916F028093680290936902A0936A023D
:10274000B0936B0281E08093B5022A960FB6F8949D
:10275000DEBF0FBECDBFDF91CF911F910F91FF90D4
:10276000EF90DF90CF90BF90AF909F908F900895A3
:102770008FEC75CFCF92DF92EF92FF920F931F9362
:10278000CF93DF93CDB7DEB763970FB6F894DEBF74
:102790000FBECDBF80919C028111B4C08091AB026D
:1027A000811137C040E150E06AE872E089E792E0C9
:1027B0000E9425201092890289E7E82E82E0F82EF7
:1027C000F701819180528F3508F0ACC022E0E938E2
:1027D000F207B9F7CE0101960E941A0741E150E0D5
:1027E000BE016F5F7F4F89E792E00E941720892B1F
:1027F00081F00AE010E01B8B0A8BF70161917F01E9
:10280000CE0142960E94F6110F5F1F4F0B3111054A
:1028100091F710910901E091D5021E1789F0F0E0BF
:10282000E15AFE4F20E050E040E0608180E00E94ED
:102830004F0D882309F445C08091D502809309018A
:1028400060919A018CE390E00E940F1260919B01CD
:102850008DE390E00E940F126091030188E290E006
:102860000E940F126091090180E590E00E940F1212
:102870006091020186E490E00E940F1260910601CF
:1028800082E390E00E940F120E941F1260915E028C
:102890008EE190E00E940F120E9438070E94E4121D
:1028A0000E94C61263960FB6F894DEBF0FBECDBF6E
:1028B000DF91CF911F910F91FF90EF90DF90CF901C
:1028C00008951093090181E08093550287E00E94EA
:1028D000E309109255020E94C7036B017C010E941C
:1028E000C7036C197D098E099F09643C79408105F5
:1028F000910518F40E94D303F2CF60E085E00E94B6
:10290000B9029ECF813031F40E94C61285E00E9448
:10291000E309C8CF823031F61092AC0210929C02CB
:1029200083E0F5CF40E150E06AE071E089E792E0B2
:102930000E94252044E050E060E270E085E892E0EB
:102940000E94102047CF1F920F920FB60F921124B2
:102950002F933F938F939F93AF93BF938091BC022C
:102960009091BD02A091BE02B091BF023091BB0216
:1029700023E0230F2D3758F50196A11DB11D20939B
:10298000BB028093BC029093BD02A093BE02B093A1
:10299000BF028091C0029091C102A091C202B09189
:1029A000C3020196A11DB11D8093C0029093C10284
:1029B000A093C202B093C302BF91AF919F918F9138
:1029C0003F912F910F900FBE0F901F90189526E802
:1029D000230F0296A11DB11DD2CF1F920F920FB6E9
:1029E0000F9211242F933F934F935F936F937F9395
:1029F0008F939F93AF93BF93EF93FF938091B90011
:102A0000887F803609F44AC0F0F5883209F4A7C0FF
:102A100018F5803109F49BC0B8F4882309F4F9C093
:102A2000883009F494C0FF91EF91BF91AF919F91CD
:102A30008F917F916F915F914F913F912F910F9067
:102A40000FBE0F901F901895883109F488C080320E
:102A500051F78093200214C0803409F49DC040F4E3
:102A60008033B9F38833F9F68093200285ECB0C047
:102A7000803509F485C0883509F496C0883499F604
:102A80000E946209D0CF883909F48CC038F58837A4
:102A900029F050F4883611F0803729F683E08093CE
:102AA000210210921F0257C0883809F47BC0803978
:102AB00019F0803809F0B7CF80911F02803208F0FA
:102AC00071C0E0911F0281E08E0F80931F02809100
:102AD000BB00F0E0E150FE4F80833DC0803B39F009
:102AE000E0F4803A09F479C0883A09F09CCF84E098
:102AF000809321021092FE011092FD01E0914902A3
:102B0000F0914A0209958091FD0181110FC081E089
:102B10008093FD011092DD0109C0803C09F4A6CF2D
:102B2000883C09F4A3CF883B09F07DCFE091FE01FA
:102B300081E08E0F8093FE01F0E0E352FE4F808132
:102B40008093BB009091FE018091FD0129C080918E
:102B500046028093BB0085EC8093BC0064CF9091CB
:102B6000450280914402981758F5E091450281E0B2
:102B70008E0F80934502F0E0EC5DFD4F8081E9CF40
:102B8000E091450281E08E0F809345028091BB0069
:102B9000F0E0EC5DFD4F808390914502809144020E
:102BA0009817C8F285E8D8CFE091450281E08E0FF2
:102BB000809345028091BB00F0E0EC5DFD4F808387
:102BC0008091230281115CCF81E08093220284EA0C
:102BD0008093BC001092210226CF85EC8093BC002C
:102BE0001092210280911F02803230F4E0911F0286
:102BF000F0E0E150FE4F108260911F0270E0E09122
:102C00004702F09148028FEF91E0099510921F0260
:102C10000ACF1092200234CFE9ECF2E01382128244
:102C200088EE93E0A0E0B0E084839583A683B78329
:102C300087E691E091838083E6EDF2E013821282D1
:102C400089E791E09183808388E084838FEF858397
:102C500089E086838AE087838BE080878CE08187A8
:102C60008DE082871386148615861686178681E086
:102C70000E949208809109018093D5020895CF9314
:102C8000DF9300D000D000D01F92CDB7DEB778948C
:102C900084B5826084BD84B5816084BD85B5826061
:102CA00085BD85B5816085BD80916E008160809312
:102CB0006E0010928100809181008260809381007B
:102CC000809181008160809381008091800081608B
:102CD000809380008091B10084608093B1008091E6
:102CE000B00081608093B00080917A00846080930E
:102CF0007A0080917A00826080937A0080917A00D5
:102D0000816080937A0080917A00806880937A0055
:102D10001092C10062E082E00E94E70262E083E07C
:102D20000E94E70262E084E00E94E70261E085E041
:102D30000E94E70261E085E00E94E70261E086E030
:102D40000E94E70210924E0210924D0210924C0225
:102D500010924B020E9465048EE094E090934A0228
:102D6000809349028FE094E0909348028093470259
:102D700082EF8093B8001092540288E893E1A0E0BB
:102D8000B0E08093500290935102A0935202B0930E
:102D9000530211E010934F0282E00E9492088FEFDD
:102DA00090E00E94180380E00E94E30964EC79E05F
:102DB00080E090E00E94950383E00E949002892BBE
:102DC000A1F41093090161E080E590E00E940F12E8
:102DD0001093550287E00E94E3091092550264ECBB
:102DE00079E080E090E00E9495030E943A120E94F0
:102DF000E41281E00E94E30985E00E94E309AA242D
:102E0000A394B12C90E0892E90E0992E11E0222419
:102E10002A940E94C7036B017C0182E00E94900209
:102E200033243394892B09F0312C3092B30283E0A0
:102E30000E94900201E0892B09F000E00093B102AA
:102E400084E00E94900221E0892B09F020E0209389
:102E5000B202432C400E5524551CC201820F911D15
:102E600002970CF463C11092B2021092B102109258
:102E7000B302C0925602D0925702E0925802F092EA
:102E8000590280917002811108C08091BA028111AB
:102E900004C08091B402811163C110926402109247
:102EA000650210926602109267028091BA02811147
:102EB0005CC03090B30231100CC08091B10281111E
:102EC00008C08091B202811104C080910501811176
:102ED0004CC00E94C7036B017C0126E531E14FEF36
:102EE00067E772E0832D0E94890526E531E141E024
:102EF00066E772E08091B2020E9489058091B30278
:102F0000811104C08091B202882351F0C0927102F5
:102F1000D0927202E0927302F09274021092050154
:102F200080917002882309F416C28091B10288232F
:102F300009F411C20E94C7036B017C010E94E412D4
:102F4000109270029EE5C90E91E0D91EE11CF11CA1
:102F5000C092A702D092A802E092A902F092AA021F
:102F600081E00E94E309109305010E94C7036B01F1
:102F70007C018091B302811108C09091B20291113D
:102F800004C09091B102992341F0C092AD02D09259
:102F9000AE02E092AF02F092B0022091BA02222378
:102FA00009F404C29091AC02911100C24090AD02AC
:102FB0005090AE026090AF027090B002B701A601CF
:102FC000441955096609770941325E446105710566
:102FD00008F4ECC11092AB020E94C61285E00E9478
:102FE000E309AEE5CA0EA1E0DA1EE11CF11CC092B5
:102FF000A702D092A802E092A902F092AA0210932E
:10300000A6028091B502882309F458C0E091090115
:10301000F0E0E15AFE4F21E0AE014D5F5F4F60816D
:1030200081E00E944F0D882309F448C08B8186FB04
:10303000882780F98093B4028091BA02811103C07D
:1030400085E00E94E3098091B402882391F1809188
:103050000801883008F0C0C27A2D01C0770F8A9528
:10306000EAF7872F90910701983030F4950101C05D
:10307000220F9A95EAF7822B20910601213009F45C
:10308000ADC291E0223009F090E02EE8922B9983B6
:103090008A83E0910901F0E0E15AFE4F22E0AE019F
:1030A0004F5F5F4F608180E00E944F0D8111109251
:1030B000B5026091B40285E00E94B9028091BA0223
:1030C00081112DC00E94C703C090B602D090B702F4
:1030D000E090B802F090B9022B013C014C185D0859
:1030E0006E087F087301620120EDC21627E0D20648
:1030F000E104F104A0F06093B6027093B7028093EC
:10310000B8029093B902E0910901F0E0E15AFE4F54
:1031100020E050E040E0608180E00E944F0D81148B
:10312000910409F476CE0E94000071CE809156027F
:1031300090915702A0915802B0915902C81AD90A29
:10314000EA0AFB0A22E3C216D104E104F10408F002
:1031500098CE1092B2021092B1021092B30291CEA8
:103160000E94C7036B017C0180916402909165020B
:10317000A0916602B0916702892B8A2B8B2BB9F440
:1031800083E00E949002892B51F482E00E94900219
:10319000892B29F084E00E949002892B89F7C09244
:1031A0006402D0926502E0926602F092670220917A
:1031B000B102222309F4BCC0409160025091610227
:1031C00060916202709163024115510561057105BC
:1031D00009F08DC0C0926002D0926102E09262025A
:1031E000F09263029091B302911106C0211104C0C4
:1031F0008091B202882389F1209204018FEF90E040
:103200000E94180380915F028823F9F010925F02F8
:1032100086E00E94E3098091B30202E0811106C0BA
:103220008091B20204E0811101C003E0802F0E946E
:103230009002892BD9F3033009F488C0043009F4D3
:1032400080C0109277021092B302C0926402D092B2
:103250006502E0926602F092670280915E02882326
:1032600009F423CE8091640290916502A0916602D8
:10327000B091670226013701481A590A6A0A7B0A87
:10328000D301C201853C9940A105B10508F40DCEDA
:1032900080915F02811109CE209104012F3108F441
:1032A00004CE40915A0250915B0260915C02709191
:1032B0005D02D701C601841B950BA60BB70BAC01B1
:1032C000BD01473051056105710508F4EECD8FEF62
:1032D000820F8093040190E00E941803C0925A026A
:1032E000D0925B02E0925C02F0925D02DECDD701EB
:1032F000C601841B950BA60BB70BAC01BD014D3D60
:1033000055406105710508F46DCF90915F029111F0
:1033100069CF90E080E00E94180310935F0286E07E
:103320000E94E30983E00E949002892BD9F3BDCD6E
:103330001092600210926102109262021092630277
:1033400051CF109276021092B2027FCF1092750286
:103350001092B1027ACF8091710290917202A09185
:103360007302B0917402C81AD90AEA0AFB0AA9E8E2
:10337000CA16A3E1DA06E104F10408F4F6CD1092CE
:103380007002809105018111F0CD809168029091C9
:103390006902A0916A02B0916B0280936C029093D3
:1033A0006D02A0936E02B0936F02DACD9091A602E7
:1033B000992339F08091B102811123CE1092A60297
:1033C00020CE9091AB0221112BC091111ACE809189
:1033D000A7029091A802A091A902B091AA02C816D2
:1033E000D906EA06FB0608F40CCE8091A202909161
:1033F000A302A091A402B091A5022091B1022223C0
:1034000009F4EFC0892B8A2B8B2B09F0FACDC092DF
:10341000A202D092A302E092A402F092A502F1CD02
:103420009923D1F020ED3FE04FEF67E772E00E9473
:10343000890520ED3FE041E066E772E08091B2024D
:103440000E9489052DE83FE040E065E772E0809149
:10345000B1020E948905D5CD9091AC02992399F0D3
:103460002BE431E14FEF67E772E00E94890520E429
:1034700031E141E066E772E08091B2020E94890585
:103480002AEB33E1E1CFE0919D0290919B029111F3
:1034900037C0F0E0E55AFE4FF080882359F1809163
:1034A000770281110CC01093770280919C028823CF
:1034B00019F0815080939C0283E00E94E30980917F
:1034C000B2028823D1F080917602811110C010934E
:1034D000760280919C026F2D6150770B861717063C
:1034E0001CF48F5F80939C0283E00E94E30922EF2B
:1034F00030E1AACF10927702E2CF10927602F7CF96
:10350000E13021F590919C02992329F09130A1F0AE
:103510002CEE3FE099CF23EE30E14FEF67E772E00A
:103520000E94890524ED30E141E066E772E0809178
:10353000B2020E948905ECCF2AEC30E14FEF67E739
:1035400072E00E9489052AEB30E1EECFE23089F586
:1035500090919C029130C9F070F0923001F193305B
:10356000B9F621E430E14FEF67E772E00E94890588
:103570002CE030E1D9CF20EB30E14FEF67E772E08C
:103580000E94890526EA30E1CFCF2AE930E14FEFEA
:1035900067E772E00E94890521E930E1C5CF22E8A2
:1035A00030E14FEF67E772E00E94890523E730E1E1
:1035B000BBCFE33009F0ACCF90919C02913009F081
:1035C000A7CF23E030E140E067E772E00E94890581
:1035D00023E030E140E0A9CF80E044CD2EEC90E044
:1035E00055CD0097A105B10509F40BCD1092A202AB
:1035F0001092A3021092A4021092A5022601370194
:10360000481A590A6A0A7B0AD301C2018E359140D1
:10361000A105B10508F0F5CC80919E0290919F0222
:10362000A091A002B091A1024EEC5FEF6FEF7FEF8F
:10363000481B590B6A0B7B0BDB01CA018C0D9D1DCE
:10364000AE1DBF1DC0929E02D0929F02E092A002CA
:10365000F092A1028C329140A105B10508F0D1CCC5
:103660001093BA0210929D0210929C0210929B023B
:103670001092AC02809109018093D50240E150E0A4
:1036800069E772E08AE892E00E94252010929A028F
:103690001092780283E00E94E3091093A602C09280
:1036A000AD02D092AE02E092AF02F092B002A9CC8D
:1036B000EF920F931F93CF93DF93E80134E047FD20
:1036C00034E1042E000C550B57FF03C05195419572
:1036D0005109E32E022F242FAE010E94761BCE014A
:1036E000DF91CF911F910F91EF900895A9E0B0E085
:1036F000ECE7FBE10C94C91D6A01F22EB02E102FED
:10370000FBE3AF2EA01608F41BE31F5F012F27E099
:10371000AE014F5F5F4F0E94D51CBC018981982F7D
:103720009970913009F43FC09BE2E1FC04C09E2DEA
:103730009170E0FC3AC05E2D5071E82FE87083FF75
:1037400046C084E0911101C083E0EF2DE81B8F1586
:1037500008F0E0E0D6018E2F20E2552351F19923A5
:1037600029F0D6019C93C60101966C0196012D5F4C
:103770003F4FE2FE24C08EE4D6018C9391E4119673
:103780009C93119712968C93D9018E2F90E2811100
:103790001BC0E20FF32FF11D10828EEF9FEF2996D1
:1037A000ECE00C94E51D9DE2C6CF90E2C4CF2D93D2
:1037B00081508111FCCFCE0ED11CE0E0D0CF8EE63F
:1037C000D6018C9391E6DBCF9D938150E0CF482FBB
:1037D000447082FF3DC084E0911101C083E08F15E9
:1037E00010F4EF2DE81BD6018E2F20E2552309F1AE
:1037F000992329F0D6019C93C60101966C0196018C
:103800002D5F3F4FE2FE1BC089E4D6018C938EE40E
:1038100011968C93119786E412968C93D9018E2F72
:1038200090E2882309F4B5CF9D938150FACF2D9370
:1038300081508111FCCFCE0ED11CE0E0D9CF89E6BA
:10384000D6018C938EE611968C93119786E6E4CF81
:103850009B0177FF02C030E020E0A1E0B0E09111D1
:1038600002C0B0E0A0E0F9013196AE0FBF1F8B2C73
:10387000912CBB2009F461C05401EFEFAE1ABE0ACF
:10388000AA0DBB1DFA161B0619F014F04F2D4A1B8A
:10389000511188C0E3FC59C07601A42FB0E2A111F8
:1038A0004FC0C40ED11C992309F45BC040E0D6017F
:1038B0001196F60190836D01552309F448C0012F3C
:1038C000060F9A81582F507184FF03C0913309F479
:1038D000015010160CF047C0093008F008E0EEE285
:1038E000FE2E5B01A01AB108850191948194910884
:1038F0002F3F320729F4D601FC92F60131966F0171
:103900006217730794F1021713077CF5DB01A21B02
:10391000B30BAA24A394B12CAC0EBD1EAA0DBB1DE3
:1039200011968C9121503109D6011196281539052F
:10393000F4F0F60180836D01DBCFB12CA12CA0CF78
:10394000F701B1937F01A150AACF9111B0CFD60159
:10395000942F50E302C05D9391509111FCCFC40E9F
:10396000D11C40E0ACCF01E0BACF80E3DBCF6217DF
:10397000730731F4963388F4953311F4552369F0C5
:10398000F6018083FD01842F90E2811108C0A40F0D
:10399000B11D1C9290E080E002CF81E3F1CF9193C2
:1039A0008150F3CF911183CF8ACF283008F027E0E0
:1039B0003327DA01990F311D87FD9160009661056B
:1039C000710539F432602E5F3D9330E32A95E1F7BB
:1039D00008959F3F30F080387105610509F03C5F24
:1039E0003C5F3D93913008F08068911DDF93CF9349
:1039F0001F930F93FF92EF92192F987F9695E92FBF
:103A000096959695E90FFF27EE53FF4F9927332799
:103A1000EE24FF24A701E70105900894079428F4F9
:103A2000360FE71EF81E491F511D660F771F881FAE
:103A3000991F0694A1F70590079428F4E70EF81E45
:103A4000491F561FC11D770F881F991F661F0694B7
:103A5000A1F70590079428F4F80E491F561FC71FB9
:103A6000D11D880F991F661F771F0694A1F7059037
:103A7000079420F4490F561FC71FD81F990F661FC0
:103A8000771F881F0694A9F784911095177041F04D
:103A9000D695C79557954795F794E7941A95C1F72A
:103AA000E8E6F0E06894159015913591659195914F
:103AB00005907FE27395E118F10A430B560BC90B91
:103AC000D009C0F7E10CF11E431F561FC91FD01DBE
:103AD0007EF4703311F48A95E6CFE894015030F00B
:103AE000080F0AF40027021708F4202F2395022F4D
:103AF0007A3328F079E37D932A95E9F710C07D9316
:103B00002A9589F606949795679537951795179492
:103B1000E118F10A430B560BC90BD00998F0239515
:103B20007E9173957A3308F070E37C932013B8F795
:103B30007E9170617D9330F0839571E37D9370E3A6
:103B40002A95E1F71124EF90FF900F911F91CF91EB
:103B5000DF91992787FD90950895F999FECF92BD41
:103B600081BDF89A992780B50895262FF999FECF3F
:103B70001FBA92BD81BD20BD0FB6F894FA9AF99A8A
:103B80000FBE019608952F923F924F925F926F92CF
:103B90007F928F929F92AF92BF92CF92DF92EF92DD
:103BA000FF920F931F93CF93DF93CDB7DEB7CA1B5E
:103BB000DB0B0FB6F894DEBF0FBECDBF09942A8889
:103BC000398848885F846E847D848C849B84AA8431
:103BD000B984C884DF80EE80FD800C811B81AA81BE
:103BE000B981CE0FD11D0FB6F894DEBF0FBECDBF89
:103BF000ED0108955058BB27AA270E94121E0C946D
:103C00005C1F0E944E1F38F00E94551F20F039F4AF
:103C10009F3F19F426F40C944B1F0EF4E095E7FB3C
:103C20000C94451FE92F0E946D1F58F3BA176207C5
:103C300073078407950720F079F4A6F50C948F1F7D
:103C40000EF4E0950B2EBA2FA02D0B01B9019001B7
:103C50000C01CA01A0011124FF27591B99F0593FFB
:103C600050F4503E68F11A16F040A22F232F342F43
:103C70004427585FF3CF469537952795A795F04091
:103C80005395C9F77EF41F16BA0B620B730B840BA6
:103C9000BAF09150A1F0FF0FBB1F661F771F881F5E
:103CA000C2F70EC0BA0F621F731F841F48F48795B6
:103CB00077956795B795F7959E3F08F0B0CF9395A8
:103CC000880F08F09927EE0F9795879508950E9421
:103CD0007B1E0C945C1F0E94551F58F00E944E1FC3
:103CE00040F029F45F3F29F00C94451F51110C94CA
:103CF000901F0C944B1F0E946D1F68F39923B1F322
:103D0000552391F3951B550BBB27AA276217730701
:103D1000840738F09F5F5F4F220F331F441FAA1F95
:103D2000A9F335D00E2E3AF0E0E832D09150504051
:103D3000E695001CCAF72BD0FE2F29D0660F771FFF
:103D4000881FBB1F261737074807AB07B0E809F0E5
:103D5000BB0B802DBF01FF2793585F4F3AF09E3F6A
:103D6000510578F00C94451F0C94901F5F3FE4F3CD
:103D7000983ED4F3869577956795B795F7959F5FAD
:103D8000C9F7880F911D9695879597F90895E1E0F9
:103D9000660F771F881FBB1F621773078407BA0758
:103DA00020F0621B730B840BBA0BEE1F88F7E095B3
:103DB00008950E94751F88F09F5798F0B92F992792
:103DC000B751B0F0E1F0660F771F881F991F1AF006
:103DD000BA95C9F714C0B13091F00E948F1FB1E0BD
:103DE00008950C948F1F672F782F8827B85F39F0BC
:103DF000B93FCCF3869577956795B395D9F73EF49F
:103E000090958095709561957F4F8F4F9F4F089546
:103E1000E89409C097FB3EF4909580957095619564
:103E20007F4F8F4F9F4F9923A9F0F92F96E9BB271A
:103E30009395F695879577956795B795F111F8CF96
:103E4000FAF4BB0F11F460FF1BC06F5F7F4F8F4F01
:103E50009F4F16C0882311F096E911C0772321F0F7
:103E60009EE8872F762F05C0662371F096E8862F8F
:103E700070E060E02AF09A95660F771F881FDAF7E6
:103E8000880F9695879597F9089597F99F6780E829
:103E900070E060E008959FEF80EC089500240A949C
:103EA0001616170618060906089500240A94121615
:103EB0001306140605060895092E0394000C11F448
:103EC000882352F0BB0F40F4BF2B11F460FF04C0F5
:103ED0006F5F7F4F8F4F9F4F089557FD9058440F4E
:103EE000551F59F05F3F71F04795880F97FB991F59
:103EF00061F09F3F79F08795089512161306140616
:103F0000551FF2CF4695F1DF08C0161617061806A2
:103F1000991FF1CF86957105610508940895E8947D
:103F2000BB2766277727CB0197F90895DB018F938D
:103F30009F930E94E21FBF91AF91A29F800D911DA0
:103F4000A39F900DB29F900D1124089597FB072E0B
:103F500016F4009407D077FD09D00E94ED1F07FCEE
:103F600005D03EF4909581959F4F08957095619589
:103F70007F4F0895A1E21A2EAA1BBB1BFD010DC0A5
:103F8000AA1FBB1FEE1FFF1FA217B307E407F50709
:103F900020F0A21BB30BE40BF50B661F771F881FE5
:103FA000991F1A9469F760957095809590959B017B
:103FB000AC01BD01CF010895EE0FFF1F0590F491F4
:103FC000E02D09940E940120A59F900DB49F900DB3
:103FD000A49F800D911D11240895AA1BBB1B51E1C4
:103FE00007C0AA1FBB1FA617B70710F0A61BB70B69
:103FF000881F991F5A95A9F780959095BC01CD010E
:104000000895A29FB001B39FC001A39F700D811DB1
:104010001124911DB29F700D811D1124911D0895D1
:10402000DC0101C06D9341505040E0F70895FB0161
:10403000DC014150504030F08D910190801919F40D
:104040000020B9F7881B990B0895FB01DC01415052
:10405000504048F001900D920020C9F701C01D9218
:0C40600041505040E0F70895F894FFCF65
:10406C0001060102FF010102050153746174696FBD
:10407C006E204E616D650000000000006A180000A3
:10408C00D430004007EC038026690400AB8704C0E1
:10409C0095A905C0832F0500F36F06004495080011
:1040AC004DD20800B108198074D21A80A1031C806B
:1040BC001361330090D003006D7C4D040305036045
:1040CC0061626300000000FB04CE042A05A404C74F
:1040DC0004B404A50400000000420910042A053DA4
:0240EC000400CE
:00000001FF
